:02000002B0004C
:1040000000400B009AED0B00000006000C000502BA
:0840100004018C130000000004
:044018009CD80B0025
:1040200081F0004102E000BF83F0004330B54FEA69
:1040300041044FEA430594EA050F08BF90EA020FD6
:104040001FBF54EA000C55EA020C7FEA645C7FEA69
:10405000655C00F0E2804FEA5454D4EB5555B8BF8C
:104060006D420CDD2C4480EA020281EA030382EAFD
:10407000000083EA010180EA020281EA0303362D8F
:1040800088BF30BD11F0004F4FEA01314FF4801C62
:104090004CEA113102D0404261EB410113F0004F74
:1040A0004FEA03334CEA133302D0524263EB43032B
:1040B00094EA050F00F0A780A4F10104D5F1200EC9
:1040C0000DDB02FA0EFC22FA05F2801841F1000124
:1040D00003FA0EF2801843FA05F359410EE0A5F1F8
:1040E00020050EF1200E012A03FA0EFC28BF4CF029
:1040F000020C43FA05F3C01851EBE37101F00045DF
:1041000007D54FF0000EDCF1000C7EEB00006EEBEB
:104110000101B1F5801F1BD3B1F5001F0CD3490875
:104120005FEA30004FEA3C0C04F101044FEA4452CC
:1041300012F5800F80F09A80BCF1004F08BF5FEA53
:10414000500C50F1000041EB045141EA050130BD33
:104150005FEA4C0C404141EB0101013C28BFB1F545
:10416000801FE9D291F0000F04BF01460020B1FA90
:1041700081F308BF2033A3F10B03B3F120020CDA63
:104180000C3208DD02F1140CC2F10C0201FA0CF041
:1041900021FA02F10CE002F11402D8BFC2F1200CA6
:1041A00001FA02F120FA0CFCDCBF41EA0C0190405C
:1041B000E41AA2BF01EB0451294330BD6FEA0404A5
:1041C0001F3C1CDA0C340EDC04F11404C4F1200290
:1041D00020FA04F001FA02F340EA030021FA04F3A2
:1041E00045EA030130BDC4F10C04C4F1200220FAF9
:1041F00002F001FA04F340EA0300294630BD21FA37
:1042000004F0294630BD94F0000F83F4801306BFFC
:1042100081F480110134013D4EE77FEA645C18BFF0
:104220007FEA655C29D094EA050F08BF90EA020F87
:1042300005D054EA000C04BF1946104630BD91EA7F
:10424000030F1EBF0021002030BD5FEA545C05D182
:104250004000494128BF41F0004130BD14F58004C1
:104260003CBF01F5801130BD01F0004545F0FE4135
:1042700041F470014FF0000030BD7FEA645C1ABF6A
:10428000194610467FEA655C1CBF0B46024650EAA1
:10429000013406BF52EA033591EA030F41F40021CD
:1042A00030BD00BF90F0000F04BF0021704730B553
:1042B0004FF4806404F132044FF000054FF0000128
:1042C00050E700BF90F0000F04BF0021704730B5E9
:1042D0004FF4806404F1320410F0004548BF4042BE
:1042E0004FF000013EE700BF42004FEAE2014FEA13
:1042F00031014FEA02701FBF12F07F4393F07F4FEE
:1043000081F06051704732F07F4208BF704793F0F0
:104310007F4F04BF41F40021704730B54FF4607403
:1043200001F0004521F000411CE700BF50EA010206
:1043300008BF704730B54FF000050AE050EA0102AF
:1043400008BF704730B511F0004502D5404261EB1F
:1043500041014FF4806404F132045FEA915C3FF460
:10436000D8AE4FF003025FEADC0C18BF03325FEAFD
:10437000DC0C18BF033202EBDC02C2F1200300FAAE
:1043800003FC20FA02F001FA03FE40EA0E0021FAD3
:1043900002F11444BDE600BF70B54FF0FF0C4CF4C1
:1043A000E06C1CEA11541DBF1CEA135594EA0C0F73
:1043B00095EA0C0F00F0DEF82C4481EA030621EAAE
:1043C0004C5123EA4C5350EA013518BF52EA0335E9
:1043D00041F4801143F4801338D0A0FB02CE4FF09B
:1043E0000005E1FB02E506F00042E0FB03E54FF0CB
:1043F0000006E1FB03569CF0000F18BF4EF0010EC3
:10440000A4F1FF04B6F5007F64F5407404D25FEABE
:104410004E0E6D4146EB060642EAC62141EA555171
:104420004FEAC52040EA5E504FEACE2EB4F1FD0CB3
:1044300088BFBCF5E06F1ED8BEF1004F08BF5FEA31
:10444000500E50F1000041EB045170BD06F00046E3
:1044500046EA010140EA020081EA0301B4EB5C0490
:10446000C2BFD4EB0C0541EA045170BD41F4801188
:104470004FF0000E013C00F3AB8014F1360FDEBFAD
:10448000002001F0004170BDC4F10004203C35DA89
:104490000C341BDC04F11404C4F1200500FA05F30C
:1044A00020FA04F001FA05F240EA020001F00042AD
:1044B00021F0004110EBD37021FA04F642EB060123
:1044C0005EEA430E08BF20EAD37070BDC4F10C044D
:1044D000C4F1200500FA04F320FA05F001FA04F211
:1044E00040EA020001F0004110EBD37041F10001FD
:1044F0005EEA430E08BF20EAD37070BDC4F1200508
:1045000000FA05F24EEA020E20FA04F301FA05F26F
:1045100043EA020321FA04F001F0004121FA04F217
:1045200020EA020000EBD3705EEA430E08BF20EAE7
:10453000D37070BD94F0000F0FD101F00046400021
:1045400041EB010111F4801F08BF013CF7D041EAA3
:10455000060195F0000F18BF704703F000465200A7
:1045600043EB030313F4801F08BF013DF7D043EA78
:104570000603704794EA0C0F0CEA135518BF95EA2E
:104580000C0F0CD050EA410618BF52EA4306D1D1B5
:1045900081EA030101F000414FF0000070BD50EAD4
:1045A000410606BF1046194652EA430619D094EA5E
:1045B0000C0F02D150EA013613D195EA0C0F05D148
:1045C00052EA03361CBF104619460AD181EA03019C
:1045D00001F0004141F0FE4141F470014FF0000054
:1045E00070BD41F0FE4141F4780170BD70B54FF0EF
:1045F000FF0C4CF4E06C1CEA11541DBF1CEA13556F
:1046000094EA0C0F95EA0C0F00F0A7F8A4EB050450
:1046100081EA030E52EA03354FEA013100F0888047
:104620004FEA03334FF0805545EA131343EA126310
:104630004FEA022245EA111545EA10654FEA0026C5
:104640000EF000419D4208BF964244F1FD0404F57E
:10465000407402D25B084FEA3202B61A65EB0305DA
:104660005B084FEA32024FF480104FF4002CB6EB97
:10467000020E75EB030E22BFB61A754640EA0C0017
:104680005B084FEA3202B6EB020E75EB030E22BF57
:10469000B61A754640EA5C005B084FEA3202B6EB98
:1046A000020E75EB030E22BFB61A754640EA9C0057
:1046B0005B084FEA3202B6EB020E75EB030E22BF27
:1046C000B61A754640EADC0055EA060E18D04FEAE5
:1046D000051545EA16754FEA06164FEAC30343EA85
:1046E00052734FEAC2025FEA1C1CC0D111F4801F52
:1046F0000BD141EA00014FF000004FF0004CB6E74B
:1047000011F4801F04BF01430020B4F1FD0C88BFE9
:10471000BCF5E06F3FF6AFAEB5EB030C04BFB6EBF4
:10472000020C5FEA500C50F1000041EB045170BDE7
:104730000EF0004E4EEA113114EB5C04C2BFD4EB14
:104740000C0541EA045170BD41F480114FF0000E98
:10475000013C90E645EA060E8DE60CEA135594EA14
:104760000C0F08BF95EA0C0F3FF43BAF94EA0C0F17
:104770000AD150EA01347FF434AF95EA0C0F7FF48C
:1047800025AF104619462CE795EA0C0F06D152EAE0
:1047900003353FF4FDAE1046194622E750EA4106C4
:1047A00018BF52EA43067FF4C5AE50EA41047FF4D5
:1047B0000DAF52EA43057FF4EBAE12E74FF0FF3C3A
:1047C00006E000BF4FF0010C02E000BF4FF0010C0B
:1047D0004DF804CD4FEA410C7FEA6C5C4FEA430C84
:1047E00018BF7FEA6C5C1BD001B050EA410C0CBFD3
:1047F00052EA430C91EA030F02BF90EA020F002035
:10480000704710F1000F91EA030F58BF994208BF9B
:1048100090422CBFD8176FEAE37040F00100704758
:104820004FEA410C7FEA6C5C02D150EA013C07D1AF
:104830004FEA430C7FEA6C5CD6D152EA033CD3D0FA
:104840005DF8040B704700BF8446104662468C46F4
:104850001946634600E000BF01B5FFF7B7FF002827
:1048600048BF10F1000F01BD4DF808EDFFF7F4FF50
:104870000CBF012000205DF808FB00BF4DF808EDDB
:10488000FFF7EAFF34BF012000205DF808FB00BFFE
:104890004DF808EDFFF7E0FF94BF012000205DF820
:1048A00008FB00BF4DF808EDFFF7CEFF94BF0120D5
:1048B00000205DF808FB00BF4DF808EDFFF7C4FFCE
:1048C00034BF012000205DF808FB00BF4FEA410221
:1048D00012F5001215D211D56FF47873B3EB625252
:1048E00012D94FEAC12343F0004343EA505311F079
:1048F000004F23FA02F018BF404270474FF000000B
:10490000704750EA013005D111F0004008BF6FF048
:10491000004070474FF00000704700BF4A0011D2BE
:1049200012F5001211D20DD56FF47873B3EB625209
:104930000ED44FEAC12343F0004343EA505323FA15
:1049400002F070474FF00000704750EA013002D18A
:104950004FF0FF3070474FF00000704707EE900AAD
:10496000F5EEC07AF1EE10FA01D400F00BB8F1EEDA
:10497000677A08B517EE900A00F004F8404261EB40
:10498000410108BDD0B5FFF7AFFC0C4B0022064635
:104990000F46FFF701FDFFF7C1FF0446FFF782FC5A
:1049A000074B0022FFF7F8FC02460B46304639461B
:1049B000FFF73AFBFFF7B2FF2146D0BD0000F03D04
:1049C0000000F041D0B50C4B002206460F46FFF721
:1049D000E3FCFFF7A3FF0446FFF764FC074B00224C
:1049E000FFF7DAFC02460B4630463946FFF71CFB60
:1049F000FFF794FF2146D0BD0000F03D0000F041DC
:104A000010F8012B11F8013B012A28BF9A42F7D078
:104A1000D01A7047034613F8012B002AFBD1181A4D
:104A20000138704738B50022002304460D46FFF7D1
:104A300025FF28B920462946BDE83840FFF7C2BF08
:104A4000204605F10041FFF7BDFF404261EB410107
:104A500038BD00BF09480A49884208B505D0094A4F
:104A6000824202D0121A06F0BAFD0748074A002116
:104A7000121A06F0DCFD014808BD00BF2CD103204E
:104A800040EB0B0058D3032058D30320F0E703205A
:104A900070B5074E074C05F04DFAA41BA40800257D
:104AA000AC4200D170BD56F8043B98470135F7E79A
:104AB000ECEA0B001CEB0B0002F0BEB808B502F0EC
:104AC0005FF9BDE8084005F0EDB903F077BA03F0EF
:104AD00075BA03F07BBA0078B0FA80F040097047ED
:104AE000012303707047002210B504461046A15CF4
:104AF000A1F13003092B0BD8A0F13003032A01EBFD
:104B0000030002F1010218BF0001042AEFD110BD19
:104B1000A1F14103052B02D8A0F13703EEE7A1F183
:104B20006103052B02D8A0F15703E7E70020EEE769
:104B30002DE9F84F0A688B6880465D1CD018D35C5D
:104B4000222B8A46154440F0DD804C682F46002316
:104B5000B91AA14280F0D680397822290ED1C3F14A
:104B60000103381ADAF810201844904783460028C9
:104B700000F0C880DFF8989104460FE05C2905D169
:104B80000137B91A8C4240F2BD8001330137DFE7AB
:104B90002B785C2B12D004F8013B0135BD42F7D3D2
:104BA000002323701023C8E9033BDAF80030FB1A16
:104BB0000133CAF808300120BDE8F88F7A1B002ABB
:104BC0000DDD6B78752B0AD86D2B12D8622B2BD08C
:104BD00026D82F2B29D05C2B27D0222B25D0DAF8F2
:104BE000143058469847DAF80000281ACAF8080026
:104BF0008BE06E3B072BF2D801A151F823F000BFE8
:104C0000354C0B00DF4B0B00DF4B0B00DF4B0B0079
:104C1000394C0B00DF4B0B003D4C0B00414C0B00A3
:104C2000662BDCD10C2300E0082304F8013B0223AF
:104C30001D44B3E70A23F8E70D23F6E70923F4E759
:104C4000052ACCDDA81CFFF74EFFA0F55C43B3F5A9
:104C5000806F0646C3D3A0F55843B3F5806F2DD2BD
:104C6000AB1DFB1A052BBADDAB795C2BB7D1EB7909
:104C7000752BB4D105F10800FFF735FFA0F55C43B3
:104C8000B3F5806FABD209EA8626C0F30900304342
:104C900000F580360C234FF0F00C042000F1FF3EAD
:104CA00054FA8EFEA645F2B224D1012814BF4CEA74
:104CB000020202F07F0222700444B9E77F280AD979
:104CC000B0F5006F0CD3B0F5803F0ED3B0F5881F60
:104CD00085D20623DFE706234FF0000C0120DDE735
:104CE00006234FF0C00C0220D8E706234FF0E00C5B
:104CF0000320D3E702F03F0262F07F010EF80119B2
:104D0000B609CFE7002D7FF46EAF002054E700BF57
:104D100000FC0F0010B540B1016871B142688368B2
:104D2000934206D2CC5C202C00D910BD01338360A5
:104D3000F5E7FAD1013A8260F7E70846F5E710B1E6
:104D4000806800B101B9704700680139F9E738B5EA
:104D5000044638B1006828B1A5682844FFF75AFE18
:104D60002844A06038BD70B50446B8B1056865B187
:104D7000436813B18268934210D900290EDBA26800
:104D80004E1C1644B34202D31544284670BD236915
:104D900023B9B6F1804F03D3002E0FDA0025F4E7D4
:104DA0007600236A6BB12846314698470546B0B96C
:104DB000E36920689847C4E90055E6E76FF00046CC
:104DC000EFE7A3693046984705460028F0D0A2686F
:104DD0002168013206F003FCE36920689847A36864
:104DE000C4E900561D44D0E7F8B50D460446002836
:104DF00034D0002931D08468FAB9194E74B3236ACB
:104E0000C3B1AB4221D005F1FF3C013B1CF8011FAF
:104E10008A5D02F00302012A13F8012FB05C00F052
:104E200003000F4608BF01F12007012808BF203208
:104E300097420FD02468E1E724687CB1216A21B150
:104E40002846FFF7DDFD0028F6D1236A002B08BFB6
:104E5000002403E00029D9D1F7E70C462046F8BD2D
:104E60004FE60B0061B160B1836813B98160012026
:104E700070471A461B68002BFBD111604A60F6E7A9
:104E8000084670472DE9F84F0646084611B900203C
:104E9000BDE8F88F36B3444F31464FF0000A012485
:104EA0000D4611F8013B3BBBAD1B5544E91CFFF718
:104EB0005AFF07460028EAD04FF0220B441C05F1A8
:104EC000010905F1020880F800B0BAF1000F29D1FC
:104ED0002A463146204606F082FB07F809B007F85B
:104EE00008A007E00321FFF73EFF0028CFD02F499D
:104EF00006F0E3FB0120CBE7222B0BD8072B0CD9C4
:104F0000A3F10802D2B204FA02F23A4205D00AF141
:104F1000010AC5E75C2BC3D1F9E71F2B98BF0AF143
:104F2000050ABDE7DFF888B0013E5C254FF0740A42
:104F300016F8013F2BB9222207F8092007F808309C
:104F4000D8E71F2B07D9222B05D05C2B03D0237069
:104F50002046441CECE7204600F8015B32780D2A1D
:104F60000AD8072A1AD9A2F10803052B16D8DFE8B8
:104F700003F009120E150C10222A01D05C2A0DD163
:104F80006270E6E762236370E3E76623FBE76E2364
:104F9000F9E77223F7E784F801A0DAE7594603F04E
:104FA00025F8601DD5E700BF37000004B0D80B001E
:104FB000B3D80B0037B5054680B1FFF72BFD084B82
:104FC000421C1B68019210469847044618B1019A8A
:104FD000294606F004FB204603B030BD0446FAE73C
:104FE0002CD10320F8B50D4614460746F0B1E9B1BF
:104FF000E2B193B1D66846F40076E3689B0504D429
:10500000206A10B10A4B5B6898472562E66021462A
:105010003846BDE8F840FFF725BF0846FFF7CAFF4E
:10502000054618B1E66826F40076E6E70020F8BDEC
:105030002CD103202DE9F0430C468DB0064608B96B
:1050400000255DE00029FBD0057B102D00F0C1801C
:1050500018DC6B1E072BF3D8072BF1D801A252F8EE
:1050600023F000BFEF500B0009510B0041500B0023
:10507000D9500B0041500B0041500B0041500B0028
:1050800019510B00402D00F0D380802D00F08D8051
:10509000202DD5D1866801212046FFF764FE002827
:1050A000CED05B230370A3680133A360E3680133B0
:1050B000E3602C274FF00008002E40F09080022182
:1050C0002046FFF750FE0028BAD05D2303704670DB
:1050D000E368013BE36008E005212046FFF743FE5B
:1050E0000028ADD0A14906F0E8FA012508E0062124
:1050F0002046FFF738FE0028A2D09D4906F0DDFAD1
:1051000028460DB0BDE8F08305212046FFF72BFEB1
:10511000002895D09749E6E7D0E9066700220023EA
:1051200030463946FFF738F900220023FFF79CFB91
:10513000B0B98E4905A806F0C0FA0425691C2046BE
:10514000FFF711FE00283FF47BAF024605AB46197E
:10515000964225D100234355A0682844A060C4E7A7
:10516000854932463B4605A802F040FF8349054683
:1051700002AA05A802F04AFF012806D1DDE90223B0
:1051800030463946FFF770FB30B97D4932463B4621
:1051900005A802F02BFF0546192D3FF651AFCDE7CC
:1051A00013F8011B11700132D2E7006900283FF4A7
:1051B00047AFFFF72FFC421C114620460192FFF734
:1051C000D2FD00283FF43CAF019A316906F007FA9E
:1051D0008BE700690DB0BDE8F043FFF753BE2146F1
:1051E0003046FFF727FF00283FF42AAF2046FFF79D
:1051F000AEFD3368BBB16369002B14BF4FF00209E9
:105200004FF0010909F101012046FFF7ACFD00282C
:105210003FF416AF077063693BB9431C83F8008005
:10522000A3684B44A360366846E7831C4570F5E7E6
:105230004B698568002B14BF02270127791C204683
:10524000FFF791FD00283FF4FBAE7B230370E2687B
:1052500063690132E2600BB10A234370A3683B44E7
:10526000A36009263A27636995B9002B70D0E168DD
:1052700001312046FFF777FD00283FF4E1AE636976
:10528000002B6FD103467D221A7000225A701FE74F
:1052900073B1E1682046FFF766FD00283FF4D0AE09
:1052A0000246E168131A99424FD8A3680B44A360E1
:1052B000286A2146FFF7E6FD00283FF4C1AE2046EC
:1052C000FFF745FD6369002B14BF4FF002084FF054
:1052D000010841462046FFF746FD00283FF4B0AEE6
:1052E0000770636903B14670A3684344A360214615
:1052F0002846FFF79FFE00283FF4A2AE2046FFF7A6
:1053000026FD2B686269B3F1000818BF4FF0010851
:10531000002A18BF08F1010808F101012046FFF733
:1053200022FD00283FF48CAE2B6813B12C2300F82B
:10533000013B636913B10A2300F8013B00230370AA
:10534000A3684344A3602D688DE702F8016BA8E7CA
:1053500002218EE703F8015BE268191A013A9142D3
:10536000F8D390E703460925F6E700BFB9D80B004C
:1053700069E10B00BED80B00C3D80B00CAD80B00E4
:10538000CED80B0070B5234D8AB00E4624220021E2
:10539000044601A806F04BF92B684FF4807098473B
:1053A0004FF4807203460190029295E8070006963A
:1053B0000AAE06E907007BB101A92046FFF73AFED5
:1053C00050B101A8FFF7C3FCAE6803995EB1019824
:1053D0000131B0470446D0B9019CC4B120466B6886
:1053E0009847002413E02B68481C9847044600287F
:1053F000F2D0039A029B019901329A4228BF1A46C1
:1054000006F0EDF8039BE65401986B689847204638
:105410000AB070BD2CD1032010B503462820984750
:10542000044618B12822002106F001F9204610BDDB
:1054300070B5104D044604B970BDE3682668D905FF
:1054400003D4A06868B9206988B9E3689B0503D4D0
:10545000206A08B16B68984720466B6898473446C5
:10546000E9E7FFF7E5FFE368DA05ECD5EDE76B6800
:105470009847EAE72CD103202DE9F047064692B081
:105480000C4609B9002023E00F68002FFAD08D6880
:10549000D1F8048005F10409C1450BD890490422D4
:1054A000781906F030F928B90423F360A3680433AF
:1054B000A36082E06B1D98450DD38A4905227819B7
:1054C00006F021F938B90120F060A2680532A26027
:1054D00012B0BDE8F087C1450CD883490422781981
:1054E00006F011F930B902230120F3607061A2685F
:1054F0000432ECE74545C5D27B5D222B07EB050066
:1055000006D12146304612B0BDE8F047FFF710BB88
:105510002D2B03D0A3F13002092A63D8002302AA5D
:105520000193A8EB050517464FF02E0E10F8011B4E
:10553000392910D82A291BD9A1F12B0CBCF10E0F47
:1055400016D8DFE80CF00D150D3C150D0D0D0D0DE9
:105550000D0D0D0D0D0001F0DF0CBCF1450F07D155
:10556000117001333F2B02F1010201D0AB42DDD1BA
:1055700012AA1344002503F8405C01A9384606F03E
:105580002DFFDDF804A0BA4559EC108B3FF47AAF3B
:1055900086ED060B50A3D3E9002310EE100A49460E
:1055A000FFF780F970B16FF0004373610823F36077
:1055B000AAEB070AA7685744A760012088E782F88A
:1055C00000E0CEE7494B002240464946FFF760F92C
:1055D00010B14FF00043E8E740464946FFF776F93F
:1055E0007061E3E75B2B50D1E368B3F57A7FBFF4DA
:1055F00049AF0133E3607B5D5B2B7FF443AF013543
:10560000A5602046FFF786FBD4E9012393425DD2D3
:105610002268D25C5D2A09D10027E368013BE36080
:105620002023C6E90273A368013341E7013B00254B
:10563000A3602F462069FFF7EFFEA8460546002825
:1056400000F09B80FFB1C8F80000C0F80480A36898
:105650000133A3602046FFF75DFB21462846FFF794
:105660000BFF002800F08C802046FFF753FBD4E9A5
:105670000123934280F084802268D35C2C2BD9D004
:105680005D2B7DD1C9E70746E1E77B2B7FF4FAAEBE
:10569000E368B3F57A7FBFF4F5AE0133E3607B5D79
:1056A0007B2B7FF4EFAE0135A5602046FFF732FB80
:1056B000D4E90123934209D22268D25C7D2A17D112
:1056C0000027E368013BE3604023AAE7013BA360B6
:1056D000D8E600BFAFF300800000C0FFFFFFDF414E
:1056E000B9D80B0069E10B00BED80B000000E0C187
:1056F0000025013BA3602F46A8462069FFF78CFEDA
:10570000A9460546002838D0AFB3C9F80000C0F854
:105710000490A3680133A3602046FFF7FBFA2146FB
:105720002846FFF705FA58B32046FFF7F3FA2B692E
:105730002B62C5F81080D4E90123934220D222685D
:10574000D25C3A2A1CD10133A3602046FFF7E2FA6B
:1057500021462846FFF790FE90B12046FFF7DAFA7F
:10576000D4E9012393420BD22268D35C2C2BC4D002
:105770007D2B05D1A5E70746CBE7002F3FF482AE8E
:105780003846FFF755FE7DE62DE9F043304F89B0EE
:1057900005460E46904600211C2201A84FF0000944
:1057A00005F045FFC7E90099002D48D0284601952E
:1057B000FFF730F9274B0130029093E8070008AB60
:1057C00003E90700FFF728FE044668B3019870B1AB
:1057D000039B5BB9029B042B06D91F49032205F0EA
:1057E00092FF08B90323039301A800E04846FFF79E
:1057F00091FA01462046FFF73FFE90B1B8F1000F45
:1058000004D1F6B9204609B0BDE8F08301A8FFF73E
:1058100081FADDE90223934203D2019AD35C002B83
:10582000EFD02046FFF704FEDDE902329A420DD3A5
:1058300003B1013B0EB1EA183260C7E900530024FE
:10584000E0E7019B039A13443360DBE71346F1E77B
:1058500058D303202CD10320D5D80B0000221146A9
:10586000FFF792BF0021FFF78DBD10B183680020C4
:1058700003B970471B680130FAE7002901DBFFF725
:105880005EBA002070470122FFF7AEBAFFF7EABA0E
:1058900010B5D0B1C2B1C9B18A4213D00B68136040
:1058A0004C68546003B15A60536803B11A6083684E
:1058B00099424FF0000308BF8260C1E900330846F7
:1058C000FFF7B6FD012000E0104610BD0846FCE7DA
:1058D00008B5044B1868FFF79FFD08B10423C360A7
:1058E00008BD00BF2CD1032037B505460191FFF755
:1058F000EFFF01990246044600232846FFF772FB9A
:10590000054618B92046FFF793FD2C46204603B004
:1059100030BD000008B5044B1868FFF77DFD08B1E5
:105920002023C36008BD00BF2CD1032008B5044B61
:105930001868FFF771FD08B14023C36008BD00BFC0
:105940002CD1032018B1007BB0FA80F040097047D9
:1059500020B1C06810F0030018BF0120704718B1D3
:10596000007B031F58425841704720B1007BA0F1D3
:10597000080358425841704720B1007BA0F1100342
:1059800058425841704720B1007BA0F12003584293
:105990005841704720B1007BA0F140035842584164
:1059A00070470000014B5B68184700BF2CD10320F3
:1059B000F8B506460D461F461446DAB1D1B1D36894
:1059C0009B0503D4106A08B1FFF7ECFF2846FFF7E8
:1059D000F1FAE368206223F400733A462946E36053
:1059E0003046FFF701FA224601463046BDE8F8404E
:1059F000FFF74EBFF8BD0123FFF7DABF08B5044B30
:105A000001221A7001F0C4FF024B186008BD00BFEC
:105A10007DD30320E8DC032008B501F0B9FF0C4971
:105A20000B68C31A642B11D90A4AB2FBF3F30A4A72
:105A300008601360094B1978094B1A6852F8213035
:105A4000013342F82130074B01221A7008BD00BF14
:105A50002CD4032080EE360094D40320A4D4032059
:105A60009CE1032082D30320436913B183690C3086
:105A70001847704713B500210446084602F05AF84B
:105A80000023204601A9019302F06CF8019C0CB19F
:105A9000012323710021012002F04CF82CB123686E
:105AA00020469B6898470023237102B010BD012A4D
:105AB00002D1016000207047022A04BF0B68036016
:105AC000F8E70368184707B5806830B10023CDE9CF
:105AD00000131A46022102F04DF803B05DF804FBF2
:105AE00030B5054685B00C4611460392FFF7EBFF33
:105AF000A86830B10023CDE90043039A194602F0AB
:105B000039F805B030BD00002DE9F34104F03AF951
:105B1000264FDFF89C80387004F040F9C6B204F0DC
:105B200049F9054604F052F96FF000410446404639
:105B3000FFF7C9FFD8F8080078B16FF00041EDB267
:105B40000022CDE90012C6F13C034EF66021ED4380
:105B500001FB0353032102F00DF8154800226FF0FA
:105B60000041FFF7BDFF3B780D2B14D1114A11689E
:105B7000E4B2A14203D014600F4A012111703EB972
:105B80000E4A11688B421FBF13600D4B01221A7021
:105B900002B0BDE8F081002BF1D10A4A1168E4B2ED
:105BA000A142ECD01460084AE7E700BFA4D4032068
:105BB00080E1032068D103207CD3032070D103202F
:105BC00083D303206CD103207ED303200EB403B50E
:105BD00003AB002153F8042B019303F016FF02B02E
:105BE0005DF804EB03B070472DE9FF470546084612
:105BF0000C46FEF70FFF2946064601A805F05DFD9D
:105C000004F052FD3C493D4D03F0CDFE3C4901A856
:105C100006F0F0FB05F0CBFC214605EB402005F03B
:105C20003DFDB6F5007F14D204F03EFD3549364FF8
:105C30002A46FFF7CBFF3549284606F0DBFB0FF27B
:105C4000A009D9E900890024002628B9304B012297
:105C50001A7004B0BDE8F087062CDFF8B8A04FEA50
:105C6000C40519DC05F0A0FCDAF80030324651EC2E
:105C7000100B1D443B46FEF7B9FC1BA3D3E90023E0
:105C8000FEF7D4F90134C5E900012049002006F0EF
:105C9000B1FB182CD9D1D9E7A4F11103042B0DD8ED
:105CA00005F082FCDAF80030324651EC100B1D444E
:105CB0003B46FEF79BFC42464B46E1E705F074FC91
:105CC000DAF80030324651EC100B1D443B46FEF72B
:105CD0008DFC07A3D3E90023D2E700BFAFF3008018
:105CE00004560E2DB29DFE3F44FAEDEBC039CB3F7A
:105CF000EFC9C342AD69E43FD9D80B007CDD032076
:105D0000E9D80B00F1D80B0000408F40F5D80B000C
:105D100061D303209CD403200EB403B503AB01214F
:105D200053F8042B019303F070FE02B05DF804EB0E
:105D300003B0704710B58368044613B103220146CF
:105D40009847204610BD000038B50F4B03608368AC
:105D500004469BB16FF00041FFF7B5FEA06800213B
:105D600001F028FF237903F0FF0513B101F0DAFEFB
:105D7000F8E7A068294601F0EDFEA56004F10C00EB
:105D8000FFF7D8FF204638BD34DE0B0010B50446BF
:105D9000FFF7DAFF20461C21FEF79BFE204610BDD0
:105DA00070B590B002F024FF022102F072FF02F001
:105DB0001FFF02F067FF02F01BFF3E4A3E4C014608
:105DC0000BA803F09FFC0BA803F017F802F010FFDC
:105DD0003A4A01460BA803F095FC0BA803F00DF816
:105DE00002F006FF364A01460BA803F08BFC0BA815
:105DF00003F003F802F0FCFE324A01460BA803F060
:105E000081FC0BA802F0F9FF02F0F2FE2E4A0146D7
:105E10000BA803F077FC0BA802F0EFFF02F0E8FEFE
:105E20002A4A01460BA803F06DFC0BA802F0E5FF1F
:105E300003A803F018F9264B03A8196803F026F904
:105E40000FCC06AD0FC506AD0FCD26680BAC0FC449
:105E50000BA8266002F0DAFC04460BA80CBB02F08B
:105E6000F1FC0094ADF80A0002230DF10A020321AF
:105E700003A803F0EDF802F0BBFE002203A902F034
:105E80004FFF04F011FC134903F08DFD02F0B0FE4A
:105E90001149002203F038FB039802F097F810B084
:105EA00070BD02F0D1FC00230093024610230721AD
:105EB000DEE700BF84D30320B0D3032074D30320D4
:105EC00064D303206CD303208CD3032094D303200A
:105ED0004CD10320F8D80B00FD590B000000000046
:105EE0002DE9F04F2DED028B9FED517B9BB0DFF83C
:105EF0006491019206460F468B464FF0000A4FF020
:105F00000008B0EE478AF0EE678A019B9A4516DAE0
:105F1000FBE8024553EC182B20462946FEF7CCFC43
:105F200008B145EC184B42464B4620462946FEF741
:105F3000A5FC08B1A046A9460AF1010AE5E74246D8
:105F40004B4651EC180BFEF76FF840A3D3E9002342
:105F5000FEF722FA42464B46FEF768F800258246D5
:105F60008B462C46019B9D4215DAF7E8020152460A
:105F70005B46FEF783FC60B11AAB03EB840343F886
:105F8000605C04F091FB22462B492B46FFF71EFE76
:105F900001340135E6E704F087FB53EC182B274961
:105FA000FFF714FE04F080FB254942464B46FFF7FD
:105FB0000DFE04F079FB2349FFF708FE6CB30023C4
:105FC0001D46371D1AAA02EB830252F8602C46F8D0
:105FD000352002AA02EB8300026850F8041F013941
:105FE0008A4203F10103F7D00132A34247F835207A
:105FF00005F101020FDDDFF860800024AC420CD017
:1060000004F052FB57F8343056F834204146FFF77D
:10601000DDFD0134F2E71546D4E70B4B01222046A3
:106020001A701BB0BDEC028BBDE8F08FAFF300809F
:1060300000000000000000001CD90B0034D90B0048
:1060400052D90B006FD90B0081D303203333333384
:106050003333D33F00408F40ADD90B00F0B51D491D
:106060001D481E4E1C4D1E4F85B002F080F90024C5
:1060700033680A2253F82410684602F08AF9694608
:10608000284602F0B0F9684602F0C8F8172C03D091
:106090003946284602F0ABF90134182CE8D11149F1
:1060A0000D4802F0A4F90C49684602F04DF9684623
:1060B00001F00AFC0446684602F0B0F83CB904F06E
:1060C000F3FA094905B0BDE8F04003F06CBC05B037
:1060D000F0BD00BFBBD90B00A0E103209CE1032071
:1060E000CAD90B00CCD90B00CFD90B00F0B589B0C1
:1060F000A049A14EA14FA24D04A802F0D9F904A9CC
:106100009F4802F02CF904A802F088F800243368B4
:1061100003EBC403D3E90023394604A802F0C8F90D
:1061200004A9284602F05FF904A802F077F8172CBA
:106130000AD0944904A802F0BBF904A9284602F049
:1061400052F904A802F06AF80134182CDFD18E4904
:106150008E4E8A4F8E4D04A802F0AAF904A98848F1
:1061600002F041F904A802F059F88A4904A802F0A3
:106170009FF904A9864802F0F2F804A802F04EF84C
:106180000024336803EBC403D3E90023394604A891
:1061900002F08EF904A9284602F025F904A802F0BD
:1061A0003DF8172C0AD0774904A802F081F904A918
:1061B000284602F018F904A802F030F80134182C2F
:1061C000DFD17149744E6D4F744D04A802F070F91F
:1061D00004A96F4802F007F904A802F01FF87049FB
:1061E00004A802F065F904A96C4802F0B8F804A804
:1061F00002F014F80024336803EBC403D3E900234E
:10620000394604A802F054F904A9284602F0EBF834
:1062100004A802F003F8172C0AD05A4904A802F087
:1062200047F904A9284602F0DEF804A801F0F6FFB9
:106230000134182CDFD154495A4E5B4F5B4D04A8F2
:1062400002F036F904A9554802F0CDF804A801F08F
:10625000E5FF574904A802F02BF904A9534802F0BE
:106260007EF804A801F0DAFF00243368394653F8B9
:10627000242004A802F01CF904A9284602F0B3F86F
:1062800004A801F0CBFF172C0AD03E4904A802F065
:106290000FF904A9284602F0A6F804A801F0BEFFF1
:1062A0000134182CE1D13849424E3F4F424D04A8E9
:1062B00002F0FEF804A93D4802F095F804A801F0A8
:1062C000ADFF3E4904A802F0F3F804A93A4802F0F1
:1062D00046F804A801F0A2FF00243368394653F8B9
:1062E000242004A802F0E4F804A9284602F07BF870
:1062F00004A801F093FF172C0AD0224904A802F049
:10630000D7F804A9284602F06EF804A801F086FF29
:106310000134182CE1D11C4904A802F0C9F804A9E1
:10632000254802F060F804A801F078FF2249684689
:1063300002F00AF8684601F0C7FAB0B11B4904A898
:1063400002F002F804A801F0D1FA044604A801F012
:1063500065FF684601F062FF4CB104F0A5F91849E9
:1063600009B0BDE8F04003F01EBB0124F1E709B01D
:10637000F0BD00BFEDD90B00A0D4032002DA0B0062
:106380000CDD0320CAD90B00CCD90B0098D4032014
:10639000ECDC032008DA0B009CD40320FCDC032097
:1063A00019DA0B00B0E10320CCE00B00B4E10320CC
:1063B0002DDA0B009CE10320A0E1032040DA0B0062
:1063C0004FDA0B002DE9FF4129492A4FDFF8B88049
:1063D000294E0546684602F06BF86946264801F0EA
:1063E000BEFF684601F01AFF00243B68414653F89F
:1063F0002420684602F05CF86946304601F0F3FF5D
:10640000684601F00BFF172C0AD01C49684602F0C1
:106410004FF86946304601F0E6FF684601F0FEFE9F
:106420000134182CE1D11649684602F041F869465A
:10643000114801F0D8FF684601F0F0FE0E496846A9
:1064400001F082FF684601F03FFA0446684601F019
:10645000E5FE24B904F028F90A4903F0A4FA064934
:10646000284601F071FF284604B0BDE8F08100BF66
:1064700040DA0B009CE10320A0E10320CAD90B0005
:10648000CCD90B00CFD90B00CCE00B002DE9F843A1
:10649000C02001F093FD384D286028B904F004F9BC
:1064A0003649FFF793FBFEE7C02001F087FD344C2F
:1064B000206028B904F0F8F83249FFF787FBFEE7BF
:1064C000C02001F07BFD304E306028B904F0ECF8BC
:1064D0002E49FFF77BFBFEE704F0E6F82C49DFF8D6
:1064E000C4804FF41072FFF771FB602001F066FD6D
:1064F000C8F8000028B904F0D7F82649FFF766FB72
:10650000FEE7602001F05AFDDFF89C90C9F800001A
:1065100028B904F0C9F82049FFF758FBFEE704F05A
:10652000C3F81E49C022FFF751FB04F0BDF807462F
:1065300001F004FE1A4902463846FFF747FB286877
:10654000C022002105F073F82068C022002105F068
:106550006EF83068C022002105F069F8D8F8000014
:106560006022002105F063F8D9F800006022BDE840
:10657000F843002105F05BB8A0D403206ADA0B00D1
:1065800098D4032098DA0B009CD40320C2DA0B00C5
:10659000EFDA0B0021DB0B0049DB0B0075DB0B0096
:1065A000A0DB0B009CE10320B0E1032008B50C4AFE
:1065B0000C4B1168186819600B4B19681160C022E8
:1065C0000021186005F033F8084A094B1068196873
:1065D00011601860BDE808406022002105F027B86E
:1065E00098D40320A0D403209CD40320B0E103203E
:1065F0009CE1032038B5046805467CB16368013B23
:1066000063605BB9236820469B689847A368013B99
:10661000A3601BB923682046DB689847284638BD2D
:106620002DE9F0418AB005460E4604F03DF81849C0
:10663000184FFFF7CBFA184902A801F03AFE0024E0
:1066400005F10408B44210DA58F8343055F8342013
:10665000394606A801F02CFF06A902A801F0C3FEE6
:1066600006A801F0DBFD0134ECE70C4B029A1B7825
:106670000B498DF8003006A83C2303F0B9FD07A8AC
:10668000FFF7B8FF02A801F0C9FD0AB0BDE8F0812C
:10669000ABDB0B00D2DB0B00B4DB0B0028D40320F8
:1066A000E1DB0B0082B0F0B58FB015AD1593002380
:1066B000C0E90033064694460F460FCD04AC0FC424
:1066C0002B6823601AAD0FCD09AC0FC42B68236073
:1066D000209B02931F9B019309AB0093304604ABB0
:1066E0006246394602F0B6FE30460FB0BDE8F040D3
:1066F00002B070472DE9F04F904B914DDFF8DCB2BE
:10670000DFF8DCA2DFF8DC924FF0010883F80080AC
:106710008C4B93B01968284602F016F98A4B5846FC
:10672000196802F011F9894B5046196802F00CF90A
:10673000874B4846196802F007F9864B8648196866
:1067400002F002F9854B8648196802F0FDF8854B86
:1067500085481968002402F0F7F8CDE909442E466F
:106760000FCE10270DEB070CACE80F003368CCF808
:1067700000300BF104030FCB8DE80F00DBF8003085
:106780007A497B483A46FFF78DFFCDE90944AE468A
:10679000BEE80F000DEB070CACE80F003368CCF837
:1067A00000300AF104030FCB8DE80F00DAF8003057
:1067B000704971483A46FFF775FFCDE90944AE4686
:1067C000BEE80F000DEB070CACE80F003368CCF807
:1067D000003009F104030FCB8DE80F00D9F8003029
:1067E000664967483A46FFF75DFFCDE90944AE4682
:1067F000BEE80F000DEB070CACE80F003368CCF8D7
:106800000030554B04330FCB8DE80F00524B5D49E0
:106810001B685D483A46FFF745FFCDE90944AE469F
:10682000BEE80F000DEB070CACE80F003368CCF8A6
:1068300000304B4B04330FCB8DE80F00484B5349CE
:106840001B6853483A46FFF72DFFCDE909440FCDA9
:106850000DEB070CACE80F00434D3368CCF800306B
:106860002B1D0FCB8DE80F004A4E2B684A494B4D2C
:106870004B483A46FFF716FF4A4800F075FB294699
:10688000304601F016FDF01903F058FE294606F1D6
:10689000280001F00EFD294606F13C0001F009FD3B
:1068A0002946414801F005FD03F06CFA3F4B2946AB
:1068B00018703F4801F0FDFC29463E4801F0F9FC04
:1068C00029463D4801F0F5FC29463C4801F0F1FC21
:1068D00029463B4801F0EDFC3A4B0E930EAD3A4B86
:1068E0003A4A1A6095E8030003F10C020CAE86E800
:1068F000030092E8030085E8030096E8030082E8BD
:106900000300334A5A619A691192324A9A611C71A2
:106910009C60314A10944EF6602103F10800CDE9E5
:10692000008401F00FF92846FFF704FA214640469B
:1069300013B0BDE8F04F01F075BA00BF28D40320B2
:10694000B0D3032074D1032078D1032040D1032099
:1069500038D103203CD10320ECD3032044D10320C1
:10696000D8D3032048D1032014D40320F1DB0B003B
:1069700084D30320FADB0B0074D3032008DC0B0064
:1069800064D3032012DC0B006CD303201FDC0B004C
:106990008CD303201CDD032029DC0B009DDF0B00C2
:1069A00094D30320A8D403206CDD0320A4D40320B7
:1069B000ECDC0320FCDC03200CDD0320A0E1032041
:1069C000B4E10320095B0B0080E1032034DE0B00FF
:1069D000AF5A0B00C35A0B00755A0B009CD303200F
:1069E00000D40320C4D303202DE9F04F99B07E4991
:1069F0007E4D044610A801F05CFC03F0FBF9039007
:106A000003F0F0F9039A7A490094034614A801F0C0
:106A10004FFD14A910A801F0E6FC14A801F0FEFB3C
:106A20007449754C10A801F0E2FC7449284601F045
:106A30009EFC50231099AB6305F1280001F097FCF0
:106A40006F4B00936F48704B2246294600F0C2FA04
:106A50002368C82B26D103F027FE6C4902F0A3FF60
:106A600003F022FE616802F09EFF221D684904A81F
:106A700000F0E0FB664904AA14A800F0E2FB6549B7
:106A800014A801F0C5FC044614A801F0C7FBB4B17A
:106A900003F00AFE604902F086FF002404A800F01B
:106AA000DFFB05E003F000FE5C4902F07CFF002400
:106AB00010A801F0B3FB204619B0BDE8F08F58498B
:106AC00004A800F00DFC002870D0554A04A907A8BE
:106AD00000F08CFC03F0E8FD2246054607A914A847
:106AE00000F0A4FC14A9284602F067FF14A800F0E7
:106AF000B7FB37A7D7E900670FF2DC09D9E90089AE
:106B0000224607A90AA800F091FC464A0AA90DA846
:106B100000F06CFC0DAA3E4914A800F092FB3D4920
:106B200014A801F075FC054614A801F077FB0DA828
:106B300000F096FB5DB103F0B7FD3B4902F033FF77
:106B40000AA800F08DFB07A800F08AFBA5E7354AEC
:106B5000364D0AA914A800F049FC14A800F0ACFBBB
:106B60002B6851EC100B03EBC40A0022304BFDF7ED
:106B70003DFDCAE9000114A800F072FB2B684FEA42
:106B8000C40B062C9B4415DC15A3D3E90023DBE9D9
:106B90000001FDF74BFA0134CBE900010AA800F02F
:106BA0005FFB182CACD107A800F05AFB214B012445
:106BB0001C7073E7A4F11103042BDBE9000199BFFA
:106BC00042464B4632463B46E3E700BFAFF3008008
:106BD000EFC9C342AD69E43F04560E2DB29DFE3F9E
:106BE00044FAEDEBC039CB3F37DC0B001CDD032052
:106BF0007DDC0B008ADC0B0068DD0320D8DC0B0099
:106C0000F1DC0B00A8D4032050D10320F5DC0B00ED
:106C1000C4E103200FDD0B0026DD0B0019DD0B00A6
:106C20003CDD0B0044DD0B0051DD0B009CD4032048
:106C300000408F4061D3032030B5414B01228FB01B
:106C40001A7001F08BF910B901F080F9F9E701F041
:106C500085F9002001F09AF9FFF7A2F8FFF716FC7A
:106C6000B7EE000A02F058FF03F08CF8354B3649B6
:106C700018700024354800F0ABFD35493548012334
:106C80002246CDE9004401F079F903F00DFD0546F7
:106C900003F078F8039003F081F8039A2E49034635
:106CA0002846FEF793FF22466FF000412B48FEF77F
:106CB00017FF03F0F9FC2A49054605A804F078F906
:106CC00005A804F051F9274902462846FFF724F8A1
:106CD00003F0EAFC2449254DFEF778FF03F076F82F
:106CE0000138FFF781FEFFF761FC03F0DDFC20496E
:106CF000FEF76CFF03F06AF8FFF776FEFFF756FC2D
:106D000003F040F80C2812DD1A4B2C7001221A7087
:106D10000321082004F078FA0023009316494FF06D
:106D2000FF330122082003F0E7FC0FB030BD03F071
:106D3000BBFC12490D22FEF749FF01232B70E7E748
:106D400080D30320A4D40320B4E10320A0E10320D6
:106D5000E95B0B0062DD0B0069DD0B0080E10320C5
:106D600008E7032083DD0B008BDD0B0061D30320DC
:106D7000ADDD0B007CD30320195A0B00CBDD0B00DB
:106D800070B55B4C2378C6B04BB15A4B01221A70D8
:106D900003F01CF80130FFF727FE00232370564C48
:106DA000564D237833B3FFF7A1F9554B5548196871
:106DB0001822FFF795F8544B186003F075FC06464F
:106DC00002F0E0FF019002F0E9FF019A4F4903460B
:106DD0003046FEF7FBFE01232B70002323704A4B45
:106DE00048481968FFF71CFC494B01221A70002320
:106DF0002B7002E02B78002BF1D1464D2B7833B36A
:106E000003F052FC4449FEF7E1FE444B1E6802F0D9
:106E1000B9FF56F820304249013346F82030414B43
:106E200006A81A6801F0E2F80023FF2206A93E48EE
:106E300001F0C8FD02A8FFF7C5FA002202A93B48ED
:106E400001F020FE02A801F0E9F900232B70384D73
:106E50002B782BB1FFF7AAFB00232B7001232370A3
:106E6000344C23781BB1FFF7F9F800232370324C20
:106E7000257800F08DFD314B1B68C01A40F6B83301
:106E800098422ED96DB3FFF731F9264B24491A6881
:106E900006A801F0ABF80023FF2206A9224801F062
:106EA00091FD27492748002201F0ECFD264927489B
:106EB000002201F0E7FD26492648002201F0E2FD0C
:106EC00025492648002201F0DDFD2549174800220A
:106ED00001F0D8FD0023237003F0E6FB2149FEF703
:106EE00075FE4FF47A7046B0BDE8704002F098BF6E
:106EF0007CD3032060D3032061D3032081D30320FC
:106F000098D4032030D4032090D4032069DD0B00F3
:106F10007FD3032082D30320FCDD0B009CE1032000
:106F200010DE0B0094D4032084D303208CD30320E1
:106F30007ED3032083D303207DD30320E8DC03200A
:106F40000CDD032074D30320ECDC032064D3032086
:106F5000FCDC03206CD30320B4E1032094D3032092
:106F6000A0E103201CDE0B0010B5044603F04AFF2D
:106F7000204610BD38B50446154602F0FBFC054915
:106F8000204602F0F7FC29462046BDE8384002F0D2
:106F90000ABD00BFCFDB0B0038B50546144602F032
:106FA000E9FC0B49284602F0E5FC002C0DDA2D2106
:106FB000284602F0E3FC614228460A2202F007FD5F
:106FC0002846BDE8384002F0E2BC2146F4E700BFA5
:106FD000CFDB0B002DE9F04F0E4691B098464FF0F5
:106FE000FF331360044600213046DDF868901746F1
:106FF00001F00EFAD6F838E0034698B9BEF1000F5A
:1070000014BF72465022316892B2204603F0FAFC57
:10701000051E18BF0125C5B9204611B0BDE8F04FC7
:1070200003F0A6BE754B0A9306F1140CBCE80F00E2
:107030000BAD0FC5DCF800302B701FFA8EF2002369
:107040000AA9204603F0BEFDE2E74946204602F0C9
:1070500091FC6B49204602F08DFCB16A204602F09B
:1070600089FC6849204602F085FC6749674A20464A
:10707000FFF780FF0021304601F0CAF920B93268DD
:1070800063492046FFF776FF06F13C0A002150468F
:1070900001F0BEF928B9726C5E492046FFF77CFF0B
:1070A00006E05D494846FDF7ABFC02460028F3D0F8
:1070B000B8F1000F0ED0D8F8001059B1D8F804205C
:1070C000204622B1FFF756FF08F10808F3E702F067
:1070D0006AFCF9E7204602F05AFC204603F016FC51
:1070E0000021504601F094F918B9F16B204602F0E6
:1070F0005AFC04F11C0A40F624020021504604F018
:1071000096FA00F045FC019000F042FC4FF00008B8
:10711000464641F2883B204603F0D0FDD8B12046D8
:1071200003F0DAFB814600F033FC40F622039E4276
:10713000019004D8A31983F81C900136EBE740F6C0
:1071400023039E42F9D1002384F83F38204603F000
:107150000FFEA846F1E7A319187700F019FC019B70
:10716000A0EB0309B8F1000F04D1D94502D8C8201B
:1071700002F056FE204603F0C3FC20B1D94502D8E8
:10718000B8F1000FC7D0204603F0F2FD514602A827
:1071900001F08FF80C23092202A906A801F05CF97E
:1071A0001E490AA801F085F80AA902A801F051F9C0
:1071B00004460AA801F032F8631C08D106A801F0C1
:1071C0002DF802A801F02AF811B0BDE8F08F3D1D9E
:1071D0001349284601F0CBF8221D02A90AA801F0A4
:1071E0005BF90AA9284601F0FEF80AA801F016F892
:1071F000069804F0DCF93860E0E700BF50E30B00CC
:10720000DFDB0B0072DF0B0084DF0B007EDF0B0087
:107210008FDF0B0040DE0B0094DF0B0099DF0B00CB
:107220009DDF0B00704710B504210446FDF751FCAB
:10723000204610BD10B51146044600F061F8204606
:1072400010BD10B51146044600F068F8204610BD88
:10725000014B024A1A607047C4E10320A8DF0B000B
:1072600010B5054B03600446406818B1A3680BB91C
:10727000FEF7DEF8204610BDE4DF0B0010B5044633
:10728000FFF7EEFF20460C21FDF723FC204610BD42
:1072900038B540680C4660B1FEF7E4FA0546014691
:1072A000204602F067FB04462846FEF77BFB20469B
:1072B00038BD0446FBE7000010B504464068FEF701
:1072C00054FB18B1636893ED060B10BD9FED020BE4
:1072D000FBE700BFAFF30080000000000000F87F74
:1072E00013B5044640680191FEF754FB30B1019993
:1072F0006068FEF7C8FA003818BF012002B010BD60
:1073000010B504460868FEF7A9FA034BC4E900303B
:107310000023A360204610BDE4DF0B0038B54D68A4
:1073200004462DB91849204600F0C3FF204638BD59
:107330002846FEF707FB0028F4D12846FEF708FB95
:1073400008B11249EFE72846FEF709FB08B11049DA
:10735000E9E72846FEF709FB08B10E49E3E72846AE
:10736000FEF70AFB08B10C49DDE72846FEF70BFBE8
:1073700008B10A49D7E72846FEF70CFB08B10849CF
:10738000D1E70849CFE700BF0FDD0B00B0DF0B00EE
:10739000B9D80B00B8DF0B00BFDF0B00C6DF0B0056
:1073A000CCDF0B00D3DF0B0038B5456841600446E5
:1073B000DDB18068A0B1FEF7EDFA30B16268296AEC
:1073C000A068BDE83840FEF716BBA068FEF7DBFA00
:1073D00058B16268A0682946BDE83840FEF758BA3F
:1073E0002846BDE83840FEF723B838BD70B50546DD
:1073F00048680C461646FEF7CDFA28B9FEF796FA0D
:1074000001462046FFF7D0FF60683146FEF73BFAA1
:1074100018B960683146FEF767FA034A6368AB60E3
:10742000C5E90020284670BDE4DF0B00F8B506462C
:1074300048680D461746FEF7A6FA28B9FEF76AFA1D
:1074400001462846FFF7B0FF68683946FEF715FA8F
:10745000044660B96868FEF708FAB84207DCFEF730
:1074600037FA044601466868FEF710FAF2E7034A65
:107470006B68B360C6E900243046F8BDE4DF0B005A
:10748000034B044A1A600022C3E90122704700BF7F
:10749000C8E10320E4DF0B0070B50446054600F5A3
:1074A0009266284605F5927500F015F8AE42F8D1BF
:1074B0000023C4F89034204670BD30B587B0044630
:1074C00001AD684603F05AF80FCD04340FC42B68A1
:1074D000237007B030BD38B500F5847504462846E2
:1074E00003F02CF800232846237084F80431C4F8F4
:1074F0000031C4F820314FF0FF31FFF7DEFF2046A6
:1075000038BD00000148FFF7C7BF00BFD4E103202A
:1075100073B5184840F2022105F064F8431C054693
:1075200010D103F0C1F8044600F098FD124902683A
:107530002046FEF7F1FB0024284605F043F82046DC
:1075400002B070BD002402220DF10601ADF8064024
:1075500005F066F801300AD103F0A6F8064600F0FF
:107560007DFD064902683046FEF7D6FBE4E70124BC
:10757000E2E700BFF0DF0B00FFDF0B0028E00B00AD
:1075800070B540F20221114805F02CF840F20221BA
:1075900005460F4805F026F86A1C044601D0431C36
:1075A00012D103F081F8064600F058FD094902683F
:1075B0003046FEF7B1FB0026284605F003F82046CA
:1075C00005F000F8304670BD0126F5E758E00B00E5
:1075D0006BE00B0082E00B0037B51648002105F088
:1075E00001F8431C044614D103F05EF8054600F090
:1075F00035FD114902682846FEF78EFB204604F04F
:10760000E1FF00F02BFD036893B9BDF8060003B05D
:1076100030BD02220DF1060104F0F8FF0130EDD17A
:1076200003F042F8054600F019FD04490268E2E75C
:107630000020ECE7F0DF0B0098E00B00B8E00B0057
:1076400030B5204889B040F2014104F0CBFF431C23
:10765000044614D103F028F8054600F0FFFC1A494F
:1076600002682846FEF758FB204604F0ABFF00F006
:10767000F5FC0068B0FA80F0400909B030BD02F0B6
:1076800070FB124B124900930246C31704A802F084
:1076900009FB04A800F007FFADF80E0004A800F0F5
:1076A000BDFD02220DF10E01204604F0B9FF0130AC
:1076B000DAD102F0F9FF054600F0D0FC0549026876
:1076C000CFE700BFF0DF0B0098E00B00CFE00B002E
:1076D00094E60320D2E00B002DE9F0419AB000AF10
:1076E0000D4604462C49384600F0E3FD28460021AB
:1076F00004F078FF431C05461CD102F0D5FF064676
:1077000000F0ACFC254902683046FEF705FB284630
:1077100004F058FF00F0A2FC0368BBB31E492046EA
:1077200000F0C7FD384600F079FD20466837BD46B9
:10773000BDE8F08107F1100104F04CFF013007D1E2
:1077400002F0B2FF064600F089FC15490268DBE74B
:107750003A6AD31D23F00703E846ADEB030D6946F3
:10776000284604F053FF01300BD102F09DFF06467E
:1077700000F074FC0B4902683046FEF7CDFAC546AE
:10778000C5E76946384600F0F2FDF8E7394620467D
:1077900000F0C0FDC6E700BF9DDF0B00ECE00B0072
:1077A00003E10B00B8E00B0010B503490446FFF7F6
:1077B00093FF204610BD00BF58E00B0010B50349F1
:1077C0000446FFF789FF204610BD00BF6BE00B00A9
:1077D0002DE9F04186B080460E46FFF799FE20B9AC
:1077E0000025284606B0BDE8F081FFF7C9FE054632
:1077F0000028F5D0FFF7F0FE074602F0B2FA174B6B
:10780000174900930246C31702A802F04BFA02A8D8
:1078100000F049FE044602A800F000FDA3B29F421A
:1078200014D102A8FFF7C0FF02A9404600F097FD5F
:1078300002A800F0F3FC02A8FFF7C0FF02A930463F
:1078400000F08DFD02A800F0E9FCCAE7A4B2013CFB
:10785000A742C6D102A8FFF7A7FFEFE7CFE00B00D2
:1078600094E6032038B50D4640F2014104F0BAFE1B
:10787000431C044614D102F017FF054600F0EEFB4E
:107880000F4902682846FEF747FA204604F09AFEA0
:1078900000F0E4FB03688BB9FFF7D2FE012038BD8E
:1078A000AA68296804F0BCFE0130EED102F0FCFEAB
:1078B000054600F0D3FB03490268E3E70020EEE74A
:1078C000ECE00B00D2E00B001FB50146684600F06B
:1078D0003BFD69460448FFF7C5FF0446684600F0D3
:1078E0009DFC204604B010BD58E00B001FB50146BA
:1078F000684600F029FD69460448FFF7B3FF0446D7
:10790000684600F08BFC204604B010BD6BE00B0015
:1079100008B5024B1B689B68019308BD6802030011
:1079200008B5024B1B68DB68019308BD68020300C1
:1079300008B5024B1B689B68019308BD2C0203002D
:1079400008B5024B1B689B69019308BD2C0203001C
:1079500008B5024B1B68DB69019308BD2C020300CC
:1079600008B5024B1B685B69019308BD6C020300FC
:1079700008B5024B1B685B68019308BD1802030041
:1079800008B5024B1B68DB68019308BD18020300B1
:1079900008B5024B1B685B69019308BD1802030020
:1079A00008B5024B1B689B6D019308BD18020300CC
:1079B00008B5024B1B685B6E019308BD18020300FB
:1079C00008B5024B1B685B6D019308BD34020300D0
:1079D00008B5024B1B681B68019308BD84020300B5
:1079E00008B5024B1B685B68019308BD8402030065
:1079F00008B5024B1B689B68019308BD8402030015
:107A000008B5024B1B68DB68019308BD84020300C4
:107A100008B5024B1B685B69019308BD8402030033
:107A200008B5024B1B689B68019308BD78020300F0
:107A300008B5024B1B681B69019308BD780203005F
:107A400008B5024B1B681B6D019308BD780203004B
:107A500008B5024B1B689B6D019308BD78020300BB
:107A600008B5024B1B681B6E019308BD780203002A
:107A700008B5034B1B68D3F89830019308BD00008C
:107A80007802030008B5034B1B68D3F8A8300193B4
:107A900008BD00007802030008B5034B1B68D3F84B
:107AA000B430019308BD00007802030008B5034B11
:107AB0001B68D3F8D830019308BD0000780203009A
:107AC00008B5034B1B68D3F8DC30019308BD0000F8
:107AD0007802030008B5034B1B68D3F8EC30019320
:107AE00008BD00007802030008B5034B1B68D3F8FB
:107AF000F030019308BD00007802030008B5034B85
:107B00001B68D3F80031019308BD00007802030020
:107B100008B5034B1B68D3F80431019308BD00007E
:107B20007802030008B5024B1B68DB68019308BDAF
:107B30004802030008B5024B1B68DB69019308BDCE
:107B40004802030008B5024B1B681B6A019308BD7D
:107B50004802030008B5024B1B685B6A019308BD2D
:107B60004802030008B5024B1B689B6A019308BDDD
:107B70004802030008B5024B1B68DB6A019308BD8D
:107B80004802030008B5024B1B685B6C019308BDFB
:107B90004802030008B5024B1B68DB6C019308BD6B
:107BA0004802030008B5024B1B685B6D019308BDDA
:107BB0004802030008B5024B1B681B6F019308BD08
:107BC0004802030008B5024B1B685B69019308BDBE
:107BD0006402030008B5024B1B681B6A019308BDD1
:107BE0006402030008B5024B1B689B6A019308BD41
:107BF0006402030008B5024B1B68DB68019308BDF3
:107C00003C02030008B5024B1B681B69019308BDC9
:107C10003C02030008B5024B1B685B69019308BD79
:107C20003C02030008B5024B1B689B69019308BD29
:107C30003C02030008B5024B1B68DB69019308BDD9
:107C40003C02030008B5024B1B681B6A019308BD88
:107C50003C02030008B5024B1B689B6A019308BDF8
:107C60003C02030008B5024B1B681B6C019308BD66
:107C70003C02030008B5024B1B681B6A019308BD58
:107C80002802030008B5024B1B685B6A019308BD1C
:107C90002802030008B5024B1B689B6A019308BDCC
:107CA0002802030008B5024B1B68DB6A019308BD7C
:107CB0002802030008B5024B1B681B6B019308BD2B
:107CC0002802030008B5024B1B685B6B019308BDDB
:107CD0002802030008B5024B1B681B6C019308BD0A
:107CE0002802030008B5024B1B689B69019308BD7D
:107CF0003802030008B5024B1B68DB69019308BD1D
:107D00003802030008B5024B1B681B6A019308BDCB
:107D10003802030008B5024B1B689B6A019308BD3B
:107D20003802030008B5024B1B681B6B019308BDAA
:107D30003802030008B5024B1B689B6B019308BD1A
:107D40003802030008B5024B1B68DB69019308BDCC
:107D50003002030008B5024B1B681B6A019308BD83
:107D60003002030008B5024B1B681B68019308BD75
:107D70004C02030008B5024B1B681B69019308BD48
:107D80004C02030008B5024B1B685B69019308BDF8
:107D90004C02030008B5024B1B689B69019308BDA8
:107DA0004C02030008B5024B1B68DB69019308BD58
:107DB0004C02030008B5024B1B681B6A019308BD07
:107DC0004C02030008B5024B1B685B6F019308BDB2
:107DD0007402030008B5024B1B685B6B019308BD7E
:107DE0006002030008B5024B1B681B6D019308BDC0
:107DF0006002030008B5024B1B681B68019308BDB5
:107E00002002030008B5024B1B685B68019308BDA4
:107E10002002030008B5024B1B685B69019308BD93
:107E20002002030008B5024B1B68DB6A019308BD02
:107E30002002030008B5024B1B68DB6C019308BDF0
:107E40002002030008B5024B1B685B6D019308BD5F
:107E50002002030008B5024B1B689B6D019308BD0F
:107E60002002030008B5034B1B68D3F88830019348
:107E700008BD00002002030008B5034B1B68D3F8BF
:107E80009430019308BD00002002030008B5024BA6
:107E90001B685B68019308BD4002030008B5024BF4
:107EA0001B689B68019308BD4002030008B5024BA4
:107EB0001B68DB68019308BD4002030008B5024B54
:107EC0001B681B69019308BD4002030008B5024B03
:107ED0001B685B69019308BD4002030008B5024BB3
:107EE0001B689B69019308BD4002030008B5024B63
:107EF0001B68DB69019308BD4002030008B5024B13
:107F00001B681B6A019308BD4002030008B5024BC1
:107F10001B681B6B019308BD4002030008B5024BB0
:107F20001B685B6B019308BD4002030008B5024B60
:107F30001B681B6C019308BD4002030008B5024B8F
:107F40001B685B6C019308BD4002030008B5024B3F
:107F50001B689B68019308BD4402030008B5024BEF
:107F60001B685B69019308BD4402030008B5024B1E
:107F70001B681B6A019308BD4402030008B5024B4D
:107F80001B685B6A019308BD4402030008B5024BFD
:107F90001B689B6A019308BD4402030008B5024BAD
:107FA0001B681B6B019308BD4402030008B5024B1C
:107FB0001B68DB6B019308BD4402030008B5024B4C
:107FC0001B681B68019308BD1C02030008B5024B27
:107FD0001B685B68019308BD1C02030008B5024BD7
:107FE0001B689B68019308BD1C02030008B5024B87
:107FF0001B68DB68019308BD1C02030008B5024B37
:108000001B681B69019308BD1C02030008B5024BE5
:108010001B685B69019308BD1C02030008B5024B95
:108020001B68DB69019308BD1C02030008B5024B05
:108030001B685B6A019308BD1C02030008B5024B74
:108040001B68DB6A019308BD1C02030008B5024BE4
:108050001B681B6B019308BD1C02030008B5024B93
:108060001B68DB6B019308BD1C02030008B5024BC3
:108070001B681B6C019308BD1C02030008B5024B72
:108080001B685B6C019308BD1C02030008B5024B22
:108090001B689B6C019308BD1C02030008B5024BD2
:1080A0001B68DB6C019308BD1C02030000224068C2
:1080B0001146FFF723BF002240681146FFF72EBF8D
:1080C00040680022FFF722BF4068002281F00101D2
:1080D000FFF70CBF002340681A461946FFF7FEBEA3
:1080E000002340681A461946FFF7F0BE0022406898
:1080F0001146FFF7E3BE002240681146FFF7CEBEEF
:10810000406800220221FFF7D1BE002340681A46D2
:10811000FFF7BCBE024B03225A60024A1A60704746
:1081200068E6032024E10B0010B5044608462170E0
:10813000FFF708FE00236360204610BD10B5202421
:1081400088B022460021684603F071FA0021684693
:10815000ADF80040FFF734FC019808B010BD0000F6
:10816000054B02221A60054B054A9A600020C3E9BC
:108170000000FFF747BE00BF7CE6032070E6032047
:108180000000FFFF10B50446FCF744FC013823183B
:108190002046834206D90278197800F8011B03F8BB
:1081A0000129F6E710BD70B50C46911E22291DD895
:1081B000254630B9234430229D4210D205F8012BC8
:1081C000FAE7B0FBF2F602FB1600C1B2092894BF31
:1081D00030315731C9B205F8011B3046E9E70023B9
:1081E00020462B70FFF7CEFF204670BD0020FCE735
:1081F00038B5031E0C4615460EDAB3F1004F4FF0AA
:108200002D0214BF5842184601230A702A46194409
:10821000FFF7C9FF204638BD0123F9E710B5044632
:108220000068FFF7D3FE204610BD10B50446006875
:1082300008B1FFF7CBFE0023C4E90133236010BD72
:1082400038B504460D4600680131FFF7C7FE10B18E
:10825000C4E90005012038BD10B50368044623B108
:1082600043688B4201D3012010BD2046FFF7E8FF91
:108270000028F9D0A368002BF5D122681370F2E72B
:1082800037B50D46114601920446FFF7E5FF019A06
:1082900028B92046FFF7C9FF204603B030BDA260D1
:1082A0002946206803F09BF92268A3680021D15475
:1082B000F2E7002313B5C0E900330446836003737B
:1082C00041B108460191FCF7A5FB01990246204601
:1082D000FFF7D6FF204602B010BD38B5054600684E
:1082E0000C4668B16A688B689A4207D3096803F044
:1082F000E4F9A368AB600023A36038BDFFF766FE16
:1083000023682B6063686B60A368AB600023C4E9DB
:108310000033F1E710B50023C0E900330446836061
:108320000373FFF7DAFF204610BD884210B50446FC
:1083300005D00B682BB18A681946FFF7A1FF2046CC
:1083400010BDFFF772FFFAE710B500230446C0E93D
:10835000003383600373FFF7E8FF204610BD8842B7
:1083600010B5044601D0FFF7B8FF204610BD13B585
:10837000044659B108460191FCF74CFB01990246AD
:108380002046FFF77DFF204602B010BDFFF74DFFEE
:10839000F9E710B504468AB00023C4E90033A360AE
:1083A0002373084601A9FFF723FF01A92046FFF721
:1083B000DEFF20460AB010BD70B505460E4609B96D
:1083C000002070BD6AB1846814442146FFF744FF61
:1083D0000028F5D02868AB683146184403F06DF9E1
:1083E000AC600120EDE78A680968FFF7E5BF13B5C7
:1083F0000446084651B10191FCF70CFB0199024675
:10840000204602B0BDE81040FFF7D6BF02B010BD55
:1084100008B582683AB921B10878B0FA80F040090D
:1084200000E0012008BD006809B90078F5E7FCF715
:10843000E7FAF2E710B58368934207D90468096840
:10844000A01803F093F908B1001B10BD4FF0FF30E6
:10845000FBE70022FFF7EEBFF8B59A420F461D4634
:108460000C4988BF13461446064684BF2C461D4659
:10847000FFF71FFFBB68A3420AD33968AB4294BF22
:10848000C4EB0302C4EB050221443046FFF7F8FEBB
:108490003046F8BD9DDF0B0010B504468B68FFF732
:1084A000DBFF204610BD006808B103F084B87047B8
:1084B0000EB470B587B00BAD044655F8042B01928D
:1084C0002B46052104A80395FFF7B0FD0B4906468E
:1084D0002046FFF7EEFE31462046FFF7BDFE20683E
:1084E00030B1019A03952B46711CFFF79FFDA060E8
:1084F000204607B0BDE8704003B070479DDF0B0019
:108500007047704770477047064B994210B500F1AD
:108510000C0405D0084602F009FF002808BF00241B
:10852000204610BDD4E20B00064B994210B500F175
:108530000C0405D0084602F0F9FE002808BF00240C
:10854000204610BDD4E20B00064B994210B500F155
:108550000C0405D0084602F0E9FE002808BF0024FC
:10856000204610BDD4E20B0010B568210446FCF78C
:10857000B0FA204610BD10B528210446FCF7A9FA30
:10858000204610BD10B530210446FCF7A2FA204663
:1085900010BD6821FCF79DBA2821FCF79ABA30215A
:1085A000FCF797BAF0B50025EC1C8C420DD86E1C78
:1085B000445D875D974205D12644B14205D31D60D5
:1085C000601CF0BD01342544EEE70020F9E700000F
:1085D000024A03490A20FFF7FDBB00BF81790B0067
:1085E00058E10B00034608461B68D3E900211047F9
:1085F00030B40D4611461A46036809682868D3E965
:108600000043A44630BC6047012A38B5044602D175
:108610000B68236003E0022A03D0032A0DD0002058
:1086200038BD08200D68FCF750FA03460028F0D04A
:1086300095E8030083E80300EBE700680028EED02C
:108640000821FCF746FAEAE7012A38B5044602D1C8
:108650000B68236003E0022A03D0032A0DD0002018
:1086600038BD08200D68FCF730FA03460028F0D02A
:1086700095E8030083E80300EBE700680028EED0EC
:108680000821FCF726FAEAE710B504465830FDF752
:1086900051FB04F14800BDE81040FFF7BFBD10B525
:1086A0004368013B0446436063B903689B6898478D
:1086B000A368013BA3602BB923682046DB68BDE8B3
:1086C0001040184710BDA0F13003DAB2092A01D8D2
:1086D00018467047A0F16103052B01D85738704741
:1086E000A0F14103052B94BF37384FF0FF3070479E
:1086F00010B500230370044B04461868FFF74AFACC
:1087000001232370204610BD88E6032010B50378AE
:1087100004461BB1024B1868FFF744FA204610BD0F
:1087200088E6032082B00346086849686A4603C2A7
:108730006A4603CA18601846596002B0704708B507
:1087400082798B799A4206D1062202F038FFB0FA7C
:1087500080F0400908BD0020FCE74FF0FF330360C4
:1087600083800020704708B5024600210160416007
:10877000FFF7F3FF9171104608BD000010B501230B
:108780000361054B024603F1100153F8044B42F814
:10879000044B8B42F9D110BD8AD80B0010B50B46A3
:1087A0000446B1B1012A01F110020AD1014653F881
:1087B000040B41F8040B9342F9D1012323612046B5
:1087C00010BD411E12F8010D01F8010F9A42F9D1B6
:1087D000F3E7102202F02BFFF1E738B50446154607
:1087E0001A46FFF7DBFFA581204638BD08B50269B0
:1087F00022B98089003818BF012008BD0249102223
:1088000002F0DDFEF6E700BFECE20B000069704706
:1088100038B50C4614220021054602F008FF2369F2
:108820001BB9A3892B80284638BD01232B74214610
:108830002B4604F1100251F8040B43F8040B91424B
:10884000F9D1F0E780897047704708B502690B6974
:108850009A4206D1102202F0B2FEB0FA80F040092E
:1088600008BD0020FCE7000001232DE9F34103616E
:10887000344B0C460646024603F1100153F8040B34
:1088800042F8040B8B42F9D144B32421204602F074
:1088900061FF04284FF0000523D1ADF8045001AF6B
:1088A000A51C063415F8020CFFF70DFFB0F1000807
:1088B00012DB15F8010CFFF706FF00280CDB023570
:1088C00040EA0810A54207F8010BEBD19DF80530EE
:1088D00033739DF8043073730023336102B0BDE835
:1088E000F0814FF010082421204602F033FFA84207
:1088F00007D842460021304602B0BDE8F04102F000
:1089000096BEB8F1000FE9D0605DFFF7DCFE03060C
:1089100015D4000108F1FF38C7B206F80870242109
:10892000204602F017FF0135A84208D9605DFFF725
:10893000CAFE40B20028A4BF384306F8080001353B
:10894000D1E700BF8AD80B0013B504460191FFF7A9
:1089500015FF20460199FFF787FF204602B010BDA2
:1089600038B54FF6FF730025044643800E22294692
:1089700005700571063002F05AFE04F11400FFF78D
:10898000FDFE04F12800FFF7F9FE044904F13C0064
:10899000FFF78FFC6565204638BD00BF9DDF0B00EB
:1089A00010B5D0E9063203EBC2029342184606D056
:1089B000046824888C4203F10803F6D110BD00201E
:1089C000FCE70000F0B5064685B01F460D460029BD
:1089D00050D0002A4ED004682378F42A28BFF4220D
:1089E00043B32379980709D5A08903920023FFF7A1
:1089F00053F80028039A03DA05B0F0BD6FF0770052
:108A000034682379D90609D5012F07D0A08900231E
:108A1000294605B0BDE8F040FFF770B89B06EBD5DE
:108A2000022FE9D0A0890023294605B0BDE8F04017
:108A3000FFF76EB860884FF6FF7188421CD021792D
:108A40004E0701D5012F04D10B0709D46FF0770031
:108A5000D2E7A189009313462A46FFF731F8CBE706
:108A6000022FF3D00023A189009313462A46FFF773
:108A70001DF8C1E70248BFE76FF0D100BCE700BFB7
:108A8000F2FEFFFF13468A680968FFF79BBF0000EC
:108A90002DE9F04100260660074628200C46FCF729
:108AA00014F8051E05F10C080FD00123C5E90133A8
:108AB000084B2B604046FFF761FE0FCC2E6285F815
:108AC000246046460FC623683360C7E900853846F0
:108AD000BDE8F081A4E20B0070B5002505600646F4
:108AE0003020FBF7F2FF044688B10123C0E90133CF
:108AF000094B03604FF6FF7383810E30FFF733FE9F
:108B0000C4E90655C4E90855C4E90A55A575746059
:108B10000C343460304670BDC0E20B0037B50D46F2
:108B2000044601A8FFF7E4FD2A68D2F8023023606A
:108B3000D2F80630636001A8FFF7E8FD204603B0D5
:108B400030BD30B5054687B00C4601A8FFF7D0FD13
:108B50002A68236812881B889A420DD1294602A8E8
:108B6000FFF7DCFF214604A8FFF7D8FF04A902A8FD
:108B7000FFF7E5FD044600B9002401A8FFF7C6FD94
:108B8000204607B030BD000010B504466420FBF756
:108B90009CFF68B10023C0E90033C0E90233C0E99B
:108BA0000433C0E906330362C362C363C364C365AD
:108BB000206020B90A4A0B490A20FFF70BF9002070
:108BC000FEF72EFF20B1064A07490A20FFF702F9F7
:108BD000216806480022FEF787FF204610BD00BF2F
:108BE00081790B0058E10B0096E10B00BD910B0061
:108BF00010B50A4C2378BFF35B8FDB070CD42046FB
:108C0000FBF769FF40B10648FFF7BEFF2046FBF7C0
:108C100067FF044802F0C2FC014810BD80E6032053
:108C20008CE60320658E0B0030B50368093B012BF1
:108C30008DB004460D4611D8FFF7DAFFA188006811
:108C4000FFF7AEFE034658B92022CDE904200B4AB7
:108C500000920B4904AA3220FFF7C4F80DB030BDD2
:108C60006A6D002AFAD0D4E9032105F14C00CDE960
:108C70000312AC6D04AA03A9A047EFE7D8E10B00EB
:108C80006FE10B0008B50020FEF7CAFE00EAE070B5
:108C900008BD08460021FEF7CBBE19B90A460846B2
:108CA000FEF7CEBED1E900010022F9E738B5141E67
:108CB0004368054602DB62189A4200DD5C1A2A68A6
:108CC000501801191A44521A02F097FC6A68121BD4
:108CD0006A6038BD37B50A4604460D4601ABD0E997
:108CE0000001FFF75FFC024638B101992046FFF70B
:108CF000DDFF29462046FFF7EDFF03B030BD10B57C
:108D00000C4629B90A460846BDE81040FEF7A0BE49
:108D100001212046FFF7DEFFD4E900010022F3E73E
:108D200038B504461546FFF7B8FF00280ADB294688
:108D30002046FFF7E4FF002804DBBDE838400020B0
:108D4000FEF78EBE38BD000038B5002304468360B0
:108D500008200D46FBF7B9FE18B12B6803606B685D
:108D60004360034BE360034B2060A360204638BDA3
:108D7000F1850B0049860B0038B50023044683605B
:108D800008200D46FBF7A1FE18B12B6803606B6845
:108D90004360034BE360034B2060A360204638BD73
:108DA000E5850B0009860B000B68036013B15A6858
:108DB00001325A60704710B551F8043B044640F840
:108DC000043BFFF7F1FF23680BB9FFF701FC2046D6
:108DD00010BD10B551F8043B044640F8043BFFF7C2
:108DE000E3FF204610BD10B551F8043B044640F89F
:108DF000043BFFF7D9FF204610BD10B504460430F0
:108E0000FDF7F8FB204610BD70B5D0E900530446CD
:108E100005EBC306AE4204D0281DFDF7EBFB083579
:108E2000F8E72068FFF7D2F8204670BD70B5D0E9AA
:108E30000053044605EBC306AE4204D0281DFDF7DF
:108E4000D9FB0835F8E72068FFF7C0F8204670BD69
:108E500010B504462430FFF7E9FF04F11800FFF7CE
:108E6000D3FF10BD70B5174B1C6854B304F1540008
:108E7000FCF760FF04F14400FCF75CFF04F13400F0
:108E8000FCF758FF04F12400FCF754FFD4E9065323
:108E900005EBC306AE4204D0281DFDF7ABFB083539
:108EA000F8E7A069FFF792F804F10C00FFF7BEFFA6
:108EB0002046FFF7A9FF20466421BDE87040FBF77C
:108EC00008BE70BD8CE6032013B50023D1E9004233
:108ED000C1E900330368009304604368426001A85D
:108EE0000193FDF787FB02B010BD826810B50AB987
:108EF00002F018FABDE81040C368184738B50D1ED7
:108F00000446006803DDFFF769F818B938BDFFF7BC
:108F10005DF800202060A5600120F7E708B58368B0
:108F20008B4202DAFFF7EAFF08BD0120FCE72DE9DA
:108F3000F0410F4641681D46194483689942044632
:108F4000904612DC266862683E44D21B3146701996
:108F500002F053FB2A464146304602F040FB63686C
:108F60002B4463600120BDE8F081FFF7C7FF0028B4
:108F7000E8D1F8E7F8B50D46D0E901139942044667
:108F800016460BDA276862687919521B481C02F0F2
:108F900034FB7E55636801336360F8BD0131FFF730
:108FA000ADFF0028EED1F8E70A464168FFF7E2BFBF
:108FB0002DE9F74304461D460F4601AB90460A468D
:108FC000D0E900019DF82890FFF7ECFAAE1C636829
:108FD0000246B9F1000F26D128B333441B1AFF2BE8
:108FE00009D801992046FFF761FE616820463144A7
:108FF000FFF794FF18B9606803B0BDE8F0836A1CFE
:109000000199D2B22046FFF7B5FF01993A460131E6
:109010002046FFF7AFFF01992B464246023120461A
:10902000FFF785FFE7E7F118FF29E4D82046FFF7AF
:1090300075FF0028DFD0691CC9B22046FFF7B4FFD6
:1090400039462046FFF7B0FF61682B464246E6E707
:1090500030B49DF808501AB1029530BCFFF7A8BF94
:10906000406830BC70471FB50023C0E900338360FF
:109070000622009301238DF80F2019460DF10F02EF
:109080000446FFF7E5FF204604B010BD1FB50A46B1
:10909000044614211046039202F05CFB00210346B3
:1090A0000091039A09212046FFF7D2FF04B010BDBA
:1090B0008842F8B504460D46164614D9904213D29C
:1090C000A2F10806751AA1F108072C44B74218D07E
:1090D0001CB131462046FFF786FE301DFDF78AFAA7
:1090E000083E083CF2E70CD0B5420AD01CB1294634
:1090F0002046FFF778FE281DFDF77CFA0835083476
:10910000F2E7F8BDF7B5044646686846FFF76BFE20
:10911000D4E901739F4212DB0137002F29DDF800EB
:10912000FEF74CFF0546F0B1D4E9001201EBC20294
:10913000FFF7BEFF2068FEF749FF2560A7602368A0
:10914000626803EBC60603EBC202314606F1080073
:10915000FFF7AEFF1EB169463046FFF744FE636875
:1091600001336360012501A8FDF744FA284603B0E6
:10917000F0BD0025DEE7F8B5D0E9004305460F460F
:1091800004EBC306A64205D039462046FFF7D9FCBA
:1091900008B114B9F8BD0834F4E7201DFDF72AFA28
:1091A000D5E9003204F1080103EBC2022046FFF7C3
:1091B0007FFF6B68013B6B60ECE700002DE9F0413D
:1091C00005468EB003A80C46FFF792FA2E68F31EF0
:1091D0000D2B3CD8DFE813F00E0057003B00D30006
:1091E0003B003B003B003B003B009D009D009D0081
:1091F0009D009D0004A8FFF76FFC049BAA891A80BC
:109200006968049808310230FFF78CFA04A906A8AF
:10921000FFF7E9FD06A904F11800FFF773FF054603
:1092200007A8FDF7E7F9C5B92023CDE906355E4B60
:109230005E49009306AA2B460120FEF7D3FD049B4E
:1092400029461888FEF714FC05A8FDF7D3F903A8F2
:10925000FFF75CFA0EB0BDE8F081E36A23B104A920
:1092600004F12400FFF741FE05A8FDF7C3F9202112
:109270000023CDE906134E4A00924C4906AA01206C
:10928000FEF7B0FDE3E7A9892046FFF789FB064614
:109290000028DCD00568D5E906324FF6FF71298039
:1092A00003EBC2029A4203D053F8080B4180F9E75E
:1092B000D5E9037307EBC308B84504D0381DFDF7A3
:1092C00099F90837F8E700232B61D5E9067307EB16
:1092D000C308B84504D0381DFDF78CF90837F8E706
:1092E0000023EB61AB72E36B23B1314604F1340030
:1092F000FFF7FBFD33684FF6FF721A80314604F129
:109300001800FFF738FF20220023CDE90623294A61
:10931000B2E7A9892046FFF743FB002897D0E36C0A
:10932000002B94D000230D2EADF8163001D0102E56
:1093300017D1002369681A4606258DF81530049167
:109340008DF814200690DDE9040109AB8DF81C604E
:10935000089583E80300236D06A904F144009847AB
:1093600075E70F2E01BF2B7A696803F0010208250B
:109370000FBFC3F340031A4619461D46DDE7A9890E
:109380002046FFF70DFB014600283FF460AFE36D78
:10939000002B3FF45CAF6B68069306AA236E04F1C2
:1093A0005400984753E700BFF0E10B006FE10B005A
:1093B00016E20B0020E20B0013B50B460246D0E983
:1093C00000016C4684E8030093E8030082E8030090
:1093D00094E8030083E8030002B010BD38B50546E9
:1093E0000C46FFF7E9FFAB68A268AA60A360EB68D0
:1093F000E268EA60E36038BD70B504468CB00E46A2
:1094000001921D46FFF7ACFA2671019904F13C0068
:10941000FEF7ADFF04F14C06CDB1109B029502A9F9
:1094200004A80393FFF790FC002308A904A80A935B
:10943000FFF7D4FF314608A8FFF7D0FF08A8FCF7D4
:1094400079FC04A8FCF776FC20460CB070BD0695AC
:10945000EAE700002DE9F04F87B01D46DDE9104333
:1094600080468B469246129903930022682002910F
:109470000492FBF72AFB061E06F10C0918D0012204
:109480003746C6E901220299154A47F8202B039B6B
:1094900000915A4651464846FFF7AEFF0FCD0FC721
:1094A0002B683B600FCC06F134050FC523682B6099
:1094B00004A94046CDE90496FFF706FD05A8FDF78F
:1094C00099F8D8F800303BB9064A07490A2007B096
:1094D000BDE8F04FFEF77EBC07B0BDE8F08F00BFDF
:1094E00088E20B0081790B0058E10B0038B5054686
:1094F0000C46FFF761FFAB68A268AA60A360EB6847
:10950000E268EA60E36038BD10B504688AB02434CC
:10951000B9B1CDE9001202A86946FFF72DFC00237E
:1095200006A902A80893FFF7E1FF214606A8FFF766
:10953000DDFF06A8FCF7FEFB02A8FCF7FBFB0AB068
:1095400010BD0491EBE78842F8B504460D46164677
:1095500014D9904213D2A2F10806751AA1F1080796
:109560002C44B74218D01CB131462046FFF731FCDD
:10957000301DFDF73FF8083E083CF2E70CD0B5423D
:109580000AD01CB129462046FFF723FC281DFDF711
:1095900031F808350834F2E7F8BD70B50E1E0546FF
:1095A00011DDF000FEF70AFD044658B1D5E90012BE
:1095B00001EBC202FFF7C7FF2868FEF707FD2C602A
:1095C000AE60012070BD0024F6E773B5044645681F
:1095D0006846FFF7FEFBD4E90113994210DA2368CD
:1095E000626803EBC50503EBC202294605F10800DA
:1095F000FFF7A9FF8DB9636801336360012606E0B8
:1096000001312046FFF7C9FF06460028E7D101A82F
:10961000FCF7F0FF304602B070BD69462846FFF700
:10962000D8FBE8E78842F8B504460D46164614D93B
:10963000904213D2A2F10806751AA1F108072C4432
:10964000B74218D01CB131462046FFF7B4FB301D9D
:10965000FCF7D0FF083E083CF2E70CD0B5420AD038
:109660001CB129462046FFF7A6FB281DFCF7C2FFC8
:1096700008350834F2E7F8BD70B50E1E054611DD59
:10968000F000FEF79BFC044658B1D5E9001201EB4F
:10969000C202FFF7C7FF2868FEF798FC2C60AE6097
:1096A000012070BD0024F6E773B50446456868469E
:1096B000FFF781FBD4E90113994210DA236862684D
:1096C00003EBC50503EBC202294605F10800FFF7CD
:1096D000A9FF8DB9636801336360012606E001319B
:1096E0002046FFF7C9FF06460028E7D101A8FCF78E
:1096F00081FF304602B070BD69462846FFF75BFB2C
:10970000E8E700002DE9F04F1746A1B080460AA80F
:109710000E46FEF7EDFF3C68237953B939464046C3
:10972000FFF749FB0AA8FEF7F1FF404621B0BDE86C
:10973000F08F3368D3E9035305EBC303039304F1BC
:10974000280A04F1140B039B9D4221D0D5F8009008
:10975000584609F11401FFF778F8B8B109F128016A
:109760005046FFF772F888B12368D9F800205340BB
:1097700033F47F430AD12022CDE915235E4A0092BB
:1097800015AA5E493220FEF72DFBC7E70835DAE758
:109790005046FFF72BF860B95949012215A815ADBD
:1097A000FEF7FCFF0FCDD446ACE80F002B68CCF8D9
:1097B00000303368D3E9005305EBC30B5D45A94680
:1097C00051466ED055F8080BFFF73FF80028F5D04A
:1097D00004F1140A5046FFF709F888B9494B484983
:1097E0001A88013292B21A8015A8012315ADFEF72E
:1097F000F4FF0FCDD446ACE80F002B68CCF8003056
:10980000414B15932822002116A801F010FF514664
:1098100004A8FEF7FDFF04AB18AA0DF1200C186890
:109820005968154603C5083363452A46F7D11868B9
:10983000286023798DF85830D9F800309B8AADF82C
:109840007430E36B1793314B0022A11D15A8CDE9AD
:109850001E34FEF73FF900287FF460AF0123237028
:10986000346839460C340DA8FFF7A5FA20460DA937
:10987000FFF71AFF04460EA8FCF7BCFE002C7FF48D
:109880004DAF2023CDE90D34214B00930DAA234683
:1098900077E739464046FFF78EFA0CA8FCF7AAFE98
:1098A00040E70BA8FFF7F4F8514615A8FEF7B0FF04
:1098B0000B9A0023143215A90120FEF7E3F80028C3
:1098C000E7D135680BA90DA8FFF783FA28460DA943
:1098D000FFF77BFE05460EA8FCF78CFE002DD8D0C6
:1098E00032685368126803F10053013B0CA802EB85
:1098F000C309FCF77FFE6BE72DE20B006FE10B0065
:10990000DCE20B0084E6032003002C00298C0B0012
:1099100058E20B00024800230360FEF733B900BF92
:1099200088E60320F8B506460D468F180024BD4290
:109930000CD0336815F8011B9B6830469847031E0E
:1099400001DB1C44F3E7002C08BF1C462046F8BD91
:1099500013B50446084659B10191FBF75BF823683B
:109960000199DB680246204602B0BDE81040184766
:1099700002B010BD08B5FFF7EBFF08BD03689B6898
:1099800018470A680B46126801461846104738B552
:109990000D210546FFF7F2FF0A2104462846FFF78E
:1099A000EDFF204438BD38B50546FFF7D1FF04462A
:1099B0002846FFF7ECFF204438BD38B50546FFF7D1
:1099C000E0FF04462846FFF7E2FF204438BD30B5EB
:1099D0008BB00023012A8DF8243098BF0A2209ACED
:1099E0000D46B1FBF2F101FB125303F0FF03092B0B
:1099F00094BF30333733DBB2AA4204F8013DEFD9CC
:109A00002146FFF7A5FF0BB030BD2DE9F04186B030
:109A100000AF05460E46381D142114463B60FEF784
:109A200005FB13280ED8391D2846FFF791FF044681
:109A30001EB12846FFF7ABFF044420461837BD4649
:109A4000BDE8F08100F1080323F00703E846ADEB21
:109A5000030D2246411C3B686846FEF7E7FA69465B
:109A60002846FFF775FF0446C546E1E7014B024A69
:109A70001A60704790E60320FCE20B002DE9F041EC
:109A8000154ADFF86080D2E90063801943EB0101D9
:109A9000124BD3E90067D8E90023861941EB070789
:109AA000BB4208BFB2428CB013D003A96846CDE9CF
:109AB0000067FEF7F3FA089B094D03F26C7303ACE1
:109AC00008930FCC0FC50FCC0FC5C8E900672368FA
:109AD0002B600CB0BDE8F081C8E60320C0E603208F
