:02000002B0004C
:1040000000400B0022E30B00000006000C0005023C
:0840100004018C130000000004
:04401800F4CF0B00D6
:1040200081F0004102E000BF83F0004330B54FEA69
:1040300041044FEA430594EA050F08BF90EA020FD6
:104040001FBF54EA000C55EA020C7FEA645C7FEA69
:10405000655C00F0E2804FEA5454D4EB5555B8BF8C
:104060006D420CDD2C4480EA020281EA030382EAFD
:10407000000083EA010180EA020281EA0303362D8F
:1040800088BF30BD11F0004F4FEA01314FF4801C62
:104090004CEA113102D0404261EB410113F0004F74
:1040A0004FEA03334CEA133302D0524263EB43032B
:1040B00094EA050F00F0A780A4F10104D5F1200EC9
:1040C0000DDB02FA0EFC22FA05F2801841F1000124
:1040D00003FA0EF2801843FA05F359410EE0A5F1F8
:1040E00020050EF1200E012A03FA0EFC28BF4CF029
:1040F000020C43FA05F3C01851EBE37101F00045DF
:1041000007D54FF0000EDCF1000C7EEB00006EEBEB
:104110000101B1F5801F1BD3B1F5001F0CD3490875
:104120005FEA30004FEA3C0C04F101044FEA4452CC
:1041300012F5800F80F09A80BCF1004F08BF5FEA53
:10414000500C50F1000041EB045141EA050130BD33
:104150005FEA4C0C404141EB0101013C28BFB1F545
:10416000801FE9D291F0000F04BF01460020B1FA90
:1041700081F308BF2033A3F10B03B3F120020CDA63
:104180000C3208DD02F1140CC2F10C0201FA0CF041
:1041900021FA02F10CE002F11402D8BFC2F1200CA6
:1041A00001FA02F120FA0CFCDCBF41EA0C0190405C
:1041B000E41AA2BF01EB0451294330BD6FEA0404A5
:1041C0001F3C1CDA0C340EDC04F11404C4F1200290
:1041D00020FA04F001FA02F340EA030021FA04F3A2
:1041E00045EA030130BDC4F10C04C4F1200220FAF9
:1041F00002F001FA04F340EA0300294630BD21FA37
:1042000004F0294630BD94F0000F83F4801306BFFC
:1042100081F480110134013D4EE77FEA645C18BFF0
:104220007FEA655C29D094EA050F08BF90EA020F87
:1042300005D054EA000C04BF1946104630BD91EA7F
:10424000030F1EBF0021002030BD5FEA545C05D182
:104250004000494128BF41F0004130BD14F58004C1
:104260003CBF01F5801130BD01F0004545F0FE4135
:1042700041F470014FF0000030BD7FEA645C1ABF6A
:10428000194610467FEA655C1CBF0B46024650EAA1
:10429000013406BF52EA033591EA030F41F40021CD
:1042A00030BD00BF90F0000F04BF0021704730B553
:1042B0004FF4806404F132044FF000054FF0000128
:1042C00050E700BF90F0000F04BF0021704730B5E9
:1042D0004FF4806404F1320410F0004548BF4042BE
:1042E0004FF000013EE700BF42004FEAE2014FEA13
:1042F00031014FEA02701FBF12F07F4393F07F4FEE
:1043000081F06051704732F07F4208BF704793F0F0
:104310007F4F04BF41F40021704730B54FF4607403
:1043200001F0004521F000411CE700BF50EA010206
:1043300008BF704730B54FF000050AE050EA0102AF
:1043400008BF704730B511F0004502D5404261EB1F
:1043500041014FF4806404F132045FEA915C3FF460
:10436000D8AE4FF003025FEADC0C18BF03325FEAFD
:10437000DC0C18BF033202EBDC02C2F1200300FAAE
:1043800003FC20FA02F001FA03FE40EA0E0021FAD3
:1043900002F11444BDE600BF70B54FF0FF0C4CF4C1
:1043A000E06C1CEA11541DBF1CEA135594EA0C0F73
:1043B00095EA0C0F00F0DEF82C4481EA030621EAAE
:1043C0004C5123EA4C5350EA013518BF52EA0335E9
:1043D00041F4801143F4801338D0A0FB02CE4FF09B
:1043E0000005E1FB02E506F00042E0FB03E54FF0CB
:1043F0000006E1FB03569CF0000F18BF4EF0010EC3
:10440000A4F1FF04B6F5007F64F5407404D25FEABE
:104410004E0E6D4146EB060642EAC62141EA555171
:104420004FEAC52040EA5E504FEACE2EB4F1FD0CB3
:1044300088BFBCF5E06F1ED8BEF1004F08BF5FEA31
:10444000500E50F1000041EB045170BD06F00046E3
:1044500046EA010140EA020081EA0301B4EB5C0490
:10446000C2BFD4EB0C0541EA045170BD41F4801188
:104470004FF0000E013C00F3AB8014F1360FDEBFAD
:10448000002001F0004170BDC4F10004203C35DA89
:104490000C341BDC04F11404C4F1200500FA05F30C
:1044A00020FA04F001FA05F240EA020001F00042AD
:1044B00021F0004110EBD37021FA04F642EB060123
:1044C0005EEA430E08BF20EAD37070BDC4F10C044D
:1044D000C4F1200500FA04F320FA05F001FA04F211
:1044E00040EA020001F0004110EBD37041F10001FD
:1044F0005EEA430E08BF20EAD37070BDC4F1200508
:1045000000FA05F24EEA020E20FA04F301FA05F26F
:1045100043EA020321FA04F001F0004121FA04F217
:1045200020EA020000EBD3705EEA430E08BF20EAE7
:10453000D37070BD94F0000F0FD101F00046400021
:1045400041EB010111F4801F08BF013CF7D041EAA3
:10455000060195F0000F18BF704703F000465200A7
:1045600043EB030313F4801F08BF013DF7D043EA78
:104570000603704794EA0C0F0CEA135518BF95EA2E
:104580000C0F0CD050EA410618BF52EA4306D1D1B5
:1045900081EA030101F000414FF0000070BD50EAD4
:1045A000410606BF1046194652EA430619D094EA5E
:1045B0000C0F02D150EA013613D195EA0C0F05D148
:1045C00052EA03361CBF104619460AD181EA03019C
:1045D00001F0004141F0FE4141F470014FF0000054
:1045E00070BD41F0FE4141F4780170BD70B54FF0EF
:1045F000FF0C4CF4E06C1CEA11541DBF1CEA13556F
:1046000094EA0C0F95EA0C0F00F0A7F8A4EB050450
:1046100081EA030E52EA03354FEA013100F0888047
:104620004FEA03334FF0805545EA131343EA126310
:104630004FEA022245EA111545EA10654FEA0026C5
:104640000EF000419D4208BF964244F1FD0404F57E
:10465000407402D25B084FEA3202B61A65EB0305DA
:104660005B084FEA32024FF480104FF4002CB6EB97
:10467000020E75EB030E22BFB61A754640EA0C0017
:104680005B084FEA3202B6EB020E75EB030E22BF57
:10469000B61A754640EA5C005B084FEA3202B6EB98
:1046A000020E75EB030E22BFB61A754640EA9C0057
:1046B0005B084FEA3202B6EB020E75EB030E22BF27
:1046C000B61A754640EADC0055EA060E18D04FEAE5
:1046D000051545EA16754FEA06164FEAC30343EA85
:1046E00052734FEAC2025FEA1C1CC0D111F4801F52
:1046F0000BD141EA00014FF000004FF0004CB6E74B
:1047000011F4801F04BF01430020B4F1FD0C88BFE9
:10471000BCF5E06F3FF6AFAEB5EB030C04BFB6EBF4
:10472000020C5FEA500C50F1000041EB045170BDE7
:104730000EF0004E4EEA113114EB5C04C2BFD4EB14
:104740000C0541EA045170BD41F480114FF0000E98
:10475000013C90E645EA060E8DE60CEA135594EA14
:104760000C0F08BF95EA0C0F3FF43BAF94EA0C0F17
:104770000AD150EA01347FF434AF95EA0C0F7FF48C
:1047800025AF104619462CE795EA0C0F06D152EAE0
:1047900003353FF4FDAE1046194622E750EA4106C4
:1047A00018BF52EA43067FF4C5AE50EA41047FF4D5
:1047B0000DAF52EA43057FF4EBAE12E74FF0FF3C3A
:1047C00006E000BF4FF0010C02E000BF4FF0010C0B
:1047D0004DF804CD4FEA410C7FEA6C5C4FEA430C84
:1047E00018BF7FEA6C5C1BD001B050EA410C0CBFD3
:1047F00052EA430C91EA030F02BF90EA020F002035
:10480000704710F1000F91EA030F58BF994208BF9B
:1048100090422CBFD8176FEAE37040F00100704758
:104820004FEA410C7FEA6C5C02D150EA013C07D1AF
:104830004FEA430C7FEA6C5CD6D152EA033CD3D0FA
:104840005DF8040B704700BF8446104662468C46F4
:104850001946634600E000BF01B5FFF7B7FF002827
:1048600048BF10F1000F01BD4DF808EDFFF7F4FF50
:104870000CBF012000205DF808FB00BF4DF808EDDB
:10488000FFF7EAFF34BF012000205DF808FB00BFFE
:104890004DF808EDFFF7E0FF94BF012000205DF820
:1048A00008FB00BF4DF808EDFFF7CEFF94BF0120D5
:1048B00000205DF808FB00BF4DF808EDFFF7C4FFCE
:1048C00034BF012000205DF808FB00BF4FEA410221
:1048D00012F5001215D211D56FF47873B3EB625252
:1048E00012D94FEAC12343F0004343EA505311F079
:1048F000004F23FA02F018BF404270474FF000000B
:10490000704750EA013005D111F0004008BF6FF048
:10491000004070474FF00000704700BF4A0011D2BE
:1049200012F5001211D20DD56FF47873B3EB625209
:104930000ED44FEAC12343F0004343EA505323FA15
:1049400002F070474FF00000704750EA013002D18A
:104950004FF0FF3070474FF00000704707EE900AAD
:10496000F5EEC07AF1EE10FA01D400F00BB8F1EEDA
:10497000677A08B517EE900A00F004F8404261EB40
:10498000410108BDD0B5FFF7AFFC0C4B0022064635
:104990000F46FFF701FDFFF7C1FF0446FFF782FC5A
:1049A000074B0022FFF7F8FC02460B46304639461B
:1049B000FFF73AFBFFF7B2FF2146D0BD0000F03D04
:1049C0000000F041D0B50C4B002206460F46FFF721
:1049D000E3FCFFF7A3FF0446FFF764FC074B00224C
:1049E000FFF7DAFC02460B4630463946FFF71CFB60
:1049F000FFF794FF2146D0BD0000F03D0000F041DC
:104A000010F8012B11F8013B012A28BF9A42F7D078
:104A1000D01A7047034613F8012B002AFBD1181A4D
:104A20000138704738B50022002304460D46FFF7D1
:104A300025FF28B920462946BDE83840FFF7C2BF08
:104A4000204605F10041FFF7BDFF404261EB410107
:104A500038BD00BF09480A49884208B505D0094A4F
:104A6000824202D0121A06F006FA0748074A0021CD
:104A7000121A06F028FA014808BD00BF30D1032001
:104A8000C8E00B005CD3032060D30320F4E70320CD
:104A900070B5074E074C04F0C3FEA41BA408002504
:104AA000AC4200D170BD56F8043B98470135F7E79A
:104AB00074E00B00A4E00B0001F0EAB808B501F0C7
:104AC0007DF9BDE8084004F063BE02F0FBBF02F0D0
:104AD000F9BF02F0FFBF0078B0FA80F040097047DC
:104AE000012303707047000008B5044B01221A70BF
:104AF00002F0FAFC024B186008BD00BF7DD3032012
:104B0000E8DC032008B502F0EFFC0C490B68C31A7F
:104B1000642B11D90A4AB2FBF3F30A4A0860136006
:104B2000094B1978094B1A6852F82130013342F8C1
:104B30002130074B01221A7008BD00BF2CD403207E
:104B400080EE360094D40320A4D403209CE10320FB
:104B500082D30320436913B183690C30184770472F
:104B600013B500210446084602F068FD00232046E4
:104B700001A9019302F07AFD019C0CB1012323717C
:104B80000021012002F05AFD2CB1236820469B68C9
:104B900098470023237102B010BD012A02D10160A1
:104BA00000207047022A04BF0B680360F8E703681F
:104BB000184707B5806830B10023CDE900131A46C5
:104BC000022102F05BFD03B05DF804FB30B5054641
:104BD00085B00C4611460392FFF7EBFFA86830B191
:104BE0000023CDE90043039A194602F047FD05B0C2
:104BF00030BD00002DE9F34104F03AFD264FDFF807
:104C00009C80387004F040FDC6B204F049FD0546B2
:104C100004F052FD6FF0004104464046FFF7C9FF23
:104C2000D8F8080078B16FF00041EDB20022CDE96C
:104C30000012C6F13C034EF66021ED4301FB035325
:104C4000032102F01BFD154800226FF00041FFF721
:104C5000BDFF3B780D2B14D1114A1168E4B2A1427B
:104C600003D014600F4A012111703EB90E4A116839
:104C70008B421FBF13600D4B01221A7002B0BDE8BA
:104C8000F081002BF1D10A4A1168E4B2A142ECD0C4
:104C90001460084AE7E700BFA4D4032080E10320A2
:104CA00060D103207CD3032068D1032083D3032069
:104CB00064D103207ED303200EB403B503AB0021DF
:104CC00053F8042B019304F0FEFB02B05DF804EBF3
:104CD00003B07047000000002DE9FF470546084675
:104CE0000C46FFF797FE2946064601A806F031F963
:104CF00005F050F93C493D4D04F0B3FB3C4901A897
:104D000006F0B4FF06F0A3F8214605EB402006F0BC
:104D100011F9B6F5007F14D205F03CF93549364F4C
:104D20002A46FFF7C9FF3549284606F09FFF0FF2D4
:104D3000A009D9E900890024002628B9304B0122B6
:104D40001A7004B0BDE8F087062CDFF8B8A04FEA6F
:104D5000C40519DC06F078F8DAF80030324651EC78
:104D6000100B1D443B46FFF741FC1BA3D3E9002376
:104D7000FFF75CF90134C5E900012049002006F085
:104D800075FF182CD9D1D9E7A4F11103042B0DD844
:104D900006F05AF8DAF80030324651EC100B1D4498
:104DA0003B46FFF723FC42464B46E1E706F04CF852
:104DB000DAF80030324651EC100B1D443B46FFF749
:104DC00015FC07A3D3E90023D2E700BFAFF30080AF
:104DD00004560E2DB29DFE3F44FAEDEBC039CB3F99
:104DE000EFC9C342AD69E43F08D00B007CDD03206E
:104DF00018D00B0020D00B0000408F4024D00B00B7
:104E000061D303209CD403200EB403B503AB01216E
:104E100053F8042B019304F056FB02B05DF804EB49
:104E200003B0704710B58368044613B103220146EE
:104E30009847204610BD000038B50F4B03608368CB
:104E400004469BB16FF00041FFF7B3FEA06800215C
:104E500002F034FC237903F0FF0513B102F0E6FB06
:104E6000F8E7A068294602F0F9FBA56004F10C0000
:104E7000FFF7D8FF204638BD2CD50B0010B50446EF
:104E8000FFF7DAFF20461C21FFF723FE204610BD66
:104E900070B590B003F00AFC022103F058FC03F057
:104EA00005FC03F04DFC03F001FC3E4A3E4C01467C
:104EB0000BA804F085F90BA803F0FDFC03F0F6FB4A
:104EC0003A4A01460BA804F07BF90BA803F0F3FC67
:104ED00003F0ECFB364A01460BA804F071F90BA86D
:104EE00003F0E9FC03F0E2FB324A01460BA804F0B0
:104EF00067F90BA803F0DFFC03F0D8FB2E4A01464C
:104F00000BA804F05DF90BA803F0D5FC03F0CEFB71
:104F10002A4A01460BA804F053F90BA803F0CBFC76
:104F200003A803F0FEFD264B03A8196803F00CFE4E
:104F30000FCC06AD0FC506AD0FCD26680BAC0FC468
:104F40000BA8266003F0C0F904460BA80CBB03F0C5
:104F5000D7F90094ADF80A0002230DF10A020321EB
:104F600003A803F0D3FD03F0A1FB002203A903F083
:104F700035FC05F00FF8134904F073FA03F096FBC3
:104F80001149002204F01EF8039802F0A3FD10B0AE
:104F900070BD03F0B7F900230093024610230721E8
:104FA000DEE700BF84D30320B0D3032074D30320F3
:104FB00064D303206CD303208CD3032094D3032029
:104FC00044D1032027D00B00E94A0B000000000069
:104FD0002DE9F04F2DED028B9FED517B9BB0DFF85B
:104FE0006491019206460F468B464FF0000A4FF03F
:104FF0000008B0EE478AF0EE678A019B9A4516DA00
:10500000FBE8024553EC182B20462946FFF754FCD9
:1050100008B145EC184B42464B4620462946FFF75F
:105020002DFC08B1A046A9460AF1010AE5E742466F
:105030004B4651EC180BFEF7F7FF40A3D3E90023D2
:10504000FFF7AAF942464B46FEF7F0FF00258246DD
:105050008B462C46019B9D4215DAF7E80201524629
:105060005B46FFF70BFC60B11AAB03EB840343F81C
:10507000605C04F08FFF22462B492B46FFF71CFE95
:1050800001340135E6E704F085FF53EC182B27497E
:10509000FFF712FE04F07EFF254942464B46FFF71C
:1050A0000BFE04F077FF2349FFF706FE6CB30023E5
:1050B0001D46371D1AAA02EB830252F8602C46F8EF
:1050C000352002AA02EB8300026850F8041F013960
:1050D0008A4203F10103F7D00132A34247F8352099
:1050E00005F101020FDDDFF860800024AC420CD036
:1050F00004F050FF57F8343056F834204146FFF79B
:10510000DBFD0134F2E71546D4E70B4B01222046C4
:105110001A701BB0BDEC028BBDE8F08FAFF30080BE
:1051200000000000000000004BD00B0063D00B001B
:1051300081D00B009ED00B0081D303203333333357
:105140003333D33F00408F40DCD00B00F0B5134920
:105150001348144E124D144F85B002F069FE00241E
:1051600033680A2253F82410684602F073FE694639
:10517000284602F099FE684602F0BCFD172C03D0C9
:105180003946284602F094FE0134182CE8D107492C
:10519000034805B0BDE8F04002F08ABEEAD00B003B
:1051A000A0E103209CE10320F9D00B00FBD00B0011
:1051B000F0B585B08F49904E904F914D684602F002
:1051C000D5FE69468E4802F02BFE684602F092FD3D
:1051D0000024336803EBC403D3E90023394668464F
:1051E00002F0C4FE6946284602F05EFE684602F000
:1051F00081FD172C0AD08349684602F0B7FE694644
:10520000284602F051FE684602F074FD0134182C65
:10521000DFD17D497D4E794F7D4D684602F0A6FE77
:105220006946774802F040FE684602F063FD79491E
:10523000684602F09BFE6946754802F0F1FD68463B
:1052400002F058FD0024336803EBC403D3E90023C4
:105250003946684602F08AFE6946284602F024FE76
:10526000684602F047FD172C0AD06649684602F0EE
:105270007DFE6946284602F017FE684602F03AFDB8
:105280000134182CDFD16049634E5C4F634D684692
:1052900002F06CFE69465E4802F006FE684602F0C7
:1052A00029FD5F49684602F061FE69465B4802F0ED
:1052B000B7FD684602F01EFD0024336803EBC4030B
:1052C000D3E900233946684602F050FE6946284675
:1052D00002F0EAFD684602F00DFD172C0AD049499C
:1052E000684602F043FE6946284602F0DDFD684646
:1052F00002F000FD0134182CDFD14349494E4A4FDA
:105300004A4D684602F032FE6946444802F0CCFD40
:10531000684602F0EFFC4649684602F027FE6946FF
:10532000424802F07DFD684602F0E4FC0024336848
:10533000394653F82420684602F018FE694628468C
:1053400002F0B2FD684602F0D5FC172C0AD02D49B8
:10535000684602F00BFE6946284602F0A5FD684645
:1053600002F0C8FC0134182CE1D12749314E2E4FF0
:10537000314D684602F0FAFD69462C4802F094FD72
:10538000684602F0B7FC2D49684602F0EFFD694619
:10539000294802F045FD684602F0ACFC0024336861
:1053A000394653F82420684602F0E0FD6946284655
:1053B00002F07AFD684602F09DFC172C0AD01149D4
:1053C000684602F0D3FD6946284602F06DFD684646
:1053D00002F090FC0134182CE1D168460A4902F031
:1053E000C5FD6946144802F05FFD684602F082FC84
:1053F00005B0F0BDFED00B00A0D4032013D10B00EC
:105400000CDD0320F9D00B00FBD00B0098D4032057
:10541000ECDC032019D10B009CD40320FCDC03201E
:105420002AD10B00B0E10320DCD90B00B4E103204A
:105430003ED10B009CE10320A0E1032051D10B00E1
:105440002DE9FF412049214FDFF89080204E05468D
:10545000684602F08BFD69461D4802F0E1FC684693
:1054600002F048FC00243B68414653F8242068467B
:1054700002F07CFD6946304602F016FD684602F0F7
:1054800039FC172C0AD01349684602F06FFD6946B3
:10549000304602F009FD684602F02CFC0134182C5D
:1054A000E1D168460C4902F061FD6946084802F006
:1054B000FBFC684602F01EFC0549284602F0A5FCEC
:1054C000284604B0BDE8F08151D10B009CE10320D7
:1054D000A0E10320F9D00B00FBD00B00DCD90B00BE
:1054E0002DE9F843C02002F0EDFA384D286028B9C4
:1054F00004F050FD3649FFF7DFFBFEE7C02002F065
:10550000E1FA344C206028B904F044FD3249FFF739
:10551000D3FBFEE7C02002F0D5FA304E306028B948
:1055200004F038FD2E49FFF7C7FBFEE704F032FD1B
:105530002C49DFF8C4804FF41072FFF7BDFB6020E8
:1055400002F0C0FAC8F8000028B904F023FD26498B
:10555000FFF7B2FBFEE7602002F0B4FADFF89C90A0
:10556000C9F8000028B904F015FD2049FFF7A4FB95
:10557000FEE704F00FFD1E49C022FFF79DFB04F07B
:1055800009FD074602F046FB1A4902463846FFF776
:1055900093FB2868C022002105F095FC2068C022FA
:1055A000002105F090FC3068C022002105F08BFC42
:1055B000D8F800006022002105F085FCD9F8000031
:1055C0006022BDE8F843002105F07DBCA0D4032093
:1055D00060D10B0098D403208ED10B009CD4032003
:1055E000B8D10B00E5D10B0017D20B003FD20B0056
:1055F0006BD20B0096D20B009CE10320B0E103209C
:1056000008B50C4A0C4B1168186819600B4B1968E7
:105610001160C0220021186005F055FC084A094BB2
:105620001068196811601860BDE808406022002108
:1056300005F049BC98D40320A0D403209CD40320B7
:10564000B0E103209CE1032038B5046805467CB135
:105650006368013B63605BB9236820469B68984799
:10566000A368013BA3601BB923682046DB68984709
:10567000284638BD2DE9F0418AB005460E4604F0B3
:1056800089FC1849184FFFF717FB184902A802F0C8
:105690007CFB002405F10408B44210DA58F83430D9
:1056A00055F83420394606A802F060FC06A902A885
:1056B00002F0FAFB06A802F01DFB0134ECE70C4BEC
:1056C000029A1B780B498DF8003006A83C2304F0A1
:1056D00005FA07A8FFF7B8FF02A802F00BFB0AB013
:1056E000BDE8F081A1D20B00C8D20B00AAD20B00FA
:1056F00028D40320D7D20B0082B0F0B58FB015ADFF
:1057000015930023C0E90033064694460F460FCD9B
:1057100004AC0FC42B6823601AAD0FCD09AC0FC4C5
:105720002B682360209B02931F9B019309AB00937E
:10573000304604AB6246394603F0EAFB30460FB010
:10574000BDE8F04002B070472DE9F04F904B914D0D
:10575000DFF8DCB2DFF8DCA2DFF8DC924FF0010802
:1057600083F800808C4B93B01968284602F04AFEFB
:105770008A4B5846196802F045FE894B5046196815
:1057800002F040FE874B4846196802F03BFE864B0C
:105790008648196802F036FE854B8648196802F083
:1057A00031FE854B85481968002402F02BFECDE9B7
:1057B00009442E460FCE10270DEB070CACE80F0066
:1057C0003368CCF800300BF104030FCB8DE80F00E9
:1057D000DBF800307A497B483A46FFF78DFFCDE988
:1057E0000944AE46BEE80F000DEB070CACE80F0015
:1057F0003368CCF800300AF104030FCB8DE80F00BA
:10580000DAF80030704971483A46FFF775FFCDE984
:105810000944AE46BEE80F000DEB070CACE80F00E4
:105820003368CCF8003009F104030FCB8DE80F008A
:10583000D9F80030664967483A46FFF75DFFCDE981
:105840000944AE46BEE80F000DEB070CACE80F00B4
:105850003368CCF80030554B04330FCB8DE80F0084
:10586000524B5D491B685D483A46FFF745FFCDE95D
:105870000944AE46BEE80F000DEB070CACE80F0084
:105880003368CCF800304B4B04330FCB8DE80F005E
:10589000484B53491B6853483A46FFF72DFFCDE963
:1058A00009440FCD0DEB070CACE80F00434D3368F6
:1058B000CCF800302B1D0FCB8DE80F004A4E2B6823
:1058C0004A494B4D4B483A46FFF716FF4A4801F00C
:1058D00031FB2946304602F058FAF01904F0A4FAD8
:1058E000294606F1280002F050FA294606F13C004C
:1058F00002F04BFA2946414802F047FA03F0B8FE9D
:105900003F4B294618703F4802F03FFA29463E486F
:1059100002F03BFA29463D4802F037FA29463C4856
:1059200002F033FA29463B4802F02FFA3A4B0E9325
:105930000EAD3A4B3A4A1A6095E8030003F10C02A7
:105940000CAE86E8030092E8030085E8030096E8C1
:10595000030082E80300334A5A619A691192324A7D
:105960009A611C719C60314A10944EF6602103F1DB
:105970000800CDE9008401F069FE2846FFF752FADD
:105980002146404613B0BDE8F04F01F0CFBF00BF45
:1059900028D40320B0D303206CD1032070D103207E
:1059A00038D1032030D1032034D10320ECD303209D
:1059B0003CD10320D8D3032040D1032014D40320AA
:1059C000E7D20B0084D30320F0D20B0074D3032062
:1059D000FED20B0064D3032008D30B006CD303204A
:1059E00015D30B008CD303201CDD03201FD30B0029
:1059F000BED60B0094D30320A8D403206CDD032073
:105A0000A4D40320ECDC0320FCDC03200CDD032009
:105A1000A0E10320B4E10320F54B0B0080E103205B
:105A20002CD50B009B4B0B00AF4B0B00614B0B00BD
:105A30009CD3032000D40320C4D303200000000023
:105A40002DE9F04F99B07E497E4D044610A802F032
:105A50009CF903F045FE039003F03AFE039A7A495D
:105A60000094034614A802F081FA14A910A802F0C9
:105A70001BFA14A802F03EF97449754C10A802F004
:105A800017FA7449284602F0D3F950231099AB63F2
:105A900005F1280002F0CCF96F4B00936F48704B72
:105AA0002246294601F07CFA2368C82B26D104F04F
:105AB00071FA6C4903F0D5FC04F06CFA616803F0EC
:105AC000D0FC221D684904A801F09AFB664904AA8B
:105AD00014A801F09CFB654914A802F0FAF90446E9
:105AE00014A802F007F9B4B104F054FA604903F0C5
:105AF000B8FC002404A801F099FB05E004F04AFA80
:105B00005C4903F0AEFC002410A802F0F3F8204634
:105B100019B0BDE8F08F584904A801F0C9FB00286E
:105B200070D0554A04A907A801F048FC04F032FAE5
:105B30002246054607A914A801F060FC14A92846CE
:105B400003F099FC14A801F071FB37A7D7E90067AF
:105B50000FF2DC09D9E90089224607A90AA801F059
:105B60004DFC464A0AA90DA801F028FC0DAA3E49A1
:105B700014A801F04CFB3D4914A802F0AAF905460F
:105B800014A802F0B7F80DA801F050FB5DB104F0C5
:105B900001FA3B4903F065FC0AA801F047FB07A89E
:105BA00001F044FBA5E7354A364D0AA914A801F0D7
:105BB00005FC14A801F068FB2B6851EC100B03EBFB
:105BC000C40A0022304BFEF711FDCAE9000114A8F7
:105BD00001F02CFB2B684FEAC40B062C9B4415DC10
:105BE00015A3D3E90023DBE90001FEF71FFA013416
:105BF000CBE900010AA801F019FB182CACD107A8C9
:105C000001F014FB214B01241C7073E7A4F1110374
:105C1000042BDBE9000199BF42464B4632463B4626
:105C2000E3E700BFAFF30080EFC9C342AD69E43FD3
:105C300004560E2DB29DFE3F44FAEDEBC039CB3F2A
:105C40002DD30B001CDD032073D30B0080D30B007E
:105C500068DD0320CED30B00E7D30B00A8D40320CC
:105C600048D10320EBD30B0060E6032005D40B00E2
:105C70001CD40B000FD40B0032D40B003AD40B0011
:105C800047D40B009CD4032000408F4061D30320F5
:105C900030B53D4B01228FB01A7001F0E3FE10B910
:105CA00001F0D8FEF9E701F0DDFE002001F0F2FE80
:105CB0000024FFF7EDF8FFF713FCB7EE000A03F03E
:105CC00089FC3249324801232246CDE9004401F0E3
:105CD000D9FE04F05FF9054603F0CAFC039003F017
:105CE000D3FC039A2B4903462846FEF7E5FF2246DC
:105CF0006FF000412848FEF769FF04F04BF927498F
:105D0000054605A804F0CAFD05A804F0A3FD244932
:105D100002462846FFF778F804F03CF92149224D65
:105D2000FEF7CAFF03F0C8FC0138FFF789FEFFF752
:105D300067FC04F02FF91D49FEF7BEFF03F0BCFC21
:105D4000FFF77EFEFFF75CFC03F092FC0C2812DDEF
:105D5000174B2C7001221A700321082004F0CAFE90
:105D60000023009313494FF0FF330122082004F071
:105D700039F90FB030BD04F00DF90F490D22FEF7CF
:105D80009BFF01232B70E7E780D30320D94C0B0046
:105D900058D40B005FD40B0080E1032010E70320F0
:105DA00079D40B0081D40B0061D30320A3D40B0062
:105DB0007CD30320054B0B00C1D40B0070B55B4CAA
:105DC0002378C6B04BB15A4B01221A7003F074FC11
:105DD0000130FFF735FE00232370564C564D2378D3
:105DE00033B3FFF7E5F9554B554819681822FFF70B
:105DF000EFF8544B186004F0CDF8064603F038FC79
:105E0000019003F041FC019A4F4903463046FEF7EA
:105E100053FF01232B70002323704A4B4848196815
:105E2000FFF728FC494B01221A7000232B7002E077
:105E30002B78002BF1D1464D2B7833B304F0AAF820
:105E40004449FEF739FF444B1E6803F011FC56F835
:105E500020304249013346F82030414B06A81A68E9
:105E600001F048FE0023FF2206A93E4802F008FB8D
:105E700002A8FFF7E5FA002202A93B4802F060FB06
:105E800002A801F037FF00232B70384D2B782BB17F
:105E9000FFF7B6FB00232B7001232370344C2378CB
:105EA0001BB1FFF753F900232370324C257801F022
:105EB0001BFB314B1B68C01A40F6B83398422ED9F1
:105EC0006DB3FFF775F9264B24491A6806A801F04F
:105ED00011FE0023FF2206A9224802F0D1FA274929
:105EE0002748002202F02CFB26492748002202F016
:105EF00027FB26492648002202F022FB2549264896
:105F0000002202F01DFB25491748002202F018FB71
:105F10000023237004F03EF82149FEF7CDFE4FF434
:105F20007A7046B0BDE8704003F0F0BB7CD303202C
:105F300060D3032061D3032081D3032098D40320AE
:105F400030D4032090D403205FD40B007FD30320F0
:105F500082D30320F2D40B009CE1032006D50B0072
:105F600094D4032084D303208CD303207ED3032036
:105F700083D303207DD30320E8DC03200CDD032042
:105F800074D30320ECDC032064D30320FCDC032067
:105F90006CD30320B4E1032094D30320A0E10320B9
:105FA00012D50B0070B50446054600F592662846EA
:105FB00005F5927500F015F8AE42F8D10023C4F84B
:105FC0009034204670BD30B587B0044601AD6846B8
:105FD00003F04AFF0FCD04340FC42B68237007B0C1
:105FE00030BD38B500F584750446284603F01CFF23
:105FF00000232846237084F80431C4F80031C4F823
:1060000020314FF0FF31FFF7DEFF204638BD0000A2
:106010000148FFF7C7BF00BFC4E10320002210B54D
:1060200004461046A15CA1F13003092B0BD8A0F166
:106030003003032A01EB030002F1010218BF000143
:10604000042AEFD110BDA1F14103052B02D8A0F124
:106050003703EEE7A1F16103052B02D8A0F1570346
:10606000E7E70020EEE700002DE9F84F0A688B68AB
:1060700080465D1CD018D35C222B8A46154440F024
:10608000DD804C682F460023B91AA14280F0D680EB
:10609000397822290ED1C3F10103381ADAF8102019
:1060A000184490478346002800F0C880DFF8989194
:1060B00004460FE05C2905D10137B91A8C4240F241
:1060C000BD8001330137DFE72B785C2B12D004F859
:1060D000013B0135BD42F7D3002323701023C8E9EB
:1060E000033BDAF80030FB1A0133CAF8083001200C
:1060F000BDE8F88F7A1B002A0DDD6B78752B0AD866
:106100006D2B12D8622B2BD026D82F2B29D05C2BAD
:1061100027D0222B25D0DAF8143058469847DAF8E1
:106120000000281ACAF808008BE06E3B072BF2D853
:1061300001A151F823F000BF6D610B0017610B0046
:1061400017610B0017610B0071610B0017610B00E9
:1061500075610B0079610B00662BDCD10C2300E02C
:10616000082304F8013B02231D44B3E70A23F8E7A0
:106170000D23F6E70923F4E7052ACCDDA81CFFF779
:106180004DFFA0F55C43B3F5806F0646C3D3A0F581
:106190005843B3F5806F2DD2AB1DFB1A052BBADD2A
:1061A000AB795C2BB7D1EB79752BB4D105F1080035
:1061B000FFF734FFA0F55C43B3F5806FABD209EA7B
:1061C0008626C0F30900304300F580360C234FF0DB
:1061D000F00C042000F1FF3E54FA8EFEA645F2B208
:1061E00024D1012814BF4CEA020202F07F0222707F
:1061F0000444B9E77F280AD9B0F5006F0CD3B0F595
:10620000803F0ED3B0F5881F85D20623DFE7062333
:106210004FF0000C0120DDE706234FF0C00C0220F8
:10622000D8E706234FF0E00C0320D3E702F03F024B
:1062300062F07F010EF80119B609CFE7002D7FF457
:106240006EAF002054E700BF00FC0F0010B540B156
:10625000016871B142688368934206D2CC5C202CFD
:1062600000D910BD01338360F5E7FAD1013A8260AD
:10627000F7E70846F5E710B1806800B101B970474B
:1062800000680139F9E738B5044638B1006828B12B
:10629000A5682844FEF7BEFB2844A06038BD70B551
:1062A0000446B8B1056865B1436813B1826893428A
:1062B00010D900290EDBA2684E1C1644B34202D34B
:1062C0001544284670BD236923B9B6F1804F03D326
:1062D000002E0FDA0025F4E77600236A6BB128461A
:1062E000314698470546B0B9E36920689847C4E944
:1062F0000055E6E76FF00046EFE7A36930469847A0
:1063000005460028F0D0A2682168013204F0B3FDF0
:10631000E36920689847A368C4E900561D44D0E7A4
:10632000F8B50D460446002834D0002931D08468E1
:10633000FAB9194E74B3236AC3B1AB4221D005F147
:10634000FF3C013B1CF8011F8A5D02F00302012A99
:1063500013F8012FB05C00F003000F4608BF01F1F5
:106360002007012808BF203297420FD02468E1E7B8
:1063700024687CB1216A21B12846FEF741FB002840
:10638000F6D1236A002B08BF002403E00029D9D1ED
:10639000F7E70C462046F8BDDADB0B0061B160B1CF
:1063A000836813B98160012070471A461B68002B6F
:1063B000FBD111604A60F6E7084670472DE9F84FB7
:1063C0000646084611B90020BDE8F88F36B3444FA1
:1063D00031464FF0000A01240D4611F8013B3BBB4A
:1063E000AD1B5544E91CFFF75AFF07460028EAD0C9
:1063F0004FF0220B441C05F1010905F1020880F859
:1064000000B0BAF1000F29D12A463146204604F0E7
:1064100032FD07F809B007F808A007E00321FFF7ED
:106420003EFF0028CFD02F4904F093FD0120CBE799
:10643000222B0BD8072B0CD9A3F10802D2B204FAF5
:1064400002F23A4205D00AF1010AC5E75C2BC3D13A
:10645000F9E71F2B98BF0AF1050ABDE7DFF888B0FE
:10646000013E5C254FF0740A16F8013F2BB9222239
:1064700007F8092007F80830D8E71F2B07D9222B87
:1064800005D05C2B03D023702046441CECE720464B
:1064900000F8015B32780D2A0AD8072A1AD9A2F12E
:1064A0000803052B16D8DFE803F009120E150C10AF
:1064B000222A01D05C2A0DD16270E6E76223637064
:1064C000E3E76623FBE76E23F9E77223F7E784F837
:1064D00001A0DAE7594601F00DFB601DD5E700BFCA
:1064E000370000046AD60B006DD60B0037B50546A1
:1064F00080B1FEF78FFA084B421C1B6801921046D0
:106500009847044618B1019A294604F0B4FC204685
:1065100003B030BD0446FAE774D10320F8B50D4648
:1065200014460746F0B1E9B1E2B193B1D66846F43A
:106530000076E3689B0504D4206A10B10A4B5B68BF
:1065400098472562E66021463846BDE8F840FFF7E7
:1065500025BF0846FFF7CAFF054618B1E66826F4CE
:106560000076E6E70020F8BD74D103202DE9F04362
:106570000C468DB0064608B900255DE00029FBD029
:10658000057B102D00F0C18018DC6B1E072BF3D8A3
:10659000072BF1D801A252F823F000BF27660B00A9
:1065A00041660B0079650B0011660B0079650B00E5
:1065B00079650B0079650B0051660B00402D00F0EA
:1065C000D380802D00F08D80202DD5D186680121CB
:1065D0002046FFF764FE0028CED05B230370A3683B
:1065E0000133A360E3680133E3602C274FF0000818
:1065F000002E40F0908002212046FFF750FE002838
:10660000BAD05D2303704670E368013BE36008E0A5
:1066100005212046FFF743FE0028ADD0A14904F034
:1066200098FC012508E006212046FFF738FE0028E7
:10663000A2D09D4904F08DFC28460DB0BDE8F08342
:1066400005212046FFF72BFE002895D09749E6E765
:10665000D0E906670022002330463946FDF79CFE4C
:1066600000220023FEF700F9B0B98E4905A804F016
:1066700070FC0425691C2046FFF711FE00283FF43A
:106680007BAF024605AB4619964225D10023435500
:10669000A0682844A060C4E7854932463B4605A867
:1066A00001F028FA8349054602AA05A801F02AFA52
:1066B000012806D1DDE9022330463946FEF7D4F839
:1066C00030B97D4932463B4605A801F013FA05462C
:1066D000192D3FF651AFCDE713F8011B11700132B0
:1066E000D2E7006900283FF447AFFEF793F9421C58
:1066F000114620460192FFF7D2FD00283FF43CAF3F
:10670000019A316904F0B7FB8BE700690DB0BDE871
:10671000F043FFF753BE21463046FFF727FF00281E
:106720003FF42AAF2046FFF7AEFD3368BBB1636983
:10673000002B14BF4FF002094FF0010909F10101CC
:106740002046FFF7ACFD00283FF416AF07706369E1
:106750003BB9431C83F80080A3684B44A3603668B0
:1067600046E7831C4570F5E74B698568002B14BF2D
:1067700002270127791C2046FFF791FD00283FF4EE
:10678000FBAE7B230370E26863690132E2600BB108
:106790000A234370A3683B44A36009263A27636930
:1067A00095B9002B70D0E16801312046FFF777FDE5
:1067B00000283FF4E1AE6369002B6FD103467D22D0
:1067C0001A7000225A701FE773B1E1682046FFF784
:1067D00066FD00283FF4D0AE0246E168131A9942E4
:1067E0004FD8A3680B44A360286A2146FFF7E6FD53
:1067F00000283FF4C1AE2046FFF745FD6369002B3A
:1068000014BF4FF002084FF0010841462046FFF741
:1068100046FD00283FF4B0AE0770636903B14670CF
:10682000A3684344A36021462846FFF79FFE002843
:106830003FF4A2AE2046FFF726FD2B686269B3F154
:10684000000818BF4FF00108002A18BF08F101081E
:1068500008F101012046FFF722FD00283FF48CAE2D
:106860002B6813B12C2300F8013B636913B10A2391
:1068700000F8013B00230370A3684344A3602D6824
:106880008DE702F8016BA8E702218EE703F8015BB0
:10689000E268191A013A9142F8D390E703460925B4
:1068A000F6E700BF73D60B005DD70B0078D60B0060
:1068B0007DD60B0084D60B0088D60B0070B5234D17
:1068C0008AB00E4624220021044601A804F0FBFAF7
:1068D0002B684FF4807098474FF480720346019004
:1068E000029295E8070006960AAE06E907007BB11A
:1068F00001A92046FFF73AFE50B101A8FFF7C3FCFB
:10690000AE6803995EB101980131B0470446D0B931
:10691000019CC4B120466B689847002413E02B68A3
:10692000481C984704460028F2D0039A029B01991C
:1069300001329A4228BF1A4604F09DFA039BE6549E
:1069400001986B68984720460AB070BD74D1032047
:1069500010B5034628209847044618B12822002184
:1069600004F0B1FA204610BD70B5104D044604B9CC
:1069700070BDE3682668D90503D4A06868B92069AA
:1069800088B9E3689B0503D4206A08B16B6898470F
:1069900020466B6898473446E9E7FFF7E5FFE36870
:1069A000DA05ECD5EDE76B689847EAE774D1032088
:1069B0002DE9F047064692B00C4609B9002023E0C5
:1069C0000F68002FFAD08D68D1F8048005F1040912
:1069D000C1450BD890490422781904F0E0FA28B98F
:1069E0000423F360A3680433A36082E06B1D984521
:1069F0000DD38A490522781904F0D1FA38B901205B
:106A0000F060A2680532A26012B0BDE8F087C1450F
:106A10000CD883490422781904F0C1FA30B9022352
:106A20000120F3607061A2680432ECE74545C5D2ED
:106A30007B5D222B07EB050006D12146304612B0C4
:106A4000BDE8F047FFF710BB2D2B03D0A3F13002B8
:106A5000092A63D8002302AA0193A8EB050517466B
:106A60004FF02E0E10F8011B392910D82A291BD9F6
:106A7000A1F12B0CBCF10E0F16D8DFE80CF00D15B0
:106A80000D3C150D0D0D0D0D0D0D0D0D0D0001F035
:106A9000DF0CBCF1450F07D1117001333F2B02F120
:106AA000010201D0AB42DDD112AA1344002503F844
:106AB000405C01A9384605F0CDF8DDF804A0BA45E0
:106AC00059EC108B3FF47AAF86ED060B50A3D3E957
:106AD000002310EE100A4946FDF7E4FE70B16FF096
:106AE000004373610823F360AAEB070AA7685744C1
:106AF000A760012088E782F800E0CEE7494B00223A
:106B000040464946FDF7C4FE10B14FF00043E8E7A8
:106B100040464946FDF7DAFE7061E3E75B2B50D152
:106B2000E368B3F57A7FBFF449AF0133E3607B5D7F
:106B30005B2B7FF443AF0135A5602046FFF786FB52
:106B4000D4E9012393425DD22268D25C5D2A09D147
:106B50000027E368013BE3602023C6E90273A368D2
:106B6000013341E7013B0025A3602F462069FFF771
:106B7000EFFEA8460546002800F09B80FFB1C8F84C
:106B80000000C0F80480A3680133A3602046FFF72B
:106B90005DFB21462846FFF70BFF002800F08C80A4
:106BA0002046FFF753FBD4E90123934280F0848011
:106BB0002268D35C2C2BD9D05D2B7DD1C9E7074649
:106BC000E1E77B2B7FF4FAAEE368B3F57A7FBFF49D
:106BD000F5AE0133E3607B5D7B2B7FF4EFAE0135D7
:106BE000A5602046FFF732FBD4E90123934209D286
:106BF0002268D25C7D2A17D10027E368013BE3605D
:106C00004023AAE7013BA360D8E600BFAFF30080B2
:106C10000000C0FFFFFFDF4173D60B005DD70B0004
:106C200078D60B000000E0C10025013BA3602F4691
:106C3000A8462069FFF78CFEA9460546002838D0F3
:106C4000AFB3C9F80000C0F80490A3680133A36093
:106C50002046FFF7FBFA21462846FFF705FA58B30E
:106C60002046FFF7F3FA2B692B62C5F81080D4E9B0
:106C70000123934220D22268D25C3A2A1CD10133EC
:106C8000A3602046FFF7E2FA21462846FFF790FE70
:106C900090B12046FFF7DAFAD4E9012393420BD2F0
:106CA0002268D35C2C2BC4D07D2B05D1A5E70746E9
:106CB000CBE7002F3FF482AE3846FFF755FE7DE666
:106CC0002DE9F043304F89B005460E46904600212D
:106CD0001C2201A84FF0000904F0F5F8C7E900995B
:106CE000002D48D028460195FDF794FE274B013032
:106CF000029093E8070008AB03E90700FFF728FEBE
:106D0000044668B3019870B1039B5BB9029B042BE6
:106D100006D91F49032204F042F908B9032303935B
:106D200001A800E04846FFF791FA01462046FFF728
:106D30003FFE90B1B8F1000F04D1F6B9204609B07A
:106D4000BDE8F08301A8FFF781FADDE90223934251
:106D500003D2019AD35C002BEFD02046FFF704FE4C
:106D6000DDE902329A420DD303B1013B0EB1EA18BC
:106D70003260C7E900530024E0E7019B039A134403
:106D80003360DBE71346F1E758E6032074D10320B4
:106D90008FD60B0000221146FFF792BF0021FFF7AC
:106DA0008DBD10B18368002003B970471B680130A6
:106DB000FAE7002901DBFFF75EBA002070470122E5
:106DC000FFF7AEBAFFF7EABA10B5D0B1C2B1C9B198
:106DD0008A4213D00B6813604C68546003B15A6048
:106DE000536803B11A60836899424FF0000308BFEB
:106DF0008260C1E900330846FFF7B6FD012000E0DC
:106E0000104610BD0846FCE708B5044B1868FFF7AC
:106E10009FFD08B10423C36008BD00BF74D10320E7
:106E200037B505460191FFF7EFFF01990246044689
:106E300000232846FFF772FB054618B92046FFF7E6
:106E400093FD2C46204603B030BD000008B5044B2E
:106E50001868FFF77DFD08B12023C36008BD00BF9F
:106E600074D1032008B5044B1868FFF771FD08B111
:106E70004023C36008BD00BF74D1032018B1007B5C
:106E8000B0FA80F04009704720B1C06810F00300EC
:106E900018BF0120704718B1007B031F58425841AA
:106EA000704720B1007BA0F1080358425841704759
:106EB00020B1007BA0F1100358425841704720B127
:106EC000007BA0F1200358425841704720B1007B5D
:106ED000A0F140035842584170470000014B5B68E5
:106EE000184700BF74D10320F8B506460D461F466B
:106EF0001446DAB1D1B1D3689B0503D4106A08B146
:106F0000FFF7ECFF2846FFF7F1FAE368206223F46D
:106F100000733A462946E3603046FFF701FA2246FD
:106F200001463046BDE8F840FFF74EBFF8BD0123EB
:106F3000FFF7DABF10B5044603F0DAFB204610BDB8
:106F400038B50446154602F073FA0549204602F0AA
:106F50006FFA29462046BDE8384002F082BA00BFE9
:106F6000C5D20B0038B50546144602F061FA0B494C
:106F7000284602F05DFA002C0DDA2D21284602F099
:106F80005BFA614228460A2202F07FFA2846BDE8F1
:106F9000384002F05ABA2146F4E700BFC5D20B00D0
:106FA0002DE9F04F0E4691B098464FF0FF33136035
:106FB000044600213046DDF86890174600F089FF4E
:106FC000D6F838E0034698B9BEF1000F14BF7246F8
:106FD0005022316892B2204603F08AF9051E18BF8C
:106FE0000125C5B9204611B0BDE8F04F03F036BB0E
:106FF000754B0A9306F1140CBCE80F000BAD0FC5DE
:10700000DCF800302B701FFA8EF200230AA920460C
:1070100003F04EFAE2E74946204602F009FA6B49CE
:10702000204602F005FAB16A204602F001FA6849EA
:10703000204602F0FDF96749674A2046FFF780FFC6
:107040000021304600F045FF20B9326863492046F0
:10705000FFF776FF06F13C0A0021504600F039FFA9
:1070600028B9726C5E492046FFF77CFF06E05D4957
:107070004846FDF7C5FC02460028F3D0B8F1000FE2
:107080000ED0D8F8001059B1D8F80420204622B10B
:10709000FFF756FF08F10808F3E702F0E2F9F9E715
:1070A000204602F0D2F9204603F0A6F8002150460F
:1070B00000F00FFF18B9F16B204602F0D2F904F18D
:1070C0001C0A40F624020021504603F0FCFE00F0AA
:1070D0000BFA019000F008FA4FF00008464641F222
:1070E000883B204603F060FAD8B1204603F06AF8E6
:1070F000814600F0F9F940F622039E42019004D83F
:10710000A31983F81C900136EBE740F623039E4257
:10711000F9D1002384F83F38204603F09FFAA846AF
:10712000F1E7A319187700F0DFF9019BA0EB030941
:10713000B8F1000F04D1D94502D8C82002F0E6FA10
:10714000204603F053F920B1D94502D8B8F1000F19
:10715000C7D0204603F082FA514602A800F015FE7F
:107160000C23092202A906A800F0D8FE1E490AA88D
:1071700000F00BFE0AA902A800F0CCFE04460AA803
:1071800000F0B8FD631C08D106A800F0B3FD02A80A
:1071900000F0B0FD11B0BDE8F08F3D1D1349284649
:1071A00000F046FE221D02A90AA800F0D7FE0AA997
:1071B000284600F079FE0AA800F09CFD069803F02E
:1071C00046FE3860E0E700BF34D90B00D5D20B0093
:1071D00093D60B00A5D60B009FD60B00B0D60B00A4
:1071E00038D50B00B5D60B00BAD60B00BED60B00B7
:1071F000704710B504210446FDF76BFC204610BD16
:1072000010B51146044600F063F8204610BD10B5D5
:107210001146044600F06AF8204610BD014B024AB0
:107220001A60704760E60320C8D60B0010B5054B06
:1072300003600446406818B1A3680BB9FFF794FBDC
:10724000204610BD04D70B0010B50446FFF7EEFF33
:1072500020460C21FDF73DFC204610BD38B54068A6
:107260000C4660B1FFF79AFD05460146204602F044
:10727000DFF804462846FFF731FE204638BD0446B5
:10728000FBE700000000000010B504464068FFF76F
:1072900008FE18B1636893ED060B10BD9FED020B5D
:1072A000FBE700BFAFF30080000000000000F87FA4
:1072B00013B5044640680191FFF708FE30B101990B
:1072C0006068FFF77CFD003818BF012002B010BDD8
:1072D00010B504460868FFF75DFD034BC4E90030B4
:1072E0000023A360204610BD04D70B0038B54D68BD
:1072F00004462DB91849204600F047FD204638BD08
:107300002846FFF7BBFD0028F4D12846FFF7BCFD57
:1073100008B11249EFE72846FFF7BDFD08B1104953
:10732000E9E72846FFF7BDFD08B10E49E3E7284627
:10733000FFF7BEFD08B10C49DDE72846FFF7BFFDAA
:1073400008B10A49D7E72846FFF7C0FD08B1084948
:10735000D1E70849CFE700BF05D40B00D0D60B001A
:1073600073D60B00D8D60B00DFD60B00E6D60B0089
:10737000ECD60B00F3D60B0038B5456841600446E7
:10738000DDB18068A0B1FFF7A1FD30B16268296A64
:10739000A068BDE83840FFF7CABDA068FFF78FFDC1
:1073A00058B16268A0682946BDE83840FFF70CBDB7
:1073B0002846BDE83840FFF7D7BA38BD70B5054656
:1073C00048680C461646FFF781FD28B9FFF74AFDCD
:1073D00001462046FFF7D0FF60683146FFF7EFFC1B
:1073E00018B960683146FFF71BFD034A6368AB605C
:1073F000C5E90020284670BD04D70B00F8B5064645
:1074000048680D461746FFF75AFD28B9FFF71EFDDD
:1074100001462846FFF7B0FF68683946FFF7C9FC08
:10742000044660B96868FFF7BCFCB84207DCFFF7A8
:10743000EBFC044601466868FFF7C4FCF2E7034A28
:107440006B68B360C6E900243046F8BD04D70B0072
:10745000034B044A1A600022C3E90122704700BFAF
:1074600064E6032004D70B0008B5024B1B689B6839
:10747000019308BD6802030008B5024B1B68DB6876
:10748000019308BD6802030008B5024B1B689B68A6
:10749000019308BD2C02030008B5024B1B689B69D1
:1074A000019308BD2C02030008B5024B1B68DB6981
:1074B000019308BD2C02030008B5024B1B685B69F1
:1074C000019308BD6C02030008B5024B1B685B68A2
:1074D000019308BD1802030008B5024B1B68DB6866
:1074E000019308BD1802030008B5024B1B685B69D5
:1074F000019308BD1802030008B5024B1B689B6D81
:10750000019308BD1802030008B5024B1B685B6EAF
:10751000019308BD1802030008B5024B1B685B6DA0
:10752000019308BD3402030008B5024B1B689B6839
:10753000019308BD7802030008B5024B1B681B6964
:10754000019308BD7802030008B5024B1B681B6D50
:10755000019308BD7802030008B5024B1B689B6DC0
:10756000019308BD7802030008B5024B1B681B6E2F
:10757000019308BD7802030008B5034B1B68D3F8DC
:107580009830019308BD00007802030008B5034B52
:107590001B68D3F8A830019308BD000078020300EF
:1075A00008B5034B1B68D3F8B430019308BD000045
:1075B0007802030008B5034B1B68D3F8D830019359
:1075C00008BD00007802030008B5034B1B68D3F820
:1075D000DC30019308BD00007802030008B5034BBE
:1075E0001B68D3F8EC30019308BD0000780203005B
:1075F00008B5034B1B68D3F8F030019308BD0000B9
:107600007802030008B5034B1B68D3F800310193DF
:1076100008BD00007802030008B5034B1B68D3F8CF
:107620000431019308BD00007802030008B5024B45
:107630001B68DB68019308BD4802030008B5024BD4
:107640001B68DB69019308BD4802030008B5024BC3
:107650001B681B6A019308BD4802030008B5024B72
:107660001B685B6A019308BD4802030008B5024B22
:107670001B689B6A019308BD4802030008B5024BD2
:107680001B68DB6A019308BD4802030008B5024B82
:107690001B685B6C019308BD4802030008B5024BF0
:1076A0001B68DB6C019308BD4802030008B5024B60
:1076B0001B685B6D019308BD4802030008B5024BCF
:1076C0001B681B6F019308BD4802030008B5024BFD
:1076D0001B685B69019308BD6402030008B5024B97
:1076E0001B681B6A019308BD6402030008B5024BC6
:1076F0001B689B6A019308BD6402030008B5024B36
:107700001B68DB68019308BD3C02030008B5024B0F
:107710001B681B69019308BD3C02030008B5024BBE
:107720001B685B69019308BD3C02030008B5024B6E
:107730001B689B69019308BD3C02030008B5024B1E
:107740001B68DB69019308BD3C02030008B5024BCE
:107750001B681B6A019308BD3C02030008B5024B7D
:107760001B689B6A019308BD3C02030008B5024BED
:107770001B681B6C019308BD3C02030008B5024B5B
:107780001B681B6A019308BD2802030008B5024B61
:107790001B685B6A019308BD2802030008B5024B11
:1077A0001B689B6A019308BD2802030008B5024BC1
:1077B0001B68DB6A019308BD2802030008B5024B71
:1077C0001B681B6B019308BD2802030008B5024B20
:1077D0001B685B6B019308BD2802030008B5024BD0
:1077E0001B681B6C019308BD2802030008B5024BFF
:1077F0001B689B69019308BD3802030008B5024B62
:107800001B68DB69019308BD3802030008B5024B11
:107810001B681B6A019308BD3802030008B5024BC0
:107820001B689B6A019308BD3802030008B5024B30
:107830001B681B6B019308BD3802030008B5024B9F
:107840001B689B6B019308BD3802030008B5024B0F
:107850001B68DB69019308BD3002030008B5024BC9
:107860001B681B6A019308BD3002030008B5024B78
:107870001B681B68019308BD4C02030008B5024B4E
:107880001B681B69019308BD4C02030008B5024B3D
:107890001B685B69019308BD4C02030008B5024BED
:1078A0001B689B69019308BD4C02030008B5024B9D
:1078B0001B68DB69019308BD4C02030008B5024B4D
:1078C0001B681B6A019308BD4C02030008B5024BFC
:1078D0001B685B6F019308BD7402030008B5024B7F
:1078E0001B685B6B019308BD6002030008B5024B87
:1078F0001B681B6D019308BD6002030008B5024BB5
:107900001B681B68019308BD2002030008B5024BE9
:107910001B685B68019308BD2002030008B5024B99
:107920001B685B69019308BD2002030008B5024B88
:107930001B68DB6A019308BD2002030008B5024BF7
:107940001B68DB6C019308BD2002030008B5024BE5
:107950001B685B6D019308BD2002030008B5024B54
:107960001B689B6D019308BD2002030008B5034B03
:107970001B68D3F88830019308BD00002002030083
:1079800008B5034B1B68D3F89430019308BD000081
:107990002002030008B5024B1B685B68019308BD19
:1079A0004002030008B5024B1B689B68019308BDA9
:1079B0004002030008B5024B1B68DB68019308BD59
:1079C0004002030008B5024B1B681B69019308BD08
:1079D0004002030008B5024B1B685B69019308BDB8
:1079E0004002030008B5024B1B689B69019308BD68
:1079F0004002030008B5024B1B68DB69019308BD18
:107A00004002030008B5024B1B681B6A019308BDC6
:107A10004002030008B5024B1B681B6B019308BDB5
:107A20004002030008B5024B1B685B6B019308BD65
:107A30004002030008B5024B1B681B6C019308BD94
:107A40004002030008B5024B1B685B6C019308BD44
:107A50004002030008B5024B1B689B68019308BDF8
:107A60004402030008B5024B1B685B69019308BD23
:107A70004402030008B5024B1B681B6A019308BD52
:107A80004402030008B5024B1B685B6A019308BD02
:107A90004402030008B5024B1B689B6A019308BDB2
:107AA0004402030008B5024B1B681B6B019308BD21
:107AB0004402030008B5024B1B68DB6B019308BD51
:107AC0004402030008B5024B1B681B68019308BD04
:107AD0001C02030008B5024B1B685B68019308BDDC
:107AE0001C02030008B5024B1B689B68019308BD8C
:107AF0001C02030008B5024B1B68DB68019308BD3C
:107B00001C02030008B5024B1B685B69019308BDAA
:107B10001C02030008B5024B1B685B6A019308BD99
:107B20001C02030008B5024B1B68DB6A019308BD09
:107B30001C02030008B5024B1B681B6B019308BDB8
:107B40001C02030008B5024B1B68DB6B019308BDE8
:107B50001C02030008B5024B1B681B6C019308BD97
:107B60001C02030008B5024B1B685B6C019308BD47
:107B70001C02030008B5024B1B68DB6C019308BDB7
:107B80001C020300002240681146FFF73BBF0022A1
:107B900040681146FFF746BF40680022FFF73ABF32
:107BA0004068002281F00101FFF724BF00234068F4
:107BB0001A461946FFF716BF002340681A461946B1
:107BC000FFF708BF002240681146FFF7FBBE002206
:107BD00040681146FFF7E6BE406800220221FFF729
:107BE000E9BE002340681A46FFF7D4BE024B0322C9
:107BF0005A60024A1A60704770E6032018D70B00DB
:107C000010B5044608462170FFF720FE002363608C
:107C1000204610BD10B5202488B0224600216846B9
:107C200003F051F900216846ADF80040FFF774FCFD
:107C3000019808B010BD0000054B02221A60054BE8
:107C4000054A9A600020C3E90000FFF75FBE00BF4D
:107C500084E6032078E603200000FFFF10B5044609
:107C6000FCF7D8FE013823182046834206D9027853
:107C7000197800F8011B03F80129F6E710BD70B56B
:107C80000C46911E22291DD8254630B923443022A6
:107C90009D4210D205F8012BFAE7B0FBF2F602FB89
:107CA0001600C1B2092894BF30315731C9B205F866
:107CB000011B3046E9E7002320462B70FFF7CEFF7B
:107CC000204670BD0020FCE738B5031E0C46154663
:107CD0000EDAB3F1004F4FF02D0214BF5842184690
:107CE00001230A702A461944FFF7C9FF204638BD10
:107CF0000123F9E710B504460068FFF7EBFE2046C4
:107D000010BD10B50446006808B1FFF7E3FE00237C
:107D1000C4E90133236010BD38B504460D46006840
:107D20000131FFF7DFFE10B1C4E90005012038BDC5
:107D300010B50368044623B143688B4201D3012088
:107D400010BD2046FFF7E8FF0028F9D0A368002BFC
:107D5000F5D122681370F2E737B50D46114601924E
:107D60000446FFF7E5FF019A28B92046FFF7C9FF4F
:107D7000204603B030BDA2602946206803F07BF89E
:107D80002268A3680021D154F2E7002313B5C0E9AB
:107D9000003304468360037341B108460191FCF748
:107DA00039FE019902462046FFF7D6FF204602B071
:107DB00010BD38B5054600680C4668B16A688B6826
:107DC0009A4207D3096803F0C4F8A368AB600023A4
:107DD000A36038BDFFF77EFE23682B6063686B608D
:107DE000A368AB600023C4E90033F1E7884210B513
:107DF000044605D00B682BB18A681946FFF7ACFF23
:107E0000204610BDFFF77DFFFAE710B500230446BA
:107E1000C0E9003383600373FFF7E8FF204610BD1D
:107E2000884210B5044601D0FFF7C3FF204610BDBD
:107E300013B5044659B108460191FCF7EBFD0199D1
:107E400002462046FFF788FF204602B010BDFFF72C
:107E500058FFF9E710B504468AB00023C4E900339F
:107E6000A3602373084601A9FFF72EFF01A920464E
:107E7000FFF7DEFF20460AB010BD70B505460E467E
:107E800009B9002070BD6AB1846814442146FFF727
:107E90004FFF0028F5D02868AB683146184403F03E
:107EA00058F8AC600120EDE78A680968FFF7E5BF84
:107EB00013B50446084651B10191FCF7ABFD019999
:107EC0000246204602B0BDE81040FFF7D6BF02B020
:107ED00010BD08B582683AB921B10878B0FA80F0CF
:107EE000400900E0012008BD006809B90078F5E705
:107EF000FCF786FDF2E710B58368934207D9046862
:107F00000968A01803F06BF808B1001B10BD4FF012
:107F1000FF30FBE70022FFF7EEBF0000F8B59A4202
:107F20000F461D460C4988BF13461446064684BFBB
:107F30002C461D46FFF729FFBB68A3420AD33968C8
:107F4000AB4294BFC4EB0302C4EB050221443046AC
:107F5000FFF702FF3046F8BDBED60B0010B5044651
:107F60008B68FFF7DBFF204610BD00000EB470B534
:107F700087B00BAD044655F8042B01922B46052122
:107F800004A80395FFF7C6FD0B4906462046FFF7F8
:107F9000FCFE31462046FFF7CBFE206830B1019A47
:107FA00003952B46711CFFF7B5FDA060204607B076
:107FB000BDE8704003B07047BED60B0070477047F5
:107FC00070477047064B994210B500F10C0405D07C
:107FD000084602F021FE002808BF0024204610BDFC
:107FE000C8D80B00064B994210B500F10C0405D01F
:107FF000084602F011FE002808BF0024204610BDEC
:10800000C8D80B00064B994210B500F10C0405D0FE
:10801000084602F001FE002808BF0024204610BDDB
:10802000C8D80B0010B568210446FCF752FD204665
:1080300010BD10B528210446FCF74BFD204610BDAD
:1080400010B530210446FCF744FD204610BD6821E0
:10805000FCF73FBD2821FCF73CBD3021FCF739BDC2
:10806000F0B50025EC1C8C420DD86E1C445D875D7C
:10807000974205D12644B14205D31D60601CF0BD76
:1080800001342544EEE70020F9E70000024A0349E5
:108090000A20FFF723BC00BFD9740B004CD70B009C
:1080A000034608461B68D3E90021104730B40D464B
:1080B00011461A46036809682868D3E90043A446B4
:1080C00030BC6047012A38B5044602D10B682360F2
:1080D00003E0022A03D0032A0DD0002038BD082077
:1080E0000D68FCF7F2FC03460028F0D095E8030089
:1080F00083E80300EBE700680028EED00821FCF7D6
:10810000E8FCEAE7012A38B5044602D10B6823608F
:1081100003E0022A03D0032A0DD0002038BD082036
:108120000D68FCF7D2FC03460028F0D095E8030068
:1081300083E80300EBE700680028EED00821FCF795
:10814000C8FCEAE710B504465830FCF76BFE04F1B2
:108150004800BDE81040FFF7CDBD10B54368013BB6
:108160000446436063B903689B689847A368013B72
:10817000A3602BB923682046DB68BDE81040184790
:1081800010BDA0F13003DAB2092A01D818467047B1
:10819000A0F16103052B01D857387047A0F14103C6
:1081A000052B94BF37384FF0FF30704710B50023D0
:1081B0000370044B04461868FFF770FA012323701C
:1081C000204610BD90E6032010B5037804461BB18D
:1081D000024B1868FFF76AFA204610BD90E60320AC
:1081E00082B00346086849686A4603C26A4603CA01
:1081F00018601846596002B0704708B582798B79CB
:108200009A4206D1062202F026FEB0FA80F040091A
:1082100008BD0020FCE74FF0FF330360838000209F
:10822000704708B50246002101604160FFF7F3FF87
:108230009171104608BD000010B501230361054B84
:10824000024603F1100153F8044B42F8044B8B42F1
:10825000F9D110BDE2CF0B0010B50B460446B1B109
:10826000012A01F110020AD1014653F8040B41F82A
:10827000040B9342F9D101232361204610BD411E16
:1082800012F8010D01F8010F9A42F9D1F3E710221B
:1082900002F019FEF1E738B5044615461A46FFF715
:1082A000DBFFA581204638BD08B5026922B9808967
:1082B000003818BF012008BD0249102202F0CBFD92
:1082C000F6E700BFE0D80B000069704738B50C46F0
:1082D00014220021054602F0F6FD23691BB9A3898B
:1082E0002B80284638BD01232B7421462B4604F1F0
:1082F000100251F8040B43F8040B9142F9D1F0E756
:1083000080897047704708B502690B699A4206D1A7
:10831000102202F0A0FDB0FA80F0400908BD002054
:10832000FCE7000001232DE9F3410361344B0C46C7
:108330000646024603F1100153F8040B42F8040B01
:108340008B42F9D144B32421204602F03CFE04289C
:108350004FF0000523D1ADF8045001AFA51C063441
:1083600015F8020CFFF70DFFB0F1000812DB15F84D
:10837000010CFFF706FF00280CDB023540EA08106D
:10838000A54207F8010BEBD19DF8053033739DF83A
:10839000043073730023336102B0BDE8F0814FF005
:1083A00010082421204602F00EFEA84207D84246BB
:1083B0000021304602B0BDE8F04102F084BDB8F1C2
:1083C000000FE9D0605DFFF7DCFE030615D4000165
:1083D00008F1FF38C7B206F808702421204602F0E1
:1083E000F2FD0135A84208D9605DFFF7CAFE40B230
:1083F0000028A4BF384306F808000135D1E700BFC4
:10840000E2CF0B0013B504460191FFF715FF20469C
:108410000199FFF787FF204602B010BD38B54FF62F
:10842000FF730025044643800E222946057005711E
:10843000063002F048FD04F11400FFF7FDFE04F1E0
:108440002800FFF7F9FE044904F13C00FFF79DFC0A
:108450006565204638BD00BFBED60B0010B5D0E91B
:10846000063203EBC2029342184606D00468248801
:108470008C4203F10803F6D110BD0020FCE7000098
:10848000F0B5064685B01F460D46002950D0002A9B
:108490004ED004682378F42A28BFF42243B323790A
:1084A000980709D5A08903920023FFF779F80028DF
:1084B000039A03DA05B0F0BD6FF0770034682379D2
:1084C000D90609D5012F07D0A0890023294605B078
:1084D000BDE8F040FFF796B89B06EBD5022FE9D038
:1084E000A0890023294605B0BDE8F040FFF794B805
:1084F00060884FF6FF7188421CD021794E0701D564
:10850000012F04D10B0709D46FF07700D2E7A189BE
:10851000009313462A46FFF757F8CBE7022FF3D014
:108520000023A189009313462A46FFF743F8C1E7C9
:108530000248BFE76FF0D100BCE700BFF2FEFFFFCB
:1085400013468A680968FFF79BBF00002DE9F041D8
:1085500000260660074628200C46FCF7B6FA051EE2
:1085600005F10C080FD00123C5E90133084B2B603E
:108570004046FFF761FE0FCC2E6285F82460464628
:108580000FC623683360C7E900853846BDE8F0812F
:1085900098D80B0070B50025056006463020FCF722
:1085A00094FA044688B10123C0E90133094B036002
:1085B0004FF6FF7383810E30FFF733FEC4E9065593
:1085C000C4E90855C4E90A55A57574600C343460D3
:1085D000304670BDB4D80B0037B50D46044601A82F
:1085E000FFF7E4FD2A68D2F802302360D2F80630A3
:1085F000636001A8FFF7E8FD204603B030BD30B549
:10860000054687B00C4601A8FFF7D0FD2A6823680D
:1086100012881B889A420DD1294602A8FFF7DCFF79
:10862000214604A8FFF7D8FF04A902A8FFF7E5FD3B
:10863000044600B9002401A8FFF7C6FD204607B094
:1086400030BD000010B504466420FCF73EFA68B166
:108650000023C0E90033C0E90233C0E90433C0E9B4
:1086600006330362C362C363C364C365206020B979
:108670000A4A0B490A20FFF731F90020FEF754FFA0
:1086800020B1064A07490A20FFF728F92168064861
:108690000022FEF7ADFF204610BD00BFD9740B00CD
:1086A0004CD70B008AD70B00798C0B0010B50A4C05
:1086B0002378BFF35B8FDB070CD42046FCF70BFA63
:1086C00040B10648FFF7BEFF2046FCF709FA044810
:1086D00002F0B4FB014810BD88E6032094E60320B5
:1086E00021890B0030B50368093B012B8DB004468E
:1086F0000D4611D8FFF7DAFFA1880068FFF7AEFE3C
:10870000034658B92022CDE904200B4A00920B49B8
:1087100004AA3220FFF7EAF80DB030BD6A6D002AD6
:10872000FAD0D4E9032105F14C00CDE90312AC6D78
:1087300004AA03A9A047EFE7CCD70B0063D70B002F
:1087400008B50020FEF7F0FE00EAE07008BD08461C
:108750000021FEF7F1BE19B90A460846FEF7F4BE3D
:10876000D1E900010022F9E738B5141E4368054637
:1087700002DB62189A4200DD5C1A2A68501801195F
:108780001A44521A02F085FB6A68121B6A6038BDEF
:1087900037B50A4604460D4601ABD0E90001FFF7A4
:1087A0005FFC024638B101992046FFF7DDFF2946FC
:1087B0002046FFF7EDFF03B030BD10B50C4629B9D8
:1087C0000A460846BDE81040FEF7C6BE0121204615
:1087D000FFF7DEFFD4E900010022F3E738B50446D5
:1087E0001546FFF7B8FF00280ADB29462046FFF7A9
:1087F000E4FF002804DBBDE838400020FEF7B4BEEB
:1088000038BD000038B500230446836008200D46BB
:10881000FCF75BF918B12B6803606B684360034B8E
:10882000E360034B2060A360204638BDAD800B00A1
:1088300005810B0038B500230446836008200D46EF
:10884000FCF743F918B12B6803606B684360034B76
:10885000E360034B2060A360204638BDA1800B007D
:10886000C5800B000B68036013B15A6801325A606F
:10887000704710B551F8043B044640F8043BFFF73D
:10888000F1FF23680BB9FFF701FC204610BD10B5BE
:1088900051F8043B044640F8043BFFF7E3FF204651
:1088A00010BD10B551F8043B044640F8043BFFF7F7
:1088B000D9FF204610BD10B504460430FCF7C4FEB5
:1088C000204610BD70B5D0E90053044605EBC30641
:1088D000AE4204D0281DFCF7B7FE0835F8E7206843
:1088E000FFF7F8F8204670BD70B5D0E90053044694
:1088F00005EBC306AE4204D0281DFCF7A5FE0835E3
:10890000F8E72068FFF7E6F8204670BD10B504468A
:108910002430FFF7E9FF04F11800FFF7D3FF10BD83
:1089200070B5174B1C6854B304F15400FCF77AFA85
:1089300004F14400FCF776FA04F13400FCF772FA13
:1089400004F12400FCF76EFAD4E9065305EBC306E4
:10895000AE4204D0281DFCF777FE0835F8E7A06981
:10896000FFF7B8F804F10C00FFF7BEFF2046FFF751
:10897000A9FF20466421BDE87040FCF7AAB870BD8D
:1089800094E6032013B50023D1E90042C1E9003386
:108990000368009304604368426001A80193FCF7F8
:1089A00053FE02B010BD826810B50AB902F030F96A
:1089B000BDE81040C368184738B50D1E044600686E
:1089C00003DDFFF78FF818B938BDFFF783F80020F3
:1089D0002060A5600120F7E708B583688B4202DAC2
:1089E000FFF7EAFF08BD0120FCE72DE9F0410F4643
:1089F00041681D461944836899420446904612DC3A
:108A0000266862683E44D21B3146701902F041FA72
:108A10002A464146304602F02EFA63682B446360D2
:108A20000120BDE8F081FFF7C7FF0028E8D1F8E793
:108A3000F8B50D46D0E901139942044616460BDA03
:108A4000276862687919521B481C02F022FA7E5589
:108A5000636801336360F8BD0131FFF7ADFF0028A3
:108A6000EED1F8E70A464168FFF7E2BF2DE9F74388
:108A700004461D460F4601AB90460A46D0E9000168
:108A80009DF82890FFF7ECFAAE1C63680246B9F136
:108A9000000F26D128B333441B1AFF2B09D80199A4
:108AA0002046FFF761FE616820463144FFF794FFDE
:108AB00018B9606803B0BDE8F0836A1C0199D2B2AE
:108AC0002046FFF7B5FF01993A4601312046FFF7EE
:108AD000AFFF01992B46424602312046FFF785FF42
:108AE000E7E7F118FF29E4D82046FFF775FF0028D3
:108AF000DFD0691CC9B22046FFF7B4FF39462046D3
:108B0000FFF7B0FF61682B464246E6E730B49DF8B8
:108B100008501AB1029530BCFFF7A8BF406830BCBE
:108B200070471FB50023C0E900338360062200931D
:108B300001238DF80F2019460DF10F020446FFF7AF
:108B4000E5FF204604B010BD1FB50A4604461421B7
:108B50001046039202F037FA002103460091039A6F
:108B600009212046FFF7D2FF04B010BD8842F8B5B6
:108B700004460D46164614D9904213D2A2F10806B7
:108B8000751AA1F108072C44B74218D01CB1314620
:108B90002046FFF786FE301DFCF756FD083E083CD8
:108BA000F2E70CD0B5420AD01CB129462046FFF7A7
:108BB00078FE281DFCF748FD08350834F2E7F8BDBB
:108BC000F7B5044646686846FFF76BFED4E90173C3
:108BD0009F4212DB0137002F29DDF800FEF772FFFC
:108BE0000546F0B1D4E9001201EBC202FFF7BEFF67
:108BF0002068FEF76FFF2560A7602368626803EBBB
:108C0000C60603EBC202314606F10800FFF7AEFFCD
:108C10001EB169463046FFF744FE63680133636066
:108C2000012501A8FCF710FD284603B0F0BD002582
:108C3000DEE7F8B5D0E9004305460F4604EBC3066E
:108C4000A64205D039462046FFF7D9FC08B114B931
:108C5000F8BD0834F4E7201DFCF7F6FCD5E9003236
:108C600004F1080103EBC2022046FFF77FFF6B68A7
:108C7000013B6B60ECE700002DE9F04105468EB04A
:108C800003A80C46FFF792FA2E68F31E0D2B3CD872
:108C9000DFE813F00E0057003B00D3003B003B0021
:108CA0003B003B003B009D009D009D009D009D0002
:108CB00004A8FFF76FFC049BAA891A8069680498CE
:108CC00008310230FFF78CFA04A906A8FFF7E9FD86
:108CD00006A904F11800FFF773FF054607A8FCF783
:108CE000B3FCC5B92023CDE906355E4B5E49009340
:108CF00006AA2B460120FEF7F9FD049B2946188899
:108D0000FEF73AFC05A8FCF79FFC03A8FFF75CFA06
:108D10000EB0BDE8F081E36A23B104A904F1240098
:108D2000FFF741FE05A8FCF78FFC20210023CDE9C9
:108D300006134E4A00924C4906AA0120FEF7D6FDC2
:108D4000E3E7A9892046FFF789FB06460028DCD027
:108D50000568D5E906324FF6FF71298003EBC202A0
:108D60009A4203D053F8080B4180F9E7D5E9037321
:108D700007EBC308B84504D0381DFCF765FC08377D
:108D8000F8E700232B61D5E9067307EBC308B84564
:108D900004D0381DFCF758FC0837F8E70023EB61D6
:108DA000AB72E36B23B1314604F13400FFF7FBFDF6
:108DB00033684FF6FF721A80314604F11800FFF74E
:108DC00038FF20220023CDE90623294AB2E7A989EA
:108DD0002046FFF743FB002897D0E36C002B94D08C
:108DE00000230D2EADF8163001D0102E17D1002320
:108DF00069681A4606258DF8153004918DF81420FF
:108E00000690DDE9040109AB8DF81C60089583E844
:108E10000300236D06A904F14400984775E70F2E5F
:108E200001BF2B7A696803F0010208250FBFC3F365
:108E300040031A4619461D46DDE7A9892046FFF77B
:108E40000DFB014600283FF460AFE36D002B3FF4BB
:108E50005CAF6B68069306AA236E04F15400984732
:108E600053E700BFE4D70B0063D70B000AD80B0011
:108E700014D80B0013B50B460246D0E900016C462E
:108E800084E8030093E8030082E8030094E8030009
:108E900083E8030002B010BD38B505460C46FFF765
:108EA000E9FFAB68A268AA60A360EB68E268EA60C9
:108EB000E36038BD70B504468CB00E4601921D4685
:108EC000FFF7ACFA2671019904F13C00FEF7B0FF00
:108ED00004F14C06CDB1109B029502A904A803939E
:108EE000FFF790FC002308A904A80A93FFF7D4FF1A
:108EF000314608A8FFF7D0FF08A8FBF793FF04A8A6
:108F0000FBF790FF20460CB070BD0695EAE7000025
:108F10002DE9F04F87B01D46DDE9104380468B46B2
:108F20009246129903930022682002910492FBF763
:108F3000CCFD061E06F10C0918D001223746C6E901
:108F400001220299154A47F8202B039B00915A46AB
:108F500051464846FFF7AEFF0FCD0FC72B683B6069
:108F60000FCC06F134050FC523682B6004A94046D9
:108F7000CDE90496FFF706FD05A8FCF765FBD8F8D8
:108F800000303BB9064A07490A2007B0BDE8F04F58
:108F9000FEF7A4BC07B0BDE8F08F00BF7CD80B0083
:108FA000D9740B004CD70B0038B505460C46FFF7BB
:108FB00061FFAB68A268AA60A360EB68E268EA6040
:108FC000E36038BD10B504688AB02434B9B1CDE986
:108FD000001202A86946FFF72DFC002306A902A88B
:108FE0000893FFF7E1FF214606A8FFF7DDFF06A87B
:108FF000FBF718FF02A8FBF715FF0AB010BD04919C
:10900000EBE78842F8B504460D46164614D990425F
:1090100013D2A2F10806751AA1F108072C44B74231
:1090200018D01CB131462046FFF731FC301DFCF74B
:109030000BFB083E083CF2E70CD0B5420AD01CB14D
:1090400029462046FFF723FC281DFCF7FDFA0835CA
:109050000834F2E7F8BD70B50E1E054611DDF000CC
:10906000FEF730FD044658B1D5E9001201EBC2020B
:10907000FFF7C7FF2868FEF72DFD2C60AE600120CA
:1090800070BD0024F6E773B5044645686846FFF7EF
:10909000FEFBD4E90113994210DA2368626803EBFE
:1090A000C50503EBC202294605F10800FFF7A9FF39
:1090B0008DB9636801336360012606E00131204603
:1090C000FFF7C9FF06460028E7D101A8FCF7BCFA64
:1090D000304602B070BD69462846FFF7D8FBE8E786
:1090E0008842F8B504460D46164614D9904213D26C
:1090F000A2F10806751AA1F108072C44B74218D04E
:109100001CB131462046FFF7B4FB301DFCF79CFA3A
:10911000083E083CF2E70CD0B5420AD01CB1294603
:109120002046FFF7A6FB281DFCF78EFA0835083409
:10913000F2E7F8BD70B50E1E054611DDF000FEF732
:10914000C1FC044658B1D5E9001201EBC202FFF799
:10915000C7FF2868FEF7BEFC2C60AE60012070BD22
:109160000024F6E773B5044645686846FFF781FBBF
:10917000D4E90113994210DA2368626803EBC5054C
:1091800003EBC202294605F10800FFF7A9FF8DB9DC
:10919000636801336360012606E001312046FFF772
:1091A000C9FF06460028E7D101A8FCF74DFA304672
:1091B00002B070BD69462846FFF75BFBE8E7000098
:1091C0002DE9F04F1746A1B080460AA80E46FEF7DB
:1091D000EDFF3C68237953B939464046FFF749FB18
:1091E0000AA8FEF7F1FF404621B0BDE8F08F3368D2
:1091F000D3E9035305EBC303039304F1280A04F1F5
:10920000140B039B9D4221D0D5F80090584609F1DC
:109210001401FFF778F8B8B109F128015046FFF7BB
:1092200072F888B12368D9F80020534033F47F43A3
:109230000AD12022CDE915235E4A009215AA5E4983
:109240003220FEF753FBC7E70835DAE75046FFF751
:109250002BF860B95949012215A815ADFEF7FCFF9E
:109260000FCDD446ACE80F002B68CCF80030336843
:10927000D3E9005305EBC30B5D45A94651466ED0BB
:1092800055F8080BFFF73FF80028F5D004F1140A51
:109290005046FFF709F888B9494B48491A88013206
:1092A00092B21A8015A8012315ADFEF7F4FF0FCD79
:1092B000D446ACE80F002B68CCF80030414B159336
:1092C0002822002116A801F0FEFD514604A8FEF751
:1092D000FDFF04AB18AA0DF1200C1868596815465B
:1092E00003C5083363452A46F7D1186828602379F7
:1092F0008DF85830D9F800309B8AADF87430E36BA4
:109300001793314B0022A11D15A8CDE91E34FEF79D
:1093100065F900287FF460AF012323703468394673
:109320000C340DA8FFF7A5FA20460DA9FFF71AFF88
:1093300004460EA8FCF788F9002C7FF44DAF2023DB
:10934000CDE90D34214B00930DAA234677E739462A
:109350004046FFF78EFA0CA8FCF776F940E70BA819
:10936000FFF7F4F8514615A8FEF7B0FF0B9A00235B
:10937000143215A90120FEF709F90028E7D1356854
:109380000BA90DA8FFF783FA28460DA9FFF77BFE6E
:1093900005460EA8FCF758F9002DD8D0326853685E
:1093A000126803F10053013B0CA802EBC309FCF760
:1093B0004BF96BE721D80B0063D70B00D0D80B001B
:1093C0008CE6032003002C00E5860B004CD80B0034
:1093D000024800230360FEF759B900BF90E603205E
:1093E000F8B506460D468F180024BD420CD03368F0
:1093F00015F8011B9B6830469847031E01DB1C448F
:10940000F3E7002C08BF1C462046F8BD13B5044600
:10941000084659B10191FBF7FDFA23680199DB6811
:109420000246204602B0BDE81040184702B010BD09
:1094300008B5FFF7EBFF08BD03689B6818470A688B
:109440000B46126801461846104738B50D210546EF
:10945000FFF7F2FF0A2104462846FFF7EDFF2044FC
:1094600038BD38B50546FFF7D1FF04462846FFF75B
:10947000ECFF204438BD38B50546FFF7E0FF044651
:109480002846FFF7E2FF204438BD30B58BB00023FB
:10949000012A8DF8243098BF0A2209AC0D46B1FB91
:1094A000F2F101FB125303F0FF03092B94BF303399
:1094B0003733DBB2AA4204F8013DEFD92146FFF76A
:1094C000A5FF0BB030BD2DE9F04186B000AF0546D9
:1094D0000E46381D142114463B60FEF71BFB132873
:1094E0000ED8391D2846FFF791FF04461EB12846C5
:1094F000FFF7ABFF044420461837BD46BDE8F081B6
:1095000000F1080323F00703E846ADEB030D224604
:10951000411C3B686846FEF7FDFA69462846FFF79E
:1095200075FF0446C546E1E7014B024A1A607047E1
:1095300098E60320F0D80B002DE9F041154ADFF83A
:109540006080D2E90063801943EB0101124BD3E93B
:109550000067D8E90023861941EB0707BB4208BF23
:10956000B2428CB013D003A96846CDE90067FEF77C
:1095700001FB089B094D03F26C7303AC08930FCCFD
:109580000FC50FCC0FC5C8E9006723682B600CB06E
:10959000BDE8F081D0E60320C8E60320A0E6032062
:1095A000D8E6032008B50020FEF77CFA28B1FEF7C4
:1095B00059FA80F00100C0B208BD0120FCE70000AC
:1095C00008B5FFF7B9FF024B1869013008BD00BFAD
:1095D000A0E60320FAEE087AB4EEE70AF1EE10FAFC
:1095E00008B511D4F2EE0C7AB4EEE70AF1EE10FAF7
:1095F0000ADCDFED067A60EE277A17EE900AFBF7B9
:10960000ADF9034BC3E9000108BD00BF000061458F
:10961000D0E6032010B50020FDF76EFF0446A0B988
:10962000FEF76CF9012810D12046FEF797F960B9D2
:10963000FFF7B8FF10B9FEF70DFAF9E7FFF7B2FF31
:10964000BDE810400020FDF757BF204610BD1FB5F4
:10965000FFF7E0FF10220021684601F034FC0021F2
:109660006846FDF751FF009805B05DF804FB000067
:1096700008B5FFF7ECFFC117FFF75EFF014B9868D5
:1096800008BD00BFA0E6032008B5FFF7E0FFC11743
:10969000FFF752FF014B586808BD00BFA0E603204A
:1096A00008B5FFF7D4FFC117FFF746FF014B186855
:1096B00008BD00BFA0E6032008B5FFF7C8FFC1172B
:1096C000FFF73AFF014BD86808BD00BFA0E60320B2
:1096D00008B5FFF7BCFFBDE80840C117FFF770BF32
:1096E00008B5FFF7B4FFC117FFF726FF014B586914
:1096F00008BD00BFA0E60320024B1A68024B1A60A7
:10970000704700BF80D103209CE603200021FEF7B4
:1097100005B9000010B5044B03600446806908B128
:10972000FEF71BFD204610BD04DA0B0010B5044601
:10973000FFF7F0FF20461C21FBF7CBF9204610BDB8
:10974000014B00229A607047E0E60320014B18604D
:10975000704700BF84D1032008B50B4B43B100F024
:1097600019FC03681B699847002801DDAFF30080EE
:10977000064B43B101F0EAF903681B6998470028DA
:1097800001DDAFF3008008BD000000000000000014
:1097900008B5FFF7E1FFFDF7A7FE014B186008BD14
:1097A00044E703200548064A064908B5121A01F0A5
:1097B00062FB054B054A1A6008BD00BF00F4032098
:1097C00004F40320F4E20B0000F403201E1C279A8B
:1097D00007B5002300931A466FF07701FEF7D0F823
:1097E00003B05DF804FB000007B543880A2B08D0DE
:1097F000502B0BD1094B1B684BB103B05DF804EB48
:109800001847FFF7E5FF03B05DF804FB0023009362
:109810001A466FF07701FEF7B3F8F4E7F4E6032099
:1098200010B512480021FEF79DF9114B1A68114B33
:109830009A42114B0CBF012200221A7001D0FFF78F
:10984000B1FFFDF741FE044601F046FB0B4B13B19F
:109850002046AFF3008000210848FEF72BF9BDE851
:10986000104007480021FEF781B800BF4D970B005C
:1098700000F403201E1C279AF0E6032000000000DD
:10988000E9970B0070470020704710B5102104467F
:10989000FBF71FF9204610BD08B5FFF7F6FF08BD1E
:1098A00030B500224FF69C74026084808D888C80D5
:1098B0000C68858004600A6030BD10B504460068FD
:1098C000FEF708F9204610BD38B5C468F4B1237816
:1098D000022B03D104F10C00FFF7EFFF656835B1EF
:1098E0002846FBF79FFA10212846FBF7F2F8A568F7
:1098F00035B12846FBF796FA10212846FBF7E9F820
:1099000020461421BDE83840FBF7E3B838BD0B68AA
:1099100003604B68436013B15A6801325A60704764
:1099200037B5044668460D46FFF7F1FF009B019AE4
:1099300023606260002301A801930093FBF784FE7B
:1099400035B1281DFBF780FE08212846FBF7C1F83A
:10995000204603B030BD826810B50AB901F058F94D
:10996000BDE81040C368184708B5006800F1100151
:10997000FFF7F1FF08BD826810B50AB901F048F998
:10998000BDE81040C368184708B5006800F1100131
:10999000FFF7F1FF08BD000038B50023044603605F
:1099A00010200D46FBF791F828B10123C0E90133DF
:1099B000024B0360C5602060204638BD18D90B00FB
:1099C00038B5002383608B6804460D462BB1022214
:1099D0009847EB68E360AB68A360204638BD0000A1
:1099E000F0B589B004686846FFF75AFF4FF00203EC
:1099F000D4E84F2F002A03D1C4E8413F0029F7D112
:109A000025D104F10C0569462846FFF749FFBFF34D
:109A10005B8F01236370002004F10803BFF35B8FA9
:109A200053E8006F43E80002002AF9D1BFF35B8FCF
:109A30006EB1FDF783FF78B129463046FFF78BFF03
:109A40003046FBF7EFF910213046FBF742F8684645
:109A5000FFF733FF09B0F0BD314602A8FFF7B0FFB2
:109A6000E068B4F9105008B101F07CFA06901020BB
:109A7000ADF81C50FBF729F80546E8B100278760D0
:109A80001820FBF722F8044688B10146876002A837
:109A9000FFF7F0F9049BA268A360059B049206A956
:109AA000E268E36004F110000592FFF7F9FE084B4D
:109AB000EB60084B2C60AB6006A8FFF7FEFE02A827
:109AC000FBF7B0F9002229460348FDF73FFFB7E74F
:109AD00069990B00ED9B0B00DDA00B002DE9F04F09
