:02000002B0004C
:1040000000400B00AE060C00000006000C0005028C
:0840100004018C130000000004
:04401800B4EF0B00F6
:1040200081F0004102E000BF83F0004330B54FEA69
:1040300041044FEA430594EA050F08BF90EA020FD6
:104040001FBF54EA000C55EA020C7FEA645C7FEA69
:10405000655C00F0E2804FEA5454D4EB5555B8BF8C
:104060006D420CDD2C4480EA020281EA030382EAFD
:10407000000083EA010180EA020281EA0303362D8F
:1040800088BF30BD11F0004F4FEA01314FF4801C62
:104090004CEA113102D0404261EB410113F0004F74
:1040A0004FEA03334CEA133302D0524263EB43032B
:1040B00094EA050F00F0A780A4F10104D5F1200EC9
:1040C0000DDB02FA0EFC22FA05F2801841F1000124
:1040D00003FA0EF2801843FA05F359410EE0A5F1F8
:1040E00020050EF1200E012A03FA0EFC28BF4CF029
:1040F000020C43FA05F3C01851EBE37101F00045DF
:1041000007D54FF0000EDCF1000C7EEB00006EEBEB
:104110000101B1F5801F1BD3B1F5001F0CD3490875
:104120005FEA30004FEA3C0C04F101044FEA4452CC
:1041300012F5800F80F09A80BCF1004F08BF5FEA53
:10414000500C50F1000041EB045141EA050130BD33
:104150005FEA4C0C404141EB0101013C28BFB1F545
:10416000801FE9D291F0000F04BF01460020B1FA90
:1041700081F308BF2033A3F10B03B3F120020CDA63
:104180000C3208DD02F1140CC2F10C0201FA0CF041
:1041900021FA02F10CE002F11402D8BFC2F1200CA6
:1041A00001FA02F120FA0CFCDCBF41EA0C0190405C
:1041B000E41AA2BF01EB0451294330BD6FEA0404A5
:1041C0001F3C1CDA0C340EDC04F11404C4F1200290
:1041D00020FA04F001FA02F340EA030021FA04F3A2
:1041E00045EA030130BDC4F10C04C4F1200220FAF9
:1041F00002F001FA04F340EA0300294630BD21FA37
:1042000004F0294630BD94F0000F83F4801306BFFC
:1042100081F480110134013D4EE77FEA645C18BFF0
:104220007FEA655C29D094EA050F08BF90EA020F87
:1042300005D054EA000C04BF1946104630BD91EA7F
:10424000030F1EBF0021002030BD5FEA545C05D182
:104250004000494128BF41F0004130BD14F58004C1
:104260003CBF01F5801130BD01F0004545F0FE4135
:1042700041F470014FF0000030BD7FEA645C1ABF6A
:10428000194610467FEA655C1CBF0B46024650EAA1
:10429000013406BF52EA033591EA030F41F40021CD
:1042A00030BD00BF90F0000F04BF0021704730B553
:1042B0004FF4806404F132044FF000054FF0000128
:1042C00050E700BF90F0000F04BF0021704730B5E9
:1042D0004FF4806404F1320410F0004548BF4042BE
:1042E0004FF000013EE700BF42004FEAE2014FEA13
:1042F00031014FEA02701FBF12F07F4393F07F4FEE
:1043000081F06051704732F07F4208BF704793F0F0
:104310007F4F04BF41F40021704730B54FF4607403
:1043200001F0004521F000411CE700BF50EA010206
:1043300008BF704730B54FF000050AE050EA0102AF
:1043400008BF704730B511F0004502D5404261EB1F
:1043500041014FF4806404F132045FEA915C3FF460
:10436000D8AE4FF003025FEADC0C18BF03325FEAFD
:10437000DC0C18BF033202EBDC02C2F1200300FAAE
:1043800003FC20FA02F001FA03FE40EA0E0021FAD3
:1043900002F11444BDE600BF70B54FF0FF0C4CF4C1
:1043A000E06C1CEA11541DBF1CEA135594EA0C0F73
:1043B00095EA0C0F00F0DEF82C4481EA030621EAAE
:1043C0004C5123EA4C5350EA013518BF52EA0335E9
:1043D00041F4801143F4801338D0A0FB02CE4FF09B
:1043E0000005E1FB02E506F00042E0FB03E54FF0CB
:1043F0000006E1FB03569CF0000F18BF4EF0010EC3
:10440000A4F1FF04B6F5007F64F5407404D25FEABE
:104410004E0E6D4146EB060642EAC62141EA555171
:104420004FEAC52040EA5E504FEACE2EB4F1FD0CB3
:1044300088BFBCF5E06F1ED8BEF1004F08BF5FEA31
:10444000500E50F1000041EB045170BD06F00046E3
:1044500046EA010140EA020081EA0301B4EB5C0490
:10446000C2BFD4EB0C0541EA045170BD41F4801188
:104470004FF0000E013C00F3AB8014F1360FDEBFAD
:10448000002001F0004170BDC4F10004203C35DA89
:104490000C341BDC04F11404C4F1200500FA05F30C
:1044A00020FA04F001FA05F240EA020001F00042AD
:1044B00021F0004110EBD37021FA04F642EB060123
:1044C0005EEA430E08BF20EAD37070BDC4F10C044D
:1044D000C4F1200500FA04F320FA05F001FA04F211
:1044E00040EA020001F0004110EBD37041F10001FD
:1044F0005EEA430E08BF20EAD37070BDC4F1200508
:1045000000FA05F24EEA020E20FA04F301FA05F26F
:1045100043EA020321FA04F001F0004121FA04F217
:1045200020EA020000EBD3705EEA430E08BF20EAE7
:10453000D37070BD94F0000F0FD101F00046400021
:1045400041EB010111F4801F08BF013CF7D041EAA3
:10455000060195F0000F18BF704703F000465200A7
:1045600043EB030313F4801F08BF013DF7D043EA78
:104570000603704794EA0C0F0CEA135518BF95EA2E
:104580000C0F0CD050EA410618BF52EA4306D1D1B5
:1045900081EA030101F000414FF0000070BD50EAD4
:1045A000410606BF1046194652EA430619D094EA5E
:1045B0000C0F02D150EA013613D195EA0C0F05D148
:1045C00052EA03361CBF104619460AD181EA03019C
:1045D00001F0004141F0FE4141F470014FF0000054
:1045E00070BD41F0FE4141F4780170BD70B54FF0EF
:1045F000FF0C4CF4E06C1CEA11541DBF1CEA13556F
:1046000094EA0C0F95EA0C0F00F0A7F8A4EB050450
:1046100081EA030E52EA03354FEA013100F0888047
:104620004FEA03334FF0805545EA131343EA126310
:104630004FEA022245EA111545EA10654FEA0026C5
:104640000EF000419D4208BF964244F1FD0404F57E
:10465000407402D25B084FEA3202B61A65EB0305DA
:104660005B084FEA32024FF480104FF4002CB6EB97
:10467000020E75EB030E22BFB61A754640EA0C0017
:104680005B084FEA3202B6EB020E75EB030E22BF57
:10469000B61A754640EA5C005B084FEA3202B6EB98
:1046A000020E75EB030E22BFB61A754640EA9C0057
:1046B0005B084FEA3202B6EB020E75EB030E22BF27
:1046C000B61A754640EADC0055EA060E18D04FEAE5
:1046D000051545EA16754FEA06164FEAC30343EA85
:1046E00052734FEAC2025FEA1C1CC0D111F4801F52
:1046F0000BD141EA00014FF000004FF0004CB6E74B
:1047000011F4801F04BF01430020B4F1FD0C88BFE9
:10471000BCF5E06F3FF6AFAEB5EB030C04BFB6EBF4
:10472000020C5FEA500C50F1000041EB045170BDE7
:104730000EF0004E4EEA113114EB5C04C2BFD4EB14
:104740000C0541EA045170BD41F480114FF0000E98
:10475000013C90E645EA060E8DE60CEA135594EA14
:104760000C0F08BF95EA0C0F3FF43BAF94EA0C0F17
:104770000AD150EA01347FF434AF95EA0C0F7FF48C
:1047800025AF104619462CE795EA0C0F06D152EAE0
:1047900003353FF4FDAE1046194622E750EA4106C4
:1047A00018BF52EA43067FF4C5AE50EA41047FF4D5
:1047B0000DAF52EA43057FF4EBAE12E74FF0FF3C3A
:1047C00006E000BF4FF0010C02E000BF4FF0010C0B
:1047D0004DF804CD4FEA410C7FEA6C5C4FEA430C84
:1047E00018BF7FEA6C5C1BD001B050EA410C0CBFD3
:1047F00052EA430C91EA030F02BF90EA020F002035
:10480000704710F1000F91EA030F58BF994208BF9B
:1048100090422CBFD8176FEAE37040F00100704758
:104820004FEA410C7FEA6C5C02D150EA013C07D1AF
:104830004FEA430C7FEA6C5CD6D152EA033CD3D0FA
:104840005DF8040B704700BF8446104662468C46F4
:104850001946634600E000BF01B5FFF7B7FF002827
:1048600048BF10F1000F01BD4DF808EDFFF7F4FF50
:104870000CBF012000205DF808FB00BF4DF808EDDB
:10488000FFF7EAFF34BF012000205DF808FB00BFFE
:104890004DF808EDFFF7E0FF94BF012000205DF820
:1048A00008FB00BF4DF808EDFFF7CEFF94BF0120D5
:1048B00000205DF808FB00BF4DF808EDFFF7C4FFCE
:1048C00034BF012000205DF808FB00BF4FEA410221
:1048D00012F5001215D211D56FF47873B3EB625252
:1048E00012D94FEAC12343F0004343EA505311F079
:1048F000004F23FA02F018BF404270474FF000000B
:10490000704750EA013005D111F0004008BF6FF048
:10491000004070474FF00000704700BF4A0011D2BE
:1049200012F5001211D20DD56FF47873B3EB625209
:104930000ED44FEAC12343F0004343EA505323FA15
:1049400002F070474FF00000704750EA013002D18A
:104950004FF0FF3070474FF00000704707EE900AAD
:10496000F5EEC07AF1EE10FA01D400F00BB8F1EEDA
:10497000677A08B517EE900A00F004F8404261EB40
:10498000410108BDD0B5FFF7AFFC0C4B0022064635
:104990000F46FFF701FDFFF7C1FF0446FFF782FC5A
:1049A000074B0022FFF7F8FC02460B46304639461B
:1049B000FFF73AFBFFF7B2FF2146D0BD0000F03D04
:1049C0000000F041D0B50C4B002206460F46FFF721
:1049D000E3FCFFF7A3FF0446FFF764FC074B00224C
:1049E000FFF7DAFC02460B4630463946FFF71CFB60
:1049F000FFF794FF2146D0BD0000F03D0000F041DC
:104A000010F8012B11F8013B012A28BF9A42F7D078
:104A1000D01A7047034613F8012B002AFBD1181A4D
:104A20000138704738B50022002304460D46FFF7D1
:104A300025FF28B920462946BDE83840FFF7C2BF08
:104A4000204605F10041FFF7BDFF404261EB410107
:104A500038BD00BF09480A49884208B505D0094A4F
:104A6000824202D0121A08F0C5F90748074A00210D
:104A7000121A08F0E7F9014808BD00BF18D4032056
:104A800058040C0040D6032040D60320F0E7032052
:104A900070B5074E074C07F0E7F8A41BA4080025E3
:104AA000AC4200D170BD56F8043B98470135F7E79A
:104AB00004040C0034040C0001F0E4BB08B501F060
:104AC0002BF9BDE8084007F087B804F011BD04F0E9
:104AD0000FBD04F015BD04F013BD0078B0FA80F0EE
:104AE000400970470123037070470000014B012209
:104AF0001A7070475CD6032008B5044B01221A7067
:104B000004F0C8F9024B186008BD00BF5DD6032051
:104B100028E0032008B504F0BDF90C490B68C31A5E
:104B2000642B11D90A4AB2FBF3F30A4A08601360F6
:104B3000094B1978094B1A6852F82130013342F8B1
:104B40002130074B01221A7008BD00BF0CD703208B
:104B500080EE360074D70320E4D7032094E10320CD
:104B600062D60320436913B183690C30184770473C
:104B700013B500210446084604F05EFA00232046DF
:104B800001A9019304F070FA019C0CB10123237177
:104B90000021012004F050FA2CB1236820469B68C4
:104BA00098470023237102B010BD012A02D1016091
:104BB00000207047022A04BF0B680360F8E703680F
:104BC000184707B5806830B10023CDE900131A46B5
:104BD000022104F051FA03B05DF804FB37B5054635
:104BE0000C460021FFF7EDFFA86830B10023CDE9A6
:104BF00000431A46194604F03FFA03B030BD0000E6
:104C00002DE9F0418AB006F052FF464B4649009329
:104C10000246C31702A806F0EBFE0223002202A9F7
:104C200006A805F0A5FA06A805F0C9FA3F4EDFF878
:104C30000881307006A805F041F90523032202A976
:104C400006A805F095FA06A805F0B9FAC4B206A8B8
:104C500005F034F908230DEB0301062206A805F040
:104C600087FA06A805F0ABFA074606A805F026F96C
:104C7000092202A906A805F09BFA06A805F09FFAEA
:104C8000054606A805F01AF940466FF00041FFF707
:104C900098FFD8F80800C0B10F23B4FBF3F3C3EBBF
:104CA0000313234AE31ADBB25343224AFFB202FB47
:104CB00007336FF00041002203F55B23CDE90012BA
:104CC00003F68873032104F0D7F91B486FF0004105
:104CD000FFF784FF33780D2B19D1184B1A68ADB24A
:104CE000AA4203D01D60164B01221A700520B4FBA6
:104CF000F0F000EB8000241AE4B214B9114B012249
:104D00001A7002A805F0DAF80AB0BDE8F081002BAD
:104D1000ECD10D4B1A68ADB2AA42E7D01D600B4B27
:104D2000E2E700BFC8EF0B0094E60320E4D70320BE
:104D3000A015FFFF18FCFFFF2CE1032048D403203F
:104D40005CD6032063D603204CD403205ED6032018
:104D50000EB403B503AB002153F8042B019306F006
:104D6000FAFC02B05DF804EB03B070470EB403B573
:104D700003AB012153F8042B019306F0ECFC02B0C5
:104D80005DF804EB03B0704710B58368044613B1B7
:104D9000032201469847204610BD000038B50F4B4E
:104DA0000360836804469BB16FF00041FFF709FF81
:104DB000A068002104F098F9237903F0FF0513B1EE
:104DC00004F032F9F8E7A068294604F045F9A56037
:104DD00004F10C00FFF7D8FF204638BDA0F70B0008
:104DE00010B50446FFF7DAFF20461C21FFF773FEDB
:104DF000204610BD70B590B005F0A0FD022105F071
:104E0000EEFD05F09BFD05F0E3FD05F097FD3E4A44
:104E10003E4C01460BA806F01BFB0BA805F093FEC9
:104E200005F08CFD3A4A01460BA806F011FB0BA8D1
:104E300005F089FE05F082FD364A01460BA806F012
:104E400007FB0BA805F07FFE05F078FD324A01460E
:104E50000BA806F0FDFA0BA805F075FE05F06EFD37
:104E60002E4A01460BA806F0F3FA0BA805F06BFEDC
:104E700005F064FD2A4A01460BA806F0E9FA0BA8E2
:104E800005F061FE03A805F094FF264B03A81968FE
:104E900005F0A2FF0FCC06AD0FC506AD0FCD2668FD
:104EA0000BAC0FC40BA8266005F056FB04460BA8FC
:104EB0000CBB05F06DFB0094ADF80A0002230DF168
:104EC0000A02032103A805F069FF05F037FD00225F
:104ED00003A905F0CBFD06F0F5FF134906F009FC28
:104EE00005F02CFD1149002206F0B4F9039804F0F6
:104EF00007FB10B070BD05F04DFB00230093024688
:104F000010230721DEE700BF64D6032090D60320DC
:104F100054D6032044D603204CD603206CD603205D
:104F200074D603202CD40320CEEF0B00F94A0B00DB
:104F30002DE9F04F2DED028B9FED517B9BB0DFF8FB
:104F40006491019206460F468B464FF0000A4FF0DF
:104F50000008B0EE478AF0EE678A019B9A4516DAA0
:104F6000FBE8024553EC182B20462946FFF7A4FC2A
:104F700008B145EC184B42464B4620462946FFF700
:104F80007DFC08B1A046A9460AF1010AE5E74246C0
:104F90004B4651EC180BFFF747F840A3D3E9002329
:104FA000FFF7FAF942464B46FFF740F800258246E4
:104FB0008B462C46019B9D4215DAF7E802015246CA
:104FC0005B46FFF75BFC60B11AAB03EB840343F86D
:104FD000605C06F077FF22462B492B46FFF7B8FEB0
:104FE00001340135E6E706F06DFF53EC182B274935
:104FF000FFF7AEFE06F066FF254942464B46FFF737
:10500000A7FE06F05FFF2349FFF7A2FE6CB3002363
:105010001D46371D1AAA02EB830252F8602C46F88F
:10502000352002AA02EB8300026850F8041F013900
:105030008A4203F10103F7D00132A34247F8352039
:1050400005F101020FDDDFF860800024AC420CD0D6
:1050500006F038FF57F8343056F834204146FFF751
:1050600077FE0134F2E71546D4E70B4B01222046C8
:105070001A701BB0BDEC028BBDE8F08FAFF300805F
:105080000000000000000000F2EF0B000AF00B002F
:1050900028F00B0045F00B0061D603203333333387
:1050A0003333D33F00408F4083F00B00F0B51349FA
:1050B0001348144E124D144F85B004F0A8FF00247D
:1050C00033680A2253F82410684604F0B2FF694698
:1050D000284604F0EBFF684604F0F0FE172C03D0DE
:1050E0003946284604F0F0FF0134182CE8D107496E
:1050F000034805B0BDE8F04004F0E6BF91F00B00B6
:1051000098E1032094E10320A0F00B002EF50B00A2
:10511000F0B585B08F49904E904F914D684605F09F
:105120006DF869468E4804F06AFF684604F0C6FED2
:105130000024336803EBC403D3E9002339466846EF
:1051400005F05CF86946284604F0B0FF684604F0B4
:10515000B5FE172C0AD08349684605F04FF869461A
:10516000284604F0A3FF684604F0A8FE0134182C7A
:10517000DFD17D497D4E794F7D4D684605F03EF883
:105180006946774804F092FF684604F097FE794933
:10519000684605F033F86946754804F030FF684604
:1051A00004F08CFE0024336803EBC403D3E900232E
:1051B0003946684605F022F86946284604F076FF2D
:1051C000684604F07BFE172C0AD06649684605F055
:1051D00015F86946284604F069FF684604F06EFE3B
:1051E0000134182CDFD16049634E5C4F634D684633
:1051F00005F004F869465E4804F058FF684604F07C
:105200005DFE5F49684604F0F9FF69465B4804F0BB
:10521000F6FE684604F052FE0024336803EBC40334
:10522000D3E900233946684604F0E8FF694628467A
:1052300004F03CFF684604F041FE172C0AD04949AF
:10524000684604F0DBFF6946284604F02FFF6846F5
:1052500004F034FE0134182CDFD14349494E4A4F43
:105260004A4D684604F0CAFF6946444804F01EFFF0
:10527000684604F023FE4649684604F0BFFF6946CD
:10528000424804F0BCFE684604F018FE002433686F
:10529000394653F82420684604F0B0FF6946284692
:1052A00004F004FF684604F009FE172C0AD02D49CB
:1052B000684604F0A3FF6946284604F0F7FE6846F6
:1052C00004F0FCFD0134182CE1D12749314E2E4F5A
:1052D000314D684604F092FF69462C4804F0E6FE22
:1052E000684604F0EBFD2D49684604F087FF6946E7
:1052F000294804F084FE684604F0E0FD0024336889
:10530000394653F82420684604F078FF6946284659
:1053100004F0CCFE684604F0D1FD172C0AD01149E8
:10532000684604F06BFF6946284604F0BFFE6846F5
:1053300004F0C4FD0134182CE1D168460A4904F098
:105340005DFF6946144804F0B1FE684604F0B6FDFE
:1053500005B0F0BDA2F00B00E0D70320B7F00B00C2
:105360004CE00320A0F00B002EF50B00D8D7032053
:105370002CE00320BDF00B00DCD703203CE0032031
:10538000CEF00B00A8E1032043FA0B00ACE10320B0
:10539000E2F00B0094E1032098E1032091F00B0070
:1053A0002DE9FF412049214FDFF89080204E05462E
:1053B000684604F023FF69461D4804F020FE684655
:1053C00004F07CFD00243B68414653F824206846E5
:1053D00004F014FF6946304604F068FE684604F0A5
:1053E0006DFD172C0AD01349684604F007FF694683
:1053F000304604F05BFE684604F060FD0134182C72
:10540000E1D168460C4904F0F9FE6946084804F009
:105410004DFE684604F052FD0549284604F0E4FDBF
:10542000284604B0BDE8F08191F00B0094E1032020
:1054300098E10320A0F00B002EF50B0043FA0B00BF
:105440002DE9F843C02004F053F8384D286028B9FE
:1054500006F038FD3649FFF77BFCFEE7C02004F07C
:1054600047F8344C206028B906F02CFD3249FFF78C
:105470006FFCFEE7C02004F03BF8304E306028B9E6
:1054800006F020FD2E49FFF763FCFEE706F01AFD4B
:105490002C49DFF8C4804FF41072FFF759FC6020EC
:1054A00004F026F8C8F8000028B906F00BFD2649DC
:1054B000FFF74EFCFEE7602004F01AF8DFF89C903E
:1054C000C9F8000028B906F0FDFC2049FFF740FCB0
:1054D000FEE706F0F7FC1E49C022FFF739FC06F094
:1054E000F1FC074604F0C4F81A4902463846FFF7B3
:1054F0002FFC2868C022002107F0A4FC2068C022ED
:10550000002107F09FFC3068C022002107F09AFCC0
:10551000D8F800006022002107F094FCD9F80000C0
:105520006022BDE8F843002107F08CBCE0D70320DF
:10553000F5F00B00D8D7032023F10B00DCD70320B4
:105540004DF10B007AF10B00ACF10B00D4F10B0024
:1055500000F20B002BF20B0094E10320A8E10320E2
:1055600008B50C4A0C4B1168186819600B4B196888
:105570001160C0220021186007F064FC084A094B42
:105580001068196811601860BDE8084060220021A9
:1055900007F058BCD8D70320E0D70320DCD703207E
:1055A000A8E1032094E1032000B51B4889B001F075
:1055B00092F828B1184809B05DF804EB01F077BA09
:1055C00006F080FC1549FFF7C3FB1549684604F057
:1055D000C0FC06F06CFA0A22014604A804F03CFD67
:1055E00004A9684604F093FD0E4B01680A481A4668
:1055F00001F076F904A804F061FC684604F05EFC52
:10560000054801F068F820B106F05CFC0649FFF798
:105610009FFB09B05DF804FB78D7032036F20B003E
:105620004BF20B0058F20B005DF20B002DE9F0413C
:1056300088B005460E4668461349144F04F089FCAD
:10564000002405F10408B44210DA58F8343055F853
:105650003420394604A804F0D1FD04A9684604F0BA
:1056600025FD04A804F02AFC0134ECE7009A08495F
:10567000084801F0C0F9074801F019FA684604F03B
:105680001DFC08B0BDE8F08171F20B008FF20B0039
:1056900017F70B0078D703207FB506F013FC1649E7
:1056A00006F027F8154902A804F09EFC02A9144848
:1056B00003F0C8FA02A804F001FC124902A804F0A1
:1056C00093FC02A9104803F0BDFA02A804F0F6FB0F
:1056D00006F0EDF90D4B00930246C3170C4902A8E2
:1056E00006F086F902A90B4803F0ACFA02A804F010
:1056F000E5FB07B05DF804FB9EF20B0098E1032088
:10570000B9F20B00ACE10320CCF20B00CBEF0B00A5
:1057100094E60320E3F20B0038B5046805467CB13B
:105720006368013B63605BB9236820469B689847C8
:10573000A368013BA3601BB923682046DB68984738
:10574000284638BD82B0F0B58FB015AD1593002353
:10575000C0E90033064694460F460FCD04AC0FC493
:105760002B6823601AAD0FCD09AC0FC42B682360E2
:10577000209B02931F9B019309AB0093304604AB1F
:105780006246394605F00CFD30460FB0BDE8F040EA
:1057900002B070472DE9F04F9A4B9B4DDFF818B3DC
:1057A000DFF818A3DFF818934FF0010883F80080A2
:1057B000964B93B01968284604F06CFF944B5846FA
:1057C000196804F067FF934B5046196804F062FFB4
:1057D000914B4846196804F05DFF904B904819685A
:1057E00004F058FF8F4B9048196804F053FF8F4B1B
:1057F0008F481968002404F04DFFCDE909442E4676
:105800000FCE10270DEB070CACE80F003368CCF877
:1058100000300BF104030FCB8DE80F00DBF80030F4
:10582000844985483A46FFF78DFFCDE90944AE46E5
:10583000BEE80F000DEB070CACE80F003368CCF8A6
:1058400000300AF104030FCB8DE80F00DAF80030C6
:105850007A497B483A46FFF775FFCDE90944AE46E1
:10586000BEE80F000DEB070CACE80F003368CCF876
:10587000003009F104030FCB8DE80F00D9F8003098
:10588000704971483A46FFF75DFFCDE90944AE46DD
:10589000BEE80F000DEB070CACE80F003368CCF846
:1058A00000305F4B04330FCB8DE80F005C4B674932
:1058B0001B6867483A46FFF745FFCDE90944AE4605
:1058C000BEE80F000DEB070CACE80F003368CCF816
:1058D0000030554B04330FCB8DE80F00524B5D4920
:1058E0001B685D483A46FFF72DFFCDE909440FCD0F
:1058F0000DEB070CACE80F004D4D3368CCF80030D1
:105900002B1D0FCB8DE80F00544E2B685449554D7D
:1059100055483A46FFF716FF544802F0BFFE2946A5
:10592000304604F016FBF01906F00AFA294606F193
:10593000280004F00EFB294606F13C0004F009FBA8
:1059400029464B4804F005FB06F0C2F8494B2946AE
:105950001870494804F0FDFA2946484804F0F9FA5D
:105960002946474804F0F5FA2946464804F0F1FA7A
:105970002946454804F0EDFA444B0E930EAD444BD6
:10598000444A1A6095E8030003F10C020CAE86E865
:10599000030092E8030085E8030096E8030082E82C
:1059A00003003D4A5A619A6911923C4A1C719C60FD
:1059B0009A6144F620613A4A109403F10800CDE957
:1059C000008403F041FB2846FFF7DEF9354B0193D5
:1059D0001E2340F25B720093334902944FF400732C
:1059E000324800F07FFD3249084604F09BF9304907
:1059F000304801F073FD2146404613B0BDE8F04F3A
:105A000003F0CABC08D7032090D6032050D403204B
:105A100054D4032020D4032018D403201CD4032002
:105A2000CCD6032024D40320B8D6032028D40320C6
:105A3000F4D60320F2F20B0064D60320FBF20B0035
:105A400054D6032009F30B0044D6032013F30B00B4
:105A50004CD6032020F30B006CD603205CE003201F
:105A60002AF30B005AF90B0074D60320E8D7032061
:105A70001CE10320E4D703202CE003203CE00320BA
:105A80004CE0032098E10320ACE10320014C0B0023
:105A90002CE10320A0F70B00AB4B0B00BF4B0B001E
:105AA000714B0B00ED4A0B0038F30B0078D7032045
:105AB00048E10320A8E003207CD60320E0D60320A1
:105AC000A4D60320000000002DE9F04F99B07E49D4
:105AD0007E4D044610A804F03CFA06F025F8039029
:105AE00006F01AF8039A7A490094034614A804F0C1
:105AF00085FB14A910A804F0D9FA14A804F0DEF963
:105B00007449754C10A804F0DFFA7449284604F073
:105B10007EFA50231099AB6305F1280004F077FA60
:105B20006F4B00936F48704B2246294602F0ECFD04
:105B30002368C82B26D106F0C5F96C4905F0D9FDBC
:105B400006F0C0F9616805F0D4FD221D684904A87B
:105B500002F00AFF664904AA14A802F00CFF654986
:105B600014A804F0E0FA044614A804F0A7F9B4B1AC
:105B700006F0A8F9604905F0BCFD002404A802F075
:105B800009FF05E006F09EF95C4905F0B2FD00242E
:105B900010A804F093F9204619B0BDE8F08F5849D9
:105BA00004A802F041FF002870D0554A04A907A8B4
:105BB00002F0C0FF06F086F92246054607A914A8A0
:105BC00002F0D8FF14A9284605F09DFD14A802F0A4
:105BD000E1FE37A7D7E900670FF2DC09D9E90089B0
:105BE000224607A90AA802F0C5FF464A0AA90DA83D
:105BF00002F0A0FF0DAA3E4914A802F0BCFE3D49E8
:105C000014A804F090FA054614A804F057F90DA85A
:105C100002F0C0FE5DB106F055F93B4905F069FDA3
:105C20000AA802F0B7FE07A802F0B4FEA5E7354ABD
:105C3000364D0AA914A802F07DFF14A802F0E0FE78
:105C40002B6851EC100B03EBC40A0022304BFEF71B
:105C5000CDFCCAE9000114A802F09CFE2B684FEAB3
:105C6000C40B062C9B4415DC15A3D3E90023DBE908
:105C70000001FEF7DBF90134CBE900010AA802F0CC
:105C800089FE182CACD107A802F084FE214B012418
:105C90001C7073E7A4F11103042BDBE9000199BF29
:105CA00042464B4632463B46E3E700BFAFF3008037
:105CB000EFC9C342AD69E43F04560E2DB29DFE3FCD
:105CC00044FAEDEBC039CB3F46F30B005CE0032018
:105CD0008CF30B0099F30B0018E10320E7F30B00A2
:105CE00000F40B00E8D7032030D4032004F40B00A9
:105CF00058E603201EF40B0035F40B0028F40B00CB
:105D00004BF40B0053F40B0060F40B00DCD70320C2
:105D100000408F4041D603202DE9F041894CC6B0A8
:105D2000FFF742FC23784BB1874B01221A7005F034
:105D3000E7FE0130FFF7C8FE00232370834E844C3A
:105D4000337833B3FFF7E4F9824B8348196818229C
:105D5000FFF7EEF8814B186006F0B4F8054605F041
:105D6000B7FE019005F0C0FE019A7D490346284622
:105D7000FEF7EEFF0123237000233370774B764844
:105D80001968FFF753FC774B01221A700023237028
:105D900002E02378002BF1D1734D2B7813B3734CB1
:105DA0007349226806A803F0BBFB0023FF2206A963
:105DB000704804F0ADFC02A8FFF7F2FA002202A935
:105DC0006D4804F005FD02A804F078F822686B49DC
:105DD000002302A82B7003F0A3FB6949694802AABB
:105DE00000F009FE684C23782BB1FFF7B9FB0023C4
:105DF000237001233370654F3B78002B3AD005F0B8
:105E000067FE002877D1624C5C49236802A8DA6DEE
:105E100003F086FB26680025A6F1040800245C3602
:105E200058F8040FFEF74EFA02460B462046294664
:105E3000FEF7FCF8464504460D46F1D1554B0022CD
:105E400020462946FEF7D2FB0B460246524906A8D9
:105E500003F066FB51494B4802AA00F0CCFD5049C3
:105E6000484806AA00F0C7FDFFF720F9FFF714FC29
:105E700000233B704B4C257803F00CF84A4B1B6811
:105E8000C01A40F6B83398422ED96DB3FFF740F9E7
:105E9000364B37491A6806A803F042FB0023FF225D
:105EA00006A9344804F034FC40494148002204F07B
:105EB0008FFC40494048002204F08AFC3F4940489A
:105EC000002204F085FC3F493F48002204F080FC9A
:105ED0003E492948002204F07BFC0023237005F092
:105EE000F1FF3B49FEF734FF4FF47A7046B0BDE84E
:105EF000F04105F02FBEDFF8DC80D8F8004005F057
:105F0000E7FD00F1804001381C4954F8202002A828
:105F100003F006FB00260024002505F0D9FDB04261
:105F20008CDDD8F8003053F82600FEF7CBF9024696
:105F30000B4620462946FEF779F8013604460D4601
:105F4000EBE700BF5CD6032040D6032041D60320F8
:105F500061D60320D8D7032010D7032070D70320A1
:105F600071F40B005FD6032062D6032074D70320A0
:105F70008BF40B0064D603206CD6032043FA0B008D
:105F800097F40B0078D703205ED6032063D6032056
:105F9000A8E1032000408F409DF40B00A2F40B0009
:105FA000ABF40B005DD6032028E003204CE0032077
:105FB00054D603202CE0032044D603203CE00320E9
:105FC0004CD60320ACE1032074D6032098E10320D3
:105FD000B5F40B0094E1032070B58AB00C46054679
:105FE000116806A81E4602F07FFE06A9204604F0AE
:105FF00006F806A803F062FF22461149684602F03F
:10600000B3FC3246694603A802F094FD0024224600
:1060100003A906A802F0AEFD06A802F0E6FC45F8CA
:10602000240006A8013402F0B5FC182CEFD103A817
:1060300002F0B0FC684602F0ADFC0AB070BD00BFD3
:1060400058E60320F0B587B005F03CFF764905F02F
:1060500050FB764902A803F07CFF02A9744802F0C5
:1060600021FE064602A803F029FF724902A803F0A8
:1060700070FF02A9704802F015FE054602A803F061
:106080001DFF6E4902A803F064FF02A96C4802F0EC
:1060900009FE044602A803F011FF002E40F3AD8074
:1060A000002DC0F2A680002CC0F2A38005F0E2FC17
:1060B000002800F0968005F0FAFC624B62490093DC
:1060C0000246C31702A805F093FC02A804F077F873
:1060D00087B202A803F0F2FE554902A802F004FEBE
:1060E00002A804F06CF886B202A803F0E7FE34467A
:1060F00005F0E8FE55493246FEF738FE013405F05A
:10610000E1FE53493A46FEF731FEBC42514C2AD1DA
:1061100005F0D8FE504905F0ECFA2468464902A87B
:1061200003F017FF4D4B4E4902AA2046FFF754FFDC
:1061300002A803F0C3FE4A4902A803F055FF02A9D2
:106140003D4802F07FFD02A803F0B8FE3B4902A8DB
:1061500003F0FFFE3A4802A902F074FD02A803F022
:10616000ADFE07B0F0BDB7423E4D1ED105F0AAFE10
:106170003D4905F0BEFA2D682F4902A803F0E9FE5B
:10618000364B3A4902AA2846FFF726FF02A803F039
:1061900095FE24682A4902A803F0DBFE344B3049FF
:1061A00002AA2046FFF718FFD8E705F08BFE314919
:1061B00005F09FFA1F4902A803F0CBFE02A91E4872
:1061C00002F040FD02A803F079FE1C4902A803F08A
:1061D000C0FE02A91A4802F035FD02A803F06EFEC7
:1061E000C9E705F06FFE244907B0BDE8F04005F0AF
:1061F00080BA05F067FE2149F6E703D005F062FE9C
:106200001F49F1E7174B0C491C6802A803F0A1FED7
:10621000124B1649204602AAFFF7DEFE02A803F041
:106220004DFE0C4B1C68B5E7C4F40B00EDF40B00FD
:10623000E3F20B00F1F40B00B9F20B0031F50B00A7
:10624000CCF20B00CBEF0B0094E6032075F50B00AE
:1062500090F50B00A8E103209DF50B00D2F50B0093
:10626000ACE1032094E10320DCF50B0098E103206E
:106270000DF60B001BF60B0052F60B007AF60B0026
:106280009EF60B0010B55F4B012298B01A7003F018
:106290000FF910B903F004F9F9E703F009F9002048
:1062A00003F00EF9FEF7A6FDFFF7CAF8B7EE000AF5
:1062B00005F0D8FA05F00CFC534B544A18705449B9
:1062C00009A801F0D3F909A90FA803F07DFF40F256
:1062D0005B720F994F4800F00CFA0FA803F0EEFD27
:1062E00005F0F0FD4C4904460FA803F032FE05F01E
:1062F000DEFB0A22014605A803F0AEFE05A90FA8A1
:1063000003F005FF454B016842481A4600F0E8FAE1
:10631000434902462046FEF71BFD05A803F0CEFDCB
:106320000FA803F0CBFD3B4800F0D5F968B105F0AC
:10633000C9FD3C49FEF70CFD3B493C4A354800F09D
:106340005AFB3B49334800F0FAFC05F0BBFD04461C
:1063500005F0BEFB039005F0C7FB039A35490346E1
:106360002046FEF7F5FC05F0ADFD334904460FA8C5
:1063700006F018FA0FA806F0F1F930490246204657
:10638000FEF7F4FC05F09EFD2D492E4CFEF7E0FCD7
:1063900005F0B6FB0138FFF797FBFFF7E1F805F0D2
:1063A00091FD2949FEF7D4FC05F0AAFBFFF78CFB11
:1063B000FFF7D6F8FFF746FE05F08AFB0C2818DD3C
:1063C00000232370214B01221A700321082006F0BC
:1063D00015FB0023009301224FF0FF331C490820D6
:1063E00005F098FD1B486FF00041FEF7F7FB18B071
:1063F00010BD05F067FD18490D22FEF7A9FC012329
:106400002370E2E760D60320E4D70320BCF60B003C
:10641000A8E0032078D7032050F20B0058F20B00BD
:10642000D0F60B00E1F60B0007F70B00FBF60B00B4
:1064300011F70B0071F40B0008E703201EF70B00A7
:1064400026F70B0041D6032048F70B005CD603204B
:10645000154B0B002CE1032066F70B0091F85C3024
:1064600010B50446016013B1886D02F015FE204698
:1064700010BD10B5036893F85C20044612B1986D06
:1064800002F012FE204610BDF8B51F469DF82430DC
:1064900004460D4616462BB1012380F85C30583077
:1064A00002F0F2FD089B23630023636306B1A66438
:1064B00025B1294604F1380003F0A9FD069B2365A8
:1064C000079BE069A4F84C70FF2BB8BFFF23A4F82A
:1064D000543008B1FEF7FDFAB4F85400FEF7F7FAAD
:1064E000E061F8BD2DE9FF410446002517469846B6
:1064F0000E4606F081F80D49E56104F1380003F01D
:1065000028FD9DF8303003930B9BA564CDE90183F2
:106510000A9B0093204684F85C503B462A4631464D
:10652000FFF7B2FF204604B0BDE8F0815AF90B0036
:1065300010B50446204605F0BBFF0028FAD02046DF
:1065400005F0C4FDC0B210BD2DE9F04705468846F0
:10655000FFF7EEFFEB691870EB6993F800A04FF0BE
:1065600001090AF0F00A00274C462846FFF7E0FF31
:106570002646EB69985500F07F0313FB09F31F448F
:1065800001340306A4B2BFB24FEAC919EDD4631EA9
:10659000BAF1300F88F800301ED12846FFF7C8FF47
:1065A000EB6918552846FFF7C3FFF41C0236B6B254
:1065B000EB69A4B298550226B6B2BE420ED2284666
:1065C000FFF7B6FFB5F85430A34284BFEB69185506
:1065D0000134A4B20136EFE70026EDE7B5F85430F8
:1065E000A3422CBF20460020BDE8F0872DE9F341EF
:1065F00015461E461A4607460023964602A802F094
:106600007F0CBEF17F0F03F10104034488BF4CF0FF
:10661000800CBEF17F0F4FEAD212E4B203F804CC33
:106620001ED8C4F10403C4F10500E954224601A9AF
:10663000284405EB030806F0DDFB721C22444146AA
:10664000384605F02EFD054602F024FC621C7862F7
:106650003244A8B2131A5842584102B0BDE8F08142
:106660002346CAE713B50446014601A8FFF7F6FE24
:10667000E369E0221A70E36900225A70E16902229C
:10668000204605F00EFD204605F06CFF02F002FCEE
:10669000C4E9090001A8FFF7ECFE02B010BD023307
:1066A000F0B5054698B20023CE5C9CB256B1B5F861
:1066B00054C0844503F1010704D9441C16543B46D9
:1066C000A0B2F1E799B2411A0A44210A02F8021C69
:1066D00002F8013CF0BD38B5044605F00BFE002879
:1066E00014BF0125002502D1204605F03BFF2846B6
:1066F00038BD70B504460E461546FFF7ECFF10B1E5
:106700002046FFF7AFFF314604F1380003F07FFC6D
:106710000023A364A4F84C5070BD00002DE9F0479D
:1067200088B00446DDF840809DF850A089461746A1
:106730001E46FFF7D0FF0546002840F0CD802146D9
:1067400001A8FFF78BFEA16C002940F08880B4F807
:106750004C20A16B2B46204605F04EFD00287AD038
:10676000012323849DF85430E269042B5B4B40F0F5
:106770008180186899889B79ADF80C108DF80E30DF
:106780000290C2F805009DF80E30BDF80C10A2F87A
:106790000910D3720C23B8F1000F00F081809DF82E
:1067A00048009DF84420400140EAC20040F0060045
:1067B000C0B2BAF1000F01D100F0FD001FB1002EF0
:1067C00070D140F08000E269D054226DE169581C1C
:1067D00012120A549A1CE169206D88540333E2694D
:1067E00049462046FFF75BFF0346B8F1000F0BD088
:1067F000E26941462046FFF752FFE26913990346DA
:106800002046FFF74CFF034667B1E2693946204650
:10681000FFF745FF03462EB1E26931462046FFF7F8
:106820003EFF0346053BE2699BB210212046FFF77D
:10683000DDFE02F02FFBC4E909004FF47A76204612
:1068400005F036FE88BB02F025FBA36AC01A236D53
:1068500073439842F3D9204605F084FE35E002A840
:1068600005F0C6FAB4F84C202B4602A9204605F0E4
:10687000A3FD73E7D3F80700D3F80B10DB7B0DF112
:10688000080CACE803008CF8003002AB03CBC2F874
:106890000500C2F809109CF8003053730E237AE704
:1068A000022086E740F0C0008DE702A92046FFF7EE
:1068B0004BFE0428CFD1E369DE78002ECBD102F065
:1068C000E9FA0125A06284F82C6001A8FFF7D1FD48
:1068D000284608B0BDE8F0870025F9E78CEF0B00EB
:1068E00010B54FF0040C86B00124CDE9044C00240F
:1068F000CDE90244CDE90044FFF710FF06B010BD1A
:106900002DE9F74FDDF83C809DF834509DF8389024
:1069100004468B4616461F46FFF7DDFE82460028DA
:1069200051D0214601A8FFF799FDB4F85420E06941
:10693000002106F087FA0523E26959462046FFF751
:10694000AEFE6B1E012B15D8218CE369013189B293
:106950002184090A1954421CE369218C92B2023045
:10696000995480B2B8F1000F04D0238C5A1C2284B1
:10697000A8F8003000210B188F42E2699BB20AD9B7
:10698000B4F854C09C4506D916F801C002F803C0FB
:10699000013189B2EFE79DF8301000290CBF30219A
:1069A0003121B9F1000F01D041F00801022D0ED1C3
:1069B00041F00401053B9BB22046FFF717FE8246DB
:1069C00001A8FFF756FD504603B0BDE8F08F012D3A
:1069D00008BF41F00201EDE71FB5089C03940024B5
:1069E00002949DF81C4001949DF818400094FFF714
:1069F00087FF04B010BD30B587B00446104605913E
:106A00000492FEF707F800250346CDE90155DDE9BC
:106A1000042100952046FFF7DFFF07B030BD73B5B6
:106A200004460E46FFF757FE0546C8B1214601A8A9
:106A3000FFF714FDE36962221A70E36902225A70BB
:106A4000E369320A9A70E369DE70E1690422204644
:106A500005F027FB051E01A818BF0125FFF709FD5A
:106A6000284602B070BD73B504460E46FFF733FEEC
:106A70000546C8B1214601A8FFF7F0FCE369722280
:106A80001A70E36902225A70E369320A9A70E36964
:106A9000DE70E1690422204605F003FB051E01A813
:106AA00018BF0125FFF7E5FC284602B070BD2DE9AF
:106AB000F04F2DED028B87B000AF0446FFF70BFEC1
:106AC0008146F8B1214607F11400FFF7C7FC02F038
:106AD000E1F9236D4FF47A725343A26A821A9A4203
:106AE000064603D8626A821A934221D294F82C3067
:106AF0007BB1204605F036FD4FF0000907F1140088
:106B0000FFF7B7FC48461C37BD46BDEC028BBDE81D
:106B1000F08FE269C0211170E2695370E1690222CD
:106B2000204605F0BEFAC4E90966012384F82C303A
:106B3000204605F0BDFC0028E0D007F113012046F7
:106B4000FFF702FD83460028D8D0E369A6621978D2
:106B500001F0F002302A7FD1D4F830A0BAF1000F52
:106B6000CCD097F813C06A4608EE102A03EB0C024B
:106B70005178957805EB0125ADB205F1080269461B
:106B8000D208A1EBC20295460CF10302FA6003EBB6
:106B9000020E0DEB05026846C7F808D07A60D7E907
:106BA00001218A4206D00A461EF8018B02F8018BA9
:106BB000BA60F4E70022425593F80080F96808F0C3
:106BC0000608ABEB0C02033AB8F1020FA2EB050288
:106BD000294425D113F801E01944023A91F801B093
:106BE0000CF10501294419440BEB0E2BD047E36946
:106BF00040221A70E3691FFA8BFB83F80180E36976
:106C00004FEA1B229A70E36983F803B0E16904221A
:106C1000204605F046FA666218EE103A9D466DE78A
:106C2000B8F1040F15D113F801E01944023A91F8B4
:106C300001B00CF10501294419440BEB0E2BD04790
:106C4000E36950221A70E36902221FFA8BFB5A7023
:106C5000D5E71944D047DFE7502A08D19A78D97888
:106C600001EB022189B22046FFF7D9FE46E7402A10
:106C700012D1626B002A3FF441AFBBF1040F7FF4E5
:106C80003DAF11F0060F7FF439AF9978D87800EB5B
:106C9000012080B2904731E7602A08D19A78D978EC
:106CA00001EB022189B22046FFF7DDFE26E7702ABC
:106CB000DFD0902A3FF422AFC02A0AD1D0221A7026
:106CC000E36900225A70E1690222204605F0E9F9E1
:106CD00014E7D02A04BF002384F82C300EE7F7B560
:106CE00004460F461646FFF7F6FC054610B321464C
:106CF00001A8FFF7B3FB238C01339BB2EBB12384D4
:106D0000238CE2691B0A5371E369228C9A71E26950
:106D1000072339462046FFF7C2FCE3691E540438B6
:106D200083B2E26982212046FFF760FC054601A894
:106D3000FFF79FFB284603B0F0BD0123DFE70022E9
:106D4000FFF7CDBF0160704770470023F0B51C46C8
:106D50000568ED5C2E2D00D0BDB91D1B8D5402F1D0
:106D6000010C26460A44B342076804DDBF5D02F801
:106D7000017F0136F7E79C42C8BF0025FC5C2E2C42
:106D800008BF013305EB0C021C4605682D5D01337D
:106D9000002DDDD11046F0BD38B50B46054622EA80
:106DA000E2721846002106F04DF8012401464471B4
:106DB0000C222846FFF7C9FF00230B5401444B70F7
:106DC0008C70CB700C7138BDB0B582B0054600AF89
:106DD00000680C46FDF71EFE00F1190323F00703BF
:106DE000ADEB030D00F11202694628467A60FFF709
:106DF000D3FF23687A68DB68694620469847236892
:106E000020461B6C98470837BD46B0BDF0B589B029
:106E10001C460F9B1668042B15461FD1721C2A6056
:106E2000B31C815D2B60F71C825C2F600436C35C51
:106E30002E600125C05D84F804510E9DC4F80051F8
:106E4000009003AD02A804F0C7FF0FCD04F58674CF
:106E50000FC42B682370202009B0F0BD33441360A9
:106E6000F9E72DE9F04700252B4602F1FF3E4FF0F0
:106E70002E0895421DD24C5D3F2C01EB050720DC0E
:106E8000E61876451FD81BB1066806F80380013363
:106E9000BA460026A64206EB030C03DB234401346A
:106EA0002544E6E707681AF8019F07F80C900136B9
:106EB000F0E703681A44002302F8013C2020BDE8F3
:106EC000F0872620FBE72320F9E72DE9FF410A9C04
:106ED0000025A54225D0166810F8068008F0C00CE1
:106EE000BCF1C00F00EB060E06F1010720D11760C0
:106EF0009EF8004002361660C25D240204F47C5401
:106F000014448C4202940ED81B682B440393C5F1A1
:106F1000FF03009302AA03ABFFF7D7FF002804DBAF
:106F20004419204601E06FF0210004B0BDE8F08173
:106F300005F1010C1760B8F1000F05D11B689EF830
:106F400000205A556446ECE7875D1E687755654614
:106F5000BFE713B5FF240094FFF7B7FF02B010BDE1
:106F60002DE9F0470546ADF51A7DFF208846144609
:106F70001E4602F0BDFA0490B8B104AB2246414669
:106F80002846FFF7E6FF10F1220F07D1049802F020
:106F9000B7FA22200DF51A7DBDE8F08702F0A8FAB5
:106FA000059020B9049802F0ABFA2720F2E7049983
:106FB00003910846FDF72EFD0399024605A8FFF749
:106FC00050FF0599304600F087F90746059802F012
:106FD00097FA2268531C2360911CA85C2160E95C2D
:106FE000531D01EB0021A818236090F804C0901DE8
:106FF0002060EB5C1B0403EB0C6302F1070CC4F88C
:1070000000C0285C03EB002302F10800206015F8A3
:107010000C90994402F1090323600A32285C226033
:1070200015F803A001290AEB002A12D1781C77D0A9
:107030003946304600F04BF9CDE9009A0346224626
:1070400041462846FFF7E2FE049802F059FA202054
:10705000A0E7052964D1791C62D03946304600F09A
:1070600036F9002380F804313946304600F02FF914
:10707000C0F8009123680693534423602846CDF856
:1070800000A004AB06AA4146FFF71FFF10F1220F34
:1070900005463FF47BAF08AC204600F0E1F90499C7
:1070A00007946A1E07A8FFF7DCFE2146304600F071
:1070B0002BF9431C25D14FF48072214651A805F0CD
:1070C00099FED4F80031919394F804318DF8483248
:1070D0000DF5967C144B9393BCE80F0094AD0FC54F
:1070E000DCF800302B7051A9D4F820319993304648
:1070F00000F057F951A800F0E7F92146304600F0BA
:1071000003F90146304600F0E2F8394605463046BC
:1071100000F0DDF8C0F82051204600F0D5F993E7E3
:107120005244226090E700BFE8FC0B00F0B5037901
:10713000467906EB032613680C3313600025AE4234
:1071400016D01368C45C2CB104F0C007C02F06D160
:10715000023313601368053313600135EFE73F2CEA
:107160000CD8013323448B421360EAD92320F0BDAD
:10717000136801318B42F9D82020F8E72620F6E782
:107180002DE9F843002405464FF00108A1462846A2
:1071900000F0BCF8A0422FDD2146284600F097F809
:1071A000D0F8203133B32146284600F090F8D0F8CB
:1071B000203193F80431EBB12146284600F087F8DE
:1071C0002146D0F82071284600F081F807F586772F
:1071D00000F586760FCF0FC63B68337021462846F0
:1071E00000F075F8214680F80481284600F06FF819
:1071F000C0F820910134CAE72020BDE8F8832DE9CA
:10720000F743914690F902208378002A0646884683
:1072100028DA9B0722D4C57815F00F0520D1837991
:10722000C77917EB03271DD001AA0195FFF77EFF51
:10723000202804460ED14B4601AA41463046FFF7AE
:107240008FFE2028044605D10135AF42F3D14846D0
:10725000FFF796FF204603B0BDE8F0832524F9E749
:107260002324F7E72024F5E7F0B54A1E0D4604462F
:10727000034600F5807112F8010F03F8010B8B42F1
:10728000F9D1D5F80031C4F8003195F8043184F80B
:10729000043105F586770FCF04F586760FC63B6877
:1072A0003370D5F82031C4F82031F0BD70B50446F4
:1072B000054600F59266284605F5927500F0D0F86F
:1072C000AE42F8D10023C4F89034204670BD4FF48C
:1072D000927303FB010070472DE9F041D0F89064F0
:1072E0000546884600244FF49277A64207DD4146C2
:1072F00007FB0450FDF784FB18B10134F5E74FF0AC
:10730000FF342046BDE8F081FFF7E6BFD0F89004D7
:10731000704770B5D0F89044A4B1D0F80051012165
:10732000002200F580734FF492768C4208DD06FB54
:1073300001F01858A8423CBF0A4605460131F4E75F
:10734000104670BD4FF0FF30FBE74FF4927303FB24
:107350000101D0F89024002330B51C46934209DA8D
:10736000D0F820518D4208BFC0F82041013300F50C
:107370009270F3E730BD38B504460D46FFF7E5FFE0
:10738000D4F890144FF49270013900FB014100FBD6
:107390000540FFF769FFD4F89034013BC4F89034FE
:1073A00038BD38B504460D46FFF796FF431C08D09C
:1073B0004FF49273294603FB0040BDE83840FFF7C5
:1073C00053BFD4F89034042B06D12046FFF7A1FF19
:1073D00001462046FFF7CFFFD4F890344FF4927067
:1073E00000FB03402946FFF73FFFD4F890340133F8
:1073F000C4F8903438BD2DE9FF416E460446054679
:10740000B0460027D4F89034BB420ADD284600F08D
:107410005CF8D5F8003148F8043B013705F5927562
:10742000F0E70025D4F89034AB4208DD56F8043B71
:107430001BB929462046FFF79EFF0135F2E704B04D
:10744000BDE8F08130B587B0044601AD684604F070
:1074500097FC0FCD04340FC42B68237007B030BDE8
:1074600038B500F584750446284604F069FC00230D
:107470002846237084F80431C4F80031C4F8203160
:107480004FF0FF31FFF7DEFF204638BD73B500F542
:107490008476044630461546019104F051FC01996A
:1074A0004FF48072204605F01FFD00233046C4F8DB
:1074B000005184F80431C4F820314FF0FF31FFF758
:1074C000C1FF204602B070BD7047D0F80031002BDC
:1074D000C4BF03F1FF33C0F800317047F8B504466C
:1074E00004300D4602F01EFC04F1500004F028FCAC
:1074F0000023E3666B68A360AB68E360EB6823611D
:107500006B69A36105F120072B8BA3830FCF04F1D7
:1075100024060FC63B6833702B8FA387EB6B236465
:107520002B6C63646B6C6A6BA36495F84830A26340
:10753000204684F84C30F8BD10B58AB0044603A844
:10754000FFF700FCFB23009300231A460434E021DC
:1075500004A804F041FC41F2E94204A9204602F0EB
:107560002FFC214603A8FFF72FFC204602F044F928
:1075700003A8FFF7E9FB0AB010BD0000F0B505460F
:1075800089B02D48FFF737FF95F868402F1D54BB91
:10759000012385F8683004F095FC284904F0A9F827
:1075A000224641F2E941384602F080F904F08AFCB3
:1075B000FB2322460093E0212346064602A804F05E
:1075C0000BFC02A9384602F04FFC041E1DDA2D21E7
:1075D000304604F079F861420A22304604F09DF802
:1075E000304604F07AF80021384602F000FC0646E6
:1075F00000B301F07DFF044648B904F063FC104974
:1076000004F077F8272009B0F0BD2146E4E70146F1
:107610003246384602F0B9F9384602F035F9064AE2
:1076200031462046FFF7EBFD2860204601F068FF59
:107630002868E8E72020E6E7BCE10320DEF80B003D
:10764000EEF80B0010B508460C46FDF7E3F90528E7
:1076500008D9063804492044FDF7D2F9B0FA80F081
:10766000400910BD0020FCE7C9F60B002DE9F043EE
:107670000C46CDB00646114620461546FFF7E2FF00
:1076800050B904F01FFC384904F033F84FF0FF31D3
:10769000304604F075FB4DE03448DFF8D090FFF73A
:1076A000AAFE4FF0000829464846FFF715FE431C86
:1076B00007461ED10522294603A8FFF7E7FE4846E4
:1076C00003A9FFF76EFE03A8FFF7FEFEB8F1050F52
:1076D000E9D1FB23009300231A46E02103A804F01C
:1076E0007BFB03A9201D02F0D0FB002384F8683047
:1076F000CCE701464846FFF7EAFD90F80431EBB1CC
:10770000FB23009300231A46E02103A804F064FB46
:1077100003A9201D02F0B9FB39461448FFF7D7FD35
:107720003446134B44F8043B00F586750FCD0FC467
:107730002B68237030464DB0BDE8F08301F0AAFB02
:10774000E36EC31AB3F57A7F074606DD2946204665
:10775000FFF7F2FE08F10108E7662046FFF70EFF8B
:107760002028B3D092E700BFFCF80B00BCE1032057
:10777000E8FC0B000148FFF799BD00BFBCE1032006
:10778000002210B504461046A15CA1F13003092B7C
:107790000BD8A0F13003032A01EB030002F1010230
:1077A00018BF0001042AEFD110BDA1F14103052B40
:1077B00002D8A0F13703EEE7A1F16103052B02D84F
:1077C000A0F15703E7E70020EEE700002DE9F84FAE
:1077D0000A688B6880465D1CD018D35C222B8A46D1
:1077E000154440F0DD804C682F460023B91AA142B1
:1077F00080F0D680397822290ED1C3F10103381ADE
:10780000DAF81020184490478346002800F0C8801A
:10781000DFF8989104460FE05C2905D10137B91AC9
:107820008C4240F2BD8001330137DFE72B785C2BBF
:1078300012D004F8013B0135BD42F7D30023237079
:107840001023C8E9033BDAF80030FB1A0133CAF809
:1078500008300120BDE8F88F7A1B002A0DDD6B7817
:10786000752B0AD86D2B12D8622B2BD026D82F2B34
:1078700029D05C2B27D0222B25D0DAF8143058469B
:107880009847DAF80000281ACAF808008BE06E3B27
:10789000072BF2D801A151F823F000BFD1780B00DB
:1078A0007B780B007B780B007B780B00D5780B0086
:1078B0007B780B00D9780B00DD780B00662BDCD1D0
:1078C0000C2300E0082304F8013B02231D44B3E726
:1078D0000A23F8E70D23F6E70923F4E7052ACCDDB0
:1078E000A81CFFF74DFFA0F55C43B3F5806F06467B
:1078F000C3D3A0F55843B3F5806F2DD2AB1DFB1A4F
:10790000052BBADDAB795C2BB7D1EB79752BB4D1F4
:1079100005F10800FFF734FFA0F55C43B3F5806F75
:10792000ABD209EA8626C0F30900304300F5803661
:107930000C234FF0F00C042000F1FF3E54FA8EFEB1
:10794000A645F2B224D1012814BF4CEA020202F08B
:107950007F0222700444B9E77F280AD9B0F5006F8E
:107960000CD3B0F5803F0ED3B0F5881F85D2062327
:10797000DFE706234FF0000C0120DDE706234FF080
:10798000C00C0220D8E706234FF0E00C0320D3E719
:1079900002F03F0262F07F010EF80119B609CFE74D
:1079A000002D7FF46EAF002054E700BF00FC0F00F5
:1079B00010B540B1016871B142688368934206D244
:1079C000CC5C202C00D910BD01338360F5E7FAD1DF
:1079D000013A8260F7E70846F5E710B1806800B128
:1079E00001B9704700680139F9E738B5044638B184
:1079F000006828B1A5682844FDF70CF82844A06069
:107A000038BD70B50446B8B1056865B1436813B1B7
:107A10008268934210D900290EDBA2684E1C1644DE
:107A2000B34202D31544284670BD236923B9B6F189
:107A3000804F03D3002E0FDA0025F4E77600236A87
:107A40006BB12846314698470546B0B9E3692068CE
:107A50009847C4E90055E6E76FF00046EFE7A369F1
:107A60003046984705460028F0D0A26821680132C8
:107A700005F0C0F9E36920689847A368C4E9005697
:107A80001D44D0E7F8B50D460446002834D000293F
:107A900031D08468FAB9194E74B3236AC3B1AB42CA
:107AA00021D005F1FF3C013B1CF8011F8A5D02F06B
:107AB0000302012A13F8012FB05C00F003000F4607
:107AC00008BF01F12007012808BF203297420FD0DC
:107AD0002468E1E724687CB1216A21B12846FCF7DB
:107AE0008FFF0028F6D1236A002B08BF002403E093
:107AF0000029D9D1F7E70C462046F8BDE7FF0B0077
:107B000061B160B1836813B98160012070471A4682
:107B10001B68002BFBD111604A60F6E708467047EE
:107B20002DE9F84F0646084611B90020BDE8F88F48
:107B300036B3444F31464FF0000A01240D4611F888
:107B4000013B3BBBAD1B5544E91CFFF75AFF074601
:107B50000028EAD04FF0220B441C05F1010905F181
:107B6000020880F800B0BAF1000F29D12A46314648
:107B7000204605F03FF907F809B007F808A007E02C
:107B80000321FFF73EFF0028CFD02F4905F090F9E1
:107B90000120CBE7222B0BD8072B0CD9A3F108022D
:107BA000D2B204FA02F23A4205D00AF1010AC5E75C
:107BB0005C2BC3D1F9E71F2B98BF0AF1050ABDE77B
:107BC000DFF888B0013E5C254FF0740A16F8013FDB
:107BD0002BB9222207F8092007F80830D8E71F2B15
:107BE00007D9222B05D05C2B03D023702046441CE0
:107BF000ECE7204600F8015B32780D2A0AD8072A04
:107C00001AD9A2F10803052B16D8DFE803F00912F0
:107C10000E150C10222A01D05C2A0DD16270E6E705
:107C200062236370E3E76623FBE76E23F9E77223C1
:107C3000F7E784F801A0DAE7594601F071FC601D0E
:107C4000D5E700BF3700000406F90B0009F90B0067
:107C500037B5054680B1FCF7DDFE084B421C1B68BA
:107C6000019210469847044618B1019A294605F03A
:107C7000C1F8204603B030BD0446FAE758D40320CB
:107C8000F8B50D4614460746F0B1E9B1E2B193B13B
:107C9000D66846F40076E3689B0504D4206A10B1E8
:107CA0000A4B5B6898472562E66021463846BDE886
:107CB000F840FFF725BF0846FFF7CAFF054618B191
:107CC000E66826F40076E6E70020F8BD58D40320E5
:107CD0002DE9F0430C468DB0064608B900255DE05D
:107CE0000029FBD0057B102D00F0C18018DC6B1E35
:107CF000072BF3D8072BF1D801A252F823F000BFCD
:107D00008B7D0B00A57D0B00DD7C0B00757D0B00D2
:107D1000DD7C0B00DD7C0B00DD7C0B00B57D0B00FA
:107D2000402D00F0D380802D00F08D80202DD5D106
:107D3000866801212046FFF764FE0028CED05B2331
:107D40000370A3680133A360E3680133E3602C2769
:107D50004FF00008002E40F0908002212046FFF7EF
:107D600050FE0028BAD05D2303704670E368013BE3
:107D7000E36008E005212046FFF743FE0028ADD070
:107D8000A14905F095F8012508E006212046FFF7F6
:107D900038FE0028A2D09D4905F08AF828460DB08B
:107DA000BDE8F08305212046FFF72BFE002895D083
:107DB0009749E6E7D0E906670022002330463946B6
:107DC000FCF7EAFA00220023FCF74EFDB0B98E4919
:107DD00005A805F06DF80425691C2046FFF711FE83
:107DE00000283FF47BAF024605AB4619964225D1E9
:107DF00000234355A0682844A060C4E78549324663
:107E00003B4605A801F08CFB8349054602AA05A85C
:107E100001F096FB012806D1DDE902233046394600
:107E2000FCF722FD30B97D4932463B4605A801F0FA
:107E300077FB0546192D3FF651AFCDE713F8011B2F
:107E400011700132D2E7006900283FF447AFFCF718
:107E5000E1FD421C114620460192FFF7D2FD0028A9
:107E60003FF43CAF019A316904F0C4FF8BE700692D
:107E70000DB0BDE8F043FFF753BE21463046FFF793
:107E800027FF00283FF42AAF2046FFF7AEFD3368F6
:107E9000BBB16369002B14BF4FF002094FF0010919
:107EA00009F101012046FFF7ACFD00283FF416AFB1
:107EB000077063693BB9431C83F80080A3684B4497
:107EC000A360366846E7831C4570F5E74B69856813
:107ED000002B14BF02270127791C2046FFF791FDD4
:107EE00000283FF4FBAE7B230370E2686369013234
:107EF000E2600BB10A234370A3683B44A3600926E8
:107F00003A27636995B9002B70D0E16801312046AA
:107F1000FFF777FD00283FF4E1AE6369002B6FD1D6
:107F200003467D221A7000225A701FE773B1E16880
:107F30002046FFF766FD00283FF4D0AE0246E16818
:107F4000131A99424FD8A3680B44A360286A2146AC
:107F5000FFF7E6FD00283FF4C1AE2046FFF745FDE0
:107F60006369002B14BF4FF002084FF0010841462F
:107F70002046FFF746FD00283FF4B0AE0770636966
:107F800003B14670A3684344A36021462846FFF727
:107F90009FFE00283FF4A2AE2046FFF726FD2B6887
:107FA0006269B3F1000818BF4FF00108002A18BF3A
:107FB00008F1010808F101012046FFF722FD002821
:107FC0003FF48CAE2B6813B12C2300F8013B63699E
:107FD00013B10A2300F8013B00230370A368434454
:107FE000A3602D688DE702F8016BA8E702218EE7F8
:107FF00003F8015BE268191A013A9142F8D390E75D
:1080000003460925F6E700BF0FF90B001DFB0B0027
:1080100014F90B0019F90B0020F90B0024F90B00DF
:1080200070B5234D8AB00E4624220021044601A8D3
:1080300004F008FF2B684FF4807098474FF480726B
:1080400003460190029295E8070006960AAE06E9FB
:1080500007007BB101A92046FFF73AFE50B101A805
:10806000FFF7C3FCAE6803995EB101980131B047D8
:108070000446D0B9019CC4B120466B6898470024DF
:1080800013E02B68481C984704460028F2D0039A56
:10809000029B019901329A4228BF1A4604F0AAFEB7
:1080A000039BE65401986B68984720460AB070BD60
:1080B00058D4032010B5034628209847044618B129
:1080C0002822002104F0BEFE204610BD70B5104DE0
:1080D000044604B970BDE3682668D90503D4A068D6
:1080E00068B9206988B9E3689B0503D4206A08B1A0
:1080F0006B68984720466B6898473446E9E7FFF776
:10810000E5FFE368DA05ECD5EDE76B689847EAE749
:1081100058D40320000000002DE9F047064692B035
:108120000C4609B9002023E00F68002FFAD08D68B3
:10813000D1F8048005F10409C1450BD89049042207
:10814000781904F0BDFE28B90423F360A368043352
:10815000A36082E06B1D98450DD38A4905227819EA
:1081600004F0AEFE38B90120F060A2680532A260CA
:1081700012B0BDE8F087C1450CD8834904227819B4
:1081800004F09EFE30B902230120F3607061A26802
:108190000432ECE74545C5D27B5D222B07EB050099
:1081A00006D12146304612B0BDE8F047FFF70EBBBE
:1081B0002D2B03D0A3F13002092A63D8002302AA91
:1081C0000193A8EB050517464FF02E0E10F8011B82
:1081D000392910D82A291BD9A1F12B0CBCF10E0F7B
:1081E00016D8DFE80CF00D150D3C150D0D0D0D0D1D
:1081F0000D0D0D0D0D0001F0DF0CBCF1450F07D189
:10820000117001333F2B02F1010201D0AB42DDD1ED
:1082100012AA1344002503F8405C01A9384605F072
:10822000BDFCDDF804A0BA4559EC108B3FF47AAFE1
:1082300086ED060B50A3D3E9002310EE100A494641
:10824000FCF730FB70B16FF0004373610823F360FB
:10825000AAEB070AA7685744A760012088E782F8BD
:1082600000E0CEE7494B002240464946FCF710FBB0
:1082700010B14FF00043E8E740464946FCF726FBC3
:108280007061E3E75B2B50D1E368B3F57A7FBFF40D
:1082900049AF0133E3607B5D5B2B7FF443AF013576
:1082A000A5602046FFF784FBD4E9012393425DD209
:1082B0002268D25C5D2A09D10027E368013BE360B4
:1082C0002023C6E90273A368013341E7013B00257F
:1082D000A3602F462069FFF7EDFEA846054600285B
:1082E00000F09B80FFB1C8F80000C0F80480A368CC
:1082F0000133A3602046FFF75BFB21462846FFF7CA
:108300000BFF002800F08C802046FFF751FBD4E9DA
:108310000123934280F084802268D35C2C2BD9D037
:108320005D2B7DD1C9E70746E1E77B2B7FF4FAAEF1
:10833000E368B3F57A7FBFF4F5AE0133E3607B5DAC
:108340007B2B7FF4EFAE0135A5602046FFF730FBB5
:10835000D4E90123934209D22268D25C7D2A17D145
:108360000027E368013BE3604023AAE7013BA360E9
:10837000D8E600BFAFF300800000C0FFFFFFDF4181
:108380000FF90B001DFB0B0014F90B000000E0C1FE
:108390000025013BA3602F46A8462069FFF78AFE0F
:1083A000A9460546002838D0AFB3C9F80000C0F888
:1083B0000490A3680133A3602046FFF7F9FA214631
:1083C0002846FFF703FA58B32046FFF7F1FA2B6966
:1083D0002B62C5F81080D4E90123934220D2226891
:1083E000D25C3A2A1CD10133A3602046FFF7E0FAA1
:1083F00021462846FFF790FE90B12046FFF7D8FAB5
:10840000D4E9012393420BD22268D35C2C2BC4D035
:108410007D2B05D1A5E70746CBE7002F3FF482AEC1
:108420003846FFF753FE7DE62DE9F043304F89B023
:1084300005460E46904600211C2201A84FF0000977
:1084400004F000FDC7E90099002D48D028460195A9
:10845000FCF7E0FA274B0130029093E8070008ABE5
:1084600003E90700FFF726FE044668B3019870B1E0
:10847000039B5BB9029B042B06D91F49032204F01E
:108480001FFD08B90323039301A800E04846FFF746
:108490008FFA01462046FFF73FFE90B1B8F1000F7A
:1084A00004D1F6B9204609B0BDE8F08301A8FFF772
:1084B0007FFADDE90223934203D2019AD35C002BB9
:1084C000EFD02046FFF702FEDDE902329A420DD3DB
:1084D00003B1013B0EB1EA183260C7E90053002432
:1084E000E0E7019B039A13443360DBE71346F1E7AF
:1084F00050E6032058D403202BF90B00002211462C
:10850000FFF792BF0021FFF78BBD10B183680020F9
:1085100003B970471B680130FAE7002901DBFFF758
:108520005CBA002070470122FFF7ACBAFFF7E8BA47
:1085300010B5D0B1C2B1C9B18A4213D00B68136073
:108540004C68546003B15A60536803B11A60836881
:1085500099424FF0000308BF8260C1E9003308462A
:10856000FFF7B4FD012000E0104610BD0846FCE70F
:1085700008B5044B1868FFF79DFD08B10423C360DC
:1085800008BD00BF58D4032037B505460191FFF759
:10859000EFFF01990246044600232846FFF770FBCF
:1085A000054618B92046FFF791FD2C46204603B03A
:1085B00030BD000008B5044B1868FFF77BFD08B11B
:1085C0002023C36008BD00BF58D4032008B5044B66
:1085D0001868FFF76FFD08B14023C36008BD00BFF6
:1085E00058D4032018B1007BB0FA80F040097047DE
:1085F00020B1C06810F0030018BF0120704718B107
:10860000007B031F58425841704720B1007BA0F106
:10861000080358425841704720B1007BA0F1100375
:1086200058425841704720B1007BA0F120035842C6
:108630005841704720B1007BA0F140035842584197
:1086400070470000014B5B68184700BF58D40320F7
:10865000F8B506460D461F461446DAB1D1B1D368C7
:108660009B0503D4106A08B1FFF7ECFF2846FFF71B
:10867000EFFAE368206223F400733A462946E36088
:108680003046FFF7FFF9224601463046BDE8F84084
:10869000FFF74EBFF8BD0123FFF7DABF10B5044660
:1086A00003F0AAFF204610BD38B50446154603F076
:1086B00007F80549204603F003F829462046BDE89F
:1086C000384003F016B800BF8CF20B0038B50546F1
:1086D000144602F0F5FF0B49284602F0F1FF002C8A
:1086E0000DDA2D21284602F0EFFF614228460A22CA
:1086F00003F013F82846BDE8384002F0EEBF2146EB
:10870000F4E700BF8CF20B002DE9F04F0E4691B05C
:1087100098464FF0FF331360044600213046DDF8E1
:108720006890174601F0FFFCD6F838E0034698B988
:10873000BEF1000F14BF72465022316892B220463B
:1087400003F05AFD051E18BF0125C5B9204611B01A
:10875000BDE8F04F03F006BF754B0A9306F1140C09
:10876000BCE80F000BAD0FC5DCF800302B701FFA12
:108770008EF200230AA9204603F01EFEE2E74946D6
:10878000204602F09DFF6B49204602F099FFB16A36
:10879000204602F095FF6849204602F091FF6749A4
:1087A000674A2046FFF780FF0021304601F0BBFCFE
:1087B00020B9326863492046FFF776FF06F13C0A8C
:1087C0000021504601F0AFFC28B9726C5E4920468A
:1087D000FFF77CFF06E05D494846FCF711F90246C9
:1087E0000028F3D0B8F1000F0ED0D8F8001059B11E
:1087F000D8F80420204622B1FFF756FF08F10808F8
:10880000F3E702F076FFF9E7204602F066FF204624
:1088100003F076FC0021504601F085FC18B9F16B9D
:10882000204602F066FF04F11C0A40F624020021F3
:10883000504604F007FB00F02DFB019000F02AFBEE
:108840004FF00008464641F2883B204603F030FED8
:10885000D8B1204603F03AFC814600F01BFB40F6FD
:1088600022039E42019004D8A31983F81C9001367C
:10887000EBE740F623039E42F9D1002384F83F380A
:10888000204603F06FFEA846F1E7A319187700F021
:1088900001FB019BA0EB0309B8F1000F04D1D945FE
:1088A00002D8C82003F056F9204603F023FD20B17A
:1088B000D94502D8B8F1000FC7D0204603F052FEC8
:1088C000514602A801F045FB0C23092202A906A883
:1088D00001F04EFC1E490AA801F03BFB0AA902A8C0
:1088E00001F042FC04460AA801F0E8FA631C08D132
:1088F00006A801F0E3FA02A801F0E0FA11B0BDE821
:10890000F08F3D1D1349284601F081FB221D02A96D
:108910000AA801F04DFC0AA9284601F0C7FB0AA8E5
:1089200001F0CCFA069804F039FA3860E0E700BFAD
:10893000E8FC0B009CF20B002FF90B0041F90B0037
:108940003BF90B004CF90B00ACF70B0051F90B0095
:1089500056F90B005AF90B00704710B50421044674
:10896000FCF7B9F8204610BD10B51146044600F0DA
:108970006BF8204610BD10B51146044600F072F8A1
:10898000204610BD014B024A1A60704758E603208A
:1089900064F90B0010B5054B03600446406818B13C
:1089A000A3680BB9FFF792FB204610BDA0F90B009E
:1089B00010B50446FFF7EEFF20460C21FCF78BF8BC
:1089C000204610BD38B540680C4660B1FFF79AFDEF
:1089D00005460146204602F073FE04462846FFF78E
:1089E00031FE204638BD0446FBE710B5044640681A
:1089F000FFF70BFE08B16368586910BD0000000066
:108A000010B504464068FFF700FE18B1636893EDA7
:108A1000060B10BD9FED020BFBE700BFAFF300801C
:108A2000000000000000F87F13B504464068019183
:108A3000FFF700FE30B101996068FFF774FD003860
:108A400018BF012002B010BD10B504460868FFF73A
:108A500055FD034BC4E900300023A360204610BD40
:108A6000A0F90B0038B54D6804462DB918492046C9
:108A700001F06FFA204638BD2846FFF7B3FD002805
:108A8000F4D12846FFF7B4FD08B11249EFE72846B4
:108A9000FFF7B5FD08B11049E9E72846FFF7B5FD36
:108AA00008B10E49E3E72846FFF7B6FD08B10C49C7
:108AB000DDE72846FFF7B7FD08B10A49D7E72846A2
:108AC000FFF7B8FD08B10849D1E70849CFE700BF73
:108AD0001EF40B006CF90B000FF90B0074F90B007E
:108AE0007BF90B0082F90B0088F90B008FF90B0062
:108AF00038B5456841600446DDB18068A0B1FFF734
:108B000099FD30B16268296AA068BDE83840FFF776
:108B1000C2BDA068FFF787FD58B16268A06829460A
:108B2000BDE83840FFF704BD2846BDE83840FFF7F0
:108B3000CDBA38BD70B5054648680C461646FFF7F5
:108B400079FD28B9FFF742FD01462046FFF7D0FF27
:108B500060683146FFF7E7FC18B960683146FFF7F7
:108B600013FD034A6368AB60C5E90020284670BD69
:108B7000A0F90B00F8B5064648680D461746FFF702
:108B800052FD28B9FFF716FD01462846FFF7B0FF52
:108B900068683946FFF7C1FC044660B96868FFF7AA
:108BA000B4FCB84207DCFFF7E3FC04460146686802
:108BB000FFF7BCFCF2E7034A6B68B360C6E9002428
:108BC0003046F8BDA0F90B00034B044A1A6000229E
:108BD000C3E90122704700BF5CE60320A0F90B0047
:108BE00070B540F2022196B005F080F8421C0546AF
:108BF00010D103F067F9044600F0CAFC0F4902687F
:108C00002046FCF7B3F82C46284605F05FF82046CE
:108C100016B070BD694605F061F8431C04460AD1E0
:108C200003F050F9064600F0B3FC054902683046EF
:108C3000FCF79CF8E8E7049CE6E700BFACF90B0002
:108C4000C2F90B0038B50D4640F2014105F04EF86F
:108C5000431C044613D103F035F9054600F098FC97
:108C60000E4902682846FCF781F8204605F02EF8E8
:108C700000F08EFC0068B0FA80F0400938BDAA68A8
:108C8000296805F051F80130EFD103F01BF90546D2
:108C900000F07EFC02490268E4E700BFDAF90B004D
:108CA000F1F90B0030B587B005460191FFF798FF49
:108CB000431C0199044607D103F004F9094902F065
:108CC00018FD204607B030BD0028FAD102A801F0F7
:108CD0008BF902A92846FFF7B5FF02A801F0EEF8CC
:108CE000EFE700BF0BFA0B002DE9F0419EB000AF9B
:108CF0000D4604463749384601F02BF92846002135
:108D000004F0F4FF421C05461DD103F0DBF80646D3
:108D100000F03EFC304902683046FCF727F8284650
:108D200004F0D4FF00F034FC0368002B4DD0294937
:108D3000204601F00EF9384601F0C0F82046783799
:108D4000BD46BDE8F08107F1200104F0C7FF013006
:108D500007D103F0B7F8064600F01AFC1F49026875
:108D6000DAE73E6B06F1080323F00703E846ADEBB4
:108D7000030D731C06F101024FF00001B8BF002281
:108D8000684604F05FF832466946284604F0C2FFA0
:108D900001300BD103F096F8064600F0F9FB1049BC
:108DA00002683046FBF7E2FFC546B8E7694607F1BF
:108DB000100001F0CEF807F11001384601F01FF95C
:108DC00007F1100001F07AF8EEE73946204601F08D
:108DD000F1F8B0E75AF90B00DAF90B00C2F90B0011
:108DE0002FFA0B0008B5024B1B689B68019308BD66
:108DF0006802030008B5024B1B68DB68019308BDDD
:108E00006802030008B5024B1B689B68019308BD0C
:108E10002C02030008B5024B1B689B69019308BD37
:108E20002C02030008B5024B1B68DB69019308BDE7
:108E30002C02030008B5024B1B685B69019308BD57
:108E40006C02030008B5024B1B689B69019308BDC7
:108E50006C02030008B5024B1B685B6D019308BDF3
:108E60006C02030008B5024B1B689B6D019308BDA3
:108E70006C02030008B5024B1B685B68019308BDD8
:108E80001802030008B5024B1B68DB68019308BD9C
:108E90001802030008B5024B1B685B69019308BD0B
:108EA0001802030008B5024B1B689B6D019308BDB7
:108EB0001802030008B5024B1B685B6E019308BDE6
:108EC0001802030008B5024B1B685B6D019308BDD7
:108ED0003402030008B5024B1B681B68019308BDF0
:108EE0008402030008B5024B1B685B68019308BD50
:108EF0008402030008B5024B1B689B68019308BD00
:108F00008402030008B5024B1B68DB68019308BDAF
:108F10008402030008B5024B1B685B69019308BD1E
:108F20008402030008B5024B1B689B68019308BDCF
:108F30007802030008B5024B1B681B69019308BD4A
:108F40007802030008B5024B1B681B6D019308BD36
:108F50007802030008B5024B1B689B6D019308BDA6
:108F60007802030008B5024B1B681B6E019308BD15
:108F70007802030008B5034B1B68D3F898300193BF
:108F800008BD00007802030008B5034B1B68D3F846
:108F9000A830019308BD00007802030008B5034B18
:108FA0001B68D3F8B430019308BD000078020300B9
:108FB00008B5034B1B68D3F8D830019308BD0000F7
:108FC0007802030008B5034B1B68D3F8DC3001932B
:108FD00008BD00007802030008B5034B1B68D3F8F6
:108FE000EC30019308BD00007802030008B5034B84
:108FF0001B68D3F8F030019308BD0000780203002D
:1090000008B5034B1B68D3F80031019308BD00007D
:109010007802030008B5034B1B68D3F804310193B1
:1090200008BD00007802030008B5024B1B68DB682E
:10903000019308BD4802030008B5024B1B68DB69B9
:10904000019308BD4802030008B5024B1B681B6A68
:10905000019308BD4802030008B5024B1B685B6A18
:10906000019308BD4802030008B5024B1B689B6AC8
:10907000019308BD4802030008B5024B1B68DB6A78
:10908000019308BD4802030008B5024B1B681B6B27
:10909000019308BD4802030008B5024B1B689B6B97
:1090A000019308BD4802030008B5024B1B681B6C06
:1090B000019308BD4802030008B5024B1B685B6CB6
:1090C000019308BD4802030008B5024B1B68DB6C26
:1090D000019308BD4802030008B5024B1B685B6D95
:1090E000019308BD4802030008B5024B1B681B6FC3
:1090F000019308BD4802030008B5024B1B685B6979
:10910000019308BD6402030008B5024B1B681B6A8B
:10911000019308BD6402030008B5024B1B685B6A3B
:10912000019308BD6402030008B5024B1B689B6AEB
:10913000019308BD6402030008B5024B1B68DB689D
:10914000019308BD3C02030008B5024B1B681B6974
:10915000019308BD3C02030008B5024B1B685B6924
:10916000019308BD3C02030008B5024B1B689B69D4
:10917000019308BD3C02030008B5024B1B68DB6984
:10918000019308BD3C02030008B5024B1B681B6A33
:10919000019308BD3C02030008B5024B1B689B6AA3
:1091A000019308BD3C02030008B5024B1B681B6C11
:1091B000019308BD3C02030008B5024B1B681B6A03
:1091C000019308BD2802030008B5024B1B685B6AC7
:1091D000019308BD2802030008B5024B1B689B6A77
:1091E000019308BD2802030008B5024B1B68DB6A27
:1091F000019308BD2802030008B5024B1B681B6BD6
:10920000019308BD2802030008B5024B1B685B6B85
:10921000019308BD2802030008B5024B1B681B6CB4
:10922000019308BD2802030008B5024B1B685B6868
:10923000019308BD3802030008B5024B1B689B6907
:10924000019308BD3802030008B5024B1B68DB69B7
:10925000019308BD3802030008B5024B1B681B6A66
:10926000019308BD3802030008B5024B1B689B6AD6
:10927000019308BD3802030008B5024B1B68DB6A86
:10928000019308BD3802030008B5024B1B681B6B35
:10929000019308BD3802030008B5024B1B685B6BE5
:1092A000019308BD3802030008B5024B1B689B6B95
:1092B000019308BD3802030008B5024B1B68DB6947
:1092C000019308BD3002030008B5024B1B681B6AFE
:1092D000019308BD3002030008B5024B1B681B68F0
:1092E000019308BD4C02030008B5024B1B681B69C3
:1092F000019308BD4C02030008B5024B1B685B6973
:10930000019308BD4C02030008B5024B1B689B6922
:10931000019308BD4C02030008B5024B1B68DB69D2
:10932000019308BD4C02030008B5024B1B681B6A81
:10933000019308BD4C02030008B5024B1B685B6F2C
:10934000019308BD7402030008B5024B1B685B6BF8
:10935000019308BD6002030008B5024B1B681B6D3A
:10936000019308BD6002030008B5024B1B681B682F
:10937000019308BD2002030008B5024B1B685B681F
:10938000019308BD2002030008B5024B1B685B690E
:10939000019308BD2002030008B5024B1B68DB6A7D
:1093A000019308BD2002030008B5024B1B689B6DAA
:1093B000019308BD2002030008B5034B1B68D3F8D6
:1093C0008830019308BD00002002030008B5034B5C
:1093D0001B68D3F89430019308BD000020020300FD
:1093E00008B5024B1B685B68019308BD400203008F
:1093F00008B5024B1B689B68019308BD400203003F
:1094000008B5024B1B68DB68019308BD40020300EE
:1094100008B5024B1B681B69019308BD400203009D
:1094200008B5024B1B685B69019308BD400203004D
:1094300008B5024B1B689B69019308BD40020300FD
:1094400008B5024B1B68DB69019308BD40020300AD
:1094500008B5024B1B681B6A019308BD400203005C
:1094600008B5024B1B681B6B019308BD400203004B
:1094700008B5024B1B685B6B019308BD40020300FB
:1094800008B5024B1B681B6C019308BD400203002A
:1094900008B5024B1B685B6C019308BD40020300DA
:1094A00008B5024B1B689B68019308BD440203008A
:1094B00008B5024B1B685B69019308BD44020300B9
:1094C00008B5024B1B689B6A019308BD4402030068
:1094D00008B5024B1B681B6B019308BD44020300D7
:1094E00008B5024B1B68DB6B019308BD4402030007
:1094F00008B5024B1B681B68019308BD1C020300E2
:1095000008B5024B1B685B68019308BD1C02030091
:1095100008B5024B1B689B68019308BD1C02030041
:1095200008B5024B1B68DB68019308BD1C020300F1
:1095300008B5024B1B681B69019308BD1C020300A0
:1095400008B5024B1B685B69019308BD1C02030050
:1095500008B5024B1B68DB69019308BD1C020300C0
:1095600008B5024B1B685B6A019308BD1C0203002F
:1095700008B5024B1B68DB6A019308BD1C0203009F
:1095800008B5024B1B681B6B019308BD1C0203004E
:1095900008B5024B1B68DB6B019308BD1C0203007E
:1095A00008B5024B1B681B6C019308BD1C0203002D
:1095B00008B5024B1B685B6C019308BD1C020300DD
:1095C00008B5024B1B689B6C019308BD1C0203008D
:1095D00008B5024B1B68DB6C019308BD1C0203003D
:1095E000002240681146FFF733BF00224068114651
:1095F000FFF73EBF40680022FFF732BF40680022FD
:1096000081F00101FFF71CBF002340681A4619468C
:10961000FFF70EBF002340681A461946FFF700BF48
:10962000002240681146FFF7F3BE00224068114651
:10963000FFF7DEBE406800220221FFF7E1BE0023F3
:1096400040681A46FFF7CCBE024B03225A60024A1A
:109650001A60704768E6032050FA0B0010B5044604
:1096600008462170FFF728FE00236360204610BDE6
:1096700010B5202488B022460021684603F0E2FBA2
:1096800000216846ADF80040FFF71CFC019808B0C7
:1096900010BD0000054B02221A60054B054A9A6076
:1096A0000020C3E90000FFF767BE00BF7CE603208F
:1096B00070E603200000FFFF10B50446FBF7AAF98F
:1096C000013823182046834206D90278197800F819
:1096D000011B03F80129F6E710BD2DE9F041931EA7
:1096E0008CB0222B4FF000030D4614468DF82C3021
:1096F00027D900282ADA2E462D2306F8013B4042BE
:109700000A240DF12B074FF001082246014601A85B
:1097100003F04CFB029B0198092BCCBF372230226F
:1097200052FA83F307F8013908F101080028ECD157
:109730004246791C304603F05DFB28460CB0BDE87C
:10974000F0810A2AD5D018B12E46DAE70A24FAE7C2
:1097500030238DF82B302E460DF12A074FF00208EA
:10976000E6E770B50C46911E22291DD8254630B972
:10977000234430229D4210D205F8012BFAE7B0FBBA
:10978000F2F602FB1600C1B2092894BF30315731FE
:10979000C9B205F8011B3046E9E7002320462B70CB
:1097A000FFF78AFF204670BD0020FCE738B5031E96
:1097B0000C4615460EDAB3F1004F4FF02D0214BFE0
:1097C0005842184601230A702A461944FFF7C9FF78
:1097D000204638BD0123F9E710B40468246BA44681
:1097E0005DF8044B604703689B6C1847808E704798
:1097F000028FC08E101A7047F0B5036889B09F6A57
:109800000C4B029300F1200604460FCE03AD0FC5AA
:1098100033682B70A38EE28EE16B0093204602AB7F
:10982000B84723680546DB6920469847284609B0B3
:10983000F0BD00BFE8FC0B0007B503688DF807100A
:10984000DB6801220DF10701984703B05DF804FBC6
:1098500010B503681B690446984728B1E38EE26B94
:10986000591CE186D05C10BD4FF0FF30FBE710B50E
:1098700003681B690446984718B1E38EE26BD05C1D
:1098800010BD4FF0FF30FBE7704710B403460846A9
:10989000DC6BD98E1A8F0368521ADB6821445DF89D
:1098A000044B1847A0F11000FFF7EFBF70B5036835
:1098B0008CB05B6A04460E461546984701231C226D
:1098C000002105A8029303F0BDFA40F61C233046A0
:1098D000ADF81430FFF728FC1122ADF81600022174
:1098E0000A20FFF7E1FC0028606125DB04220092DA
:1098F00002AB40F6FF71FFF79FFCE8B995B103900A
:10990000ADF8100003A9E8B2FFF794FAA0B9062356
:109910000093606903AB41F20B0240F6FF71FFF761
:109920008BFC48B960691C2205A9FFF77DFC18B9BA
:10993000656401200CB070BD236820465B6A9847BF
:109940000020F7E710B504464069002801DBFFF767
:109950007BFC4FF0FF3363610023E386238710BD58
:1099600070B50546C06BEE8E68B12B6C9C1B9442A3
:1099700028BF14462246304403F03CFAEB8E2344C1
:10998000EB86204670BD0446F1E7D0B503681B693D
:1099900004460F461646984790B1236820461B6937
:1099A0009847E38EE16B8642A8BF064619443246CB
:1099B000384603F01FFAE38E3344E3863046D0BDC9
:1099C0004FF0FF36FAE730B587B0044601AD684680
:1099D00002F00EFA0FCD04340FC42B68237007B0C9
:1099E00030BD0000F0B59646026889B0976A0A4A11
:1099F00002921C1D8C4606460FCC03AD0FC5236892
:109A00002B70BDF838300093724602AB6146304689
:109A1000B84709B0F0BD00BFE8FC0B0070B50446C4
:109A2000054B44F8043B01F1200506460FCD0FC459
:109A30002B682370304670BDE8FC0B00F0B543780E
:109A4000022B8DB005460C46174604D1011D204659
:109A5000FFF7B9FF22E00A2B25D11122002101A82E
:109A600003F0F0F9AB6803B305F1080301AE05F1AB
:109A7000180C18685968324603C208336345164605
:109A8000F7D1062301A906A807AE8DF8143002F01D
:109A900065F90FCE04340FC4336823701FB1688892
:109AA000FFF73AFB38800DB0F0BDEB68002BDBD13F
:109AB0004FF6FF702E69FFF727FB8642D4D105F1E0
:109AC0001401C4E72DE9F04117468EB00022064686
:109AD00001AB084611460192FFF78CF9041E20DB0A
