:02000002B0004C
:1040000000400B000ABC0B00000006000C0005027B
:0840100004018B130000000005
:0440180018AF0B00D2
:1040200081F0004102E000BF83F0004330B54FEA69
:1040300041044FEA430594EA050F08BF90EA020FD6
:104040001FBF54EA000C55EA020C7FEA645C7FEA69
:10405000655C00F0E2804FEA5454D4EB5555B8BF8C
:104060006D420CDD2C4480EA020281EA030382EAFD
:10407000000083EA010180EA020281EA0303362D8F
:1040800088BF30BD11F0004F4FEA01314FF4801C62
:104090004CEA113102D0404261EB410113F0004F74
:1040A0004FEA03334CEA133302D0524263EB43032B
:1040B00094EA050F00F0A780A4F10104D5F1200EC9
:1040C0000DDB02FA0EFC22FA05F2801841F1000124
:1040D00003FA0EF2801843FA05F359410EE0A5F1F8
:1040E00020050EF1200E012A03FA0EFC28BF4CF029
:1040F000020C43FA05F3C01851EBE37101F00045DF
:1041000007D54FF0000EDCF1000C7EEB00006EEBEB
:104110000101B1F5801F1BD3B1F5001F0CD3490875
:104120005FEA30004FEA3C0C04F101044FEA4452CC
:1041300012F5800F80F09A80BCF1004F08BF5FEA53
:10414000500C50F1000041EB045141EA050130BD33
:104150005FEA4C0C404141EB0101013C28BFB1F545
:10416000801FE9D291F0000F04BF01460020B1FA90
:1041700081F308BF2033A3F10B03B3F120020CDA63
:104180000C3208DD02F1140CC2F10C0201FA0CF041
:1041900021FA02F10CE002F11402D8BFC2F1200CA6
:1041A00001FA02F120FA0CFCDCBF41EA0C0190405C
:1041B000E41AA2BF01EB0451294330BD6FEA0404A5
:1041C0001F3C1CDA0C340EDC04F11404C4F1200290
:1041D00020FA04F001FA02F340EA030021FA04F3A2
:1041E00045EA030130BDC4F10C04C4F1200220FAF9
:1041F00002F001FA04F340EA0300294630BD21FA37
:1042000004F0294630BD94F0000F83F4801306BFFC
:1042100081F480110134013D4EE77FEA645C18BFF0
:104220007FEA655C29D094EA050F08BF90EA020F87
:1042300005D054EA000C04BF1946104630BD91EA7F
:10424000030F1EBF0021002030BD5FEA545C05D182
:104250004000494128BF41F0004130BD14F58004C1
:104260003CBF01F5801130BD01F0004545F0FE4135
:1042700041F470014FF0000030BD7FEA645C1ABF6A
:10428000194610467FEA655C1CBF0B46024650EAA1
:10429000013406BF52EA033591EA030F41F40021CD
:1042A00030BD00BF90F0000F04BF0021704730B553
:1042B0004FF4806404F132044FF000054FF0000128
:1042C00050E700BF90F0000F04BF0021704730B5E9
:1042D0004FF4806404F1320410F0004548BF4042BE
:1042E0004FF000013EE700BF42004FEAE2014FEA13
:1042F00031014FEA02701FBF12F07F4393F07F4FEE
:1043000081F06051704732F07F4208BF704793F0F0
:104310007F4F04BF41F40021704730B54FF4607403
:1043200001F0004521F000411CE700BF50EA010206
:1043300008BF704730B54FF000050AE050EA0102AF
:1043400008BF704730B511F0004502D5404261EB1F
:1043500041014FF4806404F132045FEA915C3FF460
:10436000D8AE4FF003025FEADC0C18BF03325FEAFD
:10437000DC0C18BF033202EBDC02C2F1200300FAAE
:1043800003FC20FA02F001FA03FE40EA0E0021FAD3
:1043900002F11444BDE600BF70B54FF0FF0C4CF4C1
:1043A000E06C1CEA11541DBF1CEA135594EA0C0F73
:1043B00095EA0C0F00F0DEF82C4481EA030621EAAE
:1043C0004C5123EA4C5350EA013518BF52EA0335E9
:1043D00041F4801143F4801338D0A0FB02CE4FF09B
:1043E0000005E1FB02E506F00042E0FB03E54FF0CB
:1043F0000006E1FB03569CF0000F18BF4EF0010EC3
:10440000A4F1FF04B6F5007F64F5407404D25FEABE
:104410004E0E6D4146EB060642EAC62141EA555171
:104420004FEAC52040EA5E504FEACE2EB4F1FD0CB3
:1044300088BFBCF5E06F1ED8BEF1004F08BF5FEA31
:10444000500E50F1000041EB045170BD06F00046E3
:1044500046EA010140EA020081EA0301B4EB5C0490
:10446000C2BFD4EB0C0541EA045170BD41F4801188
:104470004FF0000E013C00F3AB8014F1360FDEBFAD
:10448000002001F0004170BDC4F10004203C35DA89
:104490000C341BDC04F11404C4F1200500FA05F30C
:1044A00020FA04F001FA05F240EA020001F00042AD
:1044B00021F0004110EBD37021FA04F642EB060123
:1044C0005EEA430E08BF20EAD37070BDC4F10C044D
:1044D000C4F1200500FA04F320FA05F001FA04F211
:1044E00040EA020001F0004110EBD37041F10001FD
:1044F0005EEA430E08BF20EAD37070BDC4F1200508
:1045000000FA05F24EEA020E20FA04F301FA05F26F
:1045100043EA020321FA04F001F0004121FA04F217
:1045200020EA020000EBD3705EEA430E08BF20EAE7
:10453000D37070BD94F0000F0FD101F00046400021
:1045400041EB010111F4801F08BF013CF7D041EAA3
:10455000060195F0000F18BF704703F000465200A7
:1045600043EB030313F4801F08BF013DF7D043EA78
:104570000603704794EA0C0F0CEA135518BF95EA2E
:104580000C0F0CD050EA410618BF52EA4306D1D1B5
:1045900081EA030101F000414FF0000070BD50EAD4
:1045A000410606BF1046194652EA430619D094EA5E
:1045B0000C0F02D150EA013613D195EA0C0F05D148
:1045C00052EA03361CBF104619460AD181EA03019C
:1045D00001F0004141F0FE4141F470014FF0000054
:1045E00070BD41F0FE4141F4780170BD70B54FF0EF
:1045F000FF0C4CF4E06C1CEA11541DBF1CEA13556F
:1046000094EA0C0F95EA0C0F00F0A7F8A4EB050450
:1046100081EA030E52EA03354FEA013100F0888047
:104620004FEA03334FF0805545EA131343EA126310
:104630004FEA022245EA111545EA10654FEA0026C5
:104640000EF000419D4208BF964244F1FD0404F57E
:10465000407402D25B084FEA3202B61A65EB0305DA
:104660005B084FEA32024FF480104FF4002CB6EB97
:10467000020E75EB030E22BFB61A754640EA0C0017
:104680005B084FEA3202B6EB020E75EB030E22BF57
:10469000B61A754640EA5C005B084FEA3202B6EB98
:1046A000020E75EB030E22BFB61A754640EA9C0057
:1046B0005B084FEA3202B6EB020E75EB030E22BF27
:1046C000B61A754640EADC0055EA060E18D04FEAE5
:1046D000051545EA16754FEA06164FEAC30343EA85
:1046E00052734FEAC2025FEA1C1CC0D111F4801F52
:1046F0000BD141EA00014FF000004FF0004CB6E74B
:1047000011F4801F04BF01430020B4F1FD0C88BFE9
:10471000BCF5E06F3FF6AFAEB5EB030C04BFB6EBF4
:10472000020C5FEA500C50F1000041EB045170BDE7
:104730000EF0004E4EEA113114EB5C04C2BFD4EB14
:104740000C0541EA045170BD41F480114FF0000E98
:10475000013C90E645EA060E8DE60CEA135594EA14
:104760000C0F08BF95EA0C0F3FF43BAF94EA0C0F17
:104770000AD150EA01347FF434AF95EA0C0F7FF48C
:1047800025AF104619462CE795EA0C0F06D152EAE0
:1047900003353FF4FDAE1046194622E750EA4106C4
:1047A00018BF52EA43067FF4C5AE50EA41047FF4D5
:1047B0000DAF52EA43057FF4EBAE12E74FF0FF3C3A
:1047C00006E000BF4FF0010C02E000BF4FF0010C0B
:1047D0004DF804CD4FEA410C7FEA6C5C4FEA430C84
:1047E00018BF7FEA6C5C1BD001B050EA410C0CBFD3
:1047F00052EA430C91EA030F02BF90EA020F002035
:10480000704710F1000F91EA030F58BF994208BF9B
:1048100090422CBFD8176FEAE37040F00100704758
:104820004FEA410C7FEA6C5C02D150EA013C07D1AF
:104830004FEA430C7FEA6C5CD6D152EA033CD3D0FA
:104840005DF8040B704700BF8446104662468C46F4
:104850001946634600E000BF01B5FFF7B7FF002827
:1048600048BF10F1000F01BD4DF808EDFFF7F4FF50
:104870000CBF012000205DF808FB00BF4DF808EDDB
:10488000FFF7EAFF34BF012000205DF808FB00BFFE
:104890004DF808EDFFF7E0FF94BF012000205DF820
:1048A00008FB00BF4DF808EDFFF7CEFF94BF0120D5
:1048B00000205DF808FB00BF4DF808EDFFF7C4FFCE
:1048C00034BF012000205DF808FB00BF4FEA410C17
:1048D0007FEA6C5C02D150EA013C0AD14FEA430CFA
:1048E0007FEA6C5C02D152EA033C02D14FF0000037
:1048F00070474FF0010070474A0011D212F50012C4
:1049000011D20DD56FF47873B3EB62520ED44FEA27
:10491000C12343F0004343EA505323FA02F07047A7
:104920004FF00000704750EA013002D14FF0FF30E5
:1049300070474FF0000070474FEA4102B2F1E04388
:1049400024BFB3F5001CDCF1FE5C0DD901F0004C76
:104950004FEAC0024CEA5070B2F1004F40EB8300C6
:1049600008BF20F00100704711F0804F21D113F1F2
:104970003872BCBF01F00040704741F480114FEA2B
:104980005252C2F11802C2F1200C10FA0CF320FAB4
:1049900002F018BF40F001004FEAC1234FEAD323D1
:1049A00003FA0CFC40EA0C0023FA02F34FEA43033B
:1049B000CCE77FEA625307D150EA01331EBF4FF0C4
:1049C000FE4040F44000704701F0004040F0FE40DF
:1049D00040F40000704700BFD0B50C4B00220646E3
:1049E0000F46FFF7D9FCFFF787FF0446FFF75AFC95
:1049F000074B0022FFF7D0FC02460B4630463946F3
:104A0000FFF712FBFFF778FF2146D0BD0000F03D15
:104A10000000F04100000000000000000000000065
:104A200001F0FF01102A2BDB10F0070F08D010F85F
:104A3000013B013A8B422DD010F0070F42B3F6D163
:104A4000F0B441EA012141EA014122F007047FF07C
:104A500000070023F0E80256083C85EA010586EAD3
:104A6000010685FA47F5A3FA87F586FA47F6A5FA0F
:104A700087F68EB9EED1F0BC01F0FF0102F007021B
:104A800032B110F8013B013A83EA010313B1F8D1C6
:104A90000020704701387047002D06BF35460338A7
:104AA000073815F0010F07D1013015F4807F02BFE0
:104AB000013015F4C03F0130F0BC0138704700BF31
:104AC00010F8012B11F8013B012A28BF9A42F7D0B8
:104AD000D01A7047034613F8012B002AFBD1181A8D
:104AE0000138704738B50022002304460D46FFF711
:104AF000C5FE28B920462946BDE83840FFF76CBFFF
:104B0000204605F10041FFF767FF404261EB41019C
:104B100038BD00BF09480A49884208B505D0094A8E
:104B2000824202D0121A04F075F90748074A0021A0
:104B3000121A04F097F9014808BD00BF38E30320BA
:104B400000BA0B0014E5032018E50320F4E7032066
:104B500070B5074E074C02F007FBA41BA408002504
:104B6000AC4200D170BD56F8043B98470135F7E7D9
:104B7000B4B90B00DCB90B0000F028B808B500F0A0
:104B8000F1F8BDE8084002F0A7BA01F077BE01F0E5
:104B900075BE01F07BBE01F079BE01F077BE0078F2
:104BA000B0FA80F0400970470123037070477047E6
:104BB0000EB403B503AB002153F8042B019302F0AC
:104BC00016F902B05DF804EB03B0704710B588B079
:104BD00001F02CFE10B901F021FEF9E701F026FEEC
:104BE0001A4800F077FF02F07FFE1949044604A836
:104BF00001F0C0FF02F0DBF90A220146684602F02C
:104C00000BF8694604A802F031F8124B016812480B
:104C10001A4601F0A7F9114902462046FFF7C8FFDE
:104C2000684601F05CFF04A801F059FF0A4801F052
:104C3000A9F820B10A4A0B49074801F01EFA0A48B0
:104C400008B0BDE8104000F099BB00BFDCE50320D0
:104C50002CAF0B0039AF0B001CE503203EAF0B005F
:104C600050AF0B005FAF0B007CE5032000B5174889
:104C700089B001F087F828B1144809B05DF804EB59
:104C800001F057BA02F030FE1149FFF791FF1149C8
:104C9000684601F06FFF02F08AF90A22014604A873
:104CA00001F0BAFF04A9684601F0E0FF0A4B016871
:104CB00006481A4601F056F904A801F010FF6846AC
:104CC00001F00DFF09B05DF804FB00BF1CE50320F7
:104CD00069AF0B002CAF0B0039AF0B0038B504687F
:104CE00005467CB16368013B63605BB9236820467D
:104CF0009B689847A368013BA3601BB923682046C3
:104D0000DB689847284638BD00B589B0024610498F
:104D100004A801F0B7FF0F4B049A1B780E498DF8D9
:104D2000003002A83C2302F08BFB03A8FFF7D6FF5C
:104D30000A4801F027F820B1049A0949074801F010
:104D40009CF904A801F0CBFE09B05DF804FB00BF9C
:104D500054B20B0018E5032095AF0B001CE50320AF
:104D60009BAF0B0000B516488BB000F0B1FA10B144
:104D7000134800F051FC124800F0A8FA68B110493D
:104D800004A800F051FB0499684601F0F3FE04A862
:104D900003F00AFD684601F0A2FE0A4800F0D0FECA
:104DA00020B1084800F0C8FEFFF7AEFFFFF75EFF36
:104DB0004FF47A700BB05DF804EB02F04BB900BF12
:104DC0007CE50320DCE503201FB50D4B0D480024D6
:104DD0001C7000F015F90C4B01931E2300930B4936
:104DE00002944FF4007340F25B72094800F0EEFE4B
:104DF0002146012004B0BDE8104001F07BBC00BF9B
:104E000018E503207CE50320AF4B0B00A1AF0B009E
:104E10001CE50320436913B183690C3018477047C0
:104E200013B500210446084601F0F4FA0023204699
:104E300001A9019301F006FB019C0CB10123237130
:104E40000021012001F0E6FA2CB1236820469B687E
:104E500098470023237102B010BD70B4036809683D
:104E60005C689D681B681268661005EB6400E407C7
:104E700044BFAC59E35870BC184710B403685A6873
:104E800099681B68541001EB6200D20748BF0A59A9
:104E90005DF8044B48BFD3581847012A38B504467B
:104EA00002D10B68236003E0022A03D0032A0DD04D
:104EB000002038BD0C200D68FFF767FE0346002870
:104EC000F0D095E8070083E80700EBE700680028CA
:104ED000EED00C21FFF761FEEAE7012A38B504465F
:104EE00002D10B68236003E0022A03D0032A0DD00D
:104EF000002038BD0C200D68FFF747FE0346002850
:104F0000F0D095E8070083E80700EBE70068002889
:104F1000EED00C21FFF741FEEAE7000013B504468E
:104F200008460191FFF7D6FD63680199C3F17F53ED
:104F300003F57F1303F57F533F339842024602D9AE
:104F4000044803F03FFB204602B0BDE8104003F0E8
:104F500045BD00BFAFAF0B0007B5806830B100237F
:104F6000CDE900131A46022101F074FA03B05DF88E
:104F700004FB38B504466CB1E068FFF7FAFF04F1B2
:104F80001400A56803F010FC20462C21FFF705FE55
:104F90002C46F0E738BD10B58368044613B10322F0
:104FA00001469847204610BD38B50F4B0360836813
:104FB00004469BB16FF00041FFF7CEFFA0680021CF
:104FC00001F070FA237903F0FF0513B101F01AFA2A
:104FD000F8E7A068294601F02DFAA56004F10C005D
:104FE000FFF7D9FF204638BD18B10B0010B50446B5
:104FF000FFF7DAFF20461C21FFF7CFFD204610BD4A
:10500000F0B5031D0025C0E90253C0E9043500F1E5
:105010004C03C0E90755C0E90955C0E90B55C0E983
:1050200011350571058380F84C5089B004461C2069
:10503000FFF7ABFD0646002833D00C200695FFF79E
:10504000A4FD18B1194B8460C0E90035049004AD8B
:1050500095E80300164B336000233371B36006F10B
:105060000C0202AF87E8030092E8030085E8030022
:1050700097E8030082E803000E4A7261B269079262
:105080000D4AB26106930193012300930B4A334604
:105090004FF47A7106F1080001F0C4F92846FFF7D1
:1050A0007AFF2046E66509B0F0BD00BF61520B00F3
:1050B00018B10B00DB4E0B007B4E0B00214E0B009A
:1050C00070B5A0B00C46054601F0AEFF404902465F
:1050D00008A801F0D7FD08A910A801F06EFD01F0A5
:1050E0009BFF3C4902460CA801F0CCFD0CA910A87E
:1050F00001F0BCFD22460646374914A801F0C2FD66
:1051000014A9304601F0B2FDA21C3449064618A885
:1051100001F0B8FD18A9304601F0A8FD044601F0E1
:1051200057FF2F4902461CA801F0ACFD1CA92046E0
:1051300001F09CFD014604A801F03FFD1CA801F010
:10514000CEFC18A801F0CBFC14A801F0C8FC0CA8F8
:1051500001F0C5FC10A801F0C2FC08A801F0BFFCDA
:10516000204B049A1B788DF800301F493C231CA863
:1051700002F066F91D9C7CB16368013B63605BB91A
:10518000236820469B689847A368013BA3601BB92E
:1051900023682046DB68984701F009FF0246C317E1
:1051A0001CA801F0ABFE1C9B03931846FFF792FC72
:1051B000039BAA6C0090002105F1440003F090FBD2
:1051C0001CA801F08CFC04A801F089FC20B070BD83
:1051D000C4AF0B00D5AF0B00E7AF0B00F7AF0B0070
:1051E0000BB00B00E8E503201CB00B0010B5044623
:1051F00001F006FF01462046BDE81040FFF760BF02
:1052000010B5044601F0FCFE01462046BDE8104002
:10521000FFF756BF1FB504460391C06D6FF0004104
:10522000FFF79AFEE26D906840B16FF000410022F6
:10523000CDE90012039B032101F00CF9E46D00217C
:105240002046FFF789FEA06840B100236FF00042BE
:10525000CDE9002319461A4601F0FCF804B010BD50
:10526000F8B5054601F0B4FEC4B20B2C01D0172CE2
:1052700010D101F0B9FE124B124901FB0031284652
:10528000FFF7C8FF01F0BCFE01462846BDE8F84024
:10529000FFF716BF0A2C0B4F0B4E0BD801F0A4FEE4
:1052A000C4F10B04784306FB04012846BDE8F8402E
:1052B000FFF7B0BF01F098FEC4F11704F2E700BF9A
:1052C000002E9302A015FFFF80EE3600007E70478F
:1052D000407E704738B5002383608B6804460D46D6
:1052E0002BB102229847EB68E360AB68A3602046CD
:1052F00038BD0000F0B591B002AD85E80600064665
:1053000095E8030005AC84E805001F460C20002347
:105310000A93FFF73AFC024620B194E8030082E8C2
:1053200003009760124B0B9308A9124B0A930CA829
:105330000892FFF7CFFF0E9B8BB11020FFF725FCE3
:10534000044660B10CA9FFF7C5FF0023CDE9003387
:1053500009499DF858302246304601F077FA0CA8EA
:10536000FFF719FE08A8FFF716FE11B0F0BD00BF49
:105370005B4E0B009B4E0B0057720B00F0B585B0D7
:10538000002701260F4B02930397009602AD0446B7
:1053900095E8060003460C48FFF7ACFF0B4B009660
:1053A000CDE902370A4895E806002346FFF7A2FF39
:1053B0002046FFF725FF204605B0BDE8F040FFF787
:1053C0004FBF00BFDD580B0053B00B00ED510B0079
:1053D0004FB00B0000F1080373B5044603600D469F
:1053E000E1B10846FFF776FB0F2805EB00060190B8
:1053F00007D9002201A9204603F0B4F9019B2060DF
:10540000A36020683246294603F014FA019B226803
:10541000636000212046D15402B070BD014803F002
:10542000CBF800BF25B00B002DE9F0470B7E8CB008
:1054300004460E463BB93E4906AAFFF7CBFF20467D
:105440000CB0BDE8F0878B6ADFF8F0A01D78DFF8BC
:10545000F0800A22294602A801F0CCFB029901AA99
:1054600006A8FFF7B7FF02A801F039FBD6E90A79D1
:105470000837A7F10803994520D017F8083C6A1CA3
:1054800093420FDD2A46414602A801F0FBFB06A825
:105490000299FFF743FD02A801F021FB17F8085C11
:1054A0000837E6E7AB42F9D203F11602AA42E9DA7D
:1054B0001A46514602A801F0E5FBE8E72A461D49D5
:1054C00002A801F0DFFB029906A8FFF727FD02A85A
:1054D00001F005FB0023337602F006FA164901F0CD
:1054E0005EFC02F001FA069901F059FC069A08AD3B
:1054F00004F10803AA42236015D12E460CAF3246B0
:1055000003CABA4218605960164603F10803F6D17F
:10551000079B636006A80023069507938DF820304B
:1055200003F042F98BE7089B2260A360F0E700BF1D
:105530005AB00B0084B00B008DB00B0077B00B009D
:1055400068B00B002DE9F84FD0E9008993466FF061
:105550007043A9EB0802B3EBE20F07468A464FEA15
:10556000E20402D1204803F02DF8012C224638BF76
:105570000122A418A1EB080531D294B39C4228BFA4
:105580001C46E000FFF701FB064673191CBFDBE970
:105590000001C3E90001002D04DD2A4641463046E2
:1055A00003F046FCA9EB0A090835B9F1000F3544B0
:1055B00004DD4A465146284603F02CFC4D44B8F120
:1055C000000F05D0B9684046A1EB0801FFF7E5FAE6
:1055D00006EBC404C7E90065BC60BDE8F88F1C4653
:1055E000CFE72646D1E700BFA2B00B0010B50A46B0
:1055F000D0E901418C42034608D01CB192E8030077
:1056000084E803005A6808325A6010BD2146FFF74B
:1056100099FFFAE7000000002DE9F04F2DED028B15
:10562000437E91B004464BB902F05EF98E4911B049
:10563000BDEC028BBDE8F04F01F0B1BB8B490AAA6B
:1056400004A8FFF7C7FEE568271DAF4209D0D5E9DA
:10565000051204A803F0C2F9284602F04BFF0546E4
:10566000F3E702F041F98249DFED828ADFF8088230
:1056700001F095FB059A012A28BF0122002104A808
:1056800003F019F900227C4904A803F0FAF9D4E9DF
:105690000732934218BF236200230130A363774B84
:1056A0002364C5B204F11C09002D00F0938002238D
:1056B0000B2204A90AA803F03DFADDF828A001F0A6
:1056C00015F9D0F800B001F011F9002303600A22A7
:1056D00001A9504604F038FB019B9A45064602D1C9
:1056E000674802F06CFF01F001F90368222B02D138
:1056F000634802F06AFF01F0F9F803681BB901F092
:10570000F5F8C0F800B00AA88DF8086003F04CF86E
:10571000A5F11503142204A90AA803F00BFA0A9EA6
:1057200001F0E4F8D0F800A001F0E0F800230360F5
:1057300001A9304604F02AFA019B9E42B0EE408A4D
:1057400001D15048CDE701F0D1F80368222B01D1F7
:105750004C48CEE701F0CAF803681BB901F0C6F85F
:10576000C0F800A0C8EE287A02AE0AA8CDED037AF0
:1057700003F01AF831464846FFF738FF94ED0E7AE9
:10578000DDED037A059AF4EEC77AF1EE10FAC2BFA6
:10579000D6E9000104F13403C3E9000194ED107A65
:1057A000F4EEC77AF1EE10FA42BFD6E9000104F137
:1057B0003C03C3E90001AA4228BF2A46002104A8ED
:1057C00003F079F80022414604A803F05AF90130A9
:1057D000C5B269E794ED108AD4ED0E7A77EEC87AF7
:1057E00004F1280A17EE900AFEF77EFD1CA3D3E908
:1057F0000023FEF7D1FD804618EE100A8946FEF719
:1058000073FD02460B4640464946FEF70FFCD4E9BD
:10581000075680468946AE420FD06868FEF764FDA1
:1058200002460B4640464946FFF746F818B129465E
:105830005046FFF7DBFE0835EDE70025A0686576EA
:10584000FFF797FB0123C4E90257C4E904752376E7
:1058500004A802F0A9FF11B0BDEC028BBDE8F08FE7
:10586000333333333333D33FBCB00B0094AF0B002F
:10587000DAB00B0000007A44EDB00B000000C84223
:10588000EFB00B00F4B00B00F8B58B681646044679
:105890000D1D012263B11D7C3278D3E9027095425F
:1058A00088BF01221D4696BF00223B460346F1E712
:1058B00092B1CA68AA4203D1C4E900352046F8BDB6
:1058C000284602F019FE3378027C9A424FF000031A
:1058D000F2D3C4E90003F1E72846F4E72DE9F047E5
:1058E0000023437600F1040A91F80780876886B0A8
:1058F00005469146544647B1397CD7E902324145C5
:105900002ABF3C4617461F46F5E7A24502D0237C36
:10591000434531D92C20FFF738F900F11C034361CE
:10592000A2454FF00003064680F81080836103779C
:1059300000F110023CD16B691BB129690B7C434516
:1059400009D3294604A8FFF79FFFDDE90441002998
:1059500068D0002C64D18A4562D0307C0B7C9842A0
:105960002CBF0020012053460A46314602F0C6FDF6
:105970006B6901336B6134464846FFF7ABF8009022
:10598000A2694B46002104F1140002F0A9FF484629
:10599000FFF7A0F8B0F5007F4ED24FF480732B8351
:1059A00001F0A2FF264906B0BDE8F04701F0F7B9C3
:1059B000237C0392984518D2EB689C4209D020467C
:1059C00002F09AFD037C039A434505D2C36853B99C
:1059D000044621461C46BAE7294604A8FFF754FFAF
:1059E000DDE90434F5E72346F3E71BD929698C4246
:1059F0000BD0204602F07EFD037C039A4345074608
:105A000005D9E36853B921461F463C469FE729461E
:105A100004A8FFF739FFDDE90471F6E70146F4E772
:105A20000120A0E706F1140002F0BEFE30462C2152
:105A3000FFF7B3F826469EE706B0BDE8F08700BF43
:105A4000F9B00B00014B00221A707047E8E5032003
:105A500010B5044600F0BEFC2368C31A642B06D9B7
:105A6000034AB2FBF3F3C4E900030123237210BD20
:105A700080EE360010B403685A6899681B685410A9
:105A800001EB6200D20748BF0A595DF8044B48BFDA
:105A9000D3581847012A38B5044602D10B68236051
:105AA00003E0022A03D0032A0DD0002038BD0C20C9
:105AB0000D68FFF76AF803460028F0D095E8070064
:105AC00083E80700EBE700680028EED00C21FFF721
:105AD00064F8EAE730B5032187B00446082002F0F5
:105AE00027FC00250C200495FFF74FF818B10F4B49
:105AF0008460C0E900350E4B05930E4B04930023E0
:105B00000290009301224FF0FF3302A9082001F018
:105B10003FFF049B1BB102A903220846984700F0EF
:105B200059FC00232060237207B030BD515A0B008E
:105B3000755A0B00955A0B0000230372406870479A
:105B4000007A704791F85C3010B50446016013B1DB
:105B5000886D00F08FFC204610BD10B5036893F8E7
:105B60005C20044612B1986D00F08CFC204610BDFC
:105B7000F8B51F469DF8243004460D4616462BB155
:105B8000012380F85C30583000F06CFC089B2363E4
:105B90000023636306B1A66425B1294604F13800E9
:105BA00001F016F8069B2365079BE069A4F84C708A
:105BB000FF2BB8BFFF23A4F8543008B1FEF7EBFF6A
:105BC000B4F85400FEF7E3FFE061F8BD2DE9FF41B2
:105BD00004460025174698460E4602F067FA0D491E
:105BE000E56104F1380000F0C5FF9DF83030039303
:105BF0000B9BA564CDE901830A9B0093204684F8A2
:105C00005C503B462A463146FFF7B2FF204604B0BF
:105C1000BDE8F08194AF0B0010B50446204602F0B9
:105C2000A1F90028FAD0204601F0AAFFC0B210BDA9
:105C30002DE9F04705468846FFF7EEFFEB6918703F
:105C4000EB6993F800A04FF001090AF0F00A002771
:105C50004C462846FFF7E0FF2646EB69985500F0D2
:105C60007F0313FB09F31F4401340306A4B2BFB240
:105C70004FEAC919EDD4631EBAF1300F88F800302D
:105C80001ED12846FFF7C8FFEB6918552846FFF7D5
:105C9000C3FFF41C0236B6B2EB69A4B298550226D3
:105CA000B6B2BE420ED22846FFF7B6FFB5F8543062
:105CB000A34284BFEB6918550134A4B20136EFE763
:105CC0000026EDE7B5F85430A3422CBF2046002053
:105CD000BDE8F0872DE9F34115461E461A460746F2
:105CE0000023964602A802F07F0CBEF17F0F03F15D
:105CF0000104034488BF4CF0800CBEF17F0F4FEAD3
:105D0000D212E4B203F804CC1ED8C4F10403C4F1E7
:105D10000500E954224601A9284405EB030803F0D5
:105D200079F8721C22444146384601F014FF0546BA
:105D300000F050FB621C78623244A8B2131A584239
:105D4000584102B0BDE8F0812346CAE70233F0B5FE
:105D5000054698B20023CE5C9CB256B1B5F854C04B
:105D6000844503F1010704D9441C16543B46A0B2F4
:105D7000F1E799B2411A0A44210A02F8021C02F81A
:105D8000013CF0BD38B5044602F00EF8002814BFFF
:105D90000125002502D1204602F03EF9284638BDF3
:105DA0002DE9F04788B00446DDF840809DF850A00A
:105DB000894617461E46FFF7E5FF0546002840F0D6
:105DC000CD80214601A8FFF7BDFEA16C002940F05F
:105DD0008880B4F84C20A16B2B46204601F066FF6A
:105DE00000287AD0012323849DF85430E269042BE3
:105DF0005B4B40F08180186899889B79ADF80C1056
:105E00008DF80E300290C2F805009DF80E30BDF8F6
:105E10000C10A2F80910D3720C23B8F1000F00F097
:105E200081809DF848009DF84420400140EAC2006E
:105E300040F00600C0B2BAF1000F01D100F0FD0041
:105E40001FB1002E70D140F08000E269D054226D65
:105E5000E169581C12120A549A1CE169206D885499
:105E60000333E26949462046FFF770FF0346B8F165
:105E7000000F0BD0E26941462046FFF767FFE26959
:105E8000139903462046FFF761FF034667B1E269B5
:105E900039462046FFF75AFF03462EB1E2693146E4
:105EA0002046FFF753FF0346053BE2699BB21021F2
:105EB0002046FFF70FFF00F08DFAC4E909004FF408
:105EC0007A76204602F04EF888BB00F083FAA36A87
:105ED000C01A236D73439842F3D9204602F09CF810
:105EE00035E002A801F096FCB4F84C202B4602A93C
:105EF000204601F0BBFF73E7D3F80700D3F80B107F
:105F0000DB7B0DF1080CACE803008CF8003002AB31
:105F100003CBC2F80500C2F809109CF80030537397
:105F20000E237AE7022086E740F0C0008DE702A941
:105F30002046FFF77DFE0428CFD1E369DE78002EEE
:105F4000CBD100F047FA0125A06284F82C6001A8AB
:105F5000FFF703FE284608B0BDE8F0870025F9E703
:105F600008AF0B0010B54FF0040C86B00124CDE94A
:105F7000044C0024CDE90244CDE90044FFF710FFB2
:105F800006B010BD2DE9F74FDDF83C809DF8345088
:105F90009DF8389004468B4616461F46FFF7F2FEE2
:105FA0008246002851D0214601A8FFF7CBFDB4F866
:105FB0005420E069002102F055FF0523E2695946AB
:105FC0002046FFF7C3FE6B1E012B15D8218CE36919
:105FD000013189B22184090A1954421CE369218CD8
:105FE00092B20230995480B2B8F1000F04D0238CE1
:105FF0005A1C2284A8F8003000210B188F42E26955
:106000009BB20AD9B4F854C09C4506D916F801C011
:1060100002F803C0013189B2EFE79DF83010002982
:106020000CBF30213121B9F1000F01D041F008013E
:10603000022D0ED141F00401053B9BB22046FFF733
:1060400049FE824601A8FFF788FD504603B0BDE82F
:10605000F08F012D08BF41F00201EDE71FB5089C4C
:106060000394002402949DF81C4001949DF818406C
:106070000094FFF787FF04B010BD30B587B0044629
:10608000104605910492FEF725FD00250346CDE953
:106090000155DDE9042100952046FFF7DFFF07B039
:1060A00030BD73B504460E46FFF76CFE0546C8B119
:1060B000214601A8FFF746FDE36962221A70E369F1
:1060C00002225A70E369320A9A70E369DE70E1696C
:1060D0000422204601F03FFD051E01A818BF01253E
:1060E000FFF73BFD284602B070BD73B504460E466F
:1060F000FFF748FE0546C8B1214601A8FFF722FD7B
:10610000E36972221A70E36902225A70E369320A63
:106110009A70E369DE70E1690422204601F01BFDFC
:10612000051E01A818BF0125FFF717FD284602B07C
:1061300070BD2DE9F04F2DED028B87B000AF044606
:10614000FFF720FE8146F8B1214607F11400FFF762
:10615000F9FC00F03FF9236D4FF47A725343A26AC1
:10616000821A9A42064603D8626A821A934221D260
:1061700094F82C307BB1204601F04EFF4FF000091F
:1061800007F11400FFF7E9FC48461C37BD46BDEC9B
:10619000028BBDE8F08FE269C0211170E269537093
:1061A000E1690222204601F0D6FCC4E90966012318
:1061B00084F82C30204601F0D5FE0028E0D007F10D
:1061C00013012046FFF734FD83460028D8D0E36949
:1061D000A662197801F0F002302A7FD1D4F830A0FD
:1061E000BAF1000FCCD097F813C06A4608EE102A17
:1061F00003EB0C025178957805EB0125ADB205F162
:1062000008026946D208A1EBC20295460CF10302CE
:10621000FA6003EB020E0DEB05026846C7F808D0E2
:106220007A60D7E901218A4206D00A461EF8018B1E
:1062300002F8018BBA60F4E70022425593F800801F
:10624000F96808F00608ABEB0C02033AB8F1020F4C
:10625000A2EB0502294425D113F801E01944023AC2
:1062600091F801B00CF10501294419440BEB0E2BF8
:10627000D047E36940221A70E3691FFA8BFB83F869
:106280000180E3694FEA1B229A70E36983F803B047
:10629000E1690422204601F05EFC666218EE103AC5
:1062A0009D466DE7B8F1040F15D113F801E01944CC
:1062B000023A91F801B00CF10501294419440BEBA5
:1062C0000E2BD047E36950221A70E36902221FFAAD
:1062D0008BFB5A70D5E71944D047DFE7502A08D125
:1062E0009A78D97801EB022189B22046FFF7D9FECE
:1062F00046E7402A12D1626B002A3FF441AFBBF15E
:10630000040F7FF43DAF11F0060F7FF439AF997899
:10631000D87800EB012080B2904731E7602A08D19D
:106320009A78D97801EB022189B22046FFF7DDFE89
:1063300026E7702ADFD0902A3FF422AFC02A0AD184
:10634000D0221A70E36900225A70E16902222046C5
:1063500001F001FC14E7D02A04BF002384F82C309C
:106360000EE7000008B5024B1B689B68019308BD4F
:106370006802030008B5024B1B68DB68019308BD87
:106380006802030008B5024B1B689B68019308BDB7
:106390002C02030008B5024B1B689B69019308BDE2
:1063A0002C02030008B5024B1B68DB69019308BD92
:1063B0002C02030008B5024B1B685B69019308BD02
:1063C0006C02030008B5024B1B685B68019308BDB3
:1063D0001802030008B5024B1B685B69019308BDF6
:1063E0001802030008B5024B1B689B6D019308BDA2
:1063F0001802030008B5024B1B685B6E019308BDD1
:106400001802030008B5024B1B68DB68019308BD46
:106410004802030008B5024B1B68DB69019308BD05
:106420004802030008B5024B1B681B6A019308BDB4
:106430004802030008B5024B1B685B6A019308BD64
:106440004802030008B5024B1B689B6A019308BD14
:106450004802030008B5024B1B68DB6A019308BDC4
:106460004802030008B5024B1B681B6B019308BD73
:106470004802030008B5024B1B689B6B019308BDE3
:106480004802030008B5024B1B681B6C019308BD52
:106490004802030008B5024B1B685B6C019308BD02
:1064A0004802030008B5024B1B681B6F019308BD2F
:1064B0004802030008B5024B1B685B69019308BDE5
:1064C0006402030008B5024B1B681B6A019308BDF8
:1064D0006402030008B5024B1B689B6A019308BD68
:1064E0006402030008B5024B1B68DB68019308BD1A
:1064F0003C02030008B5024B1B681B69019308BDF1
:106500003C02030008B5024B1B685B69019308BDA0
:106510003C02030008B5024B1B689B69019308BD50
:106520003C02030008B5024B1B68DB69019308BD00
:106530003C02030008B5024B1B681B6A019308BDAF
:106540003C02030008B5024B1B689B6A019308BD1F
:106550003C02030008B5024B1B681B6C019308BD8D
:106560003C02030008B5024B1B681B6A019308BD7F
:106570002802030008B5024B1B685B6A019308BD43
:106580002802030008B5024B1B689B6A019308BDF3
:106590002802030008B5024B1B68DB6A019308BDA3
:1065A0002802030008B5024B1B681B6B019308BD52
:1065B0002802030008B5024B1B685B6B019308BD02
:1065C0002802030008B5024B1B681B6C019308BD31
:1065D0002802030008B5024B1B689B69019308BDA4
:1065E0003802030008B5024B1B68DB69019308BD44
:1065F0003802030008B5024B1B681B6A019308BDF3
:106600003802030008B5024B1B689B6A019308BD62
:106610003802030008B5024B1B681B6B019308BDD1
:106620003802030008B5024B1B689B6B019308BD41
:106630003802030008B5024B1B68DB69019308BDF3
:106640003002030008B5024B1B681B6A019308BDAA
:106650003002030008B5024B1B681B68019308BD9C
:106660004C02030008B5024B1B681B69019308BD6F
:106670004C02030008B5024B1B685B69019308BD1F
:106680004C02030008B5024B1B689B69019308BDCF
:106690004C02030008B5024B1B68DB69019308BD7F
:1066A0004C02030008B5024B1B681B6A019308BD2E
:1066B0004C02030008B5024B1B681B6D019308BD1B
:1066C0006002030008B5024B1B681B68019308BDFC
:1066D0002002030008B5024B1B685B68019308BDEC
:1066E0002002030008B5024B1B685B69019308BDDB
:1066F0002002030008B5024B1B68DB6A019308BD4A
:106700002002030008B5024B1B68DB6C019308BD37
:106710002002030008B5024B1B685B6D019308BDA6
:106720002002030008B5024B1B689B6D019308BD56
:106730002002030008B5034B1B68D3F8883001938F
:1067400008BD00002002030008B5034B1B68D3F806
:106750009430019308BD00002002030008B5024BED
:106760001B685B68019308BD4002030008B5024B3B
:106770001B689B68019308BD4002030008B5024BEB
:106780001B68DB68019308BD4002030008B5024B9B
:106790001B681B69019308BD4002030008B5024B4A
:1067A0001B685B69019308BD4002030008B5024BFA
:1067B0001B689B69019308BD4002030008B5024BAA
:1067C0001B68DB69019308BD4002030008B5024B5A
:1067D0001B681B6A019308BD4002030008B5024B09
:1067E0001B681B6B019308BD4002030008B5024BF8
:1067F0001B685B6B019308BD4002030008B5024BA8
:106800001B681B6C019308BD4002030008B5024BD6
:106810001B685B6C019308BD4002030008B5024B86
:106820001B689B68019308BD4402030008B5024B36
:106830001B685B69019308BD4402030008B5024B65
:106840001B681B6A019308BD4402030008B5024B94
:106850001B685B6A019308BD4402030008B5024B44
:106860001B681B6B019308BD4402030008B5024B73
:106870001B68DB6B019308BD4402030008B5024BA3
:106880001B681B68019308BD1C02030008B5024B7E
:106890001B685B68019308BD1C02030008B5024B2E
:1068A0001B689B68019308BD1C02030008B5024BDE
:1068B0001B681B69019308BD1C02030008B5024B4D
:1068C0001B685B6A019308BD1C02030008B5024BFC
:1068D0001B68DB6A019308BD1C02030008B5024B6C
:1068E0001B681B6B019308BD1C02030008B5024B1B
:1068F0001B68DB6B019308BD1C02030008B5024B4B
:106900001B681B6C019308BD1C02030008B5024BF9
:106910001B685B6C019308BD1C02030008B5024BA9
:106920001B68DB6C019308BD1C0203000022406859
:106930001146FFF74BBF002240681146FFF756BFD4
:1069400040680022FFF74ABF4068002281F0010141
:10695000FFF734BF002340681A461946FFF726BFE9
:10696000002340681A461946FFF718BF0022406806
:106970001146FFF70BBF002240681146FFF7F6BE35
:10698000406800220221FFF7F9BE002340681A4642
:10699000FFF7E4BE024B03225A60024A1A607047B6
:1069A000ECE503202CB10B0010B50446084621701D
:1069B000FFF740FE00236360204610BD054B022216
:1069C0001A60054B054A9A600020C3E90000FFF7F2
:1069D00081BE00BF00E60320F4E503200000FFFFB6
:1069E00010B50446FEF776F8013823182046834296
:1069F00006D90278197800F8011B03F80129F6E797
:106A000010BD2DE9F041931E8CB0222B4FF00003F6
:106A10000D4614468DF82C3027D900282ADA2E4648
:106A20002D2306F8013B40420A240DF12B074FF0BD
:106A300001082246014601A802F0C8F9029B01980C
:106A4000092BCCBF3722302252FA83F307F80139E1
:106A500008F101080028ECD14246791C304602F0CA
:106A6000D9F928460CB0BDE8F0810A2AD5D018B172
:106A70002E46DAE70A24FAE730238DF82B302E462B
:106A80000DF12A074FF00208E6E770B50C46911E9B
:106A900022291DD8254630B9234430229D4210D2E8
:106AA00005F8012BFAE7B0FBF2F602FB1600C1B2C3
:106AB000092894BF30315731C9B205F8011B30465F
:106AC000E9E7002320462B70FFF78AFF204670BDC0
:106AD0000020FCE708B50123FFF7D7FF08BD10B57C
:106AE00004460068FFF7D2FE204610BD10B50446EC
:106AF000006808B1FFF7CAFE0023C4E90133236030
:106B000010BD38B504460D4600680131FFF7C6FEDA
:106B100010B1C4E90005012038BD10B50368044672
:106B200023B143688B4201D3012010BD2046FFF7FB
:106B3000E8FF0028F9D0A368002BF5D12268137074
:106B4000F2E737B50D46114601920446FFF7E5FF1F
:106B5000019A28B92046FFF7C9FF204603B030BD8F
:106B6000A2602946206802F055F92268A368002136
:106B7000D154F2E7002313B5C0E900330446836023
:106B8000037341B108460191FDF7A4FF0199024644
:106B90002046FFF7D6FF204602B010BD884210B550
:106BA000044605D00B682BB18A681946FFF7C9FF68
:106BB000204610BDFFF79AFFFAE710B50023044600
:106BC000C0E9003383600373FFF7E8FF204610BD80
:106BD00013B5044659B108460191FDF77BFF0199B1
:106BE00002462046FFF7ADFF204602B010BDFFF77A
:106BF0007DFFF9E71FB504460023C4E90033A36015
:106C00002373084601A9FFF765FF01A92046FFF796
:106C1000DFFF204604B010BD10B504468AB0002343
:106C2000C4E90033A3602373084601A9FFF7E9FE16
:106C300001A92046FFF7CCFF20460AB010BD70B571
:106C400005460E4609B9002070BD6AB18468144437
:106C50002146FFF762FF0028F5D02868AB6831466F
:106C6000184402F035F9AC600120EDE710B58A68F0
:106C700009680446FFF7E3FF10B92046FFF736FF27
:106C8000204610BD0EB470B587B00BAD044655F864
:106C9000042B01922B46052104A80395FFF70EFE55
:106CA0000B4906462046FFF765FF31462046FFF7B1
:106CB00034FF206830B1019A03952B46711CFFF711
:106CC000FDFDA060204607B0BDE8704003B07047EE
:106CD00094AF0B0010B54368013B0446436063B9B1
:106CE00003689B689847A368013BA3602BB923689E
:106CF0002046DB68BDE81040184710BD13B50B46B1
:106D00000246D0E900016C4684E8030093E80300E2
:106D100082E8030094E8030083E8030002B010BD9A
:106D2000024800230360FFF7B5BB00BF04E6032061
:106D3000F8B506460D468F180024BD420CD03368C6
:106D400015F8011B9B6830469847031E01DB1C4465
:106D5000F3E7002C08BF1C462046F8BD13B50446D7
:106D6000084659B10191FDF7B5FE23680199DB682A
:106D70000246204602B0BDE81040184702B010BDE0
:106D800003689B68184738B50D210546FFF7F8FFE3
:106D90000A2104462846FFF7F3FF204438BD38B5E2
:106DA0000546FFF7DBFF04462846FFF7ECFF2044CB
:106DB00038BD30B58BB00023012A8DF8243098BF40
:106DC0000A2209AC0D46B1FBF2F101FB125303F0AC
:106DD000FF03092B94BF30333733DBB2AA4204F8E8
:106DE000013DEFD92146FFF7B9FF0BB030BD2DE9CA
:106DF000F04186B000AF05460E46381D14211446FA
:106E00003B60FFF75BFD13280ED8391D2846FFF7BE
:106E1000A5FF04461EB12846FFF7B5FF04442046EF
:106E20001837BD46BDE8F08100F1080323F00703E1
:106E3000E846ADEB030D2246411C3B686846FFF770
:106E40003DFD69462846FFF789FF0446C546E1E750
:106E5000014B024A1A60704708E6032068B10B0034
:106E60002DE9F041154ADFF86080D2E9006380190E
:106E700043EB0101124BD3E90067D8E900238619DF
:106E800041EB0707BB4208BFB2428CB013D003A945
:106E90006846CDE90067FFF741FD089B094D03F205
:106EA0006C7303AC08930FCC0FC50FCC0FC5C8E9AA
:106EB000006723682B600CB0BDE8F08140E603203A
:106EC00038E6032010E6032048E6032008B500203A
:106ED000FFF7C4FC28B1FFF7A9FC80F00100C0B2A5
:106EE00008BD0120FCE7000008B5FFF7B9FF024B21
:106EF0001869013008BD00BF10E6032030B593B01B
:106F0000CDE90023194B0446D3E90010019B521828
:106F100043EB00031648D0E90010521843EB00037E
:106F2000CDE9002324220DEB0200002101F09AFF9D
:106F3000002509A96846FFF7F1FC1622294603A897
:106F4000029501F08FFF02A909A801F013FF02A822
:106F5000FDF7C0FD12AB184402A900F8415C2046C1
:106F6000FFF708FE204613B030BD00BF40E6032007
:106F700038E6032010B50020FFF734FA0446A0B924
:106F8000FFF7A0FB012810D12046FFF7CBFB60B92B
:106F9000FFF79CFF10B9FFF741FCF9E7FFF796FFF9
:106FA000BDE810400020FFF71DBA204610BD1FB5F8
:106FB000FFF7E0FF10220021684601F053FF002197
:106FC0006846FFF717FA009805B05DF804FB00006B
:106FD00008B5FFF7ECFFC117FFF742FF014B9868B8
:106FE00008BD00BF10E6032008B5FFF7E0FFC1179A
:106FF000FFF736FF014B586808BD00BF10E60320BD
:1070000008B5FFF7D4FFC117FFF72AFF014BD86877
:1070100008BD00BF10E6032008B5FFF7C8FFBDE8B4
:107020000840C117FFF760BF08B5FFF7C0FFC117E1
:10703000FFF716FF014B586908BD00BF10E603209B
:10704000024B1A68024B1A60704700BF38E30320F6
:107050000CE603200021FFF745BB000010B5044BF0
:1070600003600446806908B1FFF734FE204610BD76
:107070007CB20B0010B50446FFF7F0FF20461C2140
:10708000FDF78BFD204610BD014B00229A60704732
:1070900050E60320014B1860704700BF3CE303201B
:1070A00008B50B4B43B100F01FFC03681B69984700
:1070B000002801DDAFF30080064B43B101F064F915
:1070C00003681B699847002801DDAFF3008008BD05
:1070D000000000000000000008B5FFF7E1FFFFF727
:1070E00079F9014B186008BD44E703200548064ABA
:1070F000064908B5121A01F08DFE054B054A1A60C3
:1071000008BD00BF00F4032004F40320DCBB0B0027
:1071100000F403201E1C279A07B5002300931A468B
:107120006FF07701FFF710FB03B05DF804FB000080
:1071300007B543880A2B08D0502B0BD1094B1B688D
:107140004BB103B05DF804EB1847FFF7E5FF03B060
:107150005DF804FB002300931A466FF07701FFF7F8
:10716000F3FAF4E764E6032010B512480021FFF7B4
:10717000CDFB114B1A68114B9A42114B0CBF0122E7
:1071800000221A7001D0FFF7B1FFFFF71BF9044688
:1071900001F070FE0B4B13B12046AFF300800021CD
:1071A0000848FFF763FBBDE8104007480021FFF7E0
:1071B000C1BA00BF95700B0000F403201E1C279A73
:1071C00060E603200000000031710B0070470020D2
:1071D000704710B510210446FDF7DFFC204610BDB6
:1071E00008B5FFF7F6FF08BD30B500224FF69C74D6
:1071F000026084808D888C800C68858004600A60C1
:1072000030BD10B504460068FFF740FB204610BDB6
:1072100038B5C468F4B12378022B03D104F10C0013
:10722000FFF7EFFF656835B12846FDF7B4FE102182
:107230002846FDF7B2FCA56835B12846FDF7ABFE40
:1072400010212846FDF7A9FC20461421BDE838404E
:10725000FDF7A3BC38BD07B5CDE9001282680AB9B5
:1072600001F0D2F9C36801AA6946984703B05DF8F6
:1072700004FB0B6803604B68436013B15A6801322A
:107280005A60704737B5044668460D46FFF7F1FF70
:10729000009B019A23606260002301A80193009380
:1072A000FDF71CFD35B1281DFDF718FD0821284606
:1072B000FDF773FC204603B030BD826810B50AB9F3
:1072C00001F0A2F9BDE81040C368184708B500688E
:1072D00000F11001FFF7F1FF08BD826810B50AB98F
:1072E00001F092F9BDE81040C368184708B500687E
:1072F00000F11001FFF7F1FF08BD000038B50023D1
:107300000446036010200D46FDF73FFC28B1012321
:10731000C0E90133024B0360C5602060204638BDE0
:1073200090B10B0038B5002383608B6804460D468E
:107330002BB102229847EB68E360AB68A36020465C
:1073400038BD0000F0B589B004686846FFF74CFF0F
:107350004FF00203D4E84F2F002A03D1C4E8413F85
:107360000029F7D125D104F10C0569462846FFF71D
:107370003BFFBFF35B8F01236370002004F1080320
:10738000BFF35B8F53E8006F43E80002002AF9D196
:10739000BFF35B8F6EB1FFF7B5F978B12946304680
:1073A000FFF78BFF3046FDF7F6FD10213046FDF765
:1073B000F4FB6846FFF725FF09B0F0BD314602A88F
:1073C000FFF7B0FFE068B4F9105008B101F088FD94
:1073D00006901020ADF81C50FDF7D7FB0546E8B12C
:1073E000002787601820FDF7D0FB044688B10146CE
:1073F000876002A8FFF782FC049BA268A360059B3C
:10740000049206A9E268E36004F110000592FFF718
:10741000EBFE084BEB60084B2C60AB6006A8FFF757
:10742000F0FE02A8FDF7B7FD002229460348FFF74A
:1074300071F9B7E7CD720B0051750B00997A0B000B
:107440002DE9F04F8BB005469DF850A00F469046B1
:107450009946FFF7EBF907AE834638BB4FF62E731C
:10746000059005A93046ADF81830FFF7BDFE142091
:10747000FDF78BFB044648B1022303700123C0E9EA
:1074800001BB437031460C30FFF7AEFE2846214663
:1074900040F8044BFFF732FF3046FFF7B2FE05A875
:1074A000FFF7AFFE28460BB0BDE8F08F0C23002499
:1074B0001420CDE908440793FDF767FB014618B196
:1074C000C0E901440470447004A80391FFF716FF5B
:1074D0001E4B08930820FDF758FB044610B103A982
:1074E000FFF7C7FE00965FFA8AF34A4641463846E0
:1074F0000994FFF7A3F9B8B9039B5B7803F0FF0287
:1075000093B94FF69C7305A903A80592ADF81830FE
:10751000FFF718FF05A8FFF774FE05A80999FFF704
:10752000B1FE06A8FDF7DAFB03A905A8FFF7A1FE47
:10753000059B069A2B606A60002306A806930593B4
:10754000FDF7CCFB04A8FDF7C9FBABE7CD750B003D
:10755000012AF8B5054603D10B6803600020F8BD89
:10756000022A10D0032AF9D10468002CF6D004F1C5
:107570001000FFF746FE2046FDF70DFD18212046BE
:10758000FDF70BFBEAE718200E68FDF7FEFA04464C
:1075900050B13146FFF7C6FE3069B6F9147008B134
:1075A00001F09EFC2061A7822C60D7E738B500234C
:1075B00083608B6804460D462BB102229847EB6826
:1075C000E360AB68A360204638BD0000F0B589B029
:1075D00004460D4601A81146FFF754FEA4B124B29B
:1075E0001DB1284601F07CFC054601A803A90395BE
:1075F000ADF81040FFF7A6FE03A8FFF702FE02A8B1
:10760000FDF76CFB09B0F0BD019D0123D5E84F2FBC
:10761000002A03D1C5E8413F0029F7D1EFD12B73F0
:10762000BFF35B8F6B702B1DBFF35B8F53E8006F55
:1076300043E80042002AF9D1BFF35B8F002EDED071
:107640002046FFF75FF8074660B105F10C013046B0
:10765000FFF743FE3046FDF79EFC10213046FDF754
:107660009CFACCE7314603A8FFF7A0FF2B7B8DF8EF
:107670001C301020FDF789FA0546D0B18760142030
:10768000FDF783FA044678B18760014603A8FFF747
:1076900035FB059BA268A360069B0592E268E36048
:1076A0009DF81C3006922374064BEB60064B2C6051
:1076B000AB6003A8FDF76FFC002229460348FFF7E3
:1076C00029F8C7E7ED720B00D1760B00997A0B0011
:1076D000012A70B5044603D10B680360002070BD19
:1076E000022A0CD0032AF9D10468002CF6D02046D7
:1076F000FDF751FC14212046FDF74FFAEEE7142068
:107700000E68FDF742FA054620B13146FFF74EFFFD
:10771000337C2B742560E1E7704710B518210446CF
:10772000FDF73BFA204610BDF0B5037D062B8DB06A
:107730000E4600F104074FF0000412D000F10805D6
:1077400015F8011D0A223046FFF733FBAF4204440F
:1077500019D0002CF4D02E213046FFF711FB044441
:10776000EEE72F236A4639460A208DF80040FEF7DF
:10777000A1FE6846FDF7AEF933680246DB6869464C
:1077800030469847044620460DB0F0BD10B5054B75
:107790000446112240F8043B002101F063FB20461F
:1077A00010BD00BFACB10B000346074A10B543F84B
:1077B000042B01F1100251F8044B43F8044B9142A1
:1077C000F9D10A781A7010BDACB10B00037D042BFF
:1077D00004D14068003818BF01207047062B07D13C
:1077E00043683BB983682BB9C3681BB90069F1E7EB
:1077F000002070470120704710B59DF8084044EA0A
:10780000032343EA024242EA016104234160037513
:1078100010BD000007B5064B0360CB7800938B7852
:107820004A780978FFF7E8FF03B05DF804FB00BF72
:10783000ACB10B00417470477047704708B5002128
:10784000007CFEF71FFF40EAE07008BD08B501218B
:10785000007CFEF717FF40EAE07008BD08B5007C29
:10786000FEF708FF20EAE07008BD08B5007CFEF7CF
:10787000F9FE20EAE07008BD13B50446007C0191D2
:10788000FEF7F8FE0028019901DC607C20B1207C25
:10789000FEF700FF20EAE07002B010BD007CFEF7AA
:1078A00001BF10B514210446FDF777F9204610BD3D
:1078B00010B54FF47A73044608460021C4E9011359
:1078C000044B23600123207463741146FEF7C2FE4B
:1078D000204610BDC0B10B0010B514220446002193
:1078E00001F0C0FA204610BD10B50F4C88B003A8B7
:1078F000FFF7F2FF2178BFF35B8F11F001010FD189
:1079000020460191FDF74BF9019948B103AA0748B8
:10791000FFF7CEFF2046FDF747F9054801F050FA82
:10792000024808B010BD00BF68E603206CE60320E3
:1079300039780B00826810B50AB900F065FEBDE821
:107940001040C36818470000F8B5104F57F82040A2
:1079500006460D4634B12046FDF71DFB102120469A
:10796000FDF71BF91020FDF710F9044650B1002374
:107970008360AB6833B1022229469847EB68E36025
:10798000AB68A36047F826402046F8BD80E6032098
:10799000F0B587B00546039117461E46FEF702FD77
:1079A00003992846FFF7D0FF0446E8B100218E4234
:1079B0004FF00403ADF815108DF817108DF8143042
:1079C000A2BF05A99DF830308DF81630009102460F
:1079D0000749A8BF8DF815603B462846FEF7DAFC3C
:1079E00010B1002007B0F0BD201E18BF0120F9E73C
:1079F00035790B0070474174704708B5007CFEF77D
:107A0000A1FD20EAE07008BD08B5007CFEF772FD1C
:107A100020EAE07008BD08B5007CFEF77BFD40EA77
:107A2000E07008BD08B5007CFEF76CFD40EAE07030
:107A300008BD007CFEF776BD37B5457C04462DB108
:107A4000207C03B0BDE83040FEF74CBD007C0191C6
:107A5000FEF778FD00280199F2DC284603B030BD1E
:107A600010B514210446FDF798F8204610BD00001B
:107A700010B54FF47A730446084611460022C4E953
:107A80000123044B2360012320746374FEF762FD1D
:107A9000204610BDF0B10B0010B5836804460BB949
:107AA00000F0B2FDC3689847A3681BB103222146CA
:107AB0002046984720461021BDE81040FDF76DB8DC
:107AC0007047F8B5064615460C468F18BC4206D0DE
:107AD000336814F8011B9B6830469847F6E7284640
:107AE000F8BD007C0022FEF73DBD007C0021FEF7C2
:107AF00041BD007C0021FEF745BD007C0021FEF762
:107B000049BD007C0021FEF74DBD10B5142104468F
:107B1000FDF743F8204610BD10B54FF47A730446C4
:107B200008460021C4E90113034B23602074114669
:107B3000FEF748FD204610BD20B20B0013B50368C8
:107B40008DF80710DC6B01224FF0FF330DF10701B8
:107B5000A04702B010BD10B40368DC6B4FF0FF33D8
:107B6000A4465DF8044B604713B5134602688DF8D0
:107B70000710D46B0DF107010122A04702B010BD20
:107B800010B54369B3F88620B3F884309A420446AE
:107B900008D06369B3F88420511CA3F884101344FF
:107BA000187910BD03681B6998470028F1D14FF080
:107BB000FF30F6E7704743691868C043C00F70474D
:107BC00070470000064B994210B500F10C0405D037
:107BD000084600F01DFD002808BF0024204610BD07
:107BE00060B10B0010B5AC210446FCF7D6FF20466F
:107BF00010BDAC21FCF7D1BF2DE9F0414FF00008DA
:107C000086B01C46C0F8048005460E46174641461D
:107C1000102202A801F026F9631C09D04FF47A73F0
:107C2000B4FBF3F203FB1244CDE902285C43049455
:107C3000686910230093006802AB41F2050240F628
:107C4000FF71FEF7C7FC002807DAFEF74FFE036856
:107C50006B60002006B0BDE8F08168690023006811
:107C60003A463146FEF7D6FC031EEEDB1846F1E736
:107C700030B587B0044601AD6846FFF7CBFD0FCDA8
:107C800004340FC42B68237007B030BD70B54D6944
:107C9000054B04468C3544F8043B06460FCD0FC413
:107CA0002B682370304670BDACB10B002DE9F0435A
:107CB0009846036893B00D460024DB6A06461746D3
:107CC000984728466B46224621460094FEF752FB11
:107CD0000546002863D1009B002B4BD05B69002B2D
:107CE00048D006A8FFF752FD009B5C696378022B21
:107CF00004D1211D06A8FFF7BBFF26E00A2B24D1E3
:107D00001122294601A801F0ADF8A368002B38D054
:107D100004F108030DF1040C183418685968624620
:107D200003C20833A3429446F7D1062301A90CA845
:107D30008DF81430FFF738FD0DF1340CBCE80F005E
:107D400007AC0FC4DCF80030237006A8FFF73EFD37
:107D500080B1336807ADD3F82090124B0C930FCD50
:107D60000DAC0FC42B6823703A4643460CA930462D
:107D7000C84705460098FEF7F5FA284613B0BDE857
:107D8000F083E368002BC3D14FF6FF70D4F8109056
:107D9000FEF798FB8145BBD104F11401AAE7254603
:107DA000E8E700BFACB10B0038B543691A68002A98
:107DB000054610DAB3F88620B3F884309A420AD127
:107DC00003681B699847044628B92B682846DB6A74
:107DD0009847204638BD0120FCE710B54369B3F849
:107DE0008620B3F884309A42044605D06369B3F81C
:107DF00084201344187910BD03681B699847002834
:107E0000F4D14FF0FF30F6E7F8B543691746B3F801
:107E10008620B3F884309A4205460E4616D069692A
:107E2000B1F88430B1F88640E41ABC4228BF3C4621
:107E3000043322461944304600F0ECFF6A69B2F878
:107E400084302344A2F884302046F8BD03681B69BF
:107E500098470028E3D14FF0FF34F5E7426900234B
:107E6000A2F884304269A2F8863070472DE9F041CB
:107E70001F4603680C46DB6A8AB0054616469847DB
:107E8000237DD5F81480042B0CBF02200A20062283
:107E90000121FEF7C7FBC8F800006B691B68002BC7
:107EA00008DA2B682846DB6A0024984720460AB087
:107EB000BDE8F0812846FFF7D1FFB7B1002303A941
:107EC000F8B20393ADF81030FEF774FA0028E8D149
:107ED000686906230093006803AB41F20B0240F689
:107EE000FF71FEF777FB0028DBD11C22002103A8DD
:107EF00000F0B8FF237D042B1DD14FF407733046EB
:107F0000ADF80C30FEF7E6FAADF80E006068FEF74B
:107F1000D9FA04906B691C22186803A9FEF76AFB62
:107F20000028BED104340FCC6D698C350FC5236891
:107F30002B700124BAE740F61C233046ADF80C3014
:107F4000FEF7C8FA05AEADF80E00231D04F11407C4
:107F500018685968324603C20833BB421646F7D147
:107F6000D8E7000030B54269B2F886308BB00446DD
:107F70002BB1B2F884209A4201D1FFF76FFF6169FB
:107F80000868002818DBB1F886507F2D14D804311A
:107F90000823C5F180022944FEF734FB002813DDD5
:107FA0006369B3F886200AB9A3F884206369B3F83B
:107FB00086201044A3F886006369B3F88600B3F8FE
:107FC0008430C01A0BB030BDFEF790FC03680B2B59
:107FD000F2D0FEF78BFC03680B2BEDD0202300259D
:107FE000CDE90235FEF782FC03680193084B09498D
:107FF000009302AA2B463220FEF75CFB63691868E7
:10800000FEF7F0FA63694FF0FF321A60D4E700BF61
:1080100047B20B0040B20B0010B543690446186824
:10802000002801DBFEF7DEFA63694FF0FF321A60C9
:108030006069112200218C3000F014FF2046BDE859
:108040001040FFF70BBF10B5002304460160C0F8D5
:1080500084308830FFF79AFB204610BD73B50023AB
:108060004FF47A72C0E901320E4A03610260436143
:108070000446AC200191FCF788FD051E05F10C06B5
:1080800008D00123C5E90133074B01992B60304625
:10809000FFF7D9FF2046C4E90565FFF7DFFE02B010
:1080A00070BD00BF7CB20B0060B20B0010B54FF08A
:1080B000FF310446FFF7D2FF204610BD10B504463D
:1080C0000068002801DBFEF78DFA204610BD0C3059
:1080D000FFF7F4BF002240681146FEF757BB0022AD
:1080E00040681146FEF772BB002240681146FEF759
:1080F0007DBB40680022FEF771BB4068002281F022
:108100000101FEF75BBB002340681A461946FEF7E3
:108110004DBB002340681A461946FEF73FBB0022BC
:1081200040681146FEF722BB406800220221FEF79C
:1081300025BB002340681A46FEF710BB024B042201
:108140005A60024A1A60704710E70320C8B20B0059
:10815000002340681A46FEF701BB40680022022156
:10816000FEF70CBB002240681146FEF7FFBA002262
:1081700040681146FEF70ABB002340681A461946BC
:10818000FEF70CBB002340681A461946FEF70EBBEB
:1081900040680021FEF732BB40680021FEF736BB85
:1081A0004068002281F00101FEF708BB4068002210
:1081B000FEF714BB002240681146FEF717BB0022F1
:1081C00040681146FEF702BB2DE9F04395B0144616
:1081D0000D460746FFF7DAFA00211C220DA8009190
:1081E00000F040FE40230C9320466B460CAA002171
:1081F000FEF7C0F8044600284BD10246012168680A
:10820000FEF7C4FA0221804622466868FEF7BEFAED
:10821000009E81462146002E3BD0002939D173684B
:10822000022B03D00A2B11D0F669F4E7B8F1000F46
:10823000FAD0716906A8043107ADFFF7EBFA0FCD4C
:108240003C1D0FC42B6823704146EDE7B9F1000FC8
:10825000EAD07469102201A800F004FE06238DF80C
:10826000143001AD04F108031834186859682A461F
:1082700003C20833A3421546F7D101A906A807ADEA
:10828000FFF792FA0FCD3C1D0FC42B6823704946AF
:10829000CAE70098FEF766F8384615B0BDE8F083E7
:1082A000024B034A1A6000225A60704718E7032005
:1082B00004B30B00232813B502D9002002B010BD6F
:1082C000A0F10B03022B1AD8174C2178BFF35B8F58
:1082D00011F001010BD120460191FCF760FC0199DE
:1082E00028B11248FEF760FB2046FCF75DFC0F4BFF
:1082F0001878FEF7A7F90028DFD10120DEE7012872
:1083000009D800F07DF80021007CFEF753F980F0D9
:108310000100C0B2D2E709380128EED800F034F8E5
:10832000007CFEF707F9F2E720E7032024E70320AB
:10833000232838B504460D460AD8FF2908D0FFF790
:10834000B9FF28B129462046BDE83840FEF71AB8E3
:1083500038BD704738B5044614252A46002100F080
:1083600081FD25804025074925812846258200F08A
:108370006BF804496060284600F066F8E06020462B
:1083800038BD00BF38B30B0030B50E4D2978BFF3B0
:108390005B8F11F0010487B011D12846FCF7FFFB79
:1083A00068B101A8FFF7D6FF01AA21460648FFF7EA
:1083B0005FFB2846FCF7F8FB044800F001FD02488B
:1083C00007B030BD2CE7032030E7032053830B00B8
:1083D0007047000038B520251423044603608560EB
:1083E00005610649284600F02FF8044960602846D8
:1083F00000F02AF8E060204638BD00BF38B30B001B
:1084000030B50E4D2978BFF35B8F11F0010487B0B2
:1084100011D12846FCF7C3FB68B101A8FFF7DAFFCA
:1084200001AA21460648FFF777FB2846FCF7BCFB6C
:10843000044800F0C5FC024807B030BD48E70320FF
:108440004CE70320D1830B00FCF7A1BBC3689A68FB
:10845000C26010B502B1506042685A600C68844234
:1084600003D10B609860436010BD916881420CBFDE
:108470009360D360F6E78368DA68826010B502B172
:10848000506042685A600C68844203D10B60D86027
:10849000436010BDD16881420CBFD3609360F6E7A2
:1084A000C36823B118469B68002BFBD17047436813
:1084B000DA68824202D118465B68F9E7C2689342E3
:1084C00018BF18467047037833B943685B68834226
:1084D00002D1DB6818467047826822B11346D26821
:1084E000002AFBD1F6E743689A688242F2D1184627
:1084F0005B68F9E7FFF7D4BFFFF7E5BF2DE9F84365
:108500001E4603F104080023C1E902330C464A6009
:108510000B7000B39642916018D17160F46001272E
:108520004FF000097368A3423FD060680278002AC8
:108530003BD14568AB68984223D1EB6883B11A7888
:1085400072B907701F702A702C46EBE7B36893422C
:10855000E5D1B160E3E7D160F3689342DFD1DDE7B5
:10856000C368A34203D14146FFF770FF0446636826
:1085700041461F70284685F80090FFF77CFF25468E
:10858000E2E713B11A78002ADBD08368A34203D153
:108590004146FFF770FF0446636841461F70284656
:1085A00085F80090FFF752FFE9E701221A70BDE855
:1085B000F88308B5FEF78AF908B5FEF787F908B51C
:1085C000FEF784F908B5FEF781F908B5FEF77EF9E4
:1085D0000FB480B584B000AF07F1180454F8042B31
:1085E0007A601046FCF776FA00F2072323F00703BF
:1085F000ADEB030D00F500717A68FC602346684618
:1086000000F05EF8FEF762F908B5FEF75FF90000CA
:10861000014900F099BB00BF54B30B0080B59CB07A
:10862000064600AF0C46A41B0E496922381D00F017
:10863000F1FB04F1700323F00703ADEB030D6D466E
:108640006822391D284600F0E5FB2246314605F137
:1086500068002C4400F0DEFB002384F868302846D4
:10866000FFF7AAFF5CB30B002DE9F04100AF84B027
:108670006D4605F10C04DFF8448023464FF00A0CE8
:10868000B2FBFCF60CFB162E18F80EE003F801ED19
:108690009646BEF1090F3246F2D8E41A8C4209D848
:1086A000C4F10C032246E91800F0B4FB2046BD4695
:1086B000BDE8F0814FF0FF34F8E700BFC5B30B0011
:1086C00001392DE9F0410746154600EB0108044643
:1086D0002A7892B344452AD2252A07D16A78732A88
:1086E00009D07A2A12D0252A00D1013515F8012B9C
:1086F00004F8012BECE753F8042B013A12F8011FA0
:10870000C9B1444513D004F8011BF7E7AA78752ACC
:10871000ECD11E46A8EB040156F8042B2046FFF7C7
:10872000A3FF002803DD044403353346D0E7214688
:108730003846FFF773FF0235CAE72270E01BBDE839
:10874000F0810AB100F066BB70470AB100F052BB7D
:108750001046704713460A4611B11978FCF760B904
:108760000846704708B50B68B3F1804F02D30D4837
:10877000FFF728FF93420BD9B3EB420F4FEA4200B9
:1087800006D2B0F1804F2ABF6FF0404308600B6003
:108790000868013001D5FFF70CFFBDE80840FCF781
:1087A000F4B900BFD0B30B0050F8083B834202D0AD
:1087B0001846FCF7EEB9704708B5034608465B68F3
:1087C0009842114603D902460148FFF701FF08BD50
:1087D000E8B30B00406801F180410139091A914268
:1087E00008B502D21846FFF7EDFE08BD03688B42BC
:1087F00006D840681844814294BF00200120704789
:1088000001207047012A10B404D10A785DF8044BA6
:10881000027070475DF8044BFFF793BF012A30B434
:1088200003D10B78037030BC7047002AFBD030BCFA
:1088300000F0FEBA08B5521AFFF7E4FF08BD2DE9B3
:10884000F3470A9E1F46436801EB0208B21A1A4416
:10885000A3EB08090346019253F8082B9A4218BF6C
:1088600082680D4608BF0F2201A90446FFF77AFF70
:1088700082461DB121682A46FFF7C4FF37B12EB1E9
:10888000324639460AEB0500FFF7BCFFB9F1000F8D
:1088900007D0216835444A4641440AEB0500FFF7FA
:1088A000B1FF2046FFF780FF019BC4F800A0A36042
:1088B00002B0BDE8F08738B50446154608461144B5
:1088C0006268521A05D025B1236819441844FFF78D
:1088D000A5FF62682368551B002265605A5538BDA4
:1088E0002DE9F74F0C9D144680462A4689461F46BF
:1088F0002146394BFFF76EFF4246D8F8043052F854
:10890000086B964218BFD8F80820A5EB040B03EBC0
:108910000B0A08BF0F22524551D34E443946A14499
:108920004046A3EB0909FFF761FF80B1B9F1000FE1
:1089300006D0AC4204D04A4631197019FFF76EFFD9
:1089400015B32A4639463046FFF75CFF1CE035B1C7
:10895000AC423CD32A4639463046FFF75FFFB9F1B7
:10896000000F11D0AC420FD04A4631197019FFF7F1
:1089700055FFAC4208D234447B199C420FD32A469F
:1089800039463046FFF74AFFD8F80030C8F804A04F
:108990000022404603F80A2003B0BDE8F08FBC4235
:1089A00003D82A4607EB0B01CDE7E41B22463946E4
:1089B0003046FFF733FF2A1B71193019C4E70095C1
:1089C0003B46224649464046FFF739FFDCE7B9F10E
:1089D000000FD0D0C8E700BF1FB40B0073B504462A
:1089E0002346406853F8086B9E4218BFA36800EB0B
:1089F000020508BF0F239D420AD812B13044FFF789
:108A000001FF23686560002220465A5502B070BD00
:108A100000920B46002201462046FFF710FFF0E7C8
:108A20002DE9F7430E461D46416823B9914221D2F4
:108A30004FF0FF321EE09142FAD9D0F8008033782F
:108A40008DF8073008EB010708EB0200891AC5F121
:108A50000109A942ECD30DF107024944FFF77AFE60
:108A600004460028E4D02A463146FFF76EFE28B9B6
:108A7000A4EB0802104603B0BDE8F083601C391A6D
:108A8000E7E713B50446084601920091FCF722F887
:108A9000DDE9001203462046FFF7C2FF02B010BD19
:108AA00073B5044616460D4619B912B10D48FFF7C5
:108AB00083FD731B0F2B019307D9002201A92046C8
:108AC000FFF750FE019B2060A360324629462068D4
:108AD000FFF7B0FE019B226863600021D15402B011
:108AE00070BD00BF25B00B0008B54FF00003FFF7C5
:108AF000D7FF08BD2DE9F0410D461746984600F115
:108B00000803044603603946094A2846FFF754FE25
:108B10002E686A683118D21B2046424594BF8A18D5
:108B200001EB0802FFF7E0FF2046BDE8F08100BF3F
:108B300038B40B0037B50D46044611462846064AA0
:108B40000193FFF739FE019B024629462046FFF7B5
:108B5000D1FF204603B030BD53B40B007FB50024D5
:108B60001023CDE90234036815469E6912686B46EE
:108B7000CDE90044B0479DF8043003F00603062B0E
:108B800003BF009B2B600120204604B070BD0098FD
:108B9000904214BF012006207047000010B5034B1F
:108BA0000360044600F0CDF8204610BDA0B40B00D1
:108BB00010B50446FFF7F2FF20460821FBF7EDFF52
:108BC000204610BD2DE9F0411F46DDE90834DDF8EF
:108BD000188098450646154607D1079900F0B4F865
:108BE00018B165710020BDE8F0813946304600F0CB
:108BF000ABF80028F6D00123C4F800802571A371DA
:108C0000F0E738B515461C4600F09EF820B1082361
:108C1000E36006232560237138BD73B505460C4615
:108C200001921E4600F090F850B9032E08D8236830
:108C3000019A5B692946204602B0BDE8704018479A
:108C400002B070BD10B5034B03600446FFF7A6FFEA
:108C5000204610BD00B50B0010B50446FFF7F2FF2B
:108C600020460C21FBF799FF204610BDF7B5089F61
:108C7000974205460E4614460AD0A868026808972F
:108C8000156A31462246AC4603B0BDE8F040604765
:108C90001946019300F058F8019B0028EDD00620FA
:108CA00003B0F0BD2DE9F14F0D461946DDE90A4B41
:108CB000DDE90CA681461746984600F045F890B1CC
:108CC000002D3460377109DB61198A450CBF06211C
:108CD0000121B171002001B0BDE8F08F0235F9D15A
:108CE0000123B371F6E7544506D15946484600F0D2
:108CF0002BF808B17771EDE7D9F808000368CDE9E2
:108D00000CA6CDE90A4BDC693A4643462946A446FF
:108D100001B0BDE8F04F60472DE9F04107460C4631
:108D200015461E46FFF76DFF48B9B86803689F698E
:108D30002A4633462146BC46BDE8F0416047BDE8BF
:108D4000F081704700207047814208B50ED040681E
:108D500003782A2B0CD049680B782A2B08BF0131E5
:108D6000FBF7AEFEB0FA80F0400908BD0120FCE739
:108D70000020FAE710B50C4641690369826986B0A4
:108D800001F26C710491016803914168029181685C
:108D90000191C1680091074903EB43030B44064965
:108DA00002EB42020A4420460449FDF77FFD2046BB
:108DB00006B010BD6EB50B0059B50B0039B50B00F0
:108DC000002301461A46184600F0C8BF002910B516
:108DD00091FBF2F402FB141306DB002B01DA0134E1
:108DE0009B1AC0E9004310BD002BC4BF04F1FF343F
:108DF0009B18F6E710B501390244904201D10020DA
:108E000005E0037811F8014FA34201D0181B10BDF3
:108E10000130F2E70A44914200F1FF3300D170477C
:108E200010B511F8014B03F8014F9142F9D110BD73
:108E3000884210B501EB020402D98442234607D8C8
:108E4000431EA14208D011F8012B03F8012FF8E7C7
:108E5000024401468A4200D110BD13F8014D02F8C8
:108E6000014DF7E702440346934200D1704703F8EF
:108E7000011BF9E738B5104B1D68AB6B0446B3B95D
:108E80001820FDF7FBFC0246A86320B90B4B0C48E9
:108E90004221FDF733FD0B490B4BC0E900130B4B8F
:108EA00083600B23838100210120C2E90401AB6BA5
:108EB00000221C615A6138BD3CE3032092B50B00CF
:108EC000A9B50B000E33CDAB34126DE6ECDE050018
:108ED000034611F8012B03F8012B002AF9D1704742
:108EE000024B0146186800F003B800BF3CE30320C2
:108EF00037B5044608460D46FBF7ECFD421C11460B
:108F000020460192FDF7EAFC044618B1019A294671
:108F1000FFF780FF204603B030BD10B57AB103469D
:108F20000139841813F8010B11F8012F904201D177
:108F3000A34201D1801A10BD0028F3D1FAE71046F0
:108F4000F9E770B504460D4645EC104B164601F0A6
:108F50005FFE51EC100B7EB1C5F30A53C3F16B03F6
:108F6000002B09DD1B0503F17F55002405F5401595
:108F700022462B46FBF710FA70BD000000000000EF
:108F80002DE9F04F2DED028B9DB01F460023189365
:108F9000A24B13921B680593044618468846FBF7BC
:108FA00099FD4FF0000A05464FF0000BCDF85C80AC
:108FB000179B1A782B2A4ED03BD80D2A34D8082A72
:108FC00034D8002A3ED000230A93179E3378302BE2
:108FD00040F0B080737803F0DF03582B68D10A9B10
:108FE000019318AB029700938D4A19AB17A920463D
:108FF00000F07EFF10F00707054605D0062F2CD1A4
:109000000136002317960A93139B002B40F090859E
:109010000A9BEBB152460BF1004343EC102B1DB001
:10902000BDEC028BBDE8F08F202ACCD10133179321
:10903000BEE72D2AC7D101220A925A1C17925B78EB
:10904000002BC2D1139BCDF85C80002B40F06E85C5
:1090500052465B46E1E70022EEE7189A3AB1352125
:109060001AA801F0E0FE1899204601F09FFA013F8E
:10907000042F06D8DFE807F00A0314170A00DDE919
:109080001AAB2807C0D54BF0004BBDE7DDE91AA3AA
:10909000199A23F4801302F2334243EA025BF0E7A9
:1090A000DFF880B1EDE76FF0004B4FF0FF3AE8E7F3
:1090B000179B5A1C17925B78302BF9D0002BA3D04A
:1090C00001234FF000090493179B0893CDF81C90DF
:1090D0004F460A2217980678A6F13003D9B209291B
:1090E0002AD905992A46FFF718FF98B3002032467F
:1090F0003D4605900346652A01D0452A18D11DB981
:10910000049A02439ED00025DDF85C8008F101023C
:10911000179298F801202B2A75D02D2A7BD04FF07A
:10912000000CA2F13001092940F28280CDF85C8068
:1091300000269DE00023C4E7082FD8BF079900F15F
:109140000100DABF02FB0133079302FB0939013743
:109150001790BFE7179B5A1917925A5D002F37D007
:1091600005903D46A2F13003092B12D90123C2E735
:10917000179B5A1C17925A780130302AF8D0A2F166
:109180003103082B00F2D984179B05900020089327
:109190000546303A00F1010314D0059919440591B0
:1091A0002B4600EB050E0A21734513D12B18082B13
:1091B00005F1010505441CDC07990A2303FB012383
:1091C00007930023179A511C179152781846C9E744
:1091D0003846D2E7082B04DC079E4E43079601333E
:1091E000E2E703F1010CBCF1100FD8BF01FB09F954
:1091F000F5E7102DDCBF0A2303FB0929E1E7002373
:10920000059301237CE74FF0000C08F1020217924E
:1092100098F8022085E74FF0010CF6E720B80B0024
:1092200034B60B000000F07F179A511C179152784A
:10923000302AF9D0A2F1310108293FF679AFA2F125
:10924000300E179A0692179A511C17915278A2F174
:109250003006092E37D9069E891B082944F61F6659
:1092600002DC7645A8BF7646BCF1000F00D07642FE
:10927000002D4DD1049901437FF4C6AE002B7FF43D
:10928000E1AE692A27D024DC492A24D04E2A7FF473
:10929000D9AE9F4917A801F083F800283FF4D2AE59
:1092A000179B1B78282B2DD19A491AAA17A801F0D1
:1092B0008BF8052826D11B9BDDF868A043F0FF4BF7
:1092C0004BF4E00BA0E60A2101FB0E2EAEF1300EAE
:1092D000B9E76E2ADBE7904917A801F061F800288A
:1092E0003FF4B0AE179B8D49013B17A8179301F0CF
:1092F00057F810B9179B01331793DFF830B24FF0CE
:10930000000A81E6864801F0E3FD5BEC10AB7BE6EA
:10931000059B0798F31A002F08BF2F46102D0693C0
:10932000A846A8BF4FF01008FAF7BCFF092D8246E7
:109330008B4613DD7B4B03EBC80353E91223FBF78A
:109340002BF8824648468B46FAF7ACFF02460B469E
:1093500050465946FAF76AFE82468B460F2D38DC96
:10936000069B002B3FF450AE24DD162B0BDC6D4921
:1093700001EBC301D1E9000152465B46FBF70CF853
:1093800082468B4640E6069AC5F12503934220DBD0
:10939000644CC5F10F0504EBC50152465B46D1E9AB
:1093A0000001FAF7F9FF069B5D1B04EBC504D4E945
:1093B0000023E3E7069B16330BDB059B9E1B594BF3
:1093C00003EBC606D6E9002350465946FBF70EF9D3
:1093D000D6E7069BA5EB08089844B8F1000F74DDAA
:1093E00018F00F030AD04F4901EBC30152465B4608
:1093F000D1E90001FAF7D0FF82468B4638F00F081A
:109400004FD0B8F59A7F22DD00252E4607950595A9
:109410002223DFF818B123604FF0000A079B002BCE
:109420003FF4F2AD1899204601F0C0F805992046A6
:1094300001F0BCF83146204601F0B8F80799204603
:1094400001F0B4F82946204601F0B0F8DCE5364BCF
:10945000049300234FEA2818504659469946B8F11C
:10946000010F21DC0BB182468B462F4BABF1547BB5
:1094700003EBC90952465B46D9E90001FAF78CFFB4
:109480002A4B0A460B402A498B428246BCD8A1F59A
:1094900080118B4286BFDFF89CB04FF0FF3A02F19B
:1094A000547B0023049384E018F0010F05D0049B43
:1094B000D3E90023FAF770FF0123049A083209F177
:1094C00001094FEA68080492C9E7EAD0C8F1000828
:1094D00018F00F020AD0134B03EBC2035046594653
:1094E000D3E90023FBF782F882468B465FEA28180F
:1094F000D7D0B8F11F0F1FDD00252E460795059523
:1095000022234FF0000A4FF0000B236086E700BFD4
:109510002FB60B0048B60B0026B60B0029B60B0081
:1095200094AF0B00E0B80B00B8B80B000000F07F60
:109530000000A07CFFFFEF7F18F0100318BF6A2324
:10954000DFF8AC93049350465946002318F0010FFE
:1095500004D0D9E90023FAF71FFF01235FEA680866
:1095600009F10809F2D10BB182468B46049BC3B1C5
:10957000CBF30A52C2F16B03002B594611DD1F2BAE
:1095800040F32481342BDEBFC2F14B024FF0FF3396
:1095900003FA02F24FF0000ACCBF4FF05C7B02EA04
:1095A000010B0022002350465946FBF75DF90028C5
:1095B000A2D1079B009308992B463A46204601F01A
:1095C0005DF8079000283FF41FAF059B9E1B069B8C
:1095D000002BB4BF334600230C93069B002523EADF
:1095E000E37312932E46079B2046596800F09EFFB6
:1095F000059000283FF40CAF079B1A69023203F173
:109600000C0192000C30FFF705FC4BEC10AB1AAAD2
:1096100019A9204601F078FB4BEC18AB18900028F4
:109620003FF4F6AE0121204601F0C2F806460028BC
:109630003FF4EEAE199B0499002BABBF0C9A129A23
:10964000129FDDF83090ACBF03EB0209D71A1A9ACB
:10965000A3EB01089044A14B08F1FF389845C2F1F3
:10966000360280F2C780A3EB08031F2BA2EB030294
:109670004FF0010100F3B18001FA03F30D930023D1
:10968000089309EB0208049BC14517441F444B464D
:10969000A8BF4346BB42A8BF3B46002BC2BFA8EBB6
:1096A0000308FF1AA9EB03090C9B002B17DD3146B9
:1096B0001A46204601F03CF9064600283FF4A8AEC1
:1096C0000146189A204601F089F80B9000283FF4D3
:1096D0009FAE1899204600F069FF0B9B1893B8F1D4
:1096E000000F00F38C80069B002B08DD129A059971
:1096F000204601F01DF9059000283FF489AE002FA7
:1097000008DD05993A46204601F06CF905900028DD
:109710003FF47EAEB9F1000F08DD31464A462046DF
:1097200001F060F9064600283FF472AE059A1899D8
:10973000204601F0E3F9054600283FF469AEC3680E
:109740000B930023C360314601F0BCF9002860DAB6
:109750000B9B53EA0A0340F08280CBF31303002BE8
:109760007DD12BF000431B0D1B05B3F1D66F76D9CD
:109770006B6913B92B69012B71DD29460122204643
:1097800001F030F93146054601F09CF9002866DD0C
:109790000499534A5B46002900F0818002EA0B01DC
:1097A000B1F1D66F7BDCB1F15C7F7FF7A9AE4D4B99
:1097B000504659460022FAF7EFFD0B46034308BF17
:1097C000222382468B4608BF23602BE64FF0FF32F0
:1097D00002FA03F303EA0A0AE3E6C8F17F4808F550
:1097E0007F0808F57B4808F1E20801FA08F30893BE
:1097F0000D9146E70023089301230D9341E7189943
:109800004246204601F0EEF8189000287FF46BAF36
:10981000FEE55F466ED10B9ACBF3130342B3324A97
:10982000934228D1049B5146EBB12D4B3B40B3F101
:10983000D46F4FF0FF3219D81B0DC3F16B0302FA3E
:1098400003F3994217D1294B9F4202D101313FF4D2
:10985000DFAD234B3B4003F5801B4FF0000A049B18
:10986000002BA4D1DEE54FF0FF33EAE71346E8E72B
:1098700053EA0A038CD0089BDBB13B42EFD00B9B31
:10988000049A50465946C3B1FFF75BFB02460B46AC
:1098900051EC180BFAF7CAFB82468B46DFE7134000
:1098A000A3F580136FEA135B6FEA0B5B4FF0FF3A8F
:1098B000D5E70D9B13EA0A0FE0E7FFF742FB0246EC
:1098C0000B4651EC180BFAF7AFFB0022002382463F
:1098D0008B46FAF7C9FF0028C1D011E602FCFFFF52
:1098E0000000F07F00005039FFFF0F00FFFFEF7F07
:1098F00060B60B003146284601F062FA59EC108B35
:1099000010EE100A00224FF080434946FAF7C0FFDC
:1099100000287AD00B9B002B4AD0954B0022CDE932
:109920000823DFF84C924FF00008924B3B400D9318
:109930000D9A914B9A4240F0B080DDE90801A7F101
:10994000547B4BEC10ABCDE9080101F061F9DDE986
:10995000080153EC102BFAF71FFD52465B46FAF74D
:1099600065FB0B468349854A19409142824660D97E
:1099700018EE903A02F15472934204D118EE103A64
:1099800001333FF445ADDFF800B24FF0FF3A1899CC
:10999000204600F00BFE0599204600F007FE3146F8
:1099A000204600F003FE2946204600F0FFFD1AE69F
:1099B000BAF1000F1BD1CBF31303F3B96C4B0022A8
:1099C00040464946FAF75AFFD0B9404649466C4BE3
:1099D0000022FAF7E1FC8046894609F10043CDF800
:1099E00050801593DDE91423CDE908239DE7BAF1F2
:1099F000010F02D1002F3FF483AD624B00228EE7AE
:109A0000DFF87C914FF00008E7E75D4B40464946A0
:109A10000022FAF7C1FC0B9B8046894633B901F15D
:109A200000430E900F93DDE90E23DDE7CDE90E89AB
:109A3000F9E703F1547B049B002BA8D12BF00043E2
:109A40000D9A1B0D1B059A42A1D140464946FBF7D2
:109A500049F8FAF773FC02460B4640464946FAF7C6
:109A6000E3FA0B9ACBF3130343EA0A03134380464A
:109A7000894655D036A3D3E90023FAF7FFFE002824
:109A80007FF4D0AC34A3D3E9002340464946FAF72B
:109A900013FF00283FF47BAFC4E4049B33B30D9B5A
:109AA000B3F1D46F22D82EA3D3E900234046494610
:109AB000FAF7EEFEA0B149464046FAF71DFF01282D
:109AC00038BF0120FAF7EEFB0B9B8046894623BB8B
:109AD00001F1004310901193DDE91023CDE9082333
