:02000002B0004C
:1040000000400B00B6E60B00000006000C000502A5
:0840100004018B130000000005
:04401800D0D50B00F4
:1040200081F0004102E000BF83F0004330B54FEA69
:1040300041044FEA430594EA050F08BF90EA020FD6
:104040001FBF54EA000C55EA020C7FEA645C7FEA69
:10405000655C00F0E2804FEA5454D4EB5555B8BF8C
:104060006D420CDD2C4480EA020281EA030382EAFD
:10407000000083EA010180EA020281EA0303362D8F
:1040800088BF30BD11F0004F4FEA01314FF4801C62
:104090004CEA113102D0404261EB410113F0004F74
:1040A0004FEA03334CEA133302D0524263EB43032B
:1040B00094EA050F00F0A780A4F10104D5F1200EC9
:1040C0000DDB02FA0EFC22FA05F2801841F1000124
:1040D00003FA0EF2801843FA05F359410EE0A5F1F8
:1040E00020050EF1200E012A03FA0EFC28BF4CF029
:1040F000020C43FA05F3C01851EBE37101F00045DF
:1041000007D54FF0000EDCF1000C7EEB00006EEBEB
:104110000101B1F5801F1BD3B1F5001F0CD3490875
:104120005FEA30004FEA3C0C04F101044FEA4452CC
:1041300012F5800F80F09A80BCF1004F08BF5FEA53
:10414000500C50F1000041EB045141EA050130BD33
:104150005FEA4C0C404141EB0101013C28BFB1F545
:10416000801FE9D291F0000F04BF01460020B1FA90
:1041700081F308BF2033A3F10B03B3F120020CDA63
:104180000C3208DD02F1140CC2F10C0201FA0CF041
:1041900021FA02F10CE002F11402D8BFC2F1200CA6
:1041A00001FA02F120FA0CFCDCBF41EA0C0190405C
:1041B000E41AA2BF01EB0451294330BD6FEA0404A5
:1041C0001F3C1CDA0C340EDC04F11404C4F1200290
:1041D00020FA04F001FA02F340EA030021FA04F3A2
:1041E00045EA030130BDC4F10C04C4F1200220FAF9
:1041F00002F001FA04F340EA0300294630BD21FA37
:1042000004F0294630BD94F0000F83F4801306BFFC
:1042100081F480110134013D4EE77FEA645C18BFF0
:104220007FEA655C29D094EA050F08BF90EA020F87
:1042300005D054EA000C04BF1946104630BD91EA7F
:10424000030F1EBF0021002030BD5FEA545C05D182
:104250004000494128BF41F0004130BD14F58004C1
:104260003CBF01F5801130BD01F0004545F0FE4135
:1042700041F470014FF0000030BD7FEA645C1ABF6A
:10428000194610467FEA655C1CBF0B46024650EAA1
:10429000013406BF52EA033591EA030F41F40021CD
:1042A00030BD00BF90F0000F04BF0021704730B553
:1042B0004FF4806404F132044FF000054FF0000128
:1042C00050E700BF90F0000F04BF0021704730B5E9
:1042D0004FF4806404F1320410F0004548BF4042BE
:1042E0004FF000013EE700BF42004FEAE2014FEA13
:1042F00031014FEA02701FBF12F07F4393F07F4FEE
:1043000081F06051704732F07F4208BF704793F0F0
:104310007F4F04BF41F40021704730B54FF4607403
:1043200001F0004521F000411CE700BF50EA010206
:1043300008BF704730B54FF000050AE050EA0102AF
:1043400008BF704730B511F0004502D5404261EB1F
:1043500041014FF4806404F132045FEA915C3FF460
:10436000D8AE4FF003025FEADC0C18BF03325FEAFD
:10437000DC0C18BF033202EBDC02C2F1200300FAAE
:1043800003FC20FA02F001FA03FE40EA0E0021FAD3
:1043900002F11444BDE600BF70B54FF0FF0C4CF4C1
:1043A000E06C1CEA11541DBF1CEA135594EA0C0F73
:1043B00095EA0C0F00F0DEF82C4481EA030621EAAE
:1043C0004C5123EA4C5350EA013518BF52EA0335E9
:1043D00041F4801143F4801338D0A0FB02CE4FF09B
:1043E0000005E1FB02E506F00042E0FB03E54FF0CB
:1043F0000006E1FB03569CF0000F18BF4EF0010EC3
:10440000A4F1FF04B6F5007F64F5407404D25FEABE
:104410004E0E6D4146EB060642EAC62141EA555171
:104420004FEAC52040EA5E504FEACE2EB4F1FD0CB3
:1044300088BFBCF5E06F1ED8BEF1004F08BF5FEA31
:10444000500E50F1000041EB045170BD06F00046E3
:1044500046EA010140EA020081EA0301B4EB5C0490
:10446000C2BFD4EB0C0541EA045170BD41F4801188
:104470004FF0000E013C00F3AB8014F1360FDEBFAD
:10448000002001F0004170BDC4F10004203C35DA89
:104490000C341BDC04F11404C4F1200500FA05F30C
:1044A00020FA04F001FA05F240EA020001F00042AD
:1044B00021F0004110EBD37021FA04F642EB060123
:1044C0005EEA430E08BF20EAD37070BDC4F10C044D
:1044D000C4F1200500FA04F320FA05F001FA04F211
:1044E00040EA020001F0004110EBD37041F10001FD
:1044F0005EEA430E08BF20EAD37070BDC4F1200508
:1045000000FA05F24EEA020E20FA04F301FA05F26F
:1045100043EA020321FA04F001F0004121FA04F217
:1045200020EA020000EBD3705EEA430E08BF20EAE7
:10453000D37070BD94F0000F0FD101F00046400021
:1045400041EB010111F4801F08BF013CF7D041EAA3
:10455000060195F0000F18BF704703F000465200A7
:1045600043EB030313F4801F08BF013DF7D043EA78
:104570000603704794EA0C0F0CEA135518BF95EA2E
:104580000C0F0CD050EA410618BF52EA4306D1D1B5
:1045900081EA030101F000414FF0000070BD50EAD4
:1045A000410606BF1046194652EA430619D094EA5E
:1045B0000C0F02D150EA013613D195EA0C0F05D148
:1045C00052EA03361CBF104619460AD181EA03019C
:1045D00001F0004141F0FE4141F470014FF0000054
:1045E00070BD41F0FE4141F4780170BD70B54FF0EF
:1045F000FF0C4CF4E06C1CEA11541DBF1CEA13556F
:1046000094EA0C0F95EA0C0F00F0A7F8A4EB050450
:1046100081EA030E52EA03354FEA013100F0888047
:104620004FEA03334FF0805545EA131343EA126310
:104630004FEA022245EA111545EA10654FEA0026C5
:104640000EF000419D4208BF964244F1FD0404F57E
:10465000407402D25B084FEA3202B61A65EB0305DA
:104660005B084FEA32024FF480104FF4002CB6EB97
:10467000020E75EB030E22BFB61A754640EA0C0017
:104680005B084FEA3202B6EB020E75EB030E22BF57
:10469000B61A754640EA5C005B084FEA3202B6EB98
:1046A000020E75EB030E22BFB61A754640EA9C0057
:1046B0005B084FEA3202B6EB020E75EB030E22BF27
:1046C000B61A754640EADC0055EA060E18D04FEAE5
:1046D000051545EA16754FEA06164FEAC30343EA85
:1046E00052734FEAC2025FEA1C1CC0D111F4801F52
:1046F0000BD141EA00014FF000004FF0004CB6E74B
:1047000011F4801F04BF01430020B4F1FD0C88BFE9
:10471000BCF5E06F3FF6AFAEB5EB030C04BFB6EBF4
:10472000020C5FEA500C50F1000041EB045170BDE7
:104730000EF0004E4EEA113114EB5C04C2BFD4EB14
:104740000C0541EA045170BD41F480114FF0000E98
:10475000013C90E645EA060E8DE60CEA135594EA14
:104760000C0F08BF95EA0C0F3FF43BAF94EA0C0F17
:104770000AD150EA01347FF434AF95EA0C0F7FF48C
:1047800025AF104619462CE795EA0C0F06D152EAE0
:1047900003353FF4FDAE1046194622E750EA4106C4
:1047A00018BF52EA43067FF4C5AE50EA41047FF4D5
:1047B0000DAF52EA43057FF4EBAE12E74FF0FF3C3A
:1047C00006E000BF4FF0010C02E000BF4FF0010C0B
:1047D0004DF804CD4FEA410C7FEA6C5C4FEA430C84
:1047E00018BF7FEA6C5C1BD001B050EA410C0CBFD3
:1047F00052EA430C91EA030F02BF90EA020F002035
:10480000704710F1000F91EA030F58BF994208BF9B
:1048100090422CBFD8176FEAE37040F00100704758
:104820004FEA410C7FEA6C5C02D150EA013C07D1AF
:104830004FEA430C7FEA6C5CD6D152EA033CD3D0FA
:104840005DF8040B704700BF8446104662468C46F4
:104850001946634600E000BF01B5FFF7B7FF002827
:1048600048BF10F1000F01BD4DF808EDFFF7F4FF50
:104870000CBF012000205DF808FB00BF4DF808EDDB
:10488000FFF7EAFF34BF012000205DF808FB00BFFE
:104890004DF808EDFFF7E0FF94BF012000205DF820
:1048A00008FB00BF4DF808EDFFF7CEFF94BF0120D5
:1048B00000205DF808FB00BF4DF808EDFFF7C4FFCE
:1048C00034BF012000205DF808FB00BF4FEA410C17
:1048D0007FEA6C5C02D150EA013C0AD14FEA430CFA
:1048E0007FEA6C5C02D152EA033C02D14FF0000037
:1048F00070474FF0010070474FEA410212F5001275
:1049000015D211D56FF47873B3EB625212D94FEA16
:10491000C12343F0004343EA505311F0004F23FA00
:1049200002F018BF404270474FF00000704750EA55
:10493000013005D111F0004008BF6FF00040704712
:104940004FF00000704700BF4A0011D212F500126C
:1049500011D20DD56FF47873B3EB62520ED44FEAD7
:10496000C12343F0004343EA505323FA02F0704757
:104970004FF00000704750EA013002D14FF0FF3095
:1049800070474FF0000070474FEA4102B2F1E04338
:1049900024BFB3F5001CDCF1FE5C0DD901F0004C26
:1049A0004FEAC0024CEA5070B2F1004F40EB830076
:1049B00008BF20F00100704711F0804F21D113F1A2
:1049C0003872BCBF01F00040704741F480114FEADB
:1049D0005252C2F11802C2F1200C10FA0CF320FA64
:1049E00002F018BF40F001004FEAC1234FEAD32381
:1049F00003FA0CFC40EA0C0023FA02F34FEA4303EB
:104A0000CCE77FEA625307D150EA01331EBF4FF073
:104A1000FE4040F44000704701F0004040F0FE408E
:104A200040F40000704700BF07EE900AF5EEC07A30
:104A3000F1EE10FA01D400F00BB8F1EE677A08B588
:104A400017EE900A00F004F8404261EB410108BD06
:104A5000D0B5FFF749FC0C4B002206460F46FFF786
:104A60009BFCFFF771FF0446FFF71CFC074B00227D
:104A7000FFF792FC02460B4630463946FFF7D4FA60
:104A8000FFF762FF2146D0BD0000F03D0000F0417D
:104A9000D0B50C4B002206460F46FFF77DFCFFF712
:104AA00053FF0446FFF7FEFB074B0022FFF774FCA1
:104AB00002460B4630463946FFF7B6FAFFF744FF89
:104AC0002146D0BD0000F03D0000F0410000000094
:104AD00001F0FF01102A2BDB10F0070F08D010F8AF
:104AE000013B013A8B422DD010F0070F42B3F6D1B3
:104AF000F0B441EA012141EA014122F007047FF0CC
:104B000000070023F0E80256083C85EA010586EA22
:104B1000010685FA47F5A3FA87F586FA47F6A5FA5E
:104B200087F68EB9EED1F0BC01F0FF0102F007026A
:104B300032B110F8013B013A83EA010313B1F8D115
:104B40000020704701387047002D06BF35460338F6
:104B5000073815F0010F07D1013015F4807F02BF2F
:104B6000013015F4C03F0130F0BC0138704700BF80
:104B700010F8012B11F8013B012A28BF9A42F7D007
:104B8000D01A7047034613F8012B002AFBD1181ADC
:104B90000138704738B50022002304460D46FFF760
:104BA0006DFE28B920462946BDE83840FFF770BFA2
:104BB000204605F10041FFF76BFF404261EB4101E8
:104BC00038BD00BF09480A49884208B505D0094ADE
:104BD000824202D0121A06F05DFC0748074A002103
:104BE000121A06F07FFC014808BD00BFE8E103206F
:104BF00078E40B00F8E30320F8E30320F4E7032054
:104C000070B5074E074C05F0CFF8A41BA40800258B
:104C1000AC4200D170BD56F8043B98470135F7E728
:104C200024E40B0054E40B0001F002B908B501F0D4
:104C30001FF8BDE8084005F06FB802F0E7BF02F0CA
:104C4000E5BF02F0EBBF02F0E9BF0078B0FA80F0F8
:104C500040097047012303707047002210B50446D5
:104C60001046A15CA1F13003092B0BD8A0F1300351
:104C7000032A01EB030002F1010218BF0001042A1C
:104C8000EFD110BDA1F14103052B02D8A0F13703EC
:104C9000EEE7A1F16103052B02D8A0F15703E7E786
:104CA0000020EEE72DE9F84F0A688B6880465D1C0E
:104CB000D018D35C222B8A46154440F0DD804C6826
:104CC0002F460023B91AA14280F0D68039782229D4
:104CD0000ED1C3F10103381ADAF8102018449047B6
:104CE0008346002800F0C880DFF8989104460FE062
:104CF0005C2905D10137B91A8C4240F2BD800133DD
:104D00000137DFE72B785C2B12D004F8013B01352B
:104D1000BD42F7D3002323701023C8E9033BDAF820
:104D20000030FB1A0133CAF808300120BDE8F88FC3
:104D30007A1B002A0DDD6B78752B0AD86D2B12D8E3
:104D4000622B2BD026D82F2B29D05C2B27D0222BBF
:104D500025D0DAF8143058469847DAF80000281AB7
:104D6000CAF808008BE06E3B072BF2D801A151F87E
:104D700023F000BFA94D0B00534D0B00534D0B000A
:104D8000534D0B00AD4D0B00534D0B00B14D0B00BF
:104D9000B54D0B00662BDCD10C2300E0082304F892
:104DA000013B02231D44B3E70A23F8E70D23F6E78E
:104DB0000923F4E7052ACCDDA81CFFF74EFFA0F578
:104DC0005C43B3F5806F0646C3D3A0F55843B3F5F3
:104DD000806F2DD2AB1DFB1A052BBADDAB795C2B96
:104DE000B7D1EB79752BB4D105F10800FFF735FF8A
:104DF000A0F55C43B3F5806FABD209EA8626C0F319
:104E00000900304300F580360C234FF0F00C0420ED
:104E100000F1FF3E54FA8EFEA645F2B224D10128DD
:104E200014BF4CEA020202F07F0222700444B9E788
:104E30007F280AD9B0F5006F0CD3B0F5803F0ED3B0
:104E4000B0F5881F85D20623DFE706234FF0000C5C
:104E50000120DDE706234FF0C00C0220D8E706232F
:104E60004FF0E00C0320D3E702F03F0262F07F0135
:104E70000EF80119B609CFE7002D7FF46EAF0020C0
:104E800054E700BF00FC0F0010B540B1016871B1DC
:104E900042688368934206D2CC5C202C00D910BDB6
:104EA00001338360F5E7FAD1013A8260F7E70846FB
:104EB000F5E710B1806800B101B9704700680139A9
:104EC000F9E738B5044638B1006828B1A568284428
:104ED000FFF758FE2844A06038BD70B50446B8B14D
:104EE000056865B1436813B18268934210D90029FF
:104EF0000EDBA2684E1C1644B34202D3154428466A
:104F000070BD236923B9B6F1804F03D3002E0FDAA9
:104F10000025F4E77600236A6BB1284631469847AE
:104F20000546B0B9E36920689847C4E90055E6E74B
:104F30006FF00046EFE7A369304698470546002822
:104F4000F0D0A2682168013206F0A4FAE369206873
:104F50009847A368C4E900561D44D0E7F8B50D464C
:104F60000446002834D0002931D08468FAB9194E9B
:104F700074B3236AC3B1AB4221D005F1FF3C013BBE
:104F80001CF8011F8A5D02F00302012A13F8012FA9
:104F9000B05C00F003000F4608BF01F120070128B4
:104FA00008BF203297420FD02468E1E724687CB123
:104FB000216A21B12846FFF7DBFD0028F6D1236ADC
:104FC000002B08BF002403E00029D9D1F7E70C46E5
:104FD0002046F8BD07E00B0061B160B1836813B9EA
:104FE0008160012070471A461B68002BFBD11160BD
:104FF0004A60F6E7084670472DE9F84F064608462E
:1050000011B90020BDE8F88F36B3444F31464FF058
:10501000000A01240D4611F8013B3BBBAD1B554472
:10502000E91CFFF75AFF07460028EAD04FF0220B91
:10503000441C05F1010905F1020880F800B0BAF13D
:10504000000F29D12A463146204606F023FA07F8F8
:1050500009B007F808A007E00321FFF73EFF00288A
:10506000CFD02F4906F074FA0120CBE7222B0BD8C2
:10507000072B0CD9A3F10802D2B204FA02F23A4289
:1050800005D00AF1010AC5E75C2BC3D1F9E71F2B54
:1050900098BF0AF1050ABDE7DFF888B0013E5C253C
:1050A0004FF0740A16F8013F2BB9222207F80920A5
:1050B00007F80830D8E71F2B07D9222B05D05C2B27
:1050C00003D023702046441CECE7204600F8015B27
:1050D00032780D2A0AD8072A1AD9A2F10803052B1B
:1050E00016D8DFE803F009120E150C10222A01D0A1
:1050F0005C2A0DD16270E6E762236370E3E7662302
:10510000FBE76E23F9E77223F7E784F801A0DAE7FB
:10511000594602F093FD601DD5E700BF370000043B
:10512000E4D50B00E7D50B0037B5054680B1FFF796
:1051300029FD084B421C1B68019210469847044603
:1051400018B1019A294606F0A5F9204603B030BDF2
:105150000446FAE7E8E10320F8B50D461446074691
:10516000F0B1E9B1E2B193B1D66846F40076E368F4
:105170009B0504D4206A10B10A4B5B6898472562EE
:10518000E66021463846BDE8F840FFF725BF0846EF
:10519000FFF7CAFF054618B1E66826F40076E6E791
:1051A0000020F8BDE8E103202DE9F0430C468DB066
:1051B000064608B900255DE00029FBD0057B102DCF
:1051C00000F0C18018DC6B1E072BF3D8072BF1D839
:1051D00001A252F823F000BF63520B007D520B0076
:1051E000B5510B004D520B00B5510B00B5510B00E2
:1051F000B5510B008D520B00402D00F0D380802D57
:1052000000F08D80202DD5D1866801212046FFF742
:1052100064FE0028CED05B230370A3680133A36033
:10522000E3680133E3602C274FF00008002E40F0C4
:10523000908002212046FFF750FE0028BAD05D235F
:1052400003704670E368013BE36008E005212046F7
:10525000FFF743FE0028ADD0A14906F079F90125FA
:1052600008E006212046FFF738FE0028A2D09D491D
:1052700006F06EF928460DB0BDE8F0830521204602
:10528000FFF72BFE002895D09749E6E7D0E906679F
:105290000022002330463946FFF77EF80022002323
:1052A000FFF7E2FAB0B98E4905A806F051F90425D6
:1052B000691C2046FFF711FE00283FF47BAF024631
:1052C00005AB4619964225D100234355A0682844D2
:1052D000A060C4E7854932463B4605A802F0AEFC13
:1052E0008349054602AA05A802F0B8FC012806D1A8
:1052F000DDE9022330463946FFF7B6FA30B97D4979
:1053000032463B4605A802F099FC0546192D3FF6AA
:1053100051AFCDE713F8011B11700132D2E70069DC
:1053200000283FF447AFFFF72DFC421C11462046F2
:105330000192FFF7D2FD00283FF43CAF019A31699A
:1053400006F0A8F88BE700690DB0BDE8F043FFF761
:1053500053BE21463046FFF727FF00283FF42AAF0F
:105360002046FFF7AEFD3368BBB16369002B14BF65
:105370004FF002094FF0010909F101012046FFF742
:10538000ACFD00283FF416AF077063693BB9431CBE
:1053900083F80080A3684B44A360366846E7831C0B
:1053A0004570F5E74B698568002B14BF022701277C
:1053B000791C2046FFF791FD00283FF4FBAE7B23CC
:1053C0000370E26863690132E2600BB10A23437043
:1053D000A3683B44A36009263A27636995B9002B6B
:1053E00070D0E16801312046FFF777FD00283FF4D7
:1053F000E1AE6369002B6FD103467D221A70002253
:105400005A701FE773B1E1682046FFF766FD002878
:105410003FF4D0AE0246E168131A99424FD8A36810
:105420000B44A360286A2146FFF7E6FD00283FF4FD
:10543000C1AE2046FFF745FD6369002B14BF4FF056
:1054400002084FF0010841462046FFF746FD0028BC
:105450003FF4B0AE0770636903B14670A36843447C
:10546000A36021462846FFF79FFE00283FF4A2AE26
:105470002046FFF726FD2B686269B3F1000818BFCC
:105480004FF00108002A18BF08F1010808F10101D6
:105490002046FFF722FD00283FF48CAE2B6813B1A5
:1054A0002C2300F8013B636913B10A2300F8013B88
:1054B00000230370A3684344A3602D688DE702F8BE
:1054C000016BA8E702218EE703F8015BE268191A75
:1054D000013A9142F8D390E703460925F6E700BF69
:1054E000EDD50B00A5DA0B00F2D50B00F7D50B00BC
:1054F000FED50B0002D60B0070B5234D8AB00E46C8
:1055000024220021044601A805F0ECFF2B684FF48B
:10551000807098474FF4807203460190029295E89C
:10552000070006960AAE06E907007BB101A92046EE
:10553000FFF73AFE50B101A8FFF7C3FCAE6803992C
:105540005EB101980131B0470446D0B9019CC4B1A5
:1055500020466B689847002413E02B68481C984746
:1055600004460028F2D0039A029B019901329A4224
:1055700028BF1A4605F08EFF039BE65401986B681E
:10558000984720460AB070BDE8E1032010B50346F5
:1055900028209847044618B12822002105F0A2FFD0
:1055A000204610BD70B5104D044604B970BDE368C7
:1055B0002668D90503D4A06868B9206988B9E3686A
:1055C0009B0503D4206A08B16B68984720466B6836
:1055D00098473446E9E7FFF7E5FFE368DA05ECD5DD
:1055E000EDE76B689847EAE7E8E103200000000078
:1055F0002DE9F047064692B00C4609B9002023E099
:105600000F68002FFAD08D68D1F8048005F10409E5
:10561000C1450BD890490422781905F0BEFF28B97E
:105620000423F360A3680433A36082E06B1D9845F4
:105630000DD38A490522781905F0AFFF38B901204A
:10564000F060A2680532A26012B0BDE8F087C145E3
:105650000CD883490422781905F09FFF30B9022342
:105660000120F3607061A2680432ECE74545C5D2C1
:105670007B5D222B07EB050006D12146304612B098
:10568000BDE8F047FFF70EBB2D2B03D0A3F130028E
:10569000092A63D8002302AA0193A8EB050517463F
:1056A0004FF02E0E10F8011B392910D82A291BD9CA
:1056B000A1F12B0CBCF10E0F16D8DFE80CF00D1584
:1056C0000D3C150D0D0D0D0D0D0D0D0D0D0001F009
:1056D000DF0CBCF1450F07D1117001333F2B02F1F4
:1056E000010201D0AB42DDD112AA1344002503F818
:1056F000405C01A9384606F095FDDDF804A0BA45E6
:1057000059EC108B3FF47AAF86ED060B50A3D3E92A
:10571000002310EE100A4946FFF7C4F870B16FF08D
:10572000004373610823F360AAEB070AA768574494
:10573000A760012088E782F800E0CEE7494B00220D
:1057400040464946FFF7A4F810B14FF00043E8E7A0
:1057500040464946FFF7D0F87061E3E75B2B50D134
:10576000E368B3F57A7FBFF449AF0133E3607B5D53
:105770005B2B7FF443AF0135A5602046FFF784FB28
:10578000D4E9012393425DD22268D25C5D2A09D11B
:105790000027E368013BE3602023C6E90273A368A6
:1057A000013341E7013B0025A3602F462069FFF745
:1057B000EDFEA8460546002800F09B80FFB1C8F822
:1057C0000000C0F80480A3680133A3602046FFF7FF
:1057D0005BFB21462846FFF70BFF002800F08C807A
:1057E0002046FFF751FBD4E90123934280F08480E7
:1057F0002268D35C2C2BD9D05D2B7DD1C9E707461D
:10580000E1E77B2B7FF4FAAEE368B3F57A7FBFF470
:10581000F5AE0133E3607B5D7B2B7FF4EFAE0135AA
:10582000A5602046FFF730FBD4E90123934209D25B
:105830002268D25C7D2A17D10027E368013BE36030
:105840004023AAE7013BA360D8E600BFAFF3008086
:105850000000C0FFFFFFDF41EDD50B00A5DA0B0014
:10586000F2D50B000000E0C10025013BA3602F46EC
:10587000A8462069FFF78AFEA9460546002838D0C9
:10588000AFB3C9F80000C0F80490A3680133A36067
:105890002046FFF7F9FA21462846FFF703FA58B3E6
:1058A0002046FFF7F1FA2B692B62C5F81080D4E986
:1058B0000123934220D22268D25C3A2A1CD10133C0
:1058C000A3602046FFF7E0FA21462846FFF790FE46
:1058D00090B12046FFF7D8FAD4E9012393420BD2C6
:1058E0002268D35C2C2BC4D07D2B05D1A5E70746BD
:1058F000CBE7002F3FF482AE3846FFF753FE7DE63C
:105900002DE9F043304F89B005460E469046002100
:105910001C2201A84FF0000905F0E4FDC7E9009939
:10592000002D48D028460195FFF72CF9274B013070
:10593000029093E8070008AB03E90700FFF726FE93
:10594000044668B3019870B1039B5BB9029B042BBA
:1059500006D91F49032205F020FE08B9032303934B
:1059600001A800E04846FFF78FFA01462046FFF7FE
:105970003FFE90B1B8F1000F04D1F6B9204609B04E
:10598000BDE8F08301A8FFF77FFADDE90223934227
:1059900003D2019AD35C002BEFD02046FFF702FE22
:1059A000DDE902329A420DD303B1013B0EB1EA1890
:1059B0003260C7E900530024E0E7019B039A1344D7
:1059C0003360DBE71346F1E7F8E30320E8E1032067
:1059D00009D60B0000221146FFF792BF0021FFF706
:1059E0008BBD10B18368002003B970471B6801307C
:1059F000FAE7002901DBFFF75CBA002070470122BB
:105A0000FFF7ACBAFFF7E8BA10B5D0B1C2B1C9B16F
:105A10008A4213D00B6813604C68546003B15A601B
:105A2000536803B11A60836899424FF0000308BFBE
:105A30008260C1E900330846FFF7B4FD012000E0B1
:105A4000104610BD0846FCE708B5044B1868FFF780
:105A50009DFD08B10423C36008BD00BFE8E1032039
:105A600037B505460191FFF7EFFF0199024604465D
:105A700000232846FFF770FB054618B92046FFF7BC
:105A800091FD2C46204603B030BD000008B5044B04
:105A90001868FFF77BFD08B12023C36008BD00BF75
:105AA000E8E1032008B5044B1868FFF76FFD08B163
:105AB0004023C36008BD00BFE8E1032018B1007BAC
:105AC000B0FA80F04009704720B1C06810F00300C0
:105AD00018BF0120704718B1007B031F584258417E
:105AE000704720B1007BA0F108035842584170472D
:105AF00020B1007BA0F1100358425841704720B1FB
:105B0000007BA0F1200358425841704720B1007B30
:105B1000A0F140035842584170470000014B5B68B8
:105B2000184700BFE8E10320F8B506460D461F46BA
:105B30001446DAB1D1B1D3689B0503D4106A08B119
:105B4000FFF7ECFF2846FFF7EFFAE368206223F443
:105B500000733A462946E3603046FFF7FFF92246D4
:105B600001463046BDE8F840FFF74EBFF8BD0123BF
:105B7000FFF7DABF70B590B003F0A4F8022103F08C
:105B8000F2F803F09FF803F0E7F803F09BF8314ACE
:105B9000314C01460BA803F0DDFD0BA803F085F99D
:105BA00003F090F82D4A01460BA803F0D3FD0BA893
:105BB00003F07BF903F086F8294A01460BA803F0AD
:105BC000C9FD0BA803F071F903F07CF8254A0146E2
:105BD0000BA803F0BFFD0BA803F067F903A803F0BF
:105BE0009AFA214B03A8196803F0A8FA0FCC06AD66
:105BF0000FC506AD0FCD26680BAC0FC40BA82660F1
:105C000002F05EFE04460BA8DCB902F075FE0094BB
:105C1000ADF80A0002230DF10A02032103A803F0E4
:105C20006FFA03F04FF8002203A903F0EAF804F03A
:105C30007BFC0E4903F0D9FE039801F0EFFF10B092
:105C400070BD02F05BFE0023009302461023072183
:105C5000E4E700BF14E4032038E4032000E4032059
:105C600008E403201CE4032000E203200DD60B000F
:105C700010B52848C4B000F041FD10B1254800F02F
:105C8000DFFE244800F038FD68B1224904A800F086
:105C9000E1FD0499684602F0EEFB04A805F0D8F88F
:105CA000684602F09DFB1C4801F05EF908B303F062
:105CB00009F803F065F8E0B1174801F051F9174908
:105CC000024604A801F0BAFF0023FF2204A91448E9
:105CD00002F0D2FE13491448002202F02DFF1349AE
:105CE0001348002202F02DFF12491348002202F04F
:105CF00028FF124C237833B10A490B48002202F0E6
:105D00001BFF002323704FF47A7044B0BDE81040AD
:105D100003F0D6BF90E40320C0E5032031D60B008A
:105D200014E40320F0E4032000E403203DD60B003C
:105D300008E4032091D60B001CE4032010E40320A8
:105D400038B5046805467CB16368013B63605BB9A4
:105D5000236820469B689847A368013BA3601BB952
:105D600023682046DB689847284638BD10B59AB0AE
:105D700003F090FF2849024606A802F02DFC06A970
:105D80000EA802F0B8FB03F07DFF244902460AA8E2
:105D900002F022FC0AA90EA802F0FFFB044603F061
:105DA00065FF1F49024612A802F016FC12A9204600
:105DB00002F0F3FB044603F041FF1A49024616A81D
:105DC00002F00AFC16A9204602F0E7FB014602A8F1
:105DD00002F091FB16A802F003FB12A802F000FBF0
:105DE0000AA802F0FDFA0EA802F0FAFA06A802F0DC
:105DF000F7FA0D4B029A1B780C498DF8003016A863
:105E00003C2304F03DF917A8FFF79AFF02A802F01F
:105E1000E7FA1AB010BD00BFE0D60B00F1D60B00B8
:105E200003D70B0013D70B0089E4032024D70B0002
:105E300013B501F0C3FE10B901F0B8FEF9E701F0A7
:105E4000BDFEBC20FEF7F9FE044620B1124B0F2127
:105E50001A6801F0E9F8114B20461C6001F02AF99C
:105E6000B7EE000A03F040FE03F05EFE0C4801F0BE
:105E700045F8FFF77FFE0B4800F096FC0023CDE9C4
:105E80000033094909481A4601F0A8FE02B0BDE8EE
:105E90001040FFF76BBF00BF04E203208CE4032037
:105EA000C0E5032090E4032089600B0030D70B008D
:105EB00082B0F0B58FB015AD15930023C0E9003363
:105EC000064694460F460FCD04AC0FC42B682360E2
:105ED0001AAD0FCD09AC0FC42B682360209B029331
:105EE0001F9B019309AB0093304604AB62463946D1
:105EF00003F006FB30460FB0BDE8F04002B070473B
:105F00004C4B2DE9F04F00251D704B4B4B4CDFF8EF
:105F10006481DFF864B1DFF864A1DFF864914FF0C9
:105F200001021A70464B8DB01968204602F066FDDA
:105F3000444B4046196802F061FD434B58461968CE
:105F400002F05CFD414B5046196802F057FD404B92
:105F50004846196802F052FDCDE9095526460FCE94
:105F600010270DEB070CACE80F003368CCF80030BD
:105F700008F104030FCB8DE80F003A46D8F8003043
:105F800034493548DFF8FC80FFF792FFCDE9095529
:105F9000A646BEE80F000DEB070CACE80F00336817
:105FA000CCF800300BF104030FCB8DE80F00DBF8C9
:105FB00000302A483A464146FFF77AFFCDE90955B5
:105FC000A646BEE80F000DEB070CACE80F003368E7
:105FD000CCF800300AF104030FCB8DE80F00DAF89B
:105FE00000301F483A464146FFF762FF0FCC0DEBE9
:105FF000070CCDE90955ACE80F003368CCF8003048
:1060000009F104030FCB8DE80F00D9F800301548D3
:106010003A464146FFF74CFF1349144802F02BFA69
:10602000134800F003FA294601200DB0BDE8F04FF7
:1060300001F020BD88E4032089E4032038E4032034
:1060400008E203200CE20320F4E10320F8E103203E
:10605000FCE1032040D70B0014E4032000E40320FC
:1060600008E403201CE40320CCDF0B00F0E4032051
:1060700090E4032024E403204CE4032074E4032090
:1060800060E4032049D70B002DE9F04395B00C469E
:1060900004A8604902F0A0FA04A90CA802F02BFAA7
:1060A000214608A802F098FA08A90CA802F075FA8F
:1060B0005949044610A802F08FFA10A9204602F0B0
:1060C0006CFA0146684602F016FA10A802F088F948
:1060D00008A802F085F90CA802F082F904A802F0E1
:1060E0007FF94E496A4604A801F026F94B4904AAF3
:1060F00010A801F028F94A4910A802F05AFA0446FB
:1061000010A802F06DF96CB104F00EFA454903F0E5
:106110006CFC04A801F026F9684602F061F915B09C
:10612000BDE8F083404904A801F066F900286DD06D
:106130003849DFF80881DFF8F8903C4F10A802F0EA
:106140004BFA10A93A4802F0E1F910A802F048F918
:10615000354A04A908A801F0D5F92546224608A920
:106160000CA801F0EFF90CA801F027F9414602460E
:1061700010A802F031FA10A9484602F00AFA10A855
:1061800002F02EF90CA801F0EDF8224608A910A89B
:1061900001F0D8F910A801F01BF907EBC40383ED57
:1061A000000B10A801F0DEF8224608A910A801F0A3
:1061B000C9F910A801F001F9064610A801F0D2F8BB
:1061C000AE420BDD224608A910A801F0BBF910A8C9
:1061D00001F0F3F8054610A801F0C4F80134182CBA
:1061E000BCD1134C13492A4610A802F0F5F910A9A6
:1061F000204602F0CEF910A802F0F2F804F094F96B
:10620000216803F0F2FB08A801F0ACF80A4B012268
:106210001A707EE753D70B0064D70B00D0E503203C
:1062200068D70B0072D70B0024D70B0000E50320C2
:10623000F0E403209AD70B0010E4032096D70B005C
:10624000436913B183690C301847704713B50021B7
:106250000446084601F096FA0023204601A901935E
:1062600001F0A8FA019C0CB1012323710021012047
:1062700001F088FA2CB1236820469B6898470023D8
:10628000237102B010BD70B4036809685C689D6832
:106290001B681268661005EB6400E40744BFAC5944
:1062A000E35870BC184710B403685A6899681B68B3
:1062B000541001EB6200D20748BF0A595DF8044B45
:1062C00048BFD3581847012A38B5044602D10B6895
:1062D000236003E0022A03D0032A0DD0002038BD3A
:1062E0000C200D68FEF7A9FC03460028F0D095E8C5
:1062F000070083E80700EBE700680028EED00C21D8
:10630000FEF7A1FCEAE7012A38B5044602D10B6882
:10631000236003E0022A03D0032A0DD0002038BDF9
:106320000C200D68FEF789FC03460028F0D095E8A4
:10633000070083E80700EBE700680028EED00C2197
:10634000FEF781FCEAE7000013B504460846019118
:10635000FEF718FC63680199C3F17F5303F57F13BF
:1063600003F57F533F339842024602D9044804F0B4
:106370007DFC204602B0BDE8104004F083BE00BFA3
:1063800070D80B0007B5806830B10023CDE9001349
:106390001A46022101F016FA03B05DF804FB38B585
:1063A00004466CB1E068FFF7FAFF04F11400A56839
:1063B00004F04EFD20462C21FEF745FC2C46F0E76C
:1063C00038BD10B58368044613B1032201469847CF
:1063D000204610BD38B50F4B0360836804469BB15F
:1063E0006FF00041FFF7CEFFA068002101F00AFA2C
:1063F000237903F0FF0513B101F0BCF9F8E7A068B9
:10640000294601F0CFF9A56004F10C00FFF7D9FF90
:10641000204638BD94D90B0010B50446FFF7DAFFCB
:1064200020461C21FEF70FFC204610BDF0B5031DD1
:106430000025C0E90253C0E9043500F14C03C0E96E
:106440000755C0E90955C0E90B55C0E9113505717B
:10645000058380F84C5089B004461C20FEF7EDFB04
:106460000646002833D00C200695FEF7E6FB18B14F
:10647000194B8460C0E90035049004AD95E8030031
:10648000164B336000233371B36006F10C0202AF88
:1064900087E8030092E8030085E8030097E803001B
:1064A00082E803000E4A7261B26907920D4AB26136
:1064B00006930193012300930B4A33464FF47A71FC
:1064C00006F1080001F066F92846FFF77AFF20463A
:1064D000E66509B0F0BD00BF8D660B0094D90B00D6
:1064E00007630B00A7620B004D620B0070B5A0B0F4
:1064F0000C46054603F0CEFB4049024608A802F0D0
:106500006BF808A910A801F0F6FF03F0BBFB3C49AB
:1065100002460CA802F060F80CA910A802F03DF8A1
:1065200022460646374914A802F056F814A9304608
:1065300002F033F8A21C3449064618A802F04CF8C1
:1065400018A9304602F029F8044603F077FB2F49DA
:1065500002461CA802F040F81CA9204602F01DF8D3
:10656000014604A801F0C7FF1CA801F039FF18A8D4
:1065700001F036FF14A801F033FF0CA801F030FF42
:1065800010A801F02DFF08A801F02AFF204B049A63
:106590001B788DF800301F493C231CA803F070FDC8
:1065A0001D9C7CB16368013B63605BB92368204636
:1065B0009B689847A368013BA3601BB923682046EA
:1065C000DB68984703F029FB0246C3171CA803F0B9
:1065D000CBFA1C9B03931846FEF7D4FA039BAA6CD4
:1065E0000090002105F1440004F0CEFC1CA801F04D
:1065F000F7FE04A801F0F4FE20B070BDE0D60B0059
:10660000F1D60B0003D70B0085D80B0013D70B0076
:10661000CCE5032099D80B0010B5044603F026FB07
:1066200001462046BDE81040FFF760BF10B50446A4
:1066300003F01CFB01462046BDE81040FFF756BFA3
:106640001FB504460391C06D6FF00041FFF79AFE3D
:10665000E26D906840B16FF000410022CDE9001278
:10666000039B032101F0AEF8E46D00212046FFF703
:1066700089FEA06840B100236FF00042CDE90023FD
:1066800019461A4601F09EF804B010BDF8B505464B
:1066900003F0D4FAC4B20B2C01D0172C10D103F0A4
:1066A000D9FA124B124901FB00312846FFF7C8FF07
:1066B00003F0DCFA01462846BDE8F840FFF716BFB4
:1066C0000A2C0B4F0B4E0BD803F0C4FAC4F10B0489
:1066D000784306FB04012846BDE8F840FFF7B0BF49
:1066E00003F0B8FAC4F11704F2E700BF002E9302DA
:1066F000A015FFFF80EE3600007E7047407E704799
:1067000038B5002383608B6804460D462BB1022206
:106710009847EB68E360AB68A360204638BD000093
:10672000F0B591B002AD85E80600064695E8030095
:1067300005AC84E805001F460C2000230A93FEF7F1
:106740007CFA024620B194E8030082E803009760D7
:10675000124B0B9308A9124B0A930CA80892FFF74F
:10676000CFFF0E9B8BB11020FEF767FA044660B195
:106770000CA9FFF7C5FF0023CDE9003309499DF8B7
:1067800058302246304601F029FA0CA8FFF719FECE
:1067900008A8FFF716FE11B0F0BD00BF87620B001E
:1067A000C7620B00979E0B00F0B585B0002701264D
:1067B0000F4B02930397009602AD044695E806003E
:1067C00003460C48FFF7ACFF0B4B0096CDE90237B0
:1067D0000A4895E806002346FFF7A2FF2046FFF788
:1067E00025FF204605B0BDE8F040FFF74FBF00BFD2
:1067F000056D0B00D0D80B0019660B00CCD80B0030
:1068000000F1080373B5044603600D46E1B1084684
:10681000FEF7B8F90F2805EB0006019007D9002212
:1068200001A9204604F0F2FA019B2060A3602068D1
:106830003246294604F052FB019B22686360002126
:106840002046D15402B070BD014804F009FA00BFDF
:10685000A2D80B002DE9F0470B7E8CB004460E4603
:106860003BB93E4906AAFFF7CBFF20460CB0BDE876
:10687000F0878B6ADFF8F0A01D78DFF8F0800A223D
:10688000294602A801F05CFE029901AA06A8FFF7BA
:10689000B7FF02A801F0A4FDD6E90A790837A7F1ED
:1068A0000803994520D017F8083C6A1C93420FDD75
:1068B0002A46414602A801F08FFE06A80299FFF77A
:1068C00043FD02A801F08CFD17F8085C0837E6E7E5
:1068D000AB42F9D203F11602AA42E9DA1A4651464E
:1068E00002A801F079FEE8E72A461D4902A801F056
:1068F00073FE029906A8FFF727FD02A801F070FDBC
:106900000023337603F010FE164903F06EF803F00F
:106910000BFE069903F069F8069A08AD04F1080326
:10692000AA42236015D12E460CAF324603CABA42A2
:1069300018605960164603F10803F6D1079B63609F
:1069400006A80023069507938DF8203004F080FAFE
:106950008BE7089B2260A360F0E700BFD7D80B004D
:1069600001D90B000AD90B00F4D80B00E5D80B00B5
:106970002DE9F84FD0E9008993466FF07043A9EBF9
:106980000802B3EBE20F07468A464FEAE20402D15F
:10699000204804F06BF9012C224638BF0122A418CC
:1069A000A1EB080531D294B39C4228BF1C46E000FD
:1069B000FEF743F9064673191CBFDBE90001C3E982
:1069C0000001002D04DD2A464146304604F070FDEA
:1069D000A9EB0A090835B9F1000F354404DD4A4630
:1069E0005146284604F056FD4D44B8F1000F05D03D
:1069F000B9684046A1EB0801FEF725F906EBC4048F
:106A0000C7E90065BC60BDE8F88F1C46CFE72646A5
:106A1000D1E700BF1FD90B0010B50A46D0E90141EC
:106A20008C42034608D01CB192E8030084E80300BE
:106A30005A6808325A6010BD2146FFF799FFFAE7FD
:106A40002DE9F04F2DED028B437E91B004464BB9FA
:106A500003F06AFD8E4911B0BDEC028BBDE8F04F2A
:106A600002F0C3BF8B490AAA04A8FFF7C9FEE56874
:106A7000271DAF4209D0D5E9051204A804F002FB96
:106A8000284604F08BF80546F3E703F04DFD8249F4
:106A9000DFED828ADFF8088202F0A7FF059A012A5B
:106AA00028BF0122002104A804F059FA00227C49E1
:106AB00004A804F03AFBD4E90732934218BF2362DA
:106AC00000230130A363774B2364C5B204F11C0992
:106AD000002D00F0938002230B2204A90AA804F0E1
:106AE0007DFBDDF828A001F0D9F8D0F800B001F066
:106AF000D5F8002303600A2201A9504605F07CFC6A
:106B0000019B9A45064602D1674804F0ACF801F0B3
:106B1000C5F80368222B02D1634804F0AAF801F0FB
:106B2000BDF803681BB901F0B9F8C0F800B00AA8B5
:106B30008DF8086004F08CF9A5F11503142204A95E
:106B40000AA804F04BFB0A9E01F0A8F8D0F800A0B8
:106B500001F0A4F80023036001A9304605F06EFBA4
:106B6000019B9E42B0EE408A01D15048CDE701F032
:106B700095F80368222B01D14C48CEE701F08EF83E
:106B800003681BB901F08AF8C0F800A0C8EE287AA3
:106B900002AE0AA8CDED037A04F05AF93146484610
:106BA000FFF73AFF94ED0E7ADDED037A059AF4EEE5
:106BB000C77AF1EE10FAC2BFD6E9000104F134033E
:106BC000C3E9000194ED107AF4EEC77AF1EE10FA01
:106BD00042BFD6E9000104F13C03C3E90001AA4227
:106BE00028BF2A46002104A804F0B9F90022414632
:106BF00004A804F09AFA0130C5B269E794ED108A4E
:106C0000D4ED0E7A77EEC87A04F1280A17EE900ACE
:106C1000FDF76AFB1CA3D3E90023FDF7BDFB80460B
:106C200018EE100A8946FDF75FFB02460B46404608
:106C30004946FDF7FBF9D4E9075680468946AE423E
:106C40000FD06868FDF750FB02460B4640464946A8
:106C5000FDF732FE18B129465046FFF7DDFE083534
:106C6000EDE70025A0686576FFF799FB0123C4E9ED
:106C70000257C4E90475237604A804F0E9F811B0BA
:106C8000BDEC028BBDE8F08F333333333333D33F66
:106C900039D90B00CCDF0B0057D90B0000007A4428
:106CA00094D70B000000C8426AD90B006FD90B00C3
:106CB000F8B58B68164604460D1D012263B11D7C94
:106CC0003278D3E90270954288BF01221D4696BFF3
:106CD00000223B460346F1E792B1CA68AA4203D1BB
:106CE000C4E900352046F8BD284603F059FF337843
:106CF000027C9A424FF00003F2D3C4E90003F1E7AB
:106D00002846F4E72DE9F0470023437600F1040A12
:106D100091F80780876886B005469146544647B18A
:106D2000397CD7E9023241452ABF3C4617461F4607
:106D3000F5E7A24502D0237C434531D92C20FDF74D
:106D40007CFF00F11C034361A2454FF0000306469F
:106D500080F810808361037700F110023CD16B69E9
:106D60001BB129690B7C434509D3294604A8FFF7C9
:106D70009FFFDDE90441002968D0002C64D18A45D9
:106D800062D0307C0B7C98422CBF002001205346FF
:106D90000A46314603F006FF6B6901336B613446E6
:106DA0004846FDF7EFFE0090A2694B46002104F132
:106DB000140004F0E9F84846FDF7E4FEB0F5007F62
:106DC0004ED24FF480732B8303F0AEFB264906B0FE
:106DD000BDE8F04702F009BE237C0392984518D223
:106DE000EB689C4209D0204603F0DAFE037C039A4C
:106DF000434505D2C36853B9044621461C46BAE749
:106E0000294604A8FFF754FFDDE90434F5E72346DB
:106E1000F3E71BD929698C420BD0204603F0BEFE54
:106E2000037C039A4345074605D9E36853B92146D5
:106E30001F463C469FE7294604A8FFF739FFDDE9D6
:106E40000471F6E70146F4E70120A0E706F114001B
:106E500003F0FEFF30462C21FDF7F5FE26469EE7A7
:106E600006B0BDE8F08700BF74D90B00014B0022CB
:106E70001A707047CCE5032010B5044600F0D8FB2B
:106E80002368C31A642B06D9034AB2FBF3F3C4E99F
:106E900000030123237210BD80EE360010B4036896
:106EA0005A6899681B68541001EB6200D20748BF0A
:106EB0000A595DF8044B48BFD3581847012A38B522
:106EC000044602D10B68236003E0022A03D0032AA0
:106ED0000DD0002038BD0C200D68FDF7AEFE034636
:106EE0000028F0D095E8070083E80700EBE700688A
:106EF0000028EED00C21FDF7A6FEEAE730B503210D
:106F000087B00446082003F067FD00250C20049597
:106F1000FDF793FE18B10F4B8460C0E900350E4BAE
:106F200005930E4B049300230290009301224FF02F
:106F3000FF3302A9082003F04BFB049B1BB102A9FD
:106F400003220846984700F073FB00232060237259
:106F500007B030BD796E0B009D6E0B00BD6E0B004F
:106F60000023037240687047007A704710B40368CA
:106F70005A6899681B68541001EB6200D20748BF39
:106F80000A595DF8044B48BFD3581847012A38B551
:106F9000044602D10B68236003E0022A03D0032ACF
:106FA0000DD0002038BD0C200D68FDF746FE0346CD
:106FB0000028F0D095E8070083E80700EBE70068B9
:106FC0000028EED00C21FDF73EFEEAE707B5806809
:106FD0000B4630B10021CDE900210A46032100F023
:106FE000F1FB03B05DF804FBF8B504464C200D46F8
:106FF0001646FDF722FE074608B101F04FF9052DB0
:1070000038BF05252760E5673046FDF7BBFDA26860
:107010000130824228BF0246314604F10C00BDE82F
:10702000F84004F037BA000038B54023836040F2DE
:107030000125002380F84D30A0F84E5080F85230E2
:1070400040F20345094BA0F850500525C0E91553FF
:1070500040F6561C3023C0E920C30A230446C0F87A
:10706000B830FFF7C1FF204638BD00BF807EAA833D
:1070700090F84D3090F84C209A4204BF90F84E3072
:1070800080F84C30704790F84D2080F84C20034633
:10709000406893F852203AB1DB6F4EF660216FF0F2
:1070A00000425943FFF792BF6FF0004242F2107165
:1070B000F8E70000F0B5054689B01C20FDF7BDFDDE
:1070C0000446002833D000260C200696FDF7B5FDB7
:1070D00018B11A4B8560C0E90036049004AE96E8FA
:1070E0000300174B236000232371A36004F10C02FB
:1070F00002AF87E8030092E8030086E8030097E800
:10710000030082E803000F4A6261A26907920E4AF7
:10711000A2610693CDE900330C4A234642F2107176
:1071200004F1080000F036FB3046FFF74AF9284624
:107130006C6009B0BDE8F040FFF7A5BF07730B0016
:1071400094D90B008D6F0B006D6F0B004D620B001F
:1071500038B590F84C2090F84E309A42044630D121
:107160000068B4F88010036800221B6A04F18805E7
:107170009847D4F884200021284604F0B3F921462A
:107180001B2384F8883051F80C0B03687B22DB6BDF
:1071900098472068D4F8842003682946DB6898471C
:1071A000206803681B6C984700F042FA6FF00042B9
:1071B000206605216068FFF709FF94F84F3084F8D6
:1071C0004C3038BD10B504460068036800215B6C84
:1071D0009847002814DD00F02BFA2146E06551F8AD
:1071E000880BD4F8842003689B6C984794F850303F
:1071F000206884F84C3003685B6A9847012010BD12
:107200000020FCE710B590F84C2090F84F309A42DF
:10721000044612D1FFF7D6FF78B900F009FA236EC1
:1072200003F5FA73834208D2206803685B6A9847C3
:107230002046BDE81040FFF726BF10BD000000004B
:1072400010B50446C06EFDF72DF812A3D3E9002354
:10725000FDF7CCF90E4B0022FDF79EF8FDF774FB0D
:10726000D4E917329B1A00EB5300B0F57A7F29BF9F
:10727000A36E60670133A0F57A7028BFA36694F807
:10728000513028BF606784F84C3010BDAFF30080E8
:1072900000408F400000E0FFFFFFEF4190F84C10EE
:1072A00090F850209142034611D190F8892012B9EC
:1072B0001846FFF7E8BED0F8B020D0F8B41012BAE4
:1072C00009BA8266C166002AF2D0FFF7B9BF7047DB
:1072D00010B590F84C2090F851309A42044611D1E4
:1072E000012380F85230806E1844A36D0021C01A2B
:1072F00002F026FC00F09CF9A0672046BDE8104093
:10730000FFF7C1BE10BD10B50446FFF7B1FEFFF791
:107310001FFF2046FFF776FF2046FFF7BFFF2046FE
:10732000BDE81040FFF7D4BF704710B504210446F4
:10733000FDF789FC204610BD10B51146044600F04B
:107340006BF8204610BD10B51146044600F072F8E7
:10735000204610BD014B024A1A607047D0E5032059
:10736000A8D90B0010B5054B03600446406818B15E
:10737000A3680BB9FEF716F9204610BDDCD90B0047
:1073800010B50446FFF7EEFF20460C21FDF75BFC2D
:10739000204610BD38B540680C4660B1FEF71EFBB4
:1073A00005460146204602F00DFB04462846FEF73E
:1073B000B5FB204638BD0446FBE710B504464068DF
:1073C000FEF78FFB08B16368586910BD000000002C
:1073D00010B504464068FEF784FB18B1636893ED6E
:1073E000060B10BD9FED020BFBE700BFAFF3008063
:1073F000000000000000F87F13B5044640680191CA
:10740000FEF784FB30B101996068FEF7F8FA0038A6
:1074100018BF012002B010BD10B504460868FEF781
:10742000D9FA034BC4E900300023A360204610BD05
:10743000DCD90B0038B54D6804462DB918492046F3
:1074400001F019F8204638BD2846FEF737FB002822
:10745000F4D12846FEF738FB08B11249EFE7284679
:10746000FEF739FB08B11049E9E72846FEF739FB7A
:1074700008B10E49E3E72846FEF73AFB08B10C498C
:10748000DDE72846FEF73BFB08B10A49D7E7284667
:10749000FEF73CFB08B10849D1E70849CFE700BF38
:1074A00068D70B00B0D90B00EDD50B00B8D90B0095
:1074B000C0DE0B00BFD90B00C5D90B00CCD90B0027
:1074C00038B5456841600446DDB18068A0B1FEF77B
:1074D0001DFB30B16268296AA068BDE83840FEF73C
:1074E00046BBA068FEF70BFB58B16268A06829464E
:1074F000BDE83840FEF788BA2846BDE83840FEF7B8
:1075000051B838BD70B5054648680C461646FEF7BA
:10751000FDFA28B9FEF7C6FA01462046FFF7D0FF6C
:1075200060683146FEF76BFA18B960683146FEF7BD
:1075300097FA034A6368AB60C5E90020284670BD2E
:10754000DCD90B00F8B5064648680D461746FEF72D
:10755000D6FA28B9FEF79AFA01462846FFF7B0FF97
:1075600068683946FEF745FA044660B96868FEF770
:1075700038FAB84207DCFEF767FA04460146686845
:10758000FEF740FAF2E7034A6B68B360C6E90024ED
:107590003046F8BDDCD90B00034B044A1A600022C8
:1075A000C3E90122704700BFD4E50320DCD90B00FA
:1075B00008B5024B1B689B68019308BD6802030075
:1075C00008B5024B1B68DB68019308BD6802030025
:1075D00008B5024B1B689B68019308BD2C02030091
:1075E00008B5024B1B689B69019308BD2C02030080
:1075F00008B5024B1B68DB69019308BD2C02030030
:1076000008B5024B1B685B69019308BD6C0203005F
:1076100008B5024B1B685B68019308BD18020300A4
:1076200008B5024B1B68DB68019308BD1802030014
:1076300008B5024B1B685B69019308BD1802030083
:1076400008B5024B1B689B6D019308BD180203002F
:1076500008B5024B1B685B6E019308BD180203005E
:1076600008B5024B1B689B6E019308BD180203000E
:1076700008B5024B1B689B68019308BD78020300A4
:1076800008B5024B1B681B69019308BD7802030013
:1076900008B5024B1B681B6D019308BD78020300FF
:1076A00008B5024B1B689B6D019308BD780203006F
:1076B00008B5024B1B681B6E019308BD78020300DE
:1076C00008B5034B1B68D3F89830019308BD000040
:1076D0007802030008B5034B1B68D3F8A830019368
:1076E00008BD00007802030008B5034B1B68D3F8FF
:1076F000B430019308BD00007802030008B5034BC5
:107700001B68D3F8D830019308BD0000780203004D
:1077100008B5034B1B68D3F8DC30019308BD0000AB
:107720007802030008B5034B1B68D3F8EC300193D3
:1077300008BD00007802030008B5034B1B68D3F8AE
:10774000F030019308BD00007802030008B5034B38
:107750001B68D3F80031019308BD000078020300D4
:1077600008B5034B1B68D3F80431019308BD000032
:107770007802030008B5024B1B68DB68019308BD63
:107780004802030008B5024B1B68DB69019308BD82
:107790004802030008B5024B1B681B6A019308BD31
:1077A0004802030008B5024B1B685B6A019308BDE1
:1077B0004802030008B5024B1B689B6A019308BD91
:1077C0004802030008B5024B1B68DB6A019308BD41
:1077D0004802030008B5024B1B685B6C019308BDAF
:1077E0004802030008B5024B1B68DB6C019308BD1F
:1077F0004802030008B5024B1B685B6D019308BD8E
:107800004802030008B5024B1B681B6F019308BDBB
:107810004802030008B5024B1B685B69019308BD71
:107820006402030008B5024B1B681B6A019308BD84
:107830006402030008B5024B1B685B6A019308BD34
:107840006402030008B5024B1B689B6A019308BDE4
:107850006402030008B5024B1B68DB68019308BD96
:107860003C02030008B5024B1B681B69019308BD6D
:107870003C02030008B5024B1B685B69019308BD1D
:107880003C02030008B5024B1B689B69019308BDCD
:107890003C02030008B5024B1B68DB69019308BD7D
:1078A0003C02030008B5024B1B681B6A019308BD2C
:1078B0003C02030008B5024B1B689B6A019308BD9C
:1078C0003C02030008B5024B1B681B6C019308BD0A
:1078D0003C02030008B5024B1B681B6A019308BDFC
:1078E0002802030008B5024B1B685B6A019308BDC0
:1078F0002802030008B5024B1B689B6A019308BD70
:107900002802030008B5024B1B68DB6A019308BD1F
:107910002802030008B5024B1B681B6B019308BDCE
:107920002802030008B5024B1B685B6B019308BD7E
:107930002802030008B5024B1B681B6C019308BDAD
:107940002802030008B5024B1B685B68019308BD61
:107950003802030008B5024B1B689B69019308BD00
:107960003802030008B5024B1B68DB69019308BDB0
:107970003802030008B5024B1B68DB6A019308BD9F
:107980003802030008B5024B1B685B6B019308BD0E
:107990003802030008B5024B1B689B6B019308BDBE
:1079A0003802030008B5024B1B68DB69019308BD70
:1079B0003002030008B5024B1B681B6A019308BD27
:1079C0003002030008B5024B1B681B68019308BD19
:1079D0004C02030008B5024B1B681B69019308BDEC
:1079E0004C02030008B5024B1B685B69019308BD9C
:1079F0004C02030008B5024B1B689B69019308BD4C
:107A00004C02030008B5024B1B68DB69019308BDFB
:107A10004C02030008B5024B1B681B6A019308BDAA
:107A20004C02030008B5024B1B685B6B019308BD59
:107A30006002030008B5024B1B681B6D019308BD73
:107A40006002030008B5024B1B681B68019308BD68
:107A50002002030008B5024B1B685B68019308BD58
:107A60002002030008B5024B1B685B69019308BD47
:107A70002002030008B5024B1B68DB6A019308BDB6
:107A80002002030008B5024B1B68DB6C019308BDA4
:107A90002002030008B5024B1B685B6D019308BD13
:107AA0002002030008B5024B1B689B6D019308BDC3
:107AB0002002030008B5024B1B68DB6D019308BD73
:107AC0002002030008B5034B1B68D3F888300193EC
:107AD00008BD00002002030008B5034B1B68D3F863
:107AE0009430019308BD00002002030008B5024B4A
:107AF0001B685B68019308BD4002030008B5024B98
:107B00001B689B68019308BD4002030008B5024B47
:107B10001B68DB68019308BD4002030008B5024BF7
:107B20001B681B69019308BD4002030008B5024BA6
:107B30001B685B69019308BD4002030008B5024B56
:107B40001B689B69019308BD4002030008B5024B06
:107B50001B68DB69019308BD4002030008B5024BB6
:107B60001B681B6A019308BD4002030008B5024B65
:107B70001B681B6B019308BD4002030008B5024B54
:107B80001B685B6B019308BD4002030008B5024B04
:107B90001B681B6C019308BD4002030008B5024B33
:107BA0001B685B6C019308BD4002030008B5024BE3
:107BB0001B689B68019308BD4402030008B5024B93
:107BC0001B685B69019308BD4402030008B5024BC2
:107BD0001B681B6A019308BD4402030008B5024BF1
:107BE0001B685B6A019308BD4402030008B5024BA1
:107BF0001B681B6B019308BD4402030008B5024BD0
:107C00001B68DB6B019308BD4402030008B5024BFF
:107C10001B681B68019308BD1C02030008B5024BDA
:107C20001B685B68019308BD1C02030008B5024B8A
:107C30001B689B68019308BD1C02030008B5024B3A
:107C40001B68DB68019308BD1C02030008B5024BEA
:107C50001B681B69019308BD1C02030008B5024B99
:107C60001B685B69019308BD1C02030008B5024B49
:107C70001B685B6A019308BD1C02030008B5024B38
:107C80001B68DB6A019308BD1C02030008B5024BA8
:107C90001B681B6B019308BD1C02030008B5024B57
:107CA0001B68DB6B019308BD1C02030008B5024B87
:107CB0001B681B6C019308BD1C02030008B5024B36
:107CC0001B685B6C019308BD1C02030008B5024BE6
:107CD0001B68DB6C019308BD1C0203000022406896
:107CE0001146FFF73BBF002240681146FFF746BF31
:107CF00040680022FFF73ABF4068002281F001018E
:107D0000FFF724BF002340681A461946FFF716BF45
:107D1000002340681A461946FFF708BF0022406852
:107D20001146FFF7FBBE002240681146FFF7E6BE92
:107D3000406800220221FFF7E9BE002340681A468E
:107D4000FFF7D4BE024B03225A60024A1A60704702
:107D5000E0E50320F0D90B0010B504460846217079
:107D6000FFF720FE00236360204610BD054B022272
:107D70001A60054B054A9A600020C3E90000FFF72E
:107D800069BE00BFF4E50320E8E503200000FFFF23
:107D900010B50446FCF7F6FE01382318204683424E
:107DA00006D90278197800F8011B03F80129F6E7D3
:107DB00010BD70B50C46911E22291DD8254630B93C
:107DC000234430229D4210D205F8012BFAE7B0FB84
:107DD000F2F602FB1600C1B2092894BF30315731C8
:107DE000C9B205F8011B3046E9E7002320462B7095
:107DF000FFF7CEFF204670BD0020FCE708B5012349
:107E0000FFF7D7FF08BD10B40468246BA4465DF8E3
:107E1000044B604703689B6C1847808E7047028F45
:107E2000C08E101A70470000F0B5036889B09F6AD1
:107E30000C4B029300F1200604460FCE03AD0FC594
:107E400033682B70A38EE28EE16B0093204602AB69
:107E5000B84723680546DB6920469847284609B09D
:107E6000F0BD00BFA0DC0B0007B503688DF807105C
:107E7000DB6801220DF10701984703B05DF804FBB0
:107E800010B503681B690446984728B1E38EE26B7E
:107E9000591CE186D05C10BD4FF0FF30FBE710B5F8
:107EA00003681B690446984718B1E38EE26BD05C07
:107EB00010BD4FF0FF30FBE7704710B40346084693
:107EC000DC6BD98E1A8F0368521ADB6821445DF887
:107ED000044B1847A0F11000FFF7EFBF70B503681F
:107EE0008CB05B6A04460E461546984701231C2257
:107EF000002105A8029303F0F5FA40F61C23304652
:107F0000ADF81430FFF79EFC1122ADF816000221E7
:107F10000A20FFF73FFD0028606125DB0422009264
:107F200002AB40F6FF71FFF715FDE8B995B103907C
:107F3000ADF8100003A9E8B2FFF762FBA0B9062371
:107F40000093606903AB41F20B0240F6FF71FFF74B
:107F500001FD48B960691C2205A9FFF7F3FC18B9B7
:107F6000656401200CB070BD236820465B6A9847A9
:107F70000020F7E710B504464069002801DBFFF751
:107F8000F1FC4FF0FF3363610023E386238710BDCC
:107F900070B50546C06BEE8E68B12B6C9C1B94428D
:107FA00028BF14462246304403F074FAEB8E234473
:107FB000EB86204670BD0446F1E7D0B503681B6927
:107FC00004460F461646984790B1236820461B6921
:107FD0009847E38EE16B8642A8BF064619443246B5
:107FE000384603F057FAE38E3344E3863046D0BD7B
:107FF0004FF0FF36FAE730B587B0044601AD68466A
:1080000002F028FA0FCD04340FC42B68237007B098
:1080100030BD0000F0B59646026889B0976A0A4AFA
:1080200002921C1D8C4606460FCC03AD0FC523687B
:108030002B70BDF838300093724602AB6146304673
:10804000B84709B0F0BD00BFA0DC0B0070B5044616
:10805000054B44F8043B01F1200506460FCD0FC443
:108060002B682370304670BDA0DC0B00F0B5437860
:10807000022B8DB005460C46174604D1011D204643
:10808000FFF7B9FF22E00A2B25D11122002101A818
:1080900003F028FAAB6803B305F1080301AE05F15C
:1080A000180C18685968324603C2083363451646EF
:1080B000F7D1062301A906A807AE8DF8143002F007
:1080C00093F90FCE04340FC4336823701FB168884E
:1080D000FFF7B0FB38800DB0F0BDEB68002BDBD1B3
:1080E0004FF6FF702E69FFF79DFB8642D4D105F154
:1080F0001401C4E72DE9F04117468EB00022064670
:1081000001AB084611460192FFF75AFA041E20DB24
:10811000019B2BB35B691BB302A802F057F9019BCB
:108120000022586902A9FFF7A1FF02A802F06EF928
:10813000B0B1336803ADD3F838800B4B08930FCD43
:1081400009AC0FC42B6823703A4608A93046C047D3
:1081500004460198FFF72CFA20460EB0BDE8F081E6
:108160004FF0FF34F5E700BFA0DC0B002DE9F0472E
:10817000D0F81490B9F1000F90B005460E46904625
:108180001C463CDB00293AD04FF01C0A09AF52468E
:108190000021384603F0A6F9CDF80CA0DCB14FF46D
:1081A0007A73B4FBF3F203FB124400215C43102307
:1081B000CDE904210791009341F206026B4440F699
:1081C000FF7148460694FFF7C5FB044620B12046E0
:1081D00010B0BDE8F087082403ABCDE900736869EF
:1081E000234642463146FFF7C5FB041EEFDB05F18F
:1081F000340205F11C013846FFF738FFE7E74FF07E
:10820000FF34E4E738B5054614462B7D062B0846B7
:1082100010D140F61C231380FFF714FB08342B1DEC
:1082200024F8060C143553F8042B44F8042BAB4205
:10823000F9D138BD042BFCD14FF404731380FFF740
:1082400001FB60806868FFF7EDFA6060F1E72DE9F7
:10825000F0438BB003AF4FF01C09984604460D461F
:10826000164600214A46384603F03CF9BDF848104E
:108270003A464046FFF7C6FF9DF80D3053B1CDE9B1
:1082800000796069002332462946FFF77BFB0BB07B
:10829000BDE8F0834FF0FF30F9E7000038B5002566
:1082A0004FF47A73C0E901530B4B03F108026C33AE
:1082B00003614FF0FF330446026043611C3002F05B
:1082C00085F84FF40073C4E91035E5862587E5632A
:1082D00084F84850204638BD24DA0B0010B590F8D9
:1082E0004830044623B1C06B10B10121FCF7ABFC50
:1082F0000023E36384F848302364E386238710BDBA
:1083000070B5044616460D46FFF7E8FF0023E66306
:1083100023642EB12564206C003818BF012070BD85
:10832000002DF8D02846FCF78AFC0123E06384F88E
:1083300048300028EFD0EDE7F8B51746C26B054688
:108340000C461AB9016C09B1FFF7DAFF04340FCCFF
:1083500005F120060FC6236833700023286CAF8612
:10836000EB862B87F8BD37B5C26B04460B462AB99E
:10837000016C19B10193FFF7C3FF019BE16B002270
:10838000E286228741B1226C32B12068056B20461B
:10839000A8470028C8BF208723681B69204603B070
:1083A000BDE830401847000010B5074B03F1080244
:1083B0006C33044602600361FFF7DCFD2046FFF7E3
:1083C0008DFF204610BD00BF24DA0B0010B5044617
:1083D000FFF7EAFF20464C21FCF735FC204610BD94
:1083E00010B504460068FFF719FC204610BD10B513
:1083F0000446006808B1FFF711FC0023C4E901330B
:10840000236010BD38B504460D4600680131FFF702
:108410000DFC10B1C4E90005012038BD10B503689A
:10842000044623B143688B4201D3012010BD20468E
:10843000FFF7E8FF0028F9D0A368002BF5D12268E8
:108440001370F2E737B50D46114601920446FFF767
:10845000E5FF019A28B92046FFF7C9FF204603B07F
:1084600030BDA2602946206803F014F82268A36892
:108470000021D154F2E7002313B5C0E900330446CC
:108480008360037341B108460191FCF77BFB0199BE
:1084900002462046FFF7D6FF204602B010BD38B591
:1084A000054600680C4668B16A688B689A4207D333
:1084B000096803F04DF8A368AB600023A36038BDE2
:1084C000FFF7ACFB23682B6063686B60A368AB604D
:1084D0000023C4E90033F1E7884210B5044605D013
:1084E0000B682BB18A681946FFF7ACFF204610BD18
:1084F000FFF77DFFFAE710B500230446C0E900331B
:1085000083600373FFF7E8FF204610BD884210B573
:10851000044601D0FFF7C3FF204610BD13B5044643
:1085200059B108460191FCF72DFB019902462046FE
:10853000FFF788FF204602B010BDFFF758FFF9E7AC
:108540001FB504460023C4E90033A3602373084623
:1085500001A9FFF753FC01A92046FFF7DFFF2046E2
:1085600004B010BD70B505460E4609B9002070BDB7
:108570006AB1846814442146FFF750FF0028F5D003
:108580002868AB683146184402F0E2FFAC60012075
:10859000EDE78A680968FFF7E5BF10B58A680968E2
:1085A0000446FFF7DFFF10B92046FFF720FF204603
:1085B00010BD08B582683AB921B10878B0FA80F0E8
:1085C000400900E0012008BD006809B90078F5E71E
:1085D000FCF7CEFAF2E700000EB470B587B00BAD31
:1085E000044655F8042B01922B46052104A8039557
:1085F000FFF73CFB0B4906462046FFF73CFF3146A0
:108600002046FFF70BFF206830B1019A03952B46F7
:10861000711CFFF72BFBA060204607B0BDE870403F
:1086200003B07047CCDF0B0070477047704770474E
:10863000064B994210B500F10C0405D0084602F033
:108640003BFB002808BF0024204610BD34DC0B0093
:10865000064B994210B500F10C0405D0084602F013
:108660002BFB002808BF0024204610BD34DC0B0083
:10867000064B994210B500F10C0405D0084602F0F3
:108680001BFB002808BF0024204610BD34DC0B0073
:1086900010B568210446FCF7D6FA204610BD10B587
:1086A00028210446FCF7CFFA204610BD10B5302132
:1086B0000446FCF7C8FA204610BD6821FCF7C3BA8F
:1086C0002821FCF7C0BA3021FCF7BDBAF0B500256F
:1086D000EC1C8C420DD86E1C445D875D974205D121
:1086E0002644B14205D31D60601CF0BD0134254411
:1086F000EEE70020F9E70000024A03490A20FFF7ED
:1087000091B900BF21760B0094DA0B0030B40D460E
:1087100011461A46036809682868D3E90043A4464D
:1087200030BC6047012A38B5044602D10B6823608B
:1087300003E0022A03D0032A0DD0002038BD082010
:108740000D68FCF77AFA03460028F0D095E803009C
:1087500083E80300EBE700680028EED00821FCF76F
:1087600072FAEAE710B504465830FDF72AFE04F124
:108770004800BDE81040FFF733BEA0F13003DAB285
:10878000092A01D818467047A0F16103052B01D8CA
:1087900057387047A0F14103052B94BF37384FF08D
:1087A000FF30704710B500230370044B044618686F
:1087B000FFF718F801232370204610BD00E60320C0
:1087C00010B5037804461BB1024B1868FFF712F886
:1087D000204610BD00E6032082B0034608684968C1
:1087E0006A4603C26A4603CA18601846596002B056
:1087F000704708B582798B799A4206D1062202F039
:1088000039FEB0FA80F0400908BD0020FCE74FF0C7
:10881000FF33036083800020704708B502460021C3
:1088200001604160FFF7F3FF9171104608BD000041
:1088300010B501230361054B024603F1100153F803
:10884000044B42F8044B8B42F9D110BDBED50B004E
:1088500010B50B460446B1B1012A01F110020AD14C
:10886000014653F8040B41F8040B9342F9D101235C
:108870002361204610BD411E12F8010D01F8010FC1
:108880009A42F9D1F3E7102202F02CFEF1E738B555
:10889000044615461A46FFF7DBFFA581204638BD82
:1088A00008B5026922B98089003818BF012008BDC7
:1088B0000249102202F0DEFDF6E700BF4CDC0B009F
:1088C0000069704738B50C4614220021054602F0B5
:1088D00009FE23691BB9A3892B80284638BD0123D3
:1088E0002B7421462B4604F1100251F8040B43F877
:1088F000040B9142F9D1F0E780897047704708B5C1
:1089000002690B699A4206D1102202F0B3FDB0FA57
:1089100080F0400908BD0020FCE7000001232DE99C
:10892000F3410361344B0C460646024603F1100145
:1089300053F8040B42F8040B8B42F9D144B32421C1
:10894000204602F03EFE04284FF0000523D1ADF88A
:10895000045001AFA51C063415F8020CFFF70DFFFB
:10896000B0F1000812DB15F8010CFFF706FF002834
:108970000CDB023540EA0810A54207F8010BEBD1E9
:108980009DF8053033739DF8043073730023336111
:1089900002B0BDE8F0814FF010082421204602F01B
:1089A00010FEA84207D842460021304602B0BDE87A
:1089B000F04102F097BDB8F1000FE9D0605DFFF71C
:1089C000DCFE030615D4000108F1FF38C7B206F833
:1089D00008702421204602F0F4FD0135A84208D990
:1089E000605DFFF7CAFE40B20028A4BF384306F816
:1089F00008000135D1E700BFBED50B0013B5044612
:108A00000191FFF715FF20460199FFF787FF2046E8
:108A100002B010BD38B54FF6FF7300250446438001
:108A20000E22294605700571063002F05BFD04F147
:108A30001400FFF7FDFE04F12800FFF7F9FE0449DA
:108A400004F13C00FFF717FD6565204638BD00BF07
:108A5000CCDF0B0010B5D0E9063203EBC202934223
:108A6000184606D0046824888C4203F10803F6D126
:108A700010BD0020FCE70000F0B5064685B01F469B
:108A80000D46002950D0002A4ED004682378F42ADD
:108A900028BFF42243B32379980709D5A08903920C
:108AA0000023FEF721FE0028039A03DA05B0F0BD8B
:108AB0006FF0770034682379D90609D5012F07D0E4
:108AC000A0890023294605B0BDE8F040FEF73EBE70
:108AD0009B06EBD5022FE9D0A0890023294605B0DB
:108AE000BDE8F040FEF73CBE60884FF6FF7188425B
:108AF0001CD021794E0701D5012F04D10B0709D4D1
:108B00006FF07700D2E7A189009313462A46FEF75B
:108B1000FFFDCBE7022FF3D00023A189009313467A
:108B20002A46FEF7EBFDC1E70248BFE76FF0D10030
:108B3000BCE700BFF2FEFFFF13468A680968FFF733
:108B40009BBF37B50C460546F4212046019202F042
:108B500038FD019B02462146284603B0BDE830405F
:108B6000FFF78ABF2DE9F04100260660074628205E
:108B70000C46FCF762F8051E05F10C080FD0012326
:108B8000C5E90133084B2B604046FFF751FE0FCC7F
:108B90002E6285F8246046460FC623683360C7E915
:108BA00000853846BDE8F08104DC0B0070B5002577
:108BB000056006463020FCF740F8044688B10123E2
:108BC000C0E90133094B03604FF6FF7383810E3018
:108BD000FFF723FEC4E90655C4E90855C4E90A5560
:108BE000A57574600C343460304670BD20DC0B0019
:108BF00037B50D46044601A8FFF7D4FD2A68D2F820
:108C000002302360D2F80630636001A8FFF7D8FD78
:108C1000204603B030BD30B5054687B00C4601A8EC
:108C2000FFF7C0FD2A68236812881B889A420DD17D
:108C3000294602A8FFF7DCFF214604A8FFF7D8FF6A
:108C400004A902A8FFF7D5FD044600B9002401A835
:108C5000FFF7B6FD204607B030BD000010B5044652
:108C60006420FBF7EAFF68B10023C0E90033C0E9E4
:108C70000233C0E90433C0E906330362C362C3634D
:108C8000C364C365206020B90A4A0B490A20FEF775
:108C9000C9FE0020FEF7ECFC20B1064A07490A2075
:108CA000FEF7C0FE216806480022FEF745FD20467B
:108CB00010BD00BF21760B0094DA0B00D2DA0B0056
:108CC0006D920B0010B50A4C2378BFF35B8FDB0766
:108CD0000CD42046FBF7B9FF40B10648FFF7BEFFB2
:108CE0002046FBF7B7FF044802F0BEFB014810BD69
:108CF000F8E5032004E60320158F0B0030B5036868
:108D0000093B012B8DB004460D4611D8FFF7DAFF61
:108D1000A1880068FFF79EFE034658B92022CDE9DE
:108D200004200B4A00920B4904AA3220FEF782FE6F
:108D30000DB030BD6A6D002AFAD0D4E9032105F1E7
:108D40004C00CDE90312AC6D04AA03A9A047EFE7DC
:108D500014DB0B00ABDA0B0008B50020FEF788FC33
:108D600000EAE07008BD08460021FEF789BC19B989
:108D70000A460846FEF78CBCD1E900010022F9E75B
:108D80000368D8690028D4BF00200120704738B597
:108D9000141E4368054602DB62189A4200DD5C1A25
:108DA0002A68501801191A44521A02F081FB6A68A5
:108DB000121B6A6038BD37B50A4604460D4601AB42
:108DC000D0E90001FFF782FC024638B10199204644
:108DD000FFF7DDFF29462046FFF7EDFF03B030BD6A
:108DE00010B50C4629B90A460846BDE81040FEF702
:108DF00057BC01212046FFF7DEFFD4E90001002225
:108E0000F3E738B504461546FFF7B1FF00280ADB43
:108E100029462046FFF7E4FF002804DBBDE8384080
:108E20000020FEF745BC38BD38B5002304468360FA
:108E300008200D46FBF701FF18B12B6803606B6833
:108E40004360034BE360034B2060A360204638BDC2
:108E50000D870B0025870B000B68036013B15A6860
:108E600001325A60704710B551F8043B044640F88F
:108E7000043BFFF7F1FF23680BB9FFF73DFC2046E9
:108E800010BD10B551F8043B044640F8043BFFF711
:108E9000E3FF204610BD10B551F8043B044640F8EE
:108EA000043BFFF7D9FF204610BD10B5044604303F
:108EB000FCF746FF204610BD70B5D0E900530446CC
:108EC00005EBC306AE4204D0281DFCF739FF083578
:108ED000F8E72068FEF7A2FE204670BD70B5D0E925
:108EE0000053044605EBC306AE4204D0281DFCF730
:108EF00027FF0835F8E72068FEF790FE204670BD92
:108F000010B504462430FFF7E9FF04F11800FFF71D
:108F1000D3FF10BD70B5174B1C6854B304F1540057
:108F2000FDF74FFA04F14400FDF74BFA04F1340069
:108F3000FDF747FA04F12400FDF743FAD4E906539C
:108F400005EBC306AE4204D0281DFCF7F9FE083538
:108F5000F8E7A069FEF762FE04F10C00FFF7BEFF20
:108F60002046FFF7A9FF20466421BDE87040FBF7CB
:108F70006ABE70BD04E6032013B50023D1E90042A8
:108F8000C1E900330368009304604368426001A8AC
:108F90000193FCF7D5FE02B010BD826810B50AB986
:108FA00001F086FEBDE81040C368184738B50D1EB5
:108FB0000446006803DDFEF739FE18B938BDFEF738
:108FC0002DFE00202060A5600120F7E708B583682A
:108FD0008B4202DAFFF7EAFF08BD0120FCE72DE92A
:108FE000F0410F4641681D46194483689942044682
:108FF000904612DC266862683E44D21B31467019E6
:1090000002F056FA2A464146304602F043FA6368B7
:109010002B4463600120BDE8F081FFF7C7FF002803
:10902000E8D1F8E7F8B50D46D0E9011399420446B6
:1090300016460BDA276862687919521B481C02F041
:1090400037FA7E55636801336360F8BD0131FFF77D
:10905000ADFF0028EED1F8E70A464168FFF7E2BF0E
:109060002DE9F74304461D460F4601AB90460A46DC
:10907000D0E900019DF82890FFF728FBAE1C63683B
:109080000246B9F1000F26D128B333441B1AFF2B37
:1090900009D801992046FFF77AFE616820463144DD
:1090A000FFF794FF18B9606803B0BDE8F0836A1C4D
:1090B0000199D2B22046FFF7B5FF01993A46013136
:1090C0002046FFF7AFFF01992B464246023120466A
:1090D000FFF785FFE7E7F118FF29E4D82046FFF7FF
:1090E00075FF0028DFD0691CC9B22046FFF7B4FF26
:1090F00039462046FFF7B0FF61682B464246E6E757
:1091000030B49DF808501AB1029530BCFFF7A8BFE3
:10911000406830BC70471FB50023C0E9003383604E
:109120000622009301238DF80F2019460DF10F023E
:109130000446FFF7E5FF204604B010BD1FB50A4600
:10914000044614211046039202F03BFA0021034624
:109150000091039A09212046FFF7D2FF04B010BD09
:109160008842F8B504460D46164614D9904213D2EB
:10917000A2F10806751AA1F108072C44B74218D0CD
:109180001CB131462046FFF786FE301DFCF7D8FDA6
:10919000083E083CF2E70CD0B5420AD01CB1294683
:1091A0002046FFF778FE281DFCF7CAFD0835083475
:1091B000F2E7F8BDF7B5044646686846FFF76BFE70
:1091C000D4E901739F4212DB0137002F29DDF8003B
:1091D000FEF71CFD0546F0B1D4E9001201EBC20216
:1091E000FFF7BEFF2068FEF719FD2560A760236822
:1091F000626803EBC60603EBC202314606F10800C3
:10920000FFF7AEFF1EB169463046FFF744FE6368C4
:1092100001336360012501A8FCF792FD284603B0E5
:10922000F0BD0025DEE7F8B5D0E9004305460F465E
:1092300004EBC306A64205D039462046FFF7EBFCF7
:1092400008B114B9F8BD0834F4E7201DFCF778FD27
:10925000D5E9003204F1080103EBC2022046FFF712
:109260007FFF6B68013B6B60ECE700002DE9F0418C
:1092700005468EB003A80C46FFF794FA2E68F31E3D
:109280000D2B3CD8DFE813F00E0053003B00D1005B
:109290003B003B003B003B003B009B009B009B00D6
:1092A0009B009B0004A8FFF781FC049BAA891A80FD
:1092B0006968049808310230FFF78EFA04A906A8FD
:1092C000FFF7E9FD06A904F11800FFF773FF054653
:1092D00007A8FCF735FD20230693B5B95D4B5E4921
:1092E000009332202B4606AA0795FEF7A3FB049BAA
:1092F00029461888FEF7E4F905A8FCF721FD03A824
:10930000FFF75EFA0EB0BDE8F081544A00920023E8
:109310005149079306AA0120FEF78CFBE36A002B54
:10932000EAD004A904F12400FFF737FEE4E7A98995
:109330002046FFF78FFB06460028E0D00568D5E9F8
:1093400006324FF6FF71298003EBC2029A4203D026
:1093500053F8080B4180F9E7D5E9037307EBC3081D
:10936000B84504D0381DFCF7EBFC0837F8E70023BC
:109370002B61D5E9067307EBC308B84504D0381D47
:10938000FCF7DEFC0837F8E70023EB61AB72E36B18
:1093900023B1314604F13400FFF7FFFD0023202202
:1093A000CDE906232E4A00922B4906AA0120FEF79A
:1093B00041FB314604F11800FFF735FF9FE7A9890B
:1093C0002046FFF747FB002899D0E36C002B96D08E
:1093D00000230D2EADF8163001D0102E17D100232A
:1093E00069681A4606258DF8153004918DF8142009
:1093F0000690DDE9040109AB8DF81C60089583E84F
:109400000300236D06A904F14400984777E70F2E67
:1094100001BF2B7A696803F0010208250FBFC3F36F
:1094200040031A4619461D46DDE7A9892046FFF785
:1094300011FB014600283FF462AFE36D002B3FF4BF
:109440005EAF6B68069306AA236E04F1540098473A
:1094500055E700BF2CDB0B00ABDA0B0052DB0B0037
:109460006FDB0B0013B50B460246D0E900016C46DA
:1094700084E8030093E8030082E8030094E8030013
:1094800083E8030002B010BD38B505460C46FFF76F
:10949000E9FFAB68A268AA60A360EB68E268EA60D3
:1094A000E36038BD70B504468CB00E4601921D468F
:1094B000FFF7B0FA2671019904F13C00FFF72EF88E
:1094C00004F14C06CDB1109B029502A904A80393A8
:1094D000FFF7AAFC002308A904A80A93FFF7D4FF0A
:1094E000314608A8FFF7D0FF08A8FCF76AFF04A8D8
:1094F000FCF767FF20460CB070BD0695EAE7000058
:109500002DE9F04F87B01D46DDE9104380468B46BC
:109510009246129903930022682002910492FBF76D
:109520008CFB061E06F10C0918D001223746C6E94D
:1095300001220299154A47F8202B039B00915A46B5
:1095400051464846FFF7AEFF0FCD0FC72B683B6073
:109550000FCC06F134050FC523682B6004A94046E3
:10956000CDE90496FFF708FD05A8FCF7E9FBD8F85C
:1095700000303BB9064A07490A2007B0BDE8F04F62
:10958000FEF750BA07B0BDE8F08F00BFE8DB0B0074
:1095900021760B0094DA0B008842F8B504460D469C
:1095A000164614D9904213D2A2F10806751AA1F1F9
:1095B00008072C44B74218D01CB131462046FFF7AB
:1095C00060FC301DFCF7BCFB083E083CF2E70CD009
:1095D000B5420AD01CB129462046FFF752FC281D8F
:1095E000FCF7AEFB08350834F2E7F8BD70B50E1E87
:1095F000054611DDF000FEF709FB044658B1D5E938
:10960000001201EBC202FFF7C7FF2868FEF706FB56
:109610002C60AE60012070BD0024F6E773B50446EF
:1096200045686846FFF72DFCD4E90113994210DA2A
:109630002368626803EBC50503EBC202294605F106
:109640000800FFF7A9FF8DB9636801336360012645
:1096500006E001312046FFF7C9FF06460028E7D1A2
:1096600001A8FCF76DFB304602B070BD6946284684
:10967000FFF707FCE8E78842F8B504460D461646B2
:1096800014D9904213D2A2F10806751AA1F1080765
:109690002C44B74218D01CB131462046FFF7E3FBFB
:1096A000301DFCF74DFB083E083CF2E70CD0B542FC
:1096B0000AD01CB129462046FFF7D5FB281DFCF730
:1096C0003FFB08350834F2E7F8BD70B50E1E0546BD
:1096D00011DDF000FEF79AFA044658B1D5E9001200
:1096E00001EBC202FFF7C7FF2868FEF797FA2C606C
:1096F000AE60012070BD0024F6E773B504464568EE
:109700006846FFF7B0FBD4E90113994210DA2368E9
:10971000626803EBC50503EBC202294605F10800A8
:10972000FFF7A9FF8DB9636801336360012606E086
:1097300001312046FFF7C9FF06460028E7D101A8FE
:10974000FCF7FEFA304602B070BD69462846FFF7C6
:109750008AFBE8E72DE9F04F1746A1B080460AA83A
:109760000E46FFF71FF83C68237953B93946404647
:10977000FFF779FB0AA8FFF723F8404621B0BDE8C0
:10978000F08F3368D3E9035305EBC303039304F16C
:10979000280A04F1140B039B9D4221D0D5F80090B8
:1097A000584609F11401FFF7AAF8B8B109F12801E8
:1097B0005046FFF7A4F888B12368D9F80020534039
:1097C00033F47F430AD12022CDE915235E4A00926B
:1097D00015AA5E493220FEF72DF9C7E70835DAE70A
:1097E0005046FFF75DF860B95949012215A815AD3B
:1097F000FFF72EF80FCDD446ACE80F002B68CCF85D
:1098000000303368D3E9005305EBC30B5D45A9462F
:1098100051466ED055F8080BFFF771F80028F5D0C7
:1098200004F1140A5046FFF73BF888B9494B484900
:109830001A88013292B21A8015A8012315ADFFF7DC
:1098400026F80FCDD446ACE80F002B68CCF80030DA
:10985000414B15932822002116A801F043FE5146E2
:1098600004A8FFF72FF804AB18AA0DF1200C186814
:109870005968154603C5083363452A46F7D1186869
:10988000286023798DF85830D9F800309B8AADF8DC
:109890007430E36B1793314B0022A11D15A8CDE95D
:1098A0001E34FDF73FFF00287FF460AF01232370D3
:1098B000346839460C340DA8FFF7D5FA20460DA9B7
:1098C000FFF71BFF04460EA8FCF73AFA002C7FF4C2
:1098D0004DAF2023CDE90D34214B00930DAA234633
:1098E00077E739464046FFF7BEFA0CA8FCF728FA9E
:1098F00040E70BA8FFF736F9514615A8FEF7E2FF3F
:109900000B9A0023143215A90120FDF7E3FE00286D
:10991000E7D135680BA90DA8FFF7B3FA28460DA9C2
:10992000FFF77CFE05460EA8FCF70AFA002DD8D0FA
:1099300032685368126803F10053013B0CA802EB34
:10994000C309FCF7FDF96BE78EDB0B00ABDA0B000C
:109950003CDC0B00FCE5032003002C00FD8C0B001D
:10996000B9DB0B00024800230360FDF733BF00BFE3
:1099700000E60320F8B506460D468F180024BD42C8
:109980000CD0336815F8011B9B6830469847031EBE
:1099900001DB1C44F3E7002C08BF1C462046F8BD41
:1099A00013B50446084659B10191FBF7EBF823685B
:1099B0000199DB680246204602B0BDE81040184716
:1099C00002B010BD08B5FFF7EBFF08BD03689B6848
:1099D000184738B50D210546FFF7F8FF0A21044660
:1099E0002846FFF7F3FF204438BD38B50546FFF79A
:1099F000D7FF04462846FFF7ECFF204438BD30B5BA
:109A00008BB00023012A8DF8243098BF0A2209ACBC
:109A10000D46B1FBF2F101FB125303F0FF03092BDA
:109A200094BF30333733DBB2AA4204F8013DEFD99B
:109A30002146FFF7B5FF0BB030BD0000014B024AD5
:109A40001A60704708E603205CDC0B002DE9F0414A
:109A5000154ADFF86080D2E90063801943EB010109
:109A6000124BD3E90067D8E90023861941EB0707B9
:109A7000BB4208BFB2428CB013D003A96846CDE9FF
:109A80000067FEF723F9089B094D03F26C7303ACE2
:109A900008930FCC0FC50FCC0FC5C8E9006723682A
:109AA0002B600CB0BDE8F08140E6032038E60320CF
:109AB00010E6032048E6032008B50020FEF796F8DC
:109AC00028B1FEF77BF880F00100C0B208BD01208C
:109AD000FCE7000008B5FFF7B9FF024B1869013039
