:02000002B0004C
:1040000000400B0072C30B00000006000C0005020C
:0840100004018B130000000005
:04401800A0B40B0045
:1040200081F0004102E000BF83F0004330B54FEA69
:1040300041044FEA430594EA050F08BF90EA020FD6
:104040001FBF54EA000C55EA020C7FEA645C7FEA69
:10405000655C00F0E2804FEA5454D4EB5555B8BF8C
:104060006D420CDD2C4480EA020281EA030382EAFD
:10407000000083EA010180EA020281EA0303362D8F
:1040800088BF30BD11F0004F4FEA01314FF4801C62
:104090004CEA113102D0404261EB410113F0004F74
:1040A0004FEA03334CEA133302D0524263EB43032B
:1040B00094EA050F00F0A780A4F10104D5F1200EC9
:1040C0000DDB02FA0EFC22FA05F2801841F1000124
:1040D00003FA0EF2801843FA05F359410EE0A5F1F8
:1040E00020050EF1200E012A03FA0EFC28BF4CF029
:1040F000020C43FA05F3C01851EBE37101F00045DF
:1041000007D54FF0000EDCF1000C7EEB00006EEBEB
:104110000101B1F5801F1BD3B1F5001F0CD3490875
:104120005FEA30004FEA3C0C04F101044FEA4452CC
:1041300012F5800F80F09A80BCF1004F08BF5FEA53
:10414000500C50F1000041EB045141EA050130BD33
:104150005FEA4C0C404141EB0101013C28BFB1F545
:10416000801FE9D291F0000F04BF01460020B1FA90
:1041700081F308BF2033A3F10B03B3F120020CDA63
:104180000C3208DD02F1140CC2F10C0201FA0CF041
:1041900021FA02F10CE002F11402D8BFC2F1200CA6
:1041A00001FA02F120FA0CFCDCBF41EA0C0190405C
:1041B000E41AA2BF01EB0451294330BD6FEA0404A5
:1041C0001F3C1CDA0C340EDC04F11404C4F1200290
:1041D00020FA04F001FA02F340EA030021FA04F3A2
:1041E00045EA030130BDC4F10C04C4F1200220FAF9
:1041F00002F001FA04F340EA0300294630BD21FA37
:1042000004F0294630BD94F0000F83F4801306BFFC
:1042100081F480110134013D4EE77FEA645C18BFF0
:104220007FEA655C29D094EA050F08BF90EA020F87
:1042300005D054EA000C04BF1946104630BD91EA7F
:10424000030F1EBF0021002030BD5FEA545C05D182
:104250004000494128BF41F0004130BD14F58004C1
:104260003CBF01F5801130BD01F0004545F0FE4135
:1042700041F470014FF0000030BD7FEA645C1ABF6A
:10428000194610467FEA655C1CBF0B46024650EAA1
:10429000013406BF52EA033591EA030F41F40021CD
:1042A00030BD00BF90F0000F04BF0021704730B553
:1042B0004FF4806404F132044FF000054FF0000128
:1042C00050E700BF90F0000F04BF0021704730B5E9
:1042D0004FF4806404F1320410F0004548BF4042BE
:1042E0004FF000013EE700BF42004FEAE2014FEA13
:1042F00031014FEA02701FBF12F07F4393F07F4FEE
:1043000081F06051704732F07F4208BF704793F0F0
:104310007F4F04BF41F40021704730B54FF4607403
:1043200001F0004521F000411CE700BF50EA010206
:1043300008BF704730B54FF000050AE050EA0102AF
:1043400008BF704730B511F0004502D5404261EB1F
:1043500041014FF4806404F132045FEA915C3FF460
:10436000D8AE4FF003025FEADC0C18BF03325FEAFD
:10437000DC0C18BF033202EBDC02C2F1200300FAAE
:1043800003FC20FA02F001FA03FE40EA0E0021FAD3
:1043900002F11444BDE600BF70B54FF0FF0C4CF4C1
:1043A000E06C1CEA11541DBF1CEA135594EA0C0F73
:1043B00095EA0C0F00F0DEF82C4481EA030621EAAE
:1043C0004C5123EA4C5350EA013518BF52EA0335E9
:1043D00041F4801143F4801338D0A0FB02CE4FF09B
:1043E0000005E1FB02E506F00042E0FB03E54FF0CB
:1043F0000006E1FB03569CF0000F18BF4EF0010EC3
:10440000A4F1FF04B6F5007F64F5407404D25FEABE
:104410004E0E6D4146EB060642EAC62141EA555171
:104420004FEAC52040EA5E504FEACE2EB4F1FD0CB3
:1044300088BFBCF5E06F1ED8BEF1004F08BF5FEA31
:10444000500E50F1000041EB045170BD06F00046E3
:1044500046EA010140EA020081EA0301B4EB5C0490
:10446000C2BFD4EB0C0541EA045170BD41F4801188
:104470004FF0000E013C00F3AB8014F1360FDEBFAD
:10448000002001F0004170BDC4F10004203C35DA89
:104490000C341BDC04F11404C4F1200500FA05F30C
:1044A00020FA04F001FA05F240EA020001F00042AD
:1044B00021F0004110EBD37021FA04F642EB060123
:1044C0005EEA430E08BF20EAD37070BDC4F10C044D
:1044D000C4F1200500FA04F320FA05F001FA04F211
:1044E00040EA020001F0004110EBD37041F10001FD
:1044F0005EEA430E08BF20EAD37070BDC4F1200508
:1045000000FA05F24EEA020E20FA04F301FA05F26F
:1045100043EA020321FA04F001F0004121FA04F217
:1045200020EA020000EBD3705EEA430E08BF20EAE7
:10453000D37070BD94F0000F0FD101F00046400021
:1045400041EB010111F4801F08BF013CF7D041EAA3
:10455000060195F0000F18BF704703F000465200A7
:1045600043EB030313F4801F08BF013DF7D043EA78
:104570000603704794EA0C0F0CEA135518BF95EA2E
:104580000C0F0CD050EA410618BF52EA4306D1D1B5
:1045900081EA030101F000414FF0000070BD50EAD4
:1045A000410606BF1046194652EA430619D094EA5E
:1045B0000C0F02D150EA013613D195EA0C0F05D148
:1045C00052EA03361CBF104619460AD181EA03019C
:1045D00001F0004141F0FE4141F470014FF0000054
:1045E00070BD41F0FE4141F4780170BD70B54FF0EF
:1045F000FF0C4CF4E06C1CEA11541DBF1CEA13556F
:1046000094EA0C0F95EA0C0F00F0A7F8A4EB050450
:1046100081EA030E52EA03354FEA013100F0888047
:104620004FEA03334FF0805545EA131343EA126310
:104630004FEA022245EA111545EA10654FEA0026C5
:104640000EF000419D4208BF964244F1FD0404F57E
:10465000407402D25B084FEA3202B61A65EB0305DA
:104660005B084FEA32024FF480104FF4002CB6EB97
:10467000020E75EB030E22BFB61A754640EA0C0017
:104680005B084FEA3202B6EB020E75EB030E22BF57
:10469000B61A754640EA5C005B084FEA3202B6EB98
:1046A000020E75EB030E22BFB61A754640EA9C0057
:1046B0005B084FEA3202B6EB020E75EB030E22BF27
:1046C000B61A754640EADC0055EA060E18D04FEAE5
:1046D000051545EA16754FEA06164FEAC30343EA85
:1046E00052734FEAC2025FEA1C1CC0D111F4801F52
:1046F0000BD141EA00014FF000004FF0004CB6E74B
:1047000011F4801F04BF01430020B4F1FD0C88BFE9
:10471000BCF5E06F3FF6AFAEB5EB030C04BFB6EBF4
:10472000020C5FEA500C50F1000041EB045170BDE7
:104730000EF0004E4EEA113114EB5C04C2BFD4EB14
:104740000C0541EA045170BD41F480114FF0000E98
:10475000013C90E645EA060E8DE60CEA135594EA14
:104760000C0F08BF95EA0C0F3FF43BAF94EA0C0F17
:104770000AD150EA01347FF434AF95EA0C0F7FF48C
:1047800025AF104619462CE795EA0C0F06D152EAE0
:1047900003353FF4FDAE1046194622E750EA4106C4
:1047A00018BF52EA43067FF4C5AE50EA41047FF4D5
:1047B0000DAF52EA43057FF4EBAE12E74FF0FF3C3A
:1047C00006E000BF4FF0010C02E000BF4FF0010C0B
:1047D0004DF804CD4FEA410C7FEA6C5C4FEA430C84
:1047E00018BF7FEA6C5C1BD001B050EA410C0CBFD3
:1047F00052EA430C91EA030F02BF90EA020F002035
:10480000704710F1000F91EA030F58BF994208BF9B
:1048100090422CBFD8176FEAE37040F00100704758
:104820004FEA410C7FEA6C5C02D150EA013C07D1AF
:104830004FEA430C7FEA6C5CD6D152EA033CD3D0FA
:104840005DF8040B704700BF8446104662468C46F4
:104850001946634600E000BF01B5FFF7B7FF002827
:1048600048BF10F1000F01BD4DF808EDFFF7F4FF50
:104870000CBF012000205DF808FB00BF4DF808EDDB
:10488000FFF7EAFF34BF012000205DF808FB00BFFE
:104890004DF808EDFFF7E0FF94BF012000205DF820
:1048A00008FB00BF4DF808EDFFF7CEFF94BF0120D5
:1048B00000205DF808FB00BF4DF808EDFFF7C4FFCE
:1048C00034BF012000205DF808FB00BF4FEA410C17
:1048D0007FEA6C5C02D150EA013C0AD14FEA430CFA
:1048E0007FEA6C5C02D152EA033C02D14FF0000037
:1048F00070474FF0010070474A0011D212F50012C4
:1049000011D20DD56FF47873B3EB62520ED44FEA27
:10491000C12343F0004343EA505323FA02F07047A7
:104920004FF00000704750EA013002D14FF0FF30E5
:1049300070474FF0000070474FEA4102B2F1E04388
:1049400024BFB3F5001CDCF1FE5C0DD901F0004C76
:104950004FEAC0024CEA5070B2F1004F40EB8300C6
:1049600008BF20F00100704711F0804F21D113F1F2
:104970003872BCBF01F00040704741F480114FEA2B
:104980005252C2F11802C2F1200C10FA0CF320FAB4
:1049900002F018BF40F001004FEAC1234FEAD323D1
:1049A00003FA0CFC40EA0C0023FA02F34FEA43033B
:1049B000CCE77FEA625307D150EA01331EBF4FF0C4
:1049C000FE4040F44000704701F0004040F0FE40DF
:1049D00040F40000704700BFD0B50C4B00220646E3
:1049E0000F46FFF7D9FCFFF787FF0446FFF75AFC95
:1049F000074B0022FFF7D0FC02460B4630463946F3
:104A0000FFF712FBFFF778FF2146D0BD0000F03D15
:104A10000000F04100000000000000000000000065
:104A200001F0FF01102A2BDB10F0070F08D010F85F
:104A3000013B013A8B422DD010F0070F42B3F6D163
:104A4000F0B441EA012141EA014122F007047FF07C
:104A500000070023F0E80256083C85EA010586EAD3
:104A6000010685FA47F5A3FA87F586FA47F6A5FA0F
:104A700087F68EB9EED1F0BC01F0FF0102F007021B
:104A800032B110F8013B013A83EA010313B1F8D1C6
:104A90000020704701387047002D06BF35460338A7
:104AA000073815F0010F07D1013015F4807F02BFE0
:104AB000013015F4C03F0130F0BC0138704700BF31
:104AC00010F8012B11F8013B012A28BF9A42F7D0B8
:104AD000D01A7047034613F8012B002AFBD1181A8D
:104AE0000138704738B50022002304460D46FFF711
:104AF000C5FE28B920462946BDE83840FFF76CBFFF
:104B0000204605F10041FFF767FF404261EB41019C
:104B100038BD00BF09480A49884208B505D0094A8E
:104B2000824202D0121A04F029FC0748074A0021E9
:104B3000121A04F04BFC014808BD00BFF0E203204C
:104B400050C10B00E4E40320E8E40320F4E7032071
:104B500070B5074E074C03F0B1F8A41BA40800255C
:104B6000AC4200D170BD56F8043B98470135F7E7D9
:104B700004C10B002CC10B0000F096B808B500F082
:104B8000ABF8BDE8084003F051B801F041BB01F0BB
:104B90003FBB01F045BB01F043BB0078B0FA80F0A9
:104BA00040097047012303707047000070B590B052
:104BB00002F056F8022102F0A4F802F051F802F0D7
:104BC00099F802F04DF8314A314C01460BA802F039
:104BD0008FFD0BA802F037F902F042F82D4A01468A
:104BE0000BA802F085FD0BA802F02DF902F038F8B1
:104BF000294A01460BA802F07BFD0BA802F023F91D
:104C000002F02EF8254A01460BA802F071FD0BA810
:104C100002F019F903A802F04CFA214B03A8196815
:104C200002F05AFA0FCC06AD0FC506AD0FCD2668BF
:104C30000BAC0FC40BA8266001F014FE04460BA8B1
:104C4000DCB901F02BFE0094ADF80A0002230DF14F
:104C50000A02032103A802F021FA02F001F800225F
:104C600003A902F09CF803F0D3FB0E4902F087FE83
:104C7000039801F0D5FA10B070BD01F011FE0023C9
:104C80000093024610230721E4E700BFF8E4032065
:104C90001CE50320E8E40320F0E4032000E5032002
:104CA000FCE20320B4B40B0008B501F089FA10B996
:104CB00001F07EFAF9E701F083FA054800F0A2FF5F
:104CC000FFF774FFBDE80840024800F0F1BB00BFE9
:104CD000D0E5032070E5032000B51E48C5B000F004
:104CE00091FB10B11B4800F02FFD1A4800F088FB23
:104CF00068B1184904A800F031FC0499684601F035
:104D0000C7FB04A804F018F8684601F076FB1248C7
:104D100000F0AEFFB8B101F0A3FF01F0FFFF90B1CA
:104D20000D4800F0A1FF0D49024604A801F088FAE1
:104D3000FF2204A90A48002301F070FE09490A482D
:104D4000002201F0CBFE4FF47A7045B05DF804EB21
:104D500002F040BF70E50320D0E50320D8B40B007B
:104D6000F8E40320DBB40B0000E5032038B5046849
:104D700005467CB16368013B63605BB923682046EC
:104D80009B689847A368013BA3601BB92368204632
:104D9000DB689847284638BD82B0F0B58FB015ADB6
:104DA00015930023C0E90033064694460F460FCD05
:104DB00004AC0FC42B6823601AAD0FCD09AC0FC42F
:104DC0002B682360209B02931F9B019309AB0093E8
:104DD000304604AB6246394602F060FB30460FB005
:104DE000BDE8F04002B070472DE9F04F444B454C10
:104DF000DFF84491444FDFF844B1DFF844A10025C7
:104E00001D70424B8DB01968204601F0C9FD404B22
:104E10004846196801F0C4FD3E4B3846196801F058
:104E2000BFFD3D4B5846196801F0BAFD3B4B50465B
:104E3000196801F0B5FDCDE9095526460FCE4FF0B2
:104E400010080DEB080CACE80F003368CCF800300C
:104E500009F104030FCB8DE80F004246D9F800306A
:104E60002F493048DFF8DC90FFF796FFCDE9095570
:104E7000A646BEE80F000DEB080CACE80F00336847
:104E8000CCF800303B1D0FCB8DE80F0042463B684D
:104E900025484946FFF780FFCDE90955A446BCE8FF
:104EA0000F000DEB08070FC733683B600BF10403DD
:104EB0000FCB8DE80F00DBF800301C484246494616
:104EC000FFF76AFF0FCC0DEB0807CDE909550FC7B7
:104ED00033683B600AF104030FCB8DE80F004946AD
:104EE000DAF8003012484246FFF756FF114800F04A
:104EF00021F9294601200DB0BDE8F04F01F0C4B8FA
:104F00006CE503201CE5032030E5032000E30320CB
:104F100004E30320F0E20320F4E20320F8E203209C
:104F2000EDB40B00F8E40320E8E40320F0E40320F0
:104F300000E5032070E5032008E5032058E5032081
:104F400044E50320F6B40B00436913B183690C30C8
:104F50001847704713B500210446084600F064FF67
:104F60000023204601A9019300F076FF019C0CB1BB
:104F7000012323710021012000F056FF2CB123688A
:104F800020469B6898470023237102B010BD70B47F
:104F9000036809685C689D681B681268661005EB09
:104FA0006400E40744BFAC59E35870BC184710B420
:104FB00003685A6899681B68541001EB6200D207B5
:104FC00048BF0A595DF8044B48BFD3581847012A17
:104FD00038B5044602D10B68236003E0022A03D0EF
:104FE000032A0DD0002038BD0C200D68FFF7CDFD41
:104FF00003460028F0D095E8070083E80700EBE7B8
:1050000000680028EED00C21FFF7C5FDEAE7012A71
:1050100038B5044602D10B68236003E0022A03D0AE
:10502000032A0DD0002038BD0C200D68FFF7ADFD20
:1050300003460028F0D095E8070083E80700EBE777
:1050400000680028EED00C21FFF7A5FDEAE700007C
:1050500013B5044608460191FFF73CFD63680199CA
:10506000C3F17F5303F57F1303F57F533F3398421A
:10507000024602D9044803F06DFD204602B0BDE8A7
:10508000104003F073BF00BFC1B50B0007B58068C7
:1050900030B10023CDE900131A46022100F0E4FEEE
:1050A00003B05DF804FB38B504466CB1E068FFF767
:1050B000FAFF04F11400A56803F03EFE20462C21FF
:1050C000FFF769FD2C46F0E738BD10B5836804464C
:1050D00013B1032201469847204610BD38B50F4B47
:1050E0000360836804469BB16FF00041FFF7CEFF79
:1050F000A068002100F0D8FE237903F0FF0513B16A
:1051000000F08AFEF8E7A068294600F09DFEA56041
:1051100004F10C00FFF7D9FF204638BD28B70B007B
:1051200010B50446FFF7DAFF20461C21FFF733FDD8
:10513000204610BDF0B5031D0025C0E90253C0E9AB
:10514000043500F14C03C0E90755C0E90955C0E931
:105150000B55C0E911350571058380F84C5089B0B5
:1051600004461C20FFF711FD0646002833D00C2012
:105170000695FFF70AFD18B1194B8460C0E90035A8
:10518000049004AD95E80300164B3360002333719F
:10519000B36006F10C0202AF87E8030092E8030057
:1051A00085E8030097E8030082E803000E4A726175
:1051B000B26907920D4AB2610693019301230093ED
:1051C0000B4A33464FF47A7106F1080000F034FEC2
:1051D0002846FFF77AFF2046E66509B0F0BD00BF1C
:1051E00095530B0028B70B000F500B00AF4F0B006F
:1051F000554F0B0070B5A0B00C46054602F0D4FC2C
:105200004049024608A801F0B9F908A910A801F020
:1052100062F902F0C1FC3C4902460CA801F0AEF96B
:105220000CA910A801F09DF922460646374914A89A
:1052300001F0A4F914A9304601F093F9A21C3449F5
:10524000064618A801F09AF918A9304601F089F924
:10525000044602F07DFC2F4902461CA801F08EF99D
:105260001CA9204601F07DF9014604A801F033F99C
:105270001CA801F0C2F818A801F0BFF814A801F0AA
:10528000BCF80CA801F0B9F810A801F0B6F808A80D
:1052900001F0B3F8204B049A1B788DF800301F49B9
:1052A0003C231CA802F076FE1D9C7CB16368013B88
:1052B00063605BB9236820469B689847A368013BFD
:1052C000A3601BB923682046DB68984702F02FFCD7
:1052D0000246C3171CA802F0D1FB1C9B039318467F
:1052E000FFF7F8FB039BAA6C0090002105F1440036
:1052F00003F0BEFD1CA801F080F804A801F07DF8C1
:1053000020B070BDD6B50B00E7B50B00F9B50B00AA
:1053100009B60B001DB60B00DCE503202EB60B0012
:1053200010B5044602F02CFC01462046BDE81040B2
:10533000FFF760BF10B5044602F022FC014620468C
:10534000BDE81040FFF756BF1FB504460391C06D7E
:105350006FF00041FFF79AFEE26D906840B16FF088
:1053600000410022CDE90012039B032100F07CFDE7
:10537000E46D00212046FFF789FEA06840B10023BC
:105380006FF00042CDE9002319461A4600F06CFD8B
:1053900004B010BDF8B5054602F0DAFBC4B20B2C20
:1053A00001D0172C10D102F0DFFB124B124901FB88
:1053B00000312846FFF7C8FF02F0E2FB014628460D
:1053C000BDE8F840FFF716BF0A2C0B4F0B4E0BD869
:1053D00002F0CAFBC4F10B04784306FB0401284623
:1053E000BDE8F840FFF7B0BF02F0BEFBC4F1170400
:1053F000F2E700BF002E9302A015FFFF80EE3600FB
:10540000007E7047407E704738B5002383608B680C
:1054100004460D462BB102229847EB68E360AB6867
:10542000A360204638BD0000F0B591B002AD85E81C
:105430000600064695E8030005AC84E805001F4613
:105440000C2000230A93FFF7A0FB024620B194E84A
:10545000030082E803009760124B0B9308A9124BDC
:105460000A930CA80892FFF7CFFF0E9B8BB1102078
:10547000FFF78BFB044660B10CA9FFF7C5FF0023C3
:10548000CDE9003309499DF858302246304600F0F6
:10549000A7FE0CA8FFF719FE08A8FFF716FE11B02B
:1054A000F0BD00BF8F4F0B00CF4F0B00AB7D0B004B
:1054B000F0B585B0002701260F4B029303970096A5
:1054C00002AD044695E8060003460C48FFF7ACFF22
:1054D0000B4B0096CDE902370A4895E806002346B3
:1054E000FFF7A2FF2046FFF725FF204605B0BDE8E5
:1054F000F040FFF74FBF00BF0D5A0B0065B60B0021
:1055000021530B0061B60B0000F1080373B504468C
:1055100003600D46E1B10846FFF7DCFA0F2805EB02
:105520000006019007D9002201A9204603F0E2FB02
:10553000019B2060A36020683246294603F042FCAC
:10554000019B2268636000212046D15402B070BDE7
:10555000014803F0F9FA00BF37B60B002DE9F04718
:105560000B7E8CB004460E463BB93E4906AAFFF7B7
:10557000CBFF20460CB0BDE8F0878B6ADFF8F0A0C7
:105580001D78DFF8F0800A22294602A800F0C0FF4B
:10559000029901AA06A8FFF7B7FF02A800F02DFFA5
:1055A000D6E90A790837A7F10803994520D017F8FA
:1055B000083C6A1C93420FDD2A46414602A800F0CF
:1055C000DDFF06A80299FFF743FD02A800F015FFD2
:1055D00017F8085C0837E6E7AB42F9D203F1160288
:1055E000AA42E9DA1A46514602A800F0C7FFE8E7E6
:1055F0002A461D4902A800F0C1FF029906A8FFF73C
:1056000027FD02A800F0F9FE0023337602F000FF28
:10561000164902F0B4F902F0FBFE069902F0AFF968
:10562000069A08AD04F10803AA42236015D12E465C
:105630000CAF324603CABA4218605960164603F1ED
:105640000803F6D1079B636006A80023069507931D
:105650008DF8203003F070FB8BE7089B2260A3607D
:10566000F0E700BF6CB60B0096B60B009FB60B00C0
:1056700089B60B007AB60B002DE9F84FD0E9008906
:1056800093466FF07043A9EB0802B3EBE20F0746B5
:105690008A464FEAE20402D1204803F05BFA012C6B
:1056A000224638BF0122A418A1EB080531D294B3D9
:1056B0009C4228BF1C46E000FFF767FA06467319B4
:1056C0001CBFDBE90001C3E90001002D04DD2A460F
:1056D0004146304603F060FEA9EB0A090835B9F1EE
:1056E000000F354404DD4A465146284603F046FE85
:1056F0004D44B8F1000F05D0B9684046A1EB080150
:10570000FFF749FA06EBC404C7E90065BC60BDE8D1
:10571000F88F1C46CFE72646D1E700BFB4B60B0092
:1057200010B50A46D0E901418C42034608D01CB1AD
:1057300092E8030084E803005A6808325A6010BDFA
:105740002146FFF799FFFAE72DE9F04F2DED028B87
:10575000437E91B004464BB902F05AFE8E4911B017
:10576000BDEC028BBDE8F04F02F009B98B490AAAE3
:1057700004A8FFF7C9FEE568271DAF4209D0D5E9A7
:10578000051204A803F0F2FB284603F07BF9054656
:10579000F3E702F03DFE8249DFED828ADFF80882FE
:1057A00002F0EDF8059A012A28BF0122002104A881
:1057B00003F049FB00227C4904A803F02AFCD4E949
:1057C0000732934218BF236200230130A363774B53
:1057D0002364C5B204F11C09002D00F0938002235C
:1057E0000B2204A90AA803F06DFCDDF828A000F044
:1057F0004FFDD0F800B000F04BFD002303600A22FB
:1058000001A9504604F060FD019B9A45064602D16D
:10581000674803F09CF900F03BFD0368222B02D19E
:10582000634803F09AF900F033FD03681BB900F0F8
:105830002FFDC0F800B00AA88DF8086003F07CFACC
:10584000A5F11503142204A90AA803F03BFC0A9E43
:1058500000F01EFDD0F800A000F01AFD0023036048
:1058600001A9304604F052FC019B9E42B0EE408AF2
:1058700001D15048CDE700F00BFD0368222B01D188
:105880004C48CEE700F004FD03681BB900F000FDB2
:10589000C0F800A0C8EE287A02AE0AA8CDED037ABF
:1058A00003F04AFA31464846FFF73AFF94ED0E7A84
:1058B000DDED037A059AF4EEC77AF1EE10FAC2BF75
:1058C000D6E9000104F13403C3E9000194ED107A34
:1058D000F4EEC77AF1EE10FA42BFD6E9000104F106
:1058E0003C03C3E90001AA4228BF2A46002104A8BC
:1058F00003F0A9FA0022414604A803F08AFB013014
:10590000C5B269E794ED108AD4ED0E7A77EEC87AC5
:1059100004F1280A17EE900AFEF7E6FC1CA3D3E96F
:105920000023FEF739FD804618EE100A8946FEF77F
:10593000DBFC02460B4640464946FEF777FBD4E9BE
:10594000075680468946AE420FD06868FEF7CCFC09
:1059500002460B4640464946FEF7AEFF18B12946BF
:105960005046FFF7DDFE0835EDE70025A0686576B7
:10597000FFF799FB0123C4E90257C4E904752376B4
:1059800004A803F0D9F911B0BDEC028BBDE8F08F8B
:10599000333333333333D33FCEB60B00A8BC0B00C5
:1059A000ECB60B0000007A4406B80B000000C842B9
:1059B000FFB60B0004B70B00F8B58B68164604461B
:1059C0000D1D012263B11D7C3278D3E9027095422E
:1059D00088BF01221D4696BF00223B460346F1E7E1
:1059E00092B1CA68AA4203D1C4E900352046F8BD85
:1059F000284603F049F83378027C9A424FF00003BE
:105A0000F2D3C4E90003F1E72846F4E72DE9F047B3
:105A10000023437600F1040A91F80780876886B076
:105A200005469146544647B1397CD7E90232414593
:105A30002ABF3C4617461F46F5E7A24502D0237C05
:105A4000434531D92C20FFF7A0F800F11C03436136
:105A5000A2454FF00003064680F81080836103776B
:105A600000F110023CD16B691BB129690B7C4345E5
:105A700009D3294604A8FFF79FFFDDE90441002967
:105A800068D0002C64D18A4562D0307C0B7C98426F
:105A90002CBF0020012053460A46314602F0F6FF93
:105AA0006B6901336B6134464846FFF713F8009089
:105AB000A2694B46002104F1140003F0D9F94846CD
:105AC000FFF708F8B0F5007F4ED24FF480732B83B8
:105AD00002F09EFC264906B0BDE8F04701F04FBF3A
:105AE000237C0392984518D2EB689C4209D020464B
:105AF00002F0CAFF037C039A434505D2C36853B939
:105B0000044621461C46BAE7294604A8FFF754FF7D
:105B1000DDE90434F5E72346F3E71BD929698C4214
:105B20000BD0204602F0AEFF037C039A43450746A4
:105B300005D9E36853B921461F463C469FE72946ED
:105B400004A8FFF739FFDDE90471F6E70146F4E741
:105B50000120A0E706F1140003F0EEF830462C21F6
:105B6000FFF719F826469EE706B0BDE8F08700BFAC
:105B700009B70B00014B00221A707047DCE50320C7
:105B800010B5044600F0AEF82368C31A642B06D99A
:105B9000034AB2FBF3F3C4E900030123237210BDEF
:105BA00080EE360010B403685A6899681B68541078
:105BB00001EB6200D20748BF0A595DF8044B48BFA9
:105BC000D3581847012A38B5044602D10B68236020
:105BD00003E0022A03D0032A0DD0002038BD0C2098
:105BE0000D68FEF7D2FF03460028F0D095E80700C5
:105BF00083E80700EBE700680028EED00C21FEF7F1
:105C0000CAFFEAE730B5032187B00446082002F056
:105C100057FE00250C200495FEF7B7FF18B10F4B77
:105C20008460C0E900350E4B05930E4B04930023AE
:105C30000290009301224FF0FF3302A9082002F0E6
:105C40003BFC049B1BB102A903220846984700F0C5
:105C500049F800232060237207B030BD815B0B0040
:105C6000A55B0B00C55B0B00002303724068704707
:105C7000007A704708B5024B1B689B68019308BD0A
:105C80006802030008B5024B1B68DB68019308BD7E
:105C90006802030008B5024B1B689B68019308BDAE
:105CA0002C02030008B5024B1B689B69019308BDD9
:105CB0002C02030008B5024B1B68DB69019308BD89
:105CC0002C02030008B5024B1B685B68019308BDFA
:105CD0001802030008B5024B1B68DB68019308BD7E
:105CE0001802030008B5024B1B685B69019308BDED
:105CF0001802030008B5024B1B689B6D019308BD99
:105D00001802030008B5024B1B685B6E019308BDC7
:105D10001802030008B5024B1B689B68019308BD7D
:105D20007802030008B5024B1B681B69019308BD8C
:105D30007802030008B5024B1B681B6D019308BD78
:105D40007802030008B5024B1B689B6D019308BDE8
:105D50007802030008B5024B1B681B6E019308BD57
:105D60007802030008B5034B1B68D3F89830019301
:105D700008BD00007802030008B5034B1B68D3F888
:105D8000A830019308BD00007802030008B5034B5A
:105D90001B68D3F8B430019308BD000078020300FB
:105DA00008B5034B1B68D3F8D830019308BD000039
:105DB0007802030008B5034B1B68D3F8DC3001936D
:105DC00008BD00007802030008B5034B1B68D3F838
:105DD000EC30019308BD00007802030008B5034BC6
:105DE0001B68D3F8F030019308BD0000780203006F
:105DF00008B5034B1B68D3F80031019308BD0000C0
:105E00007802030008B5034B1B68D3F804310193F3
:105E100008BD00007802030008B5024B1B68DB6870
:105E2000019308BD4802030008B5024B1B68DB69FB
:105E3000019308BD4802030008B5024B1B681B6AAA
:105E4000019308BD4802030008B5024B1B685B6A5A
:105E5000019308BD4802030008B5024B1B689B6A0A
:105E6000019308BD4802030008B5024B1B68DB6ABA
:105E7000019308BD4802030008B5024B1B685B6C28
:105E8000019308BD4802030008B5024B1B68DB6C98
:105E9000019308BD4802030008B5024B1B685B6D07
:105EA000019308BD4802030008B5024B1B681B6F35
:105EB000019308BD4802030008B5024B1B685B69EB
:105EC000019308BD6402030008B5024B1B68DB6840
:105ED000019308BD3C02030008B5024B1B681B6917
:105EE000019308BD3C02030008B5024B1B685B69C7
:105EF000019308BD3C02030008B5024B1B689B6977
:105F0000019308BD3C02030008B5024B1B68DB6926
:105F1000019308BD3C02030008B5024B1B681B6AD5
:105F2000019308BD3C02030008B5024B1B689B6A45
:105F3000019308BD3C02030008B5024B1B681B6CB3
:105F4000019308BD3C02030008B5024B1B681B6AA5
:105F5000019308BD2802030008B5024B1B685B6A69
:105F6000019308BD2802030008B5024B1B689B6A19
:105F7000019308BD2802030008B5024B1B68DB6AC9
:105F8000019308BD2802030008B5024B1B681B6B78
:105F9000019308BD2802030008B5024B1B685B6B28
:105FA000019308BD2802030008B5024B1B681B6C57
:105FB000019308BD2802030008B5024B1B68DB698A
:105FC000019308BD3002030008B5024B1B681B6A31
:105FD000019308BD3002030008B5024B1B681B6823
:105FE000019308BD4C02030008B5024B1B681B69F6
:105FF000019308BD4C02030008B5024B1B685B69A6
:10600000019308BD4C02030008B5024B1B689B6955
:10601000019308BD4C02030008B5024B1B68DB6905
:10602000019308BD4C02030008B5024B1B681B6AB4
:10603000019308BD4C02030008B5024B1B685B6B63
:10604000019308BD6002030008B5024B1B681B6D7D
:10605000019308BD6002030008B5024B1B681B6872
:10606000019308BD2002030008B5024B1B685B6862
:10607000019308BD2002030008B5024B1B685B6951
:10608000019308BD2002030008B5024B1B68DB6AC0
:10609000019308BD2002030008B5024B1B68DB6CAE
:1060A000019308BD2002030008B5024B1B685B6D1D
:1060B000019308BD2002030008B5024B1B689B6DCD
:1060C000019308BD2002030008B5034B1B68D3F8F9
:1060D0008830019308BD00002002030008B5034B7F
:1060E0001B68D3F89430019308BD00002002030020
:1060F00008B5024B1B685B68019308BD40020300B2
:1061000008B5024B1B689B68019308BD4002030061
:1061100008B5024B1B68DB68019308BD4002030011
:1061200008B5024B1B681B69019308BD40020300C0
:1061300008B5024B1B685B69019308BD4002030070
:1061400008B5024B1B689B69019308BD4002030020
:1061500008B5024B1B68DB69019308BD40020300D0
:1061600008B5024B1B681B6A019308BD400203007F
:1061700008B5024B1B681B6B019308BD400203006E
:1061800008B5024B1B685B6B019308BD400203001E
:1061900008B5024B1B681B6C019308BD400203004D
:1061A00008B5024B1B685B6C019308BD40020300FD
:1061B00008B5024B1B689B68019308BD44020300AD
:1061C00008B5024B1B685B69019308BD44020300DC
:1061D00008B5024B1B681B6A019308BD440203000B
:1061E00008B5024B1B685B6A019308BD44020300BB
:1061F00008B5024B1B681B6B019308BD44020300EA
:1062000008B5024B1B68DB6B019308BD4402030019
:1062100008B5024B1B681B68019308BD1C020300F4
:1062200008B5024B1B685B68019308BD1C020300A4
:1062300008B5024B1B689B68019308BD1C02030054
:1062400008B5024B1B68DB68019308BD1C02030004
:1062500008B5024B1B681B69019308BD1C020300B3
:1062600008B5024B1B685B6A019308BD1C02030062
:1062700008B5024B1B68DB6A019308BD1C020300D2
:1062800008B5024B1B681B6B019308BD1C02030081
:1062900008B5024B1B68DB6B019308BD1C020300B1
:1062A00008B5024B1B681B6C019308BD1C02030060
:1062B00008B5024B1B685B6C019308BD1C02030010
:1062C00008B5024B1B68DB6C019308BD1C02030080
:1062D000002240681146FFF743BF00224068114684
:1062E000FFF74EBF40680022FFF742BF4068002220
:1062F00081F00101FFF72CBF002340681A461946C0
:10630000FFF71EBF002340681A461946FFF710BF6B
:10631000002240681146FFF703BF00224068114683
:10632000FFF7EEBE406800220221FFF7F1BE002316
:1063300040681A46FFF7DCBE024B03225A60024A4D
:106340001A607047E0E503203CB70B0010B5044627
:1063500008462170FFF730FE00236360204610BD21
:10636000054B02221A60054B054A9A600020C3E9DA
:106370000000FFF779BE00BFF4E50320E8E5032045
:106380000000FFFF10B50446FEF7A4FB01382318F8
:106390002046834206D90278197800F8011B03F8D9
:1063A0000129F6E710BD70B50C46911E22291DD8B3
:1063B000254630B9234430229D4210D205F8012BE6
:1063C000FAE7B0FBF2F602FB1600C1B2092894BF4F
:1063D00030315731C9B205F8011B3046E9E70023D7
:1063E00020462B70FFF7CEFF204670BD0020FCE753
:1063F00008B50123FFF7D7FF08BD10B504460068B4
:10640000FFF70EFF204610BD10B50446006808B126
:10641000FFF706FF0023C4E90133236010BD38B540
:1064200004460D4600680131FFF702FF10B1C4E9D0
:106430000005012038BD10B50368044623B1436848
:106440008B4201D3012010BD2046FFF7E8FF002852
:10645000F9D0A368002BF5D122681370F2E737B5A5
:106460000D46114601920446FFF7E5FF019A28B94F
:106470002046FFF7C9FF204603B030BDA260294681
:10648000206802F07BFF2268A3680021D154F2E764
:10649000002313B5C0E9003304468360037341B1A0
:1064A00008460191FEF716FB019902462046FFF7C8
:1064B000D6FF204602B010BD884210B5044605D074
:1064C0000B682BB18A681946FFF7C9FF204610BD3B
:1064D000FFF79AFFFAE710B500230446C0E900333E
:1064E00083600373FFF7E8FF204610BD13B5044631
:1064F00059B108460191FEF7EDFA0199024620468E
:10650000FFF7ADFF204602B010BDFFF77DFFF9E7B2
:106510001FB504460023C4E90033A3602373084673
:1065200001A9FFF765FF01A92046FFF7DFFF20461D
:1065300004B010BD70B505460E4609B9002070BD07
:106540006AB1846814442146FFF775FF0028F5D02E
:106550002868AB683146184402F06EFFAC60012039
:10656000EDE710B58A6809680446FFF7E3FF10B944
:106570002046FFF749FF204610BD00000EB470B55D
:1065800087B00BAD044655F8042B01922B4605212C
:1065900004A80395FFF764FE0B4906462046FFF763
:1065A00077FF31462046FFF746FF206830B1019A59
:1065B00003952B46711CFFF753FEA060204607B0E1
:1065C000BDE8704003B07047A8BC0B00704770472F
:1065D00070477047064B994210B500F10C0405D086
:1065E000084602F0DDFA002808BF0024204610BD4E
:1065F00010B90B00064B994210B500F10C0405D000
:10660000084602F0CDFA002808BF0024204610BD3D
:1066100010B90B00064B994210B500F10C0405D0DF
:10662000084602F0BDFA002808BF0024204610BD2D
:1066300010B90B0010B568210446FEF7ACFA2046ED
:1066400010BD10B528210446FEF7A5FA204610BD5E
:1066500010B530210446FEF79EFA204610BD682191
:10666000FEF799BA2821FEF796BA3021FEF793BAC1
:10667000F0B50025EC1C8C420DD86E1C445D875D86
:10668000974205D12644B14205D31D60601CF0BD80
:1066900001342544EEE70020F9E70000024A0349EF
:1066A0000A20FFF7C9BC00BFD55C0B0070B70B0018
:1066B00030B40D4611461A46036809682868D3E9C4
:1066C0000043A44630BC6047012A38B5044602D1D5
:1066D0000B68236003E0022A03D0032A0DD00020B8
:1066E00038BD08200D68FEF750FA03460028F0D0A8
:1066F00095E8030083E80300EBE700680028EED08C
:106700000821FEF748FAEAE710B504465830FEF7CC
:10671000DCFC04F14800BDE81040FFF76EBEA0F1BC
:106720003003DAB2092A01D818467047A0F1610394
:10673000052B01D857387047A0F14103052B94BFB2
:1067400037384FF0FF30704710B500230370044B0B
:1067500004461868FFF798FB01232370204610BDFC
:1067600000E6032010B5037804461BB1024B1868FD
:10677000FFF792FB204610BD00E6032082B00346DF
:10678000086849686A4603C26A4603CA1860184620
:10679000596002B0704708B582798B799A4206D168
:1067A000062202F0DBFDB0FA80F0400908BD0020AF
:1067B000FCE74FF0FF33036083800020704708B58B
:1067C0000246002101604160FFF7F3FF917110461E
:1067D00008BD000010B501230361054B024603F11B
:1067E000100153F8044B42F8044B8B42F9D110BD11
:1067F0008EB40B0010B50B460446B1B1012A01F16D
:1068000010020AD1014653F8040B41F8040B9342DD
:10681000F9D101232361204610BD411E12F8010D5C
:1068200001F8010F9A42F9D1F3E7102202F0CEFDF0
:10683000F1E738B5044615461A46FFF7DBFFA58198
:10684000204638BD08B5026922B98089003818BFD2
:10685000012008BD0249102202F080FDF6E700BFCA
:1068600028B90B000069704738B50C461422002186
:10687000054602F0ABFD23691BB9A3892B8028468E
:1068800038BD01232B7421462B4604F1100251F828
:10689000040B43F8040B9142F9D1F0E7808970476B
:1068A000704708B502690B699A4206D1102202F0BE
:1068B00055FDB0FA80F0400908BD0020FCE700005B
:1068C00001232DE9F3410361344B0C460646024691
:1068D00003F1100153F8040B42F8040B8B42F9D179
:1068E00044B32421204602F0E0FD04284FF00005C7
:1068F00023D1ADF8045001AFA51C063415F8020CE5
:10690000FFF70DFFB0F1000812DB15F8010CFFF7DF
:1069100006FF00280CDB023540EA0810A54207F804
:10692000010BEBD19DF8053033739DF80430737380
:106930000023336102B0BDE8F0814FF0100824213C
:10694000204602F0B2FDA84207D842460021304658
:1069500002B0BDE8F04102F039BDB8F1000FE9D056
:10696000605DFFF7DCFE030615D4000108F1FF3877
:10697000C7B206F808702421204602F096FD0135C2
:10698000A84208D9605DFFF7CAFE40B20028A4BF44
:10699000384306F808000135D1E700BF8EB40B007C
:1069A00013B504460191FFF715FF20460199FFF743
:1069B00087FF204602B010BD38B54FF6FF730025A3
:1069C000044643800E22294605700571063002F008
:1069D000FDFC04F11400FFF7FDFE04F12800FFF7B1
:1069E000F9FE044904F13C00FFF752FD65652046BD
:1069F00038BD00BFA8BC0B0010B5D0E9063203EBD0
:106A0000C2029342184606D0046824888C4203F1DF
:106A10000803F6D110BD0020FCE70000F0B50646E3
:106A200085B01F460D46002950D0002A4ED004687C
:106A30002378F42A28BFF42243B32379980709D591
:106A4000A08903920023FFF7A1F90028039A03DA33
:106A500005B0F0BD6FF0770034682379D90609D509
:106A6000012F07D0A0890023294605B0BDE8F040DA
:106A7000FFF7BEB99B06EBD5022FE9D0A089002312
:106A8000294605B0BDE8F040FFF7BCB960884FF675
:106A9000FF7188421CD021794E0701D5012F04D106
:106AA0000B0709D46FF07700D2E7A1890093134652
:106AB0002A46FFF77FF9CBE7022FF3D00023A18905
:106AC000009313462A46FFF76BF9C1E70248BFE778
:106AD0006FF0D100BCE700BFF2FEFFFF37B50C46F8
:106AE0000546F4212046019202F0DFFC019B02469C
:106AF0002146284603B0BDE83040FFF78FBF0000B5
:106B00002DE9F04100260660074628200C46FEF7D6
:106B10003CF8051E05F10C080FD00123C5E901332F
:106B2000084B2B604046FFF755FE0FCC2E6285F8D0
:106B3000246046460FC623683360C7E9008538469F
:106B4000BDE8F081E0B80B0070B500250560064691
:106B50003020FEF71AF8044688B10123C0E901335A
:106B6000094B03604FF6FF7383810E30FFF727FE5A
:106B7000C4E90655C4E90855C4E90A55A575746009
:106B80000C343460304670BDFCB80B0037B50D4690
:106B9000044601A8FFF7D8FD2A68D2F80230236026
:106BA000D2F80630636001A8FFF7DCFD204603B091
:106BB00030BD30B5054687B00C4601A8FFF7C4FDCF
:106BC0002A68236812881B889A420DD1294602A898
:106BD000FFF7DCFF214604A8FFF7D8FF04A902A8AD
:106BE000FFF7D9FD044600B9002401A8FFF7BAFD5C
:106BF000204607B030BD000010B504466420FDF704
:106C0000C4FF68B10023C0E90033C0E90233C0E922
:106C10000433C0E906330362C362C363C364C3655C
:106C2000206020B90A4A0B490A20FFF705FA002024
:106C3000FFF770F820B1064A07490A20FFF7FCF970
:106C4000216806480022FFF7C9F8204610BD00BFA2
:106C5000D55C0B0070B70B00AEB70B0009720B00D0
:106C600010B50A4C2378BFF35B8FDB070CD42046AA
:106C7000FDF793FF40B10648FFF7BEFF2046FDF742
:106C800091FF044802F064FB014810BDF8E50320C1
:106C900004E60320B16E0B0030B50368093B012BFD
:106CA0008DB004460D4611D8FFF7DAFFA1880068C1
:106CB000FFF7A2FE034658B92022CDE904200B4A73
:106CC00000920B4904AA3220FFF7BEF90DB030BD87
:106CD0006A6D002AFAD0D4E9032105F14C00CDE910
:106CE0000312AC6D04AA03A9A047EFE7F0B70B00AD
:106CF00087B70B0008B50020FFF70CF800EAE0703A
:106D000008BD08460021FFF70DB819B90A46084624
:106D1000FFF710B8D1E900010022F9E70368D8694C
:106D20000028D4BF00200120704738B5141E4368E6
:106D3000054602DB62189A4200DD5C1A2A68501888
:106D400001191A44521A02F027FB6A68121B6A6082
:106D500038BD37B50A4604460D4601ABD0E90001FF
:106D6000FFF786FC024638B101992046FFF7DDFFA8
:106D700029462046FFF7EDFF03B030BD10B50C46A5
:106D800029B90A460846BDE81040FEF7DBBF0121DD
:106D90002046FFF7DEFFD4E900010022F3E738B513
:106DA00004461546FFF7B1FF00280ADB29462046B6
:106DB000FFF7E4FF002804DBBDE838400020FEF7C1
:106DC000C9BF38BD38B500230446836008200D468E
:106DD000FDF7DBFE18B12B6803606B684360034B63
:106DE000E360034B2060A360204638BDB1660B0012
:106DF000C9660B000B68036013B15A6801325A6010
:106E0000704710B551F8043B044640F8043BFFF7C7
:106E1000F1FF23680BB9FFF741FC204610BD10B508
:106E200051F8043B044640F8043BFFF7E3FF2046DB
:106E300010BD10B551F8043B044640F8043BFFF781
:106E4000D9FF204610BD10B504460430FDF78EFF73
:106E5000204610BD70B5D0E90053044605EBC306CB
:106E6000AE4204D0281DFDF781FF0835F8E7206801
:106E7000FFF7D6F9204670BD70B5D0E9005304463F
:106E800005EBC306AE4204D0281DFDF76FFF0835A1
:106E9000F8E72068FFF7C4F9204670BD10B5044636
:106EA0002430FFF7E9FF04F11800FFF7D3FF10BD0E
:106EB00070B5174B1C6854B304F15400FEF705F984
:106EC00004F14400FEF701F904F13400FEF7FDF887
:106ED00004F12400FEF7F9F8D4E9065305EBC306E4
:106EE000AE4204D0281DFDF741FF0835F8E7A06940
:106EF000FFF796F904F10C00FFF7BEFF2046FFF7FD
:106F0000A9FF20466421BDE87040FDF744BE70BD76
:106F100004E6032013B50023D1E90042C1E90033A0
:106F20000368009304604368426001A80193FDF781
:106F30001DFF02B010BD826810B50AB901F02CFE29
:106F4000BDE81040C368184738B50D1E04460068F8
:106F500003DDFFF76DF918B938BDFFF761F90020BF
:106F60002060A5600120F7E708B583688B4202DA4C
:106F7000FFF7EAFF08BD0120FCE72DE9F0410F46CD
:106F800041681D461944836899420446904612DCC4
:106F9000266862683E44D21B3146701902F0FCF943
:106FA0002A464146304602F0E9F963682B446360A3
:106FB0000120BDE8F081FFF7C7FF0028E8D1F8E71E
:106FC000F8B50D46D0E901139942044616460BDA8E
:106FD000276862687919521B481C02F0DDF97E555A
:106FE000636801336360F8BD0131FFF7ADFF00282E
:106FF000EED1F8E70A464168FFF7E2BF2DE9F74313
:1070000004461D460F4601AB90460A46D0E90001F2
:107010009DF82890FFF72CFBAE1C63680246B9F17F
:10702000000F26D128B333441B1AFF2B09D801992E
:107030002046FFF77AFE616820463144FFF794FF4F
:1070400018B9606803B0BDE8F0836A1C0199D2B238
:107050002046FFF7B5FF01993A4601312046FFF778
:10706000AFFF01992B46424602312046FFF785FFCC
:10707000E7E7F118FF29E4D82046FFF775FF00285D
:10708000DFD0691CC9B22046FFF7B4FF394620465D
:10709000FFF7B0FF61682B464246E6E730B49DF843
:1070A00008501AB1029530BCFFF7A8BF406830BC49
:1070B00070471FB50023C0E90033836006220093A8
:1070C00001238DF80F2019460DF10F020446FFF73A
:1070D000E5FF204604B010BD1FB50A460446142142
:1070E0001046039202F0E1F9002103460091039A51
:1070F00009212046FFF7D2FF04B010BD8842F8B541
:1071000004460D46164614D9904213D2A2F1080641
:10711000751AA1F108072C44B74218D01CB13146AA
:107120002046FFF786FE301DFDF720FE083E083C96
:10713000F2E70CD0B5420AD01CB129462046FFF731
:1071400078FE281DFDF712FE08350834F2E7F8BD79
:10715000F7B5044646686846FFF76BFED4E901734D
:107160009F4212DB0137002F29DDF800FFF750F8AE
:107170000546F0B1D4E9001201EBC202FFF7BEFFF1
:107180002068FFF74DF82560A7602368626803EB6D
:10719000C60603EBC202314606F10800FFF7AEFF58
:1071A0001EB169463046FFF744FE636801336360F1
:1071B000012501A8FDF7DAFD284603B0F0BD002542
:1071C000DEE7F8B5D0E9004305460F4604EBC306F9
:1071D000A64205D039462046FFF7EBFC08B114B9AA
:1071E000F8BD0834F4E7201DFDF7C0FDD5E90032F5
:1071F00004F1080103EBC2022046FFF77FFF6B6832
:10720000013B6B60ECE700002DE9F04105468EB0D4
:1072100003A80C46FFF798FA2E68F31E0D2B3CD8F6
:10722000DFE813F00E0053003B00D1003B003B00B1
:107230003B003B003B009B009B009B009B009B0096
:1072400004A8FFF781FC049BAA891A806968049846
:1072500008310230FFF792FA04A906A8FFF7E9FD0A
:1072600006A904F11800FFF773FF054607A8FDF70C
:107270007DFD20230693B5B95D4B5E490093322016
:107280002B4606AA0795FEF7DFFE049B29461888C1
:10729000FEF768FD05A8FDF769FD03A8FFF762FA90
:1072A0000EB0BDE8F081544A009200235149079383
:1072B00006AA0120FEF7C8FEE36A002BEAD004A963
:1072C00004F12400FFF737FEE4E7A9892046FFF721
:1072D00093FB06460028E0D00568D5E906324FF654
:1072E000FF71298003EBC2029A4203D053F8080BC6
:1072F0004180F9E7D5E9037307EBC308B84504D02B
:10730000381DFDF733FD0837F8E700232B61D5E979
:10731000067307EBC308B84504D0381DFDF726FDFA
:107320000837F8E70023EB61AB72E36B23B131461A
:1073300004F13400FFF7FFFD00232022CDE90623EE
:107340002E4A00922B4906AA0120FEF77DFE314607
:1073500004F11800FFF735FF9FE7A9892046FFF7E2
:107360004BFB002899D0E36C002B96D000230D2E08
:10737000ADF8163001D0102E17D1002369681A46D7
:1073800006258DF8153004918DF814200690DDE95E
:10739000040109AB8DF81C60089583E80300236D98
:1073A00006A904F14400984777E70F2E01BF2B7A16
:1073B000696803F0010208250FBFC3F340031A46B2
:1073C00019461D46DDE7A9892046FFF715FB014652
:1073D00000283FF462AFE36D002B3FF45EAF6B68B3
:1073E000069306AA236E04F15400984755E700BFA0
:1073F00008B80B0087B70B002EB80B004BB80B007A
:1074000013B50B460246D0E900016C4684E8030040
:1074100093E8030082E8030094E8030083E8030094
:1074200002B010BD38B505460C46FFF7E9FFAB6862
:10743000A268AA60A360EB68E268EA60E36038BD16
:1074400070B504468CB00E4601921D46FFF7B4FAA3
:107450002671019904F13C00FFF748F804F14C064D
:10746000CDB1109B029502A904A80393FFF7AAFCD3
:10747000002308A904A80A93FFF7D4FF314608A8FF
:10748000FFF7D0FF08A8FDF720FE04A8FDF71DFEBA
:1074900020460CB070BD0695EAE700002DE9F04FDC
:1074A00087B01D46DDE9104380468B46924612990F
:1074B00003930022682002910492FDF766FB061EEA
:1074C00006F10C0918D001223746C6E901220299BB
:1074D000154A47F8202B039B00915A4651464846CF
:1074E000FFF7AEFF0FCD0FC72B683B600FCC06F147
:1074F00034050FC523682B6004A94046CDE90496E6
:10750000FFF708FD05A8FDF731FCD8F800303BB9BE
:10751000064A07490A2007B0BDE8F04FFEF78CBDC8
:1075200007B0BDE8F08F00BFC4B80B00D55C0B00FE
:1075300070B70B008842F8B504460D46164614D9BC
:10754000904213D2A2F10806751AA1F108072C4443
:10755000B74218D01CB131462046FFF760FC301D01
:10756000FDF704FC083E083CF2E70CD0B5420AD017
:107570001CB129462046FFF752FC281DFDF7F6FBFB
:1075800008350834F2E7F8BD70B50E1E054611DD6A
:10759000F000FEF73DFE044658B1D5E9001201EBBC
:1075A000C202FFF7C7FF2868FEF73AFE2C60AE6004
:1075B000012070BD0024F6E773B5044645686846AF
:1075C000FFF72DFCD4E90113994210DA23686268B1
:1075D00003EBC50503EBC202294605F10800FFF7DE
:1075E000A9FF8DB9636801336360012606E00131AC
:1075F0002046FFF7C9FF06460028E7D101A8FDF79E
:10760000B5FB304602B070BD69462846FFF707FC5F
:10761000E8E78842F8B504460D46164614D990426C
:1076200013D2A2F10806751AA1F108072C44B7423B
:1076300018D01CB131462046FFF7E3FB301DFDF7A3
:1076400095FB083E083CF2E70CD0B5420AD01CB1CD
:1076500029462046FFF7D5FB281DFDF787FB083597
:107660000834F2E7F8BD70B50E1E054611DDF000D6
:10767000FEF7CEFD044658B1D5E9001201EBC20277
:10768000FFF7C7FF2868FEF7CBFD2C60AE60012036
:1076900070BD0024F6E773B5044645686846FFF7F9
:1076A000B0FBD4E90113994210DA2368626803EB56
:1076B000C50503EBC202294605F10800FFF7A9FF43
:1076C0008DB9636801336360012606E0013120460D
:1076D000FFF7C9FF06460028E7D101A8FDF746FBE2
:1076E000304602B070BD69462846FFF78AFBE8E7DE
:1076F0002DE9F04F1746A1B080460AA80E46FFF7C5
:1077000023F83C68237953B939464046FFF779FBA3
:107710000AA8FFF727F8404621B0BDE8F08F33688C
:10772000D3E9035305EBC303039304F1280A04F1DF
:10773000140B039B9D4221D0D5F80090584609F1C7
:107740001401FFF7AEF8B8B109F128015046FFF770
:10775000A8F888B12368D9F80020534033F47F4358
:107760000AD12022CDE915235E4A009215AA5E496E
:107770003220FEF769FCC7E70835DAE75046FFF725
:1077800061F860B95949012215A815ADFFF732F823
:107790000FCDD446ACE80F002B68CCF8003033682E
:1077A000D3E9005305EBC30B5D45A94651466ED0A6
:1077B00055F8080BFFF775F80028F5D004F1140A06
:1077C0005046FFF73FF888B9494B48491A880132BB
:1077D00092B21A8015A8012315ADFFF72AF80FCD34
:1077E000D446ACE80F002B68CCF80030414B159321
:1077F0002822002116A801F0E9FD514604A8FFF750
:1078000033F804AB18AA0DF1200C18685968154616
:1078100003C5083363452A46F7D1186828602379E1
:107820008DF85830D9F800309B8AADF87430E36B8E
:107830001793314B0022A11D15A8CDE91E34FEF788
:10784000C3FA00287FF460AF0123237034683946FF
:107850000C340DA8FFF7D5FA20460DA9FFF71BFF42
:1078600004460EA8FDF782FA002C7FF44DAF2023CA
:10787000CDE90D34214B00930DAA234677E7394615
:107880004046FFF7BEFA0CA8FDF770FA40E70BA8D8
:10789000FFF736F9514615A8FEF7E6FF0B9A0023CD
:1078A000143215A90120FEF767FA0028E7D13568E0
:1078B0000BA90DA8FFF7B3FA28460DA9FFF77CFE28
:1078C00005460EA8FDF752FA002DD8D0326853684D
:1078D000126803F10053013B0CA802EBC309FDF74A
:1078E00045FA6BE76AB80B0087B70B0018B90B00B5
:1078F000FCE5032003002C00996C0B0095B80B00ED
:10790000024800230360FEF7B7BA00BF00E6032079
:10791000F8B506460D468F180024BD420CD03368DA
:1079200015F8011B9B6830469847031E01DB1C4479
:10793000F3E7002C08BF1C462046F8BD13B50446EB
:10794000084659B10191FDF7C5F823680199DB6834
:107950000246204602B0BDE81040184702B010BDF4
:1079600003689B68184738B50D210546FFF7F8FFF7
:107970000A2104462846FFF7F3FF204438BD38B5F6
:107980000546FFF7DBFF04462846FFF7ECFF2044DF
:1079900038BD30B58BB00023012A8DF8243098BF54
:1079A0000A2209AC0D46B1FBF2F101FB125303F0C0
:1079B000FF03092B94BF30333733DBB2AA4204F8FC
:1079C000013DEFD92146FFF7B9FF0BB030BD0000F4
:1079D000014B024A1A60704708E6032038B90B00D1
:1079E0002DE9F041154ADFF86080D2E90063801983
:1079F00043EB0101124BD3E90067D8E90023861954
:107A000041EB0707BB4208BFB2428CB013D003A9B9
:107A10006846CDE90067FEF753FC089B094D03F269
:107A20006C7303AC08930FCC0FC50FCC0FC5C8E91E
:107A3000006723682B600CB0BDE8F08140E60320AE
:107A400038E6032010E6032048E6032008B50020AE
:107A5000FEF7CEFB28B1FEF7B3FB80F00100C0B209
:107A600008BD0120FCE7000008B5FFF7B9FF024B95
:107A70001869013008BD00BF10E6032030B593B08F
:107A8000CDE90023194B0446D3E90010019B52189D
:107A900043EB00031648D0E90010521843EB0003F3
:107AA000CDE9002324220DEB0200002101F08EFC21
:107AB000002509A96846FEF703FC1622294603A8FB
:107AC000029501F083FC02A909A801F01BFC02A8A1
:107AD000FDF700F812AB184402A900F8415C2046FB
:107AE000FEF7D6FC204613B030BD00BF40E60320B1
:107AF00038E6032010B50020FEF7FCF80446A0B9D4
:107B0000FEF7AAFA012810D12046FEF7D5FA60B98F
:107B1000FFF79CFF10B9FEF74BFBF9E7FFF796FF65
:107B2000BDE810400020FEF7E5B8204610BD1FB5A7
:107B3000FFF7E0FF10220021684601F047FC00211A
:107B40006846FEF7DFF8009805B05DF804FB00001A
:107B500008B5FFF7ECFFC117FFF742FF014B98682C
:107B600008BD00BF10E6032008B5FFF7E0FFC1170E
:107B7000FFF736FF014B586808BD00BF10E6032031
:107B800008B5FFF7D4FFC117FFF72AFF014BD868EC
:107B900008BD00BF10E6032008B5FFF7C8FFBDE829
:107BA0000840C117FFF760BF08B5FFF7C0FFC11756
:107BB000FFF716FF014B586908BD00BF10E6032010
:107BC000024B1A68024B1A60704700BF08E303209B
:107BD0000CE603200021FEF74FBA0000014B002203
:107BE0009A60704750E60320014B1860704700BF51
:107BF0000CE3032008B50B4B43B100F009FC03680C
:107C00001B699847002801DDAFF30080064B43B1A4
:107C100000F082FE03681B699847002801DDAFF37E
:107C2000008008BD000000000000000008B5FFF75C
:107C3000E1FFFEF757F8014B186008BD44E7032049
:107C40000548064A064908B5121A01F097FB054B8C
:107C5000054A1A6008BD00BF00F4032004F40320A5
:107C600044C30B0000F403201E1C279A07B5002311
:107C700000931A466FF07701FEF730FA03B05DF813
:107C800004FB000007B543880A2B08D0502B0BD10A
:107C9000094B1B684BB103B05DF804EB1847FFF7C5
:107CA000E5FF03B05DF804FB002300931A466FF074
:107CB0007701FEF713FAF4E764E6032010B51248E3
:107CC0000021FEF7F5FA114B1A68114B9A42114B3D
:107CD0000CBF012200221A7001D0FFF7B1FFFDF79F
:107CE000F1FF044601F07AFB0B4B13B12046AFF3D2
:107CF000008000210848FEF783FABDE810400748DD
:107D00000021FEF7E1B900BFE97B0B0000F403207E
:107D10001E1C279A60E6032000000000857C0B00F3
:107D200070470020704710B510210446FCF733FF60
:107D3000204610BD08B5FFF7F6FF08BD30B500229C
:107D40004FF69C74026084808D888C800C688580DE
:107D500004600A6030BD10B504460068FEF760FAA2
:107D6000204610BD38B5C468F4B12378022B03D186
:107D700004F10C00FFF7EFFF656835B12846FDF709
:107D8000A4F910212846FCF706FFA56835B128465E
:107D9000FDF79BF910212846FCF7FDFE2046142133
:107DA000BDE83840FCF7F7BE38BD07B5CDE9001295
:107DB00082680AB900F0F0FEC36801AA69469847D4
:107DC00003B05DF804FB0B6803604B68436013B1BC
:107DD0005A6801325A60704737B5044668460D4606
:107DE000FFF7F1FF009B019A23606260002301A866
:107DF00001930093FCF7BAFF35B1281DFCF7B6FFDD
:107E000008212846FCF7C7FE204603B030BD826833
:107E100010B50AB900F0C0FEBDE81040C3681847AD
:107E200008B5006800F11001FFF7F1FF08BD826896
:107E300010B50AB900F0B0FEBDE81040C36818479D
:107E400008B5006800F11001FFF7F1FF08BD000060
:107E500038B500230446036010200D46FCF795FE5C
:107E600028B10123C0E90133024B0360C5602060E3
:107E7000204638BD60B90B0038B5002383608B689D
:107E800004460D462BB102229847EB68E360AB68CD
:107E9000A360204638BD0000F0B589B0046868468C
:107EA000FFF74CFF4FF00203D4E84F2F002A03D115
:107EB000C4E8413F0029F7D125D104F10C056946FA
:107EC0002846FFF73BFFBFF35B8F01236370002061
:107ED00004F10803BFF35B8F53E8006F43E800022F
:107EE000002AF9D1BFF35B8F6EB1FEF7D5F878B1F8
:107EF00029463046FFF78BFF3046FDF7E6F81021A4
:107F00003046FCF748FE6846FFF725FF09B0F0BD94
:107F1000314602A8FFF7B0FFE068B4F9105008B18D
:107F200001F092FA06901020ADF81C50FCF72DFEDF
:107F30000546E8B1002787601820FCF726FE0446B6
:107F400088B10146876002A8FFF75AFA049BA2682D
:107F5000A360059B049206A9E268E36004F11000A7
:107F60000592FFF7EBFE084BEB60084B2C60AB6013
:107F700006A8FFF7F0FE02A8FDF7A7F800222946A1
:107F80000348FEF791F8B7E7217E0B00A5800B00B0
:107F9000C1850B002DE9F04F8BB005469DF850A030
:107FA0000F4690469946FEF70BF907AE834638BB5D
:107FB0004FF62E73059005A93046ADF81830FFF73F
:107FC000BDFE1420FCF7E1FD044648B10223037016
:107FD0000123C0E901BB437031460C30FFF7AEFE10
:107FE0002846214640F8044BFFF732FF3046FFF7A2
:107FF000B2FE05A8FFF7AFFE28460BB0BDE8F08F34
:108000000C2300241420CDE908440793FCF7BDFDA0
:10801000014618B1C0E901440470447004A80391FA
:10802000FFF716FF1E4B08930820FCF7AEFD044631
:1080300010B103A9FFF7C7FE00965FFA8AF34A461C
:10804000414638460994FEF7C3F8B8B9039B5B78FC
:1080500003F0FF0293B94FF69C7305A903A805929C
:10806000ADF81830FFF718FF05A8FFF774FE05A854
:108070000999FFF7B1FE06A8FCF778FE03A905A849
:10808000FFF7A1FE059B069A2B606A60002306A8F5
:1080900006930593FCF76AFE04A8FCF767FEABE7BE
:1080A00021810B00012AF8B5054603D10B68036056
:1080B0000020F8BD022A10D0032AF9D10468002C50
:1080C000F6D004F11000FFF746FE2046FCF7FDFF56
:1080D00018212046FCF75FFDEAE718200E68FCF740
:1080E00054FD044650B13146FFF7C6FE3069B6F97B
:1080F000147008B101F0A8F92061A7822C60D7E7BD
:1081000038B5002383608B6804460D462BB10222EC
:108110009847EB68E360AB68A360204638BD000079
:10812000F0B589B004460D4601A81146FFF754FE8C
:10813000A4B124B21DB1284601F086F9054601A874
:1081400003A90395ADF81040FFF7A6FE03A8FFF7BB
:1081500002FE02A8FCF70AFE09B0F0BD019D012352
:10816000D5E84F2F002A03D1C5E8413F0029F7D1B8
:10817000EFD12B73BFF35B8F6B702B1DBFF35B8F46
:1081800053E8006F43E80042002AF9D1BFF35B8F48
:10819000002EDED02046FDF77FFF074660B105F1D7
:1081A0000C013046FFF743FE3046FCF78EFF1021EE
:1081B0003046FCF7F0FCCCE7314603A8FFF7A0FF00
:1081C0002B7B8DF81C301020FCF7DFFC0546D0B16E
:1081D00087601420FCF7D9FC044678B1876001461B
:1081E00003A8FFF70DF9059BA268A360069B059203
:1081F000E268E3609DF81C3006922374064BEB6046
:10820000064B2C60AB6003A8FCF75FFF00222946F9
:108210000348FDF749FFC7E7417E0B0025820B00AD
:10822000C1850B00012A70B5044603D10B680360B9
:10823000002070BD022A0CD0032AF9D10468002C5A
:10824000F6D02046FCF741FF14212046FCF7A3FCA2
:10825000EEE714200E68FCF798FC054620B1314685
:10826000FFF74EFF337C2B742560E1E7704710B5B4
:1082700018210446FCF78FFC204610BDF0B5037DA5
:10828000062B8DB00E4600F104074FF0000412D00B
:1082900000F1080515F8011D0A223046FFF779FBA9
:1082A000AF42044419D0002CF4D02E213046FFF701
:1082B00057FB0444EEE72F236A4639460A208DF81F
:1082C0000040FDF7F9FD6846FCF704FC3368024600
:1082D000DB68694630469847044620460DB0F0BD3D
:1082E00010B5054B0446112240F8043B002101F073
:1082F0006DF8204610BD00BF7CB90B000346074A4D
:1083000010B543F8042B01F1100251F8044B43F867
:10831000044B9142F9D10A781A7010BD7CB90B0058
:1083200010B59DF8084044EA032343EA024242EABA
:10833000016104234160037510BD000007B5064BC1
:108340000360CB7800938B784A780978FFF7E8FFD1
:1083500003B05DF804FB00BF7CB90B0041747047AB
:108360007047704708B50021007CFDF74DFE40EADC
:10837000E07008BD08B50121007CFDF745FE40EA2C
:10838000E07008BD08B5007CFDF736FE20EAE0701D
:1083900008BD08B5007CFDF727FE20EAE07008BDA7
:1083A00013B50446007C0191FDF726FE00280199D3
:1083B00001DC607C20B1207CFDF72EFE20EAE0701D
:1083C00002B010BD007CFDF72FBE10B5142104468D
:1083D000FCF7E1FB204610BD10B54FF47A7304465C
:1083E00008460021C4E90113044B236001232074D3
:1083F00063741146FDF7F0FD204610BD90B90B00E7
:1084000010B514220446002100F0E0FF204610BD04
:1084100010B50F4C88B003A8FFF7F2FF2178BFF327
:108420005B8F11F001010FD120460191FCF7B5FBE4
:10843000019948B103AA0748FFF7CEFF2046FCF791
:10844000B1FB054800F084FF024808B010BD00BF32
:1084500068E603206CE6032061830B00826810B598
:108460000AB900F099FBBDE81040C3681847000046
:10847000F8B5104F57F8204006460D4634B1204657
:10848000FCF723FE10212046FCF785FB1020FCF7AB
:108490007CFB044650B100238360AB6833B10222F9
:1084A00029469847EB68E360AB68A36047F826402D
:1084B0002046F8BD80E60320F0B587B0054603915D
:1084C00017461E46FDF7F6FB03992846FFF7D0FF37
:1084D0000446E8B100218E424FF00403ADF81510B8
:1084E0008DF817108DF81430A2BF05A99DF8303013
:1084F0008DF81630009102460749A8BF8DF8156027
:108500003B462846FDF7CEFB10B1002007B0F0BD7A
:10851000201E18BF0120F9E75D840B0070474174ED
:10852000704708B5007CFDF7FFFC20EAE07008BD4D
:1085300008B5007CFDF7D0FC20EAE07008BD08B566
:10854000007CFDF7D9FC40EAE07008BD08B5007C6E
:10855000FDF7CAFC40EAE07008BD007CFDF7D4BC22
:1085600037B5457C04462DB1207C03B0BDE83040D2
:10857000FDF7AABC007C0191FDF7D6FC002801990B
:10858000F2DC284603B030BD10B514210446FCF7D8
:1085900002FB204610BD000010B54FF47A7304466C
:1085A000084611460022C4E90123044B236001233D
:1085B00020746374FDF7C0FC204610BDC0B90B00E9
:1085C00010B5836804460BB900F0E6FAC368984713
:1085D000A3681BB10322214620469847204610215C
:1085E000BDE81040FCF7D7BA7047F8B50646154607
:1085F0000C468F18BC4206D0336814F8011B9B68E8
:1086000030469847F6E72846F8BD007C0022FDF783
:108610009BBC007C0021FDF79FBC007C0021FDF786
:10862000A3BC007C0021FDF7A7BC007C0021FDF766
:10863000ABBC10B514210446FCF7ADFA204610BDC2
:1086400010B54FF47A73044608460021C4E90113BB
:10865000034B236020741146FDF7A6FC204610BD95
:10866000F0B90B00002240681146FDF759BD002209
:1086700040681146FDF774BD002240681146FDF7C1
:108680007FBD40680022FDF773BD4068002281F085
:108690000101FDF75DBD002340681A461946FDF74C
:1086A0004FBD002340681A461946FDF741BD002220
:1086B00040681146FDF724BD406800220221FDF705
:1086C00027BD002340681A46FDF712BD024B042265
:1086D0005A60024A1A60704710E7032018BA0B006C
:1086E000002340681A46FDF703BD406800220221BE
:1086F000FDF70EBD002240681146FDF701BD0022C6
:1087000040681146FDF70CBD002340681A46194623
:10871000FDF70EBD002340681A461946FDF710BD4F
:1087200040680021FDF734BD40680021FDF738BDE9
:108730004068002281F00101FDF70ABD4068002277
:10874000FDF716BD002240681146FDF719BD002255
:1087500040681146FDF704BD2DE9F04395B014467D
:108760000D460746FFF7BCFD00211C220DA8009115
:1087700000F02CFE40230C9320466B460CAA0021EF
:10878000FDF780FA044600284BD1024601216868B3
:10879000FDF7C6FC0221804622466868FDF7C0FC52
:1087A000009E81462146002E3BD0002939D17368B6
:1087B000022B03D00A2B11D0F669F4E7B8F1000FB1
:1087C000FAD0716906A8043107ADFFF7B7FD0FCDE8
:1087D0003C1D0FC42B6823704146EDE7B9F1000F33
:1087E000EAD07469102201A800F0F0FD06238DF88C
:1087F000143001AD04F108031834186859682A468A
:1088000003C20833A3421546F7D101A906A807AD54
:10881000FFF774FD0FCD3C1D0FC42B682370494634
:10882000CAE70098FDF726FA384615B0BDE8F08390
:10883000024B034A1A6000225A60704718E703206F
:1088400054BA0B00232813B502D9002002B010BD82
:10885000A0F10B03022B1AD8174C2178BFF35B8FC2
:1088600011F001010BD120460191FCF796F9019915
:1088700028B11248FDF76AFD2046FCF793F90F4B2B
:108880001878FDF7A1FB0028DFD10120DEE70128E1
:1088900009D800F07DF80021007CFDF77DFB80F019
:1088A0000100C0B2D2E709380128EED800F034F850
:1088B000007CFDF731FBF2E720E7032024E70320EB
:1088C000232838B504460D460AD8FF2908D0FFF7FB
:1088D000B9FF28B129462046BDE83840FDF7DAB98E
:1088E00038BD704738B5044614252A46002100F0EB
:1088F0006DFD25804025074925812846258200F009
:108900006BF804496060284600F066F8E060204695
:1089100038BD00BF88BA0B0030B50E4D2978BFF3C3
:108920005B8F11F0010487B011D12846FCF735F9AF
:1089300068B101A8FFF7D6FF01AA21460648FFF754
:108940002BFE2846FCF72EF9044800F001FD0248F2
:1089500007B030BD2CE7032030E70320E3880B008D
:108960007047000038B52025142304460360856055
:1089700005610649284600F02FF804496060284642
:1089800000F02AF8E060204638BD00BF88BA0B002E
:1089900030B50E4D2978BFF35B8F11F0010487B01D
:1089A00011D12846FCF7F9F868B101A8FFF7DAFF02
:1089B00001AA21460648FFF743FE2846FCF7F2F8D5
:1089C000044800F0C5FC024807B030BD48E703206A
:1089D0004CE7032061890B00FCF7D9B8C3689A689B
:1089E000C26010B502B1506042685A600C6884429F
:1089F00003D10B609860436010BD916881420CBF49
:108A00009360D360F6E78368DA68826010B502B1DC
:108A1000506042685A600C68844203D10B60D86091
:108A2000436010BDD16881420CBFD3609360F6E70C
:108A3000C36823B118469B68002BFBD1704743687D
:108A4000DA68824202D118465B68F9E7C26893424D
:108A500018BF18467047037833B943685B68834290
:108A600002D1DB6818467047826822B11346D2688B
:108A7000002AFBD1F6E743689A688242F2D1184691
:108A80005B68F9E7FFF7D4BFFFF7E5BF2DE9F843CF
:108A90001E4603F104080023C1E902330C464A6074
:108AA0000B7000B39642916018D17160F460012799
:108AB0004FF000097368A3423FD060680278002A33
:108AC0003BD14568AB68984223D1EB6883B11A78F3
:108AD00072B907701F702A702C46EBE7B368934297
:108AE000E5D1B160E3E7D160F3689342DFD1DDE720
:108AF000C368A34203D14146FFF770FF0446636891
:108B000041461F70284685F80090FFF77CFF2546F8
:108B1000E2E713B11A78002ADBD08368A34203D1BD
:108B20004146FFF770FF0446636841461F702846C0
:108B300085F80090FFF752FFE9E701221A70BDE8BF
:108B4000F88308B5FDF794FB08B5FDF791FB08B570
:108B5000FDF78EFB08B5FDF78BFB08B5FDF788FB2D
:108B60000FB480B584B000AF07F1180454F8042B9B
:108B70007A601046FBF7AEFF00F2072323F00703ED
:108B8000ADEB030D00F500717A68FC602346684682
:108B900000F05EF8FDF76CFB08B5FDF769FB00001F
:108BA000014900F099BB00BFA4BA0B0080B59CB08E
:108BB000064600AF0C46A41B0E496922381D00F082
:108BC000DDFB04F1700323F00703ADEB030D6D46ED
:108BD0006822391D284600F0D1FB2246314605F1B6
:108BE00068002C4400F0CAFB002384F86830284653
:108BF000FFF7AAFFACBA0B002DE9F04100AF84B03B
:108C00006D4605F10C04DFF8448023464FF00A0C52
:108C1000B2FBFCF60CFB162E18F80EE003F801ED83
:108C20009646BEF1090F3246F2D8E41A8C4209D8B2
:108C3000C4F10C032246E91800F0A0FB2046BD4613
:108C4000BDE8F0814FF0FF34F8E700BF15BB0B0023
:108C500001392DE9F0410746154600EB01080446AD
:108C60002A7892B344452AD2252A07D16A78732AF2
:108C700009D07A2A12D0252A00D1013515F8012B06
:108C800004F8012BECE753F8042B013A12F8011F0A
:108C9000C9B1444513D004F8011BF7E7AA78752A37
:108CA000ECD11E46A8EB040156F8042B2046FFF732
:108CB000A3FF002803DD044403353346D0E72146F3
:108CC0003846FFF773FF0235CAE72270E01BBDE8A4
:108CD000F0810AB100F052BB70470AB100F03EBB10
:108CE0001046704713460A4611B11978FBF798BE33
:108CF0000846704708B50B68B3F1804F02D30D48A2
:108D0000FFF728FF93420BD9B3EB420F4FEA420023
:108D100006D2B0F1804F2ABF6FF0404308600B606D
:108D20000868013001D5FFF70CFFBDE80840FBF7EC
:108D30002CBF00BF20BB0B0050F8083B834202D081
:108D40001846FBF726BF704708B5034608465B6820
:108D50009842114603D902460148FFF701FF08BDBA
:108D600038BB0B00406801F180410139091A91427A
:108D700008B502D21846FFF7EDFE08BD03688B4226
:108D800006D840681844814294BF002001207047F3
:108D900001207047012A10B404D10A785DF8044B11
:108DA000027070475DF8044BFFF793BF012A30B49F
:108DB00003D10B78037030BC7047002AFBD030BC65
:108DC00000F0EABA08B5521AFFF7E4FF08BD2DE932
:108DD000F3470A9E1F46436801EB0208B21A1A4481
:108DE000A3EB08090346019253F8082B9A4218BFD7
:108DF00082680D4608BF0F2201A90446FFF77AFFDB
:108E000082461DB121682A46FFF7C4FF37B12EB153
:108E1000324639460AEB0500FFF7BCFFB9F1000FF7
:108E200007D0216835444A4641440AEB0500FFF764
:108E3000B1FF2046FFF780FF019BC4F800A0A360AC
:108E400002B0BDE8F08738B504461546084611441F
:108E50006268521A05D025B1236819441844FFF7F7
:108E6000A5FF62682368551B002265605A5538BD0E
:108E70002DE9F74F0C9D144680462A4689461F4629
:108E80002146394BFFF76EFF4246D8F8043052F8BE
:108E9000086B964218BFD8F80820A5EB040B03EB2B
:108EA0000B0A08BF0F22524551D34E443946A14404
:108EB0004046A3EB0909FFF761FF80B1B9F1000F4C
:108EC00006D0AC4204D04A4631197019FFF76EFF44
:108ED00015B32A4639463046FFF75CFF1CE035B132
:108EE000AC423CD32A4639463046FFF75FFFB9F122
:108EF000000F11D0AC420FD04A4631197019FFF75C
:108F000055FFAC4208D234447B199C420FD32A4609
:108F100039463046FFF74AFFD8F80030C8F804A0B9
:108F20000022404603F80A2003B0BDE8F08FBC429F
:108F300003D82A4607EB0B01CDE7E41B224639464E
:108F40003046FFF733FF2A1B71193019C4E700952B
:108F50003B46224649464046FFF739FFDCE7B9F178
:108F6000000FD0D0C8E700BF6FBB0B0073B504463D
:108F70002346406853F8086B9E4218BFA36800EB75
:108F8000020508BF0F239D420AD812B13044FFF7F3
:108F900001FF23686560002220465A5502B070BD6B
:108FA00000920B46002201462046FFF710FFF0E733
:108FB0002DE9F7430E461D46416823B9914221D25F
:108FC0004FF0FF321EE09142FAD9D0F8008033789A
:108FD0008DF8073008EB010708EB0200891AC5F18C
:108FE0000109A942ECD30DF107024944FFF77AFECB
:108FF00004460028E4D02A463146FFF76EFE28B921
:10900000A4EB0802104603B0BDE8F083601C391AD7
:10901000E7E713B50446084601920091FBF75AFDB5
:10902000DDE9001203462046FFF7C2FF02B010BD83
:1090300073B5044616460D4619B912B10D48FFF72F
:1090400083FD731B0F2B019307D9002201A9204632
:10905000FFF750FE019B2060A3603246294620683E
:10906000FFF7B0FE019B226863600021D15402B07B
:1090700070BD00BF37B60B0008B54FF00003FFF717
:10908000D7FF08BD2DE9F0410D461746984600F17F
:109090000803044603603946094A2846FFF754FE90
:1090A0002E686A683118D21B2046424594BF8A1840
:1090B00001EB0802FFF7E0FF2046BDE8F08100BFAA
:1090C00088BB0B0037B50D46044611462846064AB4
:1090D0000193FFF739FE019B024629462046FFF720
:1090E000D1FF204603B030BDA3BB0B007FB50024E9
:1090F0001023CDE90234036815469E6912686B4659
:10910000CDE90044B0479DF8043003F00603062B78
:1091100003BF009B2B600120204604B070BD009867
:10912000904214BF012006207047000010B5034B89
:109130000360044600F0CDF8204610BDF0BB0B00E4
:1091400010B50446FFF7F2FF20460821FBF723FD88
:10915000204610BD2DE9F0411F46DDE90834DDF859
:10916000188098450646154607D1079900F0B4F8CF
:1091700018B165710020BDE8F0813946304600F035
:10918000ABF80028F6D00123C4F800802571A37144
:10919000F0E738B515461C4600F09EF820B10823CC
:1091A000E36006232560237138BD73B505460C4680
:1091B00001921E4600F090F850B9032E08D823689B
:1091C000019A5B692946204602B0BDE87040184705
:1091D00002B070BD10B5034B03600446FFF7A6FF55
:1091E000204610BD50BC0B0010B50446FFF7F2FF3F
:1091F00020460C21FBF7CFFC204610BDF7B5089F99
:10920000974205460E4614460AD0A8680268089799
:10921000156A31462246AC4603B0BDE8F0406047CF
:109220001946019300F058F8019B0028EDD0062064
:1092300003B0F0BD2DE9F14F0D461946DDE90A4BAB
:10924000DDE90CA681461746984600F045F890B136
:10925000002D3460377109DB61198A450CBF062186
:109260000121B171002001B0BDE8F08F0235F9D1C4
:109270000123B371F6E7544506D15946484600F03C
:109280002BF808B17771EDE7D9F808000368CDE94C
:109290000CA6CDE90A4BDC693A4643462946A4466A
:1092A00001B0BDE8F04F60472DE9F04107460C469C
:1092B00015461E46FFF76DFF48B9B86803689F69F9
:1092C0002A4633462146BC46BDE8F0416047BDE82A
:1092D000F081704700207047814208B50ED0406889
:1092E00003782A2B0CD049680B782A2B08BF013150
:1092F000FBF7E6FBB0FA80F0400908BD0120FCE76F
:109300000020FAE710B50C4641690369826986B00E
:1093100001F26C71049101680391416802918168C6
:109320000191C1680091074903EB43030B440649CF
:1093300002EB42020A4420460449FCF789FF20461A
:1093400006B010BDBEBC0B00A9BC0B0089BC0B0055
:10935000002301461A46184600F0C0BF10B5013977
:109360000244904201D1002005E0037811F8014F3A
:10937000A34201D0181B10BD0130F2E70A4491420C
:1093800000F1FF3300D1704710B511F8014B03F81D
:10939000014F9142F9D110BD884210B501EB020492
:1093A00002D98442234607D8431EA14208D011F8AF
:1093B000012B03F8012FF8E7024401468A4200D14D
:1093C00010BD13F8014D02F8014DF7E702440346C2
:1093D000934200D1704703F8011BF9E738B5104BF1
:1093E0001D68AB6B0446B3B91820FCF711FF0246A9
:1093F000A86320B90B4B0C484221FCF751FF0B49E5
:109400000B4BC0E900130B4B83600B2383810021BE
:109410000120C2E90401AB6B00221C615A6138BD16
:109420000CE30320E2BC0B00F9BC0B000E33CDAB08
:1094300034126DE6ECDE0500034611F8012B03F84B
:10944000012B002AF9D17047024B0146186800F041
:1094500003B800BF0CE3032037B5044608460D46A9
:10946000FBF738FB421C114620460192FCF708FF2F
:10947000044618B1019A2946FFF780FF204603B041
:1094800030BD10B57AB103460139841813F8010BC9
:1094900011F8012F904201D1A34201D1801A10BDD1
:1094A0000028F3D1FAE71046F9E710B50246014467
:1094B0008A42134603D01C780132002CF8D1181AC6
:1094C00010BD70B504460D4645EC104B164601F034
:1094D0005FFE51EC100B7EB1C5F30A53C3F16B0371
:1094E000002B09DD1B0503F17F55002405F5401510
:1094F00022462B46FAF750FF70BD00000000000026
:109500002DE9F04F2DED028B9DB01F4600231893DF
:10951000A24B13921B680593044618468846FBF736
:10952000D9FA4FF0000A05464FF0000BCDF85C80E9
:10953000179B1A782B2A4ED03BD80D2A34D8082AEC
:1095400034D8002A3ED000230A93179E3378302B5C
:1095500040F0B080737803F0DF03582B68D10A9B8A
:10956000019318AB029700938D4A19AB17A92046B7
:1095700000F07EFF10F00707054605D0062F2CD11E
:109580000136002317960A93139B002B40F0908519
:109590000A9BEBB152460BF1004343EC102B1DB07C
:1095A000BDEC028BBDE8F08F202ACCD1013317939C
:1095B000BEE72D2AC7D101220A925A1C17925B7866
:1095C000002BC2D1139BCDF85C80002B40F06E8540
:1095D00052465B46E1E70022EEE7189A3AB13521A0
:1095E0001AA801F0E0FE1899204601F09FFA013F09
:1095F000042F06D8DFE807F00A0314170A00DDE994
:109600001AAB2807C0D54BF0004BBDE7DDE91AA324
:10961000199A23F4801302F2334243EA025BF0E723
:10962000DFF880B1EDE76FF0004B4FF0FF3AE8E76D
:10963000179B5A1C17925B78302BF9D0002BA3D0C4
:1096400001234FF000090493179B0893CDF81C9059
:109650004F460A2217980678A6F13003D9B2092995
:109660002AD905992A46FFF70CFF98B30020324605
:109670003D4605900346652A01D0452A18D11DB9FB
:10968000049A02439ED00025DDF85C8008F10102B7
:10969000179298F801202B2A75D02D2A7BD04FF0F5
:1096A000000CA2F13001092940F28280CDF85C80E3
:1096B00000269DE00023C4E7082FD8BF079900F1DA
:1096C0000100DABF02FB0133079302FB09390137BE
:1096D0001790BFE7179B5A1917925A5D002F37D082
:1096E00005903D46A2F13003092B12D90123C2E7B0
:1096F000179B5A1C17925A780130302AF8D0A2F1E1
:109700003103082B00F2D984179B059000200893A1
:109710000546303A00F1010314D00599194405912A
:109720002B4600EB050E0A21734513D12B18082B8D
:1097300005F1010505441CDC07990A2303FB0123FD
:1097400007930023179A511C179152781846C9E7BE
:109750003846D2E7082B04DC079E4E4307960133B8
:10976000E2E703F1010CBCF1100FD8BF01FB09F9CE
:10977000F5E7102DDCBF0A2303FB0929E1E70023ED
:10978000059301237CE74FF0000C08F102021792C9
:1097900098F8022085E74FF0010CF6E770BF0B0048
:1097A00084BD0B000000F07F179A511C179152786E
:1097B000302AF9D0A2F1310108293FF679AFA2F1A0
:1097C000300E179A0692179A511C17915278A2F1EF
:1097D0003006092E37D9069E891B082944F61F66D4
:1097E00002DC7645A8BF7646BCF1000F00D0764279
:1097F000002D4DD1049901437FF4C6AE002B7FF4B8
:10980000E1AE692A27D024DC492A24D04E2A7FF4ED
:10981000D9AE9F4917A801F083F800283FF4D2AED3
:10982000179B1B78282B2DD19A491AAA17A801F04B
:109830008BF8052826D11B9BDDF868A043F0FF4B71
:109840004BF4E00BA0E60A2101FB0E2EAEF1300E28
:10985000B9E76E2ADBE7904917A801F061F8002804
:109860003FF4B0AE179B8D49013B17A8179301F049
:1098700057F810B9179B01331793DFF830B24FF048
:10988000000A81E6864801F0E3FD5BEC10AB7BE665
:10989000059B0798F31A002F08BF2F46102D06933B
:1098A000A846A8BF4FF01008FAF7FCFC092D824625
:1098B0008B4613DD7B4B03EBC80353E91223FAF706
:1098C0006BFD824648468B46FAF7ECFC02460B4697
:1098D00050465946FAF7AAFB82468B460F2D38DCD4
:1098E000069B002B3FF450AE24DD162B0BDC6D499C
:1098F00001EBC301D1E9000152465B46FAF74CFD8A
:1099000082468B4640E6069AC5F12503934220DB4A
:10991000644CC5F10F0504EBC50152465B46D1E925
:109920000001FAF739FD069B5D1B04EBC504D4E981
:109930000023E3E7069B16330BDB059B9E1B594B6D
:1099400003EBC606D6E9002350465946FAF74EFE09
:10995000D6E7069BA5EB08089844B8F1000F74DD24
:1099600018F00F030AD04F4901EBC30152465B4682
:10997000D1E90001FAF710FD82468B4638F00F0856
:109980004FD0B8F59A7F22DD00252E460795059524
:109990002223DFF818B123604FF0000A079B002B49
:1099A0003FF4F2AD1899204601F0C0F80599204621
:1099B00001F0BCF83146204601F0B8F8079920467E
:1099C00001F0B4F82946204601F0B0F8DCE5364B4A
:1099D000049300234FEA2818504659469946B8F197
:1099E000010F21DC0BB182468B462F4BABF1547B30
:1099F00003EBC90952465B46D9E90001FAF7CCFCF2
:109A00002A4B0A460B402A498B428246BCD8A1F514
:109A100080118B4286BFDFF89CB04FF0FF3A02F115
:109A2000547B0023049384E018F0010F05D0049BBD
:109A3000D3E90023FAF7B0FC0123049A083209F1B4
:109A400001094FEA68080492C9E7EAD0C8F10008A2
:109A500018F00F020AD0134B03EBC20350465946CD
:109A6000D3E90023FAF7C2FD82468B465FEA281845
:109A7000D7D0B8F11F0F1FDD00252E46079505959D
:109A800022234FF0000A4FF0000B236086E700BF4F
:109A90007FBD0B0098BD0B0076BD0B0079BD0B00A0
:109AA000A8BC0B0030C00B0008C00B000000F07F0A
:109AB0000000A07CFFFFEF7F18F0100318BF6A239F
:109AC000DFF8AC93049350465946002318F0010F79
:109AD00004D0D9E90023FAF75FFC01235FEA6808A4
