:02000002B0004C
:1040000000400B00D8E00B00000006000C00050289
:084010000401A30F00000000F1
:04401800CCCE0B00FF
:1040200009480A49884208B505D0094A824202D0A7
:10403000121A06F072FE0748074A0021121A06F00B
:1040400094FE014808BD00BF90D2032098DE0B000B
:10405000A8D40320A8D40320F1E7032070B5074EAD
:10406000074C04F007FFA41BA4080025AC4200D1B4
:1040700070BD56F8043B98470135F7E744DE0B0066
:104080006CDE0B0000F0CEBB08B500F03FFDBDE8D4
:10409000084004F0A7BE02F0CDBC02F0CBBC02F099
:1040A000D1BC02F0CFBC0078B0FA80F04009704774
:1040B0000123037070470000014B01221A70704702
:1040C00044D7032010B504F009FE044604F01EFE98
:1040D0000D2C13D10E4B1A68824203D018600D4B81
:1040E00001221A7004F006FE38B90B4B1A68A2427E
:1040F0001FBF1C60074B0C221A7010BD002CF1D1A1
:10410000064B1A688242EDD018600B22014BE8E79B
:10411000A8D2032044D70320B0D20320ACD203207E
:1041200008B5044B01221A7002F06EF9024B1860B8
:1041300008BD00BFC0D40320A0D60320436913B13B
:1041400083690C301847704713B5002104460846B0
:1041500002F0FCF90023204601A9019302F00EFAB7
:10416000019C0CB1012323710021012002F0EEF922
:104170002CB1236820469B6898470023237102B026
:1041800010BD012A02D1016000207047022A04BF3D
:104190000B680360F8E7036818470EB403B503AB78
:1041A000002153F8042B019304F0B7FC02B05DF832
:1041B00004EB03B0704700002DE9FF4705460846B1
:1041C0000C4606F048FE2946064601A806F01DFEEC
:1041D0004149424D01A807F0A9FC06F076FD2146B1
:1041E00005EB402006F0F8FDB6F5007F40D205F063
:1041F00007FA2A463A493B4FFFF7CFFF28463A498C
:104200003A4D07F093FC00240026DFF8ECA0DAF822
:104210000030A34229DD2A463549DFF8E09002F05C
:1042200029FC3149002007F081FC2B68062B05F1A1
:1042300004054FEAC4081ED806F044FDD9F8003042
:10424000324651EC100B98443B4606F053FB1CA33E
:10425000D3E9002306F06EF8C8E9000122490020E6
:1042600007F064FC40BBCAF80040224B02221A70DF
:1042700004B0BDE8F087113B042B0ED806F022FDF8
:10428000D9F80030324651EC100B98443B4606F00A
:1042900031FB0DA3D3E90023DCE706F013FDD9F8C9
:1042A0000030324651EC100B98443B4606F022FB9E
:1042B00007A3D3E90023CDE70134A6E7AFF30080DD
:1042C00044FAEDEBC039CB3F04560E2DB29DFE3FB4
:1042D000EFC9C342AD69E43FE0CE0B0045D70320F0
:1042E000E8CE0B0000408F40ECCE0B0034D603200C
:1042F000EFCE0B0044D70320B4D2032098D603207E
:104300000EB403B503AB012153F8042B019304F061
:1043100004FC02B05DF804EB03B0704710B505F083
:104320006FF9044602F02EFC024902462046FFF7D0
:10433000E7FF10BD06CF0B0010B58368044613B12C
:10434000032201469847204610BD000037B5134BA5
:10435000036004468068C8B100256FF00043CDE9D2
:10436000003502212B462A4602F010F9A0682946A2
:1043700002F044F9237903F0FF0513B102F0DEF8EF
:10438000F8E7A068294602F0F1F8A56004F10C00F6
:10439000FFF7D2FF204603B030BD00BFECD20B00C8
:1043A00010B50446FFF7D2FF20461C21FFF779FE27
:1043B000204610BD000000002DE9F04F2DED028BCE
:1043C0009DB0CDE90232504F05468B468A46002407
:1043D00000264FF000084FF00009029B9C4217DABC
:1043E000BAEC027B424651EC170B4B468DED007B3D
:1043F00006F0E6FB08B1DDE90089DDE9000132469F
:104400003B4606F0BFFB08B1DDE900670134E4E795
:1044100032463B464046494605F08AFF38A3D3E979
:10442000002306F03DF932463B4605F083FF4FF08E
:10443000000A41EC180B5446029B9A4512DCFBE83B
:10444000020153EC182B06F09DFB40B1039A1CAB04
:1044500003EB840352F82A2043F8602C01340AF15C
:10446000010AE9E705F0CCF8284942464B46FFF738
:1044700094FE05F0C5F8264932463B46FFF78DFE0F
:1044800005F0BEF82349FFF788FE6CB300231E46F3
:104490002F1D1CAA02EB830252F8602C45F836202F
:1044A00004AA02EB8300026850F8041F01398A4213
:1044B00003F10103F7D00132A34247F8362006F199
:1044C00001020FDDDFF854800024B4420CD005F067
:1044D00097F857F8343055F834204146FFF75DFE21
:1044E0000134F2E71646D4E70B4B032220461A703C
:1044F0001DB0BDEC028BBDE8F08F00BFAFF30080B4
:10450000333333333333D33F000059401CCF0B00D8
:104510003ACF0B0057CF0B0044D7032095CF0B00A9
:1045200070B590B003F006FC03F04EFC03F002FC03
:104530003D4A3E4C01460BA804F080F90BA803F05D
:10454000FAFC03F0F7FB3A4A01460BA804F076F9AF
:104550000BA803F0F0FC03F0EDFB364A01460BA874
:1045600004F06CF90BA803F0E6FC03F0E3FB324A1D
:1045700001460BA804F062F90BA803F0DCFC03F081
:10458000D9FB2E4A01460BA804F058F90BA803F0FA
:10459000D2FC03F0CFFB2A4A01460BA804F04EF9E7
:1045A0000BA803F0C8FC03A803F0FBFD254B03A8F0
:1045B000196803F009FE0FCC06AD0FC506AD0FCD8F
:1045C00026680BAC0FC40BA8266003F0B5F90446AF
:1045D0000BA80CBB03F0CCF90094ADF80A00022341
:1045E0000DF10A02032103A803F0D0FD03F0A2FBA2
:1045F000002203A903F032FC05F002F8124904F08E
:1046000064FA03F097FB1149002204F019F80398AB
:1046100002F018FA10B070BD03F0ACF9002300935B
:10462000024610230721DEE7C4D40320F0D4032080
:10463000B8D40320A8D40320B0D40320CCD40320C2
:10464000D4D40320A4D20320A3CF0B0021410B001C
:10465000F0B513491348144E124D144F85B002F0B3
:1046600016FF002433680A2253F82410684602F02B
:1046700020FF6946284602F059FF684602F0A8FE6E
:10468000172C03D03946284602F05EFF0134182C5F
:10469000E8D10749034805B0BDE8F04002F054BF37
:1046A000C7CF0B00B8E10320B4E10320D6CF0B0045
:1046B000D8CF0B002DE9F041C02002F0BBF92B4D03
:1046C000286028B904F09CFF2949FFF766FDFEE742
:1046D000C02002F0AFF9274C206028B904F090FF09
:1046E0002549FFF75AFDFEE7C02002F0A3F9234E4B
:1046F000306028B904F084FF2149FFF74EFDFEE742
:10470000602002F097F9DFF88880C8F8000028B927
:1047100004F076FF1B49FFF740FDFEE7602002F042
:1047200089F9194F386028B904F06AFF1749FFF773
:1047300034FDFEE72868C022002106F016FB206841
:10474000C022002106F011FB3068C022002106F0D3
:104750000CFBD8F800006022002106F006FB386848
:104760006022BDE8F041002106F0FFBA9CD603208C
:1047700029D00B0094D6032057D00B0098D60320E5
:1047800081D00B00AED00B00C8E10320D6D00B00C7
:10479000B4E1032008B50C4A0C4B11681868196085
:1047A0000B4B19681160C0220021186006F0DDFA79
:1047B000084A094B1068196811601860BDE8084084
:1047C0006022002106F0D1BA94D603209CD60320A3
:1047D00098D60320C8E10320B4E1032008B50121E5
:1047E000002005F0FDFB0121084605F0F9FB012141
:1047F000022005F0F5FB0121032005F0F1FB01216A
:10480000042005F0EDFB0121052005F0E9FB012165
:10481000062005F0E5FBBDE8084001210A2005F06F
:10482000DFBB000070B53D4D90B0FFF7D7FFFFF73D
:1048300077FEFFF73FFF0A232B7002F0D3F810B981
:1048400002F0C8F8F9E702F0CDF80126B7EE000A49
:1048500000242E7004F0E8F904F006FA0321082081
:1048600005F0BEFB4FF0FF332D490094324608207F
:1048700004F0EEFE2B4A2C490AA801F0E3FC0AA939
:1048800006A802F091FE0699284840F25B7200F0FB
:104890001CFD06A802F09CFD23462246CDE90044FB
:1048A0002349244802F0AEF82B78069302222346CF
:1048B00006A9214802F086F804F0A2FE1F4904462A
:1048C00006A802F0D0FD04F0F8F90A22014602A879
:1048D00002F002FE02A906A802F059FE184B016878
:1048E00012481A4600F0E8FD164902462046FFF736
:1048F00054FC02A802F06CFD06A802F069FD0B480A
:1049000000F0D5FC40B11049104A084800F05FFEA5
:104910000F49064800F0FFFF10B070BD44D70320D8
:104920001D430B0002D10B00D4D60320D4D50320A5
:10493000B9410B004ED10B0016D10B006FD10B000B
:104940001CD10B0021D10B003ED10B0032D10B004A
:1049500048D10B0000B51B4889B000F0A8FC28B175
:10496000184809B05DF804EB00F08DBE04F048FE75
:104970001549FFF712FC1549684602F074FD04F072
:104980009CF90A22014604A802F0A6FD04A9684683
:1049900002F0FDFD0E4B01680A481A4600F08CFD3E
:1049A00004A802F015FD684602F012FD054800F06B
:1049B0007EFC20B104F024FE0649FFF7EEFB09B0AF
:1049C0005DF804FBD4D5032055D10B006AD10B0050
:1049D0001CD10B0077D10B0038B5046805467CB1BB
:1049E0006368013B63605BB9236820469B68984716
:1049F000A368013BA3601BB923682046DB68984786
:104A0000284638BD30B5134B00258DB01D700446C7
:104A100004F090F9059004F085F9611CCDE900419E
:104A2000059A0D490295034608A802F0D7FD0B4BE5
:104A3000089A1B780A498DF8003006A83C2304F038
:104A400077FB07A8FFF7C8FF08A802F0C1FC0DB06C
:104A500030BD00BF45D703208BD10B0068D50320A4
:104A6000DED10B002DE9F0418AB005460E4604F078
:104A7000C7FD1E491E4FFFF790FB1E4902A802F01A
:104A8000F2FC002405F10408B44210DA58F834307E
:104A900055F83420394606A802F0A0FD06A902A860
:104AA00002F044FD06A802F093FC0134ECE7124B3F
:104AB000029A1B7811498DF8003006A83C2304F0B7
:104AC00037FB07A8FFF788FF029A0D490D4800F051
:104AD0007EFD0C4800F0D7FD0B4B052202A81A7092
:104AE00002F076FC0AB0BDE8F08100BFE7D10B0010
:104AF0000ED20B00F0D10B0068D503201DD20B00A5
:104B00004ED10B00D4D5032044D7032030B55E4CE2
:104B1000C7B0FFF71FFF2378012B06D106232370B0
:104B200004F0F4F80130FFF76DFF2378022B1FD15A
:104B3000564B5749574A09681B685748FFF73CFCD2
:104B4000564B186004F05CFD054604F0C7F8019070
:104B500004F0D0F8019A524903462846FFF71DFB9E
:104B6000032323704D4B4C481968FFF77BFF01E08E
:104B7000032BF7D02378042B69D14A4D04F040FD74
:104B80004949FFF70AFB2A68484902A801F06AFF71
:104B90004749484802AA00F01AFD2A68464906A873
:104BA00001F060FF45480023FF2206A902F0A0FFA4
:104BB00005232370424C257801F026FC414B1B68ED
:104BC000C01AB0F5AF6F31D9002D2FD0354B3A490F
:104BD0001A683D4D06A801F045FF0023FF2206A9F3
:104BE000364802F085FF29683848002202F0E0FFCD
:104BF00029683748002202F0DBFF364B3648196837
:104C0000002202F0D5FF354B35481968002202F02A
:104C1000CFFF344B34481968002202F0C9FF00234B
:104C2000237004F0EDFC3149FFF7B7FA04F0E8FC1B
:104C3000044601F0A7FF2E4902462046FFF760FB1D
:104C40004FF47A7047B0BDE8304004F089B80B2BC0
:104C500002D1FFF79FFDABE70C2BABD1254B1D68B5
:104C600004F03CF800F180400138104955F820204C
:104C700006A801F0F7FE20490E4806AA00F0A7FC9E
:104C8000FFF7E6FC94E700BF44D70320B4D203202B
:104C900094D6032034D603206CD50320CCD5032032
:104CA0002DD20B00D0D5032047D20B002FD10B0003
:104CB0005BD20B00D4D5032061D20B00C4D40320F7
:104CC000C0D40320A0D60320A4D60320B8D4032048
:104CD000A8D40320B4D60320B0D40320CCE1032011
:104CE000D4D40320B8E10320CCD4032076D20B0027
:104CF00085D20B00B4E103206DD20B0082B0F0B579
:104D00008FB015AD15930023C0E9003306469446D5
:104D10000F460FCD04AC0FC42B6823601AAD0FCD26
:104D200009AC0FC42B682360209B02931F9B019347
:104D300009AB0093304604AB6246394603F026FCCB
:104D400030460FB0BDE8F04002B070472DE9F04F9B
:104D50008C4B8D4DDFF8CCB2DFF8CCA2DFF8CC92D3
:104D6000DFF8CC824FF001021A70884B93B01968BB
:104D7000284602F07FFE864B5846196802F07AFEFC
:104D8000844B5046196802F075FE834B48461968FB
:104D900002F070FE814B4046196802F06BFE804BBA
:104DA0008048196802F066FE7F4B8048196800242D
:104DB00002F060FECDE909442E460FCE10270DEB20
:104DC000070CACE80F003368CCF800300BF104039B
:104DD0000FCB8DE80F00DBF80030754975483A4677
:104DE000FFF78CFFCDE90944AE46BEE80F000DEB9E
:104DF000070CACE80F003368CCF800300AF104036C
:104E00000FCB8DE80F00DAF800306B496B483A465B
:104E1000FFF774FFCDE90944AE46BEE80F000DEB85
:104E2000070CACE80F003368CCF8003009F104033C
:104E30000FCB8DE80F00D9F80030614961483A4640
:104E4000FFF75CFFCDE90944AE46BEE80F000DEB6D
:104E5000070CACE80F003368CCF8003008F104030D
:104E60000FCB8DE80F00D8F80030574957483A4625
:104E7000FFF744FFCDE90944AE46BEE80F000DEB55
:104E8000070CACE80F003368CCF80030454B043316
:104E90000FCB8DE80F00434B4D491B684D483A46F8
:104EA000FFF72CFFCDE909440FCD0DEB070CACE863
:104EB0000F003E4D3368CCF800302B1D0FCB8DE832
:104EC0000F003A462B6844494448FFF717FF44490E
:104ED000444802F0C8FA4249434802F0C4FA404943
:104EE000424802F0C0FA3E49414802F0BCFA3C494F
:104EF000404802F0B8FA404B0E930EAD3F4B404A8B
:104F00001A6095E8030003F10C020CAE86E803007A
:104F100092E8030085E8030096E8030082E80300B6
:104F2000384A5A619A691192374A1C719C609A6199
:104F30004EF66021354A109403F10800CDE9004493
:104F400001F00CFB2846FFF7F7F9314B01931E23C4
:104F500040F25B7200932F4902944FF400732E4885
:104F600000F0ACF82D49084602F066F92B492C48B0
:104F700001F0A0F82146012013B0BDE8F04F01F088
:104F80008DBC00BF68D50320F0D40320B8D2032025
:104F9000BCD2032098D2032090D2032094D20320C5
:104FA0009CD2032018D50320A0D2032054D503207F
:104FB00090D20B00C4D4032099D20B00B8D40320A4
:104FC000A7D20B00A8D40320B1D20B00B0D4032089
:104FD000BED20B00CCD40320C8D20B00D4D4032003
:104FE00094CF0B00A4D60320B4D60320C4D603204C
:104FF000B8E10320CCE10320C5400B004CE10320C5
:10500000ECD20B0083410B0097410B0049410B0090
:10501000B9400B00D6D20B00D4D5032068E10320A1
:10502000D4D60320DCD4032040D5032004D50320AC
:105030002CD5032091F85C3010B50446016013B103
:10504000886D01F0B3FA204610BD10B5036893F8DF
:105050005C20044612B1986D01F0B0FA204610BDF4
:10506000F8B51F469DF8243004460D4616462BB170
:10507000012380F85C30583001F090FA089B2363DC
:105080000023636306B1A66425B1294604F1380004
:1050900002F0FDF9069B2365079BE069A4F84C70BC
:1050A000FF2BB8BFFF23A4F8543008B1FEF7F7FF79
:1050B000B4F85400FEF7F1FFE061F8BD2DE9FF41BF
:1050C00004460025174698460E4604F047FE0D4953
:1050D000E56104F1380002F0C6F99DF83030039321
:1050E0000B9BA564CDE901830A9B0093204684F8BD
:1050F0005C503B462A463146FFF7B2FF204604B0DB
:10510000BDE8F08194CF0B0010B50446204604F0B2
:1051100081FD0028FAD0204604F08AFBC0B210BD01
:105120002DE9F04705468846FFF7EEFFEB6918705A
:10513000EB6993F800A04FF001090AF0F00A00278C
:105140004C462846FFF7E0FF2646EB69985500F0ED
:105150007F0313FB09F31F4401340306A4B2BFB25B
:105160004FEAC919EDD4631EBAF1300F88F8003048
:105170001ED12846FFF7C8FFEB6918552846FFF7F0
:10518000C3FFF41C0236B6B2EB69A4B298550226EE
:10519000B6B2BE420ED22846FFF7B6FFB5F854307D
:1051A000A34284BFEB6918550134A4B20136EFE77E
:1051B0000026EDE7B5F85430A3422CBF204600206E
:1051C000BDE8F0872DE9F34115461E461A4607460D
:1051D0000023964602A802F07F0CBEF17F0F03F178
:1051E0000104034488BF4CF0800CBEF17F0F4FEAEE
:1051F000D212E4B203F804CC1ED8C4F10403C4F103
:105200000500E954224601A9284405EB030805F0EE
:1052100084FD721C22444146384604F0F4FA0546E7
:1052200001F0F2F8621C78623244A8B2131A5842B4
:10523000584102B0BDE8F0812346CAE713B50446E1
:10524000014601A8FFF7F6FEE369E0221A70E36960
:1052500000225A70E1690222204604F0D4FA204666
:1052600004F032FD01F0D0F8C4E9090001A8FFF70D
:10527000ECFE02B010BD0233F0B5054698B2002333
:10528000CE5C9CB256B1B5F854C0844503F1010719
:1052900004D9441C16543B46A0B2F1E799B2411A16
:1052A0000A44210A02F8021C02F8013CF0BD38B59C
:1052B000044604F0D1FB002814BF0125002502D1CB
:1052C000204604F001FD284638BD70B504460E4660
:1052D0001546FFF7ECFF10B12046FFF7AFFF314650
:1052E00004F1380002F0D3F80023A364A4F84C5072
:1052F00070BD00002DE9F04788B00446DDF840801D
:105300009DF850A0894617461E46FFF7D0FF054678
:10531000002840F0CD80214601A8FFF78BFEA16C4C
:10532000002940F08880B4F84C20A16B2B46204621
:1053300004F014FB00287AD0012323849DF8543014
:10534000E269042B5B4B40F08180186899889B7957
:10535000ADF80C108DF80E300290C2F805009DF8E3
:105360000E30BDF80C10A2F80910D3720C23B8F15E
:10537000000F00F081809DF848009DF84420400116
:1053800040EAC20040F00600C0B2BAF1000F01D1FD
:1053900000F0FD001FB1002E70D140F08000E269E6
:1053A000D054226DE169581C12120A549A1CE1690A
:1053B000206D88540333E26949462046FFF75BFFBE
:1053C0000346B8F1000F0BD0E26941462046FFF7D3
:1053D00052FFE269139903462046FFF74CFF03464C
:1053E00067B1E26939462046FFF745FF03462EB113
:1053F000E26931462046FFF73EFF0346053BE2697E
:105400009BB210212046FFF7DDFE00F0FDFFC4E94E
:1054100009004FF47A76204604F0FCFB88BB00F0CC
:10542000F3FFA36AC01A236D73439842F3D9204651
:1054300004F04AFC35E002A804F078F8B4F84C20F7
:105440002B4602A9204604F069FB73E7D3F8070056
:10545000D3F80B10DB7B0DF1080CACE803008CF8E3
:10546000003002AB03CBC2F80500C2F809109CF86B
:10547000003053730E237AE7022086E740F0C00025
:105480008DE702A92046FFF74BFE0428CFD1E36940
:10549000DE78002ECBD100F0B7FF0125A06284F8A2
:1054A0002C6001A8FFF7D1FD284608B0BDE8F087C1
:1054B0000025F9E703D40B0010B54FF0040C86B0BB
:1054C0000124CDE9044C0024CDE90244CDE9004497
:1054D000FFF710FF06B010BD2DE9F74FDDF83C8057
:1054E0009DF834509DF8389004468B4616461F466A
:1054F000FFF7DDFE8246002851D0214601A8FFF7C4
:1055000099FDB4F85420E069002105F02EFC052334
:10551000E26959462046FFF7AEFE6B1E012B15D8F7
:10552000218CE369013189B22184090A1954421C92
:10553000E369218C92B20230995480B2B8F1000F25
:1055400004D0238C5A1C2284A8F8003000210B18A8
:105550008F42E2699BB20AD9B4F854C09C4506D97F
:1055600016F801C002F803C0013189B2EFE79DF8D7
:10557000301000290CBF30213121B9F1000F01D0CA
:1055800041F00801022D0ED141F00401053B9BB210
:105590002046FFF717FE824601A8FFF756FD50464A
:1055A00003B0BDE8F08F012D08BF41F00201EDE727
:1055B0001FB5089C0394002402949DF81C4001949C
:1055C0009DF818400094FFF787FF04B010BD30B578
:1055D00087B0044610460591049205F03CFC002576
:1055E0000346CDE90155DDE9042100952046FFF78A
:1055F000DFFF07B030BD73B504460E46FFF757FE18
:105600000546C8B1214601A8FFF714FDE3696222EF
:105610001A70E36902225A70E369320A9A70E369E8
:10562000DE70E1690422204604F0EDF8051E01A8B1
:1056300018BF0125FFF709FD284602B070BD73B5FC
:1056400004460E46FFF733FE0546C8B1214601A8C1
:10565000FFF7F0FCE36972221A70E36902225A70C4
:10566000E369320A9A70E369DE70E1690422204638
:1056700004F0C9F8051E01A818BF0125FFF7E5FCD5
:10568000284602B070BD2DE9F04F2DED028B87B09A
:1056900000AF0446FFF70BFE8146F8B1214607F143
:1056A0001400FFF7C7FC00F0AFFE236D4FF47A72D1
:1056B0005343A26A821A9A42064603D8626A821A41
:1056C000934221D294F82C307BB1204604F0FCFAAE
:1056D0004FF0000907F11400FFF7B7FC48461C37EC
:1056E000BD46BDEC028BBDE8F08FE269C0211170B0
:1056F000E2695370E1690222204604F084F8C4E9AB
:105700000966012384F82C30204604F083FA00282F
:10571000E0D007F113012046FFF702FD8346002881
:10572000D8D0E369A662197801F0F002302A7FD15F
:10573000D4F830A0BAF1000FCCD097F813C06A4665
:1057400008EE102A03EB0C025178957805EB012541
:10575000ADB205F108026946D208A1EBC202954636
:105760000CF10302FA6003EB020E0DEB0502684632
:10577000C7F808D07A60D7E901218A4206D00A46E4
:105780001EF8018B02F8018BBA60F4E70022425543
:1057900093F80080F96808F00608ABEB0C02033AB6
:1057A000B8F1020FA2EB0502294425D113F801E05C
:1057B0001944023A91F801B00CF105012944194449
:1057C0000BEB0E2BD047E36940221A70E3691FFAF6
:1057D0008BFB83F80180E3694FEA1B229A70E3692F
:1057E00083F803B0E1690422204604F00CF86662F5
:1057F00018EE103A9D466DE7B8F1040F15D113F875
:1058000001E01944023A91F801B00CF10501294474
:1058100019440BEB0E2BD047E36950221A70E36951
:1058200002221FFA8BFB5A70D5E71944D047DFE7F5
:10583000502A08D19A78D97801EB022189B2204602
:10584000FFF7D9FE46E7402A12D1626B002A3FF4E7
:1058500041AFBBF1040F7FF43DAF11F0060F7FF4B1
:1058600039AF9978D87800EB012080B2904731E7C2
:10587000602A08D19A78D97801EB022189B22046B2
:10588000FFF7DDFE26E7702ADFD0902A3FF422AF33
:10589000C02A0AD1D0221A70E36900225A70E16945
:1058A0000222204603F0AFFF14E7D02A04BF0023F2
:1058B00084F82C300EE7F7B504460F461646FFF77E
:1058C000F6FC054610B3214601A8FFF7B3FB238C75
:1058D00001339BB2EBB12384238CE2691B0A537121
:1058E000E369228C9A71E269072339462046FFF763
:1058F000C2FCE3691E54043883B2E2698221204667
:10590000FFF760FC054601A8FFF79FFB284603B0A0
:10591000F0BD0123DFE70022FFF7CDBF0160704734
:1059200070470023F0B51C460568ED5C2E2D00D0B5
:10593000BDB91D1B8D5402F1010C26460A44B34229
:10594000076804DDBF5D02F8017F0136F7E79C427E
:10595000C8BF0025FC5C2E2C08BF013305EB0C02F0
:105960001C4605682D5D0133002DDDD11046F0BDCC
:1059700038B50B46054622EAE2721846002105F0CA
:10598000F4F90124014644710C222846FFF7C9FFAF
:1059900000230B5401444B708C70CB700C7138BDDC
:1059A000B0B582B0054600AF00680C4605F053FA6A
:1059B00000F1190323F00703ADEB030D00F1120210
:1059C000694628467A60FFF7D3FF23687A68DB6868
:1059D000694620469847236820461B6C984708373D
:1059E000BD46B0BDF0B589B01C460F9B1668042BB0
:1059F00015461FD1721C2A60B31C815D2B60F71CF9
:105A0000825C2F600436C35C2E600125C05D84F883
:105A100004510E9DC4F80051009003AD02A803F09C
:105A200079FD0FCD04F586740FC42B6823702020F8
:105A300009B0F0BD33441360F9E72DE9F0470025C4
:105A40002B4602F1FF3E4FF02E0895421DD24C5DD1
:105A50003F2C01EB050720DCE61876451FD81BB16B
:105A6000066806F803800133BA460026A64206EB14
:105A7000030C03DB234401342544E6E707681AF8E6
:105A8000019F07F80C900136F0E703681A440023E1
:105A900002F8013C2020BDE8F0872620FBE7232008
:105AA000F9E72DE9FF410A9C0025A54225D016689B
:105AB00010F8068008F0C00CBCF1C00F00EB060E19
:105AC00006F1010720D117609EF8004002361660EB
:105AD000C25D240204F47C5414448C4202940ED817
:105AE0001B682B440393C5F1FF03009302AA03AB89
:105AF000FFF7D7FF002804DB4419204601E06FF0D0
:105B0000210004B0BDE8F08105F1010C1760B8F187
:105B1000000F05D11B689EF800205A556446ECE73B
:105B2000875D1E6877556546BFE713B5FF2400946F
:105B3000FFF7B7FF02B010BD2DE9F0470546ADF500
:105B40001A7DFF20884614461E4600F073FF04901D
:105B5000B8B104AB224641462846FFF7E6FF10F1F4
:105B6000220F07D1049800F06DFF22200DF51A7D59
:105B7000BDE8F08700F05EFF059020B9049800F0C2
:105B800061FF2720F2E704990391084605F063F9C5
:105B90000399024605A8FFF750FF0599304600F02B
:105BA00087F90746059800F04DFF2268531C2360D3
:105BB000911CA85C2160E95C531D01EB0021A81831
:105BC000236090F804C0901D2060EB5C1B0403EB85
:105BD0000C6302F1070CC4F800C0285C03EB00233F
:105BE00002F10800206015F80C90994402F10903B5
:105BF00023600A32285C226015F803A001290AEB11
:105C0000002A12D1781C77D03946304600F04BF983
:105C1000CDE9009A0346224641462846FFF7E2FEB8
:105C2000049800F00FFF2020A0E7052964D1791C1B
:105C300062D03946304600F036F9002380F804314E
:105C40003946304600F02FF9C0F8009123680693DA
:105C5000534423602846CDF800A004AB06AA414671
:105C6000FFF71FFF10F1220F05463FF47BAF08AC92
:105C7000204600F0E1F9049907946A1E07A8FFF78F
:105C8000DCFE2146304600F02BF9431C25D14FF4B1
:105C90008072214651A805F040F8D4F80031919364
:105CA00094F804318DF848320DF5967C144B93939B
:105CB000BCE80F0094AD0FC5DCF800302B7051A983
:105CC000D4F820319993304600F057F951A800F0EC
:105CD000E7F92146304600F003F90146304600F06E
:105CE000E2F839460546304600F0DDF8C0F82051AC
:105CF000204600F0D5F993E75244226090E700BFB8
:105D000024D70B00F0B50379467906EB0326136818
:105D10000C3313600025AE4216D01368C45C2CB15E
:105D200004F0C007C02F06D1023313601368053397
:105D300013600135EFE73F2C0CD8013323448B422D
:105D40001360EAD92320F0BD136801318B42F9D8E2
:105D50002020F8E72620F6E72DE9F8430024054641
:105D60004FF00108A146284600F0BCF8A0422FDD04
:105D70002146284600F097F8D0F8203133B3214669
:105D8000284600F090F8D0F8203193F80431EBB1B8
:105D90002146284600F087F82146D0F82071284691
:105DA00000F081F807F5867700F586760FCF0FC6ED
:105DB0003B6833702146284600F075F8214680F88C
:105DC0000481284600F06FF8C0F820910134CAE73A
:105DD0002020BDE8F8832DE9F743914690F9022091
:105DE0008378002A0646884628DA9B0722D4C5789D
:105DF00015F00F0520D18379C77917EB03271DD044
:105E000001AA0195FFF77EFF202804460ED14B46DC
:105E100001AA41463046FFF78FFE2028044605D1EF
:105E20000135AF42F3D14846FFF796FF204603B055
:105E3000BDE8F0832524F9E72324F7E72024F5E7DC
:105E4000F0B54A1E0D460446034600F5807112F86F
:105E5000010F03F8010B8B42F9D1D5F80031C4F8DA
:105E6000003195F8043184F8043105F586770FCFB9
:105E700004F586760FC63B683370D5F82031C4F838
:105E80002031F0BD70B50446054600F592662846FF
:105E900005F5927500F0D0F8AE42F8D10023C4F8B1
:105EA0009034204670BD4FF4927303FB010070479D
:105EB0002DE9F041D0F890640546884600244FF45F
:105EC0009277A64207DD414607FB045004F093FF9A
:105ED00018B10134F5E74FF0FF342046BDE8F081FA
:105EE000FFF7E6BFD0F89004704770B5D0F8904443
:105EF000A4B1D0F800510121002200F580734FF4C5
:105F000092768C4208DD06FB01F01858A8423CBF8F
:105F10000A4605460131F4E7104670BD4FF0FF30E8
:105F2000FBE74FF4927303FB0101D0F890240023A8
:105F300030B51C46934209DAD0F820518D4208BF93
:105F4000C0F82041013300F59270F3E730BD38B559
:105F500004460D46FFF7E5FFD4F890144FF4927015
:105F6000013900FB014100FB0540FFF769FFD4F850
:105F70009034013BC4F8903438BD38B504460D4622
:105F8000FFF796FF431C08D04FF49273294603FB9A
:105F90000040BDE83840FFF753BFD4F89034042BDD
:105FA00006D12046FFF7A1FF01462046FFF7CFFFAD
:105FB000D4F890344FF4927000FB03402946FFF769
:105FC0003FFFD4F890340133C4F8903438BD2DE944
:105FD000FF416E4604460546B0460027D4F890348B
:105FE000BB420ADD284600F05CF8D5F8003148F8DD
:105FF000043B013705F59275F0E70025D4F890349D
:10600000AB4208DD56F8043B1BB929462046FFF792
:106010009EFF0135F2E704B0BDE8F08130B587B0EE
:10602000044601AD684603F049FA0FCD04340FC4AD
:106030002B68237007B030BD38B500F58475044671
:10604000284603F01BFA00232846237084F8043105
:10605000C4F80031C4F820314FF0FF31FFF7DEFF04
:10606000204638BD73B500F58476044630461546A3
:10607000019103F003FA01994FF48072204604F075
:1060800006FF00233046C4F8005184F80431C4F8F8
:1060900020314FF0FF31FFF7C1FF204602B070BD45
:1060A0007047D0F80031002BC4BF03F1FF33C0F8B4
:1060B00000317047F8B5044604300D4601F0BCF8D5
:1060C00004F1500003F0DAF90023E3666B68A36083
:1060D000AB68E360EB6823616B69A36105F120079E
:1060E0002B8BA3830FCF04F124060FC63B683370BC
:1060F0002B8FA387EB6B23642B6C63646B6C6A6BD5
:10610000A36495F84830A263204684F84C30F8BD6B
:1061100010B58AB0044603A8FFF700FCFB230093E8
:1061200000231A460434E02104A803F0F3F941F2F5
:10613000E94204A9204601F0CDF8214603A8FFF763
:106140002FFC204600F0E2FD03A8FFF7E9FB0AB0B0
:1061500010BD0000F0B5054689B02D48FFF737FFA8
:1061600095F868402F1D54BB012385F8683003F073
:1061700047FA284902F0A9FC224641F2E941384693
:1061800000F01EFE03F03CFAFB2322460093E021C0
:106190002346064602A803F0BDF902A9384601F0DD
:1061A000EDF8041E1DDA2D21304602F07FFC61421D
:1061B0000A22304602F093FC304602F07AFC0021BD
:1061C000384601F09EF8064600B300F033FC044662
:1061D00048B903F015FA104902F077FC272009B0FE
:1061E000F0BD2146E4E701463246384600F057FE4E
:1061F000384600F0D3FD064A31462046FFF7EBFD56
:106200002860204600F01EFC2868E8E72020E6E72A
:10621000DCE1032013D40B0023D40B0010B5084697
:106220000C4604F018FE052808D906380449204415
:1062300004F0E1FDB0FA80F0400910BD0020FCE759
:106240000FD10B002DE9F0430C46CDB006461146A8
:1062500020461546FFF7E2FF50B903F0D1F938495F
:1062600002F033FC4FF0FF31304603F027F94DE0E8
:106270003448DFF8D090FFF7AAFE4FF00008294617
:106280004846FFF715FE431C07461ED10522294646
:1062900003A8FFF7E7FE484603A9FFF76EFE03A831
:1062A000FFF7FEFEB8F1050FE9D1FB2300930023B1
:1062B0001A46E02103A803F02DF903A9201D01F0DF
:1062C0006EF8002384F86830CCE701464846FFF7B3
:1062D000EAFD90F80431EBB1FB23009300231A464A
:1062E000E02103A803F016F903A9201D01F057F8D7
:1062F00039461448FFF7D7FD3446134B44F8043BA6
:1063000000F586750FCD0FC42B68237030464DB055
:10631000BDE8F08300F078F8E36EC31AB3F57A7F36
:10632000074606DD29462046FFF7F2FE08F1010880
:10633000E7662046FFF70EFF2028B3D092E700BFA4
:1063400031D40B00DCE1032024D70B000148FFF718
:1063500099BD00BFDCE1032008B5024B1B689B68B8
:10636000019308BD6802030008B5024B1B68DB6897
:10637000019308BD6802030008B5024B1B689B68C7
:10638000019308BD2C02030008B5024B1B689B69F2
:10639000019308BD2C02030008B5024B1B68DB69A2
:1063A000019308BD2C02030008B5024B1B685B6912
:1063B000019308BD6C02030008B5024B1B689B6982
:1063C000019308BD6C02030008B5024B1B685B6DAE
:1063D000019308BD6C02030008B5024B1B689B6D5E
:1063E000019308BD6C02030008B5024B1B685B6893
:1063F000019308BD1802030008B5024B1B68DB6857
:10640000019308BD1802030008B5024B1B685B69C5
:10641000019308BD1802030008B5024B1B689B6D71
:10642000019308BD1802030008B5024B1B685B6EA0
:10643000019308BD1802030008B5024B1B685B6D91
:10644000019308BD3402030008B5024B1B689B682A
:10645000019308BD7802030008B5024B1B681B6D51
:10646000019308BD7802030008B5024B1B689B6DC1
:10647000019308BD7802030008B5024B1B681B6E30
:10648000019308BD7802030008B5034B1B68D3F8DD
:106490009830019308BD00007802030008B5034B53
:1064A0001B68D3F8A830019308BD000078020300F0
:1064B00008B5034B1B68D3F8B430019308BD000046
:1064C0007802030008B5034B1B68D3F8D83001935A
:1064D00008BD00007802030008B5034B1B68D3F821
:1064E000DC30019308BD00007802030008B5034BBF
:1064F0001B68D3F8EC30019308BD0000780203005C
:1065000008B5034B1B68D3F8F030019308BD0000B9
:106510007802030008B5034B1B68D3F800310193E0
:1065200008BD00007802030008B5034B1B68D3F8D0
:106530000431019308BD00007802030008B5024B46
:106540001B68DB68019308BD4802030008B5024BD5
:106550001B68DB69019308BD4802030008B5024BC4
:106560001B681B6A019308BD4802030008B5024B73
:106570001B685B6A019308BD4802030008B5024B23
:106580001B689B6A019308BD4802030008B5024BD3
:106590001B68DB6A019308BD4802030008B5024B83
:1065A0001B681B6B019308BD4802030008B5024B32
:1065B0001B689B6B019308BD4802030008B5024BA2
:1065C0001B681B6C019308BD4802030008B5024B11
:1065D0001B685B6C019308BD4802030008B5024BC1
:1065E0001B68DB6C019308BD4802030008B5024B31
:1065F0001B685B6D019308BD4802030008B5024BA0
:106600001B681B6F019308BD4802030008B5024BCD
:106610001B685B69019308BD6402030008B5024B67
:106620001B681B6A019308BD6402030008B5024B96
:106630001B685B6A019308BD6402030008B5024B46
:106640001B689B6A019308BD6402030008B5024BF6
:106650001B68DB68019308BD3C02030008B5024BD0
:106660001B681B69019308BD3C02030008B5024B7F
:106670001B685B69019308BD3C02030008B5024B2F
:106680001B689B69019308BD3C02030008B5024BDF
:106690001B68DB69019308BD3C02030008B5024B8F
:1066A0001B681B6A019308BD3C02030008B5024B3E
:1066B0001B689B6A019308BD3C02030008B5024BAE
:1066C0001B681B6C019308BD3C02030008B5024B1C
:1066D0001B681B6A019308BD2802030008B5024B22
:1066E0001B685B6A019308BD2802030008B5024BD2
:1066F0001B689B6A019308BD2802030008B5024B82
:106700001B68DB6A019308BD2802030008B5024B31
:106710001B681B6B019308BD2802030008B5024BE0
:106720001B685B6B019308BD2802030008B5024B90
:106730001B681B6C019308BD2802030008B5024BBF
:106740001B685B68019308BD3802030008B5024B63
:106750001B689B69019308BD3802030008B5024B12
:106760001B68DB69019308BD3802030008B5024BC2
:106770001B681B6A019308BD3802030008B5024B71
:106780001B689B6A019308BD3802030008B5024BE1
:106790001B68DB6A019308BD3802030008B5024B91
:1067A0001B681B6B019308BD3802030008B5024B40
:1067B0001B685B6B019308BD3802030008B5024BF0
:1067C0001B689B6B019308BD3802030008B5024BA0
:1067D0001B68DB69019308BD3002030008B5024B5A
:1067E0001B681B6A019308BD3002030008B5024B09
:1067F0001B681B68019308BD4C02030008B5024BDF
:106800001B681B69019308BD4C02030008B5024BCD
:106810001B685B69019308BD4C02030008B5024B7D
:106820001B689B69019308BD4C02030008B5024B2D
:106830001B68DB69019308BD4C02030008B5024BDD
:106840001B681B6A019308BD4C02030008B5024B8C
:106850001B685B6B019308BD6002030008B5024B27
:106860001B681B6D019308BD6002030008B5024B55
:106870001B681B68019308BD2002030008B5024B8A
:106880001B685B68019308BD2002030008B5024B3A
:106890001B685B69019308BD2002030008B5024B29
:1068A0001B68DB6A019308BD2002030008B5024B98
:1068B0001B68DB6C019308BD2002030008B5024B86
:1068C0001B685B6D019308BD2002030008B5024BF5
:1068D0001B689B6D019308BD2002030008B5034BA4
:1068E0001B68D3F88830019308BD00002002030024
:1068F00008B5034B1B68D3F89430019308BD000022
:106900002002030008B5024B1B685B68019308BDB9
:106910004002030008B5024B1B689B68019308BD49
:106920004002030008B5024B1B68DB68019308BDF9
:106930004002030008B5024B1B681B69019308BDA8
:106940004002030008B5024B1B685B69019308BD58
:106950004002030008B5024B1B689B69019308BD08
:106960004002030008B5024B1B68DB69019308BDB8
:106970004002030008B5024B1B681B6A019308BD67
:106980004002030008B5024B1B681B6B019308BD56
:106990004002030008B5024B1B685B6B019308BD06
:1069A0004002030008B5024B1B681B6C019308BD35
:1069B0004002030008B5024B1B685B6C019308BDE5
:1069C0004002030008B5024B1B681B68019308BD19
:1069D0004402030008B5024B1B689B68019308BD85
:1069E0004402030008B5024B1B685B69019308BDB4
:1069F0004402030008B5024B1B681B6A019308BDE3
:106A00004402030008B5024B1B685B6A019308BD92
:106A10004402030008B5024B1B681B6B019308BDC1
:106A20004402030008B5024B1B68DB6B019308BDF1
:106A30004402030008B5024B1B681B68019308BDA4
:106A40001C02030008B5024B1B685B68019308BD7C
:106A50001C02030008B5024B1B689B68019308BD2C
:106A60001C02030008B5024B1B68DB68019308BDDC
:106A70001C02030008B5024B1B685B69019308BD4B
:106A80001C02030008B5024B1B685B6A019308BD3A
:106A90001C02030008B5024B1B68DB6A019308BDAA
:106AA0001C02030008B5024B1B681B6B019308BD59
:106AB0001C02030008B5024B1B68DB6B019308BD89
:106AC0001C02030008B5024B1B681B6C019308BD38
:106AD0001C02030008B5024B1B685B6C019308BDE8
:106AE0001C02030008B5024B1B68DB6C019308BD58
:106AF0001C020300002240681146FFF73BBF002242
:106B000040681146FFF746BF40680022FFF73ABFD2
:106B10004068002281F00101FFF724BF0023406894
:106B20001A461946FFF716BF002340681A46194651
:106B3000FFF708BF002240681146FFF7FBBE0022A6
:106B400040681146FFF7E6BE406800220221FFF7C9
:106B5000E9BE002340681A46FFF7D4BE024B032269
:106B60005A60024A1A60704770E6032044D40B0052
:106B700010B5044608462170FFF728FE0023636025
:106B8000204610BD10B5202488B02246002168465A
:106B900004F0EBF800216846ADF80040FFF74CFC2C
:106BA000019808B010BD0000054B02221A60054B89
:106BB000054A9A600020C3E90000FFF75FBE00BFEE
:106BC00084E6032078E603200000FFFF10B50446AA
:106BD00004F041F9013823182046834206D902788F
:106BE000197800F8011B03F80129F6E710BD2DE91B
:106BF000F041931E8CB0222B4FF000030D4614463B
:106C00008DF82C3027D900282ADA2E462D2306F8B5
:106C1000013B40420A240DF12B074FF001082246A8
:106C2000014601A804F055F8029B0198092BCCBF3E
:106C30003722302252FA83F307F8013908F10108AC
:106C40000028ECD14246791C304604F066F828460C
:106C50000CB0BDE8F0810A2AD5D018B12E46DAE78B
:106C60000A24FAE730238DF82B302E460DF12A073F
:106C70004FF00208E6E770B50C46911E22291DD898
:106C8000254630B9234430229D4210D205F8012B0D
:106C9000FAE7B0FBF2F602FB1600C1B2092894BF76
:106CA00030315731C9B205F8011B3046E9E70023FE
:106CB00020462B70FFF78AFF204670BD0020FCE7BE
:106CC00038B5031E0C4615460EDAB3F1004F4FF0EF
:106CD0002D0214BF5842184601230A702A4619444F
:106CE000FFF7C9FF204638BD0123F9E710B4046857
:106CF000246BA4465DF8044B604703689B6C1847FF
:106D0000808E7047028FC08E101A7047F0B50368EE
:106D100089B09F6A0C4B029300F1200604460FCE07
:106D200003AD0FC533682B70A38EE28EE16B009329
:106D3000204602ABB84723680546DB6920469847E2
:106D4000284609B0F0BD00BF24D70B0007B5036883
:106D50008DF80710DB6801220DF10701984703B099
:106D60005DF804FB10B503681B690446984728B119
:106D7000E38EE26B591CE186D05C10BD4FF0FF3012
:106D8000FBE710B503681B690446984718B1E38E0A
:106D9000E26BD05C10BD4FF0FF30FBE7704710B4E2
:106DA00003460846DC6BD98E1A8F0368521ADB68DB
:106DB00021445DF8044B1847A0F11000FFF7EFBF26
:106DC00070B503688CB05B6A04460E46154698475A
:106DD00001231C22002105A8029303F0C6FF40F600
:106DE0001C233046ADF81430FFF728FC1122ADF813
:106DF000160002210A20FFF7E1FC0028606125DB74
:106E00000422009202AB40F6FF71FFF79FFCE8B945
:106E100095B10390ADF8100003A9E8B2FFF7C4FAEA
:106E2000A0B906230093606903AB41F20B0240F660
:106E3000FF71FFF78BFC48B960691C2205A9FFF7B9
:106E40007DFC18B9656401200CB070BD2368204634
:106E50005B6A98470020F7E710B5044640690028B0
:106E600001DBFFF77BFC4FF0FF3363610023E38618
:106E7000238710BD70B50546C06BEE8E68B12B6CD4
:106E80009C1B944228BF14462246304403F045FF21
:106E9000EB8E2344EB86204670BD0446F1E7D0B567
:106EA00003681B6904460F461646984790B123684D
:106EB00020461B699847E38EE16B8642A8BF0646D1
:106EC00019443246384603F028FFE38E3344E38604
:106ED0003046D0BD4FF0FF36FAE730B587B00446F4
:106EE00001AD684602F022FB0FCD04340FC42B68BD
:106EF000237007B030BD0000F0B59646026889B037
:106F0000976A0A4A02921C1D8C4606460FCC03ADB6
:106F10000FC523682B70BDF838300093724602AB62
:106F200061463046B84709B0F0BD00BF24D70B001A
:106F300070B50446054B44F8043B01F120050646B4
:106F40000FCD0FC42B682370304670BD24D70B00C3
:106F5000F0B54378022B8DB005460C46174604D198
:106F6000011D2046FFF7B9FF22E00A2B25D111228F
:106F7000002101A803F0F9FEAB6803B305F1080393
:106F800001AE05F1180C18685968324603C208337F
:106F900063451646F7D1062301A906A807AE8DF86A
:106FA000143002F079FA0FCE04340FC43368237022
:106FB0001FB16888FFF73AFB38800DB0F0BDEB6871
:106FC000002BDBD14FF6FF702E69FFF727FB8642BF
:106FD000D4D105F11401C4E72DE9F04117468EB074
:106FE0000022064601AB084611460192FFF7BCF9A4
:106FF000041E20DB019B2BB35B691BB302A802F0CC
:107000003DFA019B0022586902A9FFF7A1FF02A8DF
:1070100002F05CFAB0B1336803ADD3F838800B4BA3
:1070200008930FCD09AC0FC42B6823703A4608A90A
:107030003046C04704460198FFF78EF920460EB04F
:10704000BDE8F0814FF0FF34F5E700BF24D70B0017
:107050002DE9F047D0F81490B9F1000F90B0054633
:107060000E4690461C463CDB00293AD04FF01C0AE5
:1070700009AF52460021384603F077FECDF80CA048
:10708000DCB14FF47A73B4FBF3F203FB124400213A
:107090005C431023CDE904210791009341F20602DD
:1070A0006B4440F6FF7148460694FFF74FFB0446D9
:1070B00020B1204610B0BDE8F087082403ABCDE92D
:1070C00000736869234642463146FFF75FFB041EA2
:1070D000EFDB05F1340205F11C013846FFF738FFFC
:1070E000E7E74FF0FF34E4E738B5054614462B7D5B
:1070F000062B084610D140F61C231380FFF79EFA9A
:1071000008342B1D24F8060C143553F8042B44F8CE
:10711000042BAB42F9D138BD042BFCD14FF40473DE
:107120001380FFF78BFA60806868FFF777FA60607A
:10713000F1E72DE9F0438BB003AF4FF01C099846FF
:1071400004460D46164600214A46384603F00DFE19
:10715000BDF848103A464046FFF7C6FF9DF80D308F
:1071600053B1CDE900796069002332462946FFF723
:107170001DFB0BB0BDE8F0834FF0FF30F9E7F0B531
:1071800091B00C4606460021154609A81C221F4650
:1071900003F0EBFD09AA00212046FFF7A5FF9DF8AB
:1071A0002530022B2DD1002305930A9B0493BDB1FA
:1071B00002A92846FFF700F990B9039003A90298A5
:1071C000FFF702F948B9039B3BB1DA6812685178BE
:1071D000022914D1526892B105920398FFF7FCF886
:1071E000002F4FF00803009318BF032204AB08BF21
:1071F000042200213046FFF7A9FA11B0F0BD1B6848
:10720000E2E70A2B15D10BAB0FCB04AC84E80F00DF
:10721000002F4FF01403009318BF0C22234608BF21
:107220000D22292130460895FFF790FA00EAE07018
:10723000E3E74FF0FF30E0E738B500254FF47A730D
:10724000C0E901530B4B03F108026C3303614FF0AB
:10725000FF330446026043611C3002F00FF94FF423
:107260000073C4E91035E5862587E56384F8485046
:10727000204638BD78D40B0010B590F8483004464D
:1072800023B1C06B10B10121FCF70BFF0023E363B6
:1072900084F848302364E386238710BD70B5044624
:1072A00016460D46FFF7E8FF0023E66323642EB180
:1072B0002564206C003818BF012070BD002DF8D067
:1072C0002846FCF7EAFE0123E06384F848300028F2
:1072D000EFD0EDE7F8B51746C26B05460C461AB974
:1072E000016C09B1FFF7DAFF04340FCC05F1200679
:1072F0000FC6236833700023286CAF86EB862B877C
:10730000F8BD37B5C26B04460B462AB9016C19B1FA
:107310000193FFF7C3FF019BE16B0022E286228706
:1073200041B1226C32B12068056B2046A847002885
:10733000C8BF208723681B69204603B0BDE83040E2
:107340001847000010B5074B03F108026C330446E0
:1073500002600361FFF780FD2046FFF78DFF2046A6
:1073600010BD00BF78D40B0010B50446FFF7EAFF4C
:1073700020464C21FCF795FE204610BD10B4446910
:10738000002C07DB90F84420012320465DF8044BD5
:10739000FFF7F5BE4FF0FF305DF8044B704710B4B7
:1073A0004469002C07DB90F84420002320465DF858
:1073B000044BFFF7E4BE4FF0FF305DF8044B70471D
:1073C000704710B50C210446FCF76BFE204610BD3B
:1073D00010B504460068FFF735FB204610BD10B518
:1073E0000446006808B1FFF72DFB0023C4E9013310
:1073F000236010BD38B504460D4600680131FFF723
:1074000029FB10B1C4E90005012038BD10B503689F
:10741000044623B143688B4201D3012010BD2046AE
:10742000FFF7E8FF0028F9D0A368002BF5D1226808
:107430001370F2E737B50D46114601920446FFF787
:10744000E5FF019A28B92046FFF7C9FF204603B09F
:1074500030BDA2602946206803F05FFC2268A36863
:107460000021D154F2E7002313B5C0E900330446EC
:107470008360037341B10846019103F0ECFC01996C
:1074800002462046FFF7D6FF204602B010BD13B5D6
:10749000044659B10846019103F0DDFC019902460A
:1074A0002046FFF7C7FF204602B010BDFFF797FF49
:1074B000F9E710B504468AB00023C4E90033A3609D
:1074C0002373084601A9FFF7FBFB01A92046FFF73C
:1074D000DEFF20460AB010BD10B504468AB0002376
:1074E000C4E90033A3602373084601A9FFF77FFBBB
:1074F00001A92046FFF7CBFF20460AB010BD70B5AA
:1075000005460E4609B9002070BD6AB1846814446E
:107510002146FFF77BFF0028F5D02868AB6831468D
:10752000184403F072FCAC600120EDE78A6809683A
:10753000FFF7E5BF38B5044680688568FFF7DFFFD1
:10754000A3689868401B38BD13B50446084651B17E
:10755000019103F080FC01990246204602B0BDE88B
:107560001040FFF7CCBF02B010BD07B500238DF867
:107570000410012201A98DF80530FFF7C0FF03B008
:107580005DF804FB08B58068FFF7EFFF08BD10B594
:107590008A6809680446FFF7B2FF10B92046FFF772
:1075A0001EFF204610BD000030B585B000230D46FB
:1075B0000293C0E90033836003731421064B0193E7
:1075C00004460390FFF722FF2B6801A91B68284699
:1075D0009847204605B030BDF0D40B000EB470B50E
:1075E00087B00BAD044655F8042B01922B460521BC
:1075F00004A80395FFF746FA0B4906462046FFF715
:1076000032FF31462046FFF701FF206830B1019A72
:1076100003952B46711CFFF735FAA060204607B092
:10762000BDE8704003B0704794CF0B0070477047BF
:1076300070477047064B994210B500F10C0405D015
:10764000084602F05FFD002808BF0024204610BD58
:10765000A0D60B00064B994210B500F10C0405D0E2
:10766000084602F04FFD002808BF0024204610BD48
:10767000A0D60B00064B994210B500F10C0405D0C2
:10768000084602F03FFD002808BF0024204610BD38
:10769000A0D60B0010B568210446FCF702FD204679
:1076A00010BD10B528210446FCF7FBFC204610BD98
:1076B00010B530210446FCF7F4FC204610BD6821CB
:1076C000FCF7EFBC2821FCF7ECBC3021FCF7E9BC4F
:1076D000F0B50025EC1C8C420DD86E1C445D875D16
:1076E000974205D12644B14205D31D60601CF0BD10
:1076F00001342544EEE70020F9E70000024A03497F
:107700000A20FFF7A3B800BFF9630B0000D50B00F8
:10771000034608461B68D3E90021104730B40D46E4
:1077200011461A46036809682868D3E90043A4464D
:1077300030BC6047012A38B5044602D10B6823608B
:1077400003E0022A03D0032A0DD0002038BD082010
:107750000D68FCF7A0FC03460028F0D095E8030074
:1077600083E80300EBE700680028EED00821FCF76F
:1077700098FCEAE7012A38B5044602D10B68236079
:1077800003E0022A03D0032A0DD0002038BD0820D0
:107790000D68FCF780FC03460028F0D095E8030054
:1077A00083E80300EBE700680028EED00821FCF72F
:1077B00078FCEAE710B504465830FCF7BDFD04F14B
:1077C0004800BDE81040FFF703BE10B54368013B19
:1077D0000446436063B903689B689847A368013B0C
:1077E000A3602BB923682046DB68BDE8104018472A
:1077F00010BDA0F13003DAB2092A01D8184670474B
:10780000A0F16103052B01D857387047A0F141035F
:10781000052B94BF37384FF0FF30704710B5002369
:107820000370044B04461868FEF7D8FE012323704A
:10783000204610BD90E6032010B5037804461BB126
:10784000024B1868FEF7D2FE204610BD90E60320DA
:1078500082B00346086849686A4603C26A4603CA9A
:1078600018601846596002B0704708B582798B7964
:107870009A4206D1062203F040FAB0FA80F040099D
:1078800008BD0020FCE74FF0FF3303608380002039
:10789000704708B50246002101604160FFF7F3FF21
:1078A0009171104608BD000010B501230361054B1E
:1078B000024603F1100153F8044B42F8044B8B428B
:1078C000F9D110BDAED60B0010B50B460446B1B1D0
:1078D000012A01F110020AD1014653F8040B41F8C4
:1078E000040B9342F9D101232361204610BD411EB0
:1078F00012F8010D01F8010F9A42F9D1F3E71022B5
:1079000003F033FAF1E738B5044615461A46FFF797
:10791000DBFFA581204638BD08B5026922B9808900
:10792000003818BF012008BD0249102203F0E5F914
:10793000F6E700BFCED60B000069704738B50C469D
:1079400014220021054603F010FA23691BB9A3890C
:107950002B80284638BD01232B7421462B4604F189
:10796000100251F8040B43F8040B9142F9D1F0E7EF
:1079700080897047704708B502690B699A4206D141
:10798000102203F0BAF9B0FA80F0400908BD0020D7
:10799000FCE7000001232DE9F3410361344B0C4661
:1079A0000646024603F1100153F8040B42F8040B9B
:1079B0008B42F9D144B32421204603F07BFA0428FA
:1079C0004FF0000523D1ADF8045001AFA51C0634DB
:1079D00015F8020CFFF70DFFB0F1000812DB15F8E7
:1079E000010CFFF706FF00280CDB023540EA081007
:1079F000A54207F8010BEBD19DF8053033739DF8D4
:107A0000043073730023336102B0BDE8F0814FF09E
:107A100010082421204603F04DFAA84207D8424618
:107A20000021304602B0BDE8F04103F09EB9B8F144
:107A3000000FE9D0605DFFF7DCFE030615D40001FE
:107A400008F1FF38C7B206F808702421204603F079
:107A500031FA0135A84208D9605DFFF7CAFE40B28D
:107A60000028A4BF384306F808000135D1E700BF5D
:107A7000AED60B0013B504460191FFF715FF204663
:107A80000199FFF787FF204602B010BD38B54FF6C9
:107A9000FF730025044643800E22294605700571B8
:107AA000063003F062F904F11400FFF7FDFE04F163
:107AB0002800FFF7F9FE044904F13C00FFF7D3FC6E
:107AC0006565204638BD00BF94CF0B0010B5D0E9E6
:107AD000063203EBC2029342184606D0046824889B
:107AE0008C4203F10803F6D110BD0020FCE7000032
:107AF000F0B5064685B01F460D46002950D0002A35
:107B00004ED004682378F42A28BFF42243B32379A3
:107B1000980709D5A08903920023FEF7C9FC002825
:107B2000039A03DA05B0F0BD6FF07700346823796B
:107B3000D90609D5012F07D0A0890023294605B011
:107B4000BDE8F040FEF7E6BC9B06EBD5022FE9D07E
:107B5000A0890023294605B0BDE8F040FEF7E4BC4B
:107B600060884FF6FF7188421CD021794E0701D5FD
:107B7000012F04D10B0709D46FF07700D2E7A18958
:107B8000009313462A46FEF7A7FCCBE7022FF3D05B
:107B90000023A189009313462A46FEF793FCC1E710
:107BA0000248BFE76FF0D100BCE700BFF2FEFFFF65
:107BB00037B50C460546F4212046019203F07AF9C8
:107BC000019B02462146284603B0BDE83040FFF73E
:107BD0008FBF00002DE9F0410026066007462820EF
:107BE0000C46FCF758FA051E05F10C080FD00123CE
:107BF000C5E90133084B2B604046FFF755FE0FCC1B
:107C00002E6285F8246046460FC623683360C7E9B4
:107C100000853846BDE8F08170D60B0070B50025B0
:107C2000056006463020FCF736FA044688B1012389
:107C3000C0E90133094B03604FF6FF7383810E30B7
:107C4000FFF727FEC4E90655C4E90855C4E90A55FB
:107C5000A57574600C343460304670BD8CD60B0052
:107C600037B50D46044601A8FFF7D8FD2A68D2F8BB
:107C700002302360D2F80630636001A8FFF7DCFD14
:107C8000204603B030BD30B5054687B00C4601A88C
:107C9000FFF7C4FD2A68236812881B889A420DD119
:107CA000294602A8FFF7DCFF214604A8FFF7D8FF0A
:107CB00004A902A8FFF7D9FD044600B9002401A8D1
:107CC000FFF7BAFD204607B030BD000010B50446EE
:107CD0006420FCF7E0F968B10023C0E90033C0E993
:107CE0000233C0E90433C0E906330362C362C363ED
:107CF000C364C365206020B90A4A0B490A20FEF715
:107D0000A5FD0020FEF7A0FB20B1064A07490A2086
:107D1000FEF79CFD216806480022FEF7F1FB204695
:107D200010BD00BFF9630B0000D50B003ED50B0062
:107D3000F9820B0010B50A4C2378BFF35B8FDB0789
:107D40000CD42046FCF7AFF940B10648FFF7BEFF60
:107D50002046FCF7ADF9044802F0AEFF014810BD23
:107D600088E6032094E60320A17F0B0030B503686A
:107D7000093B012B8DB004460D4611D8FFF7DAFF01
:107D8000A1880068FFF7A2FE034658B92022CDE97A
:107D900004200B4A00920B4904AA3220FEF75EFD34
:107DA0000DB030BD6A6D002AFAD0D4E9032105F187
:107DB0004C00CDE90312AC6D04AA03A9A047EFE77C
:107DC00080D50B0017D50B0008B50020FEF73CFB53
:107DD00000EAE07008BD19B90A460846FEF73CBB48
:107DE000D1E900010022F9E738B5141E43680546C1
:107DF00002DB62189A4200DD5C1A2A6850180119E9
:107E00001A44521A02F097FF6A68121B6A6038BD62
:107E100037B50A4604460D4601ABD0E90001FFF72D
:107E200057FC024638B101992046FFF7DDFF29468D
:107E30002046FFF7EDFF03B030BD10B50C4629B961
:107E40000A460846BDE81040FEF70EBB0121204659
:107E5000FFF7DEFFD4E900010022F3E738B504465E
:107E60001546FFF7B8FF00280ADB29462046FFF732
:107E7000E4FF002804DBBDE838400020FEF7FCBA30
:107E800038BD000038B500230446836008200D4645
:107E9000FCF701F918B12B6803606B684360034B72
:107EA000E360034B2060A360204638BD1D770B00C4
:107EB00075770B0038B500230446836008200D4613
:107EC000FCF7E9F818B12B6803606B684360034B5B
:107ED000E360034B2060A360204638BD11770B00A0
:107EE00035770B000B68036013B15A6801325A6092
:107EF000704710B551F8043B044640F8043BFFF7C7
:107F0000F1FF23680BB9FFF7F9FB204610BD10B550
:107F100051F8043B044640F8043BFFF7E3FF2046DA
:107F200010BD10B551F8043B044640F8043BFFF780
:107F3000D9FF204610BD10B504460430FCF74CFDB7
:107F4000204610BD70B5D0E90053044605EBC306CA
:107F5000AE4204D0281DFCF73FFD0835F8E7206845
:107F6000FEF770FD204670BD70B5D0E900530446A1
:107F700005EBC306AE4204D0281DFCF72DFD0835E5
:107F8000F8E72068FEF75EFD204670BD10B5044698
:107F90002430FFF7E9FF04F11800FFF7D3FF10BD0D
:107FA00070B5174B1C6854B304F15400FCF7C4F9C6
:107FB00004F14400FCF7C0F904F13400FCF7BCF90B
:107FC00004F12400FCF7B8F9D4E9065305EBC30625
:107FD000AE4204D0281DFCF7FFFC0835F8E7A06985
:107FE000FEF730FD04F10C00FFF7BEFF2046FFF75F
:107FF000A9FF20466421BDE87040FCF752B870BD6F
:1080000094E6032013B50023D1E90042C1E900330F
:108010000368009304604368426001A80193FCF781
:10802000DBFC02B010BD826810B50AB902F066F838
:10803000BDE81040C368184738B50D1E04460068F7
:1080400003DDFEF707FD18B938BDFEF7FBFC002085
:108050002060A5600120F7E708B583688B4202DA4B
:10806000FFF7EAFF08BD0120FCE72DE9F0410F46CC
:1080700041681D461944836899420446904612DCC3
:10808000266862683E44D21B3146701902F053FEE6
:108090002A464146304602F040FE63682B44636046
:1080A0000120BDE8F081FFF7C7FF0028E8D1F8E71D
:1080B000F8B50D46D0E901139942044616460BDA8D
:1080C000276862687919521B481C02F034FE7E55FD
:1080D000636801336360F8BD0131FFF7ADFF00282D
:1080E000EED1F8E70A464168FFF7E2BF2DE9F74312
:1080F00004461D460F4601AB90460A46D0E90001F2
:108100009DF82890FFF7E4FAAE1C63680246B9F1C7
:10811000000F26D128B333441B1AFF2B09D801992D
:108120002046FFF761FE616820463144FFF794FF67
:1081300018B9606803B0BDE8F0836A1C0199D2B237
:108140002046FFF7B5FF01993A4601312046FFF777
:10815000AFFF01992B46424602312046FFF785FFCB
:10816000E7E7F118FF29E4D82046FFF775FF00285C
:10817000DFD0691CC9B22046FFF7B4FF394620465C
:10818000FFF7B0FF61682B464246E6E730B49DF842
:1081900008501AB1029530BCFFF7A8BF406830BC48
:1081A00070471FB50023C0E90033836006220093A7
:1081B00001238DF80F2019460DF10F020446FFF739
:1081C000E5FF204604B010BD1FB50A460446142141
:1081D0001046039202F06EFE002103460091039ABE
:1081E00009212046FFF7D2FF04B010BD8842F8B540
:1081F00004460D46164614D9904213D2A2F1080641
:10820000751AA1F108072C44B74218D01CB13146A9
:108210002046FFF786FE301DFCF7DEFB083E083CDB
:10822000F2E70CD0B5420AD01CB129462046FFF730
:1082300078FE281DFCF7D0FB08350834F2E7F8BDBE
:10824000F7B5044646686846FFF76BFED4E901734C
:108250009F4212DB0137002F29DDF800FEF7EAFB11
:108260000546F0B1D4E9001201EBC202FFF7BEFFF0
:108270002068FEF7E7FB2560A7602368626803EBD0
:10828000C60603EBC202314606F10800FFF7AEFF57
:108290001EB169463046FFF744FE636801336360F0
:1082A000012501A8FCF798FB284603B0F0BD002586
:1082B000DEE7F8B5D0E9004305460F4604EBC306F8
:1082C000A64205D039462046FFF7DDFC08B114B9B7
:1082D000F8BD0834F4E7201DFCF77EFBD5E9003239
:1082E00004F1080103EBC2022046FFF77FFF6B6831
:1082F000013B6B60ECE700002DE9F04105468EB0D4
:1083000003A80C46FFF78AFA2E68F31E0D2B3CD803
:10831000DFE813F00E0053003B00D1003B003B00B0
:108320003B003B003B009B009B009B009B009B0095
:1083300004A8FFF773FC049BAA891A806968049853
:1083400008310230FFF784FA04A906A8FFF7E9FD17
:1083500006A904F11800FFF773FF054607A8FCF70C
:108360003BFB20230693B5B95D4B5E490093322059
:108370002B4606AA0795FEF771FA049B2946188832
:10838000FEF782F805A8FCF727FB03A8FFF754FACD
:108390000EB0BDE8F081544A009200235149079382
:1083A00006AA0120FEF75AFAE36A002BEAD004A9D4
:1083B00004F12400FFF737FEE4E7A9892046FFF720
:1083C00085FB06460028E0D00568D5E906324FF661
:1083D000FF71298003EBC2029A4203D053F8080BC5
:1083E0004180F9E7D5E9037307EBC308B84504D02A
:1083F000381DFCF7F1FA0837F8E700232B61D5E9BF
:10840000067307EBC308B84504D0381DFCF7E4FA3F
:108410000837F8E70023EB61AB72E36B23B1314619
:1084200004F13400FFF7FFFD00232022CDE90623ED
:108430002E4A00922B4906AA0120FEF70FFA314678
:1084400004F11800FFF735FF9FE7A9892046FFF7E1
:108450003DFB002899D0E36C002B96D000230D2E15
:10846000ADF8163001D0102E17D1002369681A46D6
:1084700006258DF8153004918DF814200690DDE95D
:10848000040109AB8DF81C60089583E80300236D97
:1084900006A904F14400984777E70F2E01BF2B7A15
:1084A000696803F0010208250FBFC3F340031A46B1
:1084B00019461D46DDE7A9892046FFF707FB01465F
:1084C00000283FF462AFE36D002B3FF45EAF6B68B2
:1084D000069306AA236E04F15400984755E700BF9F
:1084E00098D50B0017D50B00BED50B00DBD50B00C4
:1084F00013B50B460246D0E900016C4684E8030040
:1085000093E8030082E8030094E8030083E8030093
:1085100002B010BD38B505460C46FFF7E9FFAB6861
:10852000A268AA60A360EB68E268EA60E36038BD15
:1085300070B504468CB00E4601921D46FFF7A6FAB0
:108540002671019904F13C00FEF7A1FF04F14C06ED
:10855000CDB1109B029502A904A80393FFF792FCEA
:10856000002308A904A80A93FFF7D4FF314608A8FE
:10857000FFF7D0FF08A8FBF7DFFE04A8FBF7DCFE3F
:1085800020460CB070BD0695EAE700002DE9F04FDB
:1085900087B01D46DDE9104380468B46924612990E
:1085A00003930022682002910492FBF774FD061EDB
:1085B00006F10C0918D001223746C6E901220299BA
:1085C000154A47F8202B039B00915A4651464846CE
:1085D000FFF7AEFF0FCD0FC72B683B600FCC06F146
:1085E00034050FC523682B6004A94046CDE90496E5
:1085F000FFF708FD05A8FCF7EFF9D8F800303BB904
:10860000064A07490A2007B0BDE8F04FFEF71EB939
:1086100007B0BDE8F08F00BF54D60B00F9630B0024
:1086200000D50B0038B505460C46FFF761FFAB6877
:10863000A268AA60A360EB68E268EA60E36038BD04
:1086400010B504688AB02434B9B1CDE9001202A88B
:108650006946FFF72FFC002306A902A80893FFF73D
:10866000E1FF214606A8FFF7DDFF06A8FBF764FE41
:1086700002A8FBF761FE0AB010BD0491EBE7884247
:10868000F8B504460D46164614D9904213D2A2F10D
:108690000806751AA1F108072C44B74218D01CB17E
:1086A00031462046FFF733FC301DFCF795F9083EB4
:1086B000083CF2E70CD0B5420AD01CB1294620464E
:1086C000FFF725FC281DFCF787F908350834F2E789
:1086D000F8BD70B50E1E054611DDF000FEF7AAF9D3
:1086E000044658B1D5E9001201EBC202FFF7C7FFFB
:1086F0002868FEF7A7F92C60AE60012070BD002449
:10870000F6E773B5044645686846FFF700FCD4E910
:108710000113994210DA2368626803EBC50503EB85
:10872000C202294605F10800FFF7A9FF8DB9636869
:1087300001336360012606E001312046FFF7C9FFDF
:1087400006460028E7D101A8FCF746F9304602B0FA
:1087500070BD69462846FFF7DAFBE8E78842F8B5BE
:1087600004460D46164614D9904213D2A2F10806CB
:10877000751AA1F108072C44B74218D01CB1314634
:108780002046FFF7B6FB301DFCF726F9083E083CF3
:10879000F2E70CD0B5420AD01CB129462046FFF7BB
:1087A000A8FB281DFCF718F908350834F2E7F8BDD6
:1087B00070B50E1E054611DDF000FEF73BF90446CC
:1087C00058B1D5E9001201EBC202FFF7C7FF2868D4
:1087D000FEF738F92C60AE60012070BD0024F6E78A
:1087E00073B5044645686846FFF783FBD4E9011377
:1087F000994210DA2368626803EBC50503EBC202F5
:10880000294605F10800FFF7A9FF8DB96368013318
:108810006360012606E001312046FFF7C9FF0646E6
:108820000028E7D101A8FCF7D7F8304602B070BDA8
:1088300069462846FFF75DFBE8E700002DE9F04FA9
:108840001746A1B080460AA80E46FEF7E7FF3C682F
:10885000237953B939464046FFF74BFB0AA8FEF788
:10886000EBFF404621B0BDE8F08F3368D3E90353F6
:1088700005EBC303039304F1280A04F1140B039BD3
:108880009D4221D0D5F80090584609F11401FFF718
:1088900072F8B8B109F128015046FFF76CF888B1B9
:1088A0002368D9F80020534033F47F430AD12022B3
:1088B000CDE915235E4A009215AA5E493220FDF7E4
:1088C000CDFFC7E70835DAE75046FFF725F860B96E
:1088D0005949012215A815ADFEF7F6FF0FCDD44674
:1088E000ACE80F002B68CCF800303368D3E90053B4
:1088F00005EBC30B5D45A94651466ED055F8080BF4
:10890000FFF739F80028F5D004F1140A5046FFF7B4
:1089100003F888B9494B48491A88013292B21A8043
:1089200015A8012315ADFEF7EEFF0FCDD446ACE838
:108930000F002B68CCF80030414B15932822002102
:1089400016A802F012FA514604A8FEF7F7FF04AB8E
:1089500018AA0DF1200C18685968154603C508338C
:1089600063452A46F7D11868286023798DF8583076
:10897000D9F800309B8AADF87430E36B1793314B14
:108980000022A11D15A8CDE91E34FDF7AFFD00287A
:108990007FF460AF01232370346839460C340DA88E
:1089A000FFF7A7FA20460DA9FFF71AFF04460EA805
:1089B000FCF712F8002C7FF44DAF2023CDE90D34E5
:1089C000214B00930DAA234677E739464046FFF72F
:1089D00090FA0CA8FCF700F840E70BA8FFF7FAF8AC
:1089E000514615A8FEF7AAFF0B9A0023143215A9C9
:1089F0000120FDF753FD0028E7D135680BA90DA82C
:108A0000FFF785FA28460DA9FFF77BFE05460EA85D
:108A1000FBF7E2FF002DD8D032685368126803F1EB
:108A20000053013B0CA802EBC309FBF7D5FF6BE732
:108A3000FAD50B0017D50B00BED60B008CE6032031
:108A400003002C006D7D0B0025D60B00024800238F
:108A50000360FDF7BBBD00BF90E60320F8B50646F6
:108A60000D468F180024BD420CD0336815F8011B49
:108A70009B6830469847031E01DB1C44F3E7002C3B
:108A800008BF1C462046F8BD13B50446084659B138
:108A9000019102F0E0F923680199DB680246204663
:108AA00002B0BDE81040184702B010BD03689B68D3
:108AB000184738B50D210546FFF7F8FF0A2104468F
:108AC0002846FFF7F3FF204438BD38B50546FFF7C9
:108AD000DBFF04462846FFF7ECFF204438BD30B5E5
:108AE0008BB00023012A8DF8243098BF0A2209ACEC
:108AF0000D46B1FBF2F101FB125303F0FF03092B0A
:108B000094BF30333733DBB2AA4204F8013DEFD9CA
:108B10002146FFF7B9FF0BB030BD2DE9F04186B01B
:108B200000AF05460E46381D142114463B60FDF784
:108B3000A9FF13280ED8391D2846FFF7A5FF0446C4
:108B40001EB12846FFF7B5FF044420461837BD463E
:108B5000BDE8F08100F1080323F00703E846ADEB20
:108B6000030D2246411C3B686846FDF78BFF6946B2
:108B70002846FFF789FF0446C546E1E7014B024A54
:108B80001A60704798E60320DED60B002DE9F0410D
:108B9000154ADFF86080D2E90063801943EB0101D8
:108BA000124BD3E90067D8E90023861941EB070788
:108BB000BB4208BFB2428CB013D003A96846CDE9CE
:108BC0000067FDF78FFF089B094D03F26C7303AC40
:108BD00008930FCC0FC50FCC0FC5C8E900672368F9
:108BE0002B600CB0BDE8F081D0E60320C8E603207E
:108BF000A0E60320D8E6032008B50020FDF70AFF11
:108C000028B1FDF7EFFE80F00100C0B208BD0120E1
:108C1000FCE7000008B5FFF7B9FF024B1869013007
:108C200008BD00BFA0E60320FAEE087AB4EEE70A1A
:108C3000F1EE10FA08B511D4F2EE0C7AB4EEE70AB0
:108C4000F1EE10FA0ADCDFED067A60EE277A17EE15
:108C5000900A01F0DFFF034BC3E9000108BD00BF2C
:108C600000006145D0E60320034BD3E90001034B2C
:108C7000C3E90001704700BFC8D20320C8E6032043
:108C800010B50020FDF7C8FB0446A0B9FDF7EEFDC6
:108C9000012810D12046FDF719FE60B9FFF7ACFF9F
:108CA00010B9FDF797FEF9E7FFF7A6FFBDE8104002
:108CB0000020FDF7B1BB204610BD1FB5FFF7E0FF58
:108CC00010220021684602F050F800216846FDF7A6
:108CD000ABFB009805B05DF804FB000008B5FFF79A
:108CE000ECFFC117FFF752FF014B986808BD00BFAA
:108CF000A0E6032008B5FFF7E0FFC117FFF746FF26
:108D0000014B586808BD00BFA0E6032008B5FFF777
:108D1000D4FFC117FFF73AFF014BD86808BD00BF69
:108D2000A0E6032008B5FFF7C8FFBDE80840C1175B
:108D3000FFF770BF08B5FFF7C0FFC117FFF726FFA9
:108D4000014B586908BD00BFA0E60320024B1A681A
:108D5000024B1A60704700BFC0D203209CE603207C
:108D60000021FDF793BD000010B5044B03600446DD
:108D7000806908B1FEF729FD204610BDF4D70B002D
:108D800010B50446FFF7F0FF20461C21FBF789F9D8
:108D9000204610BD014B00229A607047E0E6032098
:108DA000014B1860704700BFD0D2032008B50B4BB1
:108DB00043B100F025FC03681B699847002801DDDA
:108DC000AFF30080064B43B101F036F903681B692D
:108DD0009847002801DDAFF3008008BD00000000C7
:108DE0000000000008B5FFF7E1FFFDF70DFB014BA8
:108DF000186008BD44E703200548064A064908B53F
:108E0000121A01F08AFF054B054A1A6008BD00BF1F
:108E100000F4032004F4032094DE0B0000F403208C
:108E20001E1C279A07B5002300931A466FF077019E
:108E3000FDF75EFD03B05DF804FB000007B5438855
:108E40000A2B08D0502B0BD1094B1B684BB103B038
:108E50005DF804EB1847FFF7E5FF03B05DF804FB8E
:108E6000002300931A466FF07701FDF741FDF4E708
:108E7000F4E6032010B512480021FDF72BFE114B3C
:108E80001A68114B9A42114B0CBF012200221A7032
:108E900001D0FFF7B1FFFDF7A7FA044601F06EFF1E
:108EA0000B4B13B12046AFF3008000210848FDF7BB
:108EB000B9FDBDE8104007480021FDF70FBD00BF18
:108EC000A18D0B0000F403201E1C279AF0E603205E
:108ED000000000003D8E0B0070470020704710B569
:108EE00010210446FBF7DDF8204610BD08B5FFF75A
:108EF000F6FF08BD30B500224FF69C7402608480F6
:108F00008D888C800C68858004600A6030BD10B547
:108F100004460068FDF796FD204610BD38B5C468CC
:108F2000F4B12378022B03D104F10C00FFF7EFFF1B
:108F3000656835B12846FBF7FFF910212846FBF795
:108F4000B0F8A56835B12846FBF7F6F91021284698
:108F5000FBF7A7F820461421BDE83840FBF7A1B87D
:108F600038BD0B6803604B68436013B15A68013227
:108F70005A60704737B5044668460D46FFF7F1FF63
:108F8000009B019A23606260002301A80193009373
:108F9000FBF722FD35B1281DFBF71EFD08212846F1
:108FA000FBF77FF8204603B030BD826810B50AB9E0
:108FB00001F0A4F8BDE81040C368184708B5006880
:108FC00000F11001FFF7F1FF08BD826810B50AB982
:108FD00001F094F8BDE81040C368184708B5006870
:108FE00000F11001FFF7F1FF08BD000038B50023C4
:108FF0000446036010200D46FBF74DF828B101230D
:10900000C0E90133024B0360C5602060204638BDD3
:1090100008D70B0038B5002383608B6804460D46E3
:109020002BB102229847EB68E360AB68A36020464F
:1090300038BD0000F0B589B004686846FFF75AFFF4
:109040004FF00203D4E84F2F002A03D1C4E8413F78
:109050000029F7D125D104F10C0569462846FFF710
:1090600049FFBFF35B8F01236370002004F1080305
:10907000BFF35B8F53E8006F43E80002002AF9D189
:10908000BFF35B8F6EB1FDF711FC78B12946304616
:10909000FFF78BFF3046FBF74FF910213046FBF707
:1090A00000F86846FFF733FF09B0F0BD314602A86B
:1090B000FFF7B0FFE068B4F9105008B101F0AEFE60
:1090C00006901020ADF81C50FAF7E5FF0546E8B110
:1090D000002787601820FAF7DEFF044688B10146B2
:1090E000876002A8FFF704FA049BA268A360059BAF
:1090F000049206A9E268E36004F110000592FFF70C
:10910000F9FE084BEB60084B2C60AB6006A8FFF73C
:10911000FEFE02A8FBF710F9002229460348FDF7DE
:10912000CDFBB7E7BD8F0B0041920B0049970B00B9
:109130002DE9F04F8BB005469DF850A00F469046A4
:109140009946FDF74FFC07AE834638BB4FF62E73AA
:10915000059005A93046ADF81830FFF7CBFE142076
:10916000FAF799FF044648B1022303700123C0E9CE
:1091700001BB437031460C30FFF7BCFE2846214648
:1091800040F8044BFFF732FF3046FFF7C0FE05A85A
:10919000FFF7BDFE28460BB0BDE8F08F0C2300247E
:1091A0001420CDE908440793FAF775FF014618B17A
:1091B000C0E901440470447004A80391FFF716FF4E
:1091C0001E4B08930820FAF766FF044610B103A966
:1091D000FFF7C7FE00965FFA8AF34A4641463846D3
:1091E0000994FDF707FCB8B9039B5B7803F0FF0215
:1091F00093B94FF69C7305A903A80592ADF81830F2
:10920000FFF718FF05A8FFF782FE05A80999FFF7E9
:10921000B1FE06A8FBF7E0FB03A905A8FFF7A1FE36
:10922000059B069A2B606A60002306A806930593A7
:10923000FBF7D2FB04A8FBF7CFFBABE7BD920B001B
:10924000012AF8B5054603D10B6803600020F8BD7C
:10925000022A10D0032AF9D10468002CF6D004F1B8
:109260001000FFF754FE2046FBF766F81821204651
:10927000FAF717FFEAE718200E68FAF70CFF044622
:1092800050B13146FFF7C6FE3069B6F9147008B127
:1092900001F0C4FD2061A7822C60D7E738B5002318
:1092A00083608B6804460D462BB102229847EB6819
:1092B000E360AB68A360204638BD0000F0B589B01C
:1092C00004460D4601A81146FFF754FEA4B124B28E
:1092D0001DB1284601F0A2FD054601A803A903958A
:1092E000ADF81040FFF7A6FE03A8FFF710FE02A896
:1092F000FBF772FB09B0F0BD019D0123D5E84F2FAC
:10930000002A03D1C5E8413F0029F7D1EFD12B73E3
:10931000BFF35B8F6B702B1DBFF35B8F53E8006F48
:1093200043E80042002AF9D1BFF35B8F002EDED064
:109330002046FDF7BBFA074660B105F10C01304647
:10934000FFF743FE3046FAF7F7FF10213046FAF7F1
:10935000A8FECCE7314603A8FFF7A0FF2B7B8DF8D2
:109360001C301020FAF797FE0546D0B18760142014
:10937000FAF791FE044678B18760014603A8FFF72B
:10938000B7F8059BA268A360069B0592E268E360BC
:109390009DF81C3006922374064BEB60064B2C6044
:1093A000AB6003A8FAF7C8FF002229460348FDF77F
:1093B00085FAC7E7DD8F0B00C1930B0049970B00BF
:1093C000012A70B5044603D10B680360002070BD0C
:1093D000022A0CD0032AF9D10468002CF6D02046CA
:1093E000FAF7AAFF14212046FAF75BFEEEE71420F5
:1093F0000E68FAF750FE054620B13146FFF74EFFE2
:10940000337C2B742560E1E7704710B518210446C2
:10941000FAF747FE204610BDF0B5037D062B8DB050
:109420000E4600F104074FF0000412D000F10805C9
:1094300015F8011D0A223046FFF751FBAF420444E4
:1094400019D0002CF4D02E213046FFF72FFB044416
:10945000EEE72F236A4639460A208DF80040FDF7D3
:10946000D5F8684601F0F7FC33680246DB686946C8
:1094700030469847044620460DB0F0BD10B5054B68
:109480000446112240F8043B002101F06EFC204606
:1094900010BD00BF24D70B000346074A10B543F8A0
:1094A000042B01F1100251F8044B43F8044B914294
:1094B000F9D10A781A7010BD24D70B00024AC0E90E
:1094C000002104220275704724D70B00037D042B72
:1094D00004D14068003818BF01207047062B07D11F
:1094E00043683BB983682BB9C3681BB90069F1E7CE
:1094F000002070470120704710B59DF8084044EAED
:10950000032343EA024242EA0161042341600375F6
:1095100010BD000013B5044C04609DF81040009489
:10952000FFF7EAFF02B010BD24D70B0007B5064BCA
:109530000360CB7800938B784A780978FFF7DCFFDB
:1095400003B05DF804FB00BF24D70B0041747047E3
:109550007047704708B50021007CFDF75FF940EACD
:10956000E07008BD08B50121007CFDF757F940EA1D
:10957000E07008BD08B5007CFDF748F920EAE0700E
:1095800008BD08B5007CFDF739F920EAE07008BD98
:1095900013B50446007C0191FDF738F900280199C4
:1095A00001DC607C20B1207CFDF740F920EAE0700E
:1095B00002B010BD007CFDF741B910B5142104467E
:1095C000FAF76FFD204610BD10B54FF47A730446CC
:1095D00008460021C4E90113044B236001232074D1
:1095E00063741146FDF702F9204610BD38D70B0011
:1095F00010B514220446002101F0B7FB204610BD2F
:1096000010B50F4C88B003A8FFF7F2FF2178BFF325
:109610005B8F11F001010FD120460191FAF743FD54
:10962000019948B103AA0748FFF7CEFF2046FAF791
:109630003FFD054801F040FB024808B010BD00BFE7
:10964000F8E60320FCE6032051950B0000470000DC
:109650002DE9FF4100241D460F4690460646FCF7C3
:109660009BFEA5424FF00403ADF80D408DF80C3081
:109670008DF80F40A2BF9DF828308DF80E3003AC56
:109680000749009443463A463046A8BF8DF80D502E
:10969000FCF77AFEB0FA80F0400904B0BDE8F08132
:1096A0004D960B0070474174704708B5007CFCF77D
:1096B000FDFF20EAE07008BD08B5007CFCF7CEFF96
:1096C00020EAE07008BD08B5007CFCF7D7FF40EA4F
:1096D000E07008BD08B5007CFCF7C8FF40EAE07008
:1096E00008BD007CFCF7D2BF37B5457C04462DB1E0
:1096F000207C03B0BDE83040FCF7A8BF007C01919E
:10970000FCF7D4FF00280199F2DC284603B030BDF5
:1097100010B514210446FAF7C4FC204610BD000021
:1097200010B54FF47A730446084611460022C4E986
:109730000123044B2360012320746374FCF7BEFFF4
:10974000204610BD68D70B0010B5836804460BB9DE
:1097500000F0D4FCC3689847A3681BB103222146DC
:109760002046984720461021BDE81040FAF799BCE2
:109770007047F8B5064615460C468F18BC4206D011
:10978000336814F8011B9B6830469847F6E7284673
:10979000F8BD007C0022FCF799BF007C0021FCF79B
:1097A0009DBF007C0021FCF7A1BF007C0021FCF7DD
:1097B000A5BF007C0021FCF7A9BF10B51421044609
:1097C000FAF76FFC204610BD10B54FF47A730446CB
:1097D00008460021C4E90113034B2360207411469D
:1097E000FCF7A4FF204610BD98D70B0013B5036803
:1097F0008DF80710DC6B01224FF0FF330DF10701EC
:10980000A04702B010BD10B40368DC6B4FF0FF330B
:10981000A4465DF8044B604713B5134602688DF803
:109820000710D46B0DF107010122A04702B010BD53
:1098300010B54369B3F88620B3F884309A420446E1
:1098400008D06369B3F88420511CA3F88410134432
:10985000187910BD03681B6998470028F1D14FF0B3
:10986000FF30F6E7704743691868C043C00F704780
:1098700070470000064B994210B500F10C0405D06A
:10988000084600F03FFC002808BF0024204610BD19
:10989000A0D60B0010B5AC210446FAF702FC204616
:1098A00010BDAC21FAF7FDBB2DE9F0414FF00008E7
:1098B00086B01C46C0F8048005460E461746414651
:1098C000102202A801F051FA631C09D04FF47A73F8
:1098D000B4FBF3F203FB1244CDE902285C43049489
:1098E000686910230093006802AB41F2050240F65C
:1098F000FF71FCF72BFF002807DAFDF7DBF80368A0
:109900006B60002006B0BDE8F08168690023006844
:109910003A463146FCF742FF031EEEDB1846F1E7FC
:1099200030B587B0044601AD6846FFF7FFFD0FCDA7
:1099300004340FC42B68237007B030BD70B54D6977
:10994000054B04468C3544F8043B06460FCD0FC446
:109950002B682370304670BD24D70B002DE9F043EF
:109960009846036893B00D460024DB6A0646174606
:10997000984728466B46224621460094FCF7F4FCA3
:109980000546002863D1009B002B4BD05B69002B60
:1099900048D006A8FFF772FD009B5C696378022B34
:1099A00004D1211D06A8FFF7BBFF26E00A2B24D116
:1099B0001122294601A801F0D8F9A368002B38D05C
:1099C00004F108030DF1040C183418685968624654
:1099D00003C20833A3429446F7D1062301A90CA879
:1099E0008DF81430FFF758FD0DF1340CBCE80F0072
:1099F00007AC0FC4DCF80030237006A8FFF766FD43
:109A000080B1336807ADD3F82090124B0C930FCD83
:109A10000DAC0FC42B6823703A4643460CA9304660
:109A2000C84705460098FCF797FC284613B0BDE8E8
:109A3000F083E368002BC3D14FF6FF70D4F8109089
:109A4000FCF7ECFD8145BBD104F11401AAE72546E2
:109A5000E8E700BF24D70B0038B543691A68002A2D
:109A6000054610DAB3F88620B3F884309A420AD15A
:109A700003681B699847044628B92B682846DB6AA7
:109A80009847204638BD0120FCE710B54369B3F87C
:109A90008620B3F884309A42044605D06369B3F84F
:109AA00084201344187910BD03681B699847002867
:109AB000F4D14FF0FF30F6E7F8B543691746B3F835
:109AC0008620B3F884309A4205460E4616D069695E
:109AD000B1F88430B1F88640E41ABC4228BF3C4655
