:02000002B0004C
:1040000000400B00C4D90B00000006000C000502A4
:084010000401A30F00000000F1
:0440180034C80B009D
:1040200009480A49884208B505D0094A824202D0A7
:10403000121A06F026FB0748074A0021121A06F05A
:1040400048FB014808BD00BF28D1032098D70B00CA
:104050002CD3032030D30320F1E7032070B5074EA3
:10406000074C04F0EFFBA41BA4080025AC4200D1D0
:1040700070BD56F8043B98470135F7E73CD70B0075
:1040800064D70B0000F0A4BB08B500F00FFBBDE83F
:10409000084004F08FBB02F05DBA02F05BBA02F098
:1040A00061BA02F05FBA0078B0FA80F04009704758
:1040B0000123037070470000014B01221A70704702
:1040C0008CD70320014B01221A7070478CD7032034
:1040D00008B5044B01221A7001F06EFF024B186004
:1040E00008BD00BF48D3032018D703200EB403B582
:1040F00003AB002153F8042B019304F026FA02B01D
:104100005DF804EB03B070472DE9F04F054687B02A
:1041100008460C4606F053FB2946064603A806F05F
:1041200028FB3F493F4D03A807F0B4F906F081FA98
:10413000214605EB402006F003FBB6F5007F43D295
:1041400004F046FF2A463849384CDFF8F4A0384FCF
:10415000FFF7CCFF2846374907F09CF90FF2A80972
:10416000D9E9008900250026DFF8D8B0DBF8003057
:10417000AB4226DD52463049CDF804A002F00AFADF
:104180002C49002007F086F9019B1B68062B0AF1D9
:10419000040A1CD806F04AFA32463B4651EC100B92
:1041A00006F090F81AA3D3E9002305F0ABFDC4E9AB
:1041B00000012049002007F06DF9083408BBCBF856
:1041C00000501E4B02221A7007B0BDE8F08F113B61
:1041D000042B0AD806F02AFA32463B4651EC100B63
:1041E00006F070F842464B46DFE706F01FFA32460B
:1041F0003B4651EC100B06F065F807A3D3E900230A
:10420000D3E70135B0E700BF04560E2DB29DFE3F47
:1042100044FAEDEBC039CB3FEFC9C342AD69E43F8F
:1042200048C80B008DD7032050C80B00D8D40320FA
:1042300000408F4054C80B0057C80B008CD7032098
:1042400058D6032044D1032070B50B4E01F0B4FEC4
:104250003568451B642D04460DD904F0B9FE0749A5
:10426000FFF744FF064BB3FBF5F5064B34601D60CA
:10427000054B04221A7070BDF4D303206EC80B00E6
:1042800080EE36005CD403208CD7032000000000B1
:104290002DE9F04F2DED028B9DB0CDE90232504F4C
:1042A00005468B468A46002400264FF000084FF052
:1042B0000009029B9C4217DABAEC027B424651ECA1
:1042C000170B4B468DED007B06F062F908B1DDE976
:1042D0000089DDE9000132463B4606F03BF908B1B2
:1042E000DDE900670134E4E732463B464046494693
:1042F00005F006FD38A3D3E9002305F0B9FE3246E8
:104300003B4605F0FFFC4FF0000A41EC180B544609
:10431000029B9A4512DCFBE8020153EC182B06F0D5
:1043200019F940B1039A1CAB03EB840352F82A201D
:1043300043F8602C01340AF1010AE9E704F048FE71
:10434000284942464B46FFF7D1FE04F041FE26497C
:1043500032463B46FFF7CAFE04F03AFE2349FFF718
:10436000C5FE6CB300231E462F1D1CAA02EB830260
:1043700052F8602C45F8362004AA02EB830002684C
:1043800050F8041F01398A4203F10103F7D00132CA
:10439000A34247F8362006F101020FDDDFF8548012
:1043A0000024B4420CD004F013FE57F8343055F812
:1043B00034204146FFF79AFE0134F2E71646D4E76F
:1043C0000B4B032220461A701DB0BDEC028BBDE8DA
:1043D000F08F00BFAFF30080333333333333D33F39
:1043E000000059407CC80B009AC80B00B7C80B00EE
:1043F0008CD70320F5C80B0070B590B003F0B2F96C
:1044000003F0FAF903F0AEF9334A344C01460BA835
:1044100003F02CFF0BA803F0A6FA03F0A3F9304A2F
:1044200001460BA803F022FF0BA803F09CFA03F04F
:1044300099F92C4A01460BA803F018FF0BA803F0CA
:1044400092FA03F08FF9284A01460BA803F00EFFF9
:104450000BA803F088FA03A803F0BBFB234B03A8C7
:10446000196803F0C9FB0FCC06AD0FC506AD0FCD23
:1044700026680BAC0FC40BA8266002F075FF04463B
:104480000BA80CBB02F08CFF0094ADF80A000223CD
:104490000DF10A02032103A803F090FB03F062F977
:1044A000002203A903F0F2F904F092FD104904F090
:1044B00024F803F057F90F49002203F0D9FD0398BF
:1044C00002F050F810B070BD02F06CFF00230093B2
:1044D000024610230721DEE74CD3032078D30320C4
:1044E00030D3032038D3032054D303203CD10320FE
:1044F00003C90B00D1400B0008B50121002005F0D5
:1045000057FA0121084605F053FA0121022005F06F
:104510004FFA0121032005F04BFA0121042005F098
:1045200047FA0121052005F043FA0121062005F094
:104530003FFABDE8084001210A2005F039BA000021
:1045400008B504F0B7F8172801D00B2807D1044BA1
:104550001A6882421FBF1860024B01221A7008BD00
:1045600040D103208CD7032038B5046805467CB1C0
:104570006368013B63605BB9236820469B6898478A
:10458000A368013BA3601BB923682046DB689847FA
:10459000284638BD10B5164B30221A60154B002244
:1045A0008CB01A70044604F0B1F8059004F0A6F837
:1045B000049004F07FF8A11CDDE90432CDE900414C
:1045C00002900D4908A802F017FD0C4B089A1B78C1
:1045D0000B498DF8003006A83C2304F091FA07A897
:1045E000FFF7C2FF08A802F025FC0CB010BD00BF09
:1045F00044D103208DD7032062C90B00F1D30320DF
:10460000B5C90B002DE9F0418AB005460E4604F00D
:10461000DFFC1E491E4FFFF769FD1E4902A802F08C
:1046200054FC002405F10408B44210DA58F8343080
:1046300055F83420394606A802F0DEFC06A902A887
:1046400002F093FC06A802F0F5FB0134ECE7124BF4
:10465000029A1B7811498DF8003006A83C2304F01B
:104660004FFA07A8FFF780FF029A0D490D4800F0A6
:1046700086FD0C4800F0DFFD0B4B052202A81A70E6
:1046800002F0D8FB0AB0BDE8F08100BFBEC90B0044
:10469000E5C90B00C7C90B00F1D30320F4C90B0017
:1046A00095CB0B0060D403208CD703207FB5334C0F
:1046B000FFF746FF2378012B05D10623237004F072
:1046C00011F8FFF767FF2378022B16D12C4B2D4AE8
:1046D0002D491B682D48FFF7DBFD2D4B186004F0BA
:1046E00077FC054603F0E6FF064603F0EFFF294995
:1046F0000346B21C2846FFF7F9FC2378032B04D1AC
:10470000234B22481968FFF77DFF2378042B11D132
:1047100004F05EFC2049FFF7E9FC204B20491A68B1
:10472000684601F02FFF1F491F486A4600F027FD29
:10473000052323701D4C257801F03EFC1C4B1B68A3
:10474000C01AB0F5AF6F16D9ADB11A491A48002298
:1047500002F046FF19491A48002202F041FF1949A8
:104760001948002202F03CFF0023237004F030FCC3
:104770001649FFF7BBFC04B070BD00BF8CD7032007
:1047800044D1032058D60320D8D40320F8D30320E3
:1047900058D4032004CA0B001ECA0B005CD40320AB
:1047A00076CB0B0032CA0B0060D4032048D3032021
:1047B00018D7032038CA0B0030D303208CCA0B0053
:1047C00038D30320E0CA0B0054D303202FCB0B00B7
:1047D00070B5474D90B0FFF78FFEFFF70DFE0A232F
:1047E0002B7001F08FFE10B901F084FEF9E7002470
:1047F00001F088FE0126032108202E7005F0D8F86C
:104800004FF0FF333B4900943246082004F008FC87
:10481000394A3A490AA801F0EDFA0AA906A802F0B5
:10482000D1FB374B069A1B7836498DF8003002A829
:104830003C2304F065F903A8FFF796FE06A802F0F2
:10484000F9FA0AA906A802F0BDFB06992E4840F223
:104850005B7200F012FB06A802F0ECFA2346224637
:10486000CDE9004429492A4801F05CFE234622464E
:10487000CDE900442749284801F054FE2B780693DF
:104880000222234606A9254801F02CFE04F0A0FBD5
:104890002349044606A802F018FB03F0FAFE0A2298
:1048A000014602A802F037FB02A906A802F07DFB30
:1048B0001C4B016814481A4600F0D6FB1A49024600
:1048C0002046FFF713FC02A802F0B4FA06A802F093
:1048D000B1FA0D4800F0C3FA40B11449144A0A482D
:1048E00000F04DFC1349084800F0EDFD10B070BD1C
:1048F0008CD7032049420B003DCB0B001CD7032073
:10490000F0D3032051CB0B0060D4032009410B00EE
:1049100095CB0B00B9400B0057CB0B0062CB0B00C3
:1049200041C90B0049C90B0068CB0B0085CB0B00BC
:1049300079CB0B008FCB0B0082B0F0B58FB015ADEB
:1049400015930023C0E90033064694460F460FCD69
:1049500004AC0FC42B6823601AAD0FCD09AC0FC493
:104960002B682360209B02931F9B019309AB00934C
:10497000304604AB6246394603F020FB30460FB0A8
:10498000BDE8F04002B07047734B2DE9F04F0024B2
:104990001C70724B724DDFF840B2DFF840A2DFF8B6
:1049A00040924FF0010883F800806E4B8DB019687B
:1049B000284602F077FD6C4B5846196802F072FDEC
:1049C0006A4B5046196802F06DFD694B48461968FC
:1049D00002F068FD674B6848196802F063FD674B99
:1049E0006748196802F05EFD664B6748196802F077
:1049F00059FDCDE909442E460FCE10270DEB070CCB
:104A0000ACE80F003368CCF800300BF104030FCB97
:104A10008DE80F00DBF800305C495D483A46FFF74F
:104A20008BFFCDE90944AE46BEE80F000DEB070C45
:104A3000ACE80F003368CCF800300AF104030FCB68
:104A40008DE80F00DAF80030524953483A46FFF734
:104A500073FFCDE90944AE46BEE80F000DEB070C2D
:104A6000ACE80F003368CCF8003009F104030FCB39
:104A70008DE80F00D9F80030484949483A46FFF719
:104A80005BFFCDE90944AE46BEE80F000DEB070C15
:104A9000ACE80F003368CCF80030374B04330FCB51
:104AA0008DE80F00344B3F491B683F483A46FFF7FB
:104AB00043FFCDE90944AE46BEE80F000DEB070CFD
:104AC000ACE80F003368CCF800302D4B04330FCB2B
:104AD0008DE80F002A4B35491B6835483A46FFF7E9
:104AE0002BFFCDE909440FCD0DEB070CACE80F000F
:104AF000254D3368CCF800302B1D0FCB8DE80F000F
:104B00003A462B682B492C48FFF716FF2B4B019395
:104B10001E2300932A4902944FF4007340F25B7203
:104B2000284800F0A3F8284B28491C611A1D1A6078
:104B3000274A5A60C3E9024483F81480084602F009
:104B4000ADF82249234801F08DF8214640460DB0CA
:104B5000BDE8F04F01F032BCF0D30320F1D30320C5
:104B600078D3032048D103204CD1032030D1032037
:104B700028D103202CD10320B4D3032034D1032027
:104B8000A0D3032038D10320DCD303209CCB0B001F
:104B90004CD30320A5CB0B0040D30320B3CB0B0099
:104BA00030D30320BDCB0B0038D30320CACB0B007E
:104BB00054D30320D4CB0B005CD30320C5400B009F
:104BC000E2CB0B0060D40320C0D4032094E1032087
:104BD000100003001CD7032064D30320C8D3032094
:104BE0008CD3032091F85C3010B50446016013B1FA
:104BF000886D01F07BFA204610BD10B5036893F86C
:104C00005C20044612B1986D01F078FA204610BD80
:104C1000F8B51F469DF8243004460D4616462BB1C4
:104C2000012380F85C30583001F058FA089B236368
:104C30000023636306B1A66425B1294604F1380058
:104C400002F057F9069B2365079BE069A4F84C70B6
:104C5000FF2BB8BFFF23A4F8543008B1FFF71FFAA9
:104C6000B4F85400FFF719FAE061F8BD2DE9FF41EF
:104C700004460025174698460E4604F057FD0D4998
:104C8000E56104F1380002F020F99DF8303003931B
:104C90000B9BA564CDE901830A9B0093204684F811
:104CA0005C503B462A463146FFF7B2FF204604B02F
:104CB000BDE8F081F4C80B0010B50446204604F0AE
:104CC00091FC0028FAD0204604F09AFAC0B210BD38
:104CD0002DE9F04705468846FFF7EEFFEB691870AF
:104CE000EB6993F800A04FF001090AF0F00A0027E1
:104CF0004C462846FFF7E0FF2646EB69985500F042
:104D00007F0313FB09F31F4401340306A4B2BFB2AF
:104D10004FEAC919EDD4631EBAF1300F88F800309C
:104D20001ED12846FFF7C8FFEB6918552846FFF744
:104D3000C3FFF41C0236B6B2EB69A4B29855022642
:104D4000B6B2BE420ED22846FFF7B6FFB5F85430D1
:104D5000A34284BFEB6918550134A4B20136EFE7D2
:104D60000026EDE7B5F85430A3422CBF20460020C2
:104D7000BDE8F0872DE9F34115461E461A46074661
:104D80000023964602A802F07F0CBEF17F0F03F1CC
:104D90000104034488BF4CF0800CBEF17F0F4FEA42
:104DA000D212E4B203F804CC1ED8C4F10403C4F157
:104DB0000500E954224601A9284405EB030805F043
:104DC00060FC721C22444146384604F004FA054651
:104DD00001F0F2F8621C78623244A8B2131A584209
:104DE000584102B0BDE8F0812346CAE713B5044636
:104DF000014601A8FFF7F6FEE369E0221A70E369B5
:104E000000225A70E1690222204604F0E4F92046AB
:104E100004F042FC01F0D0F8C4E9090001A8FFF752
:104E2000ECFE02B010BD0233F0B5054698B2002387
:104E3000CE5C9CB256B1B5F854C0844503F101076D
:104E400004D9441C16543B46A0B2F1E799B2411A6A
:104E50000A44210A02F8021C02F8013CF0BD38B5F0
:104E6000044604F0E1FA002814BF0125002502D110
:104E7000204604F011FC284638BD70B504460E46A5
:104E80001546FFF7ECFF10B12046FFF7AFFF3146A4
:104E900004F1380002F02DF80023A364A4F84C506C
:104EA00070BD00002DE9F04788B00446DDF8408071
:104EB0009DF850A0894617461E46FFF7D0FF0546CD
:104EC000002840F0CD80214601A8FFF78BFEA16CA1
:104ED000002940F08880B4F84C20A16B2B46204676
:104EE00004F024FA00287AD0012323849DF854305A
:104EF000E269042B5B4B40F08180186899889B79AC
:104F0000ADF80C108DF80E300290C2F805009DF837
:104F10000E30BDF80C10A2F80910D3720C23B8F1B2
:104F2000000F00F081809DF848009DF8442040016A
:104F300040EAC20040F00600C0B2BAF1000F01D151
:104F400000F0FD001FB1002E70D140F08000E2693A
:104F5000D054226DE169581C12120A549A1CE1695E
:104F6000206D88540333E26949462046FFF75BFF12
:104F70000346B8F1000F0BD0E26941462046FFF727
:104F800052FFE269139903462046FFF74CFF0346A0
:104F900067B1E26939462046FFF745FF03462EB167
:104FA000E26931462046FFF73EFF0346053BE269D2
:104FB0009BB210212046FFF7DDFE00F0FDFFC4E9A3
:104FC00009004FF47A76204604F00CFB88BB00F011
:104FD000F3FFA36AC01A236D73439842F3D92046A6
:104FE00004F05AFB35E002A803F088FFB4F84C2027
:104FF0002B4602A9204604F079FA73E7D3F807009C
:10500000D3F80B10DB7B0DF1080CACE803008CF837
:10501000003002AB03CBC2F80500C2F809109CF8BF
:10502000003053730E237AE7022086E740F0C00079
:105030008DE702A92046FFF74BFE0428CFD1E36994
:10504000DE78002ECBD100F0B7FF0125A06284F8F6
:105050002C6001A8FFF7D1FD284608B0BDE8F08715
:105060000025F9E7FBCC0B0010B54FF0040C86B01F
:105070000124CDE9044C0024CDE90244CDE90044EB
:10508000FFF710FF06B010BD2DE9F74FDDF83C80AB
:105090009DF834509DF8389004468B4616461F46BE
:1050A000FFF7DDFE8246002851D0214601A8FFF718
:1050B00099FDB4F85420E069002105F00AFB0523AE
:1050C000E26959462046FFF7AEFE6B1E012B15D84C
:1050D000218CE369013189B22184090A1954421CE7
:1050E000E369218C92B20230995480B2B8F1000F7A
:1050F00004D0238C5A1C2284A8F8003000210B18FD
:105100008F42E2699BB20AD9B4F854C09C4506D9D3
:1051100016F801C002F803C0013189B2EFE79DF82B
:10512000301000290CBF30213121B9F1000F01D01E
:1051300041F00801022D0ED141F00401053B9BB264
:105140002046FFF717FE824601A8FFF756FD50469E
:1051500003B0BDE8F08F012D08BF41F00201EDE77B
:105160001FB5089C0394002402949DF81C400194F0
:105170009DF818400094FFF787FF04B010BD30B5CC
:1051800087B0044610460591049205F018FB0025EF
:105190000346CDE90155DDE9042100952046FFF7DE
:1051A000DFFF07B030BD73B504460E46FFF757FE6C
:1051B0000546C8B1214601A8FFF714FDE369622244
:1051C0001A70E36902225A70E369320A9A70E3693D
:1051D000DE70E1690422204603F0FDFF051E01A8F0
:1051E00018BF0125FFF709FD284602B070BD73B551
:1051F00004460E46FFF733FE0546C8B1214601A816
:10520000FFF7F0FCE36972221A70E36902225A7018
:10521000E369320A9A70E369DE70E169042220468C
:1052200003F0D9FF051E01A818BF0125FFF7E5FC13
:10523000284602B070BD2DE9F04F2DED028B87B0EE
:1052400000AF0446FFF70BFE8146F8B1214607F197
:105250001400FFF7C7FC00F0AFFE236D4FF47A7225
:105260005343A26A821A9A42064603D8626A821A95
:10527000934221D294F82C307BB1204604F00CFAF2
:105280004FF0000907F11400FFF7B7FC48461C3740
:10529000BD46BDEC028BBDE8F08FE269C021117004
:1052A000E2695370E1690222204603F094FFC4E9E9
:1052B0000966012384F82C30204604F093F9002875
:1052C000E0D007F113012046FFF702FD83460028D6
:1052D000D8D0E369A662197801F0F002302A7FD1B4
:1052E000D4F830A0BAF1000FCCD097F813C06A46BA
:1052F00008EE102A03EB0C025178957805EB012596
:10530000ADB205F108026946D208A1EBC20295468A
:105310000CF10302FA6003EB020E0DEB0502684686
:10532000C7F808D07A60D7E901218A4206D00A4638
:105330001EF8018B02F8018BBA60F4E70022425597
:1053400093F80080F96808F00608ABEB0C02033A0A
:10535000B8F1020FA2EB0502294425D113F801E0B0
:105360001944023A91F801B00CF10501294419449D
:105370000BEB0E2BD047E36940221A70E3691FFA4A
:105380008BFB83F80180E3694FEA1B229A70E36983
:1053900083F803B0E1690422204603F01CFF666233
:1053A00018EE103A9D466DE7B8F1040F15D113F8C9
:1053B00001E01944023A91F801B00CF105012944C9
:1053C00019440BEB0E2BD047E36950221A70E369A6
:1053D00002221FFA8BFB5A70D5E71944D047DFE74A
:1053E000502A08D19A78D97801EB022189B2204657
:1053F000FFF7D9FE46E7402A12D1626B002A3FF43C
:1054000041AFBBF1040F7FF43DAF11F0060F7FF405
:1054100039AF9978D87800EB012080B2904731E716
:10542000602A08D19A78D97801EB022189B2204606
:10543000FFF7DDFE26E7702ADFD0902A3FF422AF87
:10544000C02A0AD1D0221A70E36900225A70E16999
:105450000222204603F0BFFE14E7D02A04BF002337
:1054600084F82C300EE7F7B504460F461646FFF7D2
:10547000F6FC054610B3214601A8FFF7B3FB238CC9
:1054800001339BB2EBB12384238CE2691B0A537175
:10549000E369228C9A71E269072339462046FFF7B7
:1054A000C2FCE3691E54043883B2E26982212046BB
:1054B000FFF760FC054601A8FFF79FFB284603B0F5
:1054C000F0BD0123DFE70022FFF7CDBF0160704789
:1054D00070470023F0B51C460568ED5C2E2D00D00A
:1054E000BDB91D1B8D5402F1010C26460A44B3427E
:1054F000076804DDBF5D02F8017F0136F7E79C42D3
:10550000C8BF0025FC5C2E2C08BF013305EB0C0244
:105510001C4605682D5D0133002DDDD11046F0BD20
:1055200038B50B46054622EAE2721846002105F01E
:10553000D0F80124014644710C222846FFF7C9FF28
:1055400000230B5401444B708C70CB700C7138BD30
:10555000B0B582B0054600AF00680C4605F02FF9E3
:1055600000F1190323F00703ADEB030D00F1120264
:10557000694628467A60FFF7D3FF23687A68DB68BC
:10558000694620469847236820461B6C9847083791
:10559000BD46B0BDF0B589B01C460F9B1668042B04
:1055A00015461FD1721C2A60B31C815D2B60F71C4D
:1055B000825C2F600436C35C2E600125C05D84F8D8
:1055C00004510E9DC4F80051009003AD02A803F0F1
:1055D00089FC0FCD04F586740FC42B68237020203E
:1055E00009B0F0BD33441360F9E72DE9F047002519
:1055F0002B4602F1FF3E4FF02E0895421DD24C5D26
:105600003F2C01EB050720DCE61876451FD81BB1BF
:10561000066806F803800133BA460026A64206EB68
:10562000030C03DB234401342544E6E707681AF83A
:10563000019F07F80C900136F0E703681A44002335
:1056400002F8013C2020BDE8F0872620FBE723205C
:10565000F9E72DE9FF410A9C0025A54225D01668EF
:1056600010F8068008F0C00CBCF1C00F00EB060E6D
:1056700006F1010720D117609EF80040023616603F
:10568000C25D240204F47C5414448C4202940ED86B
:105690001B682B440393C5F1FF03009302AA03ABDD
:1056A000FFF7D7FF002804DB4419204601E06FF024
:1056B000210004B0BDE8F08105F1010C1760B8F1DC
:1056C000000F05D11B689EF800205A556446ECE790
:1056D000875D1E6877556546BFE713B5FF240094C4
:1056E000FFF7B7FF02B010BD2DE9F0470546ADF555
:1056F0001A7DFF20884614461E4600F02BFF0490BA
:10570000B8B104AB224641462846FFF7E6FF10F148
:10571000220F07D1049800F025FF22200DF51A7DF5
:10572000BDE8F08700F016FF059020B9049800F05E
:1057300019FF2720F2E704990391084605F03FF886
:105740000399024605A8FFF750FF0599304600F07F
:1057500087F90746059800F005FF2268531C23606F
:10576000911CA85C2160E95C531D01EB0021A81885
:10577000236090F804C0901D2060EB5C1B0403EBD9
:105780000C6302F1070CC4F800C0285C03EB002393
:1057900002F10800206015F80C90994402F1090309
:1057A00023600A32285C226015F803A001290AEB65
:1057B000002A12D1781C77D03946304600F04BF9D8
:1057C000CDE9009A0346224641462846FFF7E2FE0D
:1057D000049800F0C7FE2020A0E7052964D1791CB9
:1057E00062D03946304600F036F9002380F80431A3
:1057F0003946304600F02FF9C0F80091236806932F
:10580000534423602846CDF800A004AB06AA4146C5
:10581000FFF71FFF10F1220F05463FF47BAF08ACE6
:10582000204600F0E1F9049907946A1E07A8FFF7E3
:10583000DCFE2146304600F02BF9431C25D14FF405
:105840008072214651A804F01CFFD4F800319193D6
:1058500094F804318DF848320DF5967C144B9393EF
:10586000BCE80F0094AD0FC5DCF800302B7051A9D7
:10587000D4F820319993304600F057F951A800F040
:10588000E7F92146304600F003F90146304600F0C2
:10589000E2F839460546304600F0DDF8C0F8205100
:1058A000204600F0D5F993E75244226090E700BF0C
:1058B0001CD00B00F0B50379467906EB032613687C
:1058C0000C3313600025AE4216D01368C45C2CB1B3
:1058D00004F0C007C02F06D10233136013680533EC
:1058E00013600135EFE73F2C0CD8013323448B4282
:1058F0001360EAD92320F0BD136801318B42F9D837
:105900002020F8E72620F6E72DE9F8430024054695
:105910004FF00108A146284600F0BCF8A0422FDD58
:105920002146284600F097F8D0F8203133B32146BD
:10593000284600F090F8D0F8203193F80431EBB10C
:105940002146284600F087F82146D0F820712846E5
:1059500000F081F807F5867700F586760FCF0FC641
:105960003B6833702146284600F075F8214680F8E0
:105970000481284600F06FF8C0F820910134CAE78E
:105980002020BDE8F8832DE9F743914690F90220E5
:105990008378002A0646884628DA9B0722D4C578F1
:1059A00015F00F0520D18379C77917EB03271DD098
:1059B00001AA0195FFF77EFF202804460ED14B4631
:1059C00001AA41463046FFF78FFE2028044605D144
:1059D0000135AF42F3D14846FFF796FF204603B0AA
:1059E000BDE8F0832524F9E72324F7E72024F5E731
:1059F000F0B54A1E0D460446034600F5807112F8C4
:105A0000010F03F8010B8B42F9D1D5F80031C4F82E
:105A1000003195F8043184F8043105F586770FCF0D
:105A200004F586760FC63B683370D5F82031C4F88C
:105A30002031F0BD70B50446054600F59266284653
:105A400005F5927500F0D0F8AE42F8D10023C4F805
:105A50009034204670BD4FF4927303FB01007047F1
:105A60002DE9F041D0F890640546884600244FF4B3
:105A70009277A64207DD414607FB045004F06FFE13
:105A800018B10134F5E74FF0FF342046BDE8F0814E
:105A9000FFF7E6BFD0F89004704770B5D0F8904497
:105AA000A4B1D0F800510121002200F580734FF419
:105AB00092768C4208DD06FB01F01858A8423CBFE4
:105AC0000A4605460131F4E7104670BD4FF0FF303D
:105AD000FBE74FF4927303FB0101D0F890240023FD
:105AE00030B51C46934209DAD0F820518D4208BFE8
:105AF000C0F82041013300F59270F3E730BD38B5AE
:105B000004460D46FFF7E5FFD4F890144FF4927069
:105B1000013900FB014100FB0540FFF769FFD4F8A4
:105B20009034013BC4F8903438BD38B504460D4676
:105B3000FFF796FF431C08D04FF49273294603FBEE
:105B40000040BDE83840FFF753BFD4F89034042B31
:105B500006D12046FFF7A1FF01462046FFF7CFFF01
:105B6000D4F890344FF4927000FB03402946FFF7BD
:105B70003FFFD4F890340133C4F8903438BD2DE998
:105B8000FF416E4604460546B0460027D4F89034DF
:105B9000BB420ADD284600F05CF8D5F8003148F831
:105BA000043B013705F59275F0E70025D4F89034F1
:105BB000AB4208DD56F8043B1BB929462046FFF7E7
:105BC0009EFF0135F2E704B0BDE8F08130B587B043
:105BD000044601AD684603F059F90FCD04340FC4F3
:105BE0002B68237007B030BD38B500F584750446C6
:105BF000284603F02BF900232846237084F804314B
:105C0000C4F80031C4F820314FF0FF31FFF7DEFF58
:105C1000204638BD73B500F58476044630461546F7
:105C2000019103F013F901994FF48072204604F0BA
:105C3000E2FD00233046C4F8005184F80431C4F872
:105C400020314FF0FF31FFF7C1FF204602B070BD99
:105C50007047D0F80031002BC4BF03F1FF33C0F808
:105C600000317047F8B5044604300D4601F016F8CF
:105C700004F1500003F0EAF80023E3666B68A360C8
:105C8000AB68E360EB6823616B69A36105F12007F2
:105C90002B8BA3830FCF04F124060FC63B68337010
:105CA0002B8FA387EB6B23642B6C63646B6C6A6B29
:105CB000A36495F84830A263204684F84C30F8BDC0
:105CC00010B58AB0044603A8FFF700FCFB2300933D
:105CD00000231A460434E02104A803F003F941F23A
:105CE000E94204A9204601F027F8214603A8FFF75E
:105CF0002FFC204600F03CFD03A8FFF7E9FB0AB0AB
:105D000010BD0000F0B5054689B02D48FFF737FFFC
:105D100095F868402F1D54BB012385F8683003F0C7
:105D200057F9284902F0E9FB224641F2E941384699
:105D300000F078FD03F04CF9FB2322460093E021AC
:105D40002346064602A803F0CDF802A9384601F022
:105D500047F8041E1DDA2D21304602F0BFFB6142D8
:105D60000A22304602F0D3FB304602F0BAFB002193
:105D7000384600F0F8FF064600B300F0EBFB04469F
:105D800048B903F025F9104902F0B7FB272009B004
:105D9000F0BD2146E4E701463246384600F0B1FD49
:105DA000384600F02DFD064A31462046FFF7EBFD50
:105DB0002860204600F0D6FB2868E8E72020E6E7C8
:105DC000E0E103200BCD0B001BCD0B0010B5084606
:105DD0000C4604F0F4FC052808D906380449204490
:105DE00004F0BDFCB0FA80F0400910BD0020FCE7D3
:105DF0004ACB0B002DE9F0430C46CDB006461146C8
:105E000020461546FFF7E2FF50B903F0E1F83849A4
:105E100002F073FB4FF0FF31304603F037F84DE0EE
:105E20003448DFF8D090FFF7AAFE4FF0000829466B
:105E30004846FFF715FE431C07461ED1052229469A
:105E400003A8FFF7E7FE484603A9FFF76EFE03A885
:105E5000FFF7FEFEB8F1050FE9D1FB230093002305
:105E60001A46E02103A803F03DF803A9201D00F025
:105E7000C8FF002384F86830CCE701464846FFF7A6
:105E8000EAFD90F80431EBB1FB23009300231A469E
:105E9000E02103A803F026F803A9201D00F0B1FFBC
:105EA00039461448FFF7D7FD3446134B44F8043BFA
:105EB00000F586750FCD0FC42B68237030464DB0AA
:105EC000BDE8F08300F078F8E36EC31AB3F57A7F8B
:105ED000074606DD29462046FFF7F2FE08F10108D5
:105EE000E7662046FFF70EFF2028B3D092E700BFF9
:105EF00029CD0B00E0E103201CD00B000148FFF787
:105F000099BD00BFE0E1032008B5024B1B689B6808
:105F1000019308BD6802030008B5024B1B68DB68EB
:105F2000019308BD6802030008B5024B1B689B681B
:105F3000019308BD2C02030008B5024B1B689B6946
:105F4000019308BD2C02030008B5024B1B68DB69F6
:105F5000019308BD2C02030008B5024B1B685B6966
:105F6000019308BD6C02030008B5024B1B689B69D6
:105F7000019308BD6C02030008B5024B1B685B6D02
:105F8000019308BD6C02030008B5024B1B689B6DB2
:105F9000019308BD6C02030008B5024B1B685B68E7
:105FA000019308BD1802030008B5024B1B68DB68AB
:105FB000019308BD1802030008B5024B1B685B691A
:105FC000019308BD1802030008B5024B1B689B6DC6
:105FD000019308BD1802030008B5024B1B685B6EF5
:105FE000019308BD1802030008B5024B1B689B68AB
:105FF000019308BD7802030008B5024B1B681B6DB6
:10600000019308BD7802030008B5024B1B689B6D25
:10601000019308BD7802030008B5024B1B681B6E94
:10602000019308BD7802030008B5034B1B68D3F841
:106030009830019308BD00007802030008B5034BB7
:106040001B68D3F8A830019308BD00007802030054
:1060500008B5034B1B68D3F8B430019308BD0000AA
:106060007802030008B5034B1B68D3F8D8300193BE
:1060700008BD00007802030008B5034B1B68D3F885
:10608000DC30019308BD00007802030008B5034B23
:106090001B68D3F8EC30019308BD000078020300C0
:1060A00008B5034B1B68D3F8F030019308BD00001E
:1060B0007802030008B5034B1B68D3F80031019345
:1060C00008BD00007802030008B5034B1B68D3F835
:1060D0000431019308BD00007802030008B5024BAB
:1060E0001B681B6B019308BD4802030008B5024BF7
:1060F0001B689B6B019308BD4802030008B5024B67
:106100001B681B6C019308BD4802030008B5024BD5
:106110001B685B6C019308BD4802030008B5024B85
:106120001B68DB6C019308BD4802030008B5024BF5
:106130001B685B6D019308BD4802030008B5024B64
:106140001B685B69019308BD6402030008B5024B3C
:106150001B681B6A019308BD6402030008B5024B6B
:106160001B685B6A019308BD6402030008B5024B1B
:106170001B689B6A019308BD6402030008B5024BCB
:106180001B68DB68019308BD3C02030008B5024BA5
:106190001B681B69019308BD3C02030008B5024B54
:1061A0001B685B69019308BD3C02030008B5024B04
:1061B0001B689B69019308BD3C02030008B5024BB4
:1061C0001B68DB69019308BD3C02030008B5024B64
:1061D0001B681B6A019308BD3C02030008B5024B13
:1061E0001B689B6A019308BD3C02030008B5024B83
:1061F0001B681B6C019308BD3C02030008B5024BF1
:106200001B681B6A019308BD2802030008B5024BF6
:106210001B685B6A019308BD2802030008B5024BA6
:106220001B689B6A019308BD2802030008B5024B56
:106230001B68DB6A019308BD2802030008B5024B06
:106240001B681B6B019308BD2802030008B5024BB5
:106250001B685B6B019308BD2802030008B5024B65
:106260001B681B6C019308BD2802030008B5024B94
:106270001B685B68019308BD3802030008B5024B38
:106280001B689B69019308BD3802030008B5024BE7
:106290001B68DB69019308BD3802030008B5024B97
:1062A0001B681B6A019308BD3802030008B5024B46
:1062B0001B689B6A019308BD3802030008B5024BB6
:1062C0001B68DB6A019308BD3802030008B5024B66
:1062D0001B681B6B019308BD3802030008B5024B15
:1062E0001B685B6B019308BD3802030008B5024BC5
:1062F0001B689B6B019308BD3802030008B5024B75
:106300001B68DB69019308BD3002030008B5024B2E
:106310001B681B6A019308BD3002030008B5024BDD
:106320001B681B68019308BD4C02030008B5024BB3
:106330001B681B69019308BD4C02030008B5024BA2
:106340001B685B69019308BD4C02030008B5024B52
:106350001B689B69019308BD4C02030008B5024B02
:106360001B68DB69019308BD4C02030008B5024BB2
:106370001B681B6A019308BD4C02030008B5024B61
:106380001B685B6B019308BD6002030008B5024BFC
:106390001B681B6D019308BD6002030008B5024B2A
:1063A0001B681B68019308BD2002030008B5024B5F
:1063B0001B685B68019308BD2002030008B5024B0F
:1063C0001B68DB6A019308BD2002030008B5024B7D
:1063D0001B68DB6C019308BD2002030008B5024B6B
:1063E0001B685B6D019308BD2002030008B5024BDA
:1063F0001B689B6D019308BD2002030008B5034B89
:106400001B68D3F88830019308BD00002002030008
:1064100008B5034B1B68D3F89430019308BD000006
:106420002002030008B5024B1B685B68019308BD9E
:106430004002030008B5024B1B689B68019308BD2E
:106440004002030008B5024B1B68DB68019308BDDE
:106450004002030008B5024B1B681B69019308BD8D
:106460004002030008B5024B1B685B69019308BD3D
:106470004002030008B5024B1B689B69019308BDED
:106480004002030008B5024B1B68DB69019308BD9D
:106490004002030008B5024B1B681B6A019308BD4C
:1064A0004002030008B5024B1B681B6B019308BD3B
:1064B0004002030008B5024B1B685B6B019308BDEB
:1064C0004002030008B5024B1B681B6C019308BD1A
:1064D0004002030008B5024B1B685B6C019308BDCA
:1064E0004002030008B5024B1B681B68019308BDFE
:1064F0004402030008B5024B1B689B68019308BD6A
:106500004402030008B5024B1B685B69019308BD98
:106510004402030008B5024B1B681B6A019308BDC7
:106520004402030008B5024B1B685B6A019308BD77
:106530004402030008B5024B1B681B6B019308BDA6
:106540004402030008B5024B1B68DB6B019308BDD6
:106550004402030008B5024B1B681B68019308BD89
:106560001C02030008B5024B1B685B68019308BD61
:106570001C02030008B5024B1B689B68019308BD11
:106580001C02030008B5024B1B68DB68019308BDC1
:106590001C02030008B5024B1B685B69019308BD30
:1065A0001C02030008B5024B1B685B6A019308BD1F
:1065B0001C02030008B5024B1B68DB6A019308BD8F
:1065C0001C02030008B5024B1B681B6B019308BD3E
:1065D0001C02030008B5024B1B68DB6B019308BD6E
:1065E0001C02030008B5024B1B681B6C019308BD1D
:1065F0001C02030008B5024B1B685B6C019308BDCD
:106600001C02030008B5024B1B68DB6C019308BD3C
:106610001C020300002240681146FFF73BBF002226
:1066200040681146FFF746BF40680022FFF73ABFB7
:106630004068002281F00101FFF724BF0023406879
:106640001A461946FFF716BF002340681A46194636
:10665000FFF708BF002240681146FFF7FBBE00228B
:1066600040681146FFF7E6BE406800220221FFF7AE
:10667000E9BE002340681A46FFF7D4BE024B03224E
:106680005A60024A1A60704774E603203CCD0B0042
:1066900010B5044608462170FFF730FE0023636002
:1066A000204610BD054B02221A60054B054A9A6030
:1066B0000020C3E90000FFF779BE00BF88E6032091
:1066C0007CE603200000FFFF2DE9F041931E8CB013
:1066D000222B4FF000030D4614468DF82C3027D99D
:1066E00000282ADA2E462D2306F8013B40420A24D0
:1066F0000DF12B074FF001082246014601A803F0D7
:106700009CFF029B0198092BCCBF3722302252FA02
:1067100083F307F8013908F101080028ECD142465B
:10672000791C304603F0ADFF28460CB0BDE8F0817F
:106730000A2AD5D018B12E46DAE70A24FAE7302320
:106740008DF82B302E460DF12A074FF00208E6E7B0
:1067500010B40468246BA4465DF8044B60470368DA
:106760009B6C1847808E7047028FC08E101A70473E
:10677000F0B5036889B09F6A0C4B029300F12006C4
:1067800004460FCE03AD0FC533682B70A38EE28E87
:10679000E16B0093204602ABB84723680546DB69EE
:1067A00020469847284609B0F0BD00BF1CD00B001A
:1067B00007B503688DF80710DB6801220DF10701AA
:1067C000984703B05DF804FB10B503681B690446E5
:1067D000984728B1E38EE26B591CE186D05C10BD6E
:1067E0004FF0FF30FBE710B503681B69044698477C
:1067F00018B1E38EE26BD05C10BD4FF0FF30FBE7C9
:10680000704710B403460846DC6BD98E1A8F0368B4
:10681000521ADB6821445DF8044B1847A0F11000C0
:10682000FFF7EFBF70B503688CB05B6A04460E4695
:106830001546984701231C22002105A8029303F066
:1068400048FF40F61C233046ADF81430FFF78EFCAD
:106850001122ADF8160002210A20FFF747FD00289B
:10686000606125DB0422009202AB40F6FF71FFF766
:1068700005FDE8B995B10390ADF8100003A9E8B2A1
:10688000FFF76AFBA0B906230093606903AB41F2EE
:106890000B0240F6FF71FFF7F1FC48B960691C225A
:1068A00005A9FFF7E3FC18B9656401200CB070BDC1
:1068B000236820465B6A98470020F7E710B5044636
:1068C0004069002801DBFFF7E1FC4FF0FF33636113
:1068D0000023E386238710BD70B50546C06BEE8E9E
:1068E00068B12B6C9C1B944228BF1446224630444E
:1068F00003F0C7FEEB8E2344EB86204670BD0446B2
:10690000F1E7D0B503681B6904460F461646984761
:1069100090B1236820461B699847E38EE16B86425D
:10692000A8BF064619443246384603F0AAFEE38E55
:106930003344E3863046D0BD4FF0FF36FAE730B53A
:1069400087B0044601AD684602F0D8FA0FCD043492
:106950000FC42B68237007B030BD0000F0B5964619
:10696000026889B0976A0A4A02921C1D8C46064644
:106970000FCC03AD0FC523682B70BDF838300093E2
:10698000724602AB61463046B84709B0F0BD00BF61
:106990001CD00B0070B50446054B44F8043B01F1D4
:1069A000200506460FCD0FC42B682370304670BDFE
:1069B0001CD00B00F0B54378022B8DB005460C4679
:1069C000174604D1011D2046FFF7B9FF22E00A2B2C
:1069D00025D11122002101A803F07BFEAB6803B38F
:1069E00005F1080301AE05F1180C18685968324624
:1069F00003C2083363451646F7D1062301A906A84A
:106A000007AE8DF8143002F02FFA0FCE04340FC405
:106A1000336823701FB16888FFF7A0FB38800DB082
:106A2000F0BDEB68002BDBD14FF6FF702E69FFF74E
:106A30008DFB8642D4D105F11401C4E72DE9F04164
:106A400017468EB00022064601AB08461146019259
:106A5000FFF762FA041E20DB019B2BB35B691BB3BB
:106A600002A802F0F3F9019B0022586902A9FFF77E
:106A7000A1FF02A802F012FAB0B1336803ADD3F857
:106A800038800B4B08930FCD09AC0FC42B682370D3
:106A90003A4608A93046C04704460198FFF734FA41
:106AA00020460EB0BDE8F0814FF0FF34F5E700BF9F
:106AB0001CD00B002DE9F047D0F81490B9F1000F6D
:106AC00090B005460E4690461C463CDB00293AD065
:106AD0004FF01C0A09AF52460021384603F0F9FD79
:106AE000CDF80CA0DCB14FF47A73B4FBF3F203FBE6
:106AF000124400215C431023CDE904210791009347
:106B000041F206026B4440F6FF7148460694FFF7D7
:106B1000B5FB044620B1204610B0BDE8F08708243C
:106B200003ABCDE900736869234642463146FFF75F
:106B3000C5FB041EEFDB05F1340205F11C013846EC
:106B4000FFF738FFE7E74FF0FF34E4E738B50546D5
:106B500014462B7D062B084610D140F61C231380CB
:106B6000FFF704FB08342B1D24F8060C143553F8EA
:106B7000042B44F8042BAB42F9D138BD042BFCD1D3
:106B80004FF404731380FFF7F1FA60806868FFF731
:106B9000DDFA6060F1E72DE9F0438BB003AF4FF011
:106BA0001C09984604460D46164600214A463846BA
:106BB00003F08FFDBDF848103A464046FFF7C6FF88
:106BC0009DF80D3053B1CDE900796069002332465C
:106BD0002946FFF783FB0BB0BDE8F0834FF0FF3091
:106BE000F9E7F0B591B00C4606460021154609A814
:106BF0001C221F4603F06DFD09AA00212046FFF765
:106C0000A5FF9DF82530022B2DD1002305930A9B6B
:106C10000493BDB102A92846FFF7A6F990B90390E5
:106C200003A90298FFF7A8F948B9039B3BB1DA68BA
:106C300012685178022914D1526892B105920398D2
:106C4000FFF7A2F9002F4FF00803009318BF0322AB
:106C500004AB08BF042200213046FFF70FFB11B040
:106C6000F0BD1B68E2E70A2B15D10BAB0FCB04ACD0
:106C700084E80F00002F4FF01403009318BF0C227C
:106C8000234608BF0D22292130460895FFF7F6FA62
:106C900000EAE070E3E74FF0FF30E0E738B50025A9
:106CA0004FF47A73C0E901530B4B03F108026C33C4
:106CB00003614FF0FF330446026043611C3002F071
:106CC000C5F84FF40073C4E91035E5862587E56300
:106CD00084F84850204638BD70CD0B0010B590F8B0
:106CE0004830044623B1C06B10B10121FDF7D9F93A
:106CF0000023E36384F848302364E386238710BDD0
:106D000070B5044616460D46FFF7E8FF0023E6631C
:106D100023642EB12564206C003818BF012070BD9B
:106D2000002DF8D02846FDF7B8F90123E06384F878
:106D300048300028EFD0EDE7F8B51746C26B05469E
:106D40000C461AB9016C09B1FFF7DAFF04340FCC15
:106D500005F120060FC6236833700023286CAF8628
:106D6000EB862B87F8BD37B5C26B04460B462AB9B4
:106D7000016C19B10193FFF7C3FF019BE16B002286
:106D8000E286228741B1226C32B12068056B204631
:106D9000A8470028C8BF208723681B69204603B086
:106DA000BDE830401847000010B5074B03F108025A
:106DB0006C33044602600361FFF780FD2046FFF755
:106DC0008DFF204610BD00BF70CD0B0010B50446EE
:106DD000FFF7EAFF20464C21FDF763F9204610BD7E
:106DE00010B44469002C07DB90F8442001232046AE
:106DF0005DF8044BFFF7F5BE4FF0FF305DF8044B34
:106E0000704710B44469002C07DB90F8442000233D
:106E100020465DF8044BFFF7E4BE4FF0FF305DF80D
:106E2000044B7047704710B50C210446FDF739F943
:106E3000204610BD10B504460068FFF793FB2046BE
:106E400010BD10B50446006808B1FFF78BFB0023A6
:106E5000C4E90133236010BD38B504460D4600680F
:106E60000131FFF787FB10B1C4E90005012038BDEF
:106E700010B50368044623B143688B4201D3012057
:106E800010BD2046FFF7E8FF0028F9D0A368002BCB
:106E9000F5D122681370F2E737B50D46114601921D
:106EA0000446FFF7E5FF019A28B92046FFF7C9FF1E
:106EB000204603B030BDA2602946206803F0E1FB04
:106EC0002268A3680021D154F2E7002313B5C0E97A
:106ED000003304468360037341B10846019103F017
:106EE0006EFC019902462046FFF7D6FF204602B00D
:106EF00010BD13B5044659B10846019103F05FFC7B
:106F0000019902462046FFF7C7FF204602B010BD98
:106F1000FFF797FFF9E710B504468AB00023C4E9EC
:106F20000033A3602373084601A9FFF7CDFB01A935
:106F30002046FFF7DEFF20460AB010BD70B50546BB
:106F40000E4609B9002070BD6AB184681444214618
:106F5000FFF78EFF0028F5D02868AB68314618444B
:106F600003F007FCAC600120EDE78A680968FFF7D1
:106F7000E5BF38B5044680688568FFF7DFFFA36882
:106F80009868401B38BD07B500238DF80410012216
:106F900001A98DF80530FFF7D1FF03B05DF804FBC0
:106FA00008B58068FFF7EFFF08BD10B58A6809686B
:106FB0000446FFF7C3FF10B92046FFF742FF204603
:106FC00010BD000030B585B000230D460293C0E926
:106FD0000033836003731421064B0193044603902E
:106FE000FFF746FF2B6801A91B68284698472046F3
:106FF00005B030BDE8CD0B000EB470B587B00BAD59
:10700000044655F8042B01922B46052104A803954C
:10701000FFF7C8FA0B4906462046FFF756FF3146F0
:107020002046FFF725FF206830B1019A03952B46D3
:10703000711CFFF7B7FAA060204607B0BDE87040AA
:1070400003B07047F4C80B00704770477047704733
:10705000064B994210B500F10C0405D0084602F029
:1070600039FD002808BF0024204610BD98CF0B0032
:10707000064B994210B500F10C0405D0084602F009
:1070800029FD002808BF0024204610BD98CF0B0022
:10709000064B994210B500F10C0405D0084602F0E9
:1070A00019FD002808BF0024204610BD98CF0B0012
:1070B00010B568210446FCF7F4FF204610BD10B55A
:1070C00028210446FCF7EDFF204610BD10B5302105
:1070D0000446FCF7E6FF204610BD6821FCF7E1BF3F
:1070E0002821FCF7DEBF3021FCF7DBBFF0B500251F
:1070F000EC1C8C420DD86E1C445D875D974205D117
:107100002644B14205D31D60601CF0BD0134254406
:10711000EEE70020F9E70000024A03490A20FFF7E2
:107120002DB900BFA95F0B00F8CD0B000346084640
:107130001B68D3E90021104730B40D4611461A46AA
:10714000036809682868D3E90043A44630BC604757
:10715000012A38B5044602D10B68236003E0022AF5
:1071600003D0032A0DD0002038BD08200D68FCF79D
:1071700092FF03460028F0D095E8030083E803005F
:10718000EBE700680028EED00821FCF78AFFEAE769
:10719000012A38B5044602D10B68236003E0022AB5
:1071A00003D0032A0DD0002038BD08200D68FCF75D
:1071B00072FF03460028F0D095E8030083E803003F
:1071C000EBE700680028EED00821FCF76AFFEAE749
:1071D00010B58368044613B1032201469847204640
:1071E00010BD10B504465830FFF7F2FF04F1480017
:1071F000BDE81040FFF71EBE10B54368013B0446D2
:10720000436063B903689B689847A368013BA36028
:107210002BB923682046DB68BDE81040184710BD35
:10722000A0F13003DAB2092A01D818467047A0F15C
:107230006103052B01D857387047A0F14103052B96
:1072400094BF37384FF0FF307047000010B500236F
:107250000370044B04461868FEF760FF0123237097
:10726000204610BD94E6032010B5037804461BB1F8
:10727000024B1868FEF75AFF204610BD94E6032023
:1072800082B00346086849686A4603C26A4603CA70
:1072900018601846596002B0704708B582798B793A
:1072A0009A4206D1062203F0DCF9B0FA80F04009D8
:1072B00008BD0020FCE74FF0FF330360838000200F
:1072C000704708B50246002101604160FFF7F3FFF7
:1072D0009171104608BD000010B501230361054BF4
:1072E000024603F1100153F8044B42F8044B8B4261
:1072F000F9D110BDA6CF0B0010B50B460446B1B1B5
:10730000012A01F110020AD1014653F8040B41F899
:10731000040B9342F9D101232361204610BD411E85
:1073200012F8010D01F8010F9A42F9D1F3E710228A
:1073300003F0CFF9F1E738B5044615461A46FFF7D2
:10734000DBFFA581204638BD08B5026922B98089D6
:10735000003818BF012008BD0249102203F081F94E
:10736000F6E700BFC6CF0B000069704738B50C4682
:1073700014220021054603F0ACF923691BB9A38947
:107380002B80284638BD01232B7421462B4604F15F
:10739000100251F8040B43F8040B9142F9D1F0E7C5
:1073A00080897047704708B502690B699A4206D117
:1073B000102203F056F9B0FA80F0400908BD002011
:1073C000FCE7000001232DE9F3410361344B0C4637
:1073D0000646024603F1100153F8040B42F8040B71
:1073E0008B42F9D144B32421204603F017FA042834
:1073F0004FF0000523D1ADF8045001AFA51C0634B1
:1074000015F8020CFFF70CFFB0F1000812DB15F8BD
:10741000010CFFF705FF00280CDB023540EA0810DD
:10742000A54207F8010BEBD19DF8053033739DF8A9
:10743000043073730023336102B0BDE8F0814FF074
:1074400010082421204603F0E9F9A84207D8424653
:107450000021304602B0BDE8F04103F03AB9B8F17E
:10746000000FE9D0605DFFF7DBFE030615D40001D5
:1074700008F1FF38C7B206F808702421204603F04F
:10748000CDF90135A84208D9605DFFF7C9FE40B2C9
:107490000028A4BF384306F808000135D1E700BF33
:1074A000A6CF0B0013B504460191FFF715FF204648
:1074B0000199FFF787FF204602B010BD38B54FF69F
:1074C000FF730025044643800E222946057005718E
:1074D000063003F0FEF804F11400FFF7FDFE04F19E
:1074E0002800FFF7F9FE044904F13C00FFF7EDFC2A
:1074F0006565204638BD00BFF4C80B0010B5D0E963
:10750000063203EBC2029342184606D00468248870
:107510008C4203F10803F6D110BD0020FCE7000007
:10752000F0B5064685B01F460D46002950D0002A0A
:107530004ED004682378F42A28BFF42243B3237979
:10754000980709D5A08903920023FEF781FD002842
:10755000039A03DA05B0F0BD6FF077003468237941
:10756000D90609D5012F07D0A0890023294605B0E7
:10757000BDE8F040FEF79EBD9B06EBD5022FE9D09B
:10758000A0890023294605B0BDE8F040FEF79CBD68
:1075900060884FF6FF7188421CD021794E0701D5D3
:1075A000012F04D10B0709D46FF07700D2E7A1892E
:1075B000009313462A46FEF75FFDCBE7022FF3D078
:1075C0000023A189009313462A46FEF74BFDC1E72D
:1075D0000248BFE76FF0D100BCE700BFF2FEFFFF3B
:1075E00037B50C460546F4212046019203F016F902
:1075F000019B02462146284603B0BDE83040FFF714
:107600008FBF00002DE9F0410026066007462820C4
:107610000C46FCF740FD051E05F10C080FD00123B8
:10762000C5E90133084B2B604046FFF755FE0FCCF0
:107630002E6285F8246046460FC623683360C7E98A
:1076400000853846BDE8F08168CF0B0070B5002595
:10765000056006463020FCF71EFD044688B1012374
:10766000C0E90133094B03604FF6FF7383810E308D
:10767000FFF727FEC4E90655C4E90855C4E90A55D1
:10768000A57574600C343460304670BD84CF0B0037
:1076900037B50D46044601A8FFF7D8FD2A68D2F891
:1076A00002302360D2F80630636001A8FFF7DCFDEA
:1076B000204603B030BD30B5054687B00C4601A862
:1076C000FFF7C4FD2A68236812881B889A420DD1EF
:1076D000294602A8FFF7DCFF214604A8FFF7D8FFE0
:1076E00004A902A8FFF7D9FD044600B9002401A8A7
:1076F000FFF7BAFD204607B030BD000010B50446C4
:107700006420FCF7C8FC68B10023C0E90033C0E97D
:107710000233C0E90433C0E906330362C362C363C2
:10772000C364C365206020B90A4A0B490A20FEF7EA
:1077300025FE0020FEF758FC20B1064A07490A2022
:10774000FEF71CFE216806480022FEF7A9FC204631
:1077500010BD00BFA95F0B00F8CD0B0036CE0B00AB
:10776000297D0B0010B50A4C2378BFF35B8FDB0734
:107770000CD42046FCF797FC40B10648FFF7BEFF4B
:107780002046FCF795FC044802F04AFF014810BD72
:107790008CE6032098E60320D1790B0030B503680E
:1077A000093B012B8DB004460D4611D8FFF7DAFFD7
:1077B000A1880068FFF7A2FE034658B92022CDE950
:1077C00004200B4A00920B4904AA3220FEF7DEFD8A
:1077D0000DB030BD6A6D002AFAD0D4E9032105F15D
:1077E0004C00CDE90312AC6D04AA03A9A047EFE752
:1077F00078CE0B000FCE0B0008B50020FEF7F4FB8F
:1078000000EAE07008BD19B90A460846FEF7F4BB65
:10781000D1E900010022F9E738B5141E4368054696
:1078200002DB62189A4200DD5C1A2A6850180119BE
:107830001A44521A02F033FF6A68121B6A6038BD9C
:1078400037B50A4604460D4601ABD0E90001FFF703
:107850004DFC024638B101992046FFF7DDFF29466D
:107860002046FFF7EDFF03B030BD10B50C4629B937
:107870000A460846BDE81040FEF7C6BB0121204677
:10788000FFF7DEFFD4E900010022F3E738B5044634
:107890001546FFF7B8FF00280ADB29462046FFF708
:1078A000E4FF002804DBBDE838400020FEF7B4BB4D
:1078B00038BD000038B500230446836008200D461B
:1078C000FCF7E9FB18B12B6803606B684360034B5E
:1078D000E360034B2060A360204638BD39710B0084
:1078E00091710B0038B500230446836008200D46D3
:1078F000FCF7D1FB18B12B6803606B684360034B46
:10790000E360034B2060A360204638BD2D710B005F
:1079100051710B000B68036013B15A6801325A6051
:10792000704710B551F8043B044640F8043BFFF79C
:10793000F1FF23680BB9FFF7EFFB204610BD10B530
:1079400051F8043B044640F8043BFFF7E3FF2046B0
:1079500010BD10B551F8043B044640F8043BFFF756
:10796000D9FF204610BD10B504460430FCF7FCFDDD
:10797000204610BD70B5D0E90053044605EBC306A0
:10798000AE4204D0281DFCF7EFFD0835F8E720686B
:10799000FEF7E8FD204670BD70B5D0E900530446FF
:1079A00005EBC306AE4204D0281DFCF7DDFD08350B
:1079B000F8E72068FEF7D6FD204670BD10B50446F6
:1079C0002430FFF7E9FF04F11800FFF7D3FF10BDE3
:1079D00070B5174B1C6854B304F15400FFF7F8FB63
:1079E00004F14400FFF7F4FB04F13400FFF7F0FB6F
:1079F00004F12400FFF7ECFBD4E9065305EBC306C2
:107A0000AE4204D0281DFCF7AFFD0835F8E7A069A9
:107A1000FEF7A8FD04F10C00FFF7BEFF2046FFF7BC
:107A2000A9FF20466421BDE87040FCF73ABB70BD59
:107A300098E6032013B50023D1E90042C1E90033E1
:107A40000368009304604368426001A80193FCF757
:107A50008BFD02B010BD826810B50AB902F036F88D
:107A6000BDE81040C368184738B50D1E04460068CD
:107A700003DDFEF77FFD18B938BDFEF773FD00206A
:107A80002060A5600120F7E708B583688B4202DA21
:107A9000FFF7EAFF08BD0120FCE72DE9F0410F46A2
:107AA00041681D461944836899420446904612DC99
:107AB000266862683E44D21B3146701902F0EFFD21
:107AC0002A464146304602F0DCFD63682B44636081
:107AD0000120BDE8F081FFF7C7FF0028E8D1F8E7F3
:107AE000F8B50D46D0E901139942044616460BDA63
:107AF000276862687919521B481C02F0D0FD7E5538
:107B0000636801336360F8BD0131FFF7ADFF002802
:107B1000EED1F8E70A464168FFF7E2BF2DE9F743E7
:107B200004461D460F4601AB90460A46D0E90001C7
:107B30009DF82890FFF7DAFAAE1C63680246B9F1A7
:107B4000000F26D128B333441B1AFF2B09D8019903
:107B50002046FFF761FE616820463144FFF794FF3D
:107B600018B9606803B0BDE8F0836A1C0199D2B20D
:107B70002046FFF7B5FF01993A4601312046FFF74D
:107B8000AFFF01992B46424602312046FFF785FFA1
:107B9000E7E7F118FF29E4D82046FFF775FF002832
:107BA000DFD0691CC9B22046FFF7B4FF3946204632
:107BB000FFF7B0FF61682B464246E6E730B49DF818
:107BC00008501AB1029530BCFFF7A8BF406830BC1E
:107BD00070471FB50023C0E900338360062200937D
:107BE00001238DF80F2019460DF10F020446FFF70F
:107BF000E5FF204604B010BD1FB50A460446142117
:107C00001046039202F00AFE002103460091039AF7
:107C100009212046FFF7D2FF04B010BD8842F8B515
:107C200004460D46164614D9904213D2A2F1080616
:107C3000751AA1F108072C44B74218D01CB131467F
:107C40002046FFF786FE301DFCF78EFC083E083C00
:107C5000F2E70CD0B5420AD01CB129462046FFF706
:107C600078FE281DFCF780FC08350834F2E7F8BDE3
:107C7000F7B5044646686846FFF76BFED4E9017322
:107C80009F4212DB0137002F29DDF800FEF762FC6E
:107C90000546F0B1D4E9001201EBC202FFF7BEFFC6
:107CA0002068FEF75FFC2560A7602368626803EB2D
:107CB000C60603EBC202314606F10800FFF7AEFF2D
:107CC0001EB169463046FFF744FE636801336360C6
:107CD000012501A8FCF748FC284603B0F0BD0025AB
:107CE000DEE7F8B5D0E9004305460F4604EBC306CE
:107CF000A64205D039462046FFF7DDFC08B114B98D
:107D0000F8BD0834F4E7201DFCF72EFCD5E900325D
:107D100004F1080103EBC2022046FFF77FFF6B6806
:107D2000013B6B60ECE700002DE9F04105468EB0A9
:107D300003A80C46FFF78AFA2E68F31E0D2B3CD8D9
:107D4000DFE813F00E0053003B00D1003B003B0086
:107D50003B003B003B009B009B009B009B009B006B
:107D600004A8FFF773FC049BAA891A806968049829
:107D700008310230FFF784FA04A906A8FFF7E9FDED
:107D800006A904F11800FFF773FF054607A8FCF7E2
:107D9000EBFB20230693B5B95D4B5E49009332207F
:107DA0002B4606AA0795FEF7F1FA049B2946188888
:107DB000FEF73AF905A8FCF7D7FB03A8FFF754FA3A
:107DC0000EB0BDE8F081544A009200235149079358
:107DD00006AA0120FEF7DAFAE36A002BEAD004A92A
:107DE00004F12400FFF737FEE4E7A9892046FFF7F6
:107DF00085FB06460028E0D00568D5E906324FF637
:107E0000FF71298003EBC2029A4203D053F8080B9A
:107E10004180F9E7D5E9037307EBC308B84504D0FF
:107E2000381DFCF7A1FB0837F8E700232B61D5E9E3
:107E3000067307EBC308B84504D0381DFCF794FB64
:107E40000837F8E70023EB61AB72E36B23B13146EF
:107E500004F13400FFF7FFFD00232022CDE90623C3
:107E60002E4A00922B4906AA0120FEF78FFA3146CE
:107E700004F11800FFF735FF9FE7A9892046FFF7B7
:107E80003DFB002899D0E36C002B96D000230D2EEB
:107E9000ADF8163001D0102E17D1002369681A46AC
:107EA00006258DF8153004918DF814200690DDE933
:107EB000040109AB8DF81C60089583E80300236D6D
:107EC00006A904F14400984777E70F2E01BF2B7AEB
:107ED000696803F0010208250FBFC3F340031A4687
:107EE00019461D46DDE7A9892046FFF707FB014635
:107EF00000283FF462AFE36D002B3FF45EAF6B6888
:107F0000069306AA236E04F15400984755E700BF74
:107F100090CE0B000FCE0B00B6CE0B00D3CE0B00D5
:107F200013B50B460246D0E900016C4684E8030015
:107F300093E8030082E8030094E8030083E8030069
:107F400002B010BD38B505460C46FFF7E9FFAB6837
:107F5000A268AA60A360EB68E268EA60E36038BDEB
:107F600070B504468CB00E4601921D46FFF7A6FA86
:107F70002671019904F13C00FEF7BBFF04F14C06A9
:107F8000CDB1109B029502A904A80393FFF792FCC0
:107F9000002308A904A80A93FFF7D4FF314608A8D4
:107FA000FFF7D0FF08A8FFF713F904A8FFF710F9AF
:107FB00020460CB070BD0695EAE700002DE9F04FB1
:107FC00087B01D46DDE9104380468B4692461299E4
:107FD00003930022682002910492FCF75CF8061ECD
:107FE00006F10C0918D001223746C6E90122029990
:107FF000154A47F8202B039B00915A4651464846A4
:10800000FFF7AEFF0FCD0FC72B683B600FCC06F11B
:1080100034050FC523682B6004A94046CDE90496BA
:10802000FFF708FD05A8FCF79FFAD8F800303BB928
:10803000064A07490A2007B0BDE8F04FFEF79EB98F
:1080400007B0BDE8F08F00BF4CCF0B00A95F0B005D
:10805000F8CD0B0038B505460C46FFF761FFAB685D
:10806000A268AA60A360EB68E268EA60E36038BDDA
:1080700010B504688AB02434B9B1CDE9001202A861
:108080006946FFF72FFC002306A902A80893FFF713
:10809000E1FF214606A8FFF7DDFF06A8FFF798F8E5
:1080A00002A8FFF795F80AB010BD0491EBE78842EB
:1080B000F8B504460D46164614D9904213D2A2F1E3
:1080C0000806751AA1F108072C44B74218D01CB154
:1080D00031462046FFF733FC301DFCF745FA083ED9
:1080E000083CF2E70CD0B5420AD01CB12946204624
:1080F000FFF725FC281DFCF737FA08350834F2E7AE
:10810000F8BD70B50E1E054611DDF000FEF722FA2F
:10811000044658B1D5E9001201EBC202FFF7C7FFD0
:108120002868FEF71FFA2C60AE60012070BD0024A5
:10813000F6E773B5044645686846FFF700FCD4E9E6
:108140000113994210DA2368626803EBC50503EB5B
:10815000C202294605F10800FFF7A9FF8DB963683F
:1081600001336360012606E001312046FFF7C9FFB5
:1081700006460028E7D101A8FCF7F6F9304602B020
:1081800070BD69462846FFF7DAFBE8E78842F8B594
:1081900004460D46164614D9904213D2A2F10806A1
:1081A000751AA1F108072C44B74218D01CB131460A
:1081B0002046FFF7B6FB301DFCF7D6F9083E083C19
:1081C000F2E70CD0B5420AD01CB129462046FFF791
:1081D000A8FB281DFCF7C8F908350834F2E7F8BDFC
:1081E00070B50E1E054611DDF000FEF7B3F904462A
:1081F00058B1D5E9001201EBC202FFF7C7FF2868AA
:10820000FEF7B0F92C60AE60012070BD0024F6E7E7
:1082100073B5044645686846FFF783FBD4E901134C
:10822000994210DA2368626803EBC50503EBC202CA
:10823000294605F10800FFF7A9FF8DB963680133EE
:108240006360012606E001312046FFF7C9FF0646BC
:108250000028E7D101A8FCF787F9304602B070BDCD
:1082600069462846FFF75DFBE8E700002DE9F04F7F
:108270001746A1B080460AA80E46FEF7E7FF3C6805
:10828000237953B939464046FFF74BFB0AA8FEF75E
:10829000EBFF404621B0BDE8F08F3368D3E90353CC
:1082A00005EBC303039304F1280A04F1140B039BA9
:1082B0009D4221D0D5F80090584609F11401FFF7EE
:1082C00072F8B8B109F128015046FFF76CF888B18F
:1082D0002368D9F80020534033F47F430AD1202289
:1082E000CDE915235E4A009215AA5E493220FEF7B9
:1082F0004DF8C7E70835DAE75046FFF725F860B9CB
:108300005949012215A815ADFEF7F6FF0FCDD44649
:10831000ACE80F002B68CCF800303368D3E9005389
:1083200005EBC30B5D45A94651466ED055F8080BC9
:10833000FFF739F80028F5D004F1140A5046FFF78A
:1083400003F888B9494B48491A88013292B21A8019
:1083500015A8012315ADFEF7EEFF0FCDD446ACE80E
:108360000F002B68CCF80030414B159328220021D8
:1083700016A802F0AEF9514604A8FEF7F7FF04ABC9
:1083800018AA0DF1200C18685968154603C5083362
:1083900063452A46F7D11868286023798DF858304C
:1083A000D9F800309B8AADF87430E36B1793314BEA
:1083B0000022A11D15A8CDE91E34FDF767FE002897
:1083C0007FF460AF01232370346839460C340DA864
:1083D000FFF7A7FA20460DA9FFF71AFF04460EA8DB
:1083E000FCF7C2F8002C7FF44DAF2023CDE90D340B
:1083F000214B00930DAA234677E739464046FFF705
:1084000090FA0CA8FCF7B0F840E70BA8FFF7FAF8D1
:10841000514615A8FEF7AAFF0B9A0023143215A99E
:108420000120FDF70BFE0028E7D135680BA90DA848
:10843000FFF785FA28460DA9FFF77BFE05460EA833
:10844000FCF792F8002DD8D032685368126803F117
:108450000053013B0CA802EBC309FCF785F86BE75E
:10846000F2CE0B000FCE0B00B6CF0B0090E6032030
:1084700003002C009D770B001DCF0B00024800234A
:108480000360FDF743BE00BF94E60320F8B506463F
:108490000D468F180024BD420CD0336815F8011B1F
:1084A0009B6830469847031E01DB1C44F3E7002C11
:1084B00008BF1C462046F8BD13B50446084659B10E
:1084C000019102F07CF923680199DB68024620469D
:1084D00002B0BDE81040184702B010BD03689B68A9
:1084E000184738B50D210546FFF7F8FF0A21044665
:1084F0002846FFF7F3FF204438BD38B50546FFF79F
:10850000DBFF04462846FFF7ECFF204438BD30B5BA
:108510008BB00023012A8DF8243098BF0A2209ACC1
:108520000D46B1FBF2F101FB125303F0FF03092BDF
:1085300094BF30333733DBB2AA4204F8013DEFD9A0
:108540002146FFF7B9FF0BB030BD2DE9F04186B0F1
:1085500000AF05460E46381D142114463B60FEF759
:1085600021F813280ED8391D2846FFF7A5FF044629
:108570001EB12846FFF7B5FF044420461837BD4614
:10858000BDE8F08100F1080323F00703E846ADEBF6
:10859000030D2246411C3B686846FEF703F8694616
:1085A0002846FFF789FF0446C546E1E7014B024A2A
:1085B0001A6070479CE60320D6CF0B002DE9F041EE
:1085C000154ADFF86080D2E90063801943EB0101AE
:1085D000124BD3E90067D8E90023861941EB07075E
:1085E000BB4208BFB2428CB013D003A96846CDE9A4
:1085F0000067FEF707F8089B094D03F26C7303ACA4
:1086000008930FCC0FC50FCC0FC5C8E900672368CE
:108610002B600CB0BDE8F081D0E60320C8E6032053
:10862000A4E60320D8E6032008B50020FDF782FF6A
:1086300028B1FDF767FF80F00100C0B208BD01203E
:10864000FCE7000008B5FFF7B9FF024B18690130DD
:1086500008BD00BFA4E6032010B50020FDF7B4FC60
:108660000446A0B9FDF79AFE012810D12046FDF777
:10867000BDFE60B9FFF7D8FF10B9FDF73BFFF9E782
:10868000FFF7D2FFBDE810400020FDF79DBC20465B
:1086900010BD1FB5FFF7E0FF10220021684602F071
:1086A00018F800216846FDF797FC009805B05DF8C2
:1086B00004FB000008B5FFF7ECFFC117FFF77EFFD2
:1086C000014B986808BD00BFA4E6032008B5FFF77A
:1086D000E0FFC117FFF772FF014B586808BD00BFEC
:1086E000A4E6032008B5FFF7D4FFC117FFF766FF24
:1086F000014BD86808BD00BFA4E6032008B5FFF70A
:10870000C8FFBDE80840C117FFF79CBF08B5FFF7D9
:10871000C0FFC117FFF752FF014B586908BD00BFEA
:10872000A4E60320024B1A68024B1A60704700BF90
:1087300050D10320A0E6032010B5044B036004468B
:10874000806908B1FEF758FD204610BDECD00B0043
:1087500010B50446FFF7F0FF20461C21FBF7A1FCF3
:10876000204610BD014B00229A607047E0E60320CE
:10877000014B1860704700BF54D1032008B50B4B64
:1087800043B100F025FC03681B699847002801DD10
:10879000AFF30080064B43B101F036F903681B6963
:1087A0009847002801DDAFF3008008BD00000000FD
:1087B0000000000008B5FFF7E1FFFDF7FDFB014BEE
:1087C000186008BD44E703200548064A064908B575
:1087D000121A01F056FF054B054A1A6008BD00BF8A
:1087E00000F4032004F4032094D70B0000F40320CA
:1087F0001E1C279A07B5002300931A466FF07701D5
:10880000FDF706FE03B05DF804FB000007B54388E2
:108810000A2B08D0502B0BD1094B1B684BB103B06E
:108820005DF804EB1847FFF7E5FF03B05DF804FBC4
:10883000002300931A466FF07701FDF7E9FDF4E796
:10884000F4E6032010B512480021FDF7D3FE114BCA
:108850001A68114B9A42114B0CBF012200221A7068
:1088600001D0FFF7B1FFFDF797FB044601F03AFF97
:108870000B4B13B12046AFF3008000210848FDF7F1
:1088800061FEBDE8104007480021FDF7B7BD00BFFD
:1088900071870B0000F403201E1C279AF0E60320CA
:1088A000000000000D880B0070470020704710B5D5
:1088B00010210446FBF7F5FB204610BD08B5FFF775
:1088C000F6FF08BD30B500224FF69C74026084802C
:1088D0008D888C800C68858004600A6030BD10B57E
:1088E00004460068FDF73EFE204610BD38B5C4685A
:1088F000F4B12378022B03D104F10C00FFF7EFFF52
:10890000656835B12846FEF763FC10212846FBF761
:10891000C8FBA56835B12846FEF75AFC1021284649
:10892000FBF7BFFB20461421BDE83840FBF7B9BB7D
:1089300038BD0B6803604B68436013B15A6801325D
:108940005A60704737B5044668460D46FFF7F1FF99
:10895000009B019A23606260002301A801930093A9
:10896000FBF702FE35B1281DFBF7FEFD0821284666
:10897000FBF797FB204603B030BD826810B50AB9FB
:1089800001F0A4F8BDE81040C368184708B50068B6
:1089900000F11001FFF7F1FF08BD826810B50AB9B8
:1089A00001F094F8BDE81040C368184708B50068A6
:1089B00000F11001FFF7F1FF08BD000038B50023FA
:1089C0000446036010200D46FBF765FB28B1012328
:1089D000C0E90133024B0360C5602060204638BD0A
:1089E00000D00B0038B5002383608B6804460D4629
:1089F0002BB102229847EB68E360AB68A360204686
:108A000038BD0000F0B589B004686846FFF75AFF2A
:108A10004FF00203D4E84F2F002A03D1C4E8413FAE
:108A20000029F7D125D104F10C0569462846FFF746
:108A300049FFBFF35B8F01236370002004F108033B
:108A4000BFF35B8F53E8006F43E80002002AF9D1BF
:108A5000BFF35B8F6EB1FDF7B9FC78B129463046A4
:108A6000FFF78BFF3046FEF7B3FB10213046FBF7D4
:108A700018FB6846FFF733FF09B0F0BD314602A886
:108A8000FFF7B0FFE068B4F9105008B101F07AFECA
:108A900006901020ADF81C50FBF7FDFA0546E8B132
:108AA000002787601820FBF7F6FA044688B10146D4
:108AB000876002A8FFF734FA049BA268A360059BB5
:108AC000049206A9E268E36004F110000592FFF742
:108AD000F9FE084BEB60084B2C60AB6006A8FFF773
:108AE000FEFE02A8FEF774FB002229460348FDF7AC
:108AF00075FCB7E78D890B00118C0B0019910B00E9
:108B00002DE9F04F8BB005469DF850A00F469046DA
:108B10009946FDF7F7FC07AE834638BB4FF62E7338
:108B2000059005A93046ADF81830FFF7CBFE1420AC
:108B3000FBF7B1FA044648B1022303700123C0E9F0
:108B400001BB437031460C30FFF7BCFE284621467E
:108B500040F8044BFFF732FF3046FFF7C0FE05A890
:108B6000FFF7BDFE28460BB0BDE8F08F0C230024B4
:108B70001420CDE908440793FBF78DFA014618B19C
:108B8000C0E901440470447004A80391FFF716FF84
:108B90001E4B08930820FBF77EFA044610B103A988
:108BA000FFF7C7FE00965FFA8AF34A464146384609
:108BB0000994FDF7AFFCB8B9039B5B7803F0FF02A3
:108BC00093B94FF69C7305A903A80592ADF8183028
:108BD000FFF718FF05A8FFF782FE05A80999FFF720
:108BE000B1FE06A8FBF7C0FC03A905A8FFF7A1FE8C
:108BF000059B069A2B606A60002306A806930593DE
:108C0000FBF7B2FC04A8FBF7AFFCABE78D8C0B00C5
:108C1000012AF8B5054603D10B6803600020F8BDB2
:108C2000022A10D0032AF9D10468002CF6D004F1EE
:108C30001000FFF754FE2046FEF7CAFA182120461E
:108C4000FBF72FFAEAE718200E68FBF724FA044630
:108C500050B13146FFF7C6FE3069B6F9147008B15D
:108C600001F090FD2061A7822C60D7E738B5002382
:108C700083608B6804460D462BB102229847EB684F
:108C8000E360AB68A360204638BD0000F0B589B052
:108C900004460D4601A81146FFF754FEA4B124B2C4
:108CA0001DB1284601F06EFD054601A803A90395F4
:108CB000ADF81040FFF7A6FE03A8FFF710FE02A8CC
:108CC000FBF752FC09B0F0BD019D0123D5E84F2F01
:108CD000002A03D1C5E8413F0029F7D1EFD12B731A
:108CE000BFF35B8F6B702B1DBFF35B8F53E8006F7F
:108CF00043E80042002AF9D1BFF35B8F002EDED09B
:108D00002046FDF763FB074660B105F10C013046D4
:108D1000FFF743FE3046FEF75BFA10213046FBF7C3
:108D2000C0F9CCE7314603A8FFF7A0FF2B7B8DF8F5
:108D30001C301020FBF7AFF90546D0B18760142036
:108D4000FBF7A9F9044678B18760014603A8FFF74D
:108D5000E7F8059BA268A360069B0592E268E360C2
:108D60009DF81C3006922374064BEB60064B2C607A
:108D7000AB6003A8FEF72CFA002229460348FDF752
:108D80002DFBC7E7AD890B00918D0B0019910B00EE
:108D9000012A70B5044603D10B680360002070BD42
:108DA000022A0CD0032AF9D10468002CF6D0204600
:108DB000FEF70EFA14212046FBF773F9EEE71420B4
:108DC0000E68FBF768F9054620B13146FFF74EFF04
:108DD000337C2B742560E1E7704710B518210446F9
:108DE000FBF75FF9204610BDF0B5037D062B8DB073
:108DF0000E4600F104074FF0000412D000F1080500
:108E000015F8011D0A223046FFF781FBAF420444EA
:108E100019D0002CF4D02E213046FFF75FFB04441C
:108E2000EEE72F236A4639460A208DF80040FDF709
:108E300085F9684601F0C3FC33680246DB68694681
:108E400030469847044620460DB0F0BD10B5054B9E
:108E50000446112240F8043B002101F03AFC204670
:108E600010BD00BF1CD00B000346074A10B543F8E5
:108E7000042B01F1100251F8044B43F8044B9142CA
:108E8000F9D10A781A7010BD1CD00B00024AC0E953
:108E900000210422027570471CD00B00037D042BB7
:108EA00004D14068003818BF01207047062B07D155
:108EB00043683BB983682BB9C3681BB90069F1E704
:108EC000002070470120704710B59DF8084044EA23
:108ED000032343EA024242EA01610423416003752D
:108EE00010BD000013B5044C04609DF810400094C0
:108EF000FFF7EAFF02B010BD1CD00B0007B5064B10
:108F00000360CB7800938B784A780978FFF7DCFF11
:108F100003B05DF804FB00BF1CD00B004174704728
:108F20007047704708B50021007CFDF70FFA40EA52
:108F3000E07008BD08B50121007CFDF707FA40EAA2
:108F4000E07008BD08B5007CFDF7F8F920EAE07094
:108F500008BD08B5007CFDF7E9F920EAE07008BD1E
:108F600013B50446007C0191FDF7E8F9002801994A
:108F700001DC607C20B1207CFDF7F0F920EAE07094
:108F800002B010BD007CFDF7F1B910B51421044604
:108F9000FBF787F8204610BD10B54FF47A730446EE
:108FA00008460021C4E90113044B23600123207407
:108FB00063741146FDF7B2F9204610BD30D00B00A6
:108FC00010B514220446002101F083FB204610BD99
:108FD00010B50F4C88B003A8FFF7F2FF2178BFF35C
:108FE0005B8F11F001010FD120460191FBF75BF877
:108FF000019948B103AA0748FFF7CEFF2046FBF7C7
:1090000057F8054801F00CFB024808B010BD00BF3E
:10901000F8E60320FCE60320218F0B000047000048
:109020002DE9FF4100241D460F4690460646FCF7F9
:109030008BFFA5424FF00403ADF80D408DF80C30C6
:109040008DF80F40A2BF9DF828308DF80E3003AC8C
:109050000749009443463A463046A8BF8DF80D5064
:10906000FCF76AFFB0FA80F0400904B0BDE8F08177
:109070001D900B0070474174704708B5007CFDF7E8
:10908000ADF820EAE07008BD08B5007CFDF77EF879
:1090900020EAE07008BD08B5007CFDF787F840EADB
:1090A000E07008BD08B5007CFDF778F840EAE07094
:1090B00008BD007CFDF782B837B5457C04462DB16C
:1090C000207C03B0BDE83040FDF758B8007C01912A
:1090D000FDF784F800280199F2DC284603B030BD82
:1090E00010B514210446FAF7DCFF204610BD00003D
:1090F00010B54FF47A730446084611460022C4E9BD
:109100000123044B2360012320746374FDF76EF880
:10911000204610BD60D00B0010B5836804460BB923
:1091200000F0D4FCC3689847A3681BB10322214612
:109130002046984720461021BDE81040FAF7B1BFFD
:109140007047F8B5064615460C468F18BC4206D047
:10915000336814F8011B9B6830469847F6E72846A9
:10916000F8BD007C0022FDF749B8007C0021FDF726
:109170004DB8007C0021FDF751B8007C0021FDF7BF
:1091800055B8007C0021FDF759B810B514210446EC
:10919000FAF787FF204610BD10B54FF47A730446E6
:1091A00008460021C4E90113034B236020741146D3
:1091B000FDF754F8204610BD90D00B0013B503689E
:1091C0008DF80710DC6B01224FF0FF330DF1070122
:1091D000A04702B010BD10B40368DC6B4FF0FF3342
:1091E000A4465DF8044B604713B5134602688DF83A
:1091F0000710D46B0DF107010122A04702B010BD8A
:1092000010B54369B3F88620B3F884309A42044617
:1092100008D06369B3F88420511CA3F88410134468
:10922000187910BD03681B6998470028F1D14FF0E9
:10923000FF30F6E7704743691868C043C00F7047B6
:1092400070470000064B994210B500F10C0405D0A0
:10925000084600F03FFC002808BF0024204610BD4F
:1092600098CF0B0010B5AC210446FAF71AFF204640
:1092700010BDAC21FAF715BF2DE9F0414FF0000801
:1092800086B01C46C0F8048005460E461746414687
:10929000102202A801F01DFA631C09D04FF47A7362
:1092A000B4FBF3F203FB1244CDE902285C430494BF
:1092B000686910230093006802AB41F2050240F692
:1092C000FF71FCF7DBFF002807DAFDF783F903687D
:1092D0006B60002006B0BDE8F0816869002300687B
:1092E0003A463146FCF7F2FF031EEEDB1846F1E783
:1092F00030B587B0044601AD6846FFF7FFFD0FCDDE
:1093000004340FC42B68237007B030BD70B54D69AD
:10931000054B04468C3544F8043B06460FCD0FC47C
:109320002B682370304670BD1CD00B002DE9F04334
:109330009846036893B00D460024DB6A064617463C
:10934000984728466B46224621460094FCF7E4FDE8
:109350000546002863D1009B002B4BD05B69002B96
:1093600048D006A8FFF772FD009B5C696378022B6A
:1093700004D1211D06A8FFF7BBFF26E00A2B24D14C
:109380001122294601A801F0A4F9A368002B38D0C6
:1093900004F108030DF1040C18341868596862468A
:1093A00003C20833A3429446F7D1062301A90CA8AF
:1093B0008DF81430FFF758FD0DF1340CBCE80F00A8
:1093C00007AC0FC4DCF80030237006A8FFF766FD79
:1093D00080B1336807ADD3F82090124B0C930FCDBA
:1093E0000DAC0FC42B6823703A4643460CA9304697
:1093F000C84705460098FCF787FD284613B0BDE82E
:10940000F083E368002BC3D14FF6FF70D4F81090BF
:10941000FCF79CFE8145BBD104F11401AAE7254667
:10942000E8E700BF1CD00B0038B543691A68002A72
:10943000054610DAB3F88620B3F884309A420AD190
:1094400003681B699847044628B92B682846DB6ADD
:109450009847204638BD0120FCE710B54369B3F8B2
:109460008620B3F884309A42044605D06369B3F885
:1094700084201344187910BD03681B69984700289D
:10948000F4D14FF0FF30F6E7F8B543691746B3F86B
:109490008620B3F884309A4205460E4616D0696994
:1094A000B1F88430B1F88640E41ABC4228BF3C468B
:1094B000043322461944304601F0E3F86A69B2F8F1
:1094C00084302344A2F884302046F8BD03681B6929
:1094D00098470028E3D14FF0FF34F5E742690023B5
:1094E000A2F884304269A2F8863070472DE9F04135
:1094F0001F4603680C46DB6A8AB005461646984745
:10950000237DD5F81480042B0CBF02200A200622EC
:109510000121FCF7EBFEC8F800006B691B68002B0B
:1095200008DA2B682846DB6A0024984720460AB0F0
:10953000BDE8F0812846FFF7D1FFB7B1002303A9AA
:10954000F8B20393ADF81030FCF706FD0028E8D11F
:10955000686906230093006803AB41F20B0240F6F2
:10956000FF71FCF78BFE0028DBD11C22002103A831
:1095700001F0AFF8237D042B1DD14FF40773304663
:10958000ADF80C30FCF7F2FDADF80E006068FCF7AA
:10959000DDFD04906B691C22186803A9FCF77EFEB0
:1095A0000028BED104340FCC6D698C350FC52368FB
:1095B0002B700124BAE740F61C233046ADF80C307E
:1095C000FCF7D4FD05AEADF80E00231D04F1140721
:1095D00018685968324603C20833BB421646F7D1B1
:1095E000D8E7000030B54269B2F886308BB0044647
:1095F0002BB1B2F884209A4201D1FFF76FFF616965
:109600000868002818DBB1F886507F2D14D8043183
:109610000823C5F180022944FCF748FE002813DD29
:109620006369B3F886200AB9A3F884206369B3F8A4
:1096300086201044A3F886006369B3F88600B3F867
:109640008430C01A0BB030BDFCF7C4FF03680B2B8D
:10965000F2D0FCF7BFFF03680B2BEDD020230025D1
:10966000CDE90235FCF7B6FF03680193084B0949C1
:10967000009302AA2B463220FCF788FE6369186823
:10968000FCF704FE63694FF0FF321A60D4E700BFB5
:10969000B7D00B00B0D00B0010B543690446186872
:1096A000002801DBFCF7F2FD63694FF0FF321A601E
:1096B0006069112200218C3001F00BF82046BDE8D2
:1096C0001040FFF70BBF10B5002304460160C0F83F
:1096D00084308830FFF7BAFB204610BD73B50023F5
:1096E0004FF47A72C0E901320E4A036102604361AD
:1096F0000446AC200191FAF7CEFC051E05F10C06DC
:1097000008D00123C5E90133074B01992B6030468E
:10971000FFF7D9FF2046C4E90565FFF7DFFE02B079
:1097200070BD00BFECD00B00D0D00B0010B54FF0D7
:10973000FF310446FFF7D2FF204610BD10B50446A6
:109740000068002801DBFCF7A1FD204610BD0C30AD
:10975000FFF7F4BF002240681146FCF77BBE0022F1
:1097600040681146FCF796BE002240681146FCF79F
:10977000A1BE40680022FCF795BE4068002281F03F
:109780000101FCF77FBE002340681A461946FCF72A
:1097900071BE002340681A461946FCF763BE0022DA
:1097A00040681146FCF746BE406800220221FCF7E3
:1097B00049BE002340681A46FCF734BE024B04221F
:1097C0005A60024A1A60704710E7032038D10B0034
:1097D000002340681A46FCF725BE4068002202219B
:1097E000FCF730BE002240681146FCF723BE002281
:1097F00040681146FCF72EBE002340681A46194601
:10980000FCF730BE002340681A461946FCF732BE0A
:1098100040680021FCF756BE40680021FCF75ABEA4
:109820004068002281F00101FCF72CBE4068002254
:10983000FCF738BE002240681146FCF73BBE002210
:1098400040681146FCF726BE2DE9F04395B014465A
:109850000D460746FFF7FAFA00211C220DA80091D9
:1098600000F037FF40230C9320466B460CAA0021E2
:10987000FCF752FB044600284BD1024601216868E0
:10988000FCF7E8FD0221804622466868FCF7E2FD0D
:10989000009E81462146002E3BD0002939D17368B5
:1098A000022B03D00A2B11D0F669F4E7B8F1000FB0
:1098B000FAD0716906A8043107ADFFF71FFB0FCD81
:1098C0003C1D0FC42B6823704146EDE7B9F1000F32
:1098D000EAD07469102201A800F0FBFE06238DF87F
:1098E000143001AD04F108031834186859682A4689
:1098F00003C20833A3421546F7D101A906A807AD54
:10990000FFF7B2FA0FCD3C1D0FC42B6823704946F8
:10991000CAE70098FCF7F8FA384615B0BDE8F083BE
:10992000024B034A1A6000225A60704718E703206E
:1099300074D10B00232813B502D9002002B010BD4A
:10994000A0F10B03022B1AD8174C2178BFF35B8FC1
:1099500011F001010BD120460191FAF7A4FB019906
:1099600028B11248FCF794FE2046FAF7A1FB0F4BF2
:109970001878FCF7CBFC0028DFD10120DEE70128B6
:1099800009D800F07DF80021007CFCF75FFC80F036
:109990000100C0B2D2E709380128EED800F034F84F
:1099A000007CFCF713FCF2E720E7032024E7032008
:1099B000232838B504460D460AD8FF2908D0FFF7FA
:1099C000B9FF28B129462046BDE83840FCF7ACBABB
:1099D00038BD704738B5044614252A46002100F0EA
:1099E00078FE25804025074925812846258200F0FC
:1099F0006BF804496060284600F066F8E060204695
:109A000038BD00BFA8D10B0030B50E4D2978BFF38B
:109A10005B8F11F0010487B011D12846FAF743FBA0
:109A200068B101A8FFF7D6FF01AA21460648FFF753
:109A30005FFB2846FAF73CFB044800F0F1FD0248C2
:109A400007B030BD2CE7032030E70320D3990B008B
:109A50007047000038B52025142304460360856054
:109A600005610649284600F02FF804496060284641
:109A700000F02AF8E060204638BD00BFA8D10B00F6
:109A800030B50E4D2978BFF35B8F11F0010487B01C
:109A900011D12846FAF707FB68B101A8FFF7DAFFF2
:109AA00001AA21460648FFF777FB2846FAF700FB94
:109AB000044800F0B5FD024807B030BD48E7032078
:109AC0004CE70320519A0B00FAF7E7BA08B5FCF708
:109AD00071FD0000014900F0F9B800BFC4D10B00CE
