:02000002B0004C
:1040000000400B001CE60B00000006000C0005023F
:084010000401A30F00000000F1
:04401800FCD20B00CB
:1040200009480A49884208B505D0094A824202D0A7
:10403000121A07F08AF80748074A0021121A07F0F7
:10404000ACF8014808BD00BF90D80320E8E30B009E
:104050009CDA0320A0DA0320F1E7032070B5074EB5
:10406000074C05F01FF9A41BA4080025AC4200D1A1
:1040700070BD56F8043B98470135F7E78CE30B0019
:10408000B4E30B0000F016BD08B500F0B5FEBDE8C6
:10409000084005F0BFB802F0C1BE02F0BFBE02F09A
:1040A000C5BE02F0C3BE0078B0FA80F04009704788
:1040B0000123037070470000014B01221A70704702
:1040C000BCDA032008B5044B01221A7002F098FBF9
:1040D000024B186008BD00BFBDDA0320A8DC032036
:1040E00008B502F08DFB0C490B68C31A642B11D97B
:1040F0000A4AB2FBF3F30A4A08601360094B1978C5
:10410000094B1A6852F82130013342F82130074B2D
:1041100001221A7008BD00BF6CDB032080EE360060
:10412000D4DB0320A4DC0320B8E10320C2DA03209F
:10413000436913B183690C301847704713B50021E8
:104140000446084602F0FEFB0023204601A9019325
:1041500002F010FC019C0CB101232371002101200D
:1041600002F0F0FB2CB1236820469B68984700239F
:10417000237102B010BD012A02D1016000207047F6
:10418000022A04BF0B680360F8E70368184707B505
:10419000806830B10023CDE900131A46022102F0F5
:1041A000F1FB03B05DF804FB30B5054685B00C4665
:1041B00011460392FFF7EBFFA86830B10023CDE969
:1041C0000043039A194602F0DDFB05B030BD000044
:1041D0002DE9F34104F08EFF264FDFF89C80387004
:1041E00004F094FFC6B204F09DFF054604F0A6FF5C
:1041F0006FF0004104464046FFF7C9FFD8F80800B9
:1042000078B16FF00041EDB20022CDE90012C6F1A5
:104210003C034EF66021ED4301FB0353032102F002
:10422000B1FB154800226FF00041FFF7BDFF3B785E
:104230000D2B14D1114A1168E4B2A14203D01460CD
:104240000F4A012111703EB90E4A11688B421FBFFF
:1042500013600D4B01221A7002B0BDE8F081002BF3
:10426000F1D10A4A1168E4B2A142ECD01460084AC4
:10427000E7E700BFA4DC032050E10320A8D8032017
:10428000BCDA0320B0D80320C3DA0320ACD8032063
:10429000BEDA03200EB403B503AB002153F8042BA0
:1042A000019304F052FE02B05DF804EB03B07047D6
:1042B0002DE9FF47054608460C4606F0E4FF29466F
:1042C000064601A806F0B9FF05F0B2FB01AA424973
:1042D000424DFFF7DFFF424901A807F03FFE06F01D
:1042E0000CFF214605EB402006F08EFFB6F5007F5F
:1042F00040D205F09DFB2A463A493B4FFFF7CAFFE3
:1043000028463A493A4D07F029FE00240026DFF8F6
:10431000ECA0DAF80030A34229DD2A463549DFF85F
:10432000E09002F09BFD3149002007F017FE2B685A
:10433000062B05F104054FEAC4081ED806F0DAFE84
:10434000D9F80030324651EC100B98443B4606F049
:10435000E9FC1BA3D3E9002306F004FAC8E9000135
:104360002249002007F0FAFD40BBCAF80040224B6A
:1043700001221A7004B0BDE8F087113B042B0ED85F
:1043800006F0B8FED9F80030324651EC100B9844D4
:104390003B4606F0C7FC0CA3D3E90023DCE706F09C
:1043A000A9FED9F80030324651EC100B98443B4638
:1043B00006F0B8FC06A3D3E90023CDE70134A6E755
:1043C00044FAEDEBC039CB3F04560E2DB29DFE3FB3
:1043D000EFC9C342AD69E43F10D30B004CDD0320AD
:1043E0001FD30B001BD30B0000408F4027D30B00C3
:1043F00038DC03202AD30B00A1DA0320B4D8032031
:104400009CDC032010B58368044613B103220146E7
:104410009847204610BD000038B50F4B03608368F5
:1044200004469BB16FF00041FFF7B1FEA068002188
:1044300002F0E0FA237903F0FF0513B102F07AFAF3
:10444000F8E7A068294602F08DFAA56004F10C0097
:10445000FFF7D8FF204638BD30D80B0010B5044612
:10446000FFF7DAFF20461C21FFF71BFE204610BD98
:1044700070B590B003F076FE03F0BEFE03F072FE5E
:104480003D4A3E4C01460BA804F0F0FB0BA803F09C
:104490006AFF03F067FE3A4A01460BA804F0E6FB08
:1044A0000BA803F060FF03F05DFE364A01460BA83F
:1044B00004F0DCFB0BA803F056FF03F053FE324A76
:1044C00001460BA804F0D2FB0BA803F04CFF03F04D
:1044D00049FE2E4A01460BA804F0C8FB0BA803F0C6
:1044E00042FF03F03FFE2A4A01460BA804F0BEFB40
:1044F0000BA803F038FF03A804F06BF8254B03A8C2
:10450000196804F079F80FCC06AD0FC506AD0FCDD4
:1045100026680BAC0FC40BA8266003F025FC0446EC
:104520000BA80CBB03F03CFC0094ADF80A0002237E
:104530000DF10A02032103A804F040F803F012FE73
:10454000002203A903F0A2FE05F072FA124904F05A
:10455000D4FC03F007FE1149002204F089FA039805
:1045600002F064FC10B070BD03F01CFC002300934B
:10457000024610230721DEE7C4DA0320F0DA032025
:10458000B4DA0320A4DA0320ACDA0320CCDA032067
:10459000D4DA0320A4D8032041D30B00C5400B007C
:1045A0002DE9F04F2DED028B9DB0CDE90232504F39
:1045B00005468B468A46002400264FF000084FF03F
:1045C0000009029B9C4217DABAEC027B424651EC8E
:1045D000170B4B468DED007B06F00AFD08B1DDE9B7
:1045E0000089DDE9000132463B4606F0E3FC08B1F4
:1045F000DDE900670134E4E732463B464046494680
:1046000006F0AEF838A3D3E9002306F061FA32468B
:104610003B4606F0A7F84FF0000A41EC180B544651
:10462000029B9A4512DCFBE8020153EC182B06F0C2
:10463000C1FC40B1039A1CAB03EB840352F82A205F
:1046400043F8602C01340AF1010AE9E705F0F0F9BA
:10465000284942464B46FFF71DFE05F0E9F9264979
:1046600032463B46FFF716FE05F0E2F92349FFF715
:1046700011FE6CB300231E462F1D1CAA02EB830201
:1046800052F8602C45F8362004AA02EB8300026839
:1046900050F8041F01398A4203F10103F7D00132B7
:1046A000A34247F8362006F101020FDDDFF85480FF
:1046B0000024B4420CD005F0BBF957F8343055F85B
:1046C00034204146FFF7E6FD0134F2E71646D4E711
:1046D0000B4B012220461A701DB0BDEC028BBDE8C9
:1046E000F08F00BFAFF30080333333333333D33F26
:1046F0000000594065D30B0083D30B00A0D30B00FF
:10470000C1DA0320DED30B00F0B513491348144E71
:10471000124D144F85B003F0D3F8002433680A22F9
:1047200053F82410684603F0DDF86946284603F084
:1047300016F9684603F040F8172C03D0394628468E
:1047400003F01BF90134182CE8D10749034805B0E0
:10475000BDE8F04003F011B9ECD30B00BCE103203D
:10476000B8E10320FBD30B00FDD30B00F0B585B0FF
:104770007249734E734F744D684603F047F96946AA
:10478000714803F095F8684603F016F80024336882
:1047900003EBC403D3E900233946684603F036F936
:1047A0006946284603F0DBF8684603F005F8172C45
:1047B0000AD06649684603F029F96946284603F09D
:1047C000CEF8684602F0F8FF0134182CDFD16049BA
:1047D000604E5C4F604D684603F018F969465A48D0
:1047E00003F0BDF8684602F0E7FF5C49684603F055
:1047F0000DF96946584803F05BF8684602F0DCFFA3
:104800000024336803EBC403D3E900233946684628
:1048100003F0FCF86946284603F0A1F8684602F068
:10482000CBFF172C0AD04949684603F0EFF86946D8
:10483000284603F094F8684602F0BEFF0134182CB5
:10484000DFD14349464E474F474D684603F0DEF8F7
:104850006946414803F083F8684602F0ADFF4349DA
:10486000684603F0D3F869463F4803F021F86846EC
:1048700002F0A2FF00243368394653F8242068462A
:1048800003F0C4F86946284603F069F8684602F068
:1048900093FF172C0AD02D49684603F0B7F86946F4
:1048A000284603F05CF8684602F086FF0134182CB5
:1048B000E1D127492E4E2B4F2E4D684603F0A6F826
:1048C0006946294803F04BF8684602F075FF2A490B
:1048D000684603F09BF86946264802F0E9FF6846FF
:1048E00002F06AFF00243368394653F824206846F2
:1048F00003F08CF86946284603F031F8684602F068
:104900005BFF172C0AD01149684603F07FF869460F
:10491000284603F024F8684602F04EFF0134182CB4
:10492000E1D168460A4903F071F86946114803F07D
:1049300016F8684602F040FF05B0F0BD00D40B0049
:10494000A0DC032015D40B00CCDC0320FBD30B0030
:10495000FDD30B0098DC0320ACDC03201BD40B0040
:10496000CCE10320C2D50B00D0E103202CD40B00F6
:10497000B8E10320BCE103203FD40B002DE9F8434C
:1049800005F056F8044602F0F1FA3C493C4D024667
:104990002046FFF77FFCC02002F040FA286028B9CB
:1049A00005F046F83749FFF775FCFEE7C02002F036
:1049B00035FA354C206028B905F03AF83349FFF74D
:1049C00069FCFEE7C02002F029FA314E306028B9B8
:1049D00005F02EF82F49FFF75DFCFEE705F028F8FB
:1049E0002D49DFF8C8804FF41072FFF753FC6020A8
:1049F00002F014FAC8F8000028B905F019F82749A0
:104A0000FFF748FCFEE7602002F008FADFF8A0900C
:104A1000C9F8000028B905F00BF82149FFF73AFC66
:104A2000FEE705F005F81F49C022FFF733FC04F04C
:104A3000FFFF074602F09AFA1B4902463846FFF785
:104A400029FC2868C022002106F0A7FB2068C022AC
:104A5000002106F0A2FB3068C022002106F09DFB79
:104A6000D8F800006022002106F097FBD9F800007A
:104A70006022BDE8F843002106F08FBB4ED40B0046
:104A8000A0DC03205AD40B0098DC032088D40B0050
:104A90009CDC0320B2D40B00DFD40B0011D50B003B
:104AA00039D50B0065D50B0090D50B00B8E103207C
:104AB000CCE1032010B5434B012292B01A7002F0F2
:104AC00085F910B902F07AF9F9E702F07FF9FFF7FA
:104AD000CFFCFFF753FFB7EE000A04F0BDFA002445
:104AE0000321082005F094FC4FF0FF333649009471
:104AF0000122082004F0C4FF344A35490CA801F013
:104B00009DFD0CA908A802F067FF0899314840F202
:104B10005B7200F0D6FD08A802F04EFE2346224646
:104B20002D492E48CDE9004402F060F904F080FFE1
:104B30002B49044608A802F08AFE04F0CAFA0A22A9
:104B4000014604A802F0E1FE04A908A802F038FF1B
:104B5000244B01681F481A4600F0AAFE224902466B
:104B60002046FFF797FB04A802F026FE08A802F0F3
:104B700023FE184800F097FD68B104F059FF1B4967
:104B8000FFF788FB1A491B4A124800F01CFF1A491C
:104B9000104801F0BCF804F04BFF044604F0AAFAF8
:104BA000039004F0B3FA039A144903462046FFF732
:104BB00071FB134800226FF00041FFF7F5FA12B0C5
:104BC00010BD00BFC0DA0320E1400B009BD50B00F5
:104BD000DCDC0320D8DB0320B1420B00FBD50B004B
:104BE00036D60B00AFD50B00B4D50B00C5D50B00E6
:104BF000EBD50B00DFD50B00F5D50B0002D60B0073
:104C000050E1032008B50C4A0C4B11681868196074
:104C10000B4B19681160C0220021186006F0BDFA24
:104C2000084A094B1068196811601860BDE808400F
:104C30006022002106F0B1BA98DC0320A0DC03203A
:104C40009CDC0320CCE10320B8E1032000B51B4825
:104C500089B000F028FD28B1184809B05DF804EBD0
:104C600000F00DBF04F0E4FE1549FFF713FB1549F2
:104C7000684602F0ECFD04F02CFA0A22014604A872
:104C800002F043FE04A9684602F09AFE0E4B01684A
:104C90000A481A4600F00CFE04A802F08DFD684692
:104CA00002F08AFD054800F0FEFC20B104F0C0FED1
:104CB0000649FFF7EFFA09B05DF804FBD8DB0320E3
:104CC0001CD60B0031D60B00AFD50B003ED60B0027
:104CD00038B5046805467CB16368013B63605BB925
:104CE000236820469B689847A368013BA3601BB9D3
:104CF00023682046DB689847284638BD30B5134BFB
:104D000000258DB01D70044604F02CFA059004F0C7
:104D100021FA611CCDE90041059A0D49029503462F
:104D200008A802F073FE0B4B089A1B780A498DF80D
:104D3000003006A83C2304F013FC07A8FFF7C8FFC7
:104D400008A802F039FD0DB030BD00BF4CDD0320D6
:104D500052D60B0068DB0320A5D60B002DE9F041ED
:104D60008AB005460E4604F063FE1C491C4FFFF74F
:104D700091FA1C4902A802F06AFD002405F104081A
:104D8000B44210DA58F8343055F83420394606A8C1
:104D900002F03CFE06A902A802F0E1FD06A802F01E
:104DA0000BFD0134ECE7104B029A1B780F498DF88C
:104DB000003006A83C2304F0D3FB07A8FFF788FFC8
:104DC000029A0B490B4800F0FEFD0A4800F057FE1E
:104DD00002A802F0F1FC0AB0BDE8F081AED60B00EB
:104DE000D5D60B00B7D60B0068DB0320E4D60B004A
:104DF000FBD50B00D8DB032070B5924D924C2B787D
:104E0000C6B0002B49D004F013FE9049904EFFF736
:104E100041FA04F093F90138FFF770FF237853B992
:104E20004FF4FA7004F0B4F904F002FE227831462F
:104E3000FFF730FAF2E700232370FFF7E3FE04F0F8
:104E4000F7FD8449824EFFF725FA04F077F9FFF762
:104E500055FF237853B94FF4FA7004F099F904F030
:104E6000E7FD22783146FFF715FAF2E7FFF7CAFEB1
:104E700004F040F90D284CDD04F0DAFD7649FFF727
:104E800009FA04F05BF90130FFF738FF734B012298
:104E90001A700023237000232B70714DFFF7D6FE8C
:104EA0002B784BB16D4B01221A7004F047F9013099
:104EB000FFF724FF00232B7023786A4D002B30D09E
:104EC000FFF754FC684B6949694A09681B686948DF
:104ED000FFF766FB684B186004F0AAFD064604F075
:104EE00009F9019004F012F9019A64490346304629
:104EF000FFF7D0F901232B70002323705E4B5D4830
:104F00001968FFF72BFF5E4B01221A7000232B70EC
:104F10000AE004F08DFD5B490D22FFF7BBF9012388
:104F2000B8E72B78002BE9D1574C23782BB304F04A
:104F30007FFD5649FFF7AEF9554B1D6804F0DAF8CE
:104F400055F820305349013345F82030524D02A81E
:104F50002A6801F07BFF5149514802AA00F033FD55
:104F60002A68504906A801F071FF00234E48FF222D
:104F700006A902F0D5FF002323704C4C23781BB107
:104F8000FFF740FE00232370494C2378ABB1404B20
:104F90001D6804F0AFF800F1804001383D4955F834
:104FA000202006A801F052FF42493D4806AA00F021
:104FB0000AFDFFF7A9FB002323703F4C257801F081
:104FC0001FFC3E4B1B68C01AB0F5AF6F32D9002DE5
:104FD00030D0314B33491A6806A801F037FF00235F
:104FE000FF2206A9304802F09BFF354B354819686F
:104FF000002202F0F5FF344B34481968002202F019
:10500000EFFF334B33481968002202F0E9FF324BBF
:1050100032481968002202F0E3FF314B3148196829
:10502000002202F0DDFF0023237004F001FD2E4971
:10503000FFF730F94FF47A7046B0BDE8704004F0E5
:10504000A7B800BFC0DA0320A1DA0320F4D60B0012
:1050500016D70B0026D70B0044D70B00A0DA03208D
:10506000BCDA0320C1DA0320B4D8032098DC032083
:1050700038DC032070DB0320D0DB032002D60B00DA
:10508000BFDA032065D70B00C2DA032096D70B00E6
:10509000B8E10320C2D50B00D4DB0320AAD70B0054
:1050A000D8DB0320B0D70B00C4DA0320BEDA03201C
:1050B000C3DA0320BCD70B00BDDA0320A8DC032031
:1050C000CCDC0320B4DA0320ACDC0320A4DA032018
:1050D000BCDC0320ACDA0320D0E10320D4DA0320C7
:1050E000BCE10320CCDA0320C5D70B0082B0F0B5B9
:1050F0008FB015AD15930023C0E9003306469446E2
:105100000F460FCD04AC0FC42B6823601AAD0FCD32
:1051100009AC0FC42B682360209B02931F9B019353
:1051200009AB0093304604AB6246394603F046FCB7
:1051300030460FB0BDE8F04002B070472DE9F04FA7
:105140008D4B8E4DDFF8D8B2DFF8D8A2DFF8D892B9
:105150004FF0010883F80080894B93B01968284606
:1051600002F0A0FE874B5846196802F09BFE864B62
:105170005046196802F096FE844B4846196802F0C2
:1051800091FE834B8348196802F08CFE824B834862
:10519000196802F087FE824B82481968002402F0E9
:1051A00081FECDE909442E460FCE10270DEB070CEA
:1051B000ACE80F003368CCF800300BF104030FCBE0
:1051C0008DE80F00DBF80030774978483A46FFF762
:1051D0008DFFCDE90944AE46BEE80F000DEB070C8C
:1051E000ACE80F003368CCF800300AF104030FCBB1
:1051F0008DE80F00DAF800306D496E483A46FFF747
:1052000075FFCDE90944AE46BEE80F000DEB070C73
:10521000ACE80F003368CCF8003009F104030FCB81
:105220008DE80F00D9F80030634964483A46FFF72B
:105230005DFFCDE90944AE46BEE80F000DEB070C5B
:10524000ACE80F003368CCF80030524B04330FCB7E
:105250008DE80F004F4B5A491B685A483A46FFF7F2
:1052600045FFCDE90944AE46BEE80F000DEB070C43
:10527000ACE80F003368CCF80030484B04330FCB58
:105280008DE80F00454B50491B6850483A46FFF7E0
:105290002DFFCDE909440FCD0DEB070CACE80F0055
:1052A000404D3368CCF800302B1D0FCB8DE80F003C
:1052B0003A462B6846494748FFF718FF03F01AFFA4
:1052C000454B46491870464802F0C1FA43494548E3
:1052D00002F0BDFA4149444802F0B9FA3F49434857
:1052E00002F0B5FA3D49424802F0B1FA414B0E9343
:1052F0000EAD414B414A1A6095E8030003F10C02E0
:105300000CAE86E8030092E8030085E8030096E807
:10531000030082E803003A4A5A619A691192394AB5
:105320001C719C609A614EF66021374A109403F11B
:105330000800CDE9008401F00DFB2846FFF762F874
:10534000324B01931E2340F25B720093304902946A
:105350004FF400732F4800F0ADF82F49084602F0D3
:105360005FF92D492D4801F0A1F82146404613B0C0
:10537000BDE8F04F01F08EBC68DB0320F0DA0320BB
:10538000B8D80320BCD8032098D8032090D8032095
:1053900094D803202CDB03209CD8032018DB0320A7
:1053A000A0D8032054DB0320D4D70B00C4DA032099
:1053B000DDD70B00B4DA0320EBD70B00A4DA03200F
:1053C000F5D70B00ACDA032002D80B00CCDA0320AF
:1053D0000CD80B00D4DA0320A4DC032095D70B00F3
:1053E000ACDC0320BCDC0320CCDC0320BCE10320CC
:1053F000D0E10320D1410B0050E1032030D80B0055
:1054000077410B008B410B003D410B00B9400B0075
:105410001AD80B00D8DB03206CE10320DCDC03206E
:10542000DCDA032040DB032004DB032091F85C304E
:1054300010B50446016013B1886D01F0B3FA20463F
:1054400010BD10B5036893F85C20044612B1986D46
:1054500001F0B0FA204610BDF8B51F469DF8243083
:1054600004460D4616462BB1012380F85C305830B7
:1054700001F090FA089B23630023636306B1A664DE
:1054800025B1294604F1380002F01AFA069B23657B
:10549000079BE069A4F84C70FF2BB8BFFF23A4F86A
:1054A000543008B1FEF7FBFDB4F85400FEF7F5FDEB
:1054B000E061F8BD2DE9FF410446002517469846F6
:1054C0000E4604F063FE0D49E56104F1380002F078
:1054D000BEF99DF8303003930B9BA564CDE90183A1
:1054E0000A9B0093204684F85C503B462A4631468E
:1054F000FFF7B2FF204604B0BDE8F08195D70B005E
:1055000010B50446204604F09DFD0028FAD0204640
:1055100004F0A6FBC0B210BD2DE9F0470546884651
:10552000FFF7EEFFEB691870EB6993F800A04FF0FE
:1055300001090AF0F00A00274C462846FFF7E0FF71
:105540002646EB69985500F07F0313FB09F31F44CF
:1055500001340306A4B2BFB24FEAC919EDD4631EE9
:10556000BAF1300F88F800301ED12846FFF7C8FF87
:10557000EB6918552846FFF7C3FFF41C0236B6B294
:10558000EB69A4B298550226B6B2BE420ED22846A6
:10559000FFF7B6FFB5F85430A34284BFEB69185546
:1055A0000134A4B20136EFE70026EDE7B5F8543038
:1055B000A3422CBF20460020BDE8F0872DE9F3412F
:1055C00015461E461A4607460023964602A802F0D4
:1055D0007F0CBEF17F0F03F10104034488BF4CF040
:1055E000800CBEF17F0F4FEAD212E4B203F804CC74
:1055F0001ED8C4F10403C4F10500E954224601A9F0
:10560000284405EB030805F0A0FD721C2244414626
:10561000384604F010FB054601F0F2F8621C78628F
:105620003244A8B2131A5842584102B0BDE8F08182
:105630002346CAE713B50446014601A8FFF7F6FE64
:10564000E369E0221A70E36900225A70E1690222DC
:10565000204604F0F0FA204604F04EFD01F0D0F8A8
:10566000C4E9090001A8FFF7ECFE02B010BD023347
:10567000F0B5054698B20023CE5C9CB256B1B5F8A1
:1056800054C0844503F1010704D9441C16543B4619
:10569000A0B2F1E799B2411A0A44210A02F8021CA9
:1056A00002F8013CF0BD38B5044604F0EDFB0028DB
:1056B00014BF0125002502D1204604F01DFD284617
:1056C00038BD70B504460E461546FFF7ECFF10B125
:1056D0002046FFF7AFFF314604F1380002F0F0F842
:1056E0000023A364A4F84C5070BD00002DE9F047DE
:1056F00088B00446DDF840809DF850A089461746E2
:105700001E46FFF7D0FF0546002840F0CD80214619
:1057100001A8FFF78BFEA16C002940F08880B4F847
:105720004C20A16B2B46204604F030FB00287AD099
:10573000012323849DF85430E269042B5B4B40F035
:105740008180186899889B79ADF80C108DF80E301F
:105750000290C2F805009DF80E30BDF80C10A2F8BA
:105760000910D3720C23B8F1000F00F081809DF86E
:1057700048009DF84420400140EAC20040F0060085
:10578000C0B2BAF1000F01D100F0FD001FB1002E30
:1057900070D140F08000E269D054226DE169581C5C
:1057A00012120A549A1CE169206D88540333E2698D
:1057B00049462046FFF75BFF0346B8F1000F0BD0C8
:1057C000E26941462046FFF752FFE269139903461A
:1057D0002046FFF74CFF034667B1E2693946204691
:1057E000FFF745FF03462EB1E26931462046FFF739
:1057F0003EFF0346053BE2699BB210212046FFF7BE
:10580000DDFE00F0FDFFC4E909004FF47A76204682
:1058100004F018FC88BB00F0F3FFA36AC01A236DE4
:1058200073439842F3D9204604F066FC35E002A8A1
:1058300004F094F8B4F84C202B4602A9204604F05A
:1058400085FB73E7D3F80700D3F80B10DB7B0DF172
:10585000080CACE803008CF8003002AB03CBC2F8B4
:105860000500C2F809109CF8003053730E237AE744
:10587000022086E740F0C0008DE702A92046FFF72E
:105880004BFE0428CFD1E369DE78002ECBD100F0A7
:10589000B7FF0125A06284F82C6001A8FFF7D1FDB5
:1058A000284608B0BDE8F0870025F9E747D90B0086
:1058B00010B54FF0040C86B00124CDE9044C00244F
:1058C000CDE90244CDE90044FFF710FF06B010BD5A
:1058D0002DE9F74FDDF83C809DF834509DF8389065
:1058E00004468B4616461F46FFF7DDFE824600281B
:1058F00051D0214601A8FFF799FDB4F85420E06982
:10590000002105F04AFC0523E26959462046FFF7CD
:10591000AEFE6B1E012B15D8218CE369013189B2D3
:105920002184090A1954421CE369218C92B2023085
:10593000995480B2B8F1000F04D0238C5A1C2284F1
:10594000A8F8003000210B188F42E2699BB20AD9F7
:10595000B4F854C09C4506D916F801C002F803C03B
:10596000013189B2EFE79DF8301000290CBF3021DA
:105970003121B9F1000F01D041F00801022D0ED103
:1059800041F00401053B9BB22046FFF717FE82461B
:1059900001A8FFF756FD504603B0BDE8F08F012D7A
:1059A00008BF41F00201EDE71FB5089C03940024F5
:1059B00002949DF81C4001949DF818400094FFF754
:1059C00087FF04B010BD30B587B00446104605917E
:1059D000049205F058FC00250346CDE90155DDE9A8
:1059E000042100952046FFF7DFFF07B030BD73B5F7
:1059F00004460E46FFF757FE0546C8B1214601A8EA
:105A0000FFF714FDE36962221A70E36902225A70FB
:105A1000E369320A9A70E369DE70E1690422204684
:105A200004F009F9051E01A818BF0125FFF709FDBB
:105A3000284602B070BD73B504460E46FFF733FE2C
:105A40000546C8B1214601A8FFF7F0FCE3697222C0
:105A50001A70E36902225A70E369320A9A70E369A4
:105A6000DE70E1690422204604F0E5F8051E01A875
:105A700018BF0125FFF7E5FC284602B070BD2DE9EF
:105A8000F04F2DED028B87B000AF0446FFF70BFE01
:105A90008146F8B1214607F11400FFF7C7FC00F07A
:105AA000AFFE236D4FF47A725343A26A821A9A4270
:105AB000064603D8626A821A934221D294F82C30A7
:105AC0007BB1204604F018FB4FF0000907F11400E9
:105AD000FFF7B7FC48461C37BD46BDEC028BBDE85E
:105AE000F08FE269C0211170E2695370E16902220E
:105AF000204604F0A0F8C4E90966012384F82C309C
:105B0000204604F09FFA0028E0D007F11301204658
:105B1000FFF702FD83460028D8D0E369A662197812
:105B200001F0F002302A7FD1D4F830A0BAF1000F92
:105B3000CCD097F813C06A4608EE102A03EB0C028B
:105B40005178957805EB0125ADB205F1080269465B
:105B5000D208A1EBC20295460CF10302FA6003EBF6
:105B6000020E0DEB05026846C7F808D07A60D7E947
:105B700001218A4206D00A461EF8018B02F8018BE9
:105B8000BA60F4E70022425593F80080F96808F003
:105B90000608ABEB0C02033AB8F1020FA2EB0502C8
:105BA000294425D113F801E01944023A91F801B0D3
:105BB0000CF10501294419440BEB0E2BD047E36986
:105BC00040221A70E3691FFA8BFB83F80180E369B6
:105BD0004FEA1B229A70E36983F803B0E16904225B
:105BE000204604F028F8666218EE103A9D466DE7EC
:105BF000B8F1040F15D113F801E01944023A91F8F5
:105C000001B00CF10501294419440BEB0E2BD047D0
:105C1000E36950221A70E36902221FFA8BFB5A7063
:105C2000D5E71944D047DFE7502A08D19A78D978C8
:105C300001EB022189B22046FFF7D9FE46E7402A50
:105C400012D1626B002A3FF441AFBBF1040F7FF425
:105C50003DAF11F0060F7FF439AF9978D87800EB9B
:105C6000012080B2904731E7602A08D19A78D9782C
:105C700001EB022189B22046FFF7DDFE26E7702AFC
:105C8000DFD0902A3FF422AFC02A0AD1D0221A7066
:105C9000E36900225A70E1690222204603F0CBFF3B
:105CA00014E7D02A04BF002384F82C300EE7F7B5A0
:105CB00004460F461646FFF7F6FC054610B321468C
:105CC00001A8FFF7B3FB238C01339BB2EBB1238414
:105CD000238CE2691B0A5371E369228C9A71E26991
:105CE000072339462046FFF7C2FCE3691E540438F7
:105CF00083B2E26982212046FFF760FC054601A8D5
:105D0000FFF79FFB284603B0F0BD0123DFE7002229
:105D1000FFF7CDBF0160704770470023F0B51C4608
:105D20000568ED5C2E2D00D0BDB91D1B8D5402F110
:105D3000010C26460A44B342076804DDBF5D02F841
:105D4000017F0136F7E79C42C8BF0025FC5C2E2C82
:105D500008BF013305EB0C021C4605682D5D0133BD
:105D6000002DDDD11046F0BD38B50B46054622EAC0
:105D7000E2721846002105F010FA01240146447130
:105D80000C222846FFF7C9FF00230B5401444B7037
:105D90008C70CB700C7138BDB0B582B0054600AFC9
:105DA00000680C4605F06FFA00F1190323F00703B1
:105DB000ADEB030D00F11202694628467A60FFF749
:105DC000D3FF23687A68DB686946204698472368D2
:105DD00020461B6C98470837BD46B0BDF0B589B06A
:105DE0001C460F9B1668042B15461FD1721C2A6097
:105DF000B31C815D2B60F71C825C2F600436C35C92
:105E00002E600125C05D84F804510E9DC4F8005138
:105E1000009003AD02A803F095FD0FCD04F5867444
:105E20000FC42B682370202009B0F0BD33441360E9
:105E3000F9E72DE9F04700252B4602F1FF3E4FF030
:105E40002E0895421DD24C5D3F2C01EB050720DC4E
:105E5000E61876451FD81BB1066806F803800133A3
:105E6000BA460026A64206EB030C03DB23440134AA
:105E70002544E6E707681AF8019F07F80C900136F9
:105E8000F0E703681A44002302F8013C2020BDE833
:105E9000F0872620FBE72320F9E72DE9FF410A9C44
:105EA0000025A54225D0166810F8068008F0C00C21
:105EB000BCF1C00F00EB060E06F1010720D1176000
:105EC0009EF8004002361660C25D240204F47C5441
:105ED00014448C4202940ED81B682B440393C5F1E2
:105EE000FF03009302AA03ABFFF7D7FF002804DBF0
:105EF0004419204601E06FF0210004B0BDE8F081B4
:105F000005F1010C1760B8F1000F05D11B689EF870
:105F100000205A556446ECE7875D1E687755654654
:105F2000BFE713B5FF240094FFF7B7FF02B010BD21
:105F30002DE9F0470546ADF51A7DFF208846144649
:105F40001E4600F06BFF0490B8B104AB22464146F8
:105F50002846FFF7E6FF10F1220F07D1049800F062
:105F600065FF22200DF51A7DBDE8F08700F056FF91
:105F7000059020B9049800F059FF2720F2E7049912
:105F80000391084605F07FF90399024605A8FFF73B
:105F900050FF0599304600F087F90746059800F054
:105FA00045FF2268531C2360911CA85C2160E95CBA
:105FB000531D01EB0021A818236090F804C0901D28
:105FC0002060EB5C1B0403EB0C6302F1070CC4F8CC
:105FD00000C0285C03EB002302F10800206015F8E4
:105FE0000C90994402F1090323600A32285C226074
:105FF00015F803A001290AEB002A12D1781C77D0EA
:106000003946304600F04BF9CDE9009A0346224666
:1060100041462846FFF7E2FE049800F007FF2020E3
:10602000A0E7052964D1791C62D03946304600F0DA
:1060300036F9002380F804313946304600F02FF954
:10604000C0F8009123680693534423602846CDF896
:1060500000A004AB06AA4146FFF71FFF10F1220F74
:1060600005463FF47BAF08AC204600F0E1F9049907
:1060700007946A1E07A8FFF7DCFE2146304600F0B1
:106080002BF9431C25D14FF48072214651A805F00D
:106090005CF8D4F80031919394F804318DF84832CB
:1060A0000DF5967C144B9393BCE80F0094AD0FC58F
:1060B000DCF800302B7051A9D4F820319993304688
:1060C00000F057F951A800F0E7F92146304600F0FA
:1060D00003F90146304600F0E2F8394605463046FD
:1060E00000F0DDF8C0F82051204600F0D5F993E724
:1060F0005244226090E700BF68DC0B00F0B50379E2
:10610000467906EB032613680C3313600025AE4274
:1061100016D01368C45C2CB104F0C007C02F06D1A0
:10612000023313601368053313600135EFE73F2C2A
:106130000CD8013323448B421360EAD92320F0BDED
:10614000136801318B42F9D82020F8E72620F6E7C2
:106150002DE9F843002405464FF00108A1462846E2
:1061600000F0BCF8A0422FDD2146284600F097F849
:10617000D0F8203133B32146284600F090F8D0F80B
:10618000203193F80431EBB12146284600F087F81E
:106190002146D0F82071284600F081F807F586776F
:1061A00000F586760FCF0FC63B6833702146284630
:1061B00000F075F8214680F80481284600F06FF859
:1061C000C0F820910134CAE72020BDE8F8832DE90A
:1061D000F743914690F902208378002A06468846C4
:1061E00028DA9B0722D4C57815F00F0520D18379D2
:1061F000C77917EB03271DD001AA0195FFF77EFF92
:10620000202804460ED14B4601AA41463046FFF7EE
:106210008FFE2028044605D10135AF42F3D1484610
:10622000FFF796FF204603B0BDE8F0832524F9E789
:106230002324F7E72024F5E7F0B54A1E0D4604466F
:10624000034600F5807112F8010F03F8010B8B4231
:10625000F9D1D5F80031C4F8003195F8043184F84B
:10626000043105F586770FCF04F586760FC63B68B7
:106270003370D5F82031C4F82031F0BD70B5044634
:10628000054600F59266284605F5927500F0D0F8AF
:10629000AE42F8D10023C4F89034204670BD4FF4CC
:1062A000927303FB010070472DE9F041D0F8906430
:1062B0000546884600244FF49277A64207DD414602
:1062C00007FB045004F0AFFF18B10134F5E74FF0BD
:1062D000FF342046BDE8F081FFF7E6BFD0F8900418
:1062E000704770B5D0F89044A4B1D0F800510121A6
:1062F000002200F580734FF492768C4208DD06FB95
:1063000001F01858A8423CBF0A4605460131F4E79F
:10631000104670BD4FF0FF30FBE74FF4927303FB64
:106320000101D0F89024002330B51C46934209DACD
:10633000D0F820518D4208BFC0F82041013300F54C
:106340009270F3E730BD38B504460D46FFF7E5FF20
:10635000D4F890144FF49270013900FB014100FB16
:106360000540FFF769FFD4F89034013BC4F890343E
:1063700038BD38B504460D46FFF796FF431C08D0DC
:106380004FF49273294603FB0040BDE83840FFF705
:1063900053BFD4F89034042B06D12046FFF7A1FF59
:1063A00001462046FFF7CFFFD4F890344FF49270A7
:1063B00000FB03402946FFF73FFFD4F89034013338
:1063C000C4F8903438BD2DE9FF416E4604460546B9
:1063D000B0460027D4F89034BB420ADD284600F0CE
:1063E0005CF8D5F8003148F8043B013705F59275A3
:1063F000F0E70025D4F89034AB4208DD56F8043BB2
:106400001BB929462046FFF79EFF0135F2E704B08D
:10641000BDE8F08130B587B0044601AD684603F0B1
:1064200065FA0FCD04340FC42B68237007B030BD5C
:1064300038B500F584750446284603F037FA002382
:106440002846237084F80431C4F80031C4F82031A0
:106450004FF0FF31FFF7DEFF204638BD73B500F582
:106460008476044630461546019103F01FFA0199DF
:106470004FF48072204604F022FF00233046C4F817
:10648000005184F80431C4F820314FF0FF31FFF798
:10649000C1FF204602B070BD7047D0F80031002B1C
:1064A000C4BF03F1FF33C0F800317047F8B50446AC
:1064B00004300D4601F0B4F804F1500003F0F6F991
:1064C0000023E3666B68A360AB68E360EB6823615D
:1064D0006B69A36105F120072B8BA3830FCF04F118
:1064E00024060FC63B6833702B8FA387EB6B2364A6
:1064F0002B6C63646B6C6A6BA36495F84830A26381
:10650000204684F84C30F8BD10B58AB0044603A884
:10651000FFF700FCFB23009300231A460434E0211C
:1065200004A803F00FFA41F2E94204A9204601F061
:10653000C5F8214603A8FFF72FFC204600F0DAFD3E
:1065400003A8FFF7E9FB0AB010BD0000F0B505464F
:1065500089B02D48FFF737FF95F868402F1D54BBD1
:10656000012385F8683003F063FA284902F0C5FC7E
:10657000224641F2E941384600F016FE03F058FA8F
:10658000FB2322460093E0212346064602A803F09F
:10659000D9F902A9384601F0E5F8041E1DDA2D21CB
:1065A000304602F09BFC61420A22304602F0AFFC0A
:1065B000304602F096FC0021384601F096F8064677
:1065C00000B300F02BFC044648B903F031FA10493F
:1065D00002F093FC272009B0F0BD2146E4E7014614
:1065E0003246384600F04FFE384600F0CBFD064AF2
:1065F00031462046FFF7EBFD2860204600F016FCF0
:106600002868E8E72020E6E7E0E1032057D90B00FF
:1066100067D90B0010B508460C4604F034FE052877
:1066200008D906380449204404F0FDFDB0FA80F092
:10663000400910BD0020FCE7A8D50B002DE9F04370
:106640000C46CDB00646114620461546FFF7E2FF40
:1066500050B903F0EDF9384902F04FFC4FF0FF312B
:10666000304603F043F94DE03448DFF8D090FFF7AF
:10667000AAFE4FF0000829464846FFF715FE431CC6
:1066800007461ED10522294603A8FFF7E7FE484624
:1066900003A9FFF76EFE03A8FFF7FEFEB8F1050F92
:1066A000E9D1FB23009300231A46E02103A803F05D
:1066B00049F903A9201D01F066F8002384F8683029
:1066C000CCE701464846FFF7EAFD90F80431EBB10C
:1066D000FB23009300231A46E02103A803F032F9BC
:1066E00003A9201D01F04FF839461448FFF7D7FDE4
:1066F0003446134B44F8043B00F586750FCD0FC4A8
:106700002B68237030464DB0BDE8F08300F078F878
:10671000E36EC31AB3F57A7F074606DD29462046A5
:10672000FFF7F2FE08F10108E7662046FFF70EFFCB
:106730002028B3D092E700BF75D90B00E0E1032019
:1067400068DC0B000148FFF799BD00BFE0E10320C2
:1067500008B5024B1B689B68019308BD68020300E3
:1067600008B5024B1B68DB68019308BD6802030093
:1067700008B5024B1B689B68019308BD2C020300FF
:1067800008B5024B1B689B69019308BD2C020300EE
:1067900008B5024B1B68DB69019308BD2C0203009E
:1067A00008B5024B1B685B69019308BD6C020300CE
:1067B00008B5024B1B689B69019308BD6C0203007E
:1067C00008B5024B1B685B6D019308BD6C020300AA
:1067D00008B5024B1B689B6D019308BD6C0203005A
:1067E00008B5024B1B685B68019308BD18020300E3
:1067F00008B5024B1B68DB68019308BD1802030053
:1068000008B5024B1B685B69019308BD18020300C1
:1068100008B5024B1B689B6D019308BD180203006D
:1068200008B5024B1B685B6E019308BD180203009C
:1068300008B5024B1B685B6D019308BD3402030071
:1068400008B5024B1B689B68019308BD78020300E2
:1068500008B5024B1B681B6D019308BD780203004D
:1068600008B5024B1B689B6D019308BD78020300BD
:1068700008B5024B1B681B6E019308BD780203002C
:1068800008B5034B1B68D3F89830019308BD00008E
:106890007802030008B5034B1B68D3F8A8300193B6
:1068A00008BD00007802030008B5034B1B68D3F84D
:1068B000B430019308BD00007802030008B5034B13
:1068C0001B68D3F8D830019308BD0000780203009C
:1068D00008B5034B1B68D3F8DC30019308BD0000FA
:1068E0007802030008B5034B1B68D3F8EC30019322
:1068F00008BD00007802030008B5034B1B68D3F8FD
:10690000F030019308BD00007802030008B5034B86
:106910001B68D3F80031019308BD00007802030022
:1069200008B5034B1B68D3F80431019308BD000080
:106930007802030008B5024B1B68DB68019308BDB1
:106940004802030008B5024B1B68DB69019308BDD0
:106950004802030008B5024B1B681B6A019308BD7F
:106960004802030008B5024B1B685B6A019308BD2F
:106970004802030008B5024B1B689B6A019308BDDF
:106980004802030008B5024B1B68DB6A019308BD8F
:106990004802030008B5024B1B681B6B019308BD3E
:1069A0004802030008B5024B1B689B6B019308BDAE
:1069B0004802030008B5024B1B681B6C019308BD1D
:1069C0004802030008B5024B1B685B6C019308BDCD
:1069D0004802030008B5024B1B68DB6C019308BD3D
:1069E0004802030008B5024B1B685B6D019308BDAC
:1069F0004802030008B5024B1B681B6F019308BDDA
:106A00004802030008B5024B1B685B69019308BD8F
:106A10006402030008B5024B1B681B6A019308BDA2
:106A20006402030008B5024B1B685B6A019308BD52
:106A30006402030008B5024B1B689B6A019308BD02
:106A40006402030008B5024B1B68DB68019308BDB4
:106A50003C02030008B5024B1B681B69019308BD8B
:106A60003C02030008B5024B1B685B69019308BD3B
:106A70003C02030008B5024B1B689B69019308BDEB
:106A80003C02030008B5024B1B68DB69019308BD9B
:106A90003C02030008B5024B1B681B6A019308BD4A
:106AA0003C02030008B5024B1B689B6A019308BDBA
:106AB0003C02030008B5024B1B681B6C019308BD28
:106AC0003C02030008B5024B1B681B6A019308BD1A
:106AD0002802030008B5024B1B685B6A019308BDDE
:106AE0002802030008B5024B1B689B6A019308BD8E
:106AF0002802030008B5024B1B68DB6A019308BD3E
:106B00002802030008B5024B1B681B6B019308BDEC
:106B10002802030008B5024B1B685B6B019308BD9C
:106B20002802030008B5024B1B681B6C019308BDCB
:106B30002802030008B5024B1B685B68019308BD7F
:106B40003802030008B5024B1B689B69019308BD1E
:106B50003802030008B5024B1B68DB69019308BDCE
:106B60003802030008B5024B1B681B6A019308BD7D
:106B70003802030008B5024B1B689B6A019308BDED
:106B80003802030008B5024B1B68DB6A019308BD9D
:106B90003802030008B5024B1B681B6B019308BD4C
:106BA0003802030008B5024B1B685B6B019308BDFC
:106BB0003802030008B5024B1B689B6B019308BDAC
:106BC0003802030008B5024B1B68DB69019308BD5E
:106BD0003002030008B5024B1B681B6A019308BD15
:106BE0003002030008B5024B1B681B68019308BD07
:106BF0004C02030008B5024B1B681B69019308BDDA
:106C00004C02030008B5024B1B685B69019308BD89
:106C10004C02030008B5024B1B689B69019308BD39
:106C20004C02030008B5024B1B68DB69019308BDE9
:106C30004C02030008B5024B1B681B6A019308BD98
:106C40004C02030008B5024B1B685B6B019308BD47
:106C50006002030008B5024B1B681B6D019308BD61
:106C60006002030008B5024B1B681B68019308BD56
:106C70002002030008B5024B1B685B68019308BD46
:106C80002002030008B5024B1B685B69019308BD35
:106C90002002030008B5024B1B68DB6A019308BDA4
:106CA0002002030008B5024B1B68DB6C019308BD92
:106CB0002002030008B5024B1B685B6D019308BD01
:106CC0002002030008B5024B1B689B6D019308BDB1
:106CD0002002030008B5034B1B68D3F888300193EA
:106CE00008BD00002002030008B5034B1B68D3F861
:106CF0009430019308BD00002002030008B5024B48
:106D00001B685B68019308BD4002030008B5024B95
:106D10001B689B68019308BD4002030008B5024B45
:106D20001B68DB68019308BD4002030008B5024BF5
:106D30001B681B69019308BD4002030008B5024BA4
:106D40001B685B69019308BD4002030008B5024B54
:106D50001B689B69019308BD4002030008B5024B04
:106D60001B68DB69019308BD4002030008B5024BB4
:106D70001B681B6A019308BD4002030008B5024B63
:106D80001B681B6B019308BD4002030008B5024B52
:106D90001B685B6B019308BD4002030008B5024B02
:106DA0001B681B6C019308BD4002030008B5024B31
:106DB0001B685B6C019308BD4002030008B5024BE1
:106DC0001B689B68019308BD4402030008B5024B91
:106DD0001B685B69019308BD4402030008B5024BC0
:106DE0001B681B6A019308BD4402030008B5024BEF
:106DF0001B685B6A019308BD4402030008B5024B9F
:106E00001B681B6B019308BD4402030008B5024BCD
:106E10001B68DB6B019308BD4402030008B5024BFD
:106E20001B681B68019308BD1C02030008B5024BD8
:106E30001B685B68019308BD1C02030008B5024B88
:106E40001B689B68019308BD1C02030008B5024B38
:106E50001B68DB68019308BD1C02030008B5024BE8
:106E60001B685B69019308BD1C02030008B5024B57
:106E70001B685B6A019308BD1C02030008B5024B46
:106E80001B68DB6A019308BD1C02030008B5024BB6
:106E90001B681B6B019308BD1C02030008B5024B65
:106EA0001B68DB6B019308BD1C02030008B5024B95
:106EB0001B681B6C019308BD1C02030008B5024B44
:106EC0001B685B6C019308BD1C02030008B5024BF4
:106ED0001B68DB6C019308BD1C02030000224068A4
:106EE0001146FFF743BF002240681146FFF74EBF2F
:106EF00040680022FFF742BF4068002281F0010194
:106F0000FFF72CBF002340681A461946FFF71EBF43
:106F1000002340681A461946FFF710BF0022406858
:106F20001146FFF703BF002240681146FFF7EEBE8F
:106F3000406800220221FFF7F1BE002340681A4694
:106F4000FFF7DCBE024B03225A60024A1A60704708
:106F500074E6032088D90B0010B50446084621705A
:106F6000FFF730FE00236360204610BD10B52024DB
:106F700088B022460021684604F00FF900216846D7
:106F8000ADF80040FFF754FC019808B010BD0000B8
:106F9000054B02221A60054B054A9A600020C3E99E
:106FA0000000FFF767BE00BF88E603207CE60320F1
:106FB0000000FFFF10B5044604F065F901382318FE
:106FC0002046834206D90278197800F8011B03F89D
:106FD0000129F6E710BD2DE9F041931E8CB0222B5C
:106FE0004FF000030D4614468DF82C3027D90028A9
:106FF0002ADA2E462D2306F8013B40420A240DF1E1
:107000002B074FF001082246014601A804F079F849
:10701000029B0198092BCCBF3722302252FA83F30E
:1070200007F8013908F101080028ECD14246791C23
:10703000304604F08AF828460CB0BDE8F0810A2AF0
:10704000D5D018B12E46DAE70A24FAE730238DF8B6
:107050002B302E460DF12A074FF00208E6E770B5F7
:107060000C46911E22291DD8254630B923443022D2
:107070009D4210D205F8012BFAE7B0FBF2F602FBB5
:107080001600C1B2092894BF30315731C9B205F892
:10709000011B3046E9E7002320462B70FFF78AFFEB
:1070A000204670BD0020FCE738B5031E0C4615468F
:1070B0000EDAB3F1004F4FF02D0214BF58421846BC
:1070C00001230A702A461944FFF7C9FF204638BD3C
:1070D0000123F9E710B40468246BA4465DF8044B5F
:1070E000604703689B6C1847808E7047028FC08E84
:1070F000101A7047F0B5036889B09F6A0C4B029371
:1071000000F1200604460FCE03AD0FC533682B7087
:10711000A38EE28EE16B0093204602ABB847236852
:107120000546DB6920469847284609B0F0BD00BFF8
:1071300068DC0B0007B503688DF80710DB680122D7
:107140000DF10701984703B05DF804FB10B5036823
:107150001B690446984728B1E38EE26B591CE1860F
:10716000D05C10BD4FF0FF30FBE710B503681B6922
:107170000446984718B1E38EE26BD05C10BD4FF027
:10718000FF30FBE7704710B403460846DC6BD98E2E
:107190001A8F0368521ADB6821445DF8044B1847C4
:1071A000A0F11000FFF7EFBF70B503688CB05B6A09
:1071B00004460E461546984701231C22002105A8C7
:1071C000029303F0EAFF40F61C233046ADF814307A
:1071D000FFF730FC1122ADF8160002210A20FFF75C
:1071E000E9FC0028606125DB0422009202AB40F636
:1071F000FF71FFF7A7FCE8B995B10390ADF8100057
:1072000003A9E8B2FFF7CCFAA0B90623009360699E
:1072100003AB41F20B0240F6FF71FFF793FC48B954
:1072200060691C2205A9FFF785FC18B96564012077
:107230000CB070BD236820465B6A98470020F7E7D2
:1072400010B504464069002801DBFFF783FC4FF0CE
:10725000FF3363610023E386238710BD70B50546C5
:10726000C06BEE8E68B12B6C9C1B944228BF1446F9
:107270002246304403F069FFEB8E2344EB86204620
:1072800070BD0446F1E7D0B503681B6904460F469C
:107290001646984790B1236820461B699847E38EAD
:1072A000E16B8642A8BF064619443246384603F0D1
:1072B0004CFFE38E3344E3863046D0BD4FF0FF36BB
:1072C000FAE730B587B0044601AD684602F046FBE8
:1072D0000FCD04340FC42B68237007B030BD0000FD
:1072E000F0B59646026889B0976A0A4A02921C1D58
:1072F0008C4606460FCC03AD0FC523682B70BDF836
:1073000038300093724602AB61463046B84709B048
:10731000F0BD00BF68DC0B0070B50446054B44F8B7
:10732000043B01F1200506460FCD0FC42B682370E6
:10733000304670BD68DC0B00F0B54378022B8DB091
:1073400005460C46174604D1011D2046FFF7B9FF3C
:1073500022E00A2B25D11122002101A803F01DFFF4
:10736000AB6803B305F1080301AE05F1180C18680A
:107370005968324603C2083363451646F7D10623DF
:1073800001A906A807AE8DF8143002F09DFA0FCEC1
:1073900004340FC4336823701FB16888FFF742FBC1
:1073A00038800DB0F0BDEB68002BDBD14FF6FF70DD
:1073B0002E69FFF72FFB8642D4D105F11401C4E7F3
:1073C0002DE9F04117468EB00022064601AB084673
:1073D00011460192FFF7C4F9041E20DB019B2BB379
:1073E0005B691BB302A802F061FA019B0022586995
:1073F00002A9FFF7A1FF02A802F080FAB0B133683A
:1074000003ADD3F838800B4B08930FCD09AC0FC4F4
:107410002B6823703A4608A93046C04704460198B5
:10742000FFF796F920460EB0BDE8F0814FF0FF342B
:10743000F5E700BF68DC0B002DE9F047D0F81490A9
:10744000B9F1000F90B005460E4690461C463CDB55
:1074500000293AD04FF01C0A09AF524600213846A5
:1074600003F09BFECDF80CA0DCB14FF47A73B4FBB3
:10747000F3F203FB124400215C431023CDE9042105
:107480000791009341F206026B4440F6FF714846B3
:107490000694FFF757FB044620B1204610B0BDE824
:1074A000F087082403ABCDE90073686923464246A0
:1074B0003146FFF767FB041EEFDB05F1340205F1EF
:1074C0001C013846FFF738FFE7E74FF0FF34E4E7E9
:1074D00038B5054614462B7D062B084610D140F6DC
:1074E0001C231380FFF7A6FA08342B1D24F8060C82
:1074F000143553F8042B44F8042BAB42F9D138BDB2
:10750000042BFCD14FF404731380FFF793FA6080CF
:107510006868FFF77FFA6060F1E72DE9F0438BB010
:1075200003AF4FF01C09984604460D46164600214D
:107530004A46384603F031FEBDF848103A46404608
:10754000FFF7C6FF9DF80D3053B1CDE900796069B2
:10755000002332462946FFF725FB0BB0BDE8F08338
:107560004FF0FF30F9E7F0B591B00C460646002128
:10757000154609A81C221F4603F00FFE09AA002188
:107580002046FFF7A5FF9DF82530022B2DD10023C3
:1075900005930A9B0493BDB102A92846FFF708F999
:1075A00090B9039003A90298FFF70AF948B9039B21
:1075B0003BB1DA6812685178022914D1526892B14D
:1075C00005920398FFF704F9002F4FF0080300938A
:1075D00018BF032204AB08BF042200213046FFF786
:1075E000B1FA11B0F0BD1B68E2E70A2B15D10BAB65
:1075F0000FCB04AC84E80F00002F4FF0140300936E
:1076000018BF0C22234608BF0D22292130460895B9
:10761000FFF798FA00EAE070E3E74FF0FF30E0E7A9
:1076200038B500254FF47A73C0E901530B4B03F1D1
:1076300008026C3303614FF0FF330446026043617C
:107640001C3002F033F94FF40073C4E91035E586BD
:107650002587E56384F84850204638BDBCD90B0027
:1076600010B590F84830044623B1C06B10B1012129
:10767000FCF717FD0023E36384F848302364E386B6
:10768000238710BD70B5044616460D46FFF7E8FF88
:107690000023E66323642EB12564206C003818BFF4
:1076A000012070BD002DF8D02846FCF7F6FC012320
:1076B000E06384F848300028EFD0EDE7F8B51746CE
:1076C000C26B05460C461AB9016C09B1FFF7DAFF27
:1076D00004340FCC05F120060FC623683370002355
:1076E000286CAF86EB862B87F8BD37B5C26B044696
:1076F0000B462AB9016C19B10193FFF7C3FF019B37
:10770000E16B0022E286228741B1226C32B120680F
:10771000056B2046A8470028C8BF208723681B693F
:10772000204603B0BDE830401847000010B5074BB5
:1077300003F108026C33044602600361FFF780FD29
:107740002046FFF78DFF204610BD00BFBCD90B00BF
:1077500010B50446FFF7EAFF20464C21FCF7A1FCD8
:10776000204610BD10B44469002C07DB90F844207B
:10777000012320465DF8044BFFF7F5BE4FF0FF30C4
:107780005DF8044B704710B44469002C07DB90F897
:107790004420002320465DF8044BFFF7E4BE4FF081
:1077A000FF305DF8044B7047704710B50C2104465C
:1077B000FCF777FC204610BD10B504460068FFF7C3
:1077C00035FB204610BD10B50446006808B1FFF730
:1077D0002DFB0023C4E90133236010BD38B50446F6
:1077E0000D4600680131FFF729FB10B1C4E900051F
:1077F000012038BD10B50368044623B143688B42AD
:1078000001D3012010BD2046FFF7E8FF0028F9D082
:10781000A368002BF5D122681370F2E737B50D4647
:10782000114601920446FFF7E5FF019A28B9204668
:10783000FFF7C9FF204603B030BDA260294620688B
:1078400003F083FC2268A3680021D154F2E70023EF
:1078500013B5C0E9003304468360037341B10846A1
:10786000019103F010FD019902462046FFF7D6FF73
:10787000204602B010BD38B5054600680C4668B118
:107880006A688B689A4207D3096803F0D6FCA3683C
:10789000AB600023A36038BDFFF7C8FA23682B60F4
:1078A00063686B60A368AB600023C4E90033F1E751
:1078B000884210B5044601D0FFF7DDFF204610BD19
:1078C00013B5044659B10846019103F0DCFC019957
:1078D00002462046FFF7A2FF204602B010BDFFF788
:1078E00072FFF9E710B504468AB00023C4E90033FB
:1078F000A3602373084601A9FFF7D6FB01A9204620
:10790000FFF7DEFF20460AB010BD10B504468AB06E
:107910000023C4E90033A3602373084601A9FFF7DD
:107920005AFB01A92046FFF7CBFF20460AB010BD45
:1079300070B505460E4609B9002070BD6AB184686D
:1079400014442146FFF756FF0028F5D02868AB689D
:107950003146184403F071FCAC600120EDE78A6801
:107960000968FFF7E5BF38B5044680688568FFF70A
:10797000DFFFA3689868401B38BD13B5044608466E
:1079800051B1019103F07FFC01990246204602B0FB
:10799000BDE81040FFF7CCBF02B010BD07B5002313
:1079A0008DF80410012201A98DF80530FFF7C0FF02
:1079B00003B05DF804FB08B58068FFF7EFFF08BD72
:1079C00010B58A6809680446FFF7B2FF10B920466F
:1079D000FFF7F9FE204610BD30B585B000230D46F7
:1079E0000293C0E90033836003731421064B0193B3
:1079F00004460390FFF7FEFE2B6801A91B6828468A
:107A00009847204605B030BD34DA0B000EB470B58F
:107A100087B00BAD044655F8042B01922B46052187
:107A200004A80395FFF722FA0B4906462046FFF704
:107A30000EFF31462046FFF7DDFE206830B1019A87
:107A400003952B46711CFFF711FAA060204607B082
:107A5000BDE8704003B0704795D70B007047704782
:107A600070477047064B994210B500F10C0405D0E1
:107A7000084602F05FFD002808BF0024204610BD24
:107A8000E4DB0B00064B994210B500F10C0405D065
:107A9000084602F04FFD002808BF0024204610BD14
:107AA000E4DB0B00064B994210B500F10C0405D045
:107AB000084602F03FFD002808BF0024204610BD04
:107AC000E4DB0B0010B568210446FCF7EAFA204617
:107AD00010BD10B528210446FCF7E3FA204610BD7E
:107AE00010B530210446FCF7DCFA204610BD6821B1
:107AF000FCF7D7BA2821FCF7D4BA3021FCF7D1BA69
:107B0000F0B50025EC1C8C420DD86E1C445D875DE1
:107B1000974205D12644B14205D31D60601CF0BDDB
:107B200001342544EEE70020F9E70000024A03494A
:107B30000A20FFF787B800BFF1670B0044DA0B009B
:107B4000034608461B68D3E90021104730B40D46B0
:107B500011461A46036809682868D3E90043A44619
:107B600030BC6047012A38B5044602D10B68236057
:107B700003E0022A03D0032A0DD0002038BD0820DC
:107B80000D68FCF788FA03460028F0D095E803005A
:107B900083E80300EBE700680028EED00821FCF73B
:107BA00080FAEAE7012A38B5044602D10B6823605F
:107BB00003E0022A03D0032A0DD0002038BD08209C
:107BC0000D68FCF768FA03460028F0D095E803003A
:107BD00083E80300EBE700680028EED00821FCF7FB
:107BE00060FAEAE710B504465830FCF70BFC04F1E4
:107BF0004800BDE81040FFF7DFBD10B54368013B0A
:107C00000446436063B903689B689847A368013BD7
:107C1000A3602BB923682046DB68BDE810401847F5
:107C200010BDA0F13003DAB2092A01D81846704716
:107C3000A0F16103052B01D857387047A0F141032B
:107C4000052B94BF37384FF0FF30704710B5002335
:107C50000370044B04461868FEF7BCFE0123237032
:107C6000204610BD94E6032010B5037804461BB1EE
:107C7000024B1868FEF7B6FE204610BD94E60320BE
:107C800082B00346086849686A4603C26A4603CA66
:107C900018601846596002B0704708B582798B7930
:107CA0009A4206D1062203F040FAB0FA80F0400969
:107CB00008BD0020FCE74FF0FF3303608380002005
:107CC000704708B50246002101604160FFF7F3FFED
:107CD0009171104608BD000010B501230361054BEA
:107CE000024603F1100153F8044B42F8044B8B4257
:107CF000F9D110BDF2DB0B0010B50B460446B1B153
:107D0000012A01F110020AD1014653F8040B41F88F
:107D1000040B9342F9D101232361204610BD411E7B
:107D200012F8010D01F8010F9A42F9D1F3E7102280
:107D300003F033FAF1E738B5044615461A46FFF763
:107D4000DBFFA581204638BD08B5026922B98089CC
:107D5000003818BF012008BD0249102203F0E5F9E0
:107D6000F6E700BF12DC0B000069704738B50C461F
:107D700014220021054603F010FA23691BB9A389D8
:107D80002B80284638BD01232B7421462B4604F155
:107D9000100251F8040B43F8040B9142F9D1F0E7BB
:107DA00080897047704708B502690B699A4206D10D
:107DB000102203F0BAF9B0FA80F0400908BD0020A3
:107DC000FCE7000001232DE9F3410361344B0C462D
:107DD0000646024603F1100153F8040B42F8040B67
:107DE0008B42F9D144B32421204603F07BFA0428C6
:107DF0004FF0000523D1ADF8045001AFA51C0634A7
:107E000015F8020CFFF70DFFB0F1000812DB15F8B2
:107E1000010CFFF706FF00280CDB023540EA0810D2
:107E2000A54207F8010BEBD19DF8053033739DF89F
:107E3000043073730023336102B0BDE8F0814FF06A
:107E400010082421204603F04DFAA84207D84246E4
:107E50000021304602B0BDE8F04103F09EB9B8F110
:107E6000000FE9D0605DFFF7DCFE030615D40001CA
:107E700008F1FF38C7B206F808702421204603F045
:107E800031FA0135A84208D9605DFFF7CAFE40B259
:107E90000028A4BF384306F808000135D1E700BF29
:107EA000F2DB0B0013B504460191FFF715FF2046E6
:107EB0000199FFF787FF204602B010BD38B54FF695
:107EC000FF730025044643800E2229460570057184
:107ED000063003F062F904F11400FFF7FDFE04F12F
:107EE0002800FFF7F9FE044904F13C00FFF7AFFC5E
:107EF0006565204638BD00BF95D70B0010B5D0E9A9
:107F0000063203EBC2029342184606D00468248866
:107F10008C4203F10803F6D110BD0020FCE70000FD
:107F2000F0B5064685B01F460D46002950D0002A00
:107F30004ED004682378F42A28BFF42243B323796F
:107F4000980709D5A08903920023FEF7ADFC00280D
:107F5000039A03DA05B0F0BD6FF077003468237937
:107F6000D90609D5012F07D0A0890023294605B0DD
:107F7000BDE8F040FEF7CABC9B06EBD5022FE9D066
:107F8000A0890023294605B0BDE8F040FEF7C8BC33
:107F900060884FF6FF7188421CD021794E0701D5C9
:107FA000012F04D10B0709D46FF07700D2E7A18924
:107FB000009313462A46FEF78BFCCBE7022FF3D043
:107FC0000023A189009313462A46FEF777FCC1E7F8
:107FD0000248BFE76FF0D100BCE700BFF2FEFFFF31
:107FE00037B50C460546F4212046019203F07AF994
:107FF000019B02462146284603B0BDE83040FFF70A
:108000008FBF00002DE9F0410026066007462820BA
:108010000C46FCF740F8051E05F10C080FD00123B3
:10802000C5E90133084B2B604046FFF755FE0FCCE6
:108030002E6285F8246046460FC623683360C7E980
:1080400000853846BDE8F081B4DB0B0070B5002533
:10805000056006463020FCF71EF8044688B101236F
:10806000C0E90133094B03604FF6FF7383810E3083
:10807000FFF727FEC4E90655C4E90855C4E90A55C7
:10808000A57574600C343460304670BDD0DB0B00D5
:1080900037B50D46044601A8FFF7D8FD2A68D2F887
:1080A00002302360D2F80630636001A8FFF7DCFDE0
:1080B000204603B030BD30B5054687B00C4601A858
:1080C000FFF7C4FD2A68236812881B889A420DD1E5
:1080D000294602A8FFF7DCFF214604A8FFF7D8FFD6
:1080E00004A902A8FFF7D9FD044600B9002401A89D
:1080F000FFF7BAFD204607B030BD000010B50446BA
:108100006420FBF7C8FF68B10023C0E90033C0E971
:108110000233C0E90433C0E906330362C362C363B8
:10812000C364C365206020B90A4A0B490A20FEF7E0
:1081300089FD0020FEF784FB20B1064A07490A208A
:10814000FEF780FD216806480022FEF7D5FB204699
:1081500010BD00BFF1670B0044DA0B0082DA0B00A0
:1081600029870B0010B50A4C2378BFF35B8FDB0720
:108170000CD42046FBF797FF40B10648FFF7BEFF3F
:108180002046FBF795FF044802F0AEFF014810BD02
:108190008CE6032098E60320D1830B0030B50368FA
:1081A000093B012B8DB004460D4611D8FFF7DAFFCD
:1081B000A1880068FFF7A2FE034658B92022CDE946
:1081C00004200B4A00920B4904AA3220FEF742FD1C
:1081D0000DB030BD6A6D002AFAD0D4E9032105F153
:1081E0004C00CDE90312AC6D04AA03A9A047EFE748
:1081F000C4DA0B005BDA0B0008B50020FEF720FBA9
:1082000000EAE07008BD19B90A460846FEF720BB2F
:10821000D1E900010022F9E738B5141E436805468C
:1082200002DB62189A4200DD5C1A2A6850180119B4
:108230001A44521A02F097FF6A68121B6A6038BD2E
:1082400037B50A4604460D4601ABD0E90001FFF7F9
:1082500057FC024638B101992046FFF7DDFF294659
:108260002046FFF7EDFF03B030BD10B50C4629B92D
:108270000A460846BDE81040FEF7F2BA0121204642
:10828000FFF7DEFFD4E900010022F3E738B504462A
:108290001546FFF7B8FF00280ADB29462046FFF7FE
:1082A000E4FF002804DBBDE838400020FEF7E0BA18
:1082B00038BD000038B500230446836008200D4611
:1082C000FBF7E9FE18B12B6803606B684360034B52
:1082D000E360034B2060A360204638BD4D7B0B005C
:1082E000A57B0B0038B500230446836008200D46AB
:1082F000FBF7D1FE18B12B6803606B684360034B3A
:10830000E360034B2060A360204638BD417B0B0037
:10831000657B0B000B68036013B15A6801325A6029
:10832000704710B551F8043B044640F8043BFFF792
:10833000F1FF23680BB9FFF7F9FB204610BD10B51C
:1083400051F8043B044640F8043BFFF7E3FF2046A6
:1083500010BD10B551F8043B044640F8043BFFF74C
:10836000D9FF204610BD10B504460430FCF7B0FC20
:10837000204610BD70B5D0E90053044605EBC30696
:10838000AE4204D0281DFCF7A3FC0835F8E72068AE
:10839000FEF74CFD204670BD70B5D0E90053044691
:1083A00005EBC306AE4204D0281DFCF791FC08354E
:1083B000F8E72068FEF73AFD204670BD10B5044688
:1083C0002430FFF7E9FF04F11800FFF7D3FF10BDD9
:1083D00070B5174B1C6854B304F15400FCF712F845
:1083E00004F14400FCF70EF804F13400FCF70AF83D
:1083F00004F12400FCF706F8D4E9065305EBC306A4
:10840000AE4204D0281DFCF763FC0835F8E7A069EC
:10841000FEF70CFD04F10C00FFF7BEFF2046FFF74E
:10842000A9FF20466421BDE87040FBF73ABE70BD4D
:1084300098E6032013B50023D1E90042C1E90033D7
:108440000368009304604368426001A80193FCF74D
:108450003FFC02B010BD826810B50AB902F066F8A0
:10846000BDE81040C368184738B50D1E04460068C3
:1084700003DDFEF7E3FC18B938BDFEF7D7FC00209A
:108480002060A5600120F7E708B583688B4202DA17
:10849000FFF7EAFF08BD0120FCE72DE9F0410F4698
:1084A00041681D461944836899420446904612DC8F
:1084B000266862683E44D21B3146701902F053FEB2
:1084C0002A464146304602F040FE63682B44636012
:1084D0000120BDE8F081FFF7C7FF0028E8D1F8E7E9
:1084E000F8B50D46D0E901139942044616460BDA59
:1084F000276862687919521B481C02F034FE7E55C9
:10850000636801336360F8BD0131FFF7ADFF0028F8
:10851000EED1F8E70A464168FFF7E2BF2DE9F743DD
:1085200004461D460F4601AB90460A46D0E90001BD
:108530009DF82890FFF7E4FAAE1C63680246B9F193
:10854000000F26D128B333441B1AFF2B09D80199F9
:108550002046FFF761FE616820463144FFF794FF33
:1085600018B9606803B0BDE8F0836A1C0199D2B203
:108570002046FFF7B5FF01993A4601312046FFF743
:10858000AFFF01992B46424602312046FFF785FF97
:10859000E7E7F118FF29E4D82046FFF775FF002828
:1085A000DFD0691CC9B22046FFF7B4FF3946204628
:1085B000FFF7B0FF61682B464246E6E730B49DF80E
:1085C00008501AB1029530BCFFF7A8BF406830BC14
:1085D00070471FB50023C0E9003383600622009373
:1085E00001238DF80F2019460DF10F020446FFF705
:1085F000E5FF204604B010BD1FB50A46044614210D
:108600001046039202F06EFE002103460091039A89
:1086100009212046FFF7D2FF04B010BD8842F8B50B
:1086200004460D46164614D9904213D2A2F108060C
:10863000751AA1F108072C44B74218D01CB1314675
:108640002046FFF786FE301DFCF742FB083E083C43
:10865000F2E70CD0B5420AD01CB129462046FFF7FC
:1086600078FE281DFCF734FB08350834F2E7F8BD26
:10867000F7B5044646686846FFF76BFED4E9017318
:108680009F4212DB0137002F29DDF800FEF7C6FB01
:108690000546F0B1D4E9001201EBC202FFF7BEFFBC
:1086A0002068FEF7C3FB2560A7602368626803EBC0
:1086B000C60603EBC202314606F10800FFF7AEFF23
:1086C0001EB169463046FFF744FE636801336360BC
:1086D000012501A8FCF7FCFA284603B0F0BD0025EF
:1086E000DEE7F8B5D0E9004305460F4604EBC306C4
:1086F000A64205D039462046FFF7DDFC08B114B983
:10870000F8BD0834F4E7201DFCF7E2FAD5E90032A1
:1087100004F1080103EBC2022046FFF77FFF6B68FC
:10872000013B6B60ECE700002DE9F04105468EB09F
:1087300003A80C46FFF78AFA2E68F31E0D2B3CD8CF
:10874000DFE813F00E0053003B00D1003B003B007C
:108750003B003B003B009B009B009B009B009B0061
:1087600004A8FFF773FC049BAA891A80696804981F
:1087700008310230FFF784FA04A906A8FFF7E9FDE3
:1087800006A904F11800FFF773FF054607A8FCF7D8
:108790009FFA20230693B5B95D4B5E4900933220C2
:1087A0002B4606AA0795FEF755FA049B294618881A
:1087B000FEF766F805A8FCF78BFA03A8FFF754FA52
:1087C0000EB0BDE8F081544A00920023514907934E
:1087D00006AA0120FEF73EFAE36A002BEAD004A9BC
:1087E00004F12400FFF737FEE4E7A9892046FFF7EC
:1087F00085FB06460028E0D00568D5E906324FF62D
:10880000FF71298003EBC2029A4203D053F8080B90
:108810004180F9E7D5E9037307EBC308B84504D0F5
:10882000381DFCF755FA0837F8E700232B61D5E926
:10883000067307EBC308B84504D0381DFCF748FAA7
:108840000837F8E70023EB61AB72E36B23B13146E5
:1088500004F13400FFF7FFFD00232022CDE90623B9
:108860002E4A00922B4906AA0120FEF7F3F9314661
:1088700004F11800FFF735FF9FE7A9892046FFF7AD
:108880003DFB002899D0E36C002B96D000230D2EE1
:10889000ADF8163001D0102E17D1002369681A46A2
:1088A00006258DF8153004918DF814200690DDE929
:1088B000040109AB8DF81C60089583E80300236D63
:1088C00006A904F14400984777E70F2E01BF2B7AE1
:1088D000696803F0010208250FBFC3F340031A467D
:1088E00019461D46DDE7A9892046FFF707FB01462B
:1088F00000283FF462AFE36D002B3FF45EAF6B687E
:10890000069306AA236E04F15400984755E700BF6A
:10891000DCDA0B005BDA0B0002DB0B001FDB0B0069
:1089200013B50B460246D0E900016C4684E803000B
:1089300093E8030082E8030094E8030083E803005F
:1089400002B010BD38B505460C46FFF7E9FFAB682D
:10895000A268AA60A360EB68E268EA60E36038BDE1
:1089600070B504468CB00E4601921D46FFF7A6FA7C
:108970002671019904F13C00FEF7A2FF04F14C06B8
:10898000CDB1109B029502A904A80393FFF792FCB6
:10899000002308A904A80A93FFF7D4FF314608A8CA
:1089A000FFF7D0FF08A8FBF72DFD04A8FBF72AFD71
:1089B00020460CB070BD0695EAE700002DE9F04FA7
:1089C00087B01D46DDE9104380468B4692461299DA
:1089D00003930022682002910492FBF75CFB061EC1
:1089E00006F10C0918D001223746C6E90122029986
:1089F000154A47F8202B039B00915A46514648469A
:108A0000FFF7AEFF0FCD0FC72B683B600FCC06F111
:108A100034050FC523682B6004A94046CDE90496B0
:108A2000FFF708FD05A8FCF753F9D8F800303BB96B
:108A3000064A07490A2007B0BDE8F04FFEF702B921
:108A400007B0BDE8F08F00BF98DB0B00F1670B00AB
:108A500044DA0B0038B505460C46FFF761FFAB68FA
:108A6000A268AA60A360EB68E268EA60E36038BDD0
:108A700010B504688AB02434B9B1CDE9001202A857
:108A80006946FFF72FFC002306A902A80893FFF709
:108A9000E1FF214606A8FFF7DDFF06A8FBF7B2FCC1
:108AA00002A8FBF7AFFC0AB010BD0491EBE78842C7
:108AB000F8B504460D46164614D9904213D2A2F1D9
:108AC0000806751AA1F108072C44B74218D01CB14A
:108AD00031462046FFF733FC301DFCF7F9F8083E1D
:108AE000083CF2E70CD0B5420AD01CB1294620461A
:108AF000FFF725FC281DFCF7EBF808350834F2E7F2
:108B0000F8BD70B50E1E054611DDF000FEF786F9C2
:108B1000044658B1D5E9001201EBC202FFF7C7FFC6
:108B20002868FEF783F92C60AE60012070BD002438
:108B3000F6E773B5044645686846FFF700FCD4E9DC
:108B40000113994210DA2368626803EBC50503EB51
:108B5000C202294605F10800FFF7A9FF8DB9636835
:108B600001336360012606E001312046FFF7C9FFAB
:108B700006460028E7D101A8FCF7AAF8304602B063
:108B800070BD69462846FFF7DAFBE8E78842F8B58A
:108B900004460D46164614D9904213D2A2F1080697
:108BA000751AA1F108072C44B74218D01CB1314600
:108BB0002046FFF7B6FB301DFCF78AF8083E083C5C
:108BC000F2E70CD0B5420AD01CB129462046FFF787
:108BD000A8FB281DFCF77CF808350834F2E7F8BD3F
:108BE00070B50E1E054611DDF000FEF717F90446BC
:108BF00058B1D5E9001201EBC202FFF7C7FF2868A0
:108C0000FEF714F92C60AE60012070BD0024F6E779
:108C100073B5044645686846FFF783FBD4E9011342
:108C2000994210DA2368626803EBC50503EBC202C0
:108C3000294605F10800FFF7A9FF8DB963680133E4
:108C40006360012606E001312046FFF7C9FF0646B2
:108C50000028E7D101A8FCF73BF8304602B070BD10
:108C600069462846FFF75DFBE8E700002DE9F04F75
:108C70001746A1B080460AA80E46FEF7E7FF3C68FB
:108C8000237953B939464046FFF74BFB0AA8FEF754
:108C9000EBFF404621B0BDE8F08F3368D3E90353C2
:108CA00005EBC303039304F1280A04F1140B039B9F
:108CB0009D4221D0D5F80090584609F11401FFF7E4
:108CC00072F8B8B109F128015046FFF76CF888B185
:108CD0002368D9F80020534033F47F430AD120227F
:108CE000CDE915235E4A009215AA5E493220FDF7B0
:108CF000B1FFC7E70835DAE75046FFF725F860B956
:108D00005949012215A815ADFEF7F6FF0FCDD4463F
:108D1000ACE80F002B68CCF800303368D3E900537F
:108D200005EBC30B5D45A94651466ED055F8080BBF
:108D3000FFF739F80028F5D004F1140A5046FFF780
:108D400003F888B9494B48491A88013292B21A800F
:108D500015A8012315ADFEF7EEFF0FCDD446ACE804
:108D60000F002B68CCF80030414B159328220021CE
:108D700016A802F012FA514604A8FEF7F7FF04AB5A
:108D800018AA0DF1200C18685968154603C5083358
:108D900063452A46F7D11868286023798DF8583042
:108DA000D9F800309B8AADF87430E36B1793314BE0
:108DB0000022A11D15A8CDE91E34FDF793FD002862
:108DC0007FF460AF01232370346839460C340DA85A
:108DD000FFF7A7FA20460DA9FFF71AFF04460EA8D1
:108DE000FBF776FF002C7FF44DAF2023CDE90D3447
:108DF000214B00930DAA234677E739464046FFF7FB
:108E000090FA0CA8FBF764FF40E70BA8FFF7FAF80D
:108E1000514615A8FEF7AAFF0B9A0023143215A994
:108E20000120FDF737FD0028E7D135680BA90DA813
:108E3000FFF785FA28460DA9FFF77BFE05460EA829
:108E4000FBF746FF002DD8D032685368126803F153
:108E50000053013B0CA802EBC309FBF739FF6BE79A
:108E60003EDB0B005BDA0B0002DC0B0090E603201C
:108E700003002C009D810B0069DB0B0002480023DE
:108E80000360FDF79FBD00BF94E60320F8B50646DA
:108E90000D468F180024BD420CD0336815F8011B15
:108EA0009B6830469847031E01DB1C44F3E7002C07
:108EB00008BF1C462046F8BD13B50446084659B104
:108EC000019102F0E0F923680199DB68024620462F
:108ED00002B0BDE81040184702B010BD03689B689F
:108EE000184738B50D210546FFF7F8FF0A2104465B
:108EF0002846FFF7F3FF204438BD38B50546FFF795
:108F0000DBFF04462846FFF7ECFF204438BD30B5B0
:108F10008BB00023012A8DF8243098BF0A2209ACB7
:108F20000D46B1FBF2F101FB125303F0FF03092BD5
:108F300094BF30333733DBB2AA4204F8013DEFD996
:108F40002146FFF7B9FF0BB030BD2DE9F04186B0E7
:108F500000AF05460E46381D142114463B60FDF750
:108F600085FF13280ED8391D2846FFF7A5FF0446B4
:108F70001EB12846FFF7B5FF044420461837BD460A
:108F8000BDE8F08100F1080323F00703E846ADEBEC
:108F9000030D2246411C3B686846FDF767FF6946A2
:108FA0002846FFF789FF0446C546E1E7014B024A20
:108FB0001A6070479CE6032022DC0B002DE9F0418B
:108FC000154ADFF86080D2E90063801943EB0101A4
:108FD000124BD3E90067D8E90023861941EB070754
:108FE000BB4208BFB2428CB013D003A96846CDE99A
:108FF0000067FDF76BFF089B094D03F26C7303AC30
:1090000008930FCC0FC50FCC0FC5C8E900672368C4
:109010002B600CB0BDE8F081D0E60320C8E6032049
:10902000A4E60320D8E6032008B50020FDF7E6FEFD
:1090300028B1FDF7CBFE80F00100C0B208BD0120D1
:10904000FCE7000008B5FFF7B9FF024B18690130D3
:1090500008BD00BFA4E60320FAEE087AB4EEE70AE2
:10906000F1EE10FA08B511D4F2EE0C7AB4EEE70A7C
:10907000F1EE10FA0ADCDFED067A60EE277A17EEE1
:10908000900A01F0DFFF034BC3E9000108BD00BFF8
:1090900000006145D0E6032010B50020FDF7B8FBC5
:1090A0000446A0B9FDF7DEFD012810D12046FDF7EA
:1090B00009FE60B9FFF7B8FF10B9FDF77FFEF9E7C9
:1090C000FFF7B2FFBDE810400020FDF7A1BB20462E
:1090D00010BD1FB5FFF7E0FF10220021684602F027
:1090E0005CF800216846FDF79BFB009805B05DF831
:1090F00004FB000008B5FFF7ECFFC117FFF75EFFA8
:10910000014B986808BD00BFA4E6032008B5FFF72F
:10911000E0FFC117FFF752FF014B586808BD00BFC1
:10912000A4E6032008B5FFF7D4FFC117FFF746FFF9
:10913000014B186808BD00BFA4E6032008B5FFF77F
:10914000C8FFC117FFF73AFF014BD86808BD00BF41
:10915000A4E6032008B5FFF7BCFFBDE80840C1172F
:10916000FFF770BF08B5FFF7B4FFC117FFF726FF81
:10917000014B586908BD00BFA4E60320024B1A68E2
:10918000024B1A60704700BFC0D80320A0E603203E
:109190000021FDF777BD000010B5044B03600446C5
:1091A000806908B1FEF729FD204610BD38DD0B00AF
:1091B00010B50446FFF7F0FF20461C21FAF771FFB7
:1091C000204610BD014B00229A607047E0E6032064
:1091D000014B1860704700BFC4D8032008B50B4B83
:1091E00043B100F025FC03681B699847002801DDA6
:1091F000AFF30080064B43B101F036F903681B69F9
:109200009847002801DDAFF3008008BD0000000092
:109210000000000008B5FFF7E1FFFDF7F1FA014B90
:10922000186008BD44E703200548064A064908B50A
:10923000121A01F08AFF054B054A1A6008BD00BFEB
:1092400000F4032004F40320E4E30B0000F4032003
:109250001E1C279A07B5002300931A466FF077016A
:10926000FDF742FD03B05DF804FB000007B543883D
:109270000A2B08D0502B0BD1094B1B684BB103B004
:109280005DF804EB1847FFF7E5FF03B05DF804FB5A
:10929000002300931A466FF07701FDF725FDF4E7F0
:1092A000F4E6032010B512480021FDF707FE114B2C
:1092B0001A68114B9A42114B0CBF012200221A70FE
:1092C00001D0FFF7B1FFFDF78BFA044601F06EFF06
:1092D0000B4B13B12046AFF3008000210848FDF787
:1092E00095FDBDE8104007480021FDF7F3BC00BF25
:1092F000D1910B0000F403201E1C279AF0E60320F6
:10930000000000006D920B0070470020704710B500
:1093100010210446FAF7C5FE204610BD08B5FFF738
:10932000F6FF08BD30B500224FF69C7402608480C1
:109330008D888C800C68858004600A6030BD10B513
:1093400004460068FDF772FD204610BD38B5C468BC
:10935000F4B12378022B03D104F10C00FFF7EFFFE7
:10936000656835B12846FBF74DF810212846FAF715
:1093700098FEA56835B12846FBF744F81021284629
:10938000FAF78FFE20461421BDE83840FAF789BE6F
:1093900038BD0B6803604B68436013B15A680132F3
:1093A0005A60704737B5044668460D46FFF7F1FF2F
:1093B000009B019A23606260002301A8019300933F
:1093C000FBF786FC35B1281DFBF782FC08212846F7
:1093D000FAF767FE204603B030BD826810B50AB9BF
:1093E00001F0A4F8BDE81040C368184708B500684C
:1093F00000F11001FFF7F1FF08BD826810B50AB94E
:1094000001F094F8BDE81040C368184708B500683B
:1094100000F11001FFF7F1FF08BD000038B500238F
:109420000446036010200D46FAF735FE28B10123EB
:10943000C0E90133024B0360C5602060204638BD9F
:109440004CDC0B0038B5002383608B6804460D4666
:109450002BB102229847EB68E360AB68A36020461B
:1094600038BD0000F0B589B004686846FFF75AFFC0
:109470004FF00203D4E84F2F002A03D1C4E8413F44
:109480000029F7D125D104F10C0569462846FFF7DC
:1094900049FFBFF35B8F01236370002004F10803D1
:1094A000BFF35B8F53E8006F43E80002002AF9D155
:1094B000BFF35B8F6EB1FDF7F5FB78B129463046FF
:1094C000FFF78BFF3046FAF79DFF10213046FAF781
:1094D000E8FD6846FFF733FF09B0F0BD314602A84A
:1094E000FFF7B0FFE068B4F9105008B101F0AEFE2C
:1094F00006901020ADF81C50FAF7CDFD0546E8B1F6
:10950000002787601820FAF7C6FD044688B1014697
:10951000876002A8FFF704FA049BA268A360059B7A
:10952000049206A9E268E36004F110000592FFF7D7
:10953000F9FE084BEB60084B2C60AB6006A8FFF708
:10954000FEFE02A8FAF75EFF002229460348FDF757
:10955000B1FBB7E7ED930B0071960B00799B0B0005
:109560002DE9F04F8BB005469DF850A00F46904670
:109570009946FDF72BFC07AE834638BB4FF62E739A
:10958000059005A93046ADF81830FFF7CBFE142042
:10959000FAF781FD044648B1022303700123C0E9B4
:1095A00001BB437031460C30FFF7BCFE2846214614
:1095B00040F8044BFFF732FF3046FFF7C0FE05A826
:1095C000FFF7BDFE28460BB0BDE8F08F0C2300244A
:1095D0001420CDE908440793FAF75DFD014618B160
:1095E000C0E901440470447004A80391FFF716FF1A
:1095F0001E4B08930820FAF74EFD044610B103A94C
:10960000FFF7C7FE00965FFA8AF34A46414638469E
:109610000994FDF7E3FBB8B9039B5B7803F0FF0205
:1096200093B94FF69C7305A903A80592ADF81830BD
:10963000FFF718FF05A8FFF782FE05A80999FFF7B5
:10964000B1FE06A8FBF744FB03A905A8FFF7A1FE9E
:10965000059B069A2B606A60002306A80693059373
:10966000FBF736FB04A8FBF733FBABE7ED960B00EB
:10967000012AF8B5054603D10B6803600020F8BD48
:10968000022A10D0032AF9D10468002CF6D004F184
:109690001000FFF754FE2046FAF7B4FE18212046CA
:1096A000FAF7FFFCEAE718200E68FAF7F4FC044624
:1096B00050B13146FFF7C6FE3069B6F9147008B1F3
:1096C00001F0C4FD2061A7822C60D7E738B50023E4
:1096D00083608B6804460D462BB102229847EB68E5
:1096E000E360AB68A360204638BD0000F0B589B0E8
:1096F00004460D4601A81146FFF754FEA4B124B25A
:109700001DB1284601F0A2FD054601A803A9039555
:10971000ADF81040FFF7A6FE03A8FFF710FE02A861
:10972000FBF7D6FA09B0F0BD019D0123D5E84F2F14
:10973000002A03D1C5E8413F0029F7D1EFD12B73AF
:10974000BFF35B8F6B702B1DBFF35B8F53E8006F14
:1097500043E80042002AF9D1BFF35B8F002EDED030
:109760002046FDF79FFA074660B105F10C0130462F
:10977000FFF743FE3046FAF745FE10213046FAF770
:1097800090FCCCE7314603A8FFF7A0FF2B7B8DF8B8
:109790001C301020FAF77FFC0546D0B187601420FA
:1097A000FAF779FC044678B18760014603A8FFF711
:1097B000B7F8059BA268A360069B0592E268E36088
:1097C0009DF81C3006922374064BEB60064B2C6010
:1097D000AB6003A8FAF716FE002229460348FDF7FE
:1097E00069FAC7E70D940B00F1970B00799B0B000A
:1097F000012A70B5044603D10B680360002070BDD8
:10980000022A0CD0032AF9D10468002CF6D0204695
:10981000FAF7F8FD14212046FAF743FCEEE714208E
:109820000E68FAF738FC054620B13146FFF74EFFC7
:10983000337C2B742560E1E7704710B5182104468E
:10984000FAF72FFC204610BDF0B5037D062B8DB036
:109850000E4600F104074FF0000412D000F1080595
:1098600015F8011D0A223046FFF751FBAF420444B0
:1098700019D0002CF4D02E213046FFF72FFB0444E2
:10988000EEE72F236A4639460A208DF80040FDF79F
:10989000B9F8684601F0F7FC33680246DB686946B0
:1098A00030469847044620460DB0F0BD10B5054B34
:1098B0000446112240F8043B002101F06EFC2046D2
:1098C00010BD00BF68DC0B000346074A10B543F823
:1098D000042B01F1100251F8044B43F8044B914260
:1098E000F9D10A781A7010BD68DC0B00024AC0E991
:1098F000002104220275704768DC0B00037D042BF5
:1099000004D14068003818BF01207047062B07D1EA
:1099100043683BB983682BB9C3681BB90069F1E799
:10992000002070470120704710B59DF8084044EAB8
:10993000032343EA024242EA0161042341600375C2
:1099400010BD000013B5044C04609DF81040009455
:10995000FFF7EAFF02B010BD68DC0B0007B5064B4D
:109960000360CB7800938B784A780978FFF7DCFFA7
:1099700003B05DF804FB00BF68DC0B004174704766
:109980007047704708B50021007CFDF743F940EAB5
:10999000E07008BD08B50121007CFDF73BF940EA05
:1099A000E07008BD08B5007CFDF72CF920EAE070F6
:1099B00008BD08B5007CFDF71DF920EAE07008BD80
:1099C00013B50446007C0191FDF71CF900280199AC
:1099D00001DC607C20B1207CFDF724F920EAE070F6
:1099E00002B010BD007CFDF725B910B51421044666
:1099F000FAF757FB204610BD10B54FF47A730446B2
:109A000008460021C4E90113044B2360012320749C
:109A100063741146FDF7E6F8204610BD7CDC0B00B0
:109A200010B514220446002101F0B7FB204610BDFA
:109A300010B50F4C88B003A8FFF7F2FF2178BFF3F1
:109A40005B8F11F001010FD120460191FAF72BFB3A
:109A5000019948B103AA0748FFF7CEFF2046FAF75D
:109A600027FB054801F040FB024808B010BD00BFCD
:109A7000F8E60320FCE6032081990B000047000074
:109A80002DE9FF4100241D460F4690460646FCF78F
:109A90007FFEA5424FF00403ADF80D408DF80C3069
:109AA0008DF80F40A2BF9DF828308DF80E3003AC22
:109AB0000749009443463A463046A8BF8DF80D50FA
:109AC000FCF75EFEB0FA80F0400904B0BDE8F0811A
:109AD0007D9A0B0070474174704708B5007CFCF715
