:02000002B0004C
:1040000000400B0088A90B00000006000C00050210
:084010000401A30F00000000F1
:044018003C9D0B00C0
:1040200009480A49884208B505D0094A824202D0A7
:10403000121A03F0E4FD0748074A0021121A03F0A0
:10404000ECFD014808BD00BFF4D6032078A70B00A3
:10405000DCD80320E0D80320F1E7032070B5074E39
:10406000074C01F0B7FEA41BA4080025AC4200D108
:1040700070BD56F8043B98470135F7E72CA70B00B5
:1040800050A70B0000F0FEB808B500F0F5FABDE847
:10409000084001F057BE01F0BDBA01F0BBBA01F013
:1040A000C1BA01F0BFBA0078B0FA80F04009704799
:1040B0000123037070470000014B01221A70704702
:1040C0007BE6032038B5074D074B287801240021F3
:1040D0001C7002F032FF2C7021462046BDE83840AB
:1040E00002F02BBFFCD603207AE603200EB403B502
:1040F00003AB002153F8042B019301F0EAFC02B05A
:104100005DF804EB03B070472DE9F043314D85B005
:104110000023074608462B700C4603F0F4FD394691
:10412000064601A803F0C9FD2B4901A804F036FC9E
:1041300003F04DFD294B214603EB402003F0A4FD85
:10414000B6F5007F3DD201232B7002F0F5F9234A2A
:104150002349244DDFF8A480DFF8A490224FFFF715
:10416000C5FF22491D4804F019FC00240026D8F898
:104170000030A3421ADD1E4A1E4909EB840301F0F8
:1041800069FA1A49002004F009FC03F01DFD3246CB
:1041900051EC100B3B4603F063FBE5E802011349C9
:1041A000002004F0FBFB90B9C8F80040124C00213D
:1041B000207802F0C2FE02200121207002F0BDFE34
:1041C00002E02B78002BC0D105B0BDE8F0830134AC
:1041D000CDE700BF10DC0320509D0B0074DC0320F2
:1041E000589D0B0068D9032000408F405C9D0B0058
:1041F000A8DB03205F9D0B00FCD60320F8D603202C
:10420000E8DA03202DE9F041DFF8748000F0DEFFEA
:10421000D8F80060861B642E054624D9134C02F0A2
:104220008BF91349FFF762FF00272078002102F085
:1042300084FE38460121277002F07FFE0D4BB3FB50
:10424000F6F60D4B20781E600C4BC8F8005039462E
:1042500001251D7002F071FE042020702946BDE882
:10426000F04102F06ABEBDE8F08100BFFCD6032039
:10427000759D0B0080EE3600E4D8032079E603201C
:10428000ACDB032030B501218BB0002002F044FEEE
:104290000121084602F040FE0121022002F03CFE0E
:1042A0000121032002F038FE0121042002F034FE37
:1042B0000121052002F030FE0121062002F02CFE33
:1042C00001210A2002F028FE01210A2002F035FE19
:1042D00001F078F910B901F06DF9F9E7344D01F00A
:1042E00071F900210A2002F028FE0121287802F04D
:1042F00024FE00F06BFF2F4B0024186003210820E0
:1043000002F00AFE2C4900944FF0FF3301220820EE
:1043100002F03AF923462246CDE9004427492848CD
:1043200001F060F923462246CDE90044254926489C
:1043300001F058F92B7806930222234606A9234858
:1043400001F030F902F0F8F82149044606A801F01E
:10435000AAFA01F062FC0A22014602A801F0C9FA99
:1043600002A906A801F0F3FA1A4B01681A481A4686
:1043700000F0B2FC194902462046FFF7B7FE02A83A
:1043800001F046FA06A801F043FA134800F0B4FB26
:1043900058B1134A1349104800F029FD12490E483C
:1043A0000BB0BDE8304000F0C6BE0BB030BD00BF62
:1043B000FCD60320ACDB032005420B0009410B00B7
:1043C000D39D0B00C5400B00839D0B008E9D0B0001
:1043D000949D0B00A19D0B00E8D80320A69D0B0027
:1043E000B79D0B00C39D0B00CD9D0B0000B589B0A0
:1043F0000E4904A801F057FA01F00FFC0A22014609
:10440000684601F076FA694604A801F0A0FA084B64
:10441000016808481A4600F05FFC684601F0F8F9A8
:1044200004A801F0F5F909B05DF804FB949D0B00B8
:10443000A19D0B00E8D803202DE9F84F2DED048B4A
:10444000574BDFF88481D3F800B0564F9FED507B77
:10445000C2464FF000090026B0EE478AF0EE678AA8
:10446000CB4516DDFAE8024553EC182B20462946C9
:1044700003F05CFB08B145EC184B32463B46204646
:10448000294603F035FB08B126462F4609F10109FC
:10449000E6E732463B4651EC180B02F0FFFE3EA326
:1044A000D3E9002303F0B2F832463B4602F0F8FEAF
:1044B000002541EC190BDFF81491DFF814A12C460C
:1044C000AB450DDBF8E8020153EC192B03F010FBB0
:1044D00020B15AF8253049F8243001340135EFE78E
:1044E00002F02AF853EC182B2F49304DFFF7FEFD50
:1044F00002F022F82E4932463B46FFF7F7FD02F064
:104500001BF82C49FFF7F2FDE4B129682A4BDFF8CC
:10451000BCC003EBC10300225CF8220018600CEB66
:104520008207386857F8046F013EB04202F1010279
:10453000F7D00130A242586001F1010003F10803F5
:1045400011DD29601C4C1D4F00262B68B34204F17D
:1045500008040ADD01F0F0FF54E902233946FFF7B1
:10456000C5FD0136F1E70146D6E7154D154B287814
:10457000012400211C7002F0E0FC03202870BDEC37
:10458000048B2146BDE8F84F02F0D7BCAFF30080A2
:104590000000000000000000333333333333D33FD7
:1045A000F8D6032000005940DA9D0B0048D90320BB
:1045B000F89D0B00159E0B0014DC0320539E0B008E
:1045C000FCD603207BE6032068D90320B0DB032060
:1045D000E8DA032038B5046805467CB16368013B1E
:1045E00063605BB9236820469B689847A368013BDA
:1045F000A3601BB923682046DB689847284638BD6E
:10460000174B10B530221A60164A00231360164A61
:104610008CB01370044601F03DFB059001F032FBB5
:10462000049001F00BFBA11CDDE90432CDE900414F
:1046300002900E4908A801F097F90D4B089A1B78D3
:104640000C498DF8003006A83C2301F021FD07A895
:10465000FFF7C0FF08A801F0DBF80CB010BD00BFE9
:10466000F8D6032048D9032074DC0320619E0B0098
:10467000E0D80320B49E0B002DE9F0418AB001F090
:10468000DDFA17285F4C01D00B2810D15E4B1A6859
:1046900082420CD018605D4B2078012500211D70EE
:1046A00002F04BFC29462846257002F046FC58488B
:1046B00000F022FA00284BD0554800F0F4FB257892
:1046C000012D0CD10021284602F037FC0620294696
:1046D000207002F032FC01F0C9FAFFF791FF237855
:1046E000022B0FD1FFF7A8FE01F026FF054601F0CF
:1046F000A5FA064601F0AEFA46490346B21C284622
:10470000FFF7F4FC2378032B57D101F015FF424942
:10471000424DDFF84081424FFFF7E8FC414902A8D3
:1047200001F0C1F80026D8F80030B34205F10805C1
:1047300020DD55E90223394606A801F015F906A93E
:1047400002A801F000F906A801F062F80136EAE7D4
:1047500001F0F2FE3449FFF7C9FCFFF747FE2C4891
:1047600000F0CAF90028AAD001F0E6FE2F49FFF7B1
:10477000BDFCA4E72E4B029A1B782E498DF8003021
:1047800006A83C2301F084FC07A8FFF723FF029A48
:1047900029491F4800F02BFB1D4800F084FB274BE4
:1047A00020780021197002F0C8FB0520012120703B
:1047B00002F0C3FB02A801F02BF82378042B1AD1D6
:1047C00001F0BAFE1E49FFF791FC1E4B1E491A6804
:1047D00006A800F037FF1D490D4806AA00F007FBA8
:1047E0001B4B20780021197002F0A7FB0520012146
:1047F000207002F0A2FB4FF47A700AB0BDE8F041DD
:1048000001F05EBAFCD60320F4D603207AE603203A
:10481000E8D80320E69E0B00009F0B0014DC032069
:10482000279F0B00099F0B00BD9E0B00D29E0B0023
:10483000E0D80320369F0B00D39D0B007BE60320BE
:10484000469F0B00E4D80320B49D0B005A9F0B0039
:1048500079E6032048D9032030B5114B114912489D
:1048600085B001251D70114B019300241E23009378
:1048700002944FF4007340F25B7200F061F80C4B4D
:104880001A1D1A600B4A5A6021462846C3E90244A1
:104890001C611D7505B0BDE8304000F0EFBD00BFE4
:1048A000E0D80320609F0B00E8D80320B9400B003C
:1048B0004CD903201000030091F85C3010B5044679
:1048C000016013B1886D00F0A1FC204610BD10B549
:1048D000036893F85C20044612B1986D00F09EFCCA
:1048E000204610BDF8B51F469DF8243004460D46FD
:1048F00016462BB1012380F85C30583000F07EFC66
:10490000089B23630023636306B1A66425B129468F
:1049100004F1380000F0DBFF069B2365079BE0698C
:10492000A4F84C70FF2BB8BFFF23A4F8543008B193
:10493000FFF7B5FBB4F85400FFF7AFFBE061F8BD3B
:104940002DE9FF4104460025174698460E4602F021
:10495000A1F90D49E56104F1380000F0A4FF9DF8CC
:10496000303003930B9BA564CDE901830A9B009330
:10497000204684F85C503B462A463146FFF7B2FF9A
:10498000204604B0BDE8F081529E0B0010B50446ED
:10499000204602F0DBF80028FAD0204601F0E4FEC1
:1049A000C0B210BD2DE9F04705468846FFF7EEFF7F
:1049B000EB691870EB6993F800A04FF001090AF059
:1049C000F00A00274C462846FFF7E0FF2646EB6931
:1049D000985500F07F0313FB09F31F4401340306CD
:1049E000A4B2BFB24FEAC919EDD4631EBAF1300FB9
:1049F00088F800301ED12846FFF7C8FFEB6918552C
:104A00002846FFF7C3FFF41C0236B6B2EB69A4B226
:104A100098550226B6B2BE420ED22846FFF7B6FF20
:104A2000B5F85430A34284BFEB6918550134A4B2E1
:104A30000136EFE70026EDE7B5F85430A3422CBF6E
:104A400020460020BDE8F0872DE9F34115461E46BB
:104A50001A4607460023964602A802F07F0CBEF1D4
:104A60007F0F03F10104034488BF4CF0800CBEF1BA
:104A70007F0F4FEAD212E4B203F804CC1ED8C4F17F
:104A80000403C4F10500E954224601A9284405EBBA
:104A9000030803F0B4F8721C22444146384601F082
:104AA0004EFE054600F092FB621C78623244A8B2CA
:104AB000131A5842584102B0BDE8F0812346CAE7B4
:104AC0000233F0B5054698B20023CE5C9CB256B1D5
:104AD000B5F854C0844503F1010704D9441C1654A9
:104AE0003B46A0B2F1E799B2411A0A44210A02F802
:104AF000021C02F8013CF0BD38B5044601F048FF45
:104B0000002814BF0125002502D1204602F078F8C4
:104B1000284638BD2DE9F04788B00446DDF84080CE
:104B20009DF850A0894617461E46FFF7E5FF05464B
:104B3000002840F0CD80214601A8FFF7BDFEA16C02
:104B4000002940F08880B4F84C20A16B2B46204609
:104B500001F0A0FE00287AD0012323849DF8543070
:104B6000E269042B5B4B40F08180186899889B793F
:104B7000ADF80C108DF80E300290C2F805009DF8CB
:104B80000E30BDF80C10A2F80910D3720C23B8F146
:104B9000000F00F081809DF848009DF844204001FE
:104BA00040EAC20040F00600C0B2BAF1000F01D1E5
:104BB00000F0FD001FB1002E70D140F08000E269CE
:104BC000D054226DE169581C12120A549A1CE169F2
:104BD000206D88540333E26949462046FFF770FF91
:104BE0000346B8F1000F0BD0E26941462046FFF7BB
:104BF00067FFE269139903462046FFF761FF03460A
:104C000067B1E26939462046FFF75AFF03462EB1E5
:104C1000E26931462046FFF753FF0346053BE26950
:104C20009BB210212046FFF70FFF00F0CFFAC4E936
:104C300009004FF47A76204601F088FF88BB00F027
:104C4000C5FAA36AC01A236D73439842F3D920466C
:104C500001F0D6FF35E002A801F004FCB4F84C20C6
:104C60002B4602A9204601F0F5FE73E7D3F80700B2
:104C7000D3F80B10DB7B0DF1080CACE803008CF8CB
:104C8000003002AB03CBC2F80500C2F809109CF853
:104C9000003053730E237AE7022086E740F0C0000D
:104CA0008DE702A92046FFF77DFE0428CFD1E369F6
:104CB000DE78002ECBD100F089FA0125A06284F8BD
:104CC0002C6001A8FFF703FE284608B0BDE8F08776
:104CD0000025F9E76E9F0B0010B54FF0040C86B06D
:104CE0000124CDE9044C0024CDE90244CDE900447F
:104CF000FFF710FF06B010BD2DE9F74FDDF83C803F
:104D00009DF834509DF8389004468B4616461F4651
:104D1000FFF7F2FE8246002851D0214601A8FFF796
:104D2000CBFDB4F85420E069002102F076FF0523A2
:104D3000E26959462046FFF7C3FE6B1E012B15D8CA
:104D4000218CE369013189B22184090A1954421C7A
:104D5000E369218C92B20230995480B2B8F1000F0D
:104D600004D0238C5A1C2284A8F8003000210B1890
:104D70008F42E2699BB20AD9B4F854C09C4506D967
:104D800016F801C002F803C0013189B2EFE79DF8BF
:104D9000301000290CBF30213121B9F1000F01D0B2
:104DA00041F00801022D0ED141F00401053B9BB2F8
:104DB0002046FFF749FE824601A8FFF788FD5046CE
:104DC00003B0BDE8F08F012D08BF41F00201EDE70F
:104DD0001FB5089C0394002402949DF81C40019484
:104DE0009DF818400094FFF787FF04B010BD30B560
:104DF00087B0044610460591049202F084FF002516
:104E00000346CDE90155DDE9042100952046FFF771
:104E1000DFFF07B030BD73B504460E46FFF76CFEEA
:104E20000546C8B1214601A8FFF746FDE3696222A5
:104E30001A70E36902225A70E369320A9A70E369D0
:104E4000DE70E1690422204601F079FC051E01A80C
:104E500018BF0125FFF73BFD284602B070BD73B5B2
:104E600004460E46FFF748FE0546C8B1214601A894
:104E7000FFF722FDE36972221A70E36902225A7079
:104E8000E369320A9A70E369DE70E1690422204620
:104E900001F055FC051E01A818BF0125FFF717FDFD
:104EA000284602B070BD2DE9F04F2DED028B87B082
:104EB00000AF0446FFF720FE8146F8B1214607F116
:104EC0001400FFF7F9FC00F081F9236D4FF47A72BA
:104ED0005343A26A821A9A42064603D8626A821A29
:104EE000934221D294F82C307BB1204601F088FE09
:104EF0004FF0000907F11400FFF7E9FC48461C37A2
:104F0000BD46BDEC028BBDE8F08FE269C021117097
:104F1000E2695370E1690222204601F010FCC4E905
:104F20000966012384F82C30204601F00FFE00288A
:104F3000E0D007F113012046FFF734FD8346002837
:104F4000D8D0E369A662197801F0F002302A7FD147
:104F5000D4F830A0BAF1000FCCD097F813C06A464D
:104F600008EE102A03EB0C025178957805EB012529
:104F7000ADB205F108026946D208A1EBC20295461E
:104F80000CF10302FA6003EB020E0DEB050268461A
:104F9000C7F808D07A60D7E901218A4206D00A46CC
:104FA0001EF8018B02F8018BBA60F4E7002242552B
:104FB00093F80080F96808F00608ABEB0C02033A9E
:104FC000B8F1020FA2EB0502294425D113F801E044
:104FD0001944023A91F801B00CF105012944194431
:104FE0000BEB0E2BD047E36940221A70E3691FFADE
:104FF0008BFB83F80180E3694FEA1B229A70E36917
:1050000083F803B0E1690422204601F098FB666250
:1050100018EE103A9D466DE7B8F1040F15D113F85C
:1050200001E01944023A91F801B00CF1050129445C
:1050300019440BEB0E2BD047E36950221A70E36939
:1050400002221FFA8BFB5A70D5E71944D047DFE7DD
:10505000502A08D19A78D97801EB022189B22046EA
:10506000FFF7D9FE46E7402A12D1626B002A3FF4CF
:1050700041AFBBF1040F7FF43DAF11F0060F7FF499
:1050800039AF9978D87800EB012080B2904731E7AA
:10509000602A08D19A78D97801EB022189B220469A
:1050A000FFF7DDFE26E7702ADFD0902A3FF422AF1B
:1050B000C02A0AD1D0221A70E36900225A70E1692D
:1050C0000222204601F03BFB14E7D02A04BF002354
:1050D00084F82C300EE7F7B504460F461646FFF766
:1050E0000BFD054610B3214601A8FFF7E5FB238C15
:1050F00001339BB2EBB12384238CE2691B0A537109
:10510000E369228C9A71E269072339462046FFF74A
:10511000D7FCE3691E54043883B2E2698221204639
:10512000FFF792FC054601A8FFF7D1FB284603B024
:10513000F0BD0123DFE70022FFF7CDBF08B5024B2A
:105140001B689B68019308BD6802030008B5024B09
:105150001B68DB68019308BD6802030008B5024BB9
:105160001B689B68019308BD2C02030008B5024B25
:105170001B68DB68019308BD2C02030008B5024BD5
:105180001B681B69019308BD2C02030008B5024B84
:105190001B689B69019308BD2C02030008B5024BF4
:1051A0001B68DB69019308BD2C02030008B5024BA4
:1051B0001B685B69019308BD6C02030008B5024BD4
:1051C0001B685B68019308BD1802030008B5024B19
:1051D0001B685B69019308BD1802030008B5024B08
:1051E0001B689B6D019308BD1802030008B5024BB4
:1051F0001B685B6E019308BD1802030008B5024BE3
:105200001B681B6B019308BD4802030008B5024BE5
:105210001B689B6B019308BD4802030008B5024B55
:105220001B681B6C019308BD4802030008B5024BC4
:105230001B685B6C019308BD4802030008B5024B74
:105240001B685B69019308BD6402030008B5024B4B
:105250001B681B6A019308BD6402030008B5024B7A
:105260001B689B6A019308BD6402030008B5024BEA
:105270001B68DB68019308BD3C02030008B5024BC4
:105280001B681B69019308BD3C02030008B5024B73
:105290001B685B69019308BD3C02030008B5024B23
:1052A0001B689B69019308BD3C02030008B5024BD3
:1052B0001B68DB69019308BD3C02030008B5024B83
:1052C0001B681B6A019308BD3C02030008B5024B32
:1052D0001B689B6A019308BD3C02030008B5024BA2
:1052E0001B681B6C019308BD3C02030008B5024B10
:1052F0001B681B6A019308BD2802030008B5024B16
:105300001B685B6A019308BD2802030008B5024BC5
:105310001B689B6A019308BD2802030008B5024B75
:105320001B68DB6A019308BD2802030008B5024B25
:105330001B681B6B019308BD2802030008B5024BD4
:105340001B685B6B019308BD2802030008B5024B84
:105350001B681B6C019308BD2802030008B5024BB3
:105360001B689B69019308BD3802030008B5024B16
:105370001B68DB69019308BD3802030008B5024BC6
:105380001B681B6A019308BD3802030008B5024B75
:105390001B689B6A019308BD3802030008B5024BE5
:1053A0001B681B6B019308BD3802030008B5024B54
:1053B0001B689B6B019308BD3802030008B5024BC4
:1053C0001B68DB69019308BD3002030008B5024B7E
:1053D0001B681B6A019308BD3002030008B5024B2D
:1053E0001B681B68019308BD4C02030008B5024B03
:1053F0001B681B69019308BD4C02030008B5024BF2
:105400001B685B69019308BD4C02030008B5024BA1
:105410001B689B69019308BD4C02030008B5024B51
:105420001B68DB69019308BD4C02030008B5024B01
:105430001B681B6A019308BD4C02030008B5024BB0
:105440001B681B6D019308BD6002030008B5024B89
:105450001B681B68019308BD2002030008B5024BBE
:105460001B685B68019308BD2002030008B5024B6E
:105470001B685B69019308BD2002030008B5024B5D
:105480001B68DB6A019308BD2002030008B5024BCC
:105490001B68DB6C019308BD2002030008B5024BBA
:1054A0001B685B6D019308BD2002030008B5024B29
:1054B0001B689B6D019308BD2002030008B5034BD8
:1054C0001B68D3F88830019308BD00002002030058
:1054D00008B5034B1B68D3F89430019308BD000056
:1054E0002002030008B5024B1B685B68019308BDEE
:1054F0004002030008B5024B1B689B68019308BD7E
:105500004002030008B5024B1B68DB68019308BD2D
:105510004002030008B5024B1B681B69019308BDDC
:105520004002030008B5024B1B685B69019308BD8C
:105530004002030008B5024B1B689B69019308BD3C
:105540004002030008B5024B1B68DB69019308BDEC
:105550004002030008B5024B1B681B6A019308BD9B
:105560004002030008B5024B1B681B6B019308BD8A
:105570004002030008B5024B1B685B6B019308BD3A
:105580004002030008B5024B1B681B6C019308BD69
:105590004002030008B5024B1B685B6C019308BD19
:1055A0004002030008B5024B1B681B68019308BD4D
:1055B0004402030008B5024B1B689B68019308BDB9
:1055C0004402030008B5024B1B685B69019308BDE8
:1055D0004402030008B5024B1B681B6A019308BD17
:1055E0004402030008B5024B1B685B6A019308BDC7
:1055F0004402030008B5024B1B681B6B019308BDF6
:105600004402030008B5024B1B68DB6B019308BD25
:105610004402030008B5024B1B681B68019308BDD8
:105620001C02030008B5024B1B685B68019308BDB0
:105630001C02030008B5024B1B689B68019308BD60
:105640001C02030008B5024B1B68DB68019308BD10
:105650001C02030008B5024B1B685B69019308BD7F
:105660001C02030008B5024B1B685B6A019308BD6E
:105670001C02030008B5024B1B68DB6A019308BDDE
:105680001C02030008B5024B1B681B6B019308BD8D
:105690001C02030008B5024B1B68DB6B019308BDBD
:1056A0001C02030008B5024B1B681B6C019308BD6C
:1056B0001C02030008B5024B1B685B6C019308BD1C
:1056C0001C02030008B5024B1B68DB6C019308BD8C
:1056D0001C020300002240681146FFF73BBF002276
:1056E00040681146FFF746BF40680022FFF73ABF07
:1056F0004068002281F00101FFF724BF00234068C9
:105700001A461946FFF716BF002340681A46194685
:10571000FFF708BF002240681146FFF7FBBE0022DA
:1057200040681146FFF7E6BE406800220221FFF7FD
:10573000E9BE002340681A46FFF7D4BE024B03229D
:105740005A60024A1A6070477CE60320889F0B006B
:1057500010B5044608462170FFF730FE0023636051
:10576000204610BD054B02221A60054B054A9A607F
:105770000020C3E90000FFF771BE00BF90E60320E0
:1057800084E603200000FFFF2DE9F041931E8CB05A
:10579000222B4FF000030D4614468DF82C3027D9EC
:1057A00000282ADA2E462D2306F8013B40420A241F
:1057B0000DF12B074FF001082246014601A802F027
:1057C0000AFA029B0198092BCCBF3722302252FAE9
:1057D00083F307F8013908F101080028ECD14246AB
:1057E000791C304602F00BFA28460CB0BDE8F08177
:1057F0000A2AD5D018B12E46DAE70A24FAE7302370
:105800008DF82B302E460DF12A074FF00208E6E7FF
:1058100010B504460068FFF705FF204610BD10B51F
:105820000446006808B1FFF7FDFE0023C4E9013318
:10583000236010BD38B504460D4600680131FFF7FE
:10584000F9FE10B1C4E90005012038BD10B50368A8
:10585000044623B143688B4201D3012010BD20468A
:10586000FFF7E8FF0028F9D0A368002BF5D12268E4
:105870001370F2E737B50D46114601920446FFF763
:10588000E5FF019A28B92046FFF7C9FF204603B07B
:1058900030BDA2602946206802F0B1F92268A368F1
:1058A0000021D154F2E7002313B5C0E900330446C8
:1058B0008360037341B10846019102F024FA019913
:1058C00002462046FFF7D6FF204602B010BD13B5B2
:1058D000044659B10846019102F015FA01990246B1
:1058E0002046FFF7C7FF204602B010BDFFF797FF25
:1058F000F9E710B504468AB00023C4E90033A36079
:105900002373084601A9FFF73FFF01A92046FFF7CF
:10591000DEFF20460AB010BD70B505460E4609B937
:10592000002070BD6AB1846814442146FFF78EFFE1
:105930000028F5D02868AB683146184402F0BDF95C
:10594000AC600120EDE78A680968FFF7E5BF10B594
:105950008A6809680446FFF7DFFF10B92046FFF7A1
:105960005EFF204610BD00000EB470B587B00BADD1
:10597000044655F8042B01922B46052104A80395F3
:10598000FFF770FE0B4906462046FFF78CFF3146B5
:105990002046FFF75BFF206830B1019A03952B4644
:1059A000711CFFF75FFEA060204607B0BDE87040A5
:1059B00003B07047529E0B0010B58368044613B1C4
:1059C000032201469847204610BD10B54368013BAD
:1059D0000446436063B903689B689847A368013B2A
:1059E000A3602BB923682046DB68BDE81040184748
:1059F00010BD13B50B460246D0E900016C4684E8A1
:105A0000030093E8030082E8030094E8030083E8BE
:105A1000030002B010BD0000024800230360FFF73E
:105A200005BC00BF94E60320F8B506460D468F1866
:105A30000024BD420CD0336815F8011B9B6830462A
:105A40009847031E01DB1C44F3E7002C08BF1C46EB
:105A50002046F8BD13B50446084659B1019102F03D
:105A600052F923680199DB680246204602B0BDE87E
:105A70001040184702B010BD03689B68184738B53E
:105A80000D210546FFF7F8FF0A2104462846FFF7D7
:105A9000F3FF204438BD30B58BB00023012A8DF8C8
:105AA000243098BF0A2209AC0D46B1FBF2F101FB8C
:105AB000125303F0FF03092B94BF30333733DBB2AB
:105AC000AA4204F8013DEFD92146FFF7C3FF0BB00E
:105AD00030BD2DE9F04186B000AF05460E46381DB9
:105AE000142114463B60FFF7BDFD13280ED8391D65
:105AF0002846FFF7AFFF04461EB12846FFF7BFFF59
:105B0000044420461837BD46BDE8F08100F1080383
:105B100023F00703E846ADEB030D2246411C3B682A
:105B20006846FFF79FFD69462846FFF793FF044646
:105B3000C546E1E7014B024A1A60704798E6032028
:105B4000C49F0B002DE9F041154ADFF86080D2E9CF
:105B50000063801943EB0101124BD3E90067D8E9D8
:105B60000023861941EB0707BB4208BFB2428CB045
:105B700013D003A96846CDE90067FFF7A3FD089B92
:105B8000094D03F26C7303AC08930FCC0FC50FCC17
:105B90000FC5C8E9006723682B600CB0BDE8F08131
:105BA000D0E60320C8E60320A0E60320D8E60320C1
:105BB00008B50020FFF71EFD28B1FFF703FD80F0B8
:105BC0000100C0B208BD0120FCE7000008B5FFF7E6
:105BD000B9FF024B1869013008BD00BFA0E60320E1
:105BE00010B50020FFF7FAFA0446A0B9FFF72EFC23
:105BF000012810D12046FFF759FC60B9FFF7D8FF04
:105C000010B9FFF7D7FCF9E7FFF7D2FFBDE8104066
:105C10000020FFF7E3BA204610BD1FB5FFF7E0FFF5
:105C200010220021684601F0F8FF00216846FFF7C6
:105C3000DDFA009805B05DF804FB000008B5FFF739
:105C4000ECFFC117FFF77EFF014B986808BD00BF4E
:105C5000A0E6032008B5FFF7E0FFC117FFF772FFCA
:105C6000014B586808BD00BFA0E6032008B5FFF748
:105C7000D4FFC117FFF766FF014BD86808BD00BF0E
:105C8000A0E6032008B5FFF7C8FFBDE80840C1172C
:105C9000FFF79CBF08B5FFF7C0FFC117FFF752FF22
:105CA000014B586908BD00BFA0E60320024B1A68EB
:105CB000024B1A60704700BF00D703209CE6032008
:105CC0000021FFF7D3BB000010B5044B036004466E
:105CD000806908B1FFF779FE204610BDD8A00B00FF
:105CE00010B50446FFF7F0FF20461C21FEF7D9F956
:105CF000204610BD014B00229A607047E0E6032069
:105D0000014B1860704700BF04D7032008B50B4B48
:105D100043B100F011FC03681B699847002801DDBE
:105D2000AFF30080064B43B101F03CF903681B69F7
:105D30009847002801DDAFF3008008BD0000000097
:105D40000000000008B5FFF7E1FFFFF73FFA014B45
:105D5000186008BD44E703200548064A064908B50F
:105D6000121A01F04CFF054B054A1A6008BD00BF2E
:105D700000F4032004F4032074A70B0000F40320B4
:105D80001E1C279A07B5002300931A466FF077016F
:105D9000FFF79EFB03B05DF804FB000007B54388E6
:105DA0000A2B08D0502B0BD1094B1B684BB103B009
:105DB0005DF804EB1847FFF7E5FF03B05DF804FB5F
:105DC000002300931A466FF07701FFF781FBF4E799
:105DD000F4E6032010B512480021FFF76BFC114BCD
:105DE0001A68114B9A42114B0CBF012200221A7003
:105DF00001D0FFF7B1FFFFF7E1F9044601F016FF0C
:105E00000B4B13B12046AFF3008000210848FFF789
:105E1000F9FBBDE8104007480021FFF74FBB00BF6A
:105E2000015D0B0000F403201E1C279AF0E60320FE
:105E3000000000009D5D0B0070470020704710B50A
:105E400010210446FEF72DF9204610BD08B5FFF7D6
:105E5000F6FF08BD30B500224FF69C7402608480C6
:105E60008D888C800C68858004600A6030BD10B518
:105E700004460068FFF7D6FB204610BD38B5C4685D
:105E8000F4B12378022B03D104F10C00FFF7EFFFEC
:105E9000656835B12846FFF78FFD10212846FEF7CB
:105EA00000F9A56835B12846FFF786FD1021284680
:105EB000FEF7F7F820461421BDE83840FEF7F1B8A8
:105EC00038BD0B6803604B68436013B15A680132F8
:105ED0005A60704737B5044668460D46FFF7F1FF34
:105EE000009B019A23606260002301A80193009344
:105EF000FEF770FB35B1281DFEF76CFB0821284624
:105F0000FEF7CFF8204603B030BD826810B50AB95D
:105F100001F0AAF8BDE81040C368184708B500684A
:105F200000F11001FFF7F1FF08BD826810B50AB952
:105F300001F09AF8BDE81040C368184708B500683A
:105F400000F11001FFF7F1FF08BD000038B5002394
:105F50000446036010200D46FEF79DF828B101238A
:105F6000C0E90133024B0360C5602060204638BDA4
:105F7000EC9F0B0038B5002383608B6804460D4608
:105F80002BB102229847EB68E360AB68A360204620
:105F900038BD0000F0B589B004686846FFF75AFFC5
:105FA0004FF00203D4E84F2F002A03D1C4E8413F49
:105FB0000029F7D125D104F10C0569462846FFF7E1
:105FC00049FFBFF35B8F01236370002004F10803D6
:105FD000BFF35B8F53E8006F43E80002002AF9D15A
:105FE000BFF35B8F6EB1FFF751FA78B129463046A7
:105FF000FFF78BFF3046FFF7DFFC10213046FEF73E
:1060000050F86846FFF733FF09B0F0BD314602A8EB
:10601000FFF7B0FFE068B4F9105008B101F056FE88
:1060200006901020ADF81C50FEF735F80546E8B193
:10603000002787601820FEF72EF8044688B1014635
:10604000876002A8FFF7D5FC049BA268A360059BAC
:10605000049206A9E268E36004F110000592FFF7DC
:10606000F9FE084BEB60084B2C60AB6006A8FFF70D
:10607000FEFE02A8FFF7A0FC002229460348FFF716
:106080000DFAB7E71D5F0B00A1610B0081660B00E5
:106090002DE9F04F8BB005469DF850A00F46904675
:1060A0009946FFF78FFA07AE834638BB4FF62E733B
:1060B000059005A93046ADF81830FFF7CBFE142047
:1060C000FDF7E9FF044648B1022303700123C0E94C
:1060D00001BB437031460C30FFF7BCFE2846214619
:1060E00040F8044BFFF732FF3046FFF7C0FE05A82B
:1060F000FFF7BDFE28460BB0BDE8F08F0C2300244F
:106100001420CDE908440793FDF7C5FF014618B1F7
:10611000C0E901440470447004A80391FFF716FF1E
:106120001E4B08930820FDF7B6FF044610B103A9E3
:10613000FFF7C7FE00965FFA8AF34A4641463846A3
:106140000994FFF747FAB8B9039B5B7803F0FF02A5
:1061500093B94FF69C7305A903A80592ADF81830C2
:10616000FFF718FF05A8FFF782FE05A80999FFF7BA
:10617000B1FE06A8FEF72EFA03A905A8FFF7A1FEB7
:10618000059B069A2B606A60002306A80693059378
:10619000FEF720FA04A8FEF71DFAABE71D620B001C
:1061A000012AF8B5054603D10B6803600020F8BD4D
:1061B000022A10D0032AF9D10468002CF6D004F189
:1061C0001000FFF754FE2046FFF7F6FB182120468B
:1061D000FDF767FFEAE718200E68FDF75CFF04464D
:1061E00050B13146FFF7C6FE3069B6F9147008B1F8
:1061F00001F06CFD2061A7822C60D7E738B5002341
:1062000083608B6804460D462BB102229847EB68E9
:10621000E360AB68A360204638BD0000F0B589B0EC
:1062200004460D4601A81146FFF754FEA4B124B25E
:106230001DB1284601F04AFD054601A803A90395B2
:10624000ADF81040FFF7A6FE03A8FFF710FE02A866
:10625000FEF7C0F909B0F0BD019D0123D5E84F2F2D
:10626000002A03D1C5E8413F0029F7D1EFD12B73B4
:10627000BFF35B8F6B702B1DBFF35B8F53E8006F19
:1062800043E80042002AF9D1BFF35B8F002EDED035
:106290002046FFF7FBF8074660B105F10C013046D8
:1062A000FFF743FE3046FFF787FB10213046FDF72E
:1062B000F8FECCE7314603A8FFF7A0FF2B7B8DF853
:1062C0001C301020FDF7E7FE0546D0B18760142092
:1062D000FDF7E1FE044678B18760014603A8FFF7A9
:1062E00088FB059BA268A360069B0592E268E360B9
:1062F0009DF81C3006922374064BEB60064B2C6015
:10630000AB6003A8FFF758FB002229460348FFF7BC
:10631000C5F8C7E73D5F0B0021630B0081660B00EA
:10632000012A70B5044603D10B680360002070BDDC
:10633000022A0CD0032AF9D10468002CF6D020469A
:10634000FFF73AFB14212046FDF7ABFEEEE71420E1
:106350000E68FDF7A0FE054620B13146FFF74EFF5F
:10636000337C2B742560E1E7704710B51821044693
:10637000FDF797FE204610BDF0B5037D062B8DB0CE
:106380000E4600F104074FF0000412D000F108059A
:1063900015F8011D0A223046FFF77DFBAF42044489
:1063A00019D0002CF4D02E213046FFF765FB0444B1
:1063B000EEE72F236A4639460A208DF80040FEF7A3
:1063C0003DFF684601F09FFC33680246DB68694682
:1063D00030469847044620460DB0F0BD10B5054B39
:1063E0000446112240F8043B002101F016FC20462F
:1063F00010BD00BF08A00B000346074A10B543F8C4
:10640000042B01F1100251F8044B43F8044B914264
:10641000F9D10A781A7010BD08A00B00037D042B77
:1064200004D14068003818BF01207047062B07D1FF
:1064300043683BB983682BB9C3681BB90069F1E7AE
:10644000002070470120704710B59DF8084044EACD
:10645000032343EA024242EA0161042341600375D7
:1064600010BD000007B5064B0360CB7800938B7816
:106470004A780978FFF7E8FF03B05DF804FB00BF36
:1064800008A00B00417470477047704708B50021A1
:10649000007CFEF7BBFF40EAE07008BD08B50121B3
:1064A000007CFEF7B3FF40EAE07008BD08B5007C51
:1064B000FEF7A4FF20EAE07008BD08B5007CFEF7F7
:1064C00095FF20EAE07008BD13B50446007C0191F9
:1064D000FEF794FF0028019901DC607C20B1207C4C
:1064E000FEF79CFF20EAE07002B010BD007CFEF7D2
:1064F0009DBF10B514210446FDF7D3FD204610BD05
:1065000010B54FF47A73044608460021C4E901131C
:10651000044B23600123207463741146FEF75EFF71
:10652000204610BD1CA00B0010B51422044600210B
:1065300001F073FB204610BD10B50F4C88B003A8C6
:10654000FFF7F2FF2178BFF35B8F11F001010FD14C
:1065500020460191FDF7A7FD019948B103AA07481C
:10656000FFF7CEFF2046FDF7A3FD054801F026FB0F
:10657000024808B010BD00BFF8E60320FCE6032087
:1065800089640B00004700002DE9FF4100241D46EF
:106590000F4690460646FEF701FEA5424FF0040363
:1065A000ADF80D408DF80C308DF80F40A2BF9DF86E
:1065B00028308DF80E3003AC0749009443463A4624
:1065C0003046A8BF8DF80D50FEF7E0FDB0FA80F020
:1065D000400904B0BDE8F08185650B007047417447
:1065E000704708B5007CFEF771FE20EAE07008BD38
:1065F00008B5007CFEF742FE20EAE07008BD08B551
:10660000007CFEF74BFE40EAE07008BD08B5007C58
:10661000FEF73CFE40EAE07008BD007CFEF746BE97
:1066200037B5457C04462DB1207C03B0BDE8304031
:10663000FEF71CBE007C0191FEF748FE0028019980
:10664000F2DC284603B030BD10B514210446FDF736
:1066500028FD204610BD000010B54FF47A730446A3
:10666000084611460022C4E90123044B236001239C
:1066700020746374FEF732FE204610BD4CA00B0060
:1066800010B5836804460BB900F0EEFCC368984768
:10669000A3681BB1032221462046984720461021BB
:1066A000BDE81040FDF7FDBC7047F8B5064615463D
:1066B0000C468F18BC4206D0336814F8011B9B6847
:1066C00030469847F6E72846F8BD007C0022FEF7E2
:1066D0000DBE007C0021FEF711BE007C0021FEF7FC
:1066E00015BE007C0021FEF719BE007C0021FEF7DC
:1066F0001DBE10B514210446FDF7D3FC204610BD85
:1067000010B54FF47A73044608460021C4E901131A
:10671000034B236020741146FEF718FE204610BD7F
:106720007CA00B0013B503688DF80710DC6B012209
:106730004FF0FF330DF10701A04702B010BD10B4B8
:106740000368DC6B4FF0FF33A4465DF8044B6047F1
:1067500013B5134602688DF80710D46B0DF10701CD
:106760000122A04702B010BD10B54369B3F88620DE
:10677000B3F884309A42044608D06369B3F88420A1
:10678000511CA3F884101344187910BD03681B69C9
:1067900098470028F1D14FF0FF30F6E77047436982
:1067A0001868C043C00F704770470000064B9942FD
:1067B00010B500F10C0405D0084600F059FC002883
:1067C00008BF0024204610BDBC9F0B0010B5AC21B3
:1067D0000446FDF766FC204610BDAC21FDF761BC08
:1067E0002DE9F0414FF0000886B01C46C0F8048047
:1067F00005460E4617464146102202A801F00DFA42
:10680000631C09D04FF47A73B4FBF3F203FB124418
:10681000CDE902285C430494686910230093006862
:1068200002AB41F2050240F6FF71FEF797FD00282A
:1068300007DAFEF72FFF03686B60002006B0BDE8A3
:10684000F0816869002300683A463146FEF7A6FDEC
:10685000031EEEDB1846F1E730B587B0044601AD04
:106860006846FFF7FFFD0FCD04340FC42B6823707B
:1068700007B030BD70B54D69054B04468C3544F802
:10688000043B06460FCD0FC42B682370304670BD05
:1068900008A00B002DE9F0439846036893B00D461D
:1068A0000024DB6A06461746984728466B46224670
:1068B00021460094FEF74AFC0546002863D1009B60
:1068C000002B4BD05B69002B48D006A8FFF786FD54
:1068D000009B5C696378022B04D1211D06A8FFF799
:1068E000BBFF26E00A2B24D11122294601A801F082
:1068F00094F9A368002B38D004F108030DF1040CBF
:10690000183418685968624603C20833A342944693
:10691000F7D1062301A90CA88DF81430FFF76CFD00
:106920000DF1340CBCE80F0007AC0FC4DCF80030EC
:10693000237006A8FFF772FD80B1336807ADD3F866
:106940002090124B0C930FCD0DAC0FC42B6823700D
:106950003A4643460CA93046C84705460098FEF71C
:10696000EDFB284613B0BDE8F083E368002BC3D1EC
:106970004FF6FF70D4F81090FEF768FC8145BBD14C
:1069800004F11401AAE72546E8E700BF08A00B00C0
:1069900038B543691A68002A054610DAB3F886202C
:1069A000B3F884309A420AD103681B6998470446B9
:1069B00028B92B682846DB6A9847204638BD012055
:1069C000FCE710B54369B3F88620B3F884309A42E7
:1069D000044605D06369B3F884201344187910BDC8
:1069E00003681B6998470028F4D14FF0FF30F6E7A1
:1069F000F8B543691746B3F88620B3F884309A4255
:106A000005460E4616D06969B1F88430B1F8864063
:106A1000E41ABC4228BF3C4604332246194430469F
:106A200001F0EDF86A69B2F884302344A2F88430AA
:106A30002046F8BD03681B6998470028E3D14FF052
:106A4000FF34F5E742690023A2F884304269A2F8D6
:106A5000863070472DE9F0411F4603680C46DB6A1B
:106A60008AB0054616469847237DD5F81480042B36
:106A70000CBF02200A2006220121FEF797FCC8F86D
:106A800000006B691B68002B08DA2B682846DB6A5C
:106A90000024984720460AB0BDE8F0812846FFF759
:106AA000D1FFB7B1002303A9F8B20393ADF81030BA
:106AB000FEF77CFB0028E8D1686906230093006894
:106AC00003AB41F20B0240F6FF71FEF747FC0028D2
:106AD000DBD11C22002103A801F09FF8237D042BA9
:106AE0001DD14FF407733046ADF80C30FEF7B6FBFE
:106AF000ADF80E006068FEF7A9FB04906B691C22DC
:106B0000186803A9FEF73AFC0028BED104340FCC64
:106B10006D698C350FC523682B700124BAE740F6E8
:106B20001C233046ADF80C30FEF798FB05AEADF8EF
:106B30000E00231D04F1140718685968324603C279
:106B40000833BB421646F7D1D8E7000030B542699A
:106B5000B2F886308BB004462BB1B2F884209A424A
:106B600001D1FFF76FFF61690868002818DBB1F8F1
:106B700086507F2D14D804310823C5F180022944A2
:106B8000FEF704FC002813DD6369B3F886200AB918
:106B9000A3F884206369B3F886201044A3F8860024
:106BA0006369B3F88600B3F88430C01A0BB030BD07
:106BB000FEF770FD03680B2BF2D0FEF76BFD036848
:106BC0000B2BEDD020230025CDE90235FEF762FD29
:106BD00003680193084B0949009302AA2B4632200F
:106BE000FEF72CFC63691868FEF7C0FB63694FF081
:106BF000FF321A60D4E700BFA3A00B009CA00B00DB
:106C000010B5436904461868002801DBFEF7AEFBA7
:106C100063694FF0FF321A606069112200218C30E5
:106C200000F0FBFF2046BDE81040FFF70BBF10B59A
:106C3000002304460160C0F884308830FFF7CEFBA3
:106C4000204610BD73B500234FF47A72C0E90132BB
:106C50000E4A0361026043610446AC200191FDF7D6
:106C60001AFA051E05F10C0608D00123C5E9013307
:106C7000074B01992B603046FFF7D9FF2046C4E946
:106C80000565FFF7DFFE02B070BD00BFD8A00B00A6
:106C9000BCA00B0010B54FF0FF310446FFF7D2FF48
:106CA000204610BD10B504460068002801DBFEF741
:106CB0005DFB204610BD0C30FFF7F4BF002240689A
:106CC0001146FEF727BC002240681146FEF742BC81
:106CD000002240681146FEF74DBC40680022FEF7D6
:106CE00041BC4068002281F00101FEF72BBC00236B
:106CF00040681A461946FEF71DBC002340681A4634
:106D00001946FEF70FBC002240681146FEF7F2BBA1
:106D1000406800220221FEF7F5BB002340681A46B6
:106D2000FEF7E0BB024B04225A60024A1A60704729
:106D300010E7032024A10B00002340681A46FEF749
:106D4000D1BB406800220221FEF7DCBB0022406874
:106D50001146FEF7CFBB002240681146FEF7DABBB2
:106D6000002340681A461946FEF7DCBB0023406842
:106D70001A461946FEF7DEBB40680021FEF702BC4A
:106D800040680021FEF706BC4068002281F0010146
:106D9000FEF7D8BB40680022FEF7E4BB0022406843
:106DA0001146FEF7E7BB002240681146FEF7D2BB52
:106DB0002DE9F04395B014460D460746FFF70EFB4C
:106DC00000211C220DA8009100F027FF40230C9306
:106DD00020466B460CAA0021FEF7B8F904460028AD
:106DE0004BD1024601216868FEF794FB02218046E0
:106DF00022466868FEF78EFB009E81462146002EE3
:106E00003BD0002939D17368022B03D00A2B11D053
:106E1000F669F4E7B8F1000FFAD0716906A80431F9
:106E200007ADFFF71FFB0FCD3C1D0FC42B68237070
:106E30004146EDE7B9F1000FEAD07469102201A8CC
:106E400000F0EBFE06238DF8143001AD04F10803C9
:106E50001834186859682A4603C20833A3421546F5
:106E6000F7D101A906A807ADFFF7C6FA0FCD3C1D63
:106E70000FC42B6823704946CAE70098FEF75EF9F5
:106E8000384615B0BDE8F083024B034A1A60002271
:106E90005A60704718E7032060A10B00232813B540
:106EA00002D9002002B010BDA0F10B03022B1AD8AA
:106EB000174C2178BFF35B8F11F001010BD12046F5
:106EC0000191FDF7F0F8019928B11248FEF740FC56
:106ED0002046FDF7EDF80F4B1878FEF777FA0028FB
:106EE000DFD10120DEE7012809D800F097F8002162
:106EF000007CFEF723FA80F00100C0B2D2E7093827
:106F00000128EED800F04EF8007CFEF7D7F9F2E742
:106F100020E7032024E70320232838B504460D4644
:106F20000AD8FF2908D0FFF7B9FF28B12946204623
:106F3000BDE83840FEF712B938BD38B504460D46F5
:106F4000FEF714F9FF2810D0062804D84D2323FAA1
:106F500000F0C30709D42046FFF7A0FF28B1294657
:106F60002046BDE83840FEF709B938BD704700003B
:106F700038B5044614252A46002100F04EFE25802F
:106F80004025074925812846258200F06BF80449F1
:106F90006060284600F066F8E060204638BD00BF1B
:106FA00094A10B0030B50E4D2978BFF35B8F11F023
:106FB000010487B011D12846FDF775F868B101A822
:106FC000FFF7D6FF01AA21460648FFF745FB2846F2
:106FD000FDF76EF8044800F0F1FD024807B030BD3F
:106FE0002CE7032030E703206D6F0B007047000093
:106FF00038B52025142304460360856005610649E1
:10700000284600F02FF804496060284600F02AF86E
:10701000E060204638BD00BF94A10B0030B50E4D96
:107020002978BFF35B8F11F0010487B011D1284696
:10703000FDF739F868B101A8FFF7DAFF01AA214688
:107040000648FFF75DFB2846FDF732F8044800F0DC
:10705000B5FD024807B030BD48E703204CE70320E8
:10706000ED6F0B00FDF719B808B5FEF703FB000044
:10707000014900F0F9B800BFB0A10B007FB50024B2
:107080001023CDE90234036815469E6912686B46E9
:10709000CDE90044B0479DF8043003F00603062B09
:1070A00003BF009B2B600120204604B070BD0098F8
:1070B000904214BF012006207047000010B5034B1A
:1070C0000360044600F0CDF8204610BDF0A10B008F
:1070D00010B50446FFF7F2FF20460821FCF7E1FF58
:1070E000204610BD2DE9F0411F46DDE90834DDF8EA
:1070F000188098450646154607D1079900F0B4F860
:1071000018B165710020BDE8F0813946304600F0C5
:10711000ABF80028F6D00123C4F800802571A371D4
:10712000F0E738B515461C4600F09EF820B108235C
:10713000E36006232560237138BD73B505460C4610
:1071400001921E4600F090F850B9032E08D823682B
:10715000019A5B692946204602B0BDE87040184795
:1071600002B070BD10B5034B03600446FFF7A6FFE5
:10717000204610BD50A20B0010B50446FFF7F2FFE9
:1071800020460C21FCF78DFF204610BDF7B5089F67
:10719000974205460E4614460AD0A868026808972A
:1071A000156A31462246AC4603B0BDE8F040604760
:1071B0001946019300F058F8019B0028EDD00620F5
:1071C00003B0F0BD2DE9F14F0D461946DDE90A4B3C
:1071D000DDE90CA681461746984600F045F890B1C7
:1071E000002D3460377109DB61198A450CBF062117
:1071F0000121B171002001B0BDE8F08F0235F9D155
:107200000123B371F6E7544506D15946484600F0CC
:107210002BF808B17771EDE7D9F808000368CDE9DC
:107220000CA6CDE90A4BDC693A4643462946A446FA
:1072300001B0BDE8F04F60472DE9F04107460C462C
:1072400015461E46FFF76DFF48B9B86803689F6989
:107250002A4633462146BC46BDE8F0416047BDE8BA
:10726000F081704700207047814208B50ED0406819
:1072700003782A2B0CD049680B782A2B08BF0131E0
:1072800000F011FDB0FA80F0400908BD0120FCE7D4
:107290000020FAE781F0004102E000BF83F00043E4
:1072A00030B54FEA41044FEA430594EA050F08BFA1
:1072B00090EA020F1FBF54EA000C55EA020C7FEA65
:1072C000645C7FEA655C00F0E2804FEA5454D4EBE2
:1072D0005555B8BF6D420CDD2C4480EA020281EAAC
:1072E000030382EA000083EA010180EA020281EAE4
:1072F0000303362D88BF30BD11F0004F4FEA013136
:107300004FF4801C4CEA113102D0404261EB410144
:1073100013F0004F4FEA03334CEA133302D05242CA
:1073200063EB430394EA050F00F0A780A4F1010486
:10733000D5F1200E0DDB02FA0EFC22FA05F28018C0
:1073400041F1000103FA0EF2801843FA05F35941A6
:107350000EE0A5F120050EF1200E012A03FA0EFC25
:1073600028BF4CF0020C43FA05F3C01851EBE3714F
:1073700001F0004507D54FF0000EDCF1000C7EEB6C
:1073800000006EEB0101B1F5801F1BD3B1F5001FAA
:107390000CD349085FEA30004FEA3C0C04F10104C9
:1073A0004FEA445212F5800F80F09A80BCF1004FF2
:1073B00008BF5FEA500C50F1000041EB045141EA74
:1073C000050130BD5FEA4C0C404141EB0101013C3D
:1073D00028BFB1F5801FE9D291F0000F04BF01462C
:1073E0000020B1FA81F308BF2033A3F10B03B3F1FE
:1073F00020020CDA0C3208DD02F1140CC2F10C028E
:1074000001FA0CF021FA02F10CE002F11402D8BFEB
:10741000C2F1200C01FA02F120FA0CFCDCBF41EAB7
:107420000C019040E41AA2BF01EB0451294330BD86
:107430006FEA04041F3C1CDA0C340EDC04F1140463
:10744000C4F1200220FA04F001FA02F340EA03003A
:1074500021FA04F345EA030130BDC4F10C04C4F180
:10746000200220FA02F001FA04F340EA0300294660
:1074700030BD21FA04F0294630BD94F0000F83F4AA
:10748000801306BF81F480110134013D4EE77FEA8D
:10749000645C18BF7FEA655C29D094EA050F08BFD9
:1074A00090EA020F05D054EA000C04BF19461046BA
:1074B00030BD91EA030F1EBF0021002030BD5FEAFE
:1074C000545C05D14000494128BF41F0004130BD26
:1074D00014F580043CBF01F5801130BD01F000457A
:1074E00045F0FE4141F470014FF0000030BD7FEAED
:1074F000645C1ABF194610467FEA655C1CBF0B46E8
:10750000024650EA013406BF52EA033591EA030FFE
:1075100041F4002130BD00BF90F0000F04BF0021F6
:10752000704730B54FF4806404F132044FF0000529
:107530004FF0000150E700BF90F0000F04BF0021A2
:10754000704730B54FF4806404F1320410F0004508
:1075500048BF40424FF000013EE700BF42004FEA03
:10756000E2014FEA31014FEA02701FBF12F07F4380
:1075700093F07F4F81F06051704732F07F4208BF37
:10758000704793F07F4F04BF41F40021704730B53E
:107590004FF4607401F0004521F000411CE700BF8A
:1075A00050EA010208BF704730B54FF000050AE00D
:1075B00050EA010208BF704730B511F0004502D50E
:1075C000404261EB41014FF4806404F132045FEA10
:1075D000915C3FF4D8AE4FF003025FEADC0C18BFB9
:1075E00003325FEADC0C18BF033202EBDC02C2F1AB
:1075F000200300FA03FC20FA02F001FA03FE40EA3D
:107600000E0021FA02F11444BDE600BF70B54FF040
:10761000FF0C4CF4E06C1CEA11541DBF1CEA13551E
:1076200094EA0C0F95EA0C0F00F0DEF82C4481EA86
:10763000030621EA4C5123EA4C5350EA013518BFA6
:1076400052EA033541F4801143F4801338D0A0FB93
:1076500002CE4FF00005E1FB02E506F00042E0FB40
:1076600003E54FF00006E1FB03569CF0000F18BF46
:107670004EF0010EA4F1FF04B6F5007F64F54074EE
:1076800004D25FEA4E0E6D4146EB060642EAC62181
:1076900041EA55514FEAC52040EA5E504FEACE2EEE
:1076A000B4F1FD0C88BFBCF5E06F1ED8BEF1004FF1
:1076B00008BF5FEA500E50F1000041EB045170BD6D
:1076C00006F0004646EA010140EA020081EA0301B1
:1076D000B4EB5C04C2BFD4EB0C0541EA045170BDAD
:1076E00041F480114FF0000E013C00F3AB8014F127
:1076F000360FDEBF002001F0004170BDC4F1000470
:10770000203C35DA0C341BDC04F11404C4F12005F0
:1077100000FA05F320FA04F001FA05F240EA02004B
:1077200001F0004221F0004110EBD37021FA04F681
:1077300042EB06015EEA430E08BF20EAD37070BD3B
:10774000C4F10C04C4F1200500FA04F320FA05F09A
:1077500001FA04F240EA020001F0004110EBD3709C
:1077600041F100015EEA430E08BF20EAD37070BD0C
:10777000C4F1200500FA05F24EEA020E20FA04F3E5
:1077800001FA05F243EA020321FA04F001F0004194
:1077900021FA04F220EA020000EBD3705EEA430E05
:1077A00008BF20EAD37070BD94F0000F0FD101F034
:1077B0000046400041EB010111F4801F08BF013C6D
:1077C000F7D041EA060195F0000F18BF704703F0AB
:1077D0000046520043EB030313F4801F08BF013D32
:1077E000F7D043EA0603704794EA0C0F0CEA1355EE
:1077F00018BF95EA0C0F0CD050EA410618BF52EAA8
:107800004306D1D181EA030101F000414FF00000AD
:1078100070BD50EA410606BF1046194652EA4306BB
:1078200019D094EA0C0F02D150EA013613D195EA2F
:107830000C0F05D152EA03361CBF104619460AD177
:1078400081EA030101F0004141F0FE4141F4700181
:107850004FF0000070BD41F0FE4141F4780170BD71
:1078600070B54FF0FF0C4CF4E06C1CEA11541DBFD6
:107870001CEA135594EA0C0F95EA0C0F00F0A7F8D8
:10788000A4EB050481EA030E52EA03354FEA013105
:1078900000F088804FEA03334FF0805545EA131318
:1078A00043EA12634FEA022245EA111545EA1065E0
:1078B0004FEA00260EF000419D4208BF964244F177
:1078C000FD0404F5407402D25B084FEA3202B61A96
:1078D00065EB03055B084FEA32024FF480104FF46A
:1078E000002CB6EB020E75EB030E22BFB61A7546DE
:1078F00040EA0C005B084FEA3202B6EB020E75EB71
:10790000030E22BFB61A754640EA5C005B084FEAD8
:107910003202B6EB020E75EB030E22BFB61A7546A5
:1079200040EA9C005B084FEA3202B6EB020E75EBB0
:10793000030E22BFB61A754640EADC0055EA060E71
:1079400018D04FEA051545EA16754FEA06164FEAB4
:10795000C30343EA52734FEAC2025FEA1C1CC0D160
:1079600011F4801F0BD141EA00014FF000004FF0ED
:10797000004CB6E711F4801F04BF01430020B4F1AE
:10798000FD0C88BFBCF5E06F3FF6AFAEB5EB030C66
:1079900004BFB6EB020C5FEA500C50F1000041EB63
:1079A000045170BD0EF0004E4EEA113114EB5C0430
:1079B000C2BFD4EB0C0541EA045170BD41F4801103
:1079C0004FF0000E013C90E645EA060E8DE60CEA0B
:1079D000135594EA0C0F08BF95EA0C0F3FF43BAF28
:1079E00094EA0C0F0AD150EA01347FF434AF95EADF
:1079F0000C0F7FF425AF104619462CE795EA0C0FC3
:107A000006D152EA03353FF4FDAE1046194622E78F
:107A100050EA410618BF52EA43067FF4C5AE50EA69
:107A200041047FF40DAF52EA43057FF4EBAE12E759
:107A30004FF0FF3C06E000BF4FF0010C02E000BF3A
:107A40004FF0010C4DF804CD4FEA410C7FEA6C5C1D
:107A50004FEA430C18BF7FEA6C5C1BD001B050EAC0
:107A6000410C0CBF52EA430C91EA030F02BF90EAAB
:107A7000020F0020704710F1000F91EA030F58BF6A
:107A8000994208BF90422CBFD8176FEAE37040F0CC
:107A9000010070474FEA410C7FEA6C5C02D150EA6A
:107AA000013C07D14FEA430C7FEA6C5CD6D152EA25
:107AB000033CD3D05DF8040B704700BF84461046EA
:107AC00062468C461946634600E000BF01B5FFF7E9
:107AD000B7FF002848BF10F1000F01BD4DF808EDB9
:107AE000FFF7F4FF0CBF012000205DF808FB00BF8A
:107AF0004DF808EDFFF7EAFF34BF012000205DF8E4
:107B000008FB00BF4DF808EDFFF7E0FF94BF012030
:107B100000205DF808FB00BF4DF808EDFFF7CEFF31
:107B200094BF012000205DF808FB00BF4DF808ED70
:107B3000FFF7C4FF34BF012000205DF808FB00BF41
:107B40004A0011D212F5001211D20DD56FF47873DC
:107B5000B3EB62520ED44FEAC12343F0004343EA31
:107B6000505323FA02F070474FF00000704750EA7C
:107B7000013002D14FF0FF3070474FF000007047E6
:107B8000D0B50C4B002206460F46FFF73FFDFFF72E
:107B9000D7FF0446FFF7C0FC074B0022FFF736FD76
:107BA00002460B4630463946FFF778FBFFF7C8FF21
:107BB0002146D0BD0000F03D0000F0410023014609
:107BC0001A46184600F0D2BF002100F0DBBE0A22A0
:107BD000002100F0C1BF002910B591FBF2F402FBB7
:107BE000141306DB002B01DA01349B1AC0E90043B1
:107BF00010BD002BC4BF04F1FF349B18F6E70A4404
:107C0000914200F1FF3300D1704710B511F8014BDC
:107C100003F8014F9142F9D110BD0244034693424B
:107C200000D1704703F8011BF9E7000038B5104B8D
:107C30001D68AB6B0446B3B91820FDF7EBFC024698
:107C4000A86320B90B4B0C484221FDF72BFD0B49D3
:107C50000B4BC0E900130B4B83600B238381002186
:107C60000120C2E90401AB6B00221C615A6138BDDE
:107C700004D7032089A20B00A0A20B000E33CDABCA
:107C800034126DE6ECDE050010B50246147813469A
:107C90000132002CFAD1013B11F8012B03F8012F1E
:107CA000002AF9D110BD10F8012B11F8013B012A6F
:107CB00028BF9A42F7D0D01A7047034611F8012B1B
:107CC00003F8012B002AF9D170470000024B01464E
:107CD000186800F003B800BF04D7032037B5044686
:107CE00008460D4600F00FF8421C1146204601924E
:107CF000FDF7C8FC044618B1019A2946FFF77FFF3B
:107D0000204603B030BD034613F8012B002AFBD1F7
:107D1000181A0138704710B57AB103460139841832
:107D200013F8010B11F8012F904201D1A34201D1A8
:107D3000801A10BD0028F3D1FAE71046F9E770B5B4
:107D400004460D4645EC104B164601F069FE51EC19
:107D5000100B7EB1C5F30A53C3F16B03002B09DD91
:107D60001B0503F17F55002405F5401522462B46DF
:107D7000FFF74CFC70BD00002DE9F04F2DED028B9C
:107D80009DB01F4600231893A24B13921B680593C6
:107D9000044618468846FFF7B6FF4FF0000A05462E
:107DA0004FF0000BCDF85C80179B1A782B2A4ED031
:107DB0003BD80D2A34D8082A34D8002A3ED00023D4
:107DC0000A93179E3378302B40F0B080737803F01D
:107DD000DF03582B68D10A9B019318AB02970093DD
:107DE0008D4A19AB17A9204600F08AFF10F007074B
:107DF000054605D0062F2CD10136002317960A938D
:107E0000139B002B40F090850A9BEBB152460BF17F
:107E1000004343EC102B1DB0BDEC028BBDE8F08F8E
:107E2000202ACCD101331793BEE72D2AC7D10122D6
:107E30000A925A1C17925B78002BC2D1139BCDF883
:107E40005C80002B40F06E8552465B46E1E70022E5
:107E5000EEE7189A3AB135211AA801F0ECFE18990C
:107E6000204601F0ABFA013F042F06D8DFE807F007
:107E70000A0314170A00DDE91AAB2807C0D54BF036
:107E8000004BBDE7DDE91AA3199A23F4801302F22F
:107E9000334243EA025BF0E7DFF880B1EDE76FF0D1
:107EA000004B4FF0FF3AE8E7179B5A1C17925B789C
:107EB000302BF9D0002BA3D001234FF000090493FD
:107EC000179B0893CDF81C904F460A221798067806
:107ED000A6F13003D9B209292AD905992A46FFF714
:107EE0001AFF98B3002032463D4605900346652AA6
:107EF00001D0452A18D11DB9049A02439ED000250D
:107F0000DDF85C8008F10102179298F801202B2A15
:107F100075D02D2A7BD04FF0000CA2F13001092939
:107F200040F28280CDF85C8000269DE00023C4E70B
:107F3000082FD8BF079900F10100DABF02FB013317
:107F4000079302FB093901371790BFE7179B5A19AE
:107F500017925A5D002F37D005903D46A2F13003AD
:107F6000092B12D90123C2E7179B5A1C17925A7882
:107F70000130302AF8D0A2F13103082B00F2D98465
:107F8000179B0590002008930546303A00F1010345
:107F900014D00599194405912B4600EB050E0A21D2
:107FA000734513D12B18082B05F1010505441CDC82
:107FB00007990A2303FB012307930023179A511CF7
:107FC000179152781846C9E73846D2E7082B04DCE7
:107FD000079E4E4307960133E2E703F1010CBCF123
:107FE000100FD8BF01FB09F9F5E7102DDCBF0A23FC
:107FF00003FB0929E1E70023059301237CE74FF008
:10800000000C08F10202179298F8022085E74FF061
:10801000010CF6E798A50B002CA30B000000F07FE5
:10802000179A511C17915278302AF9D0A2F13101D8
:1080300008293FF679AFA2F1300E179A0692179AE7
:10804000511C17915278A2F13006092E37D9069E9D
:10805000891B082944F61F6602DC7645A8BF7646D0
:10806000BCF1000F00D07642002D4DD104990143A0
:108070007FF4C6AE002B7FF4E1AE692A27D024DC62
:10808000492A24D04E2A7FF4D9AE9F4917A801F07F
:108090008FF800283FF4D2AE179B1B78282B2DD1E8
:1080A0009A491AAA17A801F097F8052826D11B9B10
:1080B000DDF868A043F0FF4B4BF4E00BA0E60A218B
:1080C00001FB0E2EAEF1300EB9E76E2ADBE79049C8
:1080D00017A801F06DF800283FF4B0AE179B8D494A
:1080E000013B17A8179301F063F810B9179B0133F0
:1080F0001793DFF830B24FF0000A81E6864801F0AE
:10810000EFFD5BEC10AB7BE6059B0798F31A002FA5
:1081100008BF2F46102D0693A846A8BF4FF01008A1
:10812000FFF7FAF9092D82468B4613DD7B4B03EBF3
:10813000C80353E91223FFF769FA824648468B4683
:10814000FFF7EAF902460B4650465946FFF7A8F8F2
:1081500082468B460F2D38DC069B002B3FF450AE39
:1081600024DD162B0BDC6D4901EBC301D1E90001C5
:1081700052465B46FFF74AFA82468B4640E6069A2D
:10818000C5F12503934220DB644CC5F10F0504EBD8
:10819000C50152465B46D1E90001FFF737FA069B5D
:1081A0005D1B04EBC504D4E90023E3E7069B16330B
:1081B0000BDB059B9E1B594B03EBC606D6E9002340
:1081C00050465946FFF74CFBD6E7069BA5EB08083F
:1081D0009844B8F1000F74DD18F00F030AD04F492E
:1081E00001EBC30152465B46D1E90001FFF70EFAED
:1081F00082468B4638F00F084FD0B8F59A7F22DDC3
:1082000000252E46079505952223DFF818B1236037
:108210004FF0000A079B002B3FF4F2AD189920465F
:1082200001F0CCF80599204601F0C8F83146204607
:1082300001F0C4F80799204601F0C0F8294620460D
:1082400001F0BCF8DCE5364B049300234FEA281814
:10825000504659469946B8F1010F21DC0BB18246D0
:108260008B462F4BABF1547B03EBC90952465B465F
:10827000D9E90001FFF7CAF92A4B0A460B402A49FF
:108280008B428246BCD8A1F580118B4286BFDFF8B5
:108290009CB04FF0FF3A02F1547B0023049384E03A
:1082A00018F0010F05D0049BD3E90023FFF7AEF9C6
:1082B0000123049A083209F101094FEA680804927F
:1082C000C9E7EAD0C8F1000818F00F020AD0134B32
:1082D00003EBC20350465946D3E90023FFF7C0FA27
:1082E00082468B465FEA2818D7D0B8F11F0F1FDDF2
:1082F00000252E460795059522234FF0000A4FF0E2
:10830000000B236086E700BF26A30B0040A30B00F1
:108310001DA30B0020A30B00529E0B0058A60B00C0
:1083200030A60B000000F07F0000A07CFFFFEF7F75
:1083300018F0100318BF6A23DFF8AC93049350467B
:108340005946002318F0010F04D0D9E90023FFF7A4
:108350005DF901235FEA680809F10809F2D10BB160
:1083600082468B46049BC3B1CBF30A52C2F16B0326
:10837000002B594611DD1F2B40F32481342BDEBF27
:10838000C2F14B024FF0FF3303FA02F24FF0000A42
:10839000CCBF4FF05C7B02EA010B00220023504669
:1083A0005946FFF79BFB0028A2D1079B0093089931
:1083B0002B463A46204601F069F8079000283FF422
:1083C0001FAF059B9E1B069B002BB4BF33460023AB
:1083D0000C93069B002523EAE37312932E46079B1A
:1083E0002046596800F0AAFF059000283FF40CAF22
:1083F000079B1A69023203F10C0192000C30FFF75F
:10840000FEFB4BEC10AB1AAA19A9204601F084FB25
:108410004BEC18AB189000283FF4F6AE0121204633
:1084200001F0CEF8064600283FF4EEAE199B049901
:10843000002BABBF0C9A129A129FDDF83090ACBFA4
:1084400003EB0209D71A1A9AA3EB01089044A14B37
:1084500008F1FF389845C2F1360280F2C780A3EBDD
:1084600008031F2BA2EB03024FF0010100F3B180C0
:1084700001FA03F30D930023089309EB0208049B10
:10848000C14517441F444B46A8BF4346BB42A8BF43
:108490003B46002BC2BFA8EB0308FF1AA9EB030958
:1084A0000C9B002B17DD31461A46204601F048F997
:1084B000064600283FF4A8AE0146189A204601F06F
:1084C00095F80B9000283FF49FAE1899204600F0D5
:1084D00075FF0B9B1893B8F1000F00F38C80069B7F
:1084E000002B08DD129A0599204601F029F9059024
:1084F00000283FF489AE002F08DD05993A46204652
:1085000001F078F9059000283FF47EAEB9F1000F34
:1085100008DD31464A46204601F06CF9064600283F
:108520003FF472AE059A1899204601F0EFF905461E
:1085300000283FF469AEC3680B930023C360314643
:1085400001F0C8F9002860DA0B9B53EA0A0340F0F7
:108550008280CBF31303002B7DD12BF000431B0D46
:108560001B05B3F1D66F76D96B6913B92B69012B53
:1085700071DD29460122204601F03CF931460546CD
:1085800001F0A8F9002866DD0499534A5B460029EA
:1085900000F0818002EA0B01B1F1D66F7BDCB1F112
:1085A0005C7F7FF7A9AE4D4B504659460022FFF73E
:1085B0002DF80B46034308BF222382468B4608BF93
:1085C00023602BE64FF0FF3202FA03F303EA0A0AB4
:1085D000E3E6C8F17F4808F57F0808F57B4808F115
:1085E000E20801FA08F308930D9146E70023089387
:1085F00001230D9341E718994246204601F0FAF80D
:10860000189000287FF46BAFFEE55F466ED10B9AA1
:10861000CBF3130342B3324A934228D1049B514611
:10862000EBB12D4B3B40B3F1D46F4FF0FF3219D873
:108630001B0DC3F16B0302FA03F3994217D1294BC7
:108640009F4202D101313FF4DFAD234B3B4003F5A4
:10865000801B4FF0000A049B002BA4D1DEE54FF0F5
:10866000FF33EAE71346E8E753EA0A038CD0089B96
:10867000DBB13B42EFD00B9B049A50465946C3B145
:10868000FFF75DFB02460B4651EC180BFEF708FEA8
:1086900082468B46DFE71340A3F580136FEA135B36
:1086A0006FEA0B5B4FF0FF3AD5E70D9B13EA0A0F19
:1086B000E0E7FFF744FB02460B4651EC180BFEF7D0
:1086C000EDFD0022002382468B46FFF707FA0028C3
:1086D000C1D011E602FCFFFF0000F07F000050391E
:1086E000FFFF0F00FFFFEF7F58A30B003146284626
:1086F00001F06EFA59EC108B10EE100A00224FF0C8
:1087000080434946FFF7FEF900287AD00B9B002BE7
:108710004AD0954B0022CDE90823DFF84C924FF068
:108720000008924B3B400D930D9A914B9A4240F0BA
:10873000B080DDE90801A7F1547B4BEC10ABCDE92B
:10874000080101F06DF9DDE9080153EC102BFEF78B
:108750005DFF52465B46FEF7A3FD0B468349854A03
:1087600019409142824660D918EE903A02F1547253
:10877000934204D118EE103A01333FF445ADDFF8CF
:1087800000B24FF0FF3A1899204600F017FE059905
:10879000204600F013FE3146204600F00FFE294629
:1087A000204600F00BFE1AE6BAF1000F1BD1CBF306
:1087B0001303F3B96C4B002240464946FFF798F982
:1087C000D0B9404649466C4B0022FEF71FFF804659
:1087D000894609F10043CDF850801593DDE9142353
:1087E000CDE908239DE7BAF1010F02D1002F3FF434
:1087F00083AD624B00228EE7DFF87C914FF00008DA
:10880000E7E75D4B404649460022FEF7FFFE0B9B23
:108810008046894633B901F100430E900F93DDE99C
:108820000E23DDE7CDE90E89F9E703F1547B049BC4
:10883000002BA8D12BF000430D9A1B0D1B059A426B
:10884000A1D14046494601F061FAFEF7B1FE024669
:108850000B4640464946FEF721FD0B9ACBF3130326
:1088600043EA0A0313438046894655D036A3D3E929
:108870000023FFF73DF900287FF4D0AC34A3D3E9FF
:10888000002340464946FFF751F900283FF47BAFEB
:10889000C4E4049B33B30D9BB3F1D46F22D82EA351
:1088A000D3E9002340464946FFF72CF9A0B14946D9
:1088B0004046FFF745F9012838BF0120FEF72CFE9E
:1088C0000B9B8046894623BB01F100431090119316
:1088D000DDE91023CDE90823099B0D9A03F1D66346
:1088E0009B1A0993DDE90801B0EE480AF0EE680A28
:1088F000CDE9080101F094F8DDE9080153EC102BF3
:10890000FEF784FE53EC182BFEF7CAFC82468B461A
:108910008DE7CDE91089DBE711A3D3E90023FFF749
:10892000E7F8B2E700230A93139A179B1360FFF747
:108930006BBA652A3FF45FAB452A3FF45CAB012379
:10894000FFF794BBAFF300809535A094FFFFDF3FA6
:1089500035E5AF350000E03F0000C0FFFFFFDF411D
:108960009535A094FFFFCF3F0000F03F0000F07F5F
:108970000000E07FFFFF9F7C0000E03F0000F0BFB1
:10898000FFFFEF7F0A4601460248034B0068FFF7EE
:10899000F3B900BF04D7032070D70320164B73B57B
:1089A0001E68B46D0546FCB950200191FCF732FEFB
:1089B0000199B065024620B9104B11485721FCF7C8
:1089C00071FEC0E90044C0E90244C0E90444C0E9C2
:1089D0000A44C0E90C44C0E90E44C0E91044C0E9AF
:1089E0001244846104774462B26D0123284602B0C8
:1089F000BDE8704000F006B804D7032089A20B0040
:108A000080A30B00F0B508B9106888B10446204671
:108A100014F8015B0F4617F8016B1EB965B91560B4
:108A2000284605E0B542F6D1002BF0D11460037062
:108A3000F0BD1C460CE015B914F8013B0E4616F8C3
:108A4000015BAB42F7D1002BF3D0002304F8013CCB
:108A50001460EDE7012B2DE9F04701D0242B06D956
:108A6000FCF718FE162303600020BDE8F087DFF84E
:108A7000E4C00D462E4615F8014B14F80C7017F0A3
:108A80000807F7D12D2C32D12C780127B51C002BEB
:108A90005BD0102B09D1302C07D12C7804F0DF04E7
:108AA000582C4DD16C781023023507F1004808F19D
:108AB000FF384FF0000CB8FBF3F9664603FB198A48
:108AC000A4F1300EBEF1090F16D87446A34224DD7E
:108AD000BCF1000F1EDBB1451CD301D1A24519DB4F
:108AE00006FB03464FF0010C15F8014BE8E72B2C71
:108AF00004BF2C78B51CCAE7A4F1410EBEF1190FD2
:108B000001D8373CE2E7A4F1610EBEF1190F04D899
:108B1000573CDBE74FF0FF3CE6E7BCF1000F05DA1E
:108B200022230360464642B930469EE707B17642AB
:108B3000002AF9D0BCF1000F00D0691E1160F3E7E4
:108B40003024002BB1D10823AFE7302CA5D00A2365
:108B5000ABE700BF00A40B0013460A4601460248DB
:108B60000068FFF777BF00BF04D703202DE9F84363
:108B7000DFF8B8800646D8F800001F460D4691463B
:108B800000F0C6FB254B1C6834B9254C1C60254BF6
:108B900013B11B68C4F8883063681F2B07DDD8F851
:108BA000000000F0B7FB4FF0FF30BDE8F8834EB394
:108BB000D4F8880088B91C4B23B9D8F8000000F01D
:108BC000A8FBF0E74FF48470FCF724FD0028F4D0F4
:108BD0000023C0E94033C4F88800636840F823905C
:108BE00001229A4000EB8301D0F800311343C0F812
:108BF0000031022EC1F8807002BFD0F80431134357
:108C0000C0F804316368D8F800005A1C023362606F
:108C100044F8235000F07EFB0020C6E7ECE7032079
:108C200060E703200000000015560B0068D7032002
:108C30000369B3EB611F2DE9F0434FEA611200F1C4
:108C4000140445DD11F01F0104EB830604EB8205DB
:108C50000CD100F110072946B14234D39B1A9B0076
:108C6000EA1E964238BF0023234415E054F82270D0
:108C7000C1F12008CF4005F1040EA1467645F44627
:108C800015D89A1A9200043A0135AE4238BF002234
:108C9000A318A75007B104331A1BA3424FEAA2023C
:108CA00008BF0023026108BF4361BDE8F083DCF820
:108CB00000C00CFA08FC4CEA070749F8047B5EF890
:108CC000047BCF40DAE751F804CB47F804CFC3E781
:108CD0002346E1E7A0F13003092B02D82038C0B2C7
:108CE0007047A0F16103052B01D84738F7E7A0F1E1
:108CF0004103052B01D82738F1E700207047000019
:108D00002DE9F04F2DED028B89B008EE100A049387
:108D1000B44B1B68019318468B469046FEF7F3FF51
:108D2000019BDBF800200344824613F8013C0593C5
:108D3000931CC2F1FF2202F57F02FE32D1181F46BA
:108D400013F8010B00913028F8D0FFF7C3FF044659
:108D500000283AD1019952463846FEF7DCFF054615
:108D6000002868D117F80A0007EB0A06FFF7B2FFE0
:108D7000002862D03346187830281F4603F10103DB
:108D8000F9D0FFF7A7FF0123B0FA80F46409354654
:108D900000933A46164601323078FFF79BFF0028D1
:108DA000F8D1019952463046FEF7B5FF80B94DB96A
:108DB00006EB0A052A46164601323078FFF78AFF8D
:108DC0000028F8D1AD1BAD0004E000242546E0E703
:108DD000002DF7D1337803F0DF03502B3BD17378AC
:108DE0002B2B2CD02D2B2ED0711C4FF00009087886
:108DF000FFF770FF431EDBB2182B2CD8A0F1100236
:108E000011F8010FFFF766FF431EDBB2182B1DD9C7
:108E1000B9F1000F00D052421544CBF80010E4B174
:108E2000009B002B14BF00270627384609B0BDEC75
:108E3000028BBDE8F08F3E4625460124CAE74FF07D
:108E40000009B11CD3E74FF00109FAE70A2303FB3D
:108E50000202103AD4E73146DFE7F31B013B21461B
:108E6000072B0BDC18EE100A00F068FA044640B934
:108E70005D4B0246DE215D48FCF714FC01315B10BE
:108E8000EEE700F114094FF0000BCAF10103CDF831
:108E90000890CDF800B00693B74240D30298009BEB
:108EA00040F8043BA0EB0900801046012061184601
:108EB00000F036FB301AD8F80060B04263DD871B43
:108EC0003946204600F0DAFE8246A8B17B1E5911D1
:108ED00003F01F0259F821104FF0010A0AFA02F2BA
:108EE0000A4209D0534505DDB91E204600F0C6FEF2
:108EF000002845D14FF0020A39462046FFF798FE78
:108F00003D44D8F80830AB424CDA18EE100A21463E
:108F100000F054FA149A00231360A32785E7731E08
:108F2000059A039316F8013C934219D0BBF1200F28
:108F300007D1029B009A43F8042B0293002300936D
:108F40009B4616F8010CFFF7C5FE009B00F00F00D2
:108F500000FA0BF0034300930BF1040B039B0DE0AD
:108F6000039B069A1344BB42E0D31846019907932A
:108F70005246FEF7D0FE079B0028D7D11E468BE74E
:108F80004FF0030AB8E70ADA371A214618EE100A3A
:108F90003A4600F02FFCED1B044600F114094FF097
:108FA000000AAEE7D8F80400A84272DD451BAE42C5
:108FB00036DCD8F80C30022B2AD0032B2CD0012B16
:108FC0001CD1AE421AD1012E12D1049AD8F8043025
:108FD000136001232361C9F80030149B62271C60D1
:108FE00023E700BF98A50B0000A50B0011A50B00FF
:108FF000711E204600F042FE0028E6D118EE100A4D
:10900000214600F0DBF9149A0023136050270CE787
:10901000159B002BF2D1D8E7159B002BD5D1EDE79E
:109020006F1EBAF1000F31D127B13946204600F04A
:1090300025FE82467B11012159F8233007F01F07D6
:1090400001FA07F71F422946204618BF4AF0020AD4
:10905000761BFFF7EDFDD8F804500227BAF1000F98
:1090600048D0D8F80C30022B15D0032B17D0012B89
:1090700009D11AF0020F06D0D9F800004AEA000A16
:109080001AF0010F0ED147F0100733E04FF0010A3C
:10909000D0E70127E2E7159BC3F101031593159B68
:1090A000002BF0D0D4F810B004F114034FEA8B0A6F
:1090B00003EB8B014FF0000C184653F8042BB2F170
:1090C000FF3F1CD001320260022F04F114033FD194
:1090D000D8F80020013AB2420AD17111012253F8A6
:1090E000213006F01F0602FA06F61E4218BF174688
:1090F00047F02007149B1C60049B1D6095E6994275
:1091000043F804CCD8D8A3689B4519DB616818EEF6
:10911000100A013100F012F9814618B91A4B0246C3
:109120008421A8E62269023204F10C0192000C307D
:10913000FEF765FD214618EE100A00F03FF94C4697
:1091400023695A1C04EB8303226101225A61BBE7A5
:1091500022695A450BDD01212046FFF769FDD8F849
:1091600008300135AB42FFF6D0AE0127C0E716F05C
:109170001F06FAD05344C6F1200653F8040C00F041
:10918000CFF9B042E7DBF0E700A50B00C2F108021F
:10919000920070B5C2F120064368046803FA06F530
:1091A0002C43D340046040F8043F8842F4D370BDA0
:1091B00030B50368013311F8014B14B90360012085
:1091C00030BD13F8012BA2F14105192D98BF2032B3
:1091D000A242F0D00020F3E72DE9F04F0B685E11BA
:1091E00002EB860613F01F0387B018BF0436002574
:1091F000371F904602680193824646F8045CB946E0
:109200003C460295AB465178531C039341B3084644
:1092100005920491FFF75EFD00284FD10499059A4D
:10922000202918D8029B9B4513DD4C4506D2072DFB
:1092300004DC2A4649462046FFF7A8FF444550D99A
:109240000023A4F1040944F8043CCDF808B04C46CE
:109250001D46039AD7E7292956D10232CAF80020C1
:10926000BBF1000F50D04C4506D2072D04DC2A4636
:1092700049462046FFF78AFF444534D9A8F1040245
:10928000234653F8041B42F8041F9F42F9D23B1BAC
:1092900023F0030304330134033EB44288BF0423A4
:1092A0004344002243F8042B9F42FBD23B681BB986
:1092B000474527D101233B60052026E00135082DD5
:1092C0000BF1010B06DD4445C3D9002344F8043CEF
:1092D0000125043C226800F00F0040EA02122260DF
:1092E000B7E70825B5E7019B002BDFD04FF0FF3231
:1092F000C3F1200322FA03F356F8042C1A4046F86F
:10930000042CD3E7043FD1E7042007B0BDE8F08F79
:1093100070477047704782B001B901A942B14BB1A3
:1093200013780B601278101E18BF012002B070472E
:109330001046FBE76FF00100F8E7000070B5466AE1
:1093400004460D4676B91020FCF764F902466062C7
:1093500020B9184B18486621FCF7A4F9C0E901664A
:109360000660C660666AF36883B1636ADB6853F8B7
:109370002500B8B9012101FA05F6721D92002046B8
:1093800000F09DFC60B1C0E901560EE021220421ED
:10939000204600F094FC636AF060DB68002BE4D1A7
:1093A000002070BD026843F825200023C0E9033384
:1093B000F7E700BF89A20B00ACA50B0070B5466AA9
:1093C00005460C4676B91020FCF724F9024668627F
:1093D00020B9094B09488A21FCF764F9C0E9016604
:1093E0000660C6603CB16B6A6268DB6853F82210A5
:1093F000216043F8224070BD89A20B00ACA50B0090
:109400002DE9F0410D6907460C461E4601F1140C8A
:109410000020DCF8003099B202FB01611E0C0B0C3D
:1094200002FB063389B2013001EB034185424CF85F
:10943000041B4FEA1346ECDC0EB3A368AB4219DC05
:10944000616838460131FFF779FF804628B9024646
:109450000C4B0D48B521FCF725F92269023204F1C5
:109460000C0192000C30FEF7CAFB21463846FFF78C
:10947000A5FF444604EB850301355E612561204666
:10948000BDE8F08100A50B00ACA50B002DE9F84369
:109490000C4615461F4609220833064693FBF2F395
:1094A000002101229A4209DB3046FFF747FF40B90D
:1094B0000246194B1948CE21FCF7F4F8520001314D
:1094C000F0E7089B4361092D4FF00103036116DDAE
:1094D00004F10909C8462C4418F8013B0146303B09
:1094E0000A223046FFF78CFFA045F5D1A5F108040C
:1094F0004C442D1B6319BB4204DBBDE8F8830A34DE
:109500000925F6E714F8013B0146303B0A223046B4
:10951000FFF776FFEEE700BF00A50B00ACA50B0040
:10952000030C1B04D3B90004102310F07F4F04BFB9
:109530000002083310F0704F04BF0001043310F034
:10954000404F04BF80000233002805DB10F0804F3D
:1095500003F1010308BF2023184670470023E4E706
:10956000036813F0070201460BD0DA0723D49807EB
:1095700049BF5B089B0801200B605CBF0B600220A9
:10958000704798B2A8B91B0C1020DAB20AB908309B
:109590001B0A1A0704BF1B0904309A0704BF9B0863
:1095A0000230DA0703D45B0800F1010005D00B603C
:1095B00070471046E9E70020704720207047000000
:1095C00010B50C460121FFF7B9FE024628B9054B3C
:1095D00005484FF4A071FCF765F80123446103616D
:1095E00010BD00BF00A50B00ACA50B002DE9F04F8E
:1095F00091460A69D9F810309A42B8BF0B460C461A
:10960000BCBF4C4699462769D9F810A0A368616889
:1096100007EB0A06B34285B0B8BF0131FFF78EFEF3
:1096200030B90246444B454840F25D11FCF73AF828
:1096300000F1140505EB86082B460022434521D393
:1096400004F1140303EB870709F1140303EB8A0207
:1096500002923A1B153A22F00302043204F115017A
:109660008F4238BF04220192029A03939A420CD887
:10967000002E03DD58F8043D002B5AD0066105B0DA
:10968000BDE8F08F43F8042BD8E7B3F800A0BAF197
:10969000000F24D004F1140EA9464FF0000C5EF820
:1096A000042BD9F800101FFA82FB89B20AFB0B11B8
:1096B0004FEA124BD9F8002061444FEA124C0AFBE2
:1096C0000BC202EB114289B241EA0241774549F8E7
:1096D000041B4FEA124CE2D8019A45F802C0039AE3
:1096E000B2F802900433B9F1000F20D0296804F1D8
:1096F000140CAE464FF0000ABCF800B0BEF80220D1
:1097000009FB0B22924489B241EA0A414EF8041B3C
:109710005CF8042BBEF80010120C09FB021101EBDF
:109720001A4167454FEA114AE6D8019AA950043513
:109730009AE7013E9CE700BF00A50B00ACA50B001B
:109740002DE9F843154612F0030206460F4607D0EE
:10975000254C013A002354F82220FFF751FE07461A
:10976000AD103DD0746A7CB91020FBF753FF024660
:10977000706228B91D4B1E484FF4D771FBF792FF5A
:10978000C0E901440460C460D6F82480D8F80840D9
:109790004CB940F271213046FFF712FF0023C8F8A0
:1097A0000800044603604FF00009EB070AD539466C
:1097B00022463046FFF71AFF394680463046FFF70B
:1097C000FDFD47466D100BD0206838B92246214672
:1097D0003046FFF70BFF2060C0F800900446E4E736
:1097E0003846BDE8F88300BF20A70B0089A20B0014
:1097F000ACA50B002DE9F0470C464968236903EB43
:109800006218A368074691464FEA621A08F10106FA
:10981000B3420BDB3846FFF791FD054648B90246D7
:109820002A4B2B4840F2D911FBF73CFF01315B007A
:10983000EEE7002300F1140100F110021846534531
:1098400037DB20692AEAEA7A04F1140319F01F09C8
:1098500001EB8A0103EB80002FD0C9F1200E8A466C
:109860004FF0000C1A6802FA09F242EA0C024AF8B8
:10987000042B53F8042B984222FA0EFCF2D8031B57
:10988000153B23F00303043304F11502904238BF63
:10989000042341F803C0BCF1000F01D008F1020617
:1098A000013E38462E612146FFF788FD2846BDE877
:1098B000F08742F8040F0133C1E7043953F8042B51
:1098C00041F8042F9842F9D8EAE700BF00A50B0041
:1098D000ACA50B0030B502690C69121B0ED100F16A
:1098E0001403143103EB840001EB840150F8045D90
:1098F00051F8044DA54203D005D30122104630BDD6
:109900008342F3D3FAE74FF0FF32F7E72DE9F84F40
:109910000C460646114620469046FFF7DBFF051E23
:1099200010D129463046FFF709FD30B93A4B0246BF
:1099300040F232213948FBF7B5FE0123C0E9043576
:10994000BDE8F88FA4BF4346A0463046D8F80410BF
:10995000A6BF1C4600250125FFF7F0FC20B92E4BC1
:1099600002464FF41071E5E7D8F810702669C5601B
:1099700004F1140908F1140500F1140E05EB870C2D
:1099800009EB860608F11002F246002159F8043B63
:1099900052F804BF1FFA83F811FA8BF11B0CA1EBEC
:1099A0000808C3EB1B4303EB28431FFA88F819147C
:1099B0004E4548EA03434AF8043BE7D8331B153BBE
:1099C00023F0030304331534A64238BF04231D4497
:1099D00073449E462E4666450ED30CF10302521B7D
:1099E00022F00302033DAC4538BF00221A4452F86E
:1099F000043D7BB10761A3E756F8048B11FA88F2A6
:109A0000141404EB184492B242EA04424EF8042BB8
:109A10002114E0E7013FEAE700A50B00ACA50B002D
:109A200082B08DED000B019B12491940A1F15071DC
:109A3000002905DD00220B4643EC102B02B07047D5
:109A40004942B1F1A07F4FEA21504FF000024FF0A0
:109A5000000304DA4FF4002141FA00F3ECE7A0F12F
:109A600014011E29DABF4FF0004020FA01F1012154
:109A70000A46E1E70000F07FF8B5056900F1140738
:109A800007EB85052E1F55F8044C2046FFF748FDCF
:109A9000C0F120030A28DFF87CC00B6014DCC0F1A1
:109AA0000B0E24FA0EF1B74241EA0C0334BF55F80D
:109AB000081C0021153004FA00F021FA0EF140EAEA
:109AC000010243EC102BF8BDB7423ABF55F8081C11
:109AD000A5F1080600210B3817D0C0F1200C04FABC
