:02000002B0004C
:1040000000400B00C4BD0B00000006000C000502C0
:084010000401A30F00000000F1
:04401800A4B00B0045
:1040200009480A49884208B505D0094A824202D0A7
:10403000121A04F086FF0748074A0021121A04F0FA
:104040008EFF014808BD00BF18D20320B8BB0B008B
:10405000FCD3032000D40320F1E7032070B5074E02
:10406000074C03F045F8A41BA4080025AC4200D17E
:1040700070BD56F8043B98470135F7E75CBB0B0071
:1040800084BB0B0000F07ABA08B500F0C7FBBDE8AE
:10409000084002F0E5BF02F09DB802F09BB802F0C4
:1040A000A1B802F09FB80078B0FA80F040097047DC
:1040B000012303707047000010B5064C00212078E2
:1040C00004F0DDF8012121700846BDE8104004F03D
:1040D000D6B800BF98D7032010B5064C0021207831
:1040E00004F0CDF8012121700846BDE8104004F02D
:1040F000C6B800BF98D703200EB403B503AB0021A8
:1041000053F8042B019302F076FE02B05DF804EB45
:1041100003B07047000000002DE9F04F054687B05E
:1041200008460C4604F091FF2946064603A804F011
:1041300066FF4349434D03A805F0E4FD04F0E9FEA2
:10414000214605EB402004F041FFB6F5007F4AD23E
:1041500003F094FB2A463C493C4CDFF804A13C4F59
:10416000FFF7CAFF28463B4905F0CCFD0FF2B8091E
:10417000D9E9008900250026DFF8E8B0DBF8003037
:10418000AB4226DD52463449CDF804A002F042F895
:104190003049002005F0B6FD019B1B68062B0AF193
:1041A000040A23D804F0B2FE32463B4651EC100B11
:1041B00004F0F8FC1EA3D3E9002304F013FAC4E9C9
:1041C00000012449002005F09DFD083440BBCBF8D8
:1041D0000050224C0021207804F051F802200121E7
:1041E000207004F04CF807B0BDE8F08F113B042BB1
:1041F0000AD804F08BFE32463B4651EC100B04F01B
:10420000D1FC42464B46D8E704F080FE32463B469E
:1042100051EC100B04F0C6FC07A3D3E90023CCE754
:104220000135A9E7AFF3008004560E2DB29DFE3F85
:1042300044FAEDEBC039CB3FEFC9C342AD69E43F6F
:10424000B8B00B0099D70320C0B00B00E8D403200E
:1042500000408F40C4B00B00C7B00B0098D70320BC
:1042600068D603201CD203202DE9F041DFF86880D6
:1042700001F074FDD8F80060861B642E054621D934
:10428000114C03F0FBFA1149FFF736FF00272078A5
:10429000002103F0F4FF38460121277003F0EFFFFF
:1042A0000B4BB3FBF6F60B4B20781E603946C8F873
:1042B000005003F0E4FF042020700121BDE8F0412C
:1042C00003F0DDBFBDE8F08198D70320DEB00B001E
:1042D00080EE36006CD4032004D4032000000000DC
:1042E0002DE9F04F2DED028B9DB0CDE90232504FFC
:1042F00005468B468A46002400264FF000084FF002
:104300000009029B9C4217DABAEC027B424651EC50
:10431000170B4B468DED007B04F0AAFD08B1DDE9DB
:104320000089DDE9000132463B4604F083FD08B117
:10433000DDE900670134E4E732463B464046494642
:1043400004F04EF938A3D3E9002304F001FB324610
:104350003B4604F047F94FF0000A41EC180B544675
:10436000029B9A4512DCFBE8020153EC182B04F087
:1043700061FD40B1039A1CAB03EB840352F82A2081
:1043800043F8602C01340AF1010AE9E703F076FAF8
:10439000284942464B46FFF7AFFE03F06FFA264925
:1043A00032463B46FFF7A8FE03F068FA2349FFF7C1
:1043B000A3FE6CB300231E462F1D1CAA02EB830232
:1043C00052F8602C45F8362004AA02EB83000268FC
:1043D00050F8041F01398A4203F10103F7D001327A
:1043E000A34247F8362006F101020FDDDFF85480C2
:1043F0000024B4420CD003F041FA57F8343055F899
:1044000034204146FFF778FE0134F2E71646D4E740
:104410000B4B032220461A701DB0BDEC028BBDE889
:10442000F08F00BFAFF30080333333333333D33FE8
:1044300000005940ECB00B000AB10B0027B10B0093
:1044400098D7032065B10B0008B50121002003F0C7
:1044500005FF0121084603F001FF0121022003F0BE
:10446000FDFE0121032003F0F9FE0121042003F0E9
:10447000F5FE0121052003F0F1FE0121062003F0E5
:10448000EDFEBDE8084001210A2003F0E7BE000070
:1044900000B51B4889B000F0ACFB28B1184809B042
:1044A0005DF804EB00F091BD03F0E8F91549FFF762
:1044B00023FE1549684602F048FB02F040FD0A223F
:1044C000014604A802F067FB04A9684602F0ADFBB0
:1044D0000E4B01680A481A4600F090FC04A802F04E
:1044E000E9FA684602F0E6FA054800F082FB20B1DE
:1044F00003F0C4F90649FFF7FFFD09B05DF804FBBE
:1045000070D4032073B10B0088B10B0095B10B0080
:104510009AB10B0010B502F023FD172801D00B282B
:1045200010D1094B1A6882420CD0084C1860002147
:10453000207803F0A4FE012121700846BDE8104058
:1045400003F09DBE10BD00BF18D2032098D70320F2
:1045500038B5046805467CB16368013B63605BB9AC
:10456000236820469B689847A368013BA3601BB95A
:1045700023682046DB689847284638BD70B54C4D07
:1045800090B0FFF761FF0A200021287003F077FE4A
:1045900001F0F8FD10B901F0EDFDF9E701F0F2FDD1
:1045A00001262878012103F06AFE314630460024B6
:1045B0002E7003F064FE0321082003F04FFE4FF03D
:1045C000FF333C4900943246082003F07FF93A4A11
:1045D0003A490AA801F0D8FA0AA906A802F032FB63
:1045E000374B069A1B7837498DF8003002A83C23D8
:1045F00002F0DCFE03A8FFF7ABFF06A802F05AFAB0
:104600000AA906A802F01EFB06992F4840F25B7229
:1046100000F0FDFA06A802F04DFA23462246CDE945
:1046200000442A492A4801F0BDFD23462246CDE92F
:1046300000442849284801F0B5FD2B780693022252
:10464000234606A9254801F08DFD03F017F92449FA
:10465000044606A802F079FA02F071FC0A2201462B
:1046600002A802F098FA02A906A802F0DEFA1D4B91
:10467000016815481A4600F0C1FB1B490246204656
:10468000FFF73AFD02A802F015FA06A802F012FAA6
:104690000D4800F0AEFA40B11449154A0A4800F03E
:1046A00038FC1449084800F0D8FD10B070BD00BFB8
:1046B00098D7032069420B00AEB10B0028D7032026
:1046C00000D40320C2B10B0070D4032019410B00A9
:1046D00006B20B00B9400B00C8B10B00D3B10B0000
:1046E0008DB10B0095B10B00D9B10B00F6B10B00E9
:1046F000EAB10B0000B20B0010B5164B30221A6065
:10470000154B00228CB01A70044602F055FC05903F
:1047100002F04AFC049002F023FCA11CDDE9043203
:10472000CDE9004102900D4908A802F0A5FA0C4B12
:10473000089A1B780B498DF8003006A83C2302F03C
:1047400035FE07A8FFF704FF08A802F0B3F90CB084
:1047500010BD00BF1CD2032099D703200DB20B005F
:1047600001D4032060B20B002DE9F0418AB0054668
:104770000E4603F083F82149214FFFF7BDFC214984
:1047800002A802F0E2F9002405F10408B44210DAAC
:1047900058F8343055F83420394606A802F06CFA3F
:1047A00006A902A802F021FA06A802F083F9013452
:1047B000ECE7154B029A1B7814498DF8003006A8D7
:1047C0003C2302F0F3FD07A8FFF7C2FE104C029A4B
:1047D0001049114800F09DFB0F4800F0F6FB2078CF
:1047E000002103F04CFD05200121207003F047FD5E
:1047F00002A802F05FF90AB0BDE8F08169B20B00CF
:1048000090B20B0072B20B0001D403209FB20B00D8
:1048100098D7032006B20B0070D403207FB52A4C32
:10482000FFF778FEFFF734FE2578012D0CD100212B
:10483000284603F024FD06202946207003F01FFDC2
:1048400002F0A6FBFFF758FF2378022B16D11F4B6F
:104850001F4A20491B682048FFF742FD1F4B186084
:1048600003F00CF8054602F07BFB064602F084FBE1
:104870001B490346B21C2846FFF73EFC2378032B56
:1048800004D1164B14481968FFF76EFF2378042BE8
:1048900018D102F0F3FF1349FFF72EFC124B134916
:1048A0001A68684601F0AEFC114912486A4600F0E9
:1048B00030FB2078002103F0E2FC0520012120706C
:1048C00003F0DDFC04B070BD98D703201CD2032098
:1048D00068D60320E8D4032008D4032068D403203A
:1048E000AFB20B00C9B20B006CD40320E7B10B00D0
:1048F000DDB20B0070D4032030B5164B16491748B3
:1049000000241C70164B85B001251D70154B0193BA
:104910001E23009302944FF4007340F25B7200F088
:104920006FF8114B11491C611A1D1A60104A5A6028
:10493000C3E902441D75084601F0F0FF0B490D481C
:1049400001F05AF82146284605B0BDE8304001F094
:1049500075BB00BF00D40320E3B20B0070D403206A
:1049600001D40320D9400B00D0D40320A0E10320C0
:104970001000030028D7032091F85C3010B50446DE
:10498000016013B1886D01F009FA204610BD10B521
:10499000036893F85C20044612B1986D01F006FAA2
:1049A000204610BDF8B51F469DF8243004460D463C
:1049B00016462BB1012380F85C30583001F0E6F93F
:1049C000089B23630023636306B1A66425B12946CF
:1049D00004F1380002F0CDF8069B2365079BE069DF
:1049E000A4F84C70FF2BB8BFFF23A4F8543008B1D3
:1049F000FFF755FBB4F85400FFF74FFBE061F8BD3B
:104A00002DE9FF4104460025174698460E4603F05F
:104A1000E3FA0D49E56104F1380002F096F89DF8DB
:104A2000303003930B9BA564CDE901830A9B00936F
:104A3000204684F85C503B462A463146FFF7B2FFD9
:104A4000204604B0BDE8F08164B10B0010B5044607
:104A5000204603F01DFA0028FAD0204603F026F87D
:104A6000C0B210BD2DE9F04705468846FFF7EEFFBE
:104A7000EB691870EB6993F800A04FF001090AF098
:104A8000F00A00274C462846FFF7E0FF2646EB6970
:104A9000985500F07F0313FB09F31F44013403060C
:104AA000A4B2BFB24FEAC919EDD4631EBAF1300FF8
:104AB00088F800301ED12846FFF7C8FFEB6918556B
:104AC0002846FFF7C3FFF41C0236B6B2EB69A4B266
:104AD00098550226B6B2BE420ED22846FFF7B6FF60
:104AE000B5F85430A34284BFEB6918550134A4B221
:104AF0000136EFE70026EDE7B5F85430A3422CBFAE
:104B000020460020BDE8F0872DE9F34115461E46FA
:104B10001A4607460023964602A802F07F0CBEF113
:104B20007F0F03F10104034488BF4CF0800CBEF1F9
:104B30007F0F4FEAD212E4B203F804CC1ED8C4F1BE
:104B40000403C4F10500E954224601A9284405EBF9
:104B5000030804F0F6F9721C22444146384602F07C
:104B600090FF054601F0FAF8621C78623244A8B260
:104B7000131A5842584102B0BDE8F0812346CAE7F3
:104B800013B50446014601A8FFF7F6FEE369E022EB
:104B90001A70E36900225A70E1690222204602F08D
:104BA00070FF204603F0CEF901F0D8F8C4E90900FF
:104BB00001A8FFF7ECFE02B010BD0233F0B50546C8
:104BC00098B20023CE5C9CB256B1B5F854C084456F
:104BD00003F1010704D9441C16543B46A0B2F1E787
:104BE00099B2411A0A44210A02F8021C02F8013C57
:104BF000F0BD38B5044603F06DF8002814BF012558
:104C0000002502D1204603F09DF9284638BD70B535
:104C100004460E461546FFF7ECFF10B12046FFF79D
:104C2000AFFF314604F1380001F0A3FF0023A36475
:104C3000A4F84C5070BD00002DE9F04788B0044640
:104C4000DDF840809DF850A0894617461E46FFF7C4
:104C5000D0FF0546002840F0CD80214601A8FFF78F
:104C60008BFEA16C002940F08880B4F84C20A16B29
:104C70002B46204602F0B0FF00287AD0012323847F
:104C80009DF85430E269042B5B4B40F0818018683A
:104C900099889B79ADF80C108DF80E300290C2F80F
:104CA00005009DF80E30BDF80C10A2F80910D37263
:104CB0000C23B8F1000F00F081809DF848009DF8AA
:104CC0004420400140EAC20040F00600C0B2BAF100
:104CD000000F01D100F0FD001FB1002E70D140F097
:104CE0008000E269D054226DE169581C12120A5406
:104CF0009A1CE169206D88540333E26949462046D5
:104D0000FFF75BFF0346B8F1000F0BD0E2694146A5
:104D10002046FFF752FFE269139903462046FFF74A
:104D20004CFF034667B1E26939462046FFF745FF6D
:104D300003462EB1E26931462046FFF73EFF0346A7
:104D4000053BE2699BB210212046FFF7DDFE01F032
:104D500005F8C4E909004FF47A76204603F098F884
:104D600088BB00F0FBFFA36AC01A236D734398420F
:104D7000F3D9204603F0E6F835E002A802F014FD6E
:104D8000B4F84C202B4602A9204603F005F873E73F
:104D9000D3F80700D3F80B10DB7B0DF1080CACE85F
:104DA00003008CF8003002AB03CBC2F80500C2F858
:104DB00009109CF8003053730E237AE7022086E72F
:104DC00040F0C0008DE702A92046FFF74BFE042803
:104DD000CFD1E369DE78002ECBD100F0BFFF0125F3
:104DE000A06284F82C6001A8FFF7D1FD284608B026
:104DF000BDE8F0870025F9E7F1B20B0010B54FF0E0
:104E0000040C86B00124CDE9044C0024CDE9024411
:104E1000CDE90044FFF710FF06B010BD2DE9F74FB4
:104E2000DDF83C809DF834509DF8389004468B4660
:104E300016461F46FFF7DDFE8246002851D0214668
:104E400001A8FFF799FDB4F85420E069002104F0AF
:104E500086F80523E26959462046FFF7AEFE6B1E31
:104E6000012B15D8218CE369013189B22184090A0B
:104E70001954421CE369218C92B20230995480B2D9
:104E8000B8F1000F04D0238C5A1C2284A8F80030FB
:104E900000210B188F42E2699BB20AD9B4F854C0C2
:104EA0009C4506D916F801C002F803C0013189B249
:104EB000EFE79DF8301000290CBF30213121B9F106
:104EC000000F01D041F00801022D0ED141F0040184
:104ED000053B9BB22046FFF717FE824601A8FFF76D
:104EE00056FD504603B0BDE8F08F012D08BF41F0DC
:104EF0000201EDE71FB5089C0394002402949DF87D
:104F00001C4001949DF818400094FFF787FF04B0FF
:104F100010BD30B587B0044610460591049204F0E8
:104F200094F800250346CDE90155DDE904210095FB
:104F30002046FFF7DFFF07B030BD73B504460E46CD
:104F4000FFF757FE0546C8B1214601A8FFF714FD3B
:104F5000E36962221A70E36902225A70E369320A35
:104F60009A70E369DE70E1690422204602F089FD4F
:104F7000051E01A818BF0125FFF709FD284602B04C
:104F800070BD73B504460E46FFF733FE0546C8B143
:104F9000214601A8FFF7F0FCE36972221A70E36969
:104FA00002225A70E369320A9A70E369DE70E1699D
:104FB0000422204602F065FD051E01A818BF012548
:104FC000FFF7E5FC284602B070BD2DE9F04F2DED4E
:104FD000028B87B000AF0446FFF70BFE8146F8B1A5
:104FE000214607F11400FFF7C7FC00F0B7FE236D60
:104FF0004FF47A725343A26A821A9A42064603D841
:10500000626A821A934221D294F82C307BB12046F6
:1050100002F098FF4FF0000907F11400FFF7B7FC0A
:1050200048461C37BD46BDEC028BBDE8F08FE269F7
:10503000C0211170E2695370E1690222204602F03A
:1050400020FDC4E90966012384F82C30204602F0D3
:105050001FFF0028E0D007F113012046FFF702FDF3
:1050600083460028D8D0E369A662197801F0F002DF
:10507000302A7FD1D4F830A0BAF1000FCCD097F805
:1050800013C06A4608EE102A03EB0C02517895789B
:1050900005EB0125ADB205F108026946D208A1EB86
:1050A000C20295460CF10302FA6003EB020E0DEB0F
:1050B00005026846C7F808D07A60D7E901218A421C
:1050C00006D00A461EF8018B02F8018BBA60F4E79D
:1050D0000022425593F80080F96808F00608ABEB0F
:1050E0000C02033AB8F1020FA2EB0502294425D1C4
:1050F00013F801E01944023A91F801B00CF10501EE
:10510000294419440BEB0E2BD047E36940221A7057
:10511000E3691FFA8BFB83F80180E3694FEA1B22E6
:105120009A70E36983F803B0E1690422204602F033
:10513000A8FC666218EE103A9D466DE7B8F1040FC0
:1051400015D113F801E01944023A91F801B00CF1BD
:105150000501294419440BEB0E2BD047E36950227B
:105160001A70E36902221FFA8BFB5A70D5E71944C3
:10517000D047DFE7502A08D19A78D97801EB02218D
:1051800089B22046FFF7D9FE46E7402A12D1626B6A
:10519000002A3FF441AFBBF1040F7FF43DAF11F0A3
:1051A000060F7FF439AF9978D87800EB012080B2F0
:1051B000904731E7602A08D19A78D97801EB02212B
:1051C00089B22046FFF7DDFE26E7702ADFD0902A5D
:1051D0003FF422AFC02A0AD1D0221A70E36900221C
:1051E0005A70E1690222204602F04BFC14E7D02AF3
:1051F00004BF002384F82C300EE7F7B504460F46B1
:105200001646FFF7F6FC054610B3214601A8FFF746
:10521000B3FB238C01339BB2EBB12384238CE26973
:105220001B0A5371E369228C9A71E269072339469C
:105230002046FFF7C2FCE3691E54043883B2E269DA
:1052400082212046FFF760FC054601A8FFF79FFB7F
:10525000284603B0F0BD0123DFE70022FFF7CDBFF2
:105260000160704770470023F0B51C460568ED5C8F
:105270002E2D00D0BDB91D1B8D5402F1010C264608
:105280000A44B342076804DDBF5D02F8017F0136BE
:10529000F7E79C42C8BF0025FC5C2E2C08BF0133F9
:1052A00005EB0C021C4605682D5D0133002DDDD198
:1052B0001046F0BD38B50B46054622EAE2721846A4
:1052C000002103F04CFE0124014644710C222846C3
:1052D000FFF7C9FF00230B5401444B708C70CB7057
:1052E0000C7138BDB0B582B0054600AF00680C4601
:1052F00003F0ABFE00F1190323F00703ADEB030D40
:1053000000F11202694628467A60FFF7D3FF23684E
:105310007A68DB68694620469847236820461B6CFC
:1053200098470837BD46B0BDF0B589B01C460F9B05
:105330001668042B15461FD1721C2A60B31C815DB0
:105340002B60F71C825C2F600436C35C2E60012545
:10535000C05D84F804510E9DC4F80051009003AD67
:1053600002A802F015FA0FCD04F586740FC42B685D
:105370002370202009B0F0BD33441360F9E72DE914
:10538000F04700252B4602F1FF3E4FF02E089542D4
:105390001DD24C5D3F2C01EB050720DCE61876455D
:1053A0001FD81BB1066806F803800133BA460026F1
:1053B000A64206EB030C03DB234401342544E6E755
:1053C00007681AF8019F07F80C900136F0E70368A8
:1053D0001A44002302F8013C2020BDE8F087262073
:1053E000FBE72320F9E72DE9FF410A9C0025A542B0
:1053F00025D0166810F8068008F0C00CBCF1C00F6C
:1054000000EB060E06F1010720D117609EF8004060
:1054100002361660C25D240204F47C5414448C42AB
:1054200002940ED81B682B440393C5F1FF0300932D
:1054300002AA03ABFFF7D7FF002804DB441920467C
:1054400001E06FF0210004B0BDE8F08105F1010C2E
:105450001760B8F1000F05D11B689EF800205A555F
:105460006446ECE7875D1E6877556546BFE713B570
:10547000FF240094FFF7B7FF02B010BD2DE9F047FD
:105480000546ADF51A7DFF20884614461E4600F0FD
:10549000A1FE0490B8B104AB224641462846FFF76E
:1054A000E6FF10F1220F07D1049800F09BFE2220A6
:1054B0000DF51A7DBDE8F08700F08CFE059020B94F
:1054C000049800F08FFE2720F2E704990391084624
:1054D00003F0BBFD0399024605A8FFF750FF0599AD
:1054E000304600F087F90746059800F07BFE2268F9
:1054F000531C2360911CA85C2160E95C531D01EBE7
:105500000021A818236090F804C0901D2060EB5C77
:105510001B0403EB0C6302F1070CC4F800C0285C09
:1055200003EB002302F10800206015F80C90994469
:1055300002F1090323600A32285C226015F803A0F7
:1055400001290AEB002A12D1781C77D0394630465F
:1055500000F04BF9CDE9009A034622464146284621
:10556000FFF7E2FE049800F03DFE2020A0E70529A9
:1055700064D1791C62D03946304600F036F90023F8
:1055800080F804313946304600F02FF9C0F8009118
:1055900023680693534423602846CDF800A004AB4B
:1055A00006AA4146FFF71FFF10F1220F05463FF400
:1055B0007BAF08AC204600F0E1F9049907946A1E1D
:1055C00007A8FFF7DCFE2146304600F02BF9431C0C
:1055D00025D14FF48072214651A803F0B2FCD4F8D3
:1055E0000031919394F804318DF848320DF5967C92
:1055F000144B9393BCE80F0094AD0FC5DCF800305A
:105600002B7051A9D4F820319993304600F057F906
:1056100051A800F0E7F92146304600F003F90146B1
:10562000304600F0E2F839460546304600F0DDF835
:10563000C0F82051204600F0D5F993E7524422608B
:1056400090E700BF3CB40B00F0B50379467906EB58
:10565000032613680C3313600025AE4216D013687E
:10566000C45C2CB104F0C007C02F06D10233136014
:105670001368053313600135EFE73F2C0CD8013375
:1056800023448B421360EAD92320F0BD1368013113
:105690008B42F9D82020F8E72620F6E72DE9F843D9
:1056A000002405464FF00108A146284600F0BCF84A
:1056B000A0422FDD2146284600F097F8D0F820318F
:1056C00033B32146284600F090F8D0F8203193F803
:1056D0000431EBB12146284600F087F82146D0F886
:1056E0002071284600F081F807F5867700F5867668
:1056F0000FCF0FC63B6833702146284600F075F87F
:10570000214680F80481284600F06FF8C0F8209107
:105710000134CAE72020BDE8F8832DE9F74391461C
:1057200090F902208378002A0646884628DA9B07EB
:1057300022D4C57815F00F0520D18379C77917EBEE
:1057400003271DD001AA0195FFF77EFF20280446FC
:105750000ED14B4601AA41463046FFF78FFE202866
:10576000044605D10135AF42F3D14846FFF796FF15
:10577000204603B0BDE8F0832524F9E72324F7E7AA
:105780002024F5E7F0B54A1E0D460446034600F511
:10579000807112F8010F03F8010B8B42F9D1D5F893
:1057A0000031C4F8003195F8043184F8043105F56E
:1057B00086770FCF04F586760FC63B683370D5F831
:1057C0002031C4F82031F0BD70B50446054600F51F
:1057D0009266284605F5927500F0D0F8AE42F8D1F1
:1057E0000023C4F89034204670BD4FF4927303FB3D
:1057F000010070472DE9F041D0F8906405468846D5
:1058000000244FF49277A64207DD414607FB04507F
:1058100003F0EBFB18B10134F5E74FF0FF342046FD
:10582000BDE8F081FFF7E6BFD0F89004704770B58F
:10583000D0F89044A4B1D0F800510121002200F525
:1058400080734FF492768C4208DD06FB01F0185805
:10585000A8423CBF0A4605460131F4E7104670BD38
:105860004FF0FF30FBE74FF4927303FB0101D0F8D8
:105870009024002330B51C46934209DAD0F8205119
:105880008D4208BFC0F82041013300F59270F3E764
:1058900030BD38B504460D46FFF7E5FFD4F8901447
:1058A0004FF49270013900FB014100FB0540FFF706
:1058B00069FFD4F89034013BC4F8903438BD38B552
:1058C00004460D46FFF796FF431C08D04FF4927331
:1058D000294603FB0040BDE83840FFF753BFD4F82A
:1058E0009034042B06D12046FFF7A1FF0146204645
:1058F000FFF7CFFFD4F890344FF4927000FB0340D1
:105900002946FFF73FFFD4F890340133C4F89034B0
:1059100038BD2DE9FF416E4604460546B0460027D6
:10592000D4F89034BB420ADD284600F05CF8D5F884
:10593000003148F8043B013705F59275F0E7002582
:10594000D4F89034AB4208DD56F8043B1BB9294625
:105950002046FFF79EFF0135F2E704B0BDE8F08175
:1059600030B587B0044601AD684601F0E5FE0FCDC5
:1059700004340FC42B68237007B030BD38B500F570
:1059800084750446284601F0B7FE0023284623709C
:1059900084F80431C4F80031C4F820314FF0FF31ED
:1059A000FFF7DEFF204638BD73B500F58476044668
:1059B00030461546019101F09FFE01994FF4807227
:1059C000204603F05EFB00233046C4F8005184F803
:1059D0000431C4F820314FF0FF31FFF7C1FF2046FA
:1059E00002B070BD7047D0F80031002BC4BF03F186
:1059F000FF33C0F800317047F8B5044604300D4657
:105A000000F08CFF04F1500001F076FE0023E36605
:105A10006B68A360AB68E360EB6823616B69A361AB
:105A200005F120072B8BA3830FCF04F124060FC6AB
:105A30003B6833702B8FA387EB6B23642B6C636401
:105A40006B6C6A6BA36495F84830A263204684F8B7
:105A50004C30F8BD10B58AB0044603A8FFF700FC2F
:105A6000FB23009300231A460434E02104A801F02C
:105A70008FFE41F2E94204A9204600F09DFF214635
:105A800003A8FFF72FFC204600F0B2FC03A8FFF7A5
:105A9000E9FB0AB010BD0000F0B5054689B02D48FD
:105AA000FFF737FF95F868402F1D54BB012385F899
:105AB000683001F0E3FE284901F075F9224641F211
:105AC000E941384600F0EEFC01F0D8FEFB23224607
:105AD0000093E0212346064602A801F059FE02A9E0
:105AE000384600F0BDFF041E1DDA2D21304601F0BE
:105AF0004BF961420A22304601F05FF9304601F06D
:105B000046F90021384600F06EFF064600B300F06B
:105B100061FB044648B901F0B1FE104901F043F9B8
:105B2000272009B0F0BD2146E4E701463246384659
:105B300000F027FD384600F0A3FC064A3146204617
:105B4000FFF7EBFD2860204600F04CFB2868E8E7F3
:105B50002020E6E7ECE1032001B30B0011B30B00BA
:105B600010B508460C4603F070FA052808D9063827
:105B70000449204403F039FAB0FA80F0400910BD1E
:105B80000020FCE7BBB10B002DE9F0430C46CDB083
:105B90000646114620461546FFF7E2FF50B901F0D0
:105BA0006DFE384901F0FFF84FF0FF31304601F04B
:105BB000C3FD4DE03448DFF8D090FFF7AAFE4FF068
:105BC000000829464846FFF715FE431C07461ED12C
:105BD0000522294603A8FFF7E7FE484603A9FFF779
:105BE0006EFE03A8FFF7FEFEB8F1050FE9D1FB2317
:105BF000009300231A46E02103A801F0C9FD03A980
:105C0000201D00F03EFF002384F86830CCE70146F9
:105C10004846FFF7EAFD90F80431EBB1FB2300930F
:105C200000231A46E02103A801F0B2FD03A9201DBC
:105C300000F027FF39461448FFF7D7FD3446134BD1
:105C400044F8043B00F586750FCD0FC42B68237014
:105C500030464DB0BDE8F08300F080F8E36EC31A23
:105C6000B3F57A7F074606DD29462046FFF7F2FEA8
:105C700008F10108E7662046FFF70EFF2028B3D0A1
:105C800092E700BF1FB30B00ECE103203CB40B0014
:105C90000148FFF799BD00BFECE1032008B5024BB6
:105CA0001B689B68019308BD6802030008B5024B9E
:105CB0001B68DB68019308BD6802030008B5024B4E
:105CC0001B689B68019308BD2C02030008B5024BBA
:105CD0001B68DB68019308BD2C02030008B5024B6A
:105CE0001B681B69019308BD2C02030008B5024B19
:105CF0001B689B69019308BD2C02030008B5024B89
:105D00001B68DB69019308BD2C02030008B5024B38
:105D10001B685B69019308BD6C02030008B5024B68
:105D20001B689B69019308BD6C02030008B5024B18
:105D30001B685B6D019308BD6C02030008B5024B44
:105D40001B689B6D019308BD6C02030008B5024BF4
:105D50001B685B68019308BD1802030008B5024B7D
:105D60001B685B69019308BD1802030008B5024B6C
:105D70001B689B6D019308BD1802030008B5024B18
:105D80001B685B6E019308BD1802030008B5024B47
:105D90001B681B6B019308BD4802030008B5024B4A
:105DA0001B689B6B019308BD4802030008B5024BBA
:105DB0001B681B6C019308BD4802030008B5024B29
:105DC0001B685B6C019308BD4802030008B5024BD9
:105DD0001B685B69019308BD6402030008B5024BB0
:105DE0001B681B6A019308BD6402030008B5024BDF
:105DF0001B685B6A019308BD6402030008B5024B8F
:105E00001B689B6A019308BD6402030008B5024B3E
:105E10001B68DB68019308BD3C02030008B5024B18
:105E20001B681B69019308BD3C02030008B5024BC7
:105E30001B685B69019308BD3C02030008B5024B77
:105E40001B689B69019308BD3C02030008B5024B27
:105E50001B68DB69019308BD3C02030008B5024BD7
:105E60001B681B6A019308BD3C02030008B5024B86
:105E70001B689B6A019308BD3C02030008B5024BF6
:105E80001B681B6C019308BD3C02030008B5024B64
:105E90001B681B6A019308BD2802030008B5024B6A
:105EA0001B685B6A019308BD2802030008B5024B1A
:105EB0001B689B6A019308BD2802030008B5024BCA
:105EC0001B68DB6A019308BD2802030008B5024B7A
:105ED0001B681B6B019308BD2802030008B5024B29
:105EE0001B685B6B019308BD2802030008B5024BD9
:105EF0001B681B6C019308BD2802030008B5024B08
:105F00001B685B68019308BD3802030008B5024BAB
:105F10001B689B69019308BD3802030008B5024B5A
:105F20001B68DB69019308BD3802030008B5024B0A
:105F30001B681B6A019308BD3802030008B5024BB9
:105F40001B689B6A019308BD3802030008B5024B29
:105F50001B68DB6A019308BD3802030008B5024BD9
:105F60001B681B6B019308BD3802030008B5024B88
:105F70001B685B6B019308BD3802030008B5024B38
:105F80001B689B6B019308BD3802030008B5024BE8
:105F90001B68DB69019308BD3002030008B5024BA2
:105FA0001B681B6A019308BD3002030008B5024B51
:105FB0001B681B68019308BD4C02030008B5024B27
:105FC0001B681B69019308BD4C02030008B5024B16
:105FD0001B685B69019308BD4C02030008B5024BC6
:105FE0001B689B69019308BD4C02030008B5024B76
:105FF0001B68DB69019308BD4C02030008B5024B26
:106000001B681B6A019308BD4C02030008B5024BD4
:106010001B681B6D019308BD6002030008B5024BAD
:106020001B681B68019308BD2002030008B5024BE2
:106030001B685B68019308BD2002030008B5024B92
:106040001B68DB6A019308BD2002030008B5024B00
:106050001B68DB6C019308BD2002030008B5024BEE
:106060001B685B6D019308BD2002030008B5024B5D
:106070001B689B6D019308BD2002030008B5034B0C
:106080001B68D3F88830019308BD0000200203008C
:1060900008B5034B1B68D3F89430019308BD00008A
:1060A0002002030008B5024B1B685B68019308BD22
:1060B0004002030008B5024B1B689B68019308BDB2
:1060C0004002030008B5024B1B68DB68019308BD62
:1060D0004002030008B5024B1B681B69019308BD11
:1060E0004002030008B5024B1B685B69019308BDC1
:1060F0004002030008B5024B1B689B69019308BD71
:106100004002030008B5024B1B68DB69019308BD20
:106110004002030008B5024B1B681B6A019308BDCF
:106120004002030008B5024B1B681B6B019308BDBE
:106130004002030008B5024B1B685B6B019308BD6E
:106140004002030008B5024B1B681B6C019308BD9D
:106150004002030008B5024B1B685B6C019308BD4D
:106160004002030008B5024B1B681B68019308BD81
:106170004402030008B5024B1B689B68019308BDED
:106180004402030008B5024B1B685B69019308BD1C
:106190004402030008B5024B1B681B6A019308BD4B
:1061A0004402030008B5024B1B685B6A019308BDFB
:1061B0004402030008B5024B1B681B6B019308BD2A
:1061C0004402030008B5024B1B68DB6B019308BD5A
:1061D0004402030008B5024B1B681B68019308BD0D
:1061E0001C02030008B5024B1B685B68019308BDE5
:1061F0001C02030008B5024B1B689B68019308BD95
:106200001C02030008B5024B1B68DB68019308BD44
:106210001C02030008B5024B1B685B69019308BDB3
:106220001C02030008B5024B1B685B6A019308BDA2
:106230001C02030008B5024B1B68DB6A019308BD12
:106240001C02030008B5024B1B681B6B019308BDC1
:106250001C02030008B5024B1B68DB6B019308BDF1
:106260001C02030008B5024B1B681B6C019308BDA0
:106270001C02030008B5024B1B685B6C019308BD50
:106280001C02030008B5024B1B68DB6C019308BDC0
:106290001C020300002240681146FFF73BBF0022AA
:1062A00040681146FFF746BF40680022FFF73ABF3B
:1062B0004068002281F00101FFF724BF00234068FD
:1062C0001A461946FFF716BF002340681A461946BA
:1062D000FFF708BF002240681146FFF7FBBE00220F
:1062E00040681146FFF7E6BE406800220221FFF732
:1062F000E9BE002340681A46FFF7D4BE024B0322D2
:106300005A60024A1A60704780E6032034B30B00DB
:1063100010B5044608462170FFF738FE002363607D
:10632000204610BD054B02221A60054B054A9A60B3
:106330000020C3E90000FFF779BE00BF94E6032008
:1063400088E603200000FFFF2DE9F041931E8CB08A
:10635000222B4FF000030D4614468DF82C3027D920
:1063600000282ADA2E462D2306F8013B40420A2453
:106370000DF12B074FF001082246014601A802F05B
:10638000CCFD029B0198092BCCBF3722302252FA58
:1063900083F307F8013908F101080028ECD14246DF
:1063A000791C304602F0CDFD28460CB0BDE8F081E6
:1063B0000A2AD5D018B12E46DAE70A24FAE73023A4
:1063C0008DF82B302E460DF12A074FF00208E6E734
:1063D00010B40468246BA4465DF8044B604703685E
:1063E0009B6C1847808E7047028FC08E101A7047C2
:1063F000F0B5036889B09F6A0C4B029300F1200648
:1064000004460FCE03AD0FC533682B70A38EE28E0A
:10641000E16B0093204602ABB84723680546DB6971
:1064200020469847284609B0F0BD00BF3CB40B0099
:1064300007B503688DF80710DB6801220DF107012D
:10644000984703B05DF804FB10B503681B69044668
:10645000984728B1E38EE26B591CE186D05C10BDF1
:106460004FF0FF30FBE710B503681B6904469847FF
:1064700018B1E38EE26BD05C10BD4FF0FF30FBE74C
:10648000704710B403460846DC6BD98E1A8F036838
:10649000521ADB6821445DF8044B1847A0F1100044
:1064A000FFF7EFBF70B503688CB05B6A04460E4619
:1064B0001546984701231C22002105A8029302F0EB
:1064C0004EFD40F61C233046ADF81430FFF796FC25
:1064D0001122ADF8160002210A20FFF74FFD002817
:1064E000606125DB0422009202AB40F6FF71FFF7EA
:1064F0000DFDE8B995B10390ADF8100003A9E8B21D
:10650000FFF704FCA0B906230093606903AB41F2D6
:106510000B0240F6FF71FFF7F9FC48B960691C22D5
:1065200005A9FFF7EBFC18B9656401200CB070BD3C
:10653000236820465B6A98470020F7E710B50446B9
:106540004069002801DBFFF7E9FC4FF0FF3363618E
:106550000023E386238710BD70B50546C06BEE8E21
:1065600068B12B6C9C1B944228BF144622463044D1
:1065700002F0E7FCEB8E2344EB86204670BD044618
:10658000F1E7D0B503681B6904460F4616469847E5
:1065900090B1236820461B699847E38EE16B8642E1
:1065A000A8BF064619443246384602F0CAFCE38EBC
:1065B0003344E3863046D0BD4FF0FF36FAE730B5BE
:1065C00087B0044601AD684601F0EEF80FCD043403
:1065D0000FC42B68237007B030BD0000F0B596469D
:1065E000026889B0976A0A4A02921C1D8C460646C8
:1065F0000FCC03AD0FC523682B70BDF83830009366
:10660000724602AB61463046B84709B0F0BD00BFE4
:106610003CB40B0070B50446054B44F8043B01F153
:10662000200506460FCD0FC42B682370304670BD81
:106630003CB40B00F0B54378022B8DB005460C46F8
:10664000174604D1011D2046FFF7B9FF22E00A2BAF
:1066500025D11122002101A802F081FCAB6803B30F
:1066600005F1080301AE05F1180C186859683246A7
:1066700003C2083363451646F7D1062301A906A8CD
:1066800007AE8DF8143001F045F80FCE04340FC476
:10669000336823701FB16888FFF7A8FB38800DB0FE
:1066A000F0BDEB68002BDBD14FF6FF702E69FFF7D2
:1066B00095FB8642D4D105F11401C4E72DE9F041E0
:1066C00017468EB00022064601AB084611460192DD
:1066D000FFF7ECFA041E20DB019B2BB35B691BB3B5
:1066E00002A801F009F8019B0022586902A9FFF7EE
:1066F000A1FF02A801F028F8B0B1336803ADD3F8C8
:1067000038800B4B08930FCD09AC0FC42B68237056
:106710003A4608A93046C04704460198FFF7BEFA3A
:1067200020460EB0BDE8F0814FF0FF34F5E700BF22
:106730003CB40B002DE9F047D0F81490B9F1000FEC
:1067400090B005460E4690461C463CDB00293AD0E8
:106750004FF01C0A09AF52460021384602F0FFFBF9
:10676000CDF80CA0DCB14FF47A73B4FBF3F203FB69
:10677000124400215C431023CDE9042107910093CA
:1067800041F206026B4440F6FF7148460694FFF75B
:10679000BDFB044620B1204610B0BDE8F0870824B8
:1067A00003ABCDE900736869234642463146FFF7E3
:1067B000CDFB041EEFDB05F1340205F11C01384668
:1067C000FFF738FFE7E74FF0FF34E4E738B5054659
:1067D00014462B7D062B084610D140F61C2313804F
:1067E000FFF70CFB08342B1D24F8060C143553F866
:1067F000042B44F8042BAB42F9D138BD042BFCD157
:106800004FF404731380FFF7F9FA60806868FFF7AC
:10681000E5FA6060F1E72DE9F0438BB003AF4FF08C
:106820001C09984604460D46164600214A4638463D
:1068300002F095FBBDF848103A464046FFF7C6FF08
:106840009DF80D3053B1CDE90079606900233246DF
:106850002946FFF78BFB0BB0BDE8F0834FF0FF300C
:10686000F9E7F0B591B00C4606460021154609A897
:106870001C221F4602F073FB09AA00212046FFF7E5
:10688000A5FF9DF82530022B2DD1002305930A9BEF
:106890000493BDB102A92846FFF740FA90B90390CE
:1068A00003A90298FFF742FA48B9039B3BB1DA68A3
:1068B00012685178022914D1526892B10592039856
:1068C000FFF73CFA002F4FF00803009318BF032294
:1068D00004AB08BF042200213046FFF717FB11B0BC
:1068E000F0BD1B68E2E70A2B15D10BAB0FCB04AC54
:1068F00084E80F00002F4FF01403009318BF0C2200
:10690000234608BF0D22292130460895FFF7FEFADD
:1069100000EAE070E3E74FF0FF30E0E738B500252C
:106920004FF47A73C0E901530B4B03F108026C3347
:1069300003614FF0FF330446026043611C3000F0F6
:10694000DBFE4FF40073C4E91035E5862587E56367
:1069500084F84850204638BD68B30B0010B590F855
:106960004830044623B1C06B10B10121FDF799FBFB
:106970000023E36384F848302364E386238710BD53
:1069800070B5044616460D46FFF7E8FF0023E663A0
:1069900023642EB12564206C003818BF012070BD1F
:1069A000002DF8D02846FDF778FB0123E06384F83A
:1069B00048300028EFD0EDE7F8B51746C26B054622
:1069C0000C461AB9016C09B1FFF7DAFF04340FCC99
:1069D00005F120060FC6236833700023286CAF86AC
:1069E000EB862B87F8BD37B5C26B04460B462AB938
:1069F000016C19B10193FFF7C3FF019BE16B00220A
:106A0000E286228741B1226C32B12068056B2046B4
:106A1000A8470028C8BF208723681B69204603B009
:106A2000BDE830401847000010B5074B03F10802DD
:106A30006C33044602600361FFF780FD2046FFF7D8
:106A40008DFF204610BD00BF68B30B0010B5044693
:106A5000FFF7EAFF20464C21FDF723FB204610BD3F
:106A600010B44469002C07DB90F844200123204631
:106A70005DF8044BFFF7F5BE4FF0FF305DF8044BB7
:106A8000704710B44469002C07DB90F844200023C1
:106A900020465DF8044BFFF7E4BE4FF0FF305DF891
:106AA000044B7047704710B50C210446FDF7F9FA06
:106AB000204610BD10B504460068FFF793FB204642
:106AC00010BD10B50446006808B1FFF78BFB00232A
:106AD000C4E90133236010BD38B504460D46006893
:106AE0000131FFF787FB10B1C4E90005012038BD73
:106AF00010B50368044623B143688B4201D30120DB
:106B000010BD2046FFF7E8FF0028F9D0A368002B4E
:106B1000F5D122681370F2E737B50D4611460192A0
:106B20000446FFF7E5FF019A28B92046FFF7C9FFA1
:106B3000204603B030BDA2602946206802F001FA69
:106B40002268A3680021D154F2E7002313B5C0E9FD
:106B5000003304468360037341B10846019102F09B
:106B600074FA019902462046FFF7D6FF204602B08C
:106B700010BD13B5044659B10846019102F065FAFB
:106B8000019902462046FFF7C7FF204602B010BD1C
:106B9000FFF797FFF9E710B504468AB00023C4E970
:106BA0000033A3602373084601A9FFF7CDFB01A9B9
:106BB0002046FFF7DEFF20460AB010BD70B505463F
:106BC0000E4609B9002070BD6AB18468144421469C
:106BD000FFF78EFF0028F5D02868AB6831461844CF
:106BE00002F00DFAAC600120EDE78A680968FFF752
:106BF000E5BF38B5044680688568FFF7DFFFA36806
:106C00009868401B38BD07B500238DF80410012299
:106C100001A98DF80530FFF7D1FF03B05DF804FB43
:106C200008B58068FFF7EFFF08BD10B58A680968EE
:106C30000446FFF7C3FF10B92046FFF742FF204686
:106C400010BD000030B585B000230D460293C0E9A9
:106C50000033836003731421064B019304460390B1
:106C6000FFF746FF2B6801A91B6828469847204676
:106C700005B030BDE0B30B000EB470B587B00BADFE
:106C8000044655F8042B01922B46052104A80395D0
:106C9000FFF7C8FA0B4906462046FFF756FF314674
:106CA0002046FFF725FF206830B1019A03952B4657
:106CB000711CFFF7B7FAA060204607B0BDE870402E
:106CC00003B0704764B10B0010B58368044613B17C
:106CD000032201469847204610BD10B54368013B8A
:106CE0000446436063B903689B689847A368013B07
:106CF000A3602BB923682046DB68BDE81040184725
:106D000010BD13B50B460246D0E900016C4684E87D
:106D1000030093E8030082E8030094E8030083E89B
:106D2000030002B010BD0000024800230360FFF71B
:106D300045B800BF98E60320F8B506460D468F1803
:106D40000024BD420CD0336815F8011B9B68304607
:106D50009847031E01DB1C44F3E7002C08BF1C46C8
:106D60002046F8BD13B50446084659B1019102F01A
:106D70006CF923680199DB680246204602B0BDE841
:106D80001040184702B010BD03689B68184738B51B
:106D90000D210546FFF7F8FF0A2104462846FFF7B4
:106DA000F3FF204438BD38B50546FFF7DBFF044646
:106DB0002846FFF7ECFF204438BD30B58BB00023E8
:106DC000012A8DF8243098BF0A2209AC0D46B1FB88
:106DD000F2F101FB125303F0FF03092B94BF303390
:106DE0003733DBB2AA4204F8013DEFD92146FFF761
:106DF000B9FF0BB030BD2DE9F04186B000AF0546BC
:106E00000E46381D142114463B60FFF70BFA132879
:106E10000ED8391D2846FFF7A5FF04461EB12846A7
:106E2000FFF7B5FF044420461837BD46BDE8F081A2
:106E300000F1080323F00703E846ADEB030D2246FB
:106E4000411C3B686846FFF7EDF969462846FFF7A5
:106E500089FF0446C546E1E7014B024A1A607047C4
:106E60009CE60320F8B30B002DE9F041154ADFF84A
:106E70006080D2E90063801943EB0101124BD3E932
:106E80000067D8E90023861941EB0707BB4208BF1A
:106E9000B2428CB013D003A96846CDE90067FFF772
:106EA000F1F9089B094D03F26C7303AC08930FCC06
:106EB0000FC50FCC0FC5C8E9006723682B600CB065
:106EC000BDE8F081D0E60320C8E60320A4E6032055
:106ED000D8E6032008B50020FFF76CF928B1FFF7CA
:106EE00051F980F00100C0B208BD0120FCE70000AC
:106EF00008B5FFF7B9FF024B1869013008BD00BFA4
:106F0000A4E6032010B50020FEF730FF0446A0B928
:106F1000FFF784F8012810D12046FFF7A7F860B9E1
:106F2000FFF7D8FF10B9FFF725F9F9E7FFF7D2FF10
:106F3000BDE810400020FEF719BF204610BD1FB568
:106F4000FFF7E0FF10220021684602F008F8002158
:106F50006846FEF713FF009805B05DF804FB0000DB
:106F600008B5FFF7ECFFC117FFF77EFF014B9868EC
:106F700008BD00BFA4E6032008B5FFF7E0FFC11776
:106F8000FFF772FF014B586808BD00BFA4E603205D
:106F900008B5FFF7D4FFC117FFF766FF014BD868AC
:106FA00008BD00BFA4E6032008B5FFF7C8FFBDE891
:106FB0000840C117FFF79CBF08B5FFF7C0FFC11716
:106FC000FFF752FF014B586908BD00BFA4E603203C
:106FD000024B1A68024B1A60704700BF20D2032090
:106FE000A0E6032010B5044B03600446806908B195
:106FF000FFF773FE204610BD0CB50B0010B504461C
:10700000FFF7F0FF20461C21FDF74BF8204610BD8E
:10701000014B00229A607047E0E60320014B1860A4
:10702000704700BF24D2032008B50B4B43B100F0DA
:1070300025FC03681B699847002801DDAFF3008039
:10704000064B43B101F050F903681B6998470028CB
:1070500001DDAFF3008008BD00000000000000006B
:1070600008B5FFF7E1FFFEF779FE014B186008BD98
:1070700044E703200548064A064908B5121A01F0FC
:1070800060FF054B054A1A6008BD00BF00F40320ED
:1070900004F40320B4BB0B0000F403201E1C279A49
:1070A00007B5002300931A466FF07701FEF7F0FF53
:1070B00003B05DF804FB000007B543880A2B08D035
:1070C000502B0BD1094B1B684BB103B05DF804EB9F
:1070D0001847FFF7E5FF03B05DF804FB00230093BA
:1070E0001A466FF07701FEF7D3FFF4E7F4E60320CA
:1070F00010B512480021FFF7BDF8114B1A68114B6B
:107100009A42114B0CBF012200221A7001D0FFF7E6
:10711000B1FFFEF71BFE044601F02AFF0B4B13B133
:107120002046AFF3008000210848FFF74BF8BDE888
:10713000104007480021FEF7A1BF00BF1D700B00E3
:1071400000F403201E1C279AF0E603200000000034
:10715000B9700B0070470020704710B5102104462D
:10716000FCF79FFF204610BD08B5FFF7F6FF08BDEE
:1071700030B500224FF69C74026084808D888C802C
:107180000C68858004600A6030BD10B50446006854
:10719000FFF728F8204610BD38B5C468F4B123784D
:1071A000022B03D104F10C00FFF7EFFF656835B146
:1071B0002846FFF789FD10212846FCF772FFA568D5
:1071C00035B12846FFF780FD10212846FCF769FFFE
:1071D00020461421BDE83840FCF763BF38BD0B687A
:1071E00003604B68436013B15A6801325A607047BC
:1071F00037B5044668460D46FFF7F1FF009B019A3C
:1072000023606260002301A801930093FDF7A0F9B9
:1072100035B1281DFDF79CF908212846FCF741FFF0
:10722000204603B030BD826810B50AB901F0BEF83F
:10723000BDE81040C368184708B5006800F11001A8
:10724000FFF7F1FF08BD826810B50AB901F0AEF88A
:10725000BDE81040C368184708B5006800F1100188
:10726000FFF7F1FF08BD000038B5002304460360B6
:1072700010200D46FCF70FFF28B10123C0E90133B0
:10728000024B0360C5602060204638BD20B40B006F
:1072900038B5002383608B6804460D462BB102226B
:1072A0009847EB68E360AB68A360204638BD0000F8
:1072B000F0B589B004686846FFF75AFF4FF0020343
:1072C000D4E84F2F002A03D1C4E8413F0029F7D169
:1072D00025D104F10C0569462846FFF749FFBFF3A5
:1072E0005B8F01236370002004F10803BFF35B8F01
:1072F00053E8006F43E80002002AF9D1BFF35B8F27
:107300006EB1FEF7A3FE78B129463046FFF78BFF3A
:107310003046FFF7D9FC10213046FCF7C2FE684624
:10732000FFF733FF09B0F0BD314602A8FFF7B0FF09
:10733000E068B4F9105008B101F06AFE0690102020
:10734000ADF81C50FCF7A7FE0546E8B100278760A2
:107350001820FCF7A0FE044688B10146876002A809
:10736000FFF7CFFC049BA268A360059B049206A9CB
:10737000E268E36004F110000592FFF7F9FE084BA4
:10738000EB60084B2C60AB6006A8FFF7FEFE02A87E
:10739000FFF79AFC002229460348FEF75FFEB7E795
:1073A00039720B00BD740B00C5790B002DE9F04F4D
:1073B0008BB005469DF850A00F4690469946FEF7C3
:1073C000E1FE07AE834638BB4FF62E73059005A944
:1073D0003046ADF81830FFF7CBFE1420FCF75BFE0B
:1073E000044648B1022303700123C0E901BB437086
:1073F00031460C30FFF7BCFE2846214640F8044BCE
:10740000FFF732FF3046FFF7C0FE05A8FFF7BDFECD
:1074100028460BB0BDE8F08F0C2300241420CDE9E2
:1074200008440793FCF737FE014618B1C0E9014450
:107430000470447004A80391FFF716FF1E4B0893D5
:107440000820FCF728FE044610B103A9FFF7C7FE89
:1074500000965FFA8AF34A46414638460994FEF799
:1074600099FEB8B9039B5B7803F0FF0293B94FF61E
:107470009C7305A903A80592ADF81830FFF718FF13
:1074800005A8FFF782FE05A80999FFF7B1FE06A837
:10749000FDF75EF803A905A8FFF7A1FE059B069A74
:1074A0002B606A60002306A806930593FDF750F849
:1074B00004A8FDF74DF8ABE739750B00012AF8B5C4
:1074C000054603D10B6803600020F8BD022A10D0E6
:1074D000032AF9D10468002CF6D004F11000FFF75C
:1074E00054FE2046FFF7F0FB18212046FCF7D9FD9B
:1074F000EAE718200E68FCF7CEFD044650B131468D
:10750000FFF7C6FE3069B6F9147008B101F080FDCE
:107510002061A7822C60D7E738B5002383608B6891
:1075200004460D462BB102229847EB68E360AB6836
:10753000A360204638BD0000F0B589B004460D4672
:1075400001A81146FFF754FEA4B124B21DB128468C
:1075500001F05EFD054601A803A90395ADF81040B2
:10756000FFF7A6FE03A8FFF710FE02A8FCF7F0FF46
:1075700009B0F0BD019D0123D5E84F2F002A03D1AA
:10758000C5E8413F0029F7D1EFD12B73BFF35B8FE3
:107590006B702B1DBFF35B8F53E8006F43E8004215
:1075A000002AF9D1BFF35B8F002EDED02046FEF714
:1075B0004DFD074660B105F10C013046FFF743FE73
:1075C0003046FFF781FB10213046FCF76AFDCCE71F
:1075D000314603A8FFF7A0FF2B7B8DF81C3010204D
:1075E000FCF759FD0546D0B187601420FCF753FD28
:1075F000044678B18760014603A8FFF782FB059B2C
:10760000A268A360069B0592E268E3609DF81C30C7
:1076100006922374064BEB60064B2C60AB6003A80C
:10762000FFF752FB002229460348FEF717FDC7E784
:1076300059720B003D760B00C5790B00012A70B51D
:10764000044603D10B680360002070BD022A0CD0F1
:10765000032AF9D10468002CF6D02046FFF734FB4A
:1076600014212046FCF71DFDEEE714200E68FCF700
:1076700012FD054620B13146FFF74EFF337C2B74D7
:107680002560E1E7704710B518210446FCF709FDB5
:10769000204610BDF0B5037D062B8DB00E4600F1DF
:1076A00004074FF0000412D000F1080515F8011D81
:1076B0000A223046FFF781FBAF42044419D0002C68
:1076C000F4D02E213046FFF75FFB0444EEE72F2372
:1076D0006A4639460A208DF80040FEF777FB684677
:1076E00001F0B3FC33680246DB68694630469847D0
:1076F000044620460DB0F0BD10B5054B04461122DE
:1077000040F8043B002101F02AFC204610BD00BFD8
:107710003CB40B000346074A10B543F8042B01F1B3
:10772000100251F8044B43F8044B9142F9D10A7806
:107730001A7010BD3CB40B00024AC0E900210422BB
:10774000027570473CB40B00037D042B04D14068E4
:10775000003818BF01207047062B07D143683BB99A
:1077600083682BB9C3681BB90069F1E70020704733
:107770000120704710B59DF8084044EA032343EA0E
:10778000024242EA016104234160037510BD00001A
:1077900013B5044C04609DF810400094FFF7EAFF15
:1077A00002B010BD3CB40B0007B5064B0360CB78AC
:1077B00000938B784A780978FFF7DCFF03B05DF817
:1077C00004FB00BF3CB40B00417470477047704726
:1077D00008B50021007CFEF701FC40EAE07008BD1E
:1077E00008B50121007CFEF7F9FB40EAE07008BD16
:1077F00008B5007CFEF7EAFB20EAE07008BD08B59A
:10780000007CFEF7DBFB20EAE07008BD13B5044600
:10781000007C0191FEF7DAFB0028019901DC607C15
:1078200020B1207CFEF7E2FB20EAE07002B010BD40
:10783000007CFEF7E3BB10B514210446FCF731FCD5
:10784000204610BD10B54FF47A7304460846002157
:10785000C4E90113044B23600123207463741146AF
:10786000FEF7A4FB204610BD50B40B0010B5142247
:107870000446002101F073FB204610BD10B50F4CEB
:1078800088B003A8FFF7F2FF2178BFF35B8F11F0F8
:1078900001010FD120460191FCF705FC019948B187
:1078A00003AA0748FFF7CEFF2046FCF701FC054876
:1078B00001F026FB024808B010BD00BFF8E6032027
:1078C000FCE60320CD770B00004700002DE9FF41C7
:1078D00000241D460F4690460646FEF70FFAA542C5
:1078E0004FF00403ADF80D408DF80C308DF80F40CB
:1078F000A2BF9DF828308DF80E3003AC07490094E4
:1079000043463A463046A8BF8DF80D50FEF7EEF9D3
:10791000B0FA80F0400904B0BDE8F081C9780B00EE
:1079200070474174704708B5007CFEF79FFA20EA63
:10793000E07008BD08B5007CFEF770FA20EAE07040
:1079400008BD08B5007CFEF779FA40EAE07008BD92
:1079500008B5007CFEF76AFA40EAE07008BD007CDA
:10796000FEF774BA37B5457C04462DB1207C03B0D0
:10797000BDE83040FEF74ABA007C0191FEF776FA86
:1079800000280199F2DC284603B030BD10B514215F
:107990000446FCF786FB204610BD000010B54FF4EE
:1079A0007A730446084611460022C4E90123044BB9
:1079B0002360012320746374FEF760FA204610BD33
:1079C00080B40B0010B5836804460BB900F0EEFCE0
:1079D000C3689847A3681BB10322214620469847F5
:1079E00020461021BDE81040FCF75BBB7047F8B59E
:1079F000064615460C468F18BC4206D0336814F86C
:107A0000011B9B6830469847F6E72846F8BD007C86
:107A10000022FEF73BBA007C0021FEF73FBA007C53
:107A20000021FEF743BA007C0021FEF747BA007C34
:107A30000021FEF74BBA10B514210446FCF731FBC8
:107A4000204610BD10B54FF47A7304460846002155
:107A5000C4E90113034B236020741146FEF746FA74
:107A6000204610BDB0B40B0013B503688DF80710A5
:107A7000DC6B01224FF0FF330DF10701A04702B08C
:107A800010BD10B40368DC6B4FF0FF33A4465DF803
:107A9000044B604713B5134602688DF80710D46B8A
:107AA0000DF107010122A04702B010BD10B54369D6
:107AB000B3F88620B3F884309A42044608D063694C
:107AC000B3F88420511CA3F884101344187910BD16
:107AD00003681B6998470028F1D14FF0FF30F6E7A3
:107AE000704743691868C043C00F70477047000073
:107AF000064B994210B500F10C0405D0084600F081
:107B000059FC002808BF0024204610BDF0B30B002C
:107B100010B5AC210446FCF7C4FA204610BDAC21D8
:107B2000FCF7BFBA2DE9F0414FF0000886B01C46C3
:107B3000C0F8048005460E4617464146102202A8AA
:107B400001F00DFA631C09D04FF47A73B4FBF3F221
:107B500003FB1244CDE902285C43049468691023B6
:107B60000093006802AB41F2050240F6FF71FEF798
:107B7000CDF9002807DAFEF76DFB03686B60002083
:107B800006B0BDE8F0816869002300683A463146D6
:107B9000FEF7E4F9031EEEDB1846F1E730B587B0D7
:107BA000044601AD6846FFF7FFFD0FCD04340FC456
:107BB0002B68237007B030BD70B54D69054B044686
:107BC0008C3544F8043B06460FCD0FC42B68237058
:107BD000304670BD3CB40B002DE9F0439846036875
:107BE00093B00D460024DB6A0646174698472846A0
:107BF0006B46224621460094FEF758F805460028B9
:107C000063D1009B002B4BD05B69002B48D006A8AA
:107C1000FFF772FD009B5C696378022B04D1211D84
:107C200006A8FFF7BBFF26E00A2B24D11122294624
:107C300001A801F094F9A368002B38D004F10803DF
:107C40000DF1040C183418685968624603C20833F1
:107C5000A3429446F7D1062301A90CA88DF814304D
:107C6000FFF758FD0DF1340CBCE80F0007AC0FC452
:107C7000DCF80030237006A8FFF766FD80B133689A
:107C800007ADD3F82090124B0C930FCD0DAC0FC461
:107C90002B6823703A4643460CA93046C847054630
:107CA0000098FDF7FBFF284613B0BDE8F083E368BA
:107CB000002BC3D14FF6FF70D4F81090FEF78EF86A
:107CC0008145BBD104F11401AAE72546E8E700BFCE
:107CD0003CB40B0038B543691A68002A054610DA2F
:107CE000B3F88620B3F884309A420AD103681B693E
:107CF0009847044628B92B682846DB6A98472046EF
:107D000038BD0120FCE710B54369B3F88620B3F80D
:107D100084309A42044605D06369B3F88420134442
:107D2000187910BD03681B6998470028F4D14FF0FB
:107D3000FF30F6E7F8B543691746B3F88620B3F885
:107D400084309A4205460E4616D06969B1F88430EF
:107D5000B1F88640E41ABC4228BF3C4604332246B0
:107D60001944304601F0EDF86A69B2F884302344D2
:107D7000A2F884302046F8BD03681B6998470028A4
:107D8000E3D14FF0FF34F5E742690023A2F88430D5
:107D90004269A2F8863070472DE9F0411F4603681A
:107DA0000C46DB6A8AB0054616469847237DD5F80F
:107DB0001480042B0CBF02200A2006220121FEF7AA
:107DC000DDF8C8F800006B691B68002B08DA2B6827
:107DD0002846DB6A0024984720460AB0BDE8F081B7
:107DE0002846FFF7D1FFB7B1002303A9F8B20393E8
:107DF000ADF81030FDF78AFF0028E8D16869062346
:107E00000093006803AB41F20B0240F6FF71FEF7EE
:107E10007DF80028DBD11C22002103A801F09FF887
:107E2000237D042B1DD14FF407733046ADF80C3081
:107E3000FDF7E4FFADF80E006068FDF7CFFF04909A
:107E40006B691C22186803A9FEF770F80028BED1E0
:107E500004340FCC6D698C350FC523682B70012459
:107E6000BAE740F61C233046ADF80C30FDF7C6FFEC
:107E700005AEADF80E00231D04F11407186859680B
:107E8000324603C20833BB421646F7D1D8E700009A
:107E900030B54269B2F886308BB004462BB1B2F8E7
:107EA00084209A4201D1FFF76FFF616908680028BA
:107EB00018DBB1F886507F2D14D804310823C5F1A2
:107EC00080022944FEF73AF8002813DD6369B3F80D
:107ED00086200AB9A3F884206369B3F88620104489
:107EE000A3F886006369B3F88600B3F88430C01A3B
:107EF0000BB030BDFEF7AEF903680B2BF2D0FEF7E6
:107F0000A9F903680B2BEDD020230025CDE902351C
:107F1000FEF7A0F903680193084B0949009302AAF0
:107F20002B463220FEF772F863691868FDF7F6FFFA
:107F300063694FF0FF321A60D4E700BFD7B40B007B
:107F4000D0B40B0010B5436904461868002801DB63
:107F5000FDF7E4FF63694FF0FF321A606069112298
:107F600000218C3000F0FBFF2046BDE81040FFF7F9
:107F70000BBF10B5002304460160C0F88430883080
:107F8000FFF7BAFB204610BD73B500234FF47A7299
:107F9000C0E901320E4A0361026043610446AC202D
:107FA0000191FCF778F8051E05F10C0608D00123B5
:107FB000C5E90133074B01992B603046FFF7D9FF24
:107FC0002046C4E90565FFF7DFFE02B070BD00BFC3
:107FD0000CB50B00F0B40B0010B54FF0FF310446A8
:107FE000FFF7D2FF204610BD10B5044600680028F8
:107FF00001DBFDF793FF204610BD0C30FFF7F4BF07
:10800000002240681146FEF765B80022406811461C
:10801000FEF780B8002240681146FEF78BB8406832
:108020000022FEF77FB84068002281F00101FEF7D0
:1080300069B8002340681A461946FEF75BB800236A
:1080400040681A461946FEF74DB8002240681146AE
:10805000FEF730B8406800220221FEF733B8002353
:1080600040681A46FEF71EB8024B04225A60024AC4
:108070001A60704710E7032058B50B0000234068D2
:108080001A46FEF70FB8406800220221FEF71AB820
:10809000002240681146FEF70DB8002240681146E4
:1080A000FEF718B8002340681A461946FEF71AB8BA
:1080B000002340681A461946FEF71CB840680021A4
:1080C000FEF740B840680021FEF744B8406800223F
:1080D00081F00101FEF716B840680022FEF722B8D1
:1080E000002240681146FEF725B80022406811467C
:1080F000FEF710B82DE9F04395B014460D4607463B
:10810000FFF7FAFA00211C220DA8009100F027FFCA
:1081100040230C9320466B460CAA0021FDF7C6FDB8
:10812000044600284BD1024601216868FDF7D2FFC2
:108130000221804622466868FDF7CCFF009E8146FA
:108140002146002E3BD0002939D17368022B03D081
:108150000A2B11D0F669F4E7B8F1000FFAD0716973
:1081600006A8043107ADFFF71FFB0FCD3C1D0FC460
:108170002B6823704146EDE7B9F1000FEAD074692E
:10818000102201A800F0EBFE06238DF8143001AD9B
:1081900004F108031834186859682A4603C20833E2
:1081A000A3421546F7D101A906A807ADFFF7B2FA19
:1081B0000FCD3C1D0FC42B6823704946CAE70098B9
:1081C000FDF76CFD384615B0BDE8F083024B034A5D
:1081D0001A6000225A60704718E7032094B50B001C
:1081E000232813B502D9002002B010BDA0F10B0363
:1081F000022B1AD8174C2178BFF35B8F11F00101C5
:108200000BD120460191FBF74EFF019928B112488E
:10821000FEF77EF82046FBF74BFF0F4B1878FDF773
:10822000BDFE0028DFD10120DEE7012809D800F0DB
:1082300097F80021007CFDF751FE80F00100C0B2EC
:10824000D2E709380128EED800F04EF8007CFDF79F
:1082500005FEF2E720E7032024E70320232838B5B2
:1082600004460D460AD8FF2908D0FFF7B9FF28B108
:1082700029462046BDE83840FDF720BD38BD38B559
:1082800004460D46FDF722FDFF2810D0062804D82D
:108290004D2323FA00F0C30709D42046FFF7A0FFBF
:1082A00028B129462046BDE83840FDF717BD38BD46
:1082B0007047000038B5044614252A46002100F016
:1082C0004EFE25804025074925812846258200F05D
:1082D0006BF804496060284600F066F8E0602046CC
:1082E00038BD00BFC8B50B0030B50E4D2978BFF3BF
:1082F0005B8F11F0010487B011D12846FBF7D3FE44
:1083000068B101A8FFF7D6FF01AA21460648FFF78A
:1083100045FB2846FBF7CCFE044800F0F1FD02487F
:1083200007B030BD2CE7032030E70320B1820B00FB
:108330007047000038B5202514230446036085608B
:1083400005610649284600F02FF804496060284678
:1083500000F02AF8E060204638BD00BFC8B50B0029
:1083600030B50E4D2978BFF35B8F11F0010487B053
:1083700011D12846FBF797FE68B101A8FFF7DAFF95
:1083800001AA21460648FFF75DFB2846FBF790FE51
:10839000044800F0B5FD024807B030BD48E70320AF
:1083A0004CE7032031830B00FBF777BE08B5FDF7E0
:1083B00041FF0000014900F0F9B800BFE4B50B002F
:1083C0007FB500241023CDE90234036815469E6969
:1083D00012686B46CDE90044B0479DF8043003F0C5
:1083E0000603062B03BF009B2B600120204604B030
:1083F00070BD0098904214BF012006207047000015
:1084000010B5034B0360044600F0CDF8204610BDC4
:1084100024B60B0010B50446FFF7F2FF20460821F2
:10842000FBF73FFE204610BD2DE9F0411F46DDE978
:108430000834DDF8188098450646154607D1079997
:1084400000F0B4F818B165710020BDE8F08139463C
:10845000304600F0ABF80028F6D00123C4F80080C5
:108460002571A371F0E738B515461C4600F09EF85B
:1084700020B10823E36006232560237138BD73B55E
:1084800005460C4601921E4600F090F850B9032EA6
:1084900008D82368019A5B692946204602B0BDE8E6
:1084A0007040184702B070BD10B5034B036004461E
:1084B000FFF7A6FF204610BD84B60B0010B504469A
:1084C000FFF7F2FF20460C21FBF7EBFD204610BD25
:1084D000F7B5089F974205460E4614460AD0A8688D
:1084E00002680897156A31462246AC4603B0BDE8DB
:1084F000F04060471946019300F058F8019B0028AE
:10850000EDD0062003B0F0BD2DE9F14F0D46194620
:10851000DDE90A4BDDE90CA681461746984600F0D6
:1085200045F890B1002D3460377109DB61198A4537
:108530000CBF06210121B171002001B0BDE8F08F10
:108540000235F9D10123B371F6E7544506D15946F6
:10855000484600F02BF808B17771EDE7D9F808002C
:108560000368CDE90CA6CDE90A4BDC693A464346DF
:108570002946A44601B0BDE8F04F60472DE9F0411F
:1085800007460C4615461E46FFF76DFF48B9B8680A
:1085900003689F692A4633462146BC46BDE8F04140
:1085A0006047BDE8F081704700207047814208B500
:1085B0000ED0406803782A2B0CD049680B782A2B00
:1085C00008BF013100F011FDB0FA80F0400908BD8C
:1085D0000120FCE70020FAE781F0004102E000BF43
:1085E00083F0004330B54FEA41044FEA430594EA73
:1085F000050F08BF90EA020F1FBF54EA000C55EAAE
:10860000020C7FEA645C7FEA655C00F0E2804FEA7E
:108610005454D4EB5555B8BF6D420CDD2C4480EA60
:10862000020281EA030382EA000083EA010180EA90
:10863000020281EA0303362D88BF30BD11F0004FDE
:108640004FEA01314FF4801C4CEA113102D0404214
:1086500061EB410113F0004F4FEA03334CEA13334F
:1086600002D0524263EB430394EA050F00F0A78067
:10867000A4F10104D5F1200E0DDB02FA0EFC22FA62
:1086800005F2801841F1000103FA0EF2801843FA56
:1086900005F359410EE0A5F120050EF1200E012A47
:1086A00003FA0EFC28BF4CF0020C43FA05F3C01885
:1086B00051EBE37101F0004507D54FF0000EDCF1FE
:1086C000000C7EEB00006EEB0101B1F5801F1BD3A7
:1086D000B1F5001F0CD349085FEA30004FEA3C0CAB
:1086E00004F101044FEA445212F5800F80F09A80A1
:1086F000BCF1004F08BF5FEA500C50F1000041EBA5
:10870000045141EA050130BD5FEA4C0C404141EBA8
:108710000101013C28BFB1F5801FE9D291F0000FA3
:1087200004BF01460020B1FA81F308BF2033A3F152
:108730000B03B3F120020CDA0C3208DD02F1140C49
:10874000C2F10C0201FA0CF021FA02F10CE002F184
:108750001402D8BFC2F1200C01FA02F120FA0CFC7D
:10876000DCBF41EA0C019040E41AA2BF01EB0451C6
:10877000294330BD6FEA04041F3C1CDA0C340EDCC4
:1087800004F11404C4F1200220FA04F001FA02F307
:1087900040EA030021FA04F345EA030130BDC4F1C5
:1087A0000C04C4F1200220FA02F001FA04F340EABA
:1087B0000300294630BD21FA04F0294630BD94F06B
:1087C000000F83F4801306BF81F480110134013D52
:1087D0004EE77FEA645C18BF7FEA655C29D094EAC3
:1087E000050F08BF90EA020F05D054EA000C04BF41
:1087F0001946104630BD91EA030F1EBF002100202C
:1088000030BD5FEA545C05D14000494128BF41F0CA
:10881000004130BD14F580043CBF01F5801130BD2E
:1088200001F0004545F0FE4141F470014FF00000B9
:1088300030BD7FEA645C1ABF194610467FEA655C6A
:108840001CBF0B46024650EA013406BF52EA03350C
:1088500091EA030F41F4002130BD00BF90F0000FFA
:1088600004BF0021704730B54FF4806404F1320436
:108870004FF000054FF0000150E700BF90F0000FEF
:1088800004BF0021704730B54FF4806404F1320416
:1088900010F0004548BF40424FF000013EE700BFE6
:1088A00042004FEAE2014FEA31014FEA02701FBF76
:1088B00012F07F4393F07F4F81F06051704732F0A8
:1088C0007F4208BF704793F07F4F04BF41F40021FF
:1088D000704730B54FF4607401F0004521F000415D
:1088E0001CE700BF50EA010208BF704730B54FF0E7
:1088F00000050AE050EA010208BF704730B511F0E8
:10890000004502D5404261EB41014FF4806404F11F
:1089100032045FEA915C3FF4D8AE4FF003025FEAA5
:10892000DC0C18BF03325FEADC0C18BF033202EB29
:10893000DC02C2F1200300FA03FC20FA02F001FA83
:1089400003FE40EA0E0021FA02F11444BDE600BF26
:1089500070B54FF0FF0C4CF4E06C1CEA11541DBFD5
:108960001CEA135594EA0C0F95EA0C0F00F0DEF8A0
:108970002C4481EA030621EA4C5123EA4C5350EA85
:10898000013518BF52EA033541F4801143F48013D6
:1089900038D0A0FB02CE4FF00005E1FB02E506F067
:1089A0000042E0FB03E54FF00006E1FB03569CF0BC
:1089B000000F18BF4EF0010EA4F1FF04B6F5007FC2
:1089C00064F5407404D25FEA4E0E6D4146EB060634
:1089D00042EAC62141EA55514FEAC52040EA5E50BD
:1089E0004FEACE2EB4F1FD0C88BFBCF5E06F1ED867
:1089F000BEF1004F08BF5FEA500E50F1000041EB9E
:108A0000045170BD06F0004646EA010140EA02004A
:108A100081EA0301B4EB5C04C2BFD4EB0C0541EA6C
:108A2000045170BD41F480114FF0000E013C00F381
:108A3000AB8014F1360FDEBF002001F0004170BDA5
:108A4000C4F10004203C35DA0C341BDC04F11404BE
:108A5000C4F1200500FA05F320FA04F001FA05F24A
:108A600040EA020001F0004221F0004110EBD37017
:108A700021FA04F642EB06015EEA430E08BF20EA43
:108A8000D37070BDC4F10C04C4F1200500FA04F3E6
:108A900020FA05F001FA04F240EA020001F0004178
:108AA00010EBD37041F100015EEA430E08BF20EAEB
:108AB000D37070BDC4F1200500FA05F24EEA020E33
:108AC00020FA04F301FA05F243EA020321FA04F062
:108AD00001F0004121FA04F220EA020000EBD37019
:108AE0005EEA430E08BF20EAD37070BD94F0000F19
:108AF0000FD101F00046400041EB010111F4801F4D
:108B000008BF013CF7D041EA060195F0000F18BFFD
:108B1000704703F00046520043EB030313F4801F39
:108B200008BF013DF7D043EA0603704794EA0C0FF3
:108B30000CEA135518BF95EA0C0F0CD050EA410609
:108B400018BF52EA4306D1D181EA030101F0004186
:108B50004FF0000070BD50EA410606BF10461946AE
:108B600052EA430619D094EA0C0F02D150EA0136BA
:108B700013D195EA0C0F05D152EA03361CBF1046FB
:108B800019460AD181EA030101F0004141F0FE419A
:108B900041F470014FF0000070BD41F0FE4141F41E
:108BA000780170BD70B54FF0FF0C4CF4E06C1CEA1E
:108BB00011541DBF1CEA135594EA0C0F95EA0C0FD3
:108BC00000F0A7F8A4EB050481EA030E52EA03358E
:108BD0004FEA013100F088804FEA03334FF08055AF
:108BE00045EA131343EA12634FEA022245EA1115DC
:108BF00045EA10654FEA00260EF000419D4208BF8D
:108C0000964244F1FD0404F5407402D25B084FEA39
:108C10003202B61A65EB03055B084FEA32024FF4E5
:108C200080104FF4002CB6EB020E75EB030E22BF42
:108C3000B61A754640EA0C005B084FEA3202B6EB02
:108C4000020E75EB030E22BFB61A754640EA5C00B1
:108C50005B084FEA3202B6EB020E75EB030E22BF41
:108C6000B61A754640EA9C005B084FEA3202B6EB42
:108C7000020E75EB030E22BFB61A754640EADC0001
:108C800055EA060E18D04FEA051545EA16754FEA63
:108C900006164FEAC30343EA52734FEAC2025FEA81
:108CA0001C1CC0D111F4801F0BD141EA00014FF010
:108CB00000004FF0004CB6E711F4801F04BF0143E1
:108CC0000020B4F1FD0C88BFBCF5E06F3FF6AFAEFD
:108CD000B5EB030C04BFB6EB020C5FEA500C50F18D
:108CE000000041EB045170BD0EF0004E4EEA113110
:108CF00014EB5C04C2BFD4EB0C0541EA045170BD17
:108D000041F480114FF0000E013C90E645EA060E5A
:108D10008DE60CEA135594EA0C0F08BF95EA0C0F88
:108D20003FF43BAF94EA0C0F0AD150EA01347FF4D0
:108D300034AF95EA0C0F7FF425AF104619462CE7A7
:108D400095EA0C0F06D152EA03353FF4FDAE10460A
:108D5000194622E750EA410618BF52EA43067FF45B
:108D6000C5AE50EA41047FF40DAF52EA43057FF4EB
:108D7000EBAE12E74FF0FF3C06E000BF4FF0010CF6
:108D800002E000BF4FF0010C4DF804CD4FEA410C5A
:108D90007FEA6C5C4FEA430C18BF7FEA6C5C1BD027
:108DA00001B050EA410C0CBF52EA430C91EA030FA8
:108DB00002BF90EA020F0020704710F1000F91EA05
:108DC000030F58BF994208BF90422CBFD8176FEAD3
:108DD000E37040F0010070474FEA410C7FEA6C5CA1
:108DE00002D150EA013C07D14FEA430C7FEA6C5CA8
:108DF000D6D152EA033CD3D05DF8040B704700BFD4
:108E00008446104662468C461946634600E000BF21
:108E100001B5FFF7B7FF002848BF10F1000F01BDF3
:108E20004DF808EDFFF7F4FF0CBF012000205DF8BE
:108E300008FB00BF4DF808EDFFF7EAFF34BF012043
:108E400000205DF808FB00BF4DF808EDFFF7E0FFDC
:108E500094BF012000205DF808FB00BF4DF808ED2D
:108E6000FFF7CEFF94BF012000205DF808FB00BF94
:108E70004DF808EDFFF7C4FF34BF012000205DF876
:108E800008FB00BF4A0011D212F5001211D20DD515
:108E90006FF47873B3EB62520ED44FEAC12343F000
:108EA000004343EA505323FA02F070474FF00000AA
:108EB000704750EA013002D14FF0FF3070474FF059
:108EC00000007047D0B50C4B002206460F46FFF756
:108ED0003FFDFFF7D7FF0446FFF7C0FC074B00221A
:108EE000FFF736FD02460B4630463946FFF778FB62
:108EF000FFF7C8FF2146D0BD0000F03D0000F04163
:108F0000002301461A46184600F0E4BF002100F095
:108F1000EDBE0A22002100F0D3BF002910B591FB5D
:108F2000F2F402FB141306DB002B01DA01349B1A66
:108F3000C0E9004310BD002BC4BF04F1FF349B18EF
:108F4000F6E70A44914200F1FF3300D1704710B5B3
:108F500011F8014B03F8014F9142F9D110BD0244C1
:108F60000346934200D1704703F8011BF9E7000064
:108F700038B5104B1D68AB6B0446B3B91820FDF72C
:108F800029F90246A86320B90B4B0C484221FDF792
:108F900069F90B490B4BC0E900130B4B83600B23A2
:108FA000838100210120C2E90401AB6B00221C6116
:108FB0005A6138BD24D20320BDB60B00D4B60B00D5
:108FC0000E33CDAB34126DE6ECDE050010B5024673
:108FD000147813460132002CFAD1013B11F8012B11
:108FE00003F8012F002AF9D110BD10F8012B11F858
:108FF000013B012A28BF9A42F7D0D01A7047034696
:1090000011F8012B03F8012B002AF9D17047000059
:10901000024B0146186800F003B800BF24D20320B9
:1090200037B5044608460D4600F00FF8421C1146BD
:1090300020460192FDF706F9044618B1019A294627
:10904000FFF77FFF204603B030BD034613F8012B26
:10905000002AFBD1181A0138704710B57AB10346BF
:109060000139841813F8010B11F8012F904201D136
:10907000A34201D1801A10BD0028F3D1FAE71046AF
:10908000F9E710B50139034632B111F8014F03F881
:10909000014B013A002CF7D11A440021934200D130
:1090A00010BD03F8011BF9E770B504460D4645EC09
:1090B000104B164601F068FE51EC100B7EB1C5F363
:1090C0000A53C3F16B03002B09DD1B0503F17F5528
:1090D000002405F5401522462B46FFF739FC70BDEC
:1090E0002DE9F04F2DED028B9DB01F460023189304
:1090F000A24B13921B680593044618468846FFF757
:10910000A4FF4FF0000A05464FF0000BCDF85C803D
:10911000179B1A782B2A4ED03BD80D2A34D8082A10
:1091200034D8002A3ED000230A93179E3378302B80
:1091300040F0B080737803F0DF03582B68D10A9BAE
:10914000019318AB029700938D4A19AB17A92046DB
:1091500000F08AFF10F00707054605D0062F2CD136
:109160000136002317960A93139B002B40F090853D
:109170000A9BEBB152460BF1004343EC102B1DB0A0
:10918000BDEC028BBDE8F08F202ACCD101331793C0
:10919000BEE72D2AC7D101220A925A1C17925B788A
:1091A000002BC2D1139BCDF85C80002B40F06E8564
:1091B00052465B46E1E70022EEE7189A3AB13521C4
:1091C0001AA801F0ECFE1899204601F0ABFA013F15
:1091D000042F06D8DFE807F00A0314170A00DDE9B8
:1091E0001AAB2807C0D54BF0004BBDE7DDE91AA349
:1091F000199A23F4801302F2334243EA025BF0E748
:10920000DFF880B1EDE76FF0004B4FF0FF3AE8E791
:10921000179B5A1C17925B78302BF9D0002BA3D0E8
:1092200001234FF000090493179B0893CDF81C907D
:109230004F460A2217980678A6F13003D9B20929B9
:109240002AD905992A46FFF708FF98B3002032462D
:109250003D4605900346652A01D0452A18D11DB91F
:10926000049A02439ED00025DDF85C8008F10102DB
:10927000179298F801202B2A75D02D2A7BD04FF019
:10928000000CA2F13001092940F28280CDF85C8007
:1092900000269DE00023C4E7082FD8BF079900F1FE
:1092A0000100DABF02FB0133079302FB09390137E2
:1092B0001790BFE7179B5A1917925A5D002F37D0A6
:1092C00005903D46A2F13003092B12D90123C2E7D4
:1092D000179B5A1C17925A780130302AF8D0A2F105
:1092E0003103082B00F2D984179B059000200893C6
:1092F0000546303A00F1010314D00599194405914F
:109300002B4600EB050E0A21734513D12B18082BB1
:1093100005F1010505441CDC07990A2303FB012321
:1093200007930023179A511C179152781846C9E7E2
:109330003846D2E7082B04DC079E4E4307960133DC
:10934000E2E703F1010CBCF1100FD8BF01FB09F9F2
:10935000F5E7102DDCBF0A2303FB0929E1E7002311
:10936000059301237CE74FF0000C08F102021792ED
:1093700098F8022085E74FF0010CF6E7C8B90B001A
:1093800060B70B000000F07F179A511C17915278BC
:10939000302AF9D0A2F1310108293FF679AFA2F1C4
:1093A000300E179A0692179A511C17915278A2F113
:1093B0003006092E37D9069E891B082944F61F66F8
:1093C00002DC7645A8BF7646BCF1000F00D076429D
:1093D000002D4DD1049901437FF4C6AE002B7FF4DC
:1093E000E1AE692A27D024DC492A24D04E2A7FF412
:1093F000D9AE9F4917A801F08FF800283FF4D2AEEC
:10940000179B1B78282B2DD19A491AAA17A801F06F
:1094100097F8052826D11B9BDDF868A043F0FF4B89
:109420004BF4E00BA0E60A2101FB0E2EAEF1300E4C
:10943000B9E76E2ADBE7904917A801F06DF800281C
:109440003FF4B0AE179B8D49013B17A8179301F06D
:1094500063F810B9179B01331793DFF830B24FF060
:10946000000A81E6864801F0EFFD5BEC10AB7BE67D
:10947000059B0798F31A002F08BF2F46102D06935F
:10948000A846A8BF4FF01008FFF7E8F9092D82465B
:109490008B4613DD7B4B03EBC80353E91223FFF725
:1094A00057FA824648468B46FFF7D8F902460B46E4
:1094B00050465946FFF796F882468B460F2D38DC0A
:1094C000069B002B3FF450AE24DD162B0BDC6D49C0
:1094D00001EBC301D1E9000152465B46FFF738FAC0
:1094E00082468B4640E6069AC5F12503934220DB6F
:1094F000644CC5F10F0504EBC50152465B46D1E94A
:109500000001FFF725FA069B5D1B04EBC504D4E9B7
:109510000023E3E7069B16330BDB059B9E1B594B91
:1095200003EBC606D6E9002350465946FFF73AFB3F
:10953000D6E7069BA5EB08089844B8F1000F74DD48
:1095400018F00F030AD04F4901EBC30152465B46A6
:10955000D1E90001FFF7FCF982468B4638F00F088D
:109560004FD0B8F59A7F22DD00252E460795059548
:109570002223DFF818B123604FF0000A079B002B6D
:109580003FF4F2AD1899204601F0CCF80599204639
:1095900001F0C8F83146204601F0C4F8079920468A
:1095A00001F0C0F82946204601F0BCF8DCE5364B56
:1095B000049300234FEA2818504659469946B8F1BB
:1095C000010F21DC0BB182468B462F4BABF1547B54
:1095D00003EBC90952465B46D9E90001FFF7B8F928
:1095E0002A4B0A460B402A498B428246BCD8A1F539
:1095F00080118B4286BFDFF89CB04FF0FF3A02F13A
:10960000547B0023049384E018F0010F05D0049BE1
:10961000D3E90023FFF79CF90123049A083209F1EA
:1096200001094FEA68080492C9E7EAD0C8F10008C6
:1096300018F00F020AD0134B03EBC20350465946F1
:10964000D3E90023FFF7AEFA82468B465FEA28187B
:10965000D7D0B8F11F0F1FDD00252E4607950595C1
:1096600022234FF0000A4FF0000B236086E700BF73
:109670005AB70B0074B70B0051B70B0054B70B006F
:1096800064B10B0088BA0B0060BA0B000000F07FD9
:109690000000A07CFFFFEF7F18F0100318BF6A23C3
:1096A000DFF8AC93049350465946002318F0010F9D
:1096B00004D0D9E90023FFF74BF901235FEA6808DA
:1096C00009F10809F2D10BB182468B46049BC3B164
:1096D000CBF30A52C2F16B03002B594611DD1F2B4D
:1096E00040F32481342BDEBFC2F14B024FF0FF3335
:1096F00003FA02F24FF0000ACCBF4FF05C7B02EAA3
:10970000010B0022002350465946FFF789FB002831
:10971000A2D1079B009308992B463A46204601F0B8
:1097200069F8079000283FF41FAF059B9E1B069B1E
:10973000002BB4BF334600230C93069B002523EA7D
:10974000E37312932E46079B2046596800F0AAFF48
:10975000059000283FF40CAF079B1A69023203F111
:109760000C0192000C30FFF7ECFB4BEC10AB1AAA8B
:1097700019A9204601F084FB4BEC18AB1890002887
:109780003FF4F6AE0121204601F0CEF8064600284F
:109790003FF4EEAE199B0499002BABBF0C9A129AC2
:1097A000129FDDF83090ACBF03EB0209D71A1A9A6A
:1097B000A3EB01089044A14B08F1FF389845C2F192
:1097C000360280F2C780A3EB08031F2BA2EB030233
:1097D0004FF0010100F3B18001FA03F30D93002370
:1097E000089309EB0208049BC14517441F444B46EC
:1097F000A8BF4346BB42A8BF3B46002BC2BFA8EB55
:109800000308FF1AA9EB03090C9B002B17DD314657
:109810001A46204601F048F9064600283FF4A8AE53
:109820000146189A204601F095F80B9000283FF465
:109830009FAE1899204600F075FF0B9B1893B8F166
:10984000000F00F38C80069B002B08DD129A05990F
:10985000204601F029F9059000283FF489AE002F39
:1098600008DD05993A46204601F078F90590002870
:109870003FF47EAEB9F1000F08DD31464A4620467E
:1098800001F06CF9064600283FF472AE059A18996B
:10989000204601F0EFF9054600283FF469AEC368A1
:1098A0000B930023C360314601F0C8F9002860DA49
:1098B0000B9B53EA0A0340F08280CBF31303002B87
:1098C0007DD12BF000431B0D1B05B3F1D66F76D96C
:1098D0006B6913B92B69012B71DD294601222046E2
:1098E00001F03CF93146054601F0A8F9002866DD93
:1098F0000499534A5B46002900F0818002EA0B017B
:10990000B1F1D66F7BDCB1F15C7F7FF7A9AE4D4B37
:10991000504659460022FFF71BF80B46034308BF89
:10992000222382468B4608BF23602BE64FF0FF328E
:1099300002FA03F303EA0A0AE3E6C8F17F4808F5EE
:109940007F0808F57B4808F1E20801FA08F308935C
:109950000D9146E70023089301230D9341E71899E1
:109960004246204601F0FAF8189000287FF46BAFC9
:10997000FEE55F466ED10B9ACBF3130342B3324A36
:10998000934228D1049B5146EBB12D4B3B40B3F1A0
:10999000D46F4FF0FF3219D81B0DC3F16B0302FADD
:1099A00003F3994217D1294B9F4202D101313FF471
:1099B000DFAD234B3B4003F5801B4FF0000A049BB7
:1099C000002BA4D1DEE54FF0FF33EAE71346E8E7CA
:1099D00053EA0A038CD0089BDBB13B42EFD00B9BD0
:1099E000049A50465946C3B1FFF75EFB02460B4648
:1099F00051EC180BFEF7F6FD82468B46DFE713406D
:109A0000A3F580136FEA135B6FEA0B5B4FF0FF3A2D
:109A1000D5E70D9B13EA0A0FE0E7FFF745FB024687
:109A20000B4651EC180BFEF7DBFD002200238246AB
:109A30008B46FFF7F5F90028C1D011E602FCFFFFC5
:109A40000000F07F00005039FFFF0F00FFFFEF7FA5
:109A500088B70B003146284601F06EFA59EC108B9E
:109A600010EE100A00224FF080434946FFF7ECF950
:109A700000287AD00B9B002B4AD0954B0022CDE9D1
:109A80000823DFF84C924FF00008924B3B400D93B7
:109A90000D9A914B9A4240F0B080DDE90801A7F1A0
:109AA000547B4BEC10ABCDE9080101F06DF9DDE919
:109AB000080153EC102BFEF74BFF52465B46FEF7B6
:109AC00091FD0B468349854A19409142824660D9EF
:109AD00018EE903A02F15472934204D118EE103A03
